# 17195772

## Common Data

| Field            | Value                       |
|------------------|-----------------------------|
| Zone             | La Theine Plateau (ID: 102) |
| Block Size       | 18620 bytes                 |
| Total Events     | 4                           |
| References Count | 416                         |

## List of Events

| Event ID              | Entrypoint   |   Size |   Instructions |
|-----------------------|--------------|--------|----------------|
| [65535](#event-65535) | 0x0000       |    658 |             62 |
| [225](#event-225)     | 0x0292       |   4876 |            695 |
| [226](#event-226)     | 0x159E       |   3746 |            480 |
| [227](#event-227)     | 0x2440       |   7642 |            935 |

## DAT References (imed_data)

|   Index | Hex Value   |   Dec Value |
|---------|-------------|-------------|
|       0 | 0x00C8      |         200 |
|       1 | 0x0000      |           0 |
|       2 | 0x00C9      |         201 |
|       3 | 0x0001      |           1 |
|       4 | 0x002D      |          45 |
|       5 | 0x0002      |           2 |
|       6 | 0x001E      |          30 |
|       7 | 0x00D7      |         215 |
|       8 | 0x012C      |         300 |
|       9 | 0x0093      |         147 |
|      10 | 0xFFFD3036  |  4294783030 |
|      11 | 0x3EBC7     |      256967 |
|      12 | 0x1FEC      |        8172 |
|      13 | 0x0263      |         611 |
|      14 | 0xFFFD5CB5  |  4294794421 |
|      15 | 0x3B0FA     |      241914 |
|      16 | 0x2134      |        8500 |
|      17 | 0x09F9      |        2553 |
|      18 | 0xFFFD4EC8  |  4294790856 |
|      19 | 0x3D510     |      251152 |
|      20 | 0x229D      |        8861 |
|      21 | 0x03A9      |         937 |
|      22 | 0x003C      |          60 |
|      23 | 0x0064      |         100 |
|      24 | 0x3168      |       12648 |
|      25 | 0x3169      |       12649 |
|      26 | 0x0032      |          50 |
|      27 | 0x0020      |          32 |
|      28 | 0x007F      |         127 |
|      29 | 0x316A      |       12650 |
|      30 | 0x0028      |          40 |
|      31 | 0x316B      |       12651 |
|      32 | 0x0005      |           5 |
|      33 | 0x0006      |           6 |
|      34 | 0x316C      |       12652 |
|      35 | 0x316D      |       12653 |
|      36 | 0x316E      |       12654 |
|      37 | 0x316F      |       12655 |
|      38 | 0x3170      |       12656 |
|      39 | 0x3171      |       12657 |
|      40 | 0x0014      |          20 |
|      41 | 0x3172      |       12658 |
|      42 | 0x1CE9      |        7401 |
|      43 | 0xFFFFFF0F  |  4294967055 |
|      44 | 0x13880     |       80000 |
|      45 | 0xFFFEC780  |  4294887296 |
|      46 | 0x05DC      |        1500 |
|      47 | 0x03E8      |        1000 |
|      48 | 0x0078      |         120 |
|      49 | 0x001B      |          27 |
|      50 | 0x3173      |       12659 |
|      51 | 0x0104      |         260 |
|      52 | 0x3174      |       12660 |
|      53 | 0x3175      |       12661 |
|      54 | 0x3176      |       12662 |
|      55 | 0x3177      |       12663 |
|      56 | 0x3178      |       12664 |
|      57 | 0x3179      |       12665 |
|      58 | 0x317A      |       12666 |
|      59 | 0x317B      |       12667 |
|      60 | 0x317C      |       12668 |
|      61 | 0x317D      |       12669 |
|      62 | 0x317E      |       12670 |
|      63 | 0x317F      |       12671 |
|      64 | 0x3180      |       12672 |
|      65 | 0x3181      |       12673 |
|      66 | 0x3182      |       12674 |
|      67 | 0x0641      |        1601 |
|      68 | 0x3183      |       12675 |
|      69 | 0x3184      |       12676 |
|      70 | 0x3185      |       12677 |
|      71 | 0x07D1      |        2001 |
|      72 | 0x3186      |       12678 |
|      73 | 0x3187      |       12679 |
|      74 | 0x3188      |       12680 |
|      75 | 0x3189      |       12681 |
|      76 | 0x318A      |       12682 |
|      77 | 0x318B      |       12683 |
|      78 | 0x318C      |       12684 |
|      79 | 0x318D      |       12685 |
|      80 | 0x318E      |       12686 |
|      81 | 0x318F      |       12687 |
|      82 | 0x3190      |       12688 |
|      83 | 0x3191      |       12689 |
|      84 | 0x0056      |          86 |
|      85 | 0x000C      |          12 |
|      86 | 0x3B539     |      243001 |
|      87 | 0xFFFAE0E9  |  4294631657 |
|      88 | 0x50C3      |       20675 |
|      89 | 0x0400      |        1024 |
|      90 | 0x3A58C     |      238988 |
|      91 | 0xFFFAE17A  |  4294631802 |
|      92 | 0x5207      |       20999 |
|      93 | 0x39EEC     |      237292 |
|      94 | 0xFFFAEF1C  |  4294635292 |
|      95 | 0x5054      |       20564 |
|      96 | 0x02AF      |         687 |
|      97 | 0x3ACCA     |      240842 |
|      98 | 0xFFFAEFF7  |  4294635511 |
|      99 | 0x51BA      |       20922 |
|     100 | 0x3D5AA     |      251306 |
|     101 | 0xFFFAC71D  |  4294625053 |
|     102 | 0x4859      |       18521 |
|     103 | 0x08A9      |        2217 |
|     104 | 0x3B214     |      242196 |
|     105 | 0xFFFABFA9  |  4294623145 |
|     106 | 0x51CC      |       20940 |
|     107 | 0x0B64      |        2916 |
|     108 | 0x001F      |          31 |
|     109 | 0x3192      |       12690 |
|     110 | 0x3193      |       12691 |
|     111 | 0x3194      |       12692 |
|     112 | 0x0066      |         102 |
|     113 | 0x000F      |          15 |
|     114 | 0xFFFD4624  |  4294788644 |
|     115 | 0x3D2D1     |      250577 |
|     116 | 0x2253      |        8787 |
|     117 | 0x0792      |        1938 |
|     118 | 0x3195      |       12693 |
|     119 | 0x3196      |       12694 |
|     120 | 0x3197      |       12695 |
|     121 | 0x3198      |       12696 |
|     122 | 0x0465      |        1125 |
|     123 | 0x3199      |       12697 |
|     124 | 0x319A      |       12698 |
|     125 | 0x319B      |       12699 |
|     126 | 0x319C      |       12700 |
|     127 | 0x005A      |          90 |
|     128 | 0x319D      |       12701 |
|     129 | 0x000A      |          10 |
|     130 | 0xFFFD4AC4  |  4294789828 |
|     131 | 0x3D2AB     |      250539 |
|     132 | 0x225A      |        8794 |
|     133 | 0x319E      |       12702 |
|     134 | 0x319F      |       12703 |
|     135 | 0x31A0      |       12704 |
|     136 | 0x31A1      |       12705 |
|     137 | 0xFFFD5646  |  4294792774 |
|     138 | 0x3D8C4     |      252100 |
|     139 | 0x23C9      |        9161 |
|     140 | 0x06A2      |        1698 |
|     141 | 0x31A2      |       12706 |
|     142 | 0x00FF      |         255 |
|     143 | 0x3AF7A     |      241530 |
|     144 | 0xFFFAA988  |  4294617480 |
|     145 | 0x5025      |       20517 |
|     146 | 0x0387      |         903 |
|     147 | 0x3B38F     |      242575 |
|     148 | 0xFFFAB1AC  |  4294619564 |
|     149 | 0x5158      |       20824 |
|     150 | 0x039D      |         925 |
|     151 | 0x3A868     |      239720 |
|     152 | 0xFFFAAEFE  |  4294618878 |
|     153 | 0x5183      |       20867 |
|     154 | 0x02E9      |         745 |
|     155 | 0x3A960     |      239968 |
|     156 | 0xFFFA8E4A  |  4294610506 |
|     157 | 0x4E1F      |       19999 |
|     158 | 0x0C0E      |        3086 |
|     159 | 0x3BC35     |      244789 |
|     160 | 0xFFFA9191  |  4294611345 |
|     161 | 0x4E8F      |       20111 |
|     162 | 0x0A10      |        2576 |
|     163 | 0x3C978     |      248184 |
|     164 | 0xFFFAA2EE  |  4294615790 |
|     165 | 0x4ECB      |       20171 |
|     166 | 0x0811      |        2065 |
|     167 | 0x39795     |      235413 |
|     168 | 0xFFFA96AD  |  4294612653 |
|     169 | 0x4D36      |       19766 |
|     170 | 0x0DFC      |        3580 |
|     171 | 0x3A9D2     |      240082 |
|     172 | 0xFFFAE0C4  |  4294631620 |
|     173 | 0x03AC      |         940 |
|     174 | 0x002C      |          44 |
|     175 | 0x0389      |         905 |
|     176 | 0x00B4      |         180 |
|     177 | 0x31A4      |       12708 |
|     178 | 0x31A5      |       12709 |
|     179 | 0x31A6      |       12710 |
|     180 | 0x31A7      |       12711 |
|     181 | 0x0096      |         150 |
|     182 | 0x31A8      |       12712 |
|     183 | 0x0008      |           8 |
|     184 | 0x31A9      |       12713 |
|     185 | 0x31AA      |       12714 |
|     186 | 0x00F0      |         240 |
|     187 | 0x3B2EA     |      242410 |
|     188 | 0xFFFAAA07  |  4294617607 |
|     189 | 0x4FC3      |       20419 |
|     190 | 0x037E      |         894 |
|     191 | 0x398DC     |      235740 |
|     192 | 0xFFFABA95  |  4294621845 |
|     193 | 0x50CC      |       20684 |
|     194 | 0x0194      |         404 |
|     195 | 0x390C2     |      233666 |
|     196 | 0xFFFAB5C6  |  4294620614 |
|     197 | 0x4FD0      |       20432 |
|     198 | 0x0182      |         386 |
|     199 | 0x3ABB3     |      240563 |
|     200 | 0xFFFAAA4E  |  4294617678 |
|     201 | 0x5057      |       20567 |
|     202 | 0x030A      |         778 |
|     203 | 0x00F6      |         246 |
|     204 | 0x31AB      |       12715 |
|     205 | 0x31AC      |       12716 |
|     206 | 0x31AD      |       12717 |
|     207 | 0x31AE      |       12718 |
|     208 | 0x31AF      |       12719 |
|     209 | 0x31B0      |       12720 |
|     210 | 0x31B1      |       12721 |
|     211 | 0x31B2      |       12722 |
|     212 | 0x31B3      |       12723 |
|     213 | 0x0003      |           3 |
|     214 | 0x0004      |           4 |
|     215 | 0x0007      |           7 |
|     216 | 0x31B4      |       12724 |
|     217 | 0x31B5      |       12725 |
|     218 | 0x31B6      |       12726 |
|     219 | 0x31B7      |       12727 |
|     220 | 0x31B8      |       12728 |
|     221 | 0x31B9      |       12729 |
|     222 | 0x31BA      |       12730 |
|     223 | 0x3AF07     |      241415 |
|     224 | 0xFFFAA120  |  4294615328 |
|     225 | 0x4E20      |       20000 |
|     226 | 0x02A4      |         676 |
|     227 | 0x31BB      |       12731 |
|     228 | 0x31BC      |       12732 |
|     229 | 0x31BD      |       12733 |
|     230 | 0x31BE      |       12734 |
|     231 | 0x31BF      |       12735 |
|     232 | 0x31C0      |       12736 |
|     233 | 0x31C1      |       12737 |
|     234 | 0x31C2      |       12738 |
|     235 | 0x31C3      |       12739 |
|     236 | 0x31C4      |       12740 |
|     237 | 0x00D9      |         217 |
|     238 | 0x31C5      |       12741 |
|     239 | 0x31C6      |       12742 |
|     240 | 0x31C7      |       12743 |
|     241 | 0x035E      |         862 |
|     242 | 0x31C8      |       12744 |
|     243 | 0x31C9      |       12745 |
|     244 | 0x0065      |         101 |
|     245 | 0x0067      |         103 |
|     246 | 0x38589     |      230793 |
|     247 | 0xFFFAB0E3  |  4294619363 |
|     248 | 0x4ED6      |       20182 |
|     249 | 0x0062      |          98 |
|     250 | 0x38097     |      229527 |
|     251 | 0xFFFAB57F  |  4294620543 |
|     252 | 0x4EAA      |       20138 |
|     253 | 0x37F20     |      229152 |
|     254 | 0xFFFAAE6D  |  4294618733 |
|     255 | 0x4E58      |       20056 |
|     256 | 0x000D      |          13 |
|     257 | 0x3A6FC     |      239356 |
|     258 | 0xFFFA923B  |  4294611515 |
|     259 | 0x0CF1      |        3313 |
|     260 | 0x3B5F1     |      243185 |
|     261 | 0xFFFA96C3  |  4294612675 |
|     262 | 0x4EF1      |       20209 |
|     263 | 0x0A27      |        2599 |
|     264 | 0x3B94B     |      244043 |
|     265 | 0xFFFAA297  |  4294615703 |
|     266 | 0x4EF7      |       20215 |
|     267 | 0x0C04      |        3076 |
|     268 | 0x39EBF     |      237247 |
|     269 | 0xFFFA9A43  |  4294613571 |
|     270 | 0x4E38      |       20024 |
|     271 | 0x3A8FB     |      239867 |
|     272 | 0xFFFAD0E2  |  4294627554 |
|     273 | 0x0355      |         853 |
|     274 | 0x3AD18     |      240920 |
|     275 | 0xFFFADB9A  |  4294630298 |
|     276 | 0x0375      |         885 |
|     277 | 0x3A166     |      237926 |
|     278 | 0xFFFADA60  |  4294629984 |
|     279 | 0x510E      |       20750 |
|     280 | 0x038A      |         906 |
|     281 | 0xFFFFFF9C  |  4294967196 |
|     282 | 0xFFF85EE0  |  4294467296 |
|     283 | 0x0597      |        1431 |
|     284 | 0x0946      |        2374 |
|     285 | 0x058E      |        1422 |
|     286 | 0x033F      |         831 |
|     287 | 0x3AC51     |      240721 |
|     288 | 0xFFFAAB2A  |  4294617898 |
|     289 | 0x508E      |       20622 |
|     290 | 0x31CA      |       12746 |
|     291 | 0x31CB      |       12747 |
|     292 | 0x31CC      |       12748 |
|     293 | 0x3ACC7     |      240839 |
|     294 | 0xFFFA9C71  |  4294614129 |
|     295 | 0x0F4E      |        3918 |
|     296 | 0x4E8D      |       20109 |
|     297 | 0x31CD      |       12749 |
|     298 | 0x0082      |         130 |
|     299 | 0x31CE      |       12750 |
|     300 | 0x31CF      |       12751 |
|     301 | 0x31D0      |       12752 |
|     302 | 0x3ABFE     |      240638 |
|     303 | 0xFFFABD10  |  4294622480 |
|     304 | 0x03D4      |         980 |
|     305 | 0x0C3E      |        3134 |
|     306 | 0x31D1      |       12753 |
|     307 | 0x02D2      |         722 |
|     308 | 0x055D      |        1373 |
|     309 | 0x31D2      |       12754 |
|     310 | 0x00D2      |         210 |
|     311 | 0x31D3      |       12755 |
|     312 | 0x38E77     |      233079 |
|     313 | 0xFFFAB108  |  4294619400 |
|     314 | 0x4F84      |       20356 |
|     315 | 0x00E9      |         233 |
|     316 | 0x388F3     |      231667 |
|     317 | 0xFFFAB7D6  |  4294621142 |
|     318 | 0x4F6B      |       20331 |
|     319 | 0x016D      |         365 |
|     320 | 0x3871C     |      231196 |
|     321 | 0xFFFAB00F  |  4294619151 |
|     322 | 0x00DF      |         223 |
|     323 | 0x4E15      |       19989 |
|     324 | 0x3C7F2     |      247794 |
|     325 | 0xFFFA9F07  |  4294614791 |
|     326 | 0x4F2F      |       20271 |
|     327 | 0x0926      |        2342 |
|     328 | 0x399E9     |      236009 |
|     329 | 0xFFFA9746  |  4294612806 |
|     330 | 0x4D64      |       19812 |
|     331 | 0x0E17      |        3607 |
|     332 | 0x3AA80     |      240256 |
|     333 | 0xFFFAB279  |  4294619769 |
|     334 | 0x0360      |         864 |
|     335 | 0x3AF32     |      241458 |
|     336 | 0xFFFAC0AA  |  4294623402 |
|     337 | 0x03D9      |         985 |
|     338 | 0x3A326     |      238374 |
|     339 | 0xFFFAC04D  |  4294623309 |
|     340 | 0x0371      |         881 |
|     341 | 0x392A1     |      234145 |
|     342 | 0xFFFAA59B  |  4294616475 |
|     343 | 0x4F54      |       20308 |
|     344 | 0x0FC8      |        4040 |
|     345 | 0x31D4      |       12756 |
|     346 | 0x31D5      |       12757 |
|     347 | 0x31D6      |       12758 |
|     348 | 0x31D7      |       12759 |
|     349 | 0x31D8      |       12760 |
|     350 | 0x08B5      |        2229 |
|     351 | 0x31D9      |       12761 |
|     352 | 0x31DA      |       12762 |
|     353 | 0x31DB      |       12763 |
|     354 | 0x31DC      |       12764 |
|     355 | 0x31DD      |       12765 |
|     356 | 0x31DE      |       12766 |
|     357 | 0x31DF      |       12767 |
|     358 | 0x31E0      |       12768 |
|     359 | 0x31E1      |       12769 |
|     360 | 0x31E2      |       12770 |
|     361 | 0x31E3      |       12771 |
|     362 | 0x31E4      |       12772 |
|     363 | 0x31E5      |       12773 |
|     364 | 0x31E6      |       12774 |
|     365 | 0x31E7      |       12775 |
|     366 | 0x31E8      |       12776 |
|     367 | 0x31E9      |       12777 |
|     368 | 0x31EA      |       12778 |
|     369 | 0x3A922     |      239906 |
|     370 | 0xFFFAC135  |  4294623541 |
|     371 | 0x03BF      |         959 |
|     372 | 0x3A401     |      238593 |
|     373 | 0xFFFAB0A1  |  4294619297 |
|     374 | 0x51EB      |       20971 |
|     375 | 0x0C8D      |        3213 |
|     376 | 0x39DFD     |      237053 |
|     377 | 0xFFFAAB22  |  4294617890 |
|     378 | 0x50A8      |       20648 |
|     379 | 0x0D7B      |        3451 |
|     380 | 0x3A6A0     |      239264 |
|     381 | 0xFFFAA93E  |  4294617406 |
|     382 | 0x5017      |       20503 |
|     383 | 0x0CA7      |        3239 |
|     384 | 0x3AE9B     |      241307 |
|     385 | 0xFFFAB0DB  |  4294619355 |
|     386 | 0x0AB4      |        2740 |
|     387 | 0x31EB      |       12779 |
|     388 | 0x31EC      |       12780 |
|     389 | 0x31ED      |       12781 |
|     390 | 0x31EE      |       12782 |
|     391 | 0x31EF      |       12783 |
|     392 | 0x31F0      |       12784 |
|     393 | 0x31F1      |       12785 |
|     394 | 0x31F2      |       12786 |
|     395 | 0x31F3      |       12787 |
|     396 | 0x31F4      |       12788 |
|     397 | 0x31F5      |       12789 |
|     398 | 0x31F6      |       12790 |
|     399 | 0x31F7      |       12791 |
|     400 | 0x31F8      |       12792 |
|     401 | 0x31F9      |       12793 |
|     402 | 0x31FA      |       12794 |
|     403 | 0x31FB      |       12795 |
|     404 | 0x31FC      |       12796 |
|     405 | 0x31FD      |       12797 |
|     406 | 0x0019      |          25 |
|     407 | 0x31FE      |       12798 |
|     408 | 0x31FF      |       12799 |
|     409 | 0x3200      |       12800 |
|     410 | 0x3201      |       12801 |
|     411 | 0x3202      |       12802 |
|     412 | 0x3203      |       12803 |
|     413 | 0x3204      |       12804 |
|     414 | 0x3205      |       12805 |
|     415 | 0x3206      |       12806 |

## String References

- **7401**: @@
- **12764**: Can you handle Garazu-Horeizu's phantoms? [Definitely!/Probably not!/I'm not sure...]

## Events

### Event 65535

#### Metadata

| Field        | Value     |
|--------------|-----------|
| Entrypoint   | 0x0000    |
| Data Size    | 658 bytes |
| Instructions | 1         |

```
      00 01 02 03 04 05 06 07  08 09 0A 0B 0C 0D 0E 0F
      -- -- -- -- -- -- -- --  -- -- -- -- -- -- -- --
0000: 00 45 00 80 F0 FF FF 7F  F0 FF FF 7F 66 64 69 30  .E..........fdi0
0010: 01 80 55 00 80 F0 FF FF  7F F0 FF FF 7F 66 64 69  ..U..........fdi
0020: 30 1B 45 00 80 F0 FF FF  7F F0 FF FF 7F 66 64 6F  0.E..........fdo
0030: 30 01 80 55 00 80 F0 FF  FF 7F F0 FF FF 7F 66 64  0..U..........fd
0040: 6F 30 1B 45 00 80 F0 FF  FF 7F F0 FF FF 7F 66 64  o0.E..........fd
0050: 69 31 01 80 55 00 80 F0  FF FF 7F F0 FF FF 7F 66  i1..U..........f
0060: 64 69 31 1B 45 00 80 F0  FF FF 7F F0 FF FF 7F 66  di1.E..........f
0070: 64 6F 31 01 80 55 00 80  F0 FF FF 7F F0 FF FF 7F  do1..U..........
0080: 66 64 6F 31 1B 45 02 80  F0 FF FF 7F F0 FF FF 7F  fdo1.E..........
0090: 77 68 69 31 01 80 55 02  80 F0 FF FF 7F F0 FF FF  whi1..U.........
00A0: 7F 77 68 69 31 1B 45 02  80 F0 FF FF 7F F0 FF FF  .whi1.E.........
00B0: 7F 77 68 6F 31 01 80 55  02 80 F0 FF FF 7F F0 FF  .who1..U........
00C0: FF 7F 77 68 6F 31 1B 45  02 80 F0 FF FF 7F F0 FF  ..who1.E........
00D0: FF 7F 77 68 6F 32 01 80  55 02 80 F0 FF FF 7F F0  ..who2..U.......
00E0: FF FF 7F 77 68 6F 32 1B  45 02 80 F0 FF FF 7F F0  ...who2.E.......
00F0: FF FF 7F 77 68 6F 33 01  80 55 02 80 F0 FF FF 7F  ...who3..U......
0100: F0 FF FF 7F 77 68 6F 33  1B 62 03 80 F0 FF FF 7F  ....who3.b......
0110: F0 FF FF 7F 6D 61 69 6E  01 80 1C 04 80 45 00 80  ....main.....E..
0120: F0 FF FF 7F F0 FF FF 7F  66 64 6F 31 01 80 55 00  ........fdo1..U.
0130: 80 F0 FF FF 7F F0 FF FF  7F 66 64 6F 31 1B 45 00  .........fdo1.E.
0140: 80 F0 FF FF 7F F0 FF FF  7F 66 64 69 31 01 80 62  .........fdi1..b
0150: 05 80 F0 FF FF 7F F0 FF  FF 7F 6D 61 69 6E 01 80  ..........main..
0160: 1C 06 80 55 00 80 F0 FF  FF 7F F0 FF FF 7F 66 64  ...U..........fd
0170: 69 31 1B 45 00 80 F0 FF  FF 7F F0 FF FF 7F 62 6C  i1.E..........bl
0180: 6F 6E 01 80 45 02 80 F0  FF FF 7F F0 FF FF 7F 62  on..E..........b
0190: 6C 6F 6E 01 80 1B 45 02  80 F0 FF FF 7F F0 FF FF  lon...E.........
01A0: 7F 77 68 69 30 01 80 55  02 80 F0 FF FF 7F F0 FF  .whi0..U........
01B0: FF 7F 77 68 69 30 1B 45  02 80 F0 FF FF 7F F0 FF  ..whi0.E........
01C0: FF 7F 77 68 6F 30 01 80  55 02 80 F0 FF FF 7F F0  ..who0..U.......
01D0: FF FF 7F 77 68 6F 30 1B  45 07 80 F0 FF FF 7F F0  ...who0.E.......
01E0: FF FF 7F 65 66 6F 6E 01  80 55 07 80 F0 FF FF 7F  ...efon..U......
01F0: F0 FF FF 7F 65 66 6F 6E  1B 45 00 80 F0 FF FF 7F  ....efon.E......
0200: F0 FF FF 7F 66 64 69 73  01 80 1B 45 00 80 F0 FF  ....fdis...E....
0210: FF 7F F0 FF FF 7F 66 64  6F 73 01 80 55 00 80 F0  ......fdos..U...
0220: FF FF 7F F0 FF FF 7F 66  64 6F 73 1B 45 00 80 F0  .......fdos.E...
0230: FF FF 7F F0 FF FF 7F 66  64 69 66 01 80 1B 45 00  .......fdif...E.
0240: 80 F0 FF FF 7F F0 FF FF  7F 66 64 6F 66 01 80 55  .........fdof..U
0250: 00 80 F0 FF FF 7F F0 FF  FF 7F 66 64 6F 66 1B 45  ..........fdof.E
0260: 00 80 F0 FF FF 7F F0 FF  FF 7F 66 64 69 70 01 80  ..........fdip..
0270: 1B 45 00 80 F0 FF FF 7F  F0 FF FF 7F 66 64 6F 70  .E..........fdop
0280: 01 80 55 00 80 F0 FF FF  7F F0 FF FF 7F 66 64 6F  ..U..........fdo
0290: 70 1B                                             p.              
```

#### Opcodes

```
  0: 0x0000 [0x00] END_REQSTACK()
```

#### Data or dead code:

```
# Dead code (unreachable instructions):
     0x0001 [0x45] LOAD_SCHEDULED_TASK: Load scheduler "fdi0" with entities [LocalPlayer, LocalPlayer], work=[200*, 0*]
     0x0012 [0x55] WAIT_LOAD_SCHEDULER: Wait for scheduler "fdi0" with entities [LocalPlayer, LocalPlayer], work=200*
     0x0021 [0x1B] RETURN
     0x0022 [0x45] LOAD_SCHEDULED_TASK: Load scheduler "fdo0" with entities [LocalPlayer, LocalPlayer], work=[200*, 0*]
     0x0033 [0x55] WAIT_LOAD_SCHEDULER: Wait for scheduler "fdo0" with entities [LocalPlayer, LocalPlayer], work=200*
     0x0042 [0x1B] RETURN
     0x0043 [0x45] LOAD_SCHEDULED_TASK: Load scheduler "fdi1" with entities [LocalPlayer, LocalPlayer], work=[200*, 0*]
     0x0054 [0x55] WAIT_LOAD_SCHEDULER: Wait for scheduler "fdi1" with entities [LocalPlayer, LocalPlayer], work=200*
     0x0063 [0x1B] RETURN
     0x0064 [0x45] LOAD_SCHEDULED_TASK: Load scheduler "fdo1" with entities [LocalPlayer, LocalPlayer], work=[200*, 0*]
     0x0075 [0x55] WAIT_LOAD_SCHEDULER: Wait for scheduler "fdo1" with entities [LocalPlayer, LocalPlayer], work=200*
     0x0084 [0x1B] RETURN
     0x0085 [0x45] LOAD_SCHEDULED_TASK: Load scheduler "whi1" with entities [LocalPlayer, LocalPlayer], work=[201*, 0*]
     0x0096 [0x55] WAIT_LOAD_SCHEDULER: Wait for scheduler "whi1" with entities [LocalPlayer, LocalPlayer], work=201*
     0x00A5 [0x1B] RETURN
     0x00A6 [0x45] LOAD_SCHEDULED_TASK: Load scheduler "who1" with entities [LocalPlayer, LocalPlayer], work=[201*, 0*]
     0x00B7 [0x55] WAIT_LOAD_SCHEDULER: Wait for scheduler "who1" with entities [LocalPlayer, LocalPlayer], work=201*
     0x00C6 [0x1B] RETURN
     0x00C7 [0x45] LOAD_SCHEDULED_TASK: Load scheduler "who2" with entities [LocalPlayer, LocalPlayer], work=[201*, 0*]
     0x00D8 [0x55] WAIT_LOAD_SCHEDULER: Wait for scheduler "who2" with entities [LocalPlayer, LocalPlayer], work=201*
     0x00E7 [0x1B] RETURN
     0x00E8 [0x45] LOAD_SCHEDULED_TASK: Load scheduler "who3" with entities [LocalPlayer, LocalPlayer], work=[201*, 0*]
     0x00F9 [0x55] WAIT_LOAD_SCHEDULER: Wait for scheduler "who3" with entities [LocalPlayer, LocalPlayer], work=201*
     0x0108 [0x1B] RETURN
     0x0109 [0x62] LOAD_EVENT_SCHEDULER: Load scheduler "main" with entities [LocalPlayer, LocalPlayer], work=[1*, 0*]
     0x011A [0x1C] WAIT(45* ticks)
     0x011D [0x45] LOAD_SCHEDULED_TASK: Load scheduler "fdo1" with entities [LocalPlayer, LocalPlayer], work=[200*, 0*]
     0x012E [0x55] WAIT_LOAD_SCHEDULER: Wait for scheduler "fdo1" with entities [LocalPlayer, LocalPlayer], work=200*
     0x013D [0x1B] RETURN
     0x013E [0x45] LOAD_SCHEDULED_TASK: Load scheduler "fdi1" with entities [LocalPlayer, LocalPlayer], work=[200*, 0*]
     0x014F [0x62] LOAD_EVENT_SCHEDULER: Load scheduler "main" with entities [LocalPlayer, LocalPlayer], work=[2*, 0*]
     0x0160 [0x1C] WAIT(30* ticks)
     0x0163 [0x55] WAIT_LOAD_SCHEDULER: Wait for scheduler "fdi1" with entities [LocalPlayer, LocalPlayer], work=200*
     0x0172 [0x1B] RETURN
     0x0173 [0x45] LOAD_SCHEDULED_TASK: Load scheduler "blon" with entities [LocalPlayer, LocalPlayer], work=[200*, 0*]
     0x0184 [0x45] LOAD_SCHEDULED_TASK: Load scheduler "blon" with entities [LocalPlayer, LocalPlayer], work=[201*, 0*]
     0x0195 [0x1B] RETURN
     0x0196 [0x45] LOAD_SCHEDULED_TASK: Load scheduler "whi0" with entities [LocalPlayer, LocalPlayer], work=[201*, 0*]
     0x01A7 [0x55] WAIT_LOAD_SCHEDULER: Wait for scheduler "whi0" with entities [LocalPlayer, LocalPlayer], work=201*
     0x01B6 [0x1B] RETURN
     0x01B7 [0x45] LOAD_SCHEDULED_TASK: Load scheduler "who0" with entities [LocalPlayer, LocalPlayer], work=[201*, 0*]
     0x01C8 [0x55] WAIT_LOAD_SCHEDULER: Wait for scheduler "who0" with entities [LocalPlayer, LocalPlayer], work=201*
     0x01D7 [0x1B] RETURN
     0x01D8 [0x45] LOAD_SCHEDULED_TASK: Load scheduler "efon" with entities [LocalPlayer, LocalPlayer], work=[215*, 0*]
     0x01E9 [0x55] WAIT_LOAD_SCHEDULER: Wait for scheduler "efon" with entities [LocalPlayer, LocalPlayer], work=215*
     0x01F8 [0x1B] RETURN
     0x01F9 [0x45] LOAD_SCHEDULED_TASK: Load scheduler "fdis" with entities [LocalPlayer, LocalPlayer], work=[200*, 0*]
     0x020A [0x1B] RETURN
     0x020B [0x45] LOAD_SCHEDULED_TASK: Load scheduler "fdos" with entities [LocalPlayer, LocalPlayer], work=[200*, 0*]
     0x021C [0x55] WAIT_LOAD_SCHEDULER: Wait for scheduler "fdos" with entities [LocalPlayer, LocalPlayer], work=200*
     0x022B [0x1B] RETURN
     0x022C [0x45] LOAD_SCHEDULED_TASK: Load scheduler "fdif" with entities [LocalPlayer, LocalPlayer], work=[200*, 0*]
     0x023D [0x1B] RETURN
     0x023E [0x45] LOAD_SCHEDULED_TASK: Load scheduler "fdof" with entities [LocalPlayer, LocalPlayer], work=[200*, 0*]
     0x024F [0x55] WAIT_LOAD_SCHEDULER: Wait for scheduler "fdof" with entities [LocalPlayer, LocalPlayer], work=200*
     0x025E [0x1B] RETURN
     0x025F [0x45] LOAD_SCHEDULED_TASK: Load scheduler "fdip" with entities [LocalPlayer, LocalPlayer], work=[200*, 0*]
     0x0270 [0x1B] RETURN
     0x0271 [0x45] LOAD_SCHEDULED_TASK: Load scheduler "fdop" with entities [LocalPlayer, LocalPlayer], work=[200*, 0*]
     0x0282 [0x55] WAIT_LOAD_SCHEDULER: Wait for scheduler "fdop" with entities [LocalPlayer, LocalPlayer], work=200*
     0x0291 [0x1B] RETURN
```

### Event 225

#### Metadata

| Field        | Value      |
|--------------|------------|
| Entrypoint   | 0x0292     |
| Data Size    | 4876 bytes |
| Instructions | 695        |

```
      00 01 02 03 04 05 06 07  08 09 0A 0B 0C 0D 0E 0F
      -- -- -- -- -- -- -- --  -- -- -- -- -- -- -- --
0290:       42 5D 01 80 08 80  1A 64 00 46 01 38 09 80    B].....d.F.8..
02A0: 03 01 00 03 10 2F 00 FD  62 06 01 2F 00 FE 62 06  ...../..b../..b.
02B0: 01 4E 00 FD 62 06 01 4E  00 FE 62 06 01 94 01 FD  .N..b..N..b.....
02C0: 62 06 01 94 01 FE 62 06  01 94 01 F0 FF FF 7F BA  b.....b.........
02D0: FD 62 06 01 0A 80 0B 80  0C 80 0D 80 BA FE 62 06  .b............b.
02E0: 01 0E 80 0F 80 10 80 11  80 BA F0 FF FF 7F 12 80  ................
02F0: 13 80 14 80 0D 80 29 08  F0 FF FF 7F 0E 80 FD 62  ......)........b
0300: 06 01 80 FE 62 06 01 80  F0 FF FF 7F 4A F0 FF FF  ....b.......J...
0310: 7F F8 FF FF 7F 6F 76 F0  FF FF 7F 27 0F FD 62 06  .....ov....'..b.
0320: 01 47 45 15 80 F8 FF FF  7F F8 FF FF 7F 73 30 30  .GE..........s00
0330: 30 01 80 1A 43 00 1C 16  80 4A F0 FF FF 7F FD 62  0...C....J.....b
0340: 06 01 6F 76 F0 FF FF 7F  1C 17 80 52 15 80 F8 FF  ..ov.......R....
0350: FF 7F F8 FF FF 7F 73 30  30 30 45 15 80 F8 FF FF  ......s000E.....
0360: 7F F8 FF FF 7F 73 30 30  31 01 80 02 01 00 03 80  .....s001.......
0370: 00 7E 03 2B FD 62 06 01  18 80 23 01 86 03 2B FD  .~.+.b....#...+.
0380: 62 06 01 19 80 23 1C 1A  80 2A 0F FD 62 06 01 27  b....#...*..b..'
0390: 0F FE 62 06 01 47 52 15  80 F8 FF FF 7F F8 FF FF  ..b..GR.........
03A0: 7F 73 30 30 31 45 15 80  F8 FF FF 7F F8 FF FF 7F  .s001E..........
03B0: 73 30 30 32 01 80 5C 00  1B 80 5C 01 1B 80 9A 5D  s002..\...\....]
03C0: 1C 80 03 80 2B FE 62 06  01 1D 80 23 1C 1E 80 4A  ....+.b....#...J
03D0: F0 FF FF 7F FE 62 06 01  6F 76 F0 FF FF 7F 4A FD  .....b..ov....J.
03E0: 62 06 01 FE 62 06 01 6F  76 FD 62 06 01 52 15 80  b...b..ov.b..R..
03F0: F8 FF FF 7F F8 FF FF 7F  73 30 30 32 45 15 80 F8  ........s002E...
0400: FF FF 7F F8 FF FF 7F 73  30 30 33 01 80 2A 0F FE  .......s003..*..
0410: 62 06 01 29 0F FE 62 06  01 23 2B FE 62 06 01 1F  b..)..b..#+.b...
0420: 80 23 29 0F FE 62 06 01  24 52 15 80 F8 FF FF 7F  .#)..b..$R......
0430: F8 FF FF 7F 73 30 30 33  02 09 10 20 80 00 54 04  ....s003... ..T.
0440: 45 15 80 F8 FF FF 7F F8  FF FF 7F 73 30 33 36 01  E..........s036.
0450: 80 01 81 04 02 09 10 21  80 00 70 04 45 15 80 F8  .......!..p.E...
0460: FF FF 7F F8 FF FF 7F 73  30 33 36 01 80 01 81 04  .......s036.....
0470: 45 15 80 F8 FF FF 7F F8  FF FF 7F 73 30 30 34 01  E..........s004.
0480: 80 4A FD 62 06 01 F0 FF  FF 7F 6F 76 FD 62 06 01  .J.b......ov.b..
0490: 29 0F FD 62 06 01 0D 79  00 FE 62 06 01 FD 62 06  )..b...y..b...b.
04A0: 01 02 01 00 03 80 00 CE  04 2B FD 62 06 01 22 80  .........+.b..".
04B0: 1C 06 80 4A F0 FF FF 7F  FD 62 06 01 6F 76 F0 FF  ...J.....b..ov..
04C0: FF 7F 23 2B FD 62 06 01  23 80 23 01 F0 04 2B FD  ..#+.b..#.#...+.
04D0: 62 06 01 24 80 1C 06 80  4A F0 FF FF 7F FD 62 06  b..$....J.....b.
04E0: 01 6F 76 F0 FF FF 7F 23  2B FD 62 06 01 25 80 23  .ov....#+.b..%.#
04F0: 02 09 10 20 80 00 0A 05  52 15 80 F8 FF FF 7F F8  ... ....R.......
0500: FF FF 7F 73 30 33 36 01  33 05 02 09 10 21 80 00  ...s036.3....!..
0510: 24 05 52 15 80 F8 FF FF  7F F8 FF FF 7F 73 30 33  $.R..........s03
0520: 36 01 33 05 52 15 80 F8  FF FF 7F F8 FF FF 7F 73  6.3.R..........s
0530: 30 30 34 45 15 80 F8 FF  FF 7F F8 FF FF 7F 73 30  004E..........s0
0540: 30 35 01 80 29 0F FD 62  06 01 0E 29 0F FD 62 06  05..)..b...)..b.
0550: 01 0F 29 0F FD 62 06 01  10 29 0F FD 62 06 01 01  ..)..b...)..b...
0560: 2B FD 62 06 01 26 80 23  29 0F FD 62 06 01 02 29  +.b..&.#)..b...)
0570: 0F FD 62 06 01 03 2B FD  62 06 01 27 80 23 29 0F  ..b...+.b..'.#).
0580: FD 62 06 01 04 7B FD 62  06 01 29 0F FD 62 06 01  .b...{.b..)..b..
0590: 05 1C 28 80 52 15 80 F8  FF FF 7F F8 FF FF 7F 73  ..(.R..........s
05A0: 30 30 35 2B FD 62 06 01  29 80 23 5D 01 80 08 80  005+.b..).#]....
05B0: 1A 64 00 1C 06 80 48 2A  80 1A 0B 02 89 2B 80 1C  .d....H*.....+..
05C0: 16 80 B4 14 2C 80 2D 80  2E 80 01 80 03 80 B4 14  ....,.-.........
05D0: 01 80 01 80 2F 80 30 80  03 80 1A F9 01 5C 00 31  ..../.0......\.1
05E0: 80 5C 01 31 80 9A 5D 16  80 03 80 1C 16 80 2B FD  .\.1..].......+.
05F0: 62 06 01 32 80 23 1C 33  80 2B FD 62 06 01 34 80  b..2.#.3.+.b..4.
0600: 23 1C 33 80 2B FD 62 06  01 35 80 23 1C 33 80 2B  #.3.+.b..5.#.3.+
0610: FD 62 06 01 36 80 23 1C  33 80 2B FD 62 06 01 37  .b..6.#.3.+.b..7
0620: 80 23 1C 33 80 1A 0B 02  8A B4 15 1A F9 01 48 2A  .#.3..........H*
0630: 80 29 0F FD 62 06 01 07  29 0F FD 62 06 01 08 5D  .)..b...)..b...]
0640: 1C 80 03 80 7B FD 62 06  01 45 15 80 F8 FF FF 7F  ....{.b..E......
0650: F8 FF FF 7F 73 30 30 37  01 80 1A 43 00 29 0F FD  ....s007...C.)..
0660: 62 06 01 23 2B FD 62 06  01 38 80 23 29 0F FD 62  b..#+.b..8.#)..b
0670: 06 01 24 52 15 80 F8 FF  FF 7F F8 FF FF 7F 73 30  ..$R..........s0
0680: 30 37 45 15 80 F8 FF FF  7F F8 FF FF 7F 73 30 30  07E..........s00
0690: 38 01 80 29 0F FD 62 06  01 25 2B FD 62 06 01 39  8..)..b..%+.b..9
06A0: 80 23 2B FD 62 06 01 3A  80 23 29 0F FD 62 06 01  .#+.b..:.#)..b..
06B0: 26 29 0F FD 62 06 01 27  2B FD 62 06 01 3B 80 23  &)..b..'+.b..;.#
06C0: 29 0F FD 62 06 01 28 52  15 80 F8 FF FF 7F F8 FF  )..b..(R........
06D0: FF 7F 73 30 30 38 02 09  10 20 80 00 F2 06 45 15  ..s008... ....E.
06E0: 80 F8 FF FF 7F F8 FF FF  7F 73 30 33 37 01 80 01  .........s037...
06F0: 1F 07 02 09 10 21 80 00  0E 07 45 15 80 F8 FF FF  .....!....E.....
0700: 7F F8 FF FF 7F 73 30 33  37 01 80 01 1F 07 45 15  .....s037.....E.
0710: 80 F8 FF FF 7F F8 FF FF  7F 73 30 30 39 01 80 27  .........s009..'
0720: 0F FD 62 06 01 48 2B FD  62 06 01 3C 80 23 2B FD  ..b..H+.b..<.#+.
0730: 62 06 01 3D 80 23 2A 0F  FD 62 06 01 02 09 10 20  b..=.#*..b..... 
0740: 80 00 56 07 52 15 80 F8  FF FF 7F F8 FF FF 7F 73  ..V.R..........s
0750: 30 33 37 01 7F 07 02 09  10 21 80 00 70 07 52 15  037......!..p.R.
0760: 80 F8 FF FF 7F F8 FF FF  7F 73 30 33 37 01 7F 07  .........s037...
0770: 52 15 80 F8 FF FF 7F F8  FF FF 7F 73 30 30 39 02  R..........s009.
0780: 09 10 20 80 00 9B 07 45  15 80 F8 FF FF 7F F8 FF  .. ....E........
0790: FF 7F 73 30 33 38 01 80  01 C8 07 02 09 10 21 80  ..s038........!.
07A0: 00 B7 07 45 15 80 F8 FF  FF 7F F8 FF FF 7F 73 30  ...E..........s0
07B0: 33 38 01 80 01 C8 07 45  15 80 F8 FF FF 7F F8 FF  38.....E........
07C0: FF 7F 73 30 31 30 01 80  29 0F FE 62 06 01 0D 2B  ..s010..)..b...+
07D0: FE 62 06 01 3E 80 1C 06  80 79 00 FD 62 06 01 FE  .b..>....y..b...
07E0: 62 06 01 4A F0 FF FF 7F  FE 62 06 01 6F 76 F0 FF  b..J.....b..ov..
07F0: FF 7F 23 29 0F FE 62 06  01 0E 02 09 10 20 80 00  ..#)..b...... ..
0800: 14 08 52 15 80 F8 FF FF  7F F8 FF FF 7F 73 30 33  ..R..........s03
0810: 38 01 3D 08 02 09 10 21  80 00 2E 08 52 15 80 F8  8.=....!....R...
0820: FF FF 7F F8 FF FF 7F 73  30 33 38 01 3D 08 52 15  .......s038.=.R.
0830: 80 F8 FF FF 7F F8 FF FF  7F 73 30 31 30 45 15 80  .........s010E..
0840: F8 FF FF 7F F8 FF FF 7F  73 30 31 31 01 80 29 0F  ........s011..).
0850: FE 62 06 01 0F 2B FE 62  06 01 3F 80 23 29 0F FE  .b...+.b..?.#)..
0860: 62 06 01 10 29 0F FE 62  06 01 01 2B FE 62 06 01  b...)..b...+.b..
0870: 40 80 23 2B FE 62 06 01  41 80 23 29 0F FE 62 06  @.#+.b..A.#)..b.
0880: 01 02 52 15 80 F8 FF FF  7F F8 FF FF 7F 73 30 31  ..R..........s01
0890: 31 02 09 10 20 80 00 AD  08 45 15 80 F8 FF FF 7F  1... ....E......
08A0: F8 FF FF 7F 73 30 33 39  01 80 01 DA 08 02 09 10  ....s039........
08B0: 21 80 00 C9 08 45 15 80  F8 FF FF 7F F8 FF FF 7F  !....E..........
08C0: 73 30 33 39 01 80 01 DA  08 45 15 80 F8 FF FF 7F  s039.....E......
08D0: F8 FF FF 7F 73 30 31 32  01 80 4A FD 62 06 01 F0  ....s012..J.b...
08E0: FF FF 7F 6F 76 FD 62 06  01 29 0F FE 62 06 01 03  ...ov.b..)..b...
08F0: 2B FD 62 06 01 42 80 1C  06 80 79 00 F0 FF FF 7F  +.b..B....y.....
0900: FD 62 06 01 4B F0 FF FF  7F 43 80 6F 76 F0 FF FF  .b..K....C.ov...
0910: 7F 23 29 0F FE 62 06 01  04 4A FE 62 06 01 F0 FF  .#)..b...J.b....
0920: FF 7F 6F 76 FE 62 06 01  79 00 F0 FF FF 7F FE 62  ..ov.b..y......b
0930: 06 01 2B FE 62 06 01 44  80 23 02 09 10 20 80 00  ..+.b..D.#... ..
0940: 54 09 52 15 80 F8 FF FF  7F F8 FF FF 7F 73 30 33  T.R..........s03
0950: 39 01 7D 09 02 09 10 21  80 00 6E 09 52 15 80 F8  9.}....!..n.R...
0960: FF FF 7F F8 FF FF 7F 73  30 33 39 01 7D 09 52 15  .......s039.}.R.
0970: 80 F8 FF FF 7F F8 FF FF  7F 73 30 31 32 5D 01 80  .........s012]..
0980: 06 80 45 15 80 F8 FF FF  7F F8 FF FF 7F 73 30 31  ..E..........s01
0990: 33 01 80 45 15 80 F8 FF  FF 7F F8 FF FF 7F 38 31  3..E..........81
09A0: 36 30 01 80 29 0F FE 62  06 01 09 2B FE 62 06 01  60..)..b...+.b..
09B0: 45 80 1C 06 80 4A FD 62  06 01 FE 62 06 01 6F 76  E....J.b...b..ov
09C0: FD 62 06 01 7B FD 62 06  01 29 0F FD 62 06 01 2D  .b..{.b..)..b..-
09D0: 23 29 0F FE 62 06 01 0A  52 15 80 F8 FF FF 7F F8  #)..b...R.......
09E0: FF FF 7F 73 30 31 33 02  09 10 20 80 00 03 0A 45  ...s013... ....E
09F0: 15 80 F8 FF FF 7F F8 FF  FF 7F 73 30 34 30 01 80  ..........s040..
0A00: 01 30 0A 02 09 10 21 80  00 1F 0A 45 15 80 F8 FF  .0....!....E....
0A10: FF 7F F8 FF FF 7F 73 30  34 30 01 80 01 30 0A 45  ......s040...0.E
0A20: 15 80 F8 FF FF 7F F8 FF  FF 7F 73 30 31 34 01 80  ..........s014..
0A30: 45 15 80 F8 FF FF 7F F8  FF FF 7F 62 72 6F 66 01  E..........brof.
0A40: 80 29 0F FE 62 06 01 0B  79 00 F0 FF FF 7F FD 62  .)..b...y......b
0A50: 06 01 79 00 FE 62 06 01  FD 62 06 01 29 0F FD 62  ..y..b...b..)..b
0A60: 06 01 2E 29 0F FD 62 06  01 3C 2B FD 62 06 01 46  ...)..b..<+.b..F
0A70: 80 1C 06 80 4B F0 FF FF  7F 47 80 6F 76 F0 FF FF  ....K....G.ov...
0A80: 7F 23 29 0F FD 62 06 01  3D 02 09 10 20 80 00 A3  .#)..b..=... ...
0A90: 0A 52 15 80 F8 FF FF 7F  F8 FF FF 7F 73 30 34 30  .R..........s040
0AA0: 01 CC 0A 02 09 10 21 80  00 BD 0A 52 15 80 F8 FF  ......!....R....
0AB0: FF 7F F8 FF FF 7F 73 30  34 30 01 CC 0A 52 15 80  ......s040...R..
0AC0: F8 FF FF 7F F8 FF FF 7F  73 30 31 34 45 15 80 F8  ........s014E...
0AD0: FF FF 7F F8 FF FF 7F 73  30 31 35 01 80 5D 1C 80  .......s015..]..
0AE0: 08 80 29 0F FE 62 06 01  0C 7B FD 62 06 01 27 0F  ..)..b...{.b..'.
0AF0: FD 62 06 01 49 2B FD 62  06 01 48 80 1C 06 80 4A  .b..I+.b..H....J
0B00: FE 62 06 01 FD 62 06 01  6F 76 FE 62 06 01 23 2B  .b...b..ov.b..#+
0B10: FD 62 06 01 49 80 23 2A  0F FD 62 06 01 52 15 80  .b..I.#*..b..R..
0B20: F8 FF FF 7F F8 FF FF 7F  73 30 31 35 45 15 80 F8  ........s015E...
0B30: FF FF 7F F8 FF FF 7F 73  30 31 36 01 80 4A FE 62  .......s016..J.b
0B40: 06 01 FD 62 06 01 29 0F  FD 62 06 01 11 2B FD 62  ...b..)..b...+.b
0B50: 06 01 4A 80 23 29 0F FD  62 06 01 12 6F 76 FE 62  ..J.#)..b...ov.b
0B60: 06 01 52 15 80 F8 FF FF  7F F8 FF FF 7F 73 30 31  ..R..........s01
0B70: 36 45 15 80 F8 FF FF 7F  F8 FF FF 7F 73 30 31 37  6E..........s017
0B80: 01 80 29 0F FD 62 06 01  13 29 0F FD 62 06 01 14  ..)..b...)..b...
0B90: 4A FD 62 06 01 FE 62 06  01 6F 76 FD 62 06 01 29  J.b...b..ov.b..)
0BA0: 0F FD 62 06 01 01 2B FD  62 06 01 4B 80 23 2B FD  ..b...+.b..K.#+.
0BB0: 62 06 01 4C 80 23 29 0F  FD 62 06 01 02 52 15 80  b..L.#)..b...R..
0BC0: F8 FF FF 7F F8 FF FF 7F  73 30 31 37 45 15 80 F8  ........s017E...
0BD0: FF FF 7F F8 FF FF 7F 73  30 31 38 01 80 29 0F FD  .......s018..)..
0BE0: 62 06 01 03 2B FD 62 06  01 4D 80 23 29 0F FD 62  b...+.b..M.#)..b
0BF0: 06 01 04 52 15 80 F8 FF  FF 7F F8 FF FF 7F 73 30  ...R..........s0
0C00: 31 38 45 15 80 F8 FF FF  7F F8 FF FF 7F 73 30 31  18E..........s01
0C10: 39 01 80 29 0F FD 62 06  01 05 2B FD 62 06 01 4E  9..)..b...+.b..N
0C20: 80 23 2B FD 62 06 01 4F  80 23 29 0F FD 62 06 01  .#+.b..O.#)..b..
0C30: 06 52 15 80 F8 FF FF 7F  F8 FF FF 7F 73 30 31 39  .R..........s019
0C40: 45 15 80 F8 FF FF 7F F8  FF FF 7F 73 30 32 31 01  E..........s021.
0C50: 80 29 0F FE 62 06 01 15  2B FE 62 06 01 50 80 1C  .)..b...+.b..P..
0C60: 28 80 79 00 F0 FF FF 7F  FE 62 06 01 23 29 0F FE  (.y......b..#)..
0C70: 62 06 01 16 52 15 80 F8  FF FF 7F F8 FF FF 7F 73  b...R..........s
0C80: 30 32 31 45 15 80 F8 FF  FF 7F F8 FF FF 7F 73 30  021E..........s0
0C90: 32 30 01 80 5D 01 80 08  80 29 0F FD 62 06 01 07  20..]....)..b...
0CA0: 2B FD 62 06 01 51 80 23  29 0F FD 62 06 01 08 52  +.b..Q.#)..b...R
0CB0: 15 80 F8 FF FF 7F F8 FF  FF 7F 73 30 32 30 45 15  ..........s020E.
0CC0: 80 F8 FF FF 7F F8 FF FF  7F 73 30 32 32 01 80 29  .........s022..)
0CD0: 0F FE 62 06 01 1B 2B FE  62 06 01 52 80 23 29 0F  ..b...+.b..R.#).
0CE0: FE 62 06 01 1C 29 0F FD  62 06 01 1B 29 0F FD 62  .b...)..b...)..b
0CF0: 06 01 1C 52 15 80 F8 FF  FF 7F F8 FF FF 7F 73 30  ...R..........s0
0D00: 32 32 02 09 10 20 80 00  1E 0D 45 15 80 F8 FF FF  22... ....E.....
0D10: 7F F8 FF FF 7F 73 30 34  31 01 80 01 4B 0D 02 09  .....s041...K...
0D20: 10 21 80 00 3A 0D 45 15  80 F8 FF FF 7F F8 FF FF  .!..:.E.........
0D30: 7F 73 30 34 31 01 80 01  4B 0D 45 15 80 F8 FF FF  .s041...K.E.....
0D40: 7F F8 FF FF 7F 73 30 32  33 01 80 4A FD 62 06 01  .....s023..J.b..
0D50: F0 FF FF 7F 6F 76 FD 62  06 01 29 0F FD 62 06 01  ....ov.b..)..b..
0D60: 23 2B FD 62 06 01 53 80  1C 28 80 4A F0 FF FF 7F  #+.b..S..(.J....
0D70: FD 62 06 01 6F 76 F0 FF  FF 7F 23 1A 64 00 29 0F  .b..ov....#.d.).
0D80: FD 62 06 01 24 02 09 10  20 80 00 9F 0D 52 15 80  .b..$... ....R..
0D90: F8 FF FF 7F F8 FF FF 7F  73 30 34 31 01 C8 0D 02  ........s041....
0DA0: 09 10 21 80 00 B9 0D 52  15 80 F8 FF FF 7F F8 FF  ..!....R........
0DB0: FF 7F 73 30 34 31 01 C8  0D 52 15 80 F8 FF FF 7F  ..s041...R......
0DC0: F8 FF FF 7F 73 30 32 33  1C 03 80 34 54 80 77 55  ....s023...4T.wU
0DD0: 80 03 80 1C 03 80 2F 00  01 63 06 01 2F 00 02 63  ....../..c../..c
0DE0: 06 01 2F 00 03 63 06 01  2F 00 04 63 06 01 2F 00  ../..c../..c../.
0DF0: 06 63 06 01 2F 00 07 63  06 01 4E 00 01 63 06 01  .c../..c..N..c..
0E00: 4E 00 02 63 06 01 4E 00  03 63 06 01 4E 00 04 63  N..c..N..c..N..c
0E10: 06 01 4E 00 06 63 06 01  4E 00 07 63 06 01 BA 01  ..N..c..N..c....
0E20: 63 06 01 56 80 57 80 58  80 59 80 BA 02 63 06 01  c..V.W.X.Y...c..
0E30: 5A 80 5B 80 5C 80 59 80  BA 03 63 06 01 5D 80 5E  Z.[.\.Y...c..].^
0E40: 80 5F 80 60 80 BA 04 63  06 01 61 80 62 80 63 80  ._.`...c..a.b.c.
0E50: 59 80 BA 06 63 06 01 64  80 65 80 66 80 67 80 BA  Y...c..d.e.f.g..
0E60: 07 63 06 01 68 80 69 80  6A 80 6B 80 80 01 63 06  .c..h.i.j.k...c.
0E70: 01 80 02 63 06 01 80 03  63 06 01 80 04 63 06 01  ...c....c....c..
0E80: 80 06 63 06 01 80 07 63  06 01 5C 00 6C 80 5C 01  ..c....c..\.l.\.
0E90: 6C 80 9A 5D 06 80 03 80  7B F0 FF FF 7F 48 2A 80  l..]....{....H*.
0EA0: 27 0F 01 63 06 01 9C 27  0F 02 63 06 01 34 27 0F  '..c...'..c..4'.
0EB0: 03 63 06 01 02 27 0F 04  63 06 01 02 1C 16 80 45  .c...'..c......E
0EC0: 15 80 F8 FF FF 7F F8 FF  FF 7F 73 30 32 36 01 80  ..........s026..
0ED0: 1A 43 00 2B FD 62 06 01  6D 80 23 52 15 80 F8 FF  .C.+.b..m.#R....
0EE0: FF 7F F8 FF FF 7F 73 30  32 36 45 15 80 F8 FF FF  ......s026E.....
0EF0: 7F F8 FF FF 7F 73 30 34  36 01 80 4A F0 FF FF 7F  .....s046..J....
0F00: FD 62 06 01 6F 76 F0 FF  FF 7F 2B FD 62 06 01 6E  .b..ov....+.b..n
0F10: 80 23 52 15 80 F8 FF FF  7F F8 FF FF 7F 73 30 34  .#R..........s04
0F20: 36 45 15 80 F8 FF FF 7F  F8 FF FF 7F 73 30 34 37  6E..........s047
0F30: 01 80 2B FD 62 06 01 6F  80 1C 30 80 23 1A 64 00  ..+.b..o..0.#.d.
0F40: 52 15 80 F8 FF FF 7F F8  FF FF 7F 73 30 34 37 27  R..........s047'
0F50: 0D 01 63 06 01 9D 27 0D  02 63 06 01 35 27 0D 03  ..c...'..c..5'..
0F60: 63 06 01 03 27 0D 04 63  06 01 03 2A 0D 01 63 06  c...'..c...*..c.
0F70: 01 2A 0D 02 63 06 01 2A  0D 03 63 06 01 2A 0D 04  .*..c..*..c..*..
0F80: 63 06 01 2A 0F 01 63 06  01 2A 0F 02 63 06 01 2A  c..*..c..*..c..*
0F90: 0F 03 63 06 01 2A 0F 04  63 06 01 4E 01 01 63 06  ..c..*..c..N..c.
0FA0: 01 4E 01 02 63 06 01 4E  01 03 63 06 01 4E 01 04  .N..c..N..c..N..
0FB0: 63 06 01 4E 01 06 63 06  01 4E 01 07 63 06 01 35  c..N..c..N..c..5
0FC0: 70 80 78 1C 71 80 22 00  48 2A 80 1C 16 80 BA F0  p.x.q.".H*......
0FD0: FF FF 7F 12 80 13 80 14  80 0D 80 BA FD 62 06 01  .............b..
0FE0: 72 80 73 80 74 80 75 80  4A FD 62 06 01 F0 FF FF  r.s.t.u.J.b.....
0FF0: 7F 4A F0 FF FF 7F FD 62  06 01 6F 76 F0 FF FF 7F  .J.....b..ov....
1000: 6F 76 FD 62 06 01 29 0F  FD 62 06 01 23 45 15 80  ov.b..)..b..#E..
1010: F8 FF FF 7F F8 FF FF 7F  73 30 32 34 01 80 1A 43  ........s024...C
1020: 00 5D 1C 80 03 80 2B FD  62 06 01 76 80 23 29 0F  .]....+.b..v.#).
1030: FD 62 06 01 24 52 15 80  F8 FF FF 7F F8 FF FF 7F  .b..$R..........
1040: 73 30 32 34 45 15 80 F8  FF FF 7F F8 FF FF 7F 73  s024E..........s
1050: 30 32 37 01 80 29 0F FE  62 06 01 2D 2B FE 62 06  027..)..b..-+.b.
1060: 01 77 80 1C 06 80 4A FD  62 06 01 FE 62 06 01 6F  .w....J.b...b..o
1070: 76 FD 62 06 01 23 29 0F  FD 62 06 01 1B 2B FD 62  v.b..#)..b...+.b
1080: 06 01 78 80 23 29 0F FD  62 06 01 1C 29 0F FE 62  ..x.#)..b...)..b
1090: 06 01 2E 52 15 80 F8 FF  FF 7F F8 FF FF 7F 73 30  ...R..........s0
10A0: 32 37 02 09 10 20 80 00  BE 10 45 15 80 F8 FF FF  27... ....E.....
10B0: 7F F8 FF FF 7F 73 30 34  32 01 80 01 EB 10 02 09  .....s042.......
10C0: 10 21 80 00 DA 10 45 15  80 F8 FF FF 7F F8 FF FF  .!....E.........
10D0: 7F 73 30 34 32 01 80 01  EB 10 45 15 80 F8 FF FF  .s042.....E.....
10E0: 7F F8 FF FF 7F 73 30 32  38 01 80 29 0F FE 62 06  .....s028..)..b.
10F0: 01 2D 2B FE 62 06 01 79  80 1C 28 80 4A FD 62 06  .-+.b..y..(.J.b.
1100: 01 FE 62 06 01 6F 76 FD  62 06 01 79 00 F0 FF FF  ..b..ov.b..y....
1110: 7F FE 62 06 01 4B F0 FF  FF 7F 7A 80 6F 76 F0 FF  ..b..K....z.ov..
1120: FF 7F 23 02 09 10 20 80  00 3D 11 52 15 80 F8 FF  ..#... ..=.R....
1130: FF 7F F8 FF FF 7F 73 30  34 32 01 66 11 02 09 10  ......s042.f....
1140: 21 80 00 57 11 52 15 80  F8 FF FF 7F F8 FF FF 7F  !..W.R..........
1150: 73 30 34 32 01 66 11 52  15 80 F8 FF FF 7F F8 FF  s042.f.R........
1160: FF 7F 73 30 32 38 45 15  80 F8 FF FF 7F F8 FF FF  ..s028E.........
1170: 7F 73 30 32 39 01 80 29  0F FD 62 06 01 1B 79 00  .s029..)..b...y.
1180: F0 FF FF 7F FD 62 06 01  2B FD 62 06 01 7B 80 1C  .....b..+.b..{..
1190: 06 80 79 00 FD 62 06 01  F0 FF FF 7F 23 29 0F FD  ..y..b......#)..
11A0: 62 06 01 1C 52 15 80 F8  FF FF 7F F8 FF FF 7F 73  b...R..........s
11B0: 30 32 39 45 15 80 F8 FF  FF 7F F8 FF FF 7F 73 30  029E..........s0
11C0: 33 30 01 80 29 0F FE 62  06 01 2E 29 0F FE 62 06  30..)..b...)..b.
11D0: 01 09 79 00 FD 62 06 01  FE 62 06 01 2B FE 62 06  ..y..b...b..+.b.
11E0: 01 7C 80 1C 28 80 79 00  F0 FF FF 7F FE 62 06 01  .|..(.y......b..
11F0: 23 29 0F FE 62 06 01 0A  29 0F FD 62 06 01 01 2B  #)..b...)..b...+
1200: FD 62 06 01 7D 80 1C 28  80 79 00 F0 FF FF 7F FD  .b..}..(.y......
1210: 62 06 01 1C 28 80 29 0F  FE 62 06 01 0B 23 29 0F  b...(.)..b...#).
1220: FD 62 06 01 02 29 0F FE  62 06 01 0C 52 15 80 F8  .b...)..b...R...
1230: FF FF 7F F8 FF FF 7F 73  30 33 30 02 09 10 20 80  .......s030... .
1240: 00 57 12 45 15 80 F8 FF  FF 7F F8 FF FF 7F 73 30  .W.E..........s0
1250: 34 33 01 80 01 84 12 02  09 10 21 80 00 73 12 45  43........!..s.E
1260: 15 80 F8 FF FF 7F F8 FF  FF 7F 73 30 34 33 01 80  ..........s043..
1270: 01 84 12 45 15 80 F8 FF  FF 7F F8 FF FF 7F 73 30  ...E..........s0
1280: 33 31 01 80 29 0F FD 62  06 01 03 29 0F FD 62 06  31..)..b...)..b.
1290: 01 04 79 00 F0 FF FF 7F  FE 62 06 01 27 0F FE 62  ..y......b..'..b
12A0: 06 01 48 2B FE 62 06 01  7E 80 1C 7F 80 4A F0 FF  ..H+.b..~....J..
12B0: FF 7F FE 62 06 01 6F 76  F0 FF FF 7F 23 2A 0F FE  ...b..ov....#*..
12C0: 62 06 01 4A FD 62 06 01  FE 62 06 01 6F 76 FD 62  b..J.b...b..ov.b
12D0: 06 01 02 09 10 20 80 00  EC 12 52 15 80 F8 FF FF  ..... ....R.....
12E0: 7F F8 FF FF 7F 73 30 34  33 01 15 13 02 09 10 21  .....s043......!
12F0: 80 00 06 13 52 15 80 F8  FF FF 7F F8 FF FF 7F 73  ....R..........s
1300: 30 34 33 01 15 13 52 15  80 F8 FF FF 7F F8 FF FF  043...R.........
1310: 7F 73 30 33 31 45 15 80  F8 FF FF 7F F8 FF FF 7F  .s031E..........
1320: 73 30 33 32 01 80 79 00  FE 62 06 01 FD 62 06 01  s032..y..b...b..
1330: 27 0F FE 62 06 01 49 2B  FE 62 06 01 80 80 1C 81  '..b..I+.b......
1340: 80 79 00 F0 FF FF 7F FD  62 06 01 4B F0 FF FF 7F  .y......b..K....
1350: 7A 80 6F 76 F0 FF FF 7F  23 29 0F FD 62 06 01 01  z.ov....#)..b...
1360: 7B FE 62 06 01 79 00 F0  FF FF 7F FE 62 06 01 1C  {.b..y......b...
1370: 06 80 1A 64 00 52 15 80  F8 FF FF 7F F8 FF FF 7F  ...d.R..........
1380: 73 30 33 32 2A 0F FE 62  06 01 BA FE 62 06 01 82  s032*..b....b...
1390: 80 83 80 84 80 7A 80 4A  FD 62 06 01 FE 62 06 01  .....z.J.b...b..
13A0: 4A FE 62 06 01 FD 62 06  01 4A F0 FF FF 7F FE 62  J.b...b..J.....b
13B0: 06 01 6F 76 FD 62 06 01  6F 76 FE 62 06 01 6F 76  ..ov.b..ov.b..ov
13C0: F0 FF FF 7F 29 0F FE 62  06 01 25 29 0F FE 62 06  ....)..b..%)..b.
13D0: 01 26 45 15 80 F8 FF FF  7F F8 FF FF 7F 73 30 33  .&E..........s03
13E0: 33 01 80 1A 43 00 1C 00  80 29 0F FD 62 06 01 02  3...C....)..b...
13F0: 29 0F FD 62 06 01 03 52  15 80 F8 FF FF 7F F8 FF  )..b...R........
1400: FF 7F 73 30 33 33 02 09  10 20 80 00 22 14 45 15  ..s033... ..".E.
1410: 80 F8 FF FF 7F F8 FF FF  7F 73 30 34 34 01 80 01  .........s044...
1420: 4F 14 02 09 10 21 80 00  3E 14 45 15 80 F8 FF FF  O....!..>.E.....
1430: 7F F8 FF FF 7F 73 30 34  34 01 80 01 4F 14 45 15  .....s044...O.E.
1440: 80 F8 FF FF 7F F8 FF FF  7F 73 30 33 34 01 80 29  .........s034..)
1450: 0F FE 62 06 01 27 2B FE  62 06 01 85 80 23 29 0F  ..b..'+.b....#).
1460: FE 62 06 01 28 4A FE 62  06 01 F0 FF FF 7F 6F 76  .b..(J.b......ov
1470: FE 62 06 01 29 0F FE 62  06 01 23 2B FE 62 06 01  .b..)..b..#+.b..
1480: 86 80 23 5D 06 80 03 80  1A 64 00 02 09 10 20 80  ..#].....d.... .
1490: 00 A5 14 52 15 80 F8 FF  FF 7F F8 FF FF 7F 73 30  ...R..........s0
14A0: 34 34 01 CE 14 02 09 10  21 80 00 BF 14 52 15 80  44......!....R..
14B0: F8 FF FF 7F F8 FF FF 7F  73 30 34 34 01 CE 14 52  ........s044...R
14C0: 15 80 F8 FF FF 7F F8 FF  FF 7F 73 30 33 34 45 15  ..........s034E.
14D0: 80 F8 FF FF 7F F8 FF FF  7F 73 30 33 35 01 80 1A  .........s035...
14E0: 43 00 2B FE 62 06 01 87  80 23 29 0F FE 62 06 01  C.+.b....#)..b..
14F0: 24 2B FE 62 06 01 88 80  23 1A 64 00 52 15 80 F8  $+.b....#.d.R...
1500: FF FF 7F F8 FF FF 7F 73  30 33 35 BA F0 FF FF 7F  .......s035.....
1510: 89 80 8A 80 8B 80 8C 80  45 15 80 F8 FF FF 7F F8  ........E.......
1520: FF FF 7F 73 30 34 35 01  80 5D 1C 80 08 80 1A 43  ...s045..].....C
1530: 00 29 0F FD 62 06 01 04  7B FD 62 06 01 29 0F FD  .)..b...{.b..)..
1540: 62 06 01 29 2B FE 62 06  01 8D 80 23 29 0F FE 62  b..)+.b....#)..b
1550: 06 01 15 1C 7F 80 5D 01  80 08 80 1A 64 00 1C 30  ......].....d..0
1560: 80 52 15 80 F8 FF FF 7F  F8 FF FF 7F 73 30 34 35  .R..........s045
1570: 5C 00 01 80 5C 01 01 80  9A 5D 1C 80 03 80 78 1C  \...\....]....x.
1580: 71 80 AB 11 01 80 1C 03  80 46 00 45 00 80 F8 FF  q........F.E....
1590: FF 7F F8 FF FF 7F 66 64  69 32 01 80 21 00        ......fdi2..!.  
```

#### Opcodes

```
  0: 0x0292 [0x42] SET_CLI_EVENT_CANCEL_DATA()
  1: 0x0293 [0x5D] SET_MUSIC_VOLUME(volume=0*, fade_time=300*)
  2: 0x0298 [0x1A] CALL_SUBROUTINE(address=0x0064)
  3: 0x029B [0x46] CAMERA_CONTROL: Disable user control
  4: 0x029D [0x38] SET_CLIENT_EVENT_MODE(mode=147*)
  5: 0x02A0 [0x03] ExtData[1]->WorkLocal[1] = Work_Zone[3]
  6: 0x02A5 [0x2F] Kupofried (ID: 17195773/0x010662FD)->Render.Flags0 &= ~0x80000 // Bit 19
  7: 0x02AB [0x2F] Moogle (ID: 17195774/0x010662FE)->Render.Flags0 &= ~0x80000 // Bit 19
  8: 0x02B1 [0x4E] SET_ENTITY_HIDE_FLAG: Show Kupofried (ID: 17195773/0x010662FD)
  9: 0x02B7 [0x4E] SET_ENTITY_HIDE_FLAG: Show Moogle (ID: 17195774/0x010662FE)
 10: 0x02BD [0x94] Kupofried (ID: 17195773/0x010662FD)->Render.Flags3 ^= 0x01
 11: 0x02C3 [0x94] Moogle (ID: 17195774/0x010662FE)->Render.Flags3 ^= 0x01
 12: 0x02C9 [0x94] LocalPlayer->Render.Flags3 ^= 0x01
 13: 0x02CF [0xBA] SET_ENTITY_POSITION(entity_id=Kupofried (ID: 17195773/0x010662FD), pos_x=-184.266*, pos_z=256.967*, pos_y=8.172*, direction=53.7°*)
 14: 0x02DC [0xBA] SET_ENTITY_POSITION(entity_id=Moogle (ID: 17195774/0x010662FE), pos_x=-172.875*, pos_z=241.914*, pos_y=8.500*, direction=224.4°*)
 15: 0x02E9 [0xBA] SET_ENTITY_POSITION(entity_id=LocalPlayer, pos_x=-176.440*, pos_z=251.152*, pos_y=8.861*, direction=53.7°*)
 16: 0x02F6 [0x29] REQ_SET_WAIT(priority=0x08, entity_id=LocalPlayer, tag_num=0x0E)
 17: 0x02FD [0x80] LOAD_WAIT(entity=Kupofried (ID: 17195773/0x010662FD))
 18: 0x0302 [0x80] LOAD_WAIT(entity=Moogle (ID: 17195774/0x010662FE))
 19: 0x0307 [0x80] LOAD_WAIT(entity=LocalPlayer)
 20: 0x030C [0x4A] LocalPlayer looks at EventEntity
 21: 0x0315 [0x6F] WAIT_FRAME_DELAY: Yield until WaitTime reaches zero
 22: 0x0316 [0x76] CHECK_ENTITY_RENDER_FLAGS: Wait until LocalPlayer Render.Flags0 and Render.Flags3 conditions are met
 23: 0x031B [0x27] REQ_SET(priority=0x0F, entity_id=Kupofried (ID: 17195773/0x010662FD), tag_num=0x47)
 24: 0x0322 [0x45] LOAD_SCHEDULED_TASK: Load scheduler "s000" with entities [EventEntity, EventEntity], work=[937*, 0*]
 25: 0x0333 [0x1A] CALL_SUBROUTINE(address=0x0043)
 26: 0x0336 [0x1C] WAIT(60* ticks)
 27: 0x0339 [0x4A] LocalPlayer looks at Kupofried (ID: 17195773/0x010662FD)
 28: 0x0342 [0x6F] WAIT_FRAME_DELAY: Yield until WaitTime reaches zero
 29: 0x0343 [0x76] CHECK_ENTITY_RENDER_FLAGS: Wait until LocalPlayer Render.Flags0 and Render.Flags3 conditions are met
 30: 0x0348 [0x1C] WAIT(100* ticks)
 31: 0x034B [0x52] END_LOAD_SCHEDULER: End scheduler "s000" with entities [EventEntity, EventEntity], work=937*
 32: 0x035A [0x45] LOAD_SCHEDULED_TASK: Load scheduler "s001" with entities [EventEntity, EventEntity], work=[937*, 0*]
 33: 0x036B [0x02] IF !(ExtData[1]->WorkLocal[1] == 1*) GOTO 0x037E
 34: 0x0373 [0x2B] Kupofried (ID: 17195773/0x010662FD) [12648*]:
    → "Ah, fate hath brought us together once more! Word of thy deeds reached our hallowed halls, kupo!"
 35: 0x037A [0x23] WAIT_FOR_DIALOG_INTERACTION
 36: 0x037B [0x01] GOTO 0x0386
 37: 0x037E [0x2B] Kupofried (ID: 17195773/0x010662FD) [12649*]:
    → "Hm? Wait a moment, kupo. Couldst thou be the one we've heard so much about?"
 38: 0x0385 [0x23] WAIT_FOR_DIALOG_INTERACTION

SUBROUTINE_0386:
 39: 0x0386 [0x1C] WAIT(50* ticks)
 40: 0x0389 [0x2A] GET_REQ_LEVEL(level=15, entity_id=Kupofried (ID: 17195773/0x010662FD))
 41: 0x038F [0x27] REQ_SET(priority=0x0F, entity_id=Moogle (ID: 17195774/0x010662FE), tag_num=0x47)
 42: 0x0396 [0x52] END_LOAD_SCHEDULER: End scheduler "s001" with entities [EventEntity, EventEntity], work=937*
 43: 0x03A5 [0x45] LOAD_SCHEDULED_TASK: Load scheduler "s002" with entities [EventEntity, EventEntity], work=[937*, 0*]
 44: 0x03B6 [0x5C] MUSIC_CONTROL: Set Idle (Day) music to song 32*
 45: 0x03BA [0x5C] MUSIC_CONTROL: Set Idle (Night) music to song 32*
 46: 0x03BE [0x9A] WAIT_MUSIC_SERVER()
 47: 0x03BF [0x5D] SET_MUSIC_VOLUME(volume=127*, fade_time=1*)
 48: 0x03C4 [0x2B] Moogle (ID: 17195774/0x010662FE) [12650*]:
    → "Oh! It's my magnificent master, kupo!"
 49: 0x03CB [0x23] WAIT_FOR_DIALOG_INTERACTION
 50: 0x03CC [0x1C] WAIT(40* ticks)
 51: 0x03CF [0x4A] LocalPlayer looks at Moogle (ID: 17195774/0x010662FE)
 52: 0x03D8 [0x6F] WAIT_FRAME_DELAY: Yield until WaitTime reaches zero
 53: 0x03D9 [0x76] CHECK_ENTITY_RENDER_FLAGS: Wait until LocalPlayer Render.Flags0 and Render.Flags3 conditions are met
 54: 0x03DE [0x4A] Kupofried (ID: 17195773/0x010662FD) looks at Moogle (ID: 17195774/0x010662FE)
 55: 0x03E7 [0x6F] WAIT_FRAME_DELAY: Yield until WaitTime reaches zero
 56: 0x03E8 [0x76] CHECK_ENTITY_RENDER_FLAGS: Wait until Kupofried (ID: 17195773/0x010662FD) Render.Flags0 and Render.Flags3 conditions are met
 57: 0x03ED [0x52] END_LOAD_SCHEDULER: End scheduler "s002" with entities [EventEntity, EventEntity], work=937*
 58: 0x03FC [0x45] LOAD_SCHEDULED_TASK: Load scheduler "s003" with entities [EventEntity, EventEntity], work=[937*, 0*]
 59: 0x040D [0x2A] GET_REQ_LEVEL(level=15, entity_id=Moogle (ID: 17195774/0x010662FE))
 60: 0x0413 [0x29] REQ_SET_WAIT(priority=0x0F, entity_id=Moogle (ID: 17195774/0x010662FE), tag_num=0x23)
 61: 0x041A [0x2B] Moogle (ID: 17195774/0x010662FE) [12651*]:
    → "You have tirelessly toiled on behalf of this world, <Player>!"
 62: 0x0421 [0x23] WAIT_FOR_DIALOG_INTERACTION
 63: 0x0422 [0x29] REQ_SET_WAIT(priority=0x0F, entity_id=Moogle (ID: 17195774/0x010662FE), tag_num=0x24)
 64: 0x0429 [0x52] END_LOAD_SCHEDULER: End scheduler "s003" with entities [EventEntity, EventEntity], work=937*
 65: 0x0438 [0x02] IF !(Work_Zone[9] == 5*) GOTO 0x0454
 66: 0x0440 [0x45] LOAD_SCHEDULED_TASK: Load scheduler "s036" with entities [EventEntity, EventEntity], work=[937*, 0*]
 67: 0x0451 [0x01] GOTO 0x0481
 68: 0x0454 [0x02] IF !(Work_Zone[9] == 6*) GOTO 0x0470
 69: 0x045C [0x45] LOAD_SCHEDULED_TASK: Load scheduler "s036" with entities [EventEntity, EventEntity], work=[937*, 0*]
 70: 0x046D [0x01] GOTO 0x0481
 71: 0x0470 [0x45] LOAD_SCHEDULED_TASK: Load scheduler "s004" with entities [EventEntity, EventEntity], work=[937*, 0*]

SUBROUTINE_0481:
 72: 0x0481 [0x4A] Kupofried (ID: 17195773/0x010662FD) looks at LocalPlayer
 73: 0x048A [0x6F] WAIT_FRAME_DELAY: Yield until WaitTime reaches zero
 74: 0x048B [0x76] CHECK_ENTITY_RENDER_FLAGS: Wait until Kupofried (ID: 17195773/0x010662FD) Render.Flags0 and Render.Flags3 conditions are met
 75: 0x0490 [0x29] REQ_SET_WAIT(priority=0x0F, entity_id=Kupofried (ID: 17195773/0x010662FD), tag_num=0x0D)
 76: 0x0497 [0x79] Moogle (ID: 17195774/0x010662FE) looks at Kupofried (ID: 17195773/0x010662FD) (Basic look)
 77: 0x04A1 [0x02] IF !(ExtData[1]->WorkLocal[1] == 1*) GOTO 0x04CE
 78: 0x04A9 [0x2B] Kupofried (ID: 17195773/0x010662FD) [12652*]:
    → "Indeed, I have heard much of thy bravery. They sayeth that thou art to take up the Prime Weapon and wield it to great purpose."
 79: 0x04B0 [0x1C] WAIT(30* ticks)
 80: 0x04B3 [0x4A] LocalPlayer looks at Kupofried (ID: 17195773/0x010662FD)
 81: 0x04BC [0x6F] WAIT_FRAME_DELAY: Yield until WaitTime reaches zero
 82: 0x04BD [0x76] CHECK_ENTITY_RENDER_FLAGS: Wait until LocalPlayer Render.Flags0 and Render.Flags3 conditions are met
 83: 0x04C2 [0x23] WAIT_FOR_DIALOG_INTERACTION
 84: 0x04C3 [0x2B] Kupofried (ID: 17195773/0x010662FD) [12653*]:
    → "Dost thou remember me? I am Kupofried."
 85: 0x04CA [0x23] WAIT_FOR_DIALOG_INTERACTION
 86: 0x04CB [0x01] GOTO 0x04F0
 87: 0x04CE [0x2B] Kupofried (ID: 17195773/0x010662FD) [12654*]:
    → "I thought so, kupo. Thou art the one who is to take up the Prime Weapon and wield it to great purpose."
 88: 0x04D5 [0x1C] WAIT(30* ticks)
 89: 0x04D8 [0x4A] LocalPlayer looks at Kupofried (ID: 17195773/0x010662FD)
 90: 0x04E1 [0x6F] WAIT_FRAME_DELAY: Yield until WaitTime reaches zero
 91: 0x04E2 [0x76] CHECK_ENTITY_RENDER_FLAGS: Wait until LocalPlayer Render.Flags0 and Render.Flags3 conditions are met
 92: 0x04E7 [0x23] WAIT_FOR_DIALOG_INTERACTION
 93: 0x04E8 [0x2B] Kupofried (ID: 17195773/0x010662FD) [12655*]:
    → "Kupokupo. I am Kupofried."
 94: 0x04EF [0x23] WAIT_FOR_DIALOG_INTERACTION

SUBROUTINE_04F0:
 95: 0x04F0 [0x02] IF !(Work_Zone[9] == 5*) GOTO 0x050A
 96: 0x04F8 [0x52] END_LOAD_SCHEDULER: End scheduler "s036" with entities [EventEntity, EventEntity], work=937*
 97: 0x0507 [0x01] GOTO 0x0533
 98: 0x050A [0x02] IF !(Work_Zone[9] == 6*) GOTO 0x0524
 99: 0x0512 [0x52] END_LOAD_SCHEDULER: End scheduler "s036" with entities [EventEntity, EventEntity], work=937*
100: 0x0521 [0x01] GOTO 0x0533
101: 0x0524 [0x52] END_LOAD_SCHEDULER: End scheduler "s004" with entities [EventEntity, EventEntity], work=937*

SUBROUTINE_0533:
102: 0x0533 [0x45] LOAD_SCHEDULED_TASK: Load scheduler "s005" with entities [EventEntity, EventEntity], work=[937*, 0*]
103: 0x0544 [0x29] REQ_SET_WAIT(priority=0x0F, entity_id=Kupofried (ID: 17195773/0x010662FD), tag_num=0x0E)
104: 0x054B [0x29] REQ_SET_WAIT(priority=0x0F, entity_id=Kupofried (ID: 17195773/0x010662FD), tag_num=0x0F)
105: 0x0552 [0x29] REQ_SET_WAIT(priority=0x0F, entity_id=Kupofried (ID: 17195773/0x010662FD), tag_num=0x10)
106: 0x0559 [0x29] REQ_SET_WAIT(priority=0x0F, entity_id=Kupofried (ID: 17195773/0x010662FD), tag_num=0x01)
107: 0x0560 [0x2B] Kupofried (ID: 17195773/0x010662FD) [12656*]:
    → "The god of darkness, Odin, hath sent his demon servant to instruct me on how to guide the people of this land."
108: 0x0567 [0x23] WAIT_FOR_DIALOG_INTERACTION
109: 0x0568 [0x29] REQ_SET_WAIT(priority=0x0F, entity_id=Kupofried (ID: 17195773/0x010662FD), tag_num=0x02)
110: 0x056F [0x29] REQ_SET_WAIT(priority=0x0F, entity_id=Kupofried (ID: 17195773/0x010662FD), tag_num=0x03)
111: 0x0576 [0x2B] Kupofried (ID: 17195773/0x010662FD) [12657*]:
    → "'Tis of no small import that I have summoned thee and this moogle here today."
112: 0x057D [0x23] WAIT_FOR_DIALOG_INTERACTION
113: 0x057E [0x29] REQ_SET_WAIT(priority=0x0F, entity_id=Kupofried (ID: 17195773/0x010662FD), tag_num=0x04)
114: 0x0585 [0x7B] Kupofried (ID: 17195773/0x010662FD) stops talking
115: 0x058A [0x29] REQ_SET_WAIT(priority=0x0F, entity_id=Kupofried (ID: 17195773/0x010662FD), tag_num=0x05)
116: 0x0591 [0x1C] WAIT(20* ticks)
117: 0x0594 [0x52] END_LOAD_SCHEDULER: End scheduler "s005" with entities [EventEntity, EventEntity], work=937*
118: 0x05A3 [0x2B] Kupofried (ID: 17195773/0x010662FD) [12658*]:
    → "I am afraid that the situation is much more grim than the one five thousand years ago, kupo."
119: 0x05AA [0x23] WAIT_FOR_DIALOG_INTERACTION
120: 0x05AB [0x5D] SET_MUSIC_VOLUME(volume=0*, fade_time=300*)
121: 0x05B0 [0x1A] CALL_SUBROUTINE(address=0x0064)
122: 0x05B3 [0x1C] WAIT(30* ticks)
123: 0x05B6 [0x48] [System] [7401*]:
    → "@@"
124: 0x05B9 [0x1A] CALL_SUBROUTINE(address=0x020B)
125: 0x05BC [0x89] OPEN_MAP(map_id=0x0000802B)
126: 0x05BF [0x1C] WAIT(60* ticks)
127: 0x05C2 [0xB4] UI_WINDOW_STRING_HANDLER(case=0x14 - Update map window values, work_offset1=80000*, work_offset2=4294887296*, work_offset3=1500*, work_offset4=0*, work_offset5=1*)
128: 0x05CE [0xB4] UI_WINDOW_STRING_HANDLER(case=0x14 - Update map window values, work_offset1=0*, work_offset2=0*, work_offset3=1000*, work_offset4=120*, work_offset5=1*)
129: 0x05DA [0x1A] CALL_SUBROUTINE(address=0x01F9)
130: 0x05DD [0x5C] MUSIC_CONTROL: Set Idle (Day) music to song 27*
131: 0x05E1 [0x5C] MUSIC_CONTROL: Set Idle (Night) music to song 27*
132: 0x05E5 [0x9A] WAIT_MUSIC_SERVER()
133: 0x05E6 [0x5D] SET_MUSIC_VOLUME(volume=60*, fade_time=1*)
134: 0x05EB [0x1C] WAIT(60* ticks)
135: 0x05EE [0x2B] Kupofried (ID: 17195773/0x010662FD) [12659*]:
    → "Upon its appearance in Valhalla, Chaos was accompanied by the Maelstrom Mage."
136: 0x05F5 [0x23] WAIT_FOR_DIALOG_INTERACTION
137: 0x05F6 [0x1C] WAIT(260* ticks)
138: 0x05F9 [0x2B] Kupofried (ID: 17195773/0x010662FD) [12660*]:
    → "Two entities with such power betwixt them is quite the conundrum, kupo."
139: 0x0600 [0x23] WAIT_FOR_DIALOG_INTERACTION
140: 0x0601 [0x1C] WAIT(260* ticks)
141: 0x0604 [0x2B] Kupofried (ID: 17195773/0x010662FD) [12661*]:
    → "Chaos draws upon an endless supply of magic from the astral plane..."
142: 0x060B [0x23] WAIT_FOR_DIALOG_INTERACTION
143: 0x060C [0x1C] WAIT(260* ticks)
144: 0x060F [0x2B] Kupofried (ID: 17195773/0x010662FD) [12662*]:
    → "And then bequeaths that magic unto the Maelstrom Mage so that he can wield various spells, kupo."
145: 0x0616 [0x23] WAIT_FOR_DIALOG_INTERACTION
146: 0x0617 [0x1C] WAIT(260* ticks)
147: 0x061A [0x2B] Kupofried (ID: 17195773/0x010662FD) [12663*]:
    → "Of those spells, thou must be especially careful of his ability to project powerful phantoms."
148: 0x0621 [0x23] WAIT_FOR_DIALOG_INTERACTION
149: 0x0622 [0x1C] WAIT(260* ticks)
150: 0x0625 [0x1A] CALL_SUBROUTINE(address=0x020B)
151: 0x0628 [0x8A] CLOSE_MAP()
152: 0x0629 [0xB4] UI_WINDOW_STRING_HANDLER(case=0x15 - Test map window validity)
153: 0x062B [0x1A] CALL_SUBROUTINE(address=0x01F9)
154: 0x062E [0x48] [System] [7401*]:
    → "@@"
155: 0x0631 [0x29] REQ_SET_WAIT(priority=0x0F, entity_id=Kupofried (ID: 17195773/0x010662FD), tag_num=0x07)
156: 0x0638 [0x29] REQ_SET_WAIT(priority=0x0F, entity_id=Kupofried (ID: 17195773/0x010662FD), tag_num=0x08)
157: 0x063F [0x5D] SET_MUSIC_VOLUME(volume=127*, fade_time=1*)
158: 0x0644 [0x7B] Kupofried (ID: 17195773/0x010662FD) stops talking
159: 0x0649 [0x45] LOAD_SCHEDULED_TASK: Load scheduler "s007" with entities [EventEntity, EventEntity], work=[937*, 0*]
160: 0x065A [0x1A] CALL_SUBROUTINE(address=0x0043)
161: 0x065D [0x29] REQ_SET_WAIT(priority=0x0F, entity_id=Kupofried (ID: 17195773/0x010662FD), tag_num=0x23)
162: 0x0664 [0x2B] Kupofried (ID: 17195773/0x010662FD) [12664*]:
    → "Thou hast already faced the peril of a phantom of Chaos, yes?"
163: 0x066B [0x23] WAIT_FOR_DIALOG_INTERACTION
164: 0x066C [0x29] REQ_SET_WAIT(priority=0x0F, entity_id=Kupofried (ID: 17195773/0x010662FD), tag_num=0x24)
165: 0x0673 [0x52] END_LOAD_SCHEDULER: End scheduler "s007" with entities [EventEntity, EventEntity], work=937*
166: 0x0682 [0x45] LOAD_SCHEDULED_TASK: Load scheduler "s008" with entities [EventEntity, EventEntity], work=[937*, 0*]
167: 0x0693 [0x29] REQ_SET_WAIT(priority=0x0F, entity_id=Kupofried (ID: 17195773/0x010662FD), tag_num=0x25)
168: 0x069A [0x2B] Kupofried (ID: 17195773/0x010662FD) [12665*]:
    → "The Maelstrom Mage appears to be capable of producing such powerful phantoms endlessly, kupo."
169: 0x06A1 [0x23] WAIT_FOR_DIALOG_INTERACTION
170: 0x06A2 [0x2B] Kupofried (ID: 17195773/0x010662FD) [12666*]:
    → "Furthermore, he is a masterful manipulator of those who are weak of will."
171: 0x06A9 [0x23] WAIT_FOR_DIALOG_INTERACTION
172: 0x06AA [0x29] REQ_SET_WAIT(priority=0x0F, entity_id=Kupofried (ID: 17195773/0x010662FD), tag_num=0x26)
173: 0x06B1 [0x29] REQ_SET_WAIT(priority=0x0F, entity_id=Kupofried (ID: 17195773/0x010662FD), tag_num=0x27)
174: 0x06B8 [0x2B] Kupofried (ID: 17195773/0x010662FD) [12667*]:
    → "That is why I believe Odin hath ordered that the Maelstrom Mage be defeated first, kupo."
175: 0x06BF [0x23] WAIT_FOR_DIALOG_INTERACTION
176: 0x06C0 [0x29] REQ_SET_WAIT(priority=0x0F, entity_id=Kupofried (ID: 17195773/0x010662FD), tag_num=0x28)
177: 0x06C7 [0x52] END_LOAD_SCHEDULER: End scheduler "s008" with entities [EventEntity, EventEntity], work=937*
178: 0x06D6 [0x02] IF !(Work_Zone[9] == 5*) GOTO 0x06F2
179: 0x06DE [0x45] LOAD_SCHEDULED_TASK: Load scheduler "s037" with entities [EventEntity, EventEntity], work=[937*, 0*]
180: 0x06EF [0x01] GOTO 0x071F
181: 0x06F2 [0x02] IF !(Work_Zone[9] == 6*) GOTO 0x070E
182: 0x06FA [0x45] LOAD_SCHEDULED_TASK: Load scheduler "s037" with entities [EventEntity, EventEntity], work=[937*, 0*]
183: 0x070B [0x01] GOTO 0x071F
184: 0x070E [0x45] LOAD_SCHEDULED_TASK: Load scheduler "s009" with entities [EventEntity, EventEntity], work=[937*, 0*]

SUBROUTINE_071F:
185: 0x071F [0x27] REQ_SET(priority=0x0F, entity_id=Kupofried (ID: 17195773/0x010662FD), tag_num=0x48)
186: 0x0726 [0x2B] Kupofried (ID: 17195773/0x010662FD) [12668*]:
    → "'Tis why we need thy assistance. However, I fear even that will not be enough."
187: 0x072D [0x23] WAIT_FOR_DIALOG_INTERACTION
188: 0x072E [0x2B] Kupofried (ID: 17195773/0x010662FD) [12669*]:
    → "We must also call upon the assistance of the most powerful beastmen to be found in the remote reaches of the land."
189: 0x0735 [0x23] WAIT_FOR_DIALOG_INTERACTION
190: 0x0736 [0x2A] GET_REQ_LEVEL(level=15, entity_id=Kupofried (ID: 17195773/0x010662FD))
191: 0x073C [0x02] IF !(Work_Zone[9] == 5*) GOTO 0x0756
192: 0x0744 [0x52] END_LOAD_SCHEDULER: End scheduler "s037" with entities [EventEntity, EventEntity], work=937*
193: 0x0753 [0x01] GOTO 0x077F
194: 0x0756 [0x02] IF !(Work_Zone[9] == 6*) GOTO 0x0770
195: 0x075E [0x52] END_LOAD_SCHEDULER: End scheduler "s037" with entities [EventEntity, EventEntity], work=937*
196: 0x076D [0x01] GOTO 0x077F
197: 0x0770 [0x52] END_LOAD_SCHEDULER: End scheduler "s009" with entities [EventEntity, EventEntity], work=937*

SUBROUTINE_077F:
198: 0x077F [0x02] IF !(Work_Zone[9] == 5*) GOTO 0x079B
199: 0x0787 [0x45] LOAD_SCHEDULED_TASK: Load scheduler "s038" with entities [EventEntity, EventEntity], work=[937*, 0*]
200: 0x0798 [0x01] GOTO 0x07C8
201: 0x079B [0x02] IF !(Work_Zone[9] == 6*) GOTO 0x07B7
202: 0x07A3 [0x45] LOAD_SCHEDULED_TASK: Load scheduler "s038" with entities [EventEntity, EventEntity], work=[937*, 0*]
203: 0x07B4 [0x01] GOTO 0x07C8
204: 0x07B7 [0x45] LOAD_SCHEDULED_TASK: Load scheduler "s010" with entities [EventEntity, EventEntity], work=[937*, 0*]

SUBROUTINE_07C8:
205: 0x07C8 [0x29] REQ_SET_WAIT(priority=0x0F, entity_id=Moogle (ID: 17195774/0x010662FE), tag_num=0x0D)
206: 0x07CF [0x2B] Moogle (ID: 17195774/0x010662FE) [12670*]:
    → "That's where we come in, kupo!"
207: 0x07D6 [0x1C] WAIT(30* ticks)
208: 0x07D9 [0x79] Kupofried (ID: 17195773/0x010662FD) looks at Moogle (ID: 17195774/0x010662FE) (Basic look)
209: 0x07E3 [0x4A] LocalPlayer looks at Moogle (ID: 17195774/0x010662FE)
210: 0x07EC [0x6F] WAIT_FRAME_DELAY: Yield until WaitTime reaches zero
211: 0x07ED [0x76] CHECK_ENTITY_RENDER_FLAGS: Wait until LocalPlayer Render.Flags0 and Render.Flags3 conditions are met
212: 0x07F2 [0x23] WAIT_FOR_DIALOG_INTERACTION
213: 0x07F3 [0x29] REQ_SET_WAIT(priority=0x0F, entity_id=Moogle (ID: 17195774/0x010662FE), tag_num=0x0E)
214: 0x07FA [0x02] IF !(Work_Zone[9] == 5*) GOTO 0x0814
215: 0x0802 [0x52] END_LOAD_SCHEDULER: End scheduler "s038" with entities [EventEntity, EventEntity], work=937*
216: 0x0811 [0x01] GOTO 0x083D
217: 0x0814 [0x02] IF !(Work_Zone[9] == 6*) GOTO 0x082E
218: 0x081C [0x52] END_LOAD_SCHEDULER: End scheduler "s038" with entities [EventEntity, EventEntity], work=937*
219: 0x082B [0x01] GOTO 0x083D
220: 0x082E [0x52] END_LOAD_SCHEDULER: End scheduler "s010" with entities [EventEntity, EventEntity], work=937*

SUBROUTINE_083D:
221: 0x083D [0x45] LOAD_SCHEDULED_TASK: Load scheduler "s011" with entities [EventEntity, EventEntity], work=[937*, 0*]
222: 0x084E [0x29] REQ_SET_WAIT(priority=0x0F, entity_id=Moogle (ID: 17195774/0x010662FE), tag_num=0x0F)
223: 0x0855 [0x2B] Moogle (ID: 17195774/0x010662FE) [12671*]:
    → "You see, we moogles proudly participated in the battle five thousand years ago."
224: 0x085C [0x23] WAIT_FOR_DIALOG_INTERACTION
225: 0x085D [0x29] REQ_SET_WAIT(priority=0x0F, entity_id=Moogle (ID: 17195774/0x010662FE), tag_num=0x10)
226: 0x0864 [0x29] REQ_SET_WAIT(priority=0x0F, entity_id=Moogle (ID: 17195774/0x010662FE), tag_num=0x01)
227: 0x086B [0x2B] Moogle (ID: 17195774/0x010662FE) [12672*]:
    → "However, we are not particularly potent fighters, kupo."
228: 0x0872 [0x23] WAIT_FOR_DIALOG_INTERACTION
229: 0x0873 [0x2B] Moogle (ID: 17195774/0x010662FE) [12673*]:
    → "Therefore, we served as messengers so that we could unite the wild and woolly world of beastmen."
230: 0x087A [0x23] WAIT_FOR_DIALOG_INTERACTION
231: 0x087B [0x29] REQ_SET_WAIT(priority=0x0F, entity_id=Moogle (ID: 17195774/0x010662FE), tag_num=0x02)
232: 0x0882 [0x52] END_LOAD_SCHEDULER: End scheduler "s011" with entities [EventEntity, EventEntity], work=937*
233: 0x0891 [0x02] IF !(Work_Zone[9] == 5*) GOTO 0x08AD
234: 0x0899 [0x45] LOAD_SCHEDULED_TASK: Load scheduler "s039" with entities [EventEntity, EventEntity], work=[937*, 0*]
235: 0x08AA [0x01] GOTO 0x08DA
236: 0x08AD [0x02] IF !(Work_Zone[9] == 6*) GOTO 0x08C9
237: 0x08B5 [0x45] LOAD_SCHEDULED_TASK: Load scheduler "s039" with entities [EventEntity, EventEntity], work=[937*, 0*]
238: 0x08C6 [0x01] GOTO 0x08DA
239: 0x08C9 [0x45] LOAD_SCHEDULED_TASK: Load scheduler "s012" with entities [EventEntity, EventEntity], work=[937*, 0*]

SUBROUTINE_08DA:
240: 0x08DA [0x4A] Kupofried (ID: 17195773/0x010662FD) looks at LocalPlayer
241: 0x08E3 [0x6F] WAIT_FRAME_DELAY: Yield until WaitTime reaches zero
242: 0x08E4 [0x76] CHECK_ENTITY_RENDER_FLAGS: Wait until Kupofried (ID: 17195773/0x010662FD) Render.Flags0 and Render.Flags3 conditions are met
243: 0x08E9 [0x29] REQ_SET_WAIT(priority=0x0F, entity_id=Moogle (ID: 17195774/0x010662FE), tag_num=0x03)
244: 0x08F0 [0x2B] Kupofried (ID: 17195773/0x010662FD) [12674*]:
    → "Unfortunately, the world is faced with the same situation as five thousand years ago. There is still great animosity between many of them, kupo."
245: 0x08F7 [0x1C] WAIT(30* ticks)
246: 0x08FA [0x79] LocalPlayer looks at Kupofried (ID: 17195773/0x010662FD) (Basic look)
247: 0x0904 [0x4B] UPDATE_ENTITY_YAW(entity=LocalPlayer, yaw=8.8°*)
248: 0x090B [0x6F] WAIT_FRAME_DELAY: Yield until WaitTime reaches zero
249: 0x090C [0x76] CHECK_ENTITY_RENDER_FLAGS: Wait until LocalPlayer Render.Flags0 and Render.Flags3 conditions are met
250: 0x0911 [0x23] WAIT_FOR_DIALOG_INTERACTION
251: 0x0912 [0x29] REQ_SET_WAIT(priority=0x0F, entity_id=Moogle (ID: 17195774/0x010662FE), tag_num=0x04)
252: 0x0919 [0x4A] Moogle (ID: 17195774/0x010662FE) looks at LocalPlayer
253: 0x0922 [0x6F] WAIT_FRAME_DELAY: Yield until WaitTime reaches zero
254: 0x0923 [0x76] CHECK_ENTITY_RENDER_FLAGS: Wait until Moogle (ID: 17195774/0x010662FE) Render.Flags0 and Render.Flags3 conditions are met
255: 0x0928 [0x79] LocalPlayer looks at Moogle (ID: 17195774/0x010662FE) (Basic look)
256: 0x0932 [0x2B] Moogle (ID: 17195774/0x010662FE) [12675*]:
    → "It would help our cause greatly if we can forge a bond between them, kupo."
257: 0x0939 [0x23] WAIT_FOR_DIALOG_INTERACTION
258: 0x093A [0x02] IF !(Work_Zone[9] == 5*) GOTO 0x0954
259: 0x0942 [0x52] END_LOAD_SCHEDULER: End scheduler "s039" with entities [EventEntity, EventEntity], work=937*
260: 0x0951 [0x01] GOTO 0x097D
261: 0x0954 [0x02] IF !(Work_Zone[9] == 6*) GOTO 0x096E
262: 0x095C [0x52] END_LOAD_SCHEDULER: End scheduler "s039" with entities [EventEntity, EventEntity], work=937*
263: 0x096B [0x01] GOTO 0x097D
264: 0x096E [0x52] END_LOAD_SCHEDULER: End scheduler "s012" with entities [EventEntity, EventEntity], work=937*

SUBROUTINE_097D:
265: 0x097D [0x5D] SET_MUSIC_VOLUME(volume=0*, fade_time=30*)
266: 0x0982 [0x45] LOAD_SCHEDULED_TASK: Load scheduler "s013" with entities [EventEntity, EventEntity], work=[937*, 0*]
267: 0x0993 [0x45] LOAD_SCHEDULED_TASK: Load scheduler "8160" with entities [EventEntity, EventEntity], work=[937*, 0*]
268: 0x09A4 [0x29] REQ_SET_WAIT(priority=0x0F, entity_id=Moogle (ID: 17195774/0x010662FE), tag_num=0x09)
269: 0x09AB [0x2B] Moogle (ID: 17195774/0x010662FE) [12676*]:
    → "Therefore, much like five thousand years ago, we must restore the great kingdom of Kupalika!"
270: 0x09B2 [0x1C] WAIT(30* ticks)
271: 0x09B5 [0x4A] Kupofried (ID: 17195773/0x010662FD) looks at Moogle (ID: 17195774/0x010662FE)
272: 0x09BE [0x6F] WAIT_FRAME_DELAY: Yield until WaitTime reaches zero
273: 0x09BF [0x76] CHECK_ENTITY_RENDER_FLAGS: Wait until Kupofried (ID: 17195773/0x010662FD) Render.Flags0 and Render.Flags3 conditions are met
274: 0x09C4 [0x7B] Kupofried (ID: 17195773/0x010662FD) stops talking
275: 0x09C9 [0x29] REQ_SET_WAIT(priority=0x0F, entity_id=Kupofried (ID: 17195773/0x010662FD), tag_num=0x2D)
276: 0x09D0 [0x23] WAIT_FOR_DIALOG_INTERACTION
277: 0x09D1 [0x29] REQ_SET_WAIT(priority=0x0F, entity_id=Moogle (ID: 17195774/0x010662FE), tag_num=0x0A)
278: 0x09D8 [0x52] END_LOAD_SCHEDULER: End scheduler "s013" with entities [EventEntity, EventEntity], work=937*
279: 0x09E7 [0x02] IF !(Work_Zone[9] == 5*) GOTO 0x0A03
280: 0x09EF [0x45] LOAD_SCHEDULED_TASK: Load scheduler "s040" with entities [EventEntity, EventEntity], work=[937*, 0*]
281: 0x0A00 [0x01] GOTO 0x0A30
282: 0x0A03 [0x02] IF !(Work_Zone[9] == 6*) GOTO 0x0A1F
283: 0x0A0B [0x45] LOAD_SCHEDULED_TASK: Load scheduler "s040" with entities [EventEntity, EventEntity], work=[937*, 0*]
284: 0x0A1C [0x01] GOTO 0x0A30
285: 0x0A1F [0x45] LOAD_SCHEDULED_TASK: Load scheduler "s014" with entities [EventEntity, EventEntity], work=[937*, 0*]

SUBROUTINE_0A30:
286: 0x0A30 [0x45] LOAD_SCHEDULED_TASK: Load scheduler "brof" with entities [EventEntity, EventEntity], work=[937*, 0*]
287: 0x0A41 [0x29] REQ_SET_WAIT(priority=0x0F, entity_id=Moogle (ID: 17195774/0x010662FE), tag_num=0x0B)
288: 0x0A48 [0x79] LocalPlayer looks at Kupofried (ID: 17195773/0x010662FD) (Basic look)
289: 0x0A52 [0x79] Moogle (ID: 17195774/0x010662FE) looks at Kupofried (ID: 17195773/0x010662FD) (Basic look)
290: 0x0A5C [0x29] REQ_SET_WAIT(priority=0x0F, entity_id=Kupofried (ID: 17195773/0x010662FD), tag_num=0x2E)
291: 0x0A63 [0x29] REQ_SET_WAIT(priority=0x0F, entity_id=Kupofried (ID: 17195773/0x010662FD), tag_num=0x3C)
292: 0x0A6A [0x2B] Kupofried (ID: 17195773/0x010662FD) [12677*]:
    → "Hmph. 'Tis not a pursuit where we can afford to make many mistakes."
293: 0x0A71 [0x1C] WAIT(30* ticks)
294: 0x0A74 [0x4B] UPDATE_ENTITY_YAW(entity=LocalPlayer, yaw=11.0°*)
295: 0x0A7B [0x6F] WAIT_FRAME_DELAY: Yield until WaitTime reaches zero
296: 0x0A7C [0x76] CHECK_ENTITY_RENDER_FLAGS: Wait until LocalPlayer Render.Flags0 and Render.Flags3 conditions are met
297: 0x0A81 [0x23] WAIT_FOR_DIALOG_INTERACTION
298: 0x0A82 [0x29] REQ_SET_WAIT(priority=0x0F, entity_id=Kupofried (ID: 17195773/0x010662FD), tag_num=0x3D)
299: 0x0A89 [0x02] IF !(Work_Zone[9] == 5*) GOTO 0x0AA3
300: 0x0A91 [0x52] END_LOAD_SCHEDULER: End scheduler "s040" with entities [EventEntity, EventEntity], work=937*
301: 0x0AA0 [0x01] GOTO 0x0ACC
302: 0x0AA3 [0x02] IF !(Work_Zone[9] == 6*) GOTO 0x0ABD
303: 0x0AAB [0x52] END_LOAD_SCHEDULER: End scheduler "s040" with entities [EventEntity, EventEntity], work=937*
304: 0x0ABA [0x01] GOTO 0x0ACC
305: 0x0ABD [0x52] END_LOAD_SCHEDULER: End scheduler "s014" with entities [EventEntity, EventEntity], work=937*

SUBROUTINE_0ACC:
306: 0x0ACC [0x45] LOAD_SCHEDULED_TASK: Load scheduler "s015" with entities [EventEntity, EventEntity], work=[937*, 0*]
307: 0x0ADD [0x5D] SET_MUSIC_VOLUME(volume=127*, fade_time=300*)
308: 0x0AE2 [0x29] REQ_SET_WAIT(priority=0x0F, entity_id=Moogle (ID: 17195774/0x010662FE), tag_num=0x0C)
309: 0x0AE9 [0x7B] Kupofried (ID: 17195773/0x010662FD) stops talking
310: 0x0AEE [0x27] REQ_SET(priority=0x0F, entity_id=Kupofried (ID: 17195773/0x010662FD), tag_num=0x49)
311: 0x0AF5 [0x2B] Kupofried (ID: 17195773/0x010662FD) [12678*]:
    → "Five thousand years ago, there was a kind and gentle moogle who went by the moniker of Mogustus, kupo."
312: 0x0AFC [0x1C] WAIT(30* ticks)
313: 0x0AFF [0x4A] Moogle (ID: 17195774/0x010662FE) looks at Kupofried (ID: 17195773/0x010662FD)
314: 0x0B08 [0x6F] WAIT_FRAME_DELAY: Yield until WaitTime reaches zero
315: 0x0B09 [0x76] CHECK_ENTITY_RENDER_FLAGS: Wait until Moogle (ID: 17195774/0x010662FE) Render.Flags0 and Render.Flags3 conditions are met
316: 0x0B0E [0x23] WAIT_FOR_DIALOG_INTERACTION
317: 0x0B0F [0x2B] Kupofried (ID: 17195773/0x010662FD) [12679*]:
    → "Mogustus was entrusted with the most difficult negotiations. He frequently found himself surrounded by many hot-tempered beastmen."
318: 0x0B16 [0x23] WAIT_FOR_DIALOG_INTERACTION
319: 0x0B17 [0x2A] GET_REQ_LEVEL(level=15, entity_id=Kupofried (ID: 17195773/0x010662FD))
320: 0x0B1D [0x52] END_LOAD_SCHEDULER: End scheduler "s015" with entities [EventEntity, EventEntity], work=937*
321: 0x0B2C [0x45] LOAD_SCHEDULED_TASK: Load scheduler "s016" with entities [EventEntity, EventEntity], work=[937*, 0*]
322: 0x0B3D [0x4A] Moogle (ID: 17195774/0x010662FE) looks at Kupofried (ID: 17195773/0x010662FD)
323: 0x0B46 [0x29] REQ_SET_WAIT(priority=0x0F, entity_id=Kupofried (ID: 17195773/0x010662FD), tag_num=0x11)
324: 0x0B4D [0x2B] Kupofried (ID: 17195773/0x010662FD) [12680*]:
    → "However, he refused to give up on his task. Though his pom-pom did not escape unscathed, he was successful in his rather earnest endeavor."
325: 0x0B54 [0x23] WAIT_FOR_DIALOG_INTERACTION
326: 0x0B55 [0x29] REQ_SET_WAIT(priority=0x0F, entity_id=Kupofried (ID: 17195773/0x010662FD), tag_num=0x12)
327: 0x0B5C [0x6F] WAIT_FRAME_DELAY: Yield until WaitTime reaches zero
328: 0x0B5D [0x76] CHECK_ENTITY_RENDER_FLAGS: Wait until Moogle (ID: 17195774/0x010662FE) Render.Flags0 and Render.Flags3 conditions are met
329: 0x0B62 [0x52] END_LOAD_SCHEDULER: End scheduler "s016" with entities [EventEntity, EventEntity], work=937*
330: 0x0B71 [0x45] LOAD_SCHEDULED_TASK: Load scheduler "s017" with entities [EventEntity, EventEntity], work=[937*, 0*]
331: 0x0B82 [0x29] REQ_SET_WAIT(priority=0x0F, entity_id=Kupofried (ID: 17195773/0x010662FD), tag_num=0x13)
332: 0x0B89 [0x29] REQ_SET_WAIT(priority=0x0F, entity_id=Kupofried (ID: 17195773/0x010662FD), tag_num=0x14)
333: 0x0B90 [0x4A] Kupofried (ID: 17195773/0x010662FD) looks at Moogle (ID: 17195774/0x010662FE)
334: 0x0B99 [0x6F] WAIT_FRAME_DELAY: Yield until WaitTime reaches zero
335: 0x0B9A [0x76] CHECK_ENTITY_RENDER_FLAGS: Wait until Kupofried (ID: 17195773/0x010662FD) Render.Flags0 and Render.Flags3 conditions are met
336: 0x0B9F [0x29] REQ_SET_WAIT(priority=0x0F, entity_id=Kupofried (ID: 17195773/0x010662FD), tag_num=0x01)
337: 0x0BA6 [0x2B] Kupofried (ID: 17195773/0x010662FD) [12681*]:
    → "After the battle, Mogustus was accepted by many of the beastmen and none dared to attack him again, kupo."
338: 0x0BAD [0x23] WAIT_FOR_DIALOG_INTERACTION
339: 0x0BAE [0x2B] Kupofried (ID: 17195773/0x010662FD) [12682*]:
    → "It served as a promise of peace and prosperity. And that is how the moogle kingdom of Kupalika was founded."
340: 0x0BB5 [0x23] WAIT_FOR_DIALOG_INTERACTION
341: 0x0BB6 [0x29] REQ_SET_WAIT(priority=0x0F, entity_id=Kupofried (ID: 17195773/0x010662FD), tag_num=0x02)
342: 0x0BBD [0x52] END_LOAD_SCHEDULER: End scheduler "s017" with entities [EventEntity, EventEntity], work=937*
343: 0x0BCC [0x45] LOAD_SCHEDULED_TASK: Load scheduler "s018" with entities [EventEntity, EventEntity], work=[937*, 0*]
344: 0x0BDD [0x29] REQ_SET_WAIT(priority=0x0F, entity_id=Kupofried (ID: 17195773/0x010662FD), tag_num=0x03)
345: 0x0BE4 [0x2B] Kupofried (ID: 17195773/0x010662FD) [12683*]:
    → "'Twas my duty as the kingdom's seventh sovereign to ensure that it lived on, kupo. However..."
346: 0x0BEB [0x23] WAIT_FOR_DIALOG_INTERACTION
347: 0x0BEC [0x29] REQ_SET_WAIT(priority=0x0F, entity_id=Kupofried (ID: 17195773/0x010662FD), tag_num=0x04)
348: 0x0BF3 [0x52] END_LOAD_SCHEDULER: End scheduler "s018" with entities [EventEntity, EventEntity], work=937*
349: 0x0C02 [0x45] LOAD_SCHEDULED_TASK: Load scheduler "s019" with entities [EventEntity, EventEntity], work=[937*, 0*]
350: 0x0C13 [0x29] REQ_SET_WAIT(priority=0x0F, entity_id=Kupofried (ID: 17195773/0x010662FD), tag_num=0x05)
351: 0x0C1A [0x2B] Kupofried (ID: 17195773/0x010662FD) [12684*]:
    → "A great struggle erupted betwixt us moogles..."
352: 0x0C21 [0x23] WAIT_FOR_DIALOG_INTERACTION
353: 0x0C22 [0x2B] Kupofried (ID: 17195773/0x010662FD) [12685*]:
    → "Our kingdom, one born through the forging of powerful bonds, was doomed to failure once its own internal bonds bitterly broke."
354: 0x0C29 [0x23] WAIT_FOR_DIALOG_INTERACTION
355: 0x0C2A [0x29] REQ_SET_WAIT(priority=0x0F, entity_id=Kupofried (ID: 17195773/0x010662FD), tag_num=0x06)
356: 0x0C31 [0x52] END_LOAD_SCHEDULER: End scheduler "s019" with entities [EventEntity, EventEntity], work=937*
357: 0x0C40 [0x45] LOAD_SCHEDULED_TASK: Load scheduler "s021" with entities [EventEntity, EventEntity], work=[937*, 0*]
358: 0x0C51 [0x29] REQ_SET_WAIT(priority=0x0F, entity_id=Moogle (ID: 17195774/0x010662FE), tag_num=0x15)
359: 0x0C58 [0x2B] Moogle (ID: 17195774/0x010662FE) [12686*]:
    → "Yes, such bonds are incredibly important, kupo."
360: 0x0C5F [0x1C] WAIT(20* ticks)
361: 0x0C62 [0x79] LocalPlayer looks at Moogle (ID: 17195774/0x010662FE) (Basic look)
362: 0x0C6C [0x23] WAIT_FOR_DIALOG_INTERACTION
363: 0x0C6D [0x29] REQ_SET_WAIT(priority=0x0F, entity_id=Moogle (ID: 17195774/0x010662FE), tag_num=0x16)
364: 0x0C74 [0x52] END_LOAD_SCHEDULER: End scheduler "s021" with entities [EventEntity, EventEntity], work=937*
365: 0x0C83 [0x45] LOAD_SCHEDULED_TASK: Load scheduler "s020" with entities [EventEntity, EventEntity], work=[937*, 0*]
366: 0x0C94 [0x5D] SET_MUSIC_VOLUME(volume=0*, fade_time=300*)
367: 0x0C99 [0x29] REQ_SET_WAIT(priority=0x0F, entity_id=Kupofried (ID: 17195773/0x010662FD), tag_num=0x07)
368: 0x0CA0 [0x2B] Kupofried (ID: 17195773/0x010662FD) [12687*]:
    → "Forgive my failing of focus, but I need thee to understand, kupo. Thou must understand what is truly important."
369: 0x0CA7 [0x23] WAIT_FOR_DIALOG_INTERACTION
370: 0x0CA8 [0x29] REQ_SET_WAIT(priority=0x0F, entity_id=Kupofried (ID: 17195773/0x010662FD), tag_num=0x08)
371: 0x0CAF [0x52] END_LOAD_SCHEDULER: End scheduler "s020" with entities [EventEntity, EventEntity], work=937*
372: 0x0CBE [0x45] LOAD_SCHEDULED_TASK: Load scheduler "s022" with entities [EventEntity, EventEntity], work=[937*, 0*]
373: 0x0CCF [0x29] REQ_SET_WAIT(priority=0x0F, entity_id=Moogle (ID: 17195774/0x010662FE), tag_num=0x1B)
374: 0x0CD6 [0x2B] Moogle (ID: 17195774/0x010662FE) [12688*]:
    → "I know! We must reforge the broken bonds so that we can all come together once more, kupo!"
375: 0x0CDD [0x23] WAIT_FOR_DIALOG_INTERACTION
376: 0x0CDE [0x29] REQ_SET_WAIT(priority=0x0F, entity_id=Moogle (ID: 17195774/0x010662FE), tag_num=0x1C)
377: 0x0CE5 [0x29] REQ_SET_WAIT(priority=0x0F, entity_id=Kupofried (ID: 17195773/0x010662FD), tag_num=0x1B)
378: 0x0CEC [0x29] REQ_SET_WAIT(priority=0x0F, entity_id=Kupofried (ID: 17195773/0x010662FD), tag_num=0x1C)
379: 0x0CF3 [0x52] END_LOAD_SCHEDULER: End scheduler "s022" with entities [EventEntity, EventEntity], work=937*
380: 0x0D02 [0x02] IF !(Work_Zone[9] == 5*) GOTO 0x0D1E
381: 0x0D0A [0x45] LOAD_SCHEDULED_TASK: Load scheduler "s041" with entities [EventEntity, EventEntity], work=[937*, 0*]
382: 0x0D1B [0x01] GOTO 0x0D4B
383: 0x0D1E [0x02] IF !(Work_Zone[9] == 6*) GOTO 0x0D3A
384: 0x0D26 [0x45] LOAD_SCHEDULED_TASK: Load scheduler "s041" with entities [EventEntity, EventEntity], work=[937*, 0*]
385: 0x0D37 [0x01] GOTO 0x0D4B
386: 0x0D3A [0x45] LOAD_SCHEDULED_TASK: Load scheduler "s023" with entities [EventEntity, EventEntity], work=[937*, 0*]

SUBROUTINE_0D4B:
387: 0x0D4B [0x4A] Kupofried (ID: 17195773/0x010662FD) looks at LocalPlayer
388: 0x0D54 [0x6F] WAIT_FRAME_DELAY: Yield until WaitTime reaches zero
389: 0x0D55 [0x76] CHECK_ENTITY_RENDER_FLAGS: Wait until Kupofried (ID: 17195773/0x010662FD) Render.Flags0 and Render.Flags3 conditions are met
390: 0x0D5A [0x29] REQ_SET_WAIT(priority=0x0F, entity_id=Kupofried (ID: 17195773/0x010662FD), tag_num=0x23)
391: 0x0D61 [0x2B] Kupofried (ID: 17195773/0x010662FD) [12689*]:
    → "To that end, there is something we must ask of thee, kupo."
392: 0x0D68 [0x1C] WAIT(20* ticks)
393: 0x0D6B [0x4A] LocalPlayer looks at Kupofried (ID: 17195773/0x010662FD)
394: 0x0D74 [0x6F] WAIT_FRAME_DELAY: Yield until WaitTime reaches zero
395: 0x0D75 [0x76] CHECK_ENTITY_RENDER_FLAGS: Wait until LocalPlayer Render.Flags0 and Render.Flags3 conditions are met
396: 0x0D7A [0x23] WAIT_FOR_DIALOG_INTERACTION
397: 0x0D7B [0x1A] CALL_SUBROUTINE(address=0x0064)
398: 0x0D7E [0x29] REQ_SET_WAIT(priority=0x0F, entity_id=Kupofried (ID: 17195773/0x010662FD), tag_num=0x24)
399: 0x0D85 [0x02] IF !(Work_Zone[9] == 5*) GOTO 0x0D9F
400: 0x0D8D [0x52] END_LOAD_SCHEDULER: End scheduler "s041" with entities [EventEntity, EventEntity], work=937*
401: 0x0D9C [0x01] GOTO 0x0DC8
402: 0x0D9F [0x02] IF !(Work_Zone[9] == 6*) GOTO 0x0DB9
403: 0x0DA7 [0x52] END_LOAD_SCHEDULER: End scheduler "s041" with entities [EventEntity, EventEntity], work=937*
404: 0x0DB6 [0x01] GOTO 0x0DC8
405: 0x0DB9 [0x52] END_LOAD_SCHEDULER: End scheduler "s023" with entities [EventEntity, EventEntity], work=937*

SUBROUTINE_0DC8:
406: 0x0DC8 [0x1C] WAIT(1* ticks)
407: 0x0DCB [0x34] LOAD_UNLOAD_ZONE(zone_id=86*)
408: 0x0DCE [0x77] SET_EVENT_TIME_WEATHER(hour=12*, weather=1*)
409: 0x0DD3 [0x1C] WAIT(1* ticks)
410: 0x0DD6 [0x2F] Spikehelm Argok (ID: 17195777/0x01066301)->Render.Flags0 &= ~0x80000 // Bit 19
411: 0x0DDC [0x2F] Tethys (ID: 17195778/0x01066302)->Render.Flags0 &= ~0x80000 // Bit 19
412: 0x0DE2 [0x2F] Antican Curule Aedilis (ID: 17195779/0x01066303)->Render.Flags0 &= ~0x80000 // Bit 19
413: 0x0DE8 [0x2F] Garmatur the Merciless (ID: 17195780/0x01066304)->Render.Flags0 &= ~0x80000 // Bit 19
414: 0x0DEE [0x2F] Unnamed NPC (ID: 17195782/0x01066306)->Render.Flags0 &= ~0x80000 // Bit 19
415: 0x0DF4 [0x2F] Unnamed NPC (ID: 17195783/0x01066307)->Render.Flags0 &= ~0x80000 // Bit 19
416: 0x0DFA [0x4E] SET_ENTITY_HIDE_FLAG: Show Spikehelm Argok (ID: 17195777/0x01066301)
417: 0x0E00 [0x4E] SET_ENTITY_HIDE_FLAG: Show Tethys (ID: 17195778/0x01066302)
418: 0x0E06 [0x4E] SET_ENTITY_HIDE_FLAG: Show Antican Curule Aedilis (ID: 17195779/0x01066303)
419: 0x0E0C [0x4E] SET_ENTITY_HIDE_FLAG: Show Garmatur the Merciless (ID: 17195780/0x01066304)
420: 0x0E12 [0x4E] SET_ENTITY_HIDE_FLAG: Show Unnamed NPC (ID: 17195782/0x01066306)
421: 0x0E18 [0x4E] SET_ENTITY_HIDE_FLAG: Show Unnamed NPC (ID: 17195783/0x01066307)
422: 0x0E1E [0xBA] SET_ENTITY_POSITION(entity_id=Spikehelm Argok (ID: 17195777/0x01066301), pos_x=243.001*, pos_z=-335.639*, pos_y=20.675*, direction=90.0°*)
423: 0x0E2B [0xBA] SET_ENTITY_POSITION(entity_id=Tethys (ID: 17195778/0x01066302), pos_x=238.988*, pos_z=-335.494*, pos_y=20.999*, direction=90.0°*)
424: 0x0E38 [0xBA] SET_ENTITY_POSITION(entity_id=Antican Curule Aedilis (ID: 17195779/0x01066303), pos_x=237.292*, pos_z=-332.004*, pos_y=20.564*, direction=60.4°*)
425: 0x0E45 [0xBA] SET_ENTITY_POSITION(entity_id=Garmatur the Merciless (ID: 17195780/0x01066304), pos_x=240.842*, pos_z=-331.785*, pos_y=20.922*, direction=90.0°*)
426: 0x0E52 [0xBA] SET_ENTITY_POSITION(entity_id=Unnamed NPC (ID: 17195782/0x01066306), pos_x=251.306*, pos_z=-342.243*, pos_y=18.521*, direction=194.8°*)
427: 0x0E5F [0xBA] SET_ENTITY_POSITION(entity_id=Unnamed NPC (ID: 17195783/0x01066307), pos_x=242.196*, pos_z=-344.151*, pos_y=20.940*, direction=256.3°*)
428: 0x0E6C [0x80] LOAD_WAIT(entity=Spikehelm Argok (ID: 17195777/0x01066301))
429: 0x0E71 [0x80] LOAD_WAIT(entity=Tethys (ID: 17195778/0x01066302))
430: 0x0E76 [0x80] LOAD_WAIT(entity=Antican Curule Aedilis (ID: 17195779/0x01066303))
431: 0x0E7B [0x80] LOAD_WAIT(entity=Garmatur the Merciless (ID: 17195780/0x01066304))
432: 0x0E80 [0x80] LOAD_WAIT(entity=Unnamed NPC (ID: 17195782/0x01066306))
433: 0x0E85 [0x80] LOAD_WAIT(entity=Unnamed NPC (ID: 17195783/0x01066307))
434: 0x0E8A [0x5C] MUSIC_CONTROL: Set Idle (Day) music to song 31*
435: 0x0E8E [0x5C] MUSIC_CONTROL: Set Idle (Night) music to song 31*
436: 0x0E92 [0x9A] WAIT_MUSIC_SERVER()
437: 0x0E93 [0x5D] SET_MUSIC_VOLUME(volume=30*, fade_time=1*)
438: 0x0E98 [0x7B] LocalPlayer stops talking
439: 0x0E9D [0x48] [System] [7401*]:
    → "@@"
440: 0x0EA0 [0x27] REQ_SET(priority=0x0F, entity_id=Spikehelm Argok (ID: 17195777/0x01066301), tag_num=0x9C)
441: 0x0EA7 [0x27] REQ_SET(priority=0x0F, entity_id=Tethys (ID: 17195778/0x01066302), tag_num=0x34)
442: 0x0EAE [0x27] REQ_SET(priority=0x0F, entity_id=Antican Curule Aedilis (ID: 17195779/0x01066303), tag_num=0x02)
443: 0x0EB5 [0x27] REQ_SET(priority=0x0F, entity_id=Garmatur the Merciless (ID: 17195780/0x01066304), tag_num=0x02)
444: 0x0EBC [0x1C] WAIT(60* ticks)
445: 0x0EBF [0x45] LOAD_SCHEDULED_TASK: Load scheduler "s026" with entities [EventEntity, EventEntity], work=[937*, 0*]
446: 0x0ED0 [0x1A] CALL_SUBROUTINE(address=0x0043)
447: 0x0ED3 [0x2B] Kupofried (ID: 17195773/0x010662FD) [12690*]:
    → "There are a number of powerful warriors who have gathered to offer us their amicable assistance."
448: 0x0EDA [0x23] WAIT_FOR_DIALOG_INTERACTION
449: 0x0EDB [0x52] END_LOAD_SCHEDULER: End scheduler "s026" with entities [EventEntity, EventEntity], work=937*
450: 0x0EEA [0x45] LOAD_SCHEDULED_TASK: Load scheduler "s046" with entities [EventEntity, EventEntity], work=[937*, 0*]
451: 0x0EFB [0x4A] LocalPlayer looks at Kupofried (ID: 17195773/0x010662FD)
452: 0x0F04 [0x6F] WAIT_FRAME_DELAY: Yield until WaitTime reaches zero
453: 0x0F05 [0x76] CHECK_ENTITY_RENDER_FLAGS: Wait until LocalPlayer Render.Flags0 and Render.Flags3 conditions are met
454: 0x0F0A [0x2B] Kupofried (ID: 17195773/0x010662FD) [12691*]:
    → "They are currently training in order to take on the Maelstrom Mage and Chaos, kupo."
455: 0x0F11 [0x23] WAIT_FOR_DIALOG_INTERACTION
456: 0x0F12 [0x52] END_LOAD_SCHEDULER: End scheduler "s046" with entities [EventEntity, EventEntity], work=937*
457: 0x0F21 [0x45] LOAD_SCHEDULED_TASK: Load scheduler "s047" with entities [EventEntity, EventEntity], work=[937*, 0*]
458: 0x0F32 [0x2B] Kupofried (ID: 17195773/0x010662FD) [12692*]:
    → "However, there is a group of belligerent beastmen among them that refuse to fight by your side..."
459: 0x0F39 [0x1C] WAIT(120* ticks)
460: 0x0F3C [0x23] WAIT_FOR_DIALOG_INTERACTION
461: 0x0F3D [0x1A] CALL_SUBROUTINE(address=0x0064)
462: 0x0F40 [0x52] END_LOAD_SCHEDULER: End scheduler "s047" with entities [EventEntity, EventEntity], work=937*
463: 0x0F4F [0x27] REQ_SET(priority=0x0D, entity_id=Spikehelm Argok (ID: 17195777/0x01066301), tag_num=0x9D)
464: 0x0F56 [0x27] REQ_SET(priority=0x0D, entity_id=Tethys (ID: 17195778/0x01066302), tag_num=0x35)
465: 0x0F5D [0x27] REQ_SET(priority=0x0D, entity_id=Antican Curule Aedilis (ID: 17195779/0x01066303), tag_num=0x03)
466: 0x0F64 [0x27] REQ_SET(priority=0x0D, entity_id=Garmatur the Merciless (ID: 17195780/0x01066304), tag_num=0x03)
467: 0x0F6B [0x2A] GET_REQ_LEVEL(level=13, entity_id=Spikehelm Argok (ID: 17195777/0x01066301))
468: 0x0F71 [0x2A] GET_REQ_LEVEL(level=13, entity_id=Tethys (ID: 17195778/0x01066302))
469: 0x0F77 [0x2A] GET_REQ_LEVEL(level=13, entity_id=Antican Curule Aedilis (ID: 17195779/0x01066303))
470: 0x0F7D [0x2A] GET_REQ_LEVEL(level=13, entity_id=Garmatur the Merciless (ID: 17195780/0x01066304))
471: 0x0F83 [0x2A] GET_REQ_LEVEL(level=15, entity_id=Spikehelm Argok (ID: 17195777/0x01066301))
472: 0x0F89 [0x2A] GET_REQ_LEVEL(level=15, entity_id=Tethys (ID: 17195778/0x01066302))
473: 0x0F8F [0x2A] GET_REQ_LEVEL(level=15, entity_id=Antican Curule Aedilis (ID: 17195779/0x01066303))
474: 0x0F95 [0x2A] GET_REQ_LEVEL(level=15, entity_id=Garmatur the Merciless (ID: 17195780/0x01066304))
475: 0x0F9B [0x4E] SET_ENTITY_HIDE_FLAG: Hide Spikehelm Argok (ID: 17195777/0x01066301)
476: 0x0FA1 [0x4E] SET_ENTITY_HIDE_FLAG: Hide Tethys (ID: 17195778/0x01066302)
477: 0x0FA7 [0x4E] SET_ENTITY_HIDE_FLAG: Hide Antican Curule Aedilis (ID: 17195779/0x01066303)
478: 0x0FAD [0x4E] SET_ENTITY_HIDE_FLAG: Hide Garmatur the Merciless (ID: 17195780/0x01066304)
479: 0x0FB3 [0x4E] SET_ENTITY_HIDE_FLAG: Hide Unnamed NPC (ID: 17195782/0x01066306)
480: 0x0FB9 [0x4E] SET_ENTITY_HIDE_FLAG: Hide Unnamed NPC (ID: 17195783/0x01066307)
481: 0x0FBF [0x35] LOAD_ZONE_NO_CLOSE(zone_id=102*)
482: 0x0FC2 [0x78] ENABLE_GAME_TIMER_RESET_WEATHER()
483: 0x0FC3 [0x1C] WAIT(15* ticks)
484: 0x0FC6 [0x22] ENTITY_HIDE_FLAG(enabled=0x00)
485: 0x0FC8 [0x48] [System] [7401*]:
    → "@@"
486: 0x0FCB [0x1C] WAIT(60* ticks)
487: 0x0FCE [0xBA] SET_ENTITY_POSITION(entity_id=LocalPlayer, pos_x=-176.440*, pos_z=251.152*, pos_y=8.861*, direction=53.7°*)
488: 0x0FDB [0xBA] SET_ENTITY_POSITION(entity_id=Kupofried (ID: 17195773/0x010662FD), pos_x=-178.652*, pos_z=250.577*, pos_y=8.787*, direction=170.3°*)
489: 0x0FE8 [0x4A] Kupofried (ID: 17195773/0x010662FD) looks at LocalPlayer
490: 0x0FF1 [0x4A] LocalPlayer looks at Kupofried (ID: 17195773/0x010662FD)
491: 0x0FFA [0x6F] WAIT_FRAME_DELAY: Yield until WaitTime reaches zero
492: 0x0FFB [0x76] CHECK_ENTITY_RENDER_FLAGS: Wait until LocalPlayer Render.Flags0 and Render.Flags3 conditions are met
493: 0x1000 [0x6F] WAIT_FRAME_DELAY: Yield until WaitTime reaches zero
494: 0x1001 [0x76] CHECK_ENTITY_RENDER_FLAGS: Wait until Kupofried (ID: 17195773/0x010662FD) Render.Flags0 and Render.Flags3 conditions are met
495: 0x1006 [0x29] REQ_SET_WAIT(priority=0x0F, entity_id=Kupofried (ID: 17195773/0x010662FD), tag_num=0x23)
496: 0x100D [0x45] LOAD_SCHEDULED_TASK: Load scheduler "s024" with entities [EventEntity, EventEntity], work=[937*, 0*]
497: 0x101E [0x1A] CALL_SUBROUTINE(address=0x0043)
498: 0x1021 [0x5D] SET_MUSIC_VOLUME(volume=127*, fade_time=1*)
499: 0x1026 [0x2B] Kupofried (ID: 17195773/0x010662FD) [12693*]:
    → "No moogles nor even myself hath been able to convince them otherwise, kupo."
500: 0x102D [0x23] WAIT_FOR_DIALOG_INTERACTION
501: 0x102E [0x29] REQ_SET_WAIT(priority=0x0F, entity_id=Kupofried (ID: 17195773/0x010662FD), tag_num=0x24)
502: 0x1035 [0x52] END_LOAD_SCHEDULER: End scheduler "s024" with entities [EventEntity, EventEntity], work=937*
503: 0x1044 [0x45] LOAD_SCHEDULED_TASK: Load scheduler "s027" with entities [EventEntity, EventEntity], work=[937*, 0*]
504: 0x1055 [0x29] REQ_SET_WAIT(priority=0x0F, entity_id=Moogle (ID: 17195774/0x010662FE), tag_num=0x2D)
505: 0x105C [0x2B] Moogle (ID: 17195774/0x010662FE) [12694*]:
    → "Kupopo!? They refused you too, King Kupofried!?"
506: 0x1063 [0x1C] WAIT(30* ticks)
507: 0x1066 [0x4A] Kupofried (ID: 17195773/0x010662FD) looks at Moogle (ID: 17195774/0x010662FE)
508: 0x106F [0x6F] WAIT_FRAME_DELAY: Yield until WaitTime reaches zero
509: 0x1070 [0x76] CHECK_ENTITY_RENDER_FLAGS: Wait until Kupofried (ID: 17195773/0x010662FD) Render.Flags0 and Render.Flags3 conditions are met
510: 0x1075 [0x23] WAIT_FOR_DIALOG_INTERACTION
511: 0x1076 [0x29] REQ_SET_WAIT(priority=0x0F, entity_id=Kupofried (ID: 17195773/0x010662FD), tag_num=0x1B)
512: 0x107D [0x2B] Kupofried (ID: 17195773/0x010662FD) [12695*]:
    → "Indeed. I believe our only hope is for the two of you to personally plead our case to them."
513: 0x1084 [0x23] WAIT_FOR_DIALOG_INTERACTION
514: 0x1085 [0x29] REQ_SET_WAIT(priority=0x0F, entity_id=Kupofried (ID: 17195773/0x010662FD), tag_num=0x1C)
515: 0x108C [0x29] REQ_SET_WAIT(priority=0x0F, entity_id=Moogle (ID: 17195774/0x010662FE), tag_num=0x2E)
516: 0x1093 [0x52] END_LOAD_SCHEDULER: End scheduler "s027" with entities [EventEntity, EventEntity], work=937*
517: 0x10A2 [0x02] IF !(Work_Zone[9] == 5*) GOTO 0x10BE
518: 0x10AA [0x45] LOAD_SCHEDULED_TASK: Load scheduler "s042" with entities [EventEntity, EventEntity], work=[937*, 0*]
519: 0x10BB [0x01] GOTO 0x10EB
520: 0x10BE [0x02] IF !(Work_Zone[9] == 6*) GOTO 0x10DA
521: 0x10C6 [0x45] LOAD_SCHEDULED_TASK: Load scheduler "s042" with entities [EventEntity, EventEntity], work=[937*, 0*]
522: 0x10D7 [0x01] GOTO 0x10EB
523: 0x10DA [0x45] LOAD_SCHEDULED_TASK: Load scheduler "s028" with entities [EventEntity, EventEntity], work=[937*, 0*]

SUBROUTINE_10EB:
524: 0x10EB [0x29] REQ_SET_WAIT(priority=0x0F, entity_id=Moogle (ID: 17195774/0x010662FE), tag_num=0x2D)
525: 0x10F2 [0x2B] Moogle (ID: 17195774/0x010662FE) [12696*]:
    → ""The two of you"? You wish for me to accompany <Player>, kupo!?"
526: 0x10F9 [0x1C] WAIT(20* ticks)
527: 0x10FC [0x4A] Kupofried (ID: 17195773/0x010662FD) looks at Moogle (ID: 17195774/0x010662FE)
528: 0x1105 [0x6F] WAIT_FRAME_DELAY: Yield until WaitTime reaches zero
529: 0x1106 [0x76] CHECK_ENTITY_RENDER_FLAGS: Wait until Kupofried (ID: 17195773/0x010662FD) Render.Flags0 and Render.Flags3 conditions are met
530: 0x110B [0x79] LocalPlayer looks at Moogle (ID: 17195774/0x010662FE) (Basic look)
531: 0x1115 [0x4B] UPDATE_ENTITY_YAW(entity=LocalPlayer, yaw=6.2°*)
532: 0x111C [0x6F] WAIT_FRAME_DELAY: Yield until WaitTime reaches zero
533: 0x111D [0x76] CHECK_ENTITY_RENDER_FLAGS: Wait until LocalPlayer Render.Flags0 and Render.Flags3 conditions are met
534: 0x1122 [0x23] WAIT_FOR_DIALOG_INTERACTION
535: 0x1123 [0x02] IF !(Work_Zone[9] == 5*) GOTO 0x113D
536: 0x112B [0x52] END_LOAD_SCHEDULER: End scheduler "s042" with entities [EventEntity, EventEntity], work=937*
537: 0x113A [0x01] GOTO 0x1166
538: 0x113D [0x02] IF !(Work_Zone[9] == 6*) GOTO 0x1157
539: 0x1145 [0x52] END_LOAD_SCHEDULER: End scheduler "s042" with entities [EventEntity, EventEntity], work=937*
540: 0x1154 [0x01] GOTO 0x1166
541: 0x1157 [0x52] END_LOAD_SCHEDULER: End scheduler "s028" with entities [EventEntity, EventEntity], work=937*

SUBROUTINE_1166:
542: 0x1166 [0x45] LOAD_SCHEDULED_TASK: Load scheduler "s029" with entities [EventEntity, EventEntity], work=[937*, 0*]
543: 0x1177 [0x29] REQ_SET_WAIT(priority=0x0F, entity_id=Kupofried (ID: 17195773/0x010662FD), tag_num=0x1B)
544: 0x117E [0x79] LocalPlayer looks at Kupofried (ID: 17195773/0x010662FD) (Basic look)
545: 0x1188 [0x2B] Kupofried (ID: 17195773/0x010662FD) [12697*]:
    → "Yes, you have both known each other for some time now. You are acutely aware of each other's strengths, kupo."
546: 0x118F [0x1C] WAIT(30* ticks)
547: 0x1192 [0x79] Kupofried (ID: 17195773/0x010662FD) looks at LocalPlayer (Basic look)
548: 0x119C [0x23] WAIT_FOR_DIALOG_INTERACTION
549: 0x119D [0x29] REQ_SET_WAIT(priority=0x0F, entity_id=Kupofried (ID: 17195773/0x010662FD), tag_num=0x1C)
550: 0x11A4 [0x52] END_LOAD_SCHEDULER: End scheduler "s029" with entities [EventEntity, EventEntity], work=937*
551: 0x11B3 [0x45] LOAD_SCHEDULED_TASK: Load scheduler "s030" with entities [EventEntity, EventEntity], work=[937*, 0*]
552: 0x11C4 [0x29] REQ_SET_WAIT(priority=0x0F, entity_id=Moogle (ID: 17195774/0x010662FE), tag_num=0x2E)
553: 0x11CB [0x29] REQ_SET_WAIT(priority=0x0F, entity_id=Moogle (ID: 17195774/0x010662FE), tag_num=0x09)
554: 0x11D2 [0x79] Kupofried (ID: 17195773/0x010662FD) looks at Moogle (ID: 17195774/0x010662FE) (Basic look)
555: 0x11DC [0x2B] Moogle (ID: 17195774/0x010662FE) [12698*]:
    → "Yes, you're right! I promise to do my best, kupo!"
556: 0x11E3 [0x1C] WAIT(20* ticks)
557: 0x11E6 [0x79] LocalPlayer looks at Moogle (ID: 17195774/0x010662FE) (Basic look)
558: 0x11F0 [0x23] WAIT_FOR_DIALOG_INTERACTION
559: 0x11F1 [0x29] REQ_SET_WAIT(priority=0x0F, entity_id=Moogle (ID: 17195774/0x010662FE), tag_num=0x0A)
560: 0x11F8 [0x29] REQ_SET_WAIT(priority=0x0F, entity_id=Kupofried (ID: 17195773/0x010662FD), tag_num=0x01)
561: 0x11FF [0x2B] Kupofried (ID: 17195773/0x010662FD) [12699*]:
    → "I ask that ye be careful. Thine encounter may go beyond mere words and require immediate intervention."
562: 0x1206 [0x1C] WAIT(20* ticks)
563: 0x1209 [0x79] LocalPlayer looks at Kupofried (ID: 17195773/0x010662FD) (Basic look)
564: 0x1213 [0x1C] WAIT(20* ticks)
565: 0x1216 [0x29] REQ_SET_WAIT(priority=0x0F, entity_id=Moogle (ID: 17195774/0x010662FE), tag_num=0x0B)
566: 0x121D [0x23] WAIT_FOR_DIALOG_INTERACTION
