# 17195652 - Carbuncle

## Common Data

| Field            | Value                       |
|------------------|-----------------------------|
| Zone             | La Theine Plateau (ID: 102) |
| Block Size       | 1616 bytes                  |
| Total Events     | 28                          |
| References Count | 93                          |

## List of Events

| Event ID                   | Entrypoint   |   Size |   Instructions |
|----------------------------|--------------|--------|----------------|
| [65535](#event-65535)      | 0x0000       |      1 |              1 |
| [205](#event-205)          | 0x0001       |     12 |              3 |
| [65535.1](#event-655351)   | 0x000D       |     24 |              6 |
| [207](#event-207)          | 0x0025       |     12 |              3 |
| [208](#event-208)          | 0x0031       |      1 |              1 |
| [65535.2](#event-655352)   | 0x0032       |     16 |              2 |
| [65535.3](#event-655353)   | 0x0042       |     16 |              2 |
| [65535.4](#event-655354)   | 0x0052       |     14 |              2 |
| [123](#event-123)          | 0x0060       |    712 |             96 |
| [65535.5](#event-655355)   | 0x0328       |      7 |              2 |
| [65535.6](#event-655356)   | 0x032F       |     14 |              4 |
| [124](#event-124)          | 0x033D       |      7 |              2 |
| [65535.7](#event-655357)   | 0x0344       |     10 |              2 |
| [65535.8](#event-655358)   | 0x034E       |     10 |              2 |
| [65535.9](#event-655359)   | 0x0358       |      8 |              2 |
| [65535.10](#event-6553510) | 0x0360       |     43 |              8 |
| [65535.11](#event-6553511) | 0x038B       |     46 |              9 |
| [65535.12](#event-6553512) | 0x03B9       |     37 |              8 |
| [65535.13](#event-6553513) | 0x03DE       |     48 |              9 |
| [65535.14](#event-6553514) | 0x040E       |     19 |              5 |
| [65535.15](#event-6553515) | 0x0421       |     23 |              5 |
| [65535.16](#event-6553516) | 0x0438       |      5 |              3 |
| [65535.17](#event-6553517) | 0x043D       |      5 |              3 |
| [65535.18](#event-6553518) | 0x0442       |      5 |              3 |
| [65535.19](#event-6553519) | 0x0447       |      5 |              3 |
| [65535.20](#event-6553520) | 0x044C       |      5 |              3 |
| [65535.21](#event-6553521) | 0x0451       |      5 |              3 |
| [65535.22](#event-6553522) | 0x0456       |      5 |              3 |

## DAT References (imed_data)

|   Index | Hex Value   |   Dec Value |
|---------|-------------|-------------|
|       0 | 0xFFFD3E5E  |  4294786654 |
|       1 | 0x3CB0F     |      248591 |
|       2 | 0x160F      |        5647 |
|       3 | 0x0E90      |        3728 |
|       4 | 0x0006      |           6 |
|       5 | 0xFFFD4246  |  4294787654 |
|       6 | 0x1709      |        5897 |
|       7 | 0xFFFD462E  |  4294788654 |
|       8 | 0x3CBD7     |      248791 |
|       9 | 0x1803      |        6147 |
|      10 | 0x0198      |         408 |
|      11 | 0x0064      |         100 |
|      12 | 0x00C8      |         200 |
|      13 | 0x0000      |           0 |
|      14 | 0x0013      |          19 |
|      15 | 0x0001      |           1 |
|      16 | 0x00D5      |         213 |
|      17 | 0x0023      |          35 |
|      18 | 0x0004      |           4 |
|      19 | 0x0024      |          36 |
|      20 | 0x0005      |           5 |
|      21 | 0x0026      |          38 |
|      22 | 0x0007      |           7 |
|      23 | 0x0008      |           8 |
|      24 | 0x0028      |          40 |
|      25 | 0x0009      |           9 |
|      26 | 0x000A      |          10 |
|      27 | 0x0029      |          41 |
|      28 | 0x000B      |          11 |
|      29 | 0x000C      |          12 |
|      30 | 0x0025      |          37 |
|      31 | 0x000D      |          13 |
|      32 | 0x000E      |          14 |
|      33 | 0x0027      |          39 |
|      34 | 0x000F      |          15 |
|      35 | 0x1D97      |        7575 |
|      36 | 0x00C9      |         201 |
|      37 | 0x002A      |          42 |
|      38 | 0x003C      |          60 |
|      39 | 0x0048      |          72 |
|      40 | 0x0032      |          50 |
|      41 | 0x1D98      |        7576 |
|      42 | 0x1D9A      |        7578 |
|      43 | 0xFFFF1AE1  |  4294908641 |
|      44 | 0xFFFD6066  |  4294795366 |
|      45 | 0x3BA25     |      244261 |
|      46 | 0xFFFEC2B4  |  4294886068 |
|      47 | 0x030A      |         778 |
|      48 | 0xFFFD459B  |  4294788507 |
|      49 | 0x3E916     |      256278 |
|      50 | 0xFFFFE9B1  |  4294961585 |
|      51 | 0x02E2      |         738 |
|      52 | 0xFFFD3F3F  |  4294786879 |
|      53 | 0x3F9D9     |      260569 |
|      54 | 0x1A2C      |        6700 |
|      55 | 0xFFFFAD14  |  4294946068 |
|      56 | 0x0AF0      |        2800 |
|      57 | 0xFFFFCD38  |  4294954296 |
|      58 | 0x0002      |           2 |
|      59 | 0x005A      |          90 |
|      60 | 0xFFFFF364  |  4294964068 |
|      61 | 0x02A0      |         672 |
|      62 | 0x05DC      |        1500 |
|      63 | 0x0050      |          80 |
|      64 | 0x09C4      |        2500 |
|      65 | 0x0C80      |        3200 |
|      66 | 0xFFFD4424  |  4294788132 |
|      67 | 0x3E1D7     |      254423 |
|      68 | 0x1EA7      |        7847 |
|      69 | 0x0A24      |        2596 |
|      70 | 0xFFFD4AA0  |  4294789792 |
|      71 | 0x3DE7B     |      253563 |
|      72 | 0x1ECF      |        7887 |
|      73 | 0xFFFD503D  |  4294791229 |
|      74 | 0x3DF90     |      253840 |
|      75 | 0x1EC4      |        7876 |
|      76 | 0x16F4      |        5876 |
|      77 | 0xFFFD56B5  |  4294792885 |
|      78 | 0x3CFB5     |      249781 |
|      79 | 0xFFFFD8F0  |  4294957296 |
|      80 | 0x2DBF0     |      187376 |
|      81 | 0x2DF5      |       11765 |
|      82 | 0x37AC      |       14252 |
|      83 | 0x0F1C      |        3868 |
|      84 | 0x64A65     |      412261 |
|      85 | 0x16CFA     |       93434 |
|      86 | 0x1DA5      |        7589 |
|      87 | 0x1DA6      |        7590 |
|      88 | 0x1DA7      |        7591 |
|      89 | 0x1DA8      |        7592 |
|      90 | 0x1DA9      |        7593 |
|      91 | 0x1DAA      |        7594 |
|      92 | 0x1DAB      |        7595 |

## String References

- **7575**: The [orange/1/2/3/red/red/blue/blue/yellow/yellow/green/green/indigo/indigo/violet/violet] light... I can feel its power run through me.
- **7576**: Come, <Player>. Follow me...
- **7578**: Carbuncle vanished off to another area in the La Theine Plateau.
- **7589**: Thank you, <Player>. My name is Carbuncle. I am one of several new forces here in Vana'diel.
- **7590**: I became a crystal, was divided into shards, and fell into the hands of beasts and people alike...as the world changed around me.
- **7591**: And then, I knew. I knew that you needed me.
- **7592**: That's why I'll lend you a little of my power. I'll fight by your side, and watch over you always.
- **7593**: I demand you perform a labor: visit the ancient beings that sleep in faraway lands and places of legend.
- **7594**: Vana'diel is the world in which you live. You should see the true Vana'diel with your own eyes.
- **7595**: I will extend a bridge. A bridge between the people of the present, and beings of ages past.

## Events

### Event 65535

#### Metadata

| Field        | Value   |
|--------------|---------|
| Entrypoint   | 0x0000  |
| Data Size    | 1 bytes |
| Instructions | 1       |

```
      00 01 02 03 04 05 06 07  08 09 0A 0B 0C 0D 0E 0F
      -- -- -- -- -- -- -- --  -- -- -- -- -- -- -- --
0000: 00                                                .               
```

#### Opcodes

```
  0: 0x0000 [0x00] END_REQSTACK()
```

### Event 205

#### Metadata

| Field        | Value    |
|--------------|----------|
| Entrypoint   | 0x0001   |
| Data Size    | 12 bytes |
| Instructions | 3        |

```
      00 01 02 03 04 05 06 07  08 09 0A 0B 0C 0D 0E 0F
      -- -- -- -- -- -- -- --  -- -- -- -- -- -- -- --
0000:    33 01 37 00 80 01 80  02 80 03 80 00            3.7.........   
```

#### Opcodes

```
  0: 0x0001 [0x33] EventEntity->Render.Flags0 |= 0x200000 // Bit 21 (flag=0x01)
  1: 0x0003 [0x37] UPDATE_EVENT_POSITION_AND_DIR: x=-180.642*, z=248.591*, y=5.647*, direction=327.6°*
  2: 0x000C [0x00] END_REQSTACK()
```

### Event 65535.1

#### Metadata

| Field        | Value    |
|--------------|----------|
| Entrypoint   | 0x000D   |
| Data Size    | 24 bytes |
| Instructions | 6        |

```
      00 01 02 03 04 05 06 07  08 09 0A 0B 0C 0D 0E 0F
      -- -- -- -- -- -- -- --  -- -- -- -- -- -- -- --
0000:                                         32 04 80               2..
0010: 5A 00 05 80 01 80 06 80  5A 01 5A 00 07 80 08 80  Z.......Z.Z.....
0020: 09 80 5A 01 00                                    ..Z..           
```

#### Opcodes

```
  0: 0x000D [0x32] ExtData[1]->MainSpeed = 6* * 0.1
  1: 0x0010 [0x5A] UPDATE_EVENT_POSITION: Set EventEntity MovePosition to X=-179.642*, Z=248.591*, Y=5.897*
  2: 0x0018 [0x5A] UPDATE_EVENT_POSITION: Move EventEntity incrementally towards MovePosition
  3: 0x001A [0x5A] UPDATE_EVENT_POSITION: Set EventEntity MovePosition to X=-178.642*, Z=248.791*, Y=6.147*
  4: 0x0022 [0x5A] UPDATE_EVENT_POSITION: Move EventEntity incrementally towards MovePosition
  5: 0x0024 [0x00] END_REQSTACK()
```

### Event 207

#### Metadata

| Field        | Value    |
|--------------|----------|
| Entrypoint   | 0x0025   |
| Data Size    | 12 bytes |
| Instructions | 3        |

```
      00 01 02 03 04 05 06 07  08 09 0A 0B 0C 0D 0E 0F
      -- -- -- -- -- -- -- --  -- -- -- -- -- -- -- --
0020:                33 01 37  00 80 01 80 02 80 03 80       3.7........
0030: 00                                                .               
```

#### Opcodes

```
  0: 0x0025 [0x33] EventEntity->Render.Flags0 |= 0x200000 // Bit 21 (flag=0x01)
  1: 0x0027 [0x37] UPDATE_EVENT_POSITION_AND_DIR: x=-180.642*, z=248.591*, y=5.647*, direction=327.6°*
  2: 0x0030 [0x00] END_REQSTACK()
```

### Event 208

#### Metadata

| Field        | Value   |
|--------------|---------|
| Entrypoint   | 0x0031  |
| Data Size    | 1 bytes |
| Instructions | 1       |

```
      00 01 02 03 04 05 06 07  08 09 0A 0B 0C 0D 0E 0F
      -- -- -- -- -- -- -- --  -- -- -- -- -- -- -- --
0030:    00                                              .              
```

#### Opcodes

```
  0: 0x0031 [0x00] END_REQSTACK()
```

### Event 65535.2

#### Metadata

| Field        | Value    |
|--------------|----------|
| Entrypoint   | 0x0032   |
| Data Size    | 16 bytes |
| Instructions | 2        |

```
      00 01 02 03 04 05 06 07  08 09 0A 0B 0C 0D 0E 0F
      -- -- -- -- -- -- -- --  -- -- -- -- -- -- -- --
0030:       5B 0A 80 F8 FF FF  7F F8 FF FF 7F 70 6F 70    [..........pop
0040: 66 00                                             f.              
```

#### Opcodes

```
  0: 0x0032 [0x5B] LOAD_EXT_SCHEDULER: Load scheduler "popf" with entities [EventEntity, EventEntity], work=408*
  1: 0x0041 [0x00] END_REQSTACK()
```

### Event 65535.3

#### Metadata

| Field        | Value    |
|--------------|----------|
| Entrypoint   | 0x0042   |
| Data Size    | 16 bytes |
| Instructions | 2        |

```
      00 01 02 03 04 05 06 07  08 09 0A 0B 0C 0D 0E 0F
      -- -- -- -- -- -- -- --  -- -- -- -- -- -- -- --
0040:       5B 0A 80 F8 FF FF  7F F8 FF FF 7F 70 6F 70    [..........pop
0050: 30 00                                             0.              
```

#### Opcodes

```
  0: 0x0042 [0x5B] LOAD_EXT_SCHEDULER: Load scheduler "pop0" with entities [EventEntity, EventEntity], work=408*
  1: 0x0051 [0x00] END_REQSTACK()
```

### Event 65535.4

#### Metadata

| Field        | Value    |
|--------------|----------|
| Entrypoint   | 0x0052   |
| Data Size    | 14 bytes |
| Instructions | 2        |

```
      00 01 02 03 04 05 06 07  08 09 0A 0B 0C 0D 0E 0F
      -- -- -- -- -- -- -- --  -- -- -- -- -- -- -- --
0050:       53 F8 FF FF 7F F8  FF FF 7F 70 6F 70 30 00    S........pop0.
```

#### Opcodes

```
  0: 0x0052 [0x53] WAIT_SCHEDULER_TASK: Wait for scheduler "pop0" with entities [EventEntity, EventEntity]
  1: 0x005F [0x00] END_REQSTACK()
```

### Event 123

#### Metadata

| Field        | Value     |
|--------------|-----------|
| Entrypoint   | 0x0060    |
| Data Size    | 712 bytes |
| Instructions | 42        |

```
      00 01 02 03 04 05 06 07  08 09 0A 0B 0C 0D 0E 0F
      -- -- -- -- -- -- -- --  -- -- -- -- -- -- -- --
0060: 46 01 42 43 00 43 01 02  04 10 0B 80 00 8F 00 4E  F.BC.C.........N
0070: 00 F0 FF FF 7F 46 00 45  0C 80 F8 FF FF 7F F8 FF  .....F.E........
0080: FF 7F 66 64 69 31 0D 80  20 00 21 00 01 24 03 1C  ..fdi1.. .!..$..
0090: 0C 80 38 0E 80 4E 00 84  62 06 01 80 84 62 06 01  ..8..N..b....b..
00A0: 6C 84 62 06 01 0D 80 0F  80 1C 0F 80 1C 0C 80 4E  l.b............N
00B0: 01 F0 FF FF 7F 92 01 F8  FF FF 7F 4E 00 83 62 06  ...........N..b.
00C0: 01 80 83 62 06 01 4E 01  84 62 06 01 45 10 80 F8  ...b..N..b..E...
00D0: FF FF 7F F8 FF FF 7F 73  30 30 36 0D 80 45 0C 80  .......s006..E..
00E0: F8 FF FF 7F F8 FF FF 7F  66 64 69 31 0D 80 02 04  ........fdi1....
00F0: 10 0D 80 80 0A 01 62 11  80 83 62 06 01 83 62 06  ......b...b...b.
0100: 01 6D 61 69 6E 0D 80 01  5A 02 02 04 10 12 80 80  .main...Z.......
0110: 26 01 62 13 80 83 62 06  01 83 62 06 01 6D 61 69  &.b...b...b..mai
0120: 6E 0D 80 01 5A 02 02 04  10 14 80 80 42 01 62 13  n...Z.......B.b.
0130: 80 83 62 06 01 83 62 06  01 6D 61 69 6E 0D 80 01  ..b...b..main...
0140: 5A 02 02 04 10 04 80 80  5E 01 62 15 80 83 62 06  Z.......^.b...b.
0150: 01 83 62 06 01 6D 61 69  6E 0D 80 01 5A 02 02 04  ..b..main...Z...
0160: 10 16 80 80 7A 01 62 15  80 83 62 06 01 83 62 06  ....z.b...b...b.
0170: 01 6D 61 69 6E 0D 80 01  5A 02 02 04 10 17 80 80  .main...Z.......
0180: 96 01 62 18 80 83 62 06  01 83 62 06 01 6D 61 69  ..b...b...b..mai
0190: 6E 0D 80 01 5A 02 02 04  10 19 80 80 B2 01 62 18  n...Z.........b.
01A0: 80 83 62 06 01 83 62 06  01 6D 61 69 6E 0D 80 01  ..b...b..main...
01B0: 5A 02 02 04 10 1A 80 80  CE 01 62 1B 80 83 62 06  Z.........b...b.
01C0: 01 83 62 06 01 6D 61 69  6E 0D 80 01 5A 02 02 04  ..b..main...Z...
01D0: 10 1C 80 80 EA 01 62 1B  80 83 62 06 01 83 62 06  ......b...b...b.
01E0: 01 6D 61 69 6E 0D 80 01  5A 02 02 04 10 1D 80 80  .main...Z.......
01F0: 06 02 62 1E 80 83 62 06  01 83 62 06 01 6D 61 69  ..b...b...b..mai
0200: 6E 0D 80 01 5A 02 02 04  10 1F 80 80 22 02 62 1E  n...Z.......".b.
0210: 80 83 62 06 01 83 62 06  01 6D 61 69 6E 0D 80 01  ..b...b..main...
0220: 5A 02 02 04 10 20 80 80  3E 02 62 21 80 83 62 06  Z.... ..>.b!..b.
0230: 01 83 62 06 01 6D 61 69  6E 0D 80 01 5A 02 02 04  ..b..main...Z...
0240: 10 22 80 80 5A 02 62 21  80 83 62 06 01 83 62 06  ."..Z.b!..b...b.
0250: 01 6D 61 69 6E 0D 80 01  5A 02 48 23 80 23 45 24  .main...Z.H#.#E$
0260: 80 F8 FF FF 7F F8 FF FF  7F 77 68 6F 31 0D 80 1C  .........who1...
0270: 0C 80 02 05 10 04 80 00  FC 02 62 25 80 83 62 06  ..........b%..b.
0280: 01 83 62 06 01 6D 61 69  6E 0D 80 45 10 80 84 62  ..b..main..E...b
0290: 06 01 84 62 06 01 73 30  30 36 0D 80 45 24 80 F8  ...b..s006..E$..
02A0: FF FF 7F F8 FF FF 7F 77  68 69 31 0D 80 6C 84 62  .......whi1..l.b
02B0: 06 01 0D 80 0F 80 1C 0F  80 4E 00 84 62 06 01 1C  .........N..b...
02C0: 26 80 6C 84 62 06 01 0B  80 27 80 1C 28 80 48 29  &.l.b....'..(.H)
02D0: 80 23 1C 28 80 6C 84 62  06 01 0D 80 0B 80 1C 0B  .#.(.l.b........
02E0: 80 48 2A 80 23 45 24 80  F8 FF FF 7F F8 FF FF 7F  .H*.#E$.........
02F0: 77 68 6F 31 0D 80 1C 0C  80 01 FC 02 4E 00 F0 FF  who1........N...
0300: FF 7F 52 10 80 F8 FF FF  7F F8 FF FF 7F 73 30 30  ..R..........s00
0310: 36 46 00 45 24 80 F8 FF  FF 7F F8 FF FF 7F 77 68  6F.E$.........wh
0320: 69 31 0D 80 20 00 21 00                           i1.. .!.        
```

#### Opcodes

```
  0: 0x0060 [0x46] CAMERA_CONTROL: Disable user control
  1: 0x0062 [0x42] SET_CLI_EVENT_CANCEL_DATA()
  2: 0x0063 [0x43] SEND_EVENT_UPDATE: Send pending tag to server (packet 0x005B)
  3: 0x0065 [0x43] SEND_EVENT_UPDATE: Check pending flag (skip if not pending)
  4: 0x0067 [0x02] IF !(Work_Zone[4] == 100*) GOTO 0x008F
  5: 0x006F [0x4E] SET_ENTITY_HIDE_FLAG: Show LocalPlayer
  6: 0x0075 [0x46] CAMERA_CONTROL: Restore default settings
  7: 0x0077 [0x45] LOAD_SCHEDULED_TASK: Load scheduler "fdi1" with entities [EventEntity, EventEntity], work=[200*, 0*]
  8: 0x0088 [0x20] SET_CLI_EVENT_UC_FLAG: Unlock player control
  9: 0x008A [0x21] END_EVENT
 10: 0x008B [0x00] END_REQSTACK()

SUBROUTINE_025A:
 11: 0x025A [0x48] [System] [7575*]:
    → "The [orange/1/2/3/red/red/blue/blue/yellow/yellow/green/green/indigo/indigo/violet/violet] light... I can feel its power run through me."
 12: 0x025D [0x23] WAIT_FOR_DIALOG_INTERACTION
 13: 0x025E [0x45] LOAD_SCHEDULED_TASK: Load scheduler "who1" with entities [EventEntity, EventEntity], work=[201*, 0*]
 14: 0x026F [0x1C] WAIT(200* ticks)
 15: 0x0272 [0x02] IF !(Work_Zone[5] == 6*) GOTO 0x02FC
 16: 0x027A [0x62] LOAD_EVENT_SCHEDULER: Load scheduler "main" with entities [EFFECTER (ID: 17195651/0x01066283), EFFECTER (ID: 17195651/0x01066283)], work=[42*, 0*]
 17: 0x028B [0x45] LOAD_SCHEDULED_TASK: Load scheduler "s006" with entities [Carbuncle (ID: 17195652/0x01066284), Carbuncle (ID: 17195652/0x01066284)], work=[213*, 0*]
 18: 0x029C [0x45] LOAD_SCHEDULED_TASK: Load scheduler "whi1" with entities [EventEntity, EventEntity], work=[201*, 0*]
 19: 0x02AD [0x6C] FADE_ENTITY_COLOR(entity_id=Carbuncle (ID: 17195652/0x01066284), end_alpha=0*, fade_time=1*)
 20: 0x02B6 [0x1C] WAIT(1* ticks)
 21: 0x02B9 [0x4E] SET_ENTITY_HIDE_FLAG: Show Carbuncle (ID: 17195652/0x01066284)
 22: 0x02BF [0x1C] WAIT(60* ticks)
 23: 0x02C2 [0x6C] FADE_ENTITY_COLOR(entity_id=Carbuncle (ID: 17195652/0x01066284), end_alpha=100*, fade_time=72*)
 24: 0x02CB [0x1C] WAIT(50* ticks)
 25: 0x02CE [0x48] [System] [7576*]:
    → "Come, <Player>. Follow me..."
 26: 0x02D1 [0x23] WAIT_FOR_DIALOG_INTERACTION
 27: 0x02D2 [0x1C] WAIT(50* ticks)
 28: 0x02D5 [0x6C] FADE_ENTITY_COLOR(entity_id=Carbuncle (ID: 17195652/0x01066284), end_alpha=0*, fade_time=100*)
 29: 0x02DE [0x1C] WAIT(100* ticks)
 30: 0x02E1 [0x48] [System] [7578*]:
    → "Carbuncle vanished off to another area in the La Theine Plateau."
 31: 0x02E4 [0x23] WAIT_FOR_DIALOG_INTERACTION
 32: 0x02E5 [0x45] LOAD_SCHEDULED_TASK: Load scheduler "who1" with entities [EventEntity, EventEntity], work=[201*, 0*]
 33: 0x02F6 [0x1C] WAIT(200* ticks)
 34: 0x02F9 [0x01] GOTO 0x02FC

SUBROUTINE_02FC:
 35: 0x02FC [0x4E] SET_ENTITY_HIDE_FLAG: Show LocalPlayer
 36: 0x0302 [0x52] END_LOAD_SCHEDULER: End scheduler "s006" with entities [EventEntity, EventEntity], work=213*
 37: 0x0311 [0x46] CAMERA_CONTROL: Restore default settings
 38: 0x0313 [0x45] LOAD_SCHEDULED_TASK: Load scheduler "whi1" with entities [EventEntity, EventEntity], work=[201*, 0*]

SUBROUTINE_0324:
 39: 0x0324 [0x20] SET_CLI_EVENT_UC_FLAG: Unlock player control
 40: 0x0326 [0x21] END_EVENT
 41: 0x0327 [0x00] END_REQSTACK()
```

#### Data or dead code:

```
# Dead code (unreachable instructions):
     0x008C [0x01] GOTO 0x0324
```

### Event 65535.5

#### Metadata

| Field        | Value   |
|--------------|---------|
| Entrypoint   | 0x0328  |
| Data Size    | 7 bytes |
| Instructions | 2       |

```
      00 01 02 03 04 05 06 07  08 09 0A 0B 0C 0D 0E 0F
      -- -- -- -- -- -- -- --  -- -- -- -- -- -- -- --
0320:                          92 01 F8 FF FF 7F 00             ....... 
```

#### Opcodes

```
  0: 0x0328 [0x92] EventEntity->Render.Flags3 ^= 0x01
  1: 0x032E [0x00] END_REQSTACK()
```

### Event 65535.6

#### Metadata

| Field        | Value    |
|--------------|----------|
| Entrypoint   | 0x032F   |
| Data Size    | 14 bytes |
| Instructions | 4        |

```
      00 01 02 03 04 05 06 07  08 09 0A 0B 0C 0D 0E 0F
      -- -- -- -- -- -- -- --  -- -- -- -- -- -- -- --
0320:                                               32                 2
0330: 18 80 1F 00 0D 80 0D 80  2B 80 1F 01 00           ........+....   
```

#### Opcodes

```
  0: 0x032F [0x32] ExtData[1]->MainSpeed = 40* * 0.1
  1: 0x0332 [0x1F] MOVE_ENTITY: EventEntity moves to X=0.000*, Z=0.000*, Y=-58.655*
  2: 0x033A [0x1F] MOVE_ENTITY: Update entity position (mode=1)
  3: 0x033C [0x00] END_REQSTACK()
```

### Event 124

#### Metadata

| Field        | Value   |
|--------------|---------|
| Entrypoint   | 0x033D  |
| Data Size    | 7 bytes |
| Instructions | 2       |

```
      00 01 02 03 04 05 06 07  08 09 0A 0B 0C 0D 0E 0F
      -- -- -- -- -- -- -- --  -- -- -- -- -- -- -- --
0330:                                         92 01 F8               ...
0340: FF FF 7F 00                                       ....            
```

#### Opcodes

```
  0: 0x033D [0x92] EventEntity->Render.Flags3 ^= 0x01
  1: 0x0343 [0x00] END_REQSTACK()
```

### Event 65535.7

#### Metadata

| Field        | Value    |
|--------------|----------|
| Entrypoint   | 0x0344   |
| Data Size    | 10 bytes |
| Instructions | 2        |

```
      00 01 02 03 04 05 06 07  08 09 0A 0B 0C 0D 0E 0F
      -- -- -- -- -- -- -- --  -- -- -- -- -- -- -- --
0340:             37 2C 80 2D  80 2E 80 2F 80 00            7,.-.../..  
```

#### Opcodes

```
  0: 0x0344 [0x37] UPDATE_EVENT_POSITION_AND_DIR: x=-171.930*, z=244.261*, y=-81.228*, direction=68.4°*
  1: 0x034D [0x00] END_REQSTACK()
```

### Event 65535.8

#### Metadata

| Field        | Value    |
|--------------|----------|
| Entrypoint   | 0x034E   |
| Data Size    | 10 bytes |
| Instructions | 2        |

```
      00 01 02 03 04 05 06 07  08 09 0A 0B 0C 0D 0E 0F
      -- -- -- -- -- -- -- --  -- -- -- -- -- -- -- --
0340:                                            37 30                70
0350: 80 31 80 32 80 33 80 00                           .1.2.3..        
```

#### Opcodes

```
  0: 0x034E [0x37] UPDATE_EVENT_POSITION_AND_DIR: x=-178.789*, z=256.278*, y=-5.711*, direction=64.9°*
  1: 0x0357 [0x00] END_REQSTACK()
```

### Event 65535.9

#### Metadata

| Field        | Value   |
|--------------|---------|
| Entrypoint   | 0x0358  |
| Data Size    | 8 bytes |
| Instructions | 2       |

```
      00 01 02 03 04 05 06 07  08 09 0A 0B 0C 0D 0E 0F
      -- -- -- -- -- -- -- --  -- -- -- -- -- -- -- --
0350:                          36 34 80 35 80 36 80 00          64.5.6..
```

#### Opcodes

```
  0: 0x0358 [0x36] SET_ENTITY_EVENT_POSITION(pos_x=-180.417*, pos_z=260.569*, pos_y=6.700*)
  1: 0x035F [0x00] END_REQSTACK()
```

### Event 65535.10

#### Metadata

| Field        | Value    |
|--------------|----------|
| Entrypoint   | 0x0360   |
| Data Size    | 43 bytes |
| Instructions | 8        |

```
      00 01 02 03 04 05 06 07  08 09 0A 0B 0C 0D 0E 0F
      -- -- -- -- -- -- -- --  -- -- -- -- -- -- -- --
0360: 03 01 00 37 80 37 2C 80  2D 80 37 80 38 80 02 01  ...7.7,.-.7.8...
0370: 00 39 80 03 8A 03 37 2C  80 2D 80 01 00 38 80 1C  .9....7,.-...8..
0380: 3A 80 07 01 00 3B 80 01  6E 03 00                 :....;..n..     
```

#### Opcodes

```
  0: 0x0360 [0x03] ExtData[1]->WorkLocal[1] = 4294946068*
  1: 0x0365 [0x37] UPDATE_EVENT_POSITION_AND_DIR: x=-171.930*, z=244.261*, y=-21.228*, direction=246.1°*
  2: 0x036E [0x02] IF !(ExtData[1]->WorkLocal[1] >= 4294954296*) GOTO 0x038A
  3: 0x0376 [0x37] UPDATE_EVENT_POSITION_AND_DIR: x=-171.930*, z=244.261*, y=ExtData[1]->WorkLocal[1], direction=246.1°*
  4: 0x037F [0x1C] WAIT(2* ticks)
  5: 0x0382 [0x07] ExtData[1]->WorkLocal[1] += 90*
  6: 0x0387 [0x01] GOTO 0x036E
  7: 0x038A [0x00] END_REQSTACK()
```

### Event 65535.11

#### Metadata

| Field        | Value    |
|--------------|----------|
| Entrypoint   | 0x038B   |
| Data Size    | 46 bytes |
| Instructions | 9        |

```
      00 01 02 03 04 05 06 07  08 09 0A 0B 0C 0D 0E 0F
      -- -- -- -- -- -- -- --  -- -- -- -- -- -- -- --
0380:                                   37 34 80 35 80             74.5.
0390: 3C 80 3D 80 03 01 00 3C  80 02 01 00 3E 80 03 B8  <.=....<....>...
03A0: 03 36 34 80 35 80 01 00  1C 3A 80 07 01 00 3F 80  .64.5....:....?.
03B0: 1E F0 FF FF 7F 01 99 03  00                       .........       
```

#### Opcodes

```
  0: 0x038B [0x37] UPDATE_EVENT_POSITION_AND_DIR: x=-180.417*, z=260.569*, y=-3.228*, direction=59.1°*
  1: 0x0394 [0x03] ExtData[1]->WorkLocal[1] = 4294964068*
  2: 0x0399 [0x02] IF !(ExtData[1]->WorkLocal[1] >= 1500*) GOTO 0x03B8
  3: 0x03A1 [0x36] SET_ENTITY_EVENT_POSITION(pos_x=-180.417*, pos_z=260.569*, pos_y=ExtData[1]->WorkLocal[1])
  4: 0x03A8 [0x1C] WAIT(2* ticks)
  5: 0x03AB [0x07] ExtData[1]->WorkLocal[1] += 80*
  6: 0x03B0 [0x1E] EventEntity looks at LocalPlayer and starts talking
  7: 0x03B5 [0x01] GOTO 0x0399
  8: 0x03B8 [0x00] END_REQSTACK()
```

### Event 65535.12

#### Metadata

| Field        | Value    |
|--------------|----------|
| Entrypoint   | 0x03B9   |
| Data Size    | 37 bytes |
| Instructions | 8        |

```
      00 01 02 03 04 05 06 07  08 09 0A 0B 0C 0D 0E 0F
      -- -- -- -- -- -- -- --  -- -- -- -- -- -- -- --
03B0:                             03 01 00 40 80 02 01           ...@...
03C0: 00 41 80 03 DD 03 36 34  80 35 80 01 00 1C 3A 80  .A....64.5....:.
03D0: 07 01 00 1A 80 1E F0 FF  FF 7F 01 BE 03 00        ..............  
```

#### Opcodes

```
  0: 0x03B9 [0x03] ExtData[1]->WorkLocal[1] = 2500*
  1: 0x03BE [0x02] IF !(ExtData[1]->WorkLocal[1] >= 3200*) GOTO 0x03DD
  2: 0x03C6 [0x36] SET_ENTITY_EVENT_POSITION(pos_x=-180.417*, pos_z=260.569*, pos_y=ExtData[1]->WorkLocal[1])
  3: 0x03CD [0x1C] WAIT(2* ticks)
  4: 0x03D0 [0x07] ExtData[1]->WorkLocal[1] += 10*
  5: 0x03D5 [0x1E] EventEntity looks at LocalPlayer and starts talking
  6: 0x03DA [0x01] GOTO 0x03BE
  7: 0x03DD [0x00] END_REQSTACK()
```

### Event 65535.13

#### Metadata

| Field        | Value    |
|--------------|----------|
| Entrypoint   | 0x03DE   |
| Data Size    | 48 bytes |
| Instructions | 9        |

```
      00 01 02 03 04 05 06 07  08 09 0A 0B 0C 0D 0E 0F
      -- -- -- -- -- -- -- --  -- -- -- -- -- -- -- --
03D0:                                            79 00                y.
03E0: 84 62 06 01 F0 FF FF 7F  37 42 80 43 80 44 80 45  .b......7B.C.D.E
03F0: 80 32 18 80 1F 00 46 80  47 80 48 80 1F 01 1F 00  .2....F.G.H.....
0400: 49 80 4A 80 4B 80 1F 01  1E F0 FF FF 7F 00        I.J.K.........  
```

#### Opcodes

```
  0: 0x03DE [0x79] Carbuncle (ID: 17195652/0x01066284) looks at LocalPlayer (Basic look)
  1: 0x03E8 [0x37] UPDATE_EVENT_POSITION_AND_DIR: x=-179.164*, z=254.423*, y=7.847*, direction=228.2°*
  2: 0x03F1 [0x32] ExtData[1]->MainSpeed = 40* * 0.1
  3: 0x03F4 [0x1F] MOVE_ENTITY: EventEntity moves to X=-177.504*, Z=253.563*, Y=7.887*
  4: 0x03FC [0x1F] MOVE_ENTITY: Update entity position (mode=1)
  5: 0x03FE [0x1F] MOVE_ENTITY: EventEntity moves to X=-176.067*, Z=253.840*, Y=7.876*
  6: 0x0406 [0x1F] MOVE_ENTITY: Update entity position (mode=1)
  7: 0x0408 [0x1E] EventEntity looks at LocalPlayer and starts talking
  8: 0x040D [0x00] END_REQSTACK()
```

### Event 65535.14

#### Metadata

| Field        | Value    |
|--------------|----------|
| Entrypoint   | 0x040E   |
| Data Size    | 19 bytes |
| Instructions | 5        |

```
      00 01 02 03 04 05 06 07  08 09 0A 0B 0C 0D 0E 0F
      -- -- -- -- -- -- -- --  -- -- -- -- -- -- -- --
0400:                                            03 01                ..
0410: 00 4C 80 32 18 80 1F 00  4D 80 4E 80 4F 80 1F 01  .L.2....M.N.O...
0420: 00                                                .               
```

#### Opcodes

```
  0: 0x040E [0x03] ExtData[1]->WorkLocal[1] = 5876*
  1: 0x0413 [0x32] ExtData[1]->MainSpeed = 40* * 0.1
  2: 0x0416 [0x1F] MOVE_ENTITY: EventEntity moves to X=-174.411*, Z=249.781*, Y=-10.000*
  3: 0x041E [0x1F] MOVE_ENTITY: Update entity position (mode=1)
  4: 0x0420 [0x00] END_REQSTACK()
```

### Event 65535.15

#### Metadata

| Field        | Value    |
|--------------|----------|
| Entrypoint   | 0x0421   |
| Data Size    | 23 bytes |
| Instructions | 5        |

```
      00 01 02 03 04 05 06 07  08 09 0A 0B 0C 0D 0E 0F
      -- -- -- -- -- -- -- --  -- -- -- -- -- -- -- --
0420:    37 50 80 51 80 52 80  53 80 32 18 80 1F 00 54   7P.Q.R.S.2....T
0430: 80 55 80 52 80 1F 01 00                           .U.R....        
```

#### Opcodes

```
  0: 0x0421 [0x37] UPDATE_EVENT_POSITION_AND_DIR: x=187.376*, z=11.765*, y=14.252*, direction=340.0°*
  1: 0x042A [0x32] ExtData[1]->MainSpeed = 40* * 0.1
  2: 0x042D [0x1F] MOVE_ENTITY: EventEntity moves to X=412.261*, Z=93.434*, Y=14.252*
  3: 0x0435 [0x1F] MOVE_ENTITY: Update entity position (mode=1)
  4: 0x0437 [0x00] END_REQSTACK()
```

### Event 65535.16

#### Metadata

| Field        | Value   |
|--------------|---------|
| Entrypoint   | 0x0438  |
| Data Size    | 5 bytes |
| Instructions | 3       |

```
      00 01 02 03 04 05 06 07  08 09 0A 0B 0C 0D 0E 0F
      -- -- -- -- -- -- -- --  -- -- -- -- -- -- -- --
0430:                          1D 56 80 23 00                   .V.#.   
```

#### Opcodes

```
  0: 0x0438 [0x1D] PRINT_EVENT_MESSAGE(message_id=7589*)
    → "Thank you, <Player>. My name is Carbuncle. I am one of several new forces here in Vana'diel."
  1: 0x043B [0x23] WAIT_FOR_DIALOG_INTERACTION
  2: 0x043C [0x00] END_REQSTACK()
```

### Event 65535.17

#### Metadata

| Field        | Value   |
|--------------|---------|
| Entrypoint   | 0x043D  |
| Data Size    | 5 bytes |
| Instructions | 3       |

```
      00 01 02 03 04 05 06 07  08 09 0A 0B 0C 0D 0E 0F
      -- -- -- -- -- -- -- --  -- -- -- -- -- -- -- --
0430:                                         1D 57 80               .W.
0440: 23 00                                             #.              
```

#### Opcodes

```
  0: 0x043D [0x1D] PRINT_EVENT_MESSAGE(message_id=7590*)
    → "I became a crystal, was divided into shards, and fell into the hands of beasts and people alike...as the world changed around me."
  1: 0x0440 [0x23] WAIT_FOR_DIALOG_INTERACTION
  2: 0x0441 [0x00] END_REQSTACK()
```

### Event 65535.18

#### Metadata

| Field        | Value   |
|--------------|---------|
| Entrypoint   | 0x0442  |
| Data Size    | 5 bytes |
| Instructions | 3       |

```
      00 01 02 03 04 05 06 07  08 09 0A 0B 0C 0D 0E 0F
      -- -- -- -- -- -- -- --  -- -- -- -- -- -- -- --
0440:       1D 58 80 23 00                                .X.#.         
```

#### Opcodes

```
  0: 0x0442 [0x1D] PRINT_EVENT_MESSAGE(message_id=7591*)
    → "And then, I knew. I knew that you needed me."
  1: 0x0445 [0x23] WAIT_FOR_DIALOG_INTERACTION
  2: 0x0446 [0x00] END_REQSTACK()
```

### Event 65535.19

#### Metadata

| Field        | Value   |
|--------------|---------|
| Entrypoint   | 0x0447  |
| Data Size    | 5 bytes |
| Instructions | 3       |

```
      00 01 02 03 04 05 06 07  08 09 0A 0B 0C 0D 0E 0F
      -- -- -- -- -- -- -- --  -- -- -- -- -- -- -- --
0440:                      1D  59 80 23 00                     .Y.#.    
```

#### Opcodes

```
  0: 0x0447 [0x1D] PRINT_EVENT_MESSAGE(message_id=7592*)
    → "That's why I'll lend you a little of my power. I'll fight by your side, and watch over you always."
  1: 0x044A [0x23] WAIT_FOR_DIALOG_INTERACTION
  2: 0x044B [0x00] END_REQSTACK()
```

### Event 65535.20

#### Metadata

| Field        | Value   |
|--------------|---------|
| Entrypoint   | 0x044C  |
| Data Size    | 5 bytes |
| Instructions | 3       |

```
      00 01 02 03 04 05 06 07  08 09 0A 0B 0C 0D 0E 0F
      -- -- -- -- -- -- -- --  -- -- -- -- -- -- -- --
0440:                                      1D 5A 80 23              .Z.#
0450: 00                                                .               
```

#### Opcodes

```
  0: 0x044C [0x1D] PRINT_EVENT_MESSAGE(message_id=7593*)
    → "I demand you perform a labor: visit the ancient beings that sleep in faraway lands and places of legend."
  1: 0x044F [0x23] WAIT_FOR_DIALOG_INTERACTION
  2: 0x0450 [0x00] END_REQSTACK()
```

### Event 65535.21

#### Metadata

| Field        | Value   |
|--------------|---------|
| Entrypoint   | 0x0451  |
| Data Size    | 5 bytes |
| Instructions | 3       |

```
      00 01 02 03 04 05 06 07  08 09 0A 0B 0C 0D 0E 0F
      -- -- -- -- -- -- -- --  -- -- -- -- -- -- -- --
0450:    1D 5B 80 23 00                                  .[.#.          
```

#### Opcodes

```
  0: 0x0451 [0x1D] PRINT_EVENT_MESSAGE(message_id=7594*)
    → "Vana'diel is the world in which you live. You should see the true Vana'diel with your own eyes."
  1: 0x0454 [0x23] WAIT_FOR_DIALOG_INTERACTION
  2: 0x0455 [0x00] END_REQSTACK()
```

### Event 65535.22

#### Metadata

| Field        | Value   |
|--------------|---------|
| Entrypoint   | 0x0456  |
| Data Size    | 5 bytes |
| Instructions | 3       |

```
      00 01 02 03 04 05 06 07  08 09 0A 0B 0C 0D 0E 0F
      -- -- -- -- -- -- -- --  -- -- -- -- -- -- -- --
0450:                   1D 5C  80 23 00                       .\.#.     
```

#### Opcodes

```
  0: 0x0456 [0x1D] PRINT_EVENT_MESSAGE(message_id=7595*)
    → "I will extend a bridge. A bridge between the people of the present, and beings of ages past."
  1: 0x0459 [0x23] WAIT_FOR_DIALOG_INTERACTION
  2: 0x045A [0x00] END_REQSTACK()
```
