# 17195717

## Common Data

| Field            | Value                       |
|------------------|-----------------------------|
| Zone             | La Theine Plateau (ID: 102) |
| Block Size       | 8424 bytes                  |
| Total Events     | 5                           |
| References Count | 201                         |

## List of Events

| Event ID              | Entrypoint   |   Size |   Instructions |
|-----------------------|--------------|--------|----------------|
| [65535](#event-65535) | 0x0000       |      1 |              1 |
| [9](#event-9)         | 0x0001       |   2612 |            320 |
| [10](#event-10)       | 0x0A35       |    895 |            123 |
| [11](#event-11)       | 0x0DB4       |   1883 |            244 |
| [12](#event-12)       | 0x150F       |   2190 |            266 |

## DAT References (imed_data)

|   Index | Hex Value   |   Dec Value |
|---------|-------------|-------------|
|       0 | 0x0013      |          19 |
|       1 | 0xFFF76C08  |  4294405128 |
|       2 | 0x9CB29     |      641833 |
|       3 | 0x0000      |           0 |
|       4 | 0x01F2      |         498 |
|       5 | 0xFFF76CA8  |  4294405288 |
|       6 | 0x9BCCF     |      638159 |
|       7 | 0x0B85      |        2949 |
|       8 | 0xFFF76C5F  |  4294405215 |
|       9 | 0x9BEBD     |      638653 |
|      10 | 0x01F1      |         497 |
|      11 | 0xFFF76395  |  4294402965 |
|      12 | 0x9D272     |      643698 |
|      13 | 0xFFFF9E68  |  4294942312 |
|      14 | 0x09E6      |        2534 |
|      15 | 0x001E      |          30 |
|      16 | 0x001D      |          29 |
|      17 | 0x01E8      |         488 |
|      18 | 0x0078      |         120 |
|      19 | 0x0033      |          51 |
|      20 | 0x0050      |          80 |
|      21 | 0x003C      |          60 |
|      22 | 0x2C4A      |       11338 |
|      23 | 0x2C4B      |       11339 |
|      24 | 0x2C4C      |       11340 |
|      25 | 0x0001      |           1 |
|      26 | 0x0002      |           2 |
|      27 | 0x0003      |           3 |
|      28 | 0x0004      |           4 |
|      29 | 0x0005      |           5 |
|      30 | 0x0006      |           6 |
|      31 | 0x0007      |           7 |
|      32 | 0x0008      |           8 |
|      33 | 0x2C4D      |       11341 |
|      34 | 0x005A      |          90 |
|      35 | 0x0023      |          35 |
|      36 | 0x2C4E      |       11342 |
|      37 | 0x2C4F      |       11343 |
|      38 | 0x0BD9      |        3033 |
|      39 | 0x2C50      |       11344 |
|      40 | 0x2C51      |       11345 |
|      41 | 0x2C52      |       11346 |
|      42 | 0x0020      |          32 |
|      43 | 0x2C53      |       11347 |
|      44 | 0x2C54      |       11348 |
|      45 | 0x2C55      |       11349 |
|      46 | 0x2C56      |       11350 |
|      47 | 0x2C57      |       11351 |
|      48 | 0x002C      |          44 |
|      49 | 0x2C58      |       11352 |
|      50 | 0x2C59      |       11353 |
|      51 | 0x2C5A      |       11354 |
|      52 | 0x2C5B      |       11355 |
|      53 | 0x2C5C      |       11356 |
|      54 | 0x2C5D      |       11357 |
|      55 | 0x08CD      |        2253 |
|      56 | 0x2C5E      |       11358 |
|      57 | 0x2C5F      |       11359 |
|      58 | 0x2C60      |       11360 |
|      59 | 0x0015      |          21 |
|      60 | 0x04F7      |        1271 |
|      61 | 0x2C61      |       11361 |
|      62 | 0x002D      |          45 |
|      63 | 0x2C62      |       11362 |
|      64 | 0x2C63      |       11363 |
|      65 | 0x2C64      |       11364 |
|      66 | 0x2C65      |       11365 |
|      67 | 0x009D      |         157 |
|      68 | 0x00D5      |         213 |
|      69 | 0x2C66      |       11366 |
|      70 | 0x00FF      |         255 |
|      71 | 0x2C67      |       11367 |
|      72 | 0x2C68      |       11368 |
|      73 | 0x2C69      |       11369 |
|      74 | 0x012C      |         300 |
|      75 | 0xFFF76F64  |  4294405988 |
|      76 | 0x9C231     |      639537 |
|      77 | 0xFFFFF831  |  4294965297 |
|      78 | 0x03E3      |         995 |
|      79 | 0x2C6A      |       11370 |
|      80 | 0x2C6B      |       11371 |
|      81 | 0x2C6C      |       11372 |
|      82 | 0x2C6D      |       11373 |
|      83 | 0x0009      |           9 |
|      84 | 0x004F      |          79 |
|      85 | 0x00D2      |         210 |
|      86 | 0x00C8      |         200 |
|      87 | 0xFFF76D46  |  4294405446 |
|      88 | 0x9C96F     |      641391 |
|      89 | 0x09A2      |        2466 |
|      90 | 0xFFF76224  |  4294402596 |
|      91 | 0x9D1F8     |      643576 |
|      92 | 0x0021      |          33 |
|      93 | 0x019A      |         410 |
|      94 | 0x2C6E      |       11374 |
|      95 | 0x2C6F      |       11375 |
|      96 | 0xFFF766F2  |  4294403826 |
|      97 | 0x9D26D     |      643693 |
|      98 | 0xFFFFFFF0  |  4294967280 |
|      99 | 0x09A3      |        2467 |
|     100 | 0x2C70      |       11376 |
|     101 | 0x2C71      |       11377 |
|     102 | 0x2C72      |       11378 |
|     103 | 0x2C73      |       11379 |
|     104 | 0x007A      |         122 |
|     105 | 0x2C74      |       11380 |
|     106 | 0xFFF7668C  |  4294403724 |
|     107 | 0x9C478     |      640120 |
|     108 | 0xFFFFF449  |  4294964297 |
|     109 | 0x2C75      |       11381 |
|     110 | 0x2C76      |       11382 |
|     111 | 0x2C77      |       11383 |
|     112 | 0x2C78      |       11384 |
|     113 | 0x2C79      |       11385 |
|     114 | 0x2C7A      |       11386 |
|     115 | 0x00C9      |         201 |
|     116 | 0x0012      |          18 |
|     117 | 0xFFFD4411  |  4294788113 |
|     118 | 0x3DE6C     |      253548 |
|     119 | 0x22A9      |        8873 |
|     120 | 0x0AAA      |        2730 |
|     121 | 0xFFFD5711  |  4294792977 |
|     122 | 0x3C155     |      246101 |
|     123 | 0x2162      |        8546 |
|     124 | 0x02A8      |         680 |
|     125 | 0x01E9      |         489 |
|     126 | 0x2C7B      |       11387 |
|     127 | 0x000F      |          15 |
|     128 | 0x2C7C      |       11388 |
|     129 | 0x00CE      |         206 |
|     130 | 0x0236      |         566 |
|     131 | 0x2C7D      |       11389 |
|     132 | 0x2C7E      |       11390 |
|     133 | 0x2C7F      |       11391 |
|     134 | 0x2C80      |       11392 |
|     135 | 0x2C81      |       11393 |
|     136 | 0x2C82      |       11394 |
|     137 | 0x2C83      |       11395 |
|     138 | 0x2C84      |       11396 |
|     139 | 0x2C85      |       11397 |
|     140 | 0x2C86      |       11398 |
|     141 | 0x2C87      |       11399 |
|     142 | 0x2C88      |       11400 |
|     143 | 0x2C89      |       11401 |
|     144 | 0x2C8A      |       11402 |
|     145 | 0x2C8B      |       11403 |
|     146 | 0x2C8C      |       11404 |
|     147 | 0x2C8D      |       11405 |
|     148 | 0x2C8E      |       11406 |
|     149 | 0x2C8F      |       11407 |
|     150 | 0x2C90      |       11408 |
|     151 | 0x2C91      |       11409 |
|     152 | 0x2C92      |       11410 |
|     153 | 0x2C93      |       11411 |
|     154 | 0x2C94      |       11412 |
|     155 | 0x2C95      |       11413 |
|     156 | 0x2C96      |       11414 |
|     157 | 0x2C97      |       11415 |
|     158 | 0x2C98      |       11416 |
|     159 | 0x2C99      |       11417 |
|     160 | 0x2C9A      |       11418 |
|     161 | 0x2C9B      |       11419 |
|     162 | 0x2C9C      |       11420 |
|     163 | 0x2C9D      |       11421 |
|     164 | 0x2C9E      |       11422 |
|     165 | 0x2C9F      |       11423 |
|     166 | 0x2CA0      |       11424 |
|     167 | 0x2CA1      |       11425 |
|     168 | 0x2CA2      |       11426 |
|     169 | 0x0024      |          36 |
|     170 | 0x2CA3      |       11427 |
|     171 | 0x2CA4      |       11428 |
|     172 | 0x00B4      |         180 |
|     173 | 0x0028      |          40 |
|     174 | 0x2CA5      |       11429 |
|     175 | 0x2CA6      |       11430 |
|     176 | 0x2CA7      |       11431 |
|     177 | 0x2CA8      |       11432 |
|     178 | 0x2CA9      |       11433 |
|     179 | 0x2CAA      |       11434 |
|     180 | 0x2CAB      |       11435 |
|     181 | 0x2CAC      |       11436 |
|     182 | 0x2CAD      |       11437 |
|     183 | 0x2CAE      |       11438 |
|     184 | 0x00C6      |         198 |
|     185 | 0x2CAF      |       11439 |
|     186 | 0x2CB0      |       11440 |
|     187 | 0x2CB1      |       11441 |
|     188 | 0x2CB2      |       11442 |
|     189 | 0x2CB3      |       11443 |
|     190 | 0x2CB4      |       11444 |
|     191 | 0x2CB5      |       11445 |
|     192 | 0x2CB6      |       11446 |
|     193 | 0x2CB7      |       11447 |
|     194 | 0x2CB8      |       11448 |
|     195 | 0x2CB9      |       11449 |
|     196 | 0x2CBA      |       11450 |
|     197 | 0x2CBB      |       11451 |
|     198 | 0x2CBC      |       11452 |
|     199 | 0x2CBD      |       11453 |
|     200 | 0x00D7      |         215 |

## String References

- **11341**: Are you <Player>? [The one and only!/...]
- **11352**: What will you ask about? [Devivification./The reverse effect./Nothing in particular.]
- **11375**: The stranger stares intently at <Player>.
- **11400**: Ask about... [Rumors./The lil' mistress./Suitability.]

## Events

### Event 65535

#### Metadata

| Field        | Value   |
|--------------|---------|
| Entrypoint   | 0x0000  |
| Data Size    | 1 bytes |
| Instructions | 1       |

```
      00 01 02 03 04 05 06 07  08 09 0A 0B 0C 0D 0E 0F
      -- -- -- -- -- -- -- --  -- -- -- -- -- -- -- --
0000: 00                                                .               
```

#### Opcodes

```
  0: 0x0000 [0x00] END_REQSTACK()
```

### Event 9

#### Metadata

| Field        | Value      |
|--------------|------------|
| Entrypoint   | 0x0001     |
| Data Size    | 2612 bytes |
| Instructions | 302        |

```
      00 01 02 03 04 05 06 07  08 09 0A 0B 0C 0D 0E 0F
      -- -- -- -- -- -- -- --  -- -- -- -- -- -- -- --
0000:    42 1A 6F 1B 46 01 38  00 80 27 10 C6 62 06 01   B.o.F.8..'..b..
0010: 02 27 10 C8 62 06 01 04  4E 00 CA 62 06 01 4E 00  .'..b...N..b..N.
0020: C9 62 06 01 92 01 C6 62  06 01 94 01 F0 FF FF 7F  .b.....b........
0030: 94 01 C6 62 06 01 94 01  94 62 06 01 94 01 CA 62  ...b.....b.....b
0040: 06 01 94 01 C9 62 06 01  94 01 C8 62 06 01 BA F0  .....b.....b....
0050: FF FF 7F 01 80 02 80 03  80 04 80 BA C6 62 06 01  .............b..
0060: 05 80 06 80 03 80 07 80  BA CA 62 06 01 08 80 09  ..........b.....
0070: 80 03 80 0A 80 59 05 C9  62 06 01 01 BA C9 62 06  .....Y..b.....b.
0080: 01 0B 80 0C 80 0D 80 0E  80 59 05 C8 62 06 01 01  .........Y..b...
0090: BA C8 62 06 01 0B 80 0C  80 0D 80 0E 80 29 10 C8  ..b..........)..
00A0: 62 06 01 09 80 F0 FF FF  7F 80 C6 62 06 01 80 94  b..........b....
00B0: 62 06 01 80 C8 62 06 01  1C 0F 80 79 00 C6 62 06  b....b.....y..b.
00C0: 01 CA 62 06 01 66 10 80  C6 62 06 01 C6 62 06 01  ..b..f...b...b..
00D0: 73 69 72 30 53 C6 62 06  01 C6 62 06 01 73 69 72  sir0S.b...b..sir
00E0: 30 45 11 80 F0 FF FF 7F  F0 FF FF 7F 36 33 30 30  0E..........6300
00F0: 03 80 1A 4E 1B 1C 12 80  52 11 80 F0 FF FF 7F F0  ...N....R.......
0100: FF FF 7F 36 33 30 30 45  11 80 F0 FF FF 7F F0 FF  ...6300E........
0110: FF 7F 36 33 30 31 03 80  1C 0F 80 79 00 F0 FF FF  ..6301.....y....
0120: 7F 94 62 06 01 1C 12 80  5C 00 13 80 5C 01 13 80  ..b.....\...\...
0130: 9A 52 11 80 F0 FF FF 7F  F0 FF FF 7F 36 33 30 31  .R..........6301
0140: 45 11 80 F0 FF FF 7F F0  FF FF 7F 36 33 30 32 03  E..........6302.
0150: 80 1C 0F 80 CD 14 80 C6  62 06 01 C6 62 06 01 6D  ........b...b..m
0160: 61 69 6E 03 80 79 00 F0  FF FF 7F C6 62 06 01 29  ain..y......b..)
0170: 10 C6 62 06 01 09 1C 15  80 2B C6 62 06 01 16 80  ..b......+.b....
0180: 23 4A F0 FF FF 7F C6 62  06 01 1C 0F 80 52 11 80  #J.....b.....R..
0190: F0 FF FF 7F F0 FF FF 7F  36 33 30 32 45 11 80 F0  ........6302E...
01A0: FF FF 7F F0 FF FF 7F 36  33 30 33 03 80 7B C6 62  .......6303..{.b
01B0: 06 01 66 10 80 C6 62 06  01 C6 62 06 01 73 69 72  ..f...b...b..sir
01C0: 31 1C 0F 80 2B C6 62 06  01 17 80 23 2B C6 62 06  1...+.b....#+.b.
01D0: 01 18 80 23 52 11 80 F0  FF FF 7F F0 FF FF 7F 36  ...#R..........6
01E0: 33 30 33 29 10 F0 FF FF  7F 29 02 02 10 19 80 80  303).....)......
01F0: 06 02 45 11 80 F0 FF FF  7F F0 FF FF 7F 36 33 6D  ..E..........63m
0200: 6D 03 80 01 CA 02 02 02  10 1A 80 80 22 02 45 11  m...........".E.
0210: 80 F0 FF FF 7F F0 FF FF  7F 36 33 6D 6D 03 80 01  .........63mm...
0220: CA 02 02 02 10 1B 80 80  3E 02 45 11 80 F0 FF FF  ........>.E.....
0230: 7F F0 FF FF 7F 36 33 6C  6C 03 80 01 CA 02 02 02  .....63ll.......
0240: 10 1C 80 80 5A 02 45 11  80 F0 FF FF 7F F0 FF FF  ....Z.E.........
0250: 7F 36 33 6C 6C 03 80 01  CA 02 02 02 10 1D 80 80  .63ll...........
0260: 76 02 45 11 80 F0 FF FF  7F F0 FF FF 7F 36 33 73  v.E..........63s
0270: 73 03 80 01 CA 02 02 02  10 1E 80 80 92 02 45 11  s.............E.
0280: 80 F0 FF FF 7F F0 FF FF  7F 36 33 73 73 03 80 01  .........63ss...
0290: CA 02 02 02 10 1F 80 80  AE 02 45 11 80 F0 FF FF  ..........E.....
02A0: 7F F0 FF FF 7F 36 33 6D  6D 03 80 01 CA 02 02 02  .....63mm.......
02B0: 10 20 80 80 CA 02 45 11  80 F0 FF FF 7F F0 FF FF  . ....E.........
02C0: 7F 36 33 6C 6C 03 80 01  CA 02 24 21 80 03 80 03  .63ll.....$!....
02D0: 80 25 02 00 10 03 80 00  31 03 6E F0 FF FF 7F 1F  .%......1.n.....
02E0: 80 99 F0 FF FF 7F 1C 22  80 52 11 80 F0 FF FF 7F  .......".R......
02F0: F0 FF FF 7F 36 33 6D 6D  52 11 80 F0 FF FF 7F F0  ....63mmR.......
0300: FF FF 7F 36 33 6C 6C 52  11 80 F0 FF FF 7F F0 FF  ...63llR........
0310: FF 7F 36 33 73 73 45 11  80 F0 FF FF 7F F0 FF FF  ..63ssE.........
0320: 7F 36 33 30 34 03 80 27  10 C6 62 06 01 0C 01 98  .6304..'..b.....
0330: 03 02 00 10 19 80 00 98  03 6E F0 FF FF 7F 23 80  .........n....#.
0340: 99 F0 FF FF 7F 1C 22 80  52 11 80 F0 FF FF 7F F0  ......".R.......
0350: FF FF 7F 36 33 6D 6D 52  11 80 F0 FF FF 7F F0 FF  ...63mmR........
0360: FF 7F 36 33 6C 6C 52 11  80 F0 FF FF 7F F0 FF FF  ..63llR.........
0370: 7F 36 33 73 73 45 11 80  F0 FF FF 7F F0 FF FF 7F  .63ssE..........
0380: 36 33 30 34 03 80 27 10  C6 62 06 01 0C 2B C6 62  6304..'..b...+.b
0390: 06 01 24 80 23 01 98 03  2A 10 C6 62 06 01 29 10  ..$.#...*..b..).
03A0: C6 62 06 01 0A 2B C6 62  06 01 25 80 23 52 11 80  .b...+.b..%.#R..
03B0: F0 FF FF 7F F0 FF FF 7F  36 33 30 34 45 11 80 F0  ........6304E...
03C0: FF FF 7F F0 FF FF 7F 36  33 30 35 03 80 5B 26 80  .......6305..[&.
03D0: C6 62 06 01 C6 62 06 01  6A 79 75 31 1C 22 80 2B  .b...b..jyu1.".+
03E0: C6 62 06 01 27 80 1C 15  80 23 29 10 F0 FF FF 7F  .b..'....#).....
03F0: 31 53 C6 62 06 01 C6 62  06 01 6A 79 75 31 5B 26  1S.b...b..jyu1[&
0400: 80 C6 62 06 01 C6 62 06  01 6A 79 75 32 1C 15 80  ..b...b..jyu2...
0410: 52 11 80 F0 FF FF 7F F0  FF FF 7F 36 33 30 35 45  R..........6305E
0420: 11 80 F0 FF FF 7F F0 FF  FF 7F 36 33 30 36 03 80  ..........6306..
0430: 1C 12 80 2B C6 62 06 01  28 80 23 2B C6 62 06 01  ...+.b..(.#+.b..
0440: 29 80 23 6E F0 FF FF 7F  2A 80 99 F0 FF FF 7F 1C  ).#n....*.......
0450: 15 80 52 11 80 F0 FF FF  7F F0 FF FF 7F 36 33 30  ..R..........630
0460: 36 45 11 80 F0 FF FF 7F  F0 FF FF 7F 36 33 30 37  6E..........6307
0470: 03 80 5D 03 80 12 80 1C  0F 80 2B C6 62 06 01 2B  ..].......+.b..+
0480: 80 23 52 11 80 F0 FF FF  7F F0 FF FF 7F 36 33 30  .#R..........630
0490: 37 45 11 80 F0 FF FF 7F  F0 FF FF 7F 36 33 30 38  7E..........6308
04A0: 03 80 1C 0F 80 6B 69 64  6C 30 C6 62 06 01 2B C6  .....kidl0.b..+.
04B0: 62 06 01 2C 80 1C 0F 80  79 00 F0 FF FF 7F 94 62  b..,....y......b
04C0: 06 01 1C 22 80 23 52 11  80 F0 FF FF 7F F0 FF FF  ...".#R.........
04D0: 7F 36 33 30 38 45 11 80  F0 FF FF 7F F0 FF FF 7F  .6308E..........
04E0: 36 33 30 39 03 80 1C 15  80 66 10 80 C6 62 06 01  6309.....f...b..
04F0: C6 62 06 01 74 77 62 30  2B C6 62 06 01 2D 80 23  .b..twb0+.b..-.#
0500: 2B C6 62 06 01 2E 80 23  52 11 80 F0 FF FF 7F F0  +.b....#R.......
0510: FF FF 7F 36 33 30 39 45  11 80 F0 FF FF 7F F0 FF  ...6309E........
0520: FF 7F 36 33 31 30 03 80  66 10 80 C6 62 06 01 C6  ..6310..f...b...
0530: 62 06 01 74 77 62 31 79  00 F0 FF FF 7F C6 62 06  b..twb1y......b.
0540: 01 2B C6 62 06 01 2F 80  23 53 C6 62 06 01 C6 62  .+.b../.#S.b...b
0550: 06 01 74 77 62 31 5C 00  30 80 5C 01 30 80 9A 06  ..twb1\.0.\.0...
0560: 02 00 24 31 80 03 80 02  00 25 02 00 10 03 80 00  ..$1.....%......
0570: 3A 06 52 11 80 F0 FF FF  7F F0 FF FF 7F 36 33 31  :.R..........631
0580: 35 52 11 80 F0 FF FF 7F  F0 FF FF 7F 36 33 31 30  5R..........6310
0590: 45 11 80 F0 FF FF 7F F0  FF FF 7F 36 33 31 31 03  E..........6311.
05A0: 80 2B C6 62 06 01 32 80  23 66 10 80 C6 62 06 01  .+.b..2.#f...b..
05B0: C6 62 06 01 74 68 6B 31  1C 0F 80 52 11 80 F0 FF  .b..thk1...R....
05C0: FF 7F F0 FF FF 7F 36 33  31 31 45 11 80 F0 FF FF  ......6311E.....
05D0: 7F F0 FF FF 7F 36 33 31  32 03 80 2B C6 62 06 01  .....6312..+.b..
05E0: 33 80 23 2B C6 62 06 01  34 80 23 52 11 80 F0 FF  3.#+.b..4.#R....
05F0: FF 7F F0 FF FF 7F 36 33  31 32 45 11 80 F0 FF FF  ......6312E.....
0600: 7F F0 FF FF 7F 36 33 31  33 03 80 66 10 80 C6 62  .....6313..f...b
0610: 06 01 C6 62 06 01 74 68  6B 32 2B C6 62 06 01 35  ...b..thk2+.b..5
0620: 80 23 53 C6 62 06 01 C6  62 06 01 74 68 6B 32 0E  .#S.b...b..thk2.
0630: 02 00 19 80 01 62 05 01  D0 06 02 00 10 19 80 00  .....b..........
0640: D0 06 52 11 80 F0 FF FF  7F F0 FF FF 7F 36 33 31  ..R..........631
0650: 33 52 11 80 F0 FF FF 7F  F0 FF FF 7F 36 33 31 30  3R..........6310
0660: 45 11 80 F0 FF FF 7F F0  FF FF 7F 36 33 31 34 03  E..........6314.
0670: 80 2B C6 62 06 01 36 80  23 5B 37 80 C6 62 06 01  .+.b..6.#[7..b..
0680: C6 62 06 01 6B 69 61 30  2B C6 62 06 01 38 80 23  .b..kia0+.b..8.#
0690: 52 11 80 F0 FF FF 7F F0  FF FF 7F 36 33 31 34 45  R..........6314E
06A0: 11 80 F0 FF FF 7F F0 FF  FF 7F 36 33 31 35 03 80  ..........6315..
06B0: 2B C6 62 06 01 39 80 23  53 C6 62 06 01 C6 62 06  +.b..9.#S.b...b.
06C0: 01 6B 69 61 30 0E 02 00  1A 80 01 62 05 01 D0 06  .kia0......b....
06D0: 52 11 80 F0 FF FF 7F F0  FF FF 7F 36 33 31 30 52  R..........6310R
06E0: 11 80 F0 FF FF 7F F0 FF  FF 7F 36 33 31 33 52 11  ..........6313R.
06F0: 80 F0 FF FF 7F F0 FF FF  7F 36 33 31 35 45 11 80  .........6315E..
0700: F0 FF FF 7F F0 FF FF 7F  36 33 31 36 03 80 2B C6  ........6316..+.
0710: 62 06 01 3A 80 23 6E C6  62 06 01 3B 80 99 C6 62  b..:.#n.b..;...b
0720: 06 01 03 02 10 3C 80 2B  C6 62 06 01 3D 80 1C 22  .....<.+.b..=.."
0730: 80 23 4A C6 62 06 01 94  62 06 01 52 11 80 F0 FF  .#J.b...b..R....
0740: FF 7F F0 FF FF 7F 36 33  31 36 45 11 80 F0 FF FF  ......6316E.....
0750: 7F F0 FF FF 7F 36 33 31  37 03 80 1C 3E 80 79 00  .....6317...>.y.
0760: F0 FF FF 7F 94 62 06 01  2B C6 62 06 01 3F 80 23  .....b..+.b..?.#
0770: 52 11 80 F0 FF FF 7F F0  FF FF 7F 36 33 31 37 45  R..........6317E
0780: 11 80 F0 FF FF 7F F0 FF  FF 7F 36 33 31 38 03 80  ..........6318..
0790: 5D 03 80 12 80 1C 22 80  2B C6 62 06 01 40 80 23  ].....".+.b..@.#
07A0: 52 11 80 F0 FF FF 7F F0  FF FF 7F 36 33 31 38 45  R..........6318E
07B0: 11 80 F0 FF FF 7F F0 FF  FF 7F 36 33 31 39 03 80  ..........6319..
07C0: 1C 15 80 4A C6 62 06 01  F0 FF FF 7F 1C 0F 80 79  ...J.b.........y
07D0: 00 F0 FF FF 7F C6 62 06  01 2B C6 62 06 01 41 80  ......b..+.b..A.
07E0: 23 2B C6 62 06 01 42 80  23 5C 00 43 80 5C 01 43  #+.b..B.#\.C.\.C
07F0: 80 9A C5 44 80 C9 62 06  01 C9 62 06 01 73 30 30  ...D..b...b..s00
0800: 30 03 80 52 11 80 F0 FF  FF 7F F0 FF FF 7F 36 33  0..R..........63
0810: 31 39 45 11 80 F0 FF FF  7F F0 FF FF 7F 36 33 32  19E..........632
0820: 30 03 80 7B C6 62 06 01  66 10 80 C6 62 06 01 C6  0..{.b..f...b...
0830: 62 06 01 74 68 6B 31 1C  15 80 2B C6 62 06 01 45  b..thk1...+.b..E
0840: 80 23 52 11 80 F0 FF FF  7F F0 FF FF 7F 36 33 32  .#R..........632
0850: 30 45 11 80 F0 FF FF 7F  F0 FF FF 7F 36 33 32 31  0E..........6321
0860: 03 80 77 46 80 19 80 AB  09 1C 15 80 2B C6 62 06  ..wF........+.b.
0870: 01 47 80 23 52 11 80 F0  FF FF 7F F0 FF FF 7F 36  .G.#R..........6
0880: 33 32 31 45 11 80 F0 FF  FF 7F F0 FF FF 7F 36 33  321E..........63
0890: 32 32 03 80 1C 15 80 2B  C6 62 06 01 48 80 23 52  22.....+.b..H.#R
08A0: 11 80 F0 FF FF 7F F0 FF  FF 7F 36 33 32 32 45 11  ..........6322E.
08B0: 80 F0 FF FF 7F F0 FF FF  7F 36 33 32 33 03 80 AB  .........6323...
08C0: 0A 78 66 10 80 C6 62 06  01 C6 62 06 01 74 68 6B  .xf...b...b..thk
08D0: 32 1C 15 80 4E 01 C8 62  06 01 C5 44 80 C9 62 06  2...N..b...D..b.
08E0: 01 C9 62 06 01 6B 69 6C  30 03 80 2B C6 62 06 01  ..b..kil0..+.b..
08F0: 49 80 23 53 C6 62 06 01  C6 62 06 01 74 68 6B 32  I.#S.b...b..thk2
0900: 52 11 80 F0 FF FF 7F F0  FF FF 7F 36 33 32 33 45  R..........6323E
0910: 11 80 F0 FF FF 7F F0 FF  FF 7F 36 33 32 34 03 80  ..........6324..
0920: 5D 03 80 4A 80 59 05 CA  62 06 01 01 BA CA 62 06  ]..J.Y..b.....b.
0930: 01 4B 80 4C 80 4D 80 4E  80 66 10 80 C6 62 06 01  .K.L.M.N.f...b..
0940: C6 62 06 01 74 77 62 30  2B C6 62 06 01 4F 80 23  .b..twb0+.b..O.#
0950: 2B C6 62 06 01 50 80 23  52 11 80 F0 FF FF 7F F0  +.b..P.#R.......
0960: FF FF 7F 36 33 32 34 45  11 80 F0 FF FF 7F F0 FF  ...6324E........
0970: FF 7F 36 33 32 35 03 80  66 10 80 C6 62 06 01 C6  ..6325..f...b...
0980: 62 06 01 74 77 62 31 79  00 C6 62 06 01 CA 62 06  b..twb1y..b...b.
0990: 01 1C 22 80 2B C6 62 06  01 51 80 23 79 00 C6 62  ..".+.b..Q.#y..b
09A0: 06 01 F0 FF FF 7F 1C 15  80 2B C6 62 06 01 52 80  .........+.b..R.
09B0: 23 52 11 80 F0 FF FF 7F  F0 FF FF 7F 36 33 32 35  #R..........6325
09C0: 45 11 80 F0 FF FF 7F F0  FF FF 7F 36 33 32 36 03  E..........6326.
09D0: 80 6E C6 62 06 01 53 80  99 C6 62 06 01 CD 54 80  .n.b..S...b...T.
09E0: C6 62 06 01 C6 62 06 01  6D 61 69 6E 03 80 1C 55  .b...b..main...U
09F0: 80 1A 6F 1B 1C 0F 80 52  11 80 F0 FF FF 7F F0 FF  ..o....R........
0A00: FF 7F 36 33 32 36 45 11  80 F0 FF FF 7F F0 FF FF  ..6326E.........
0A10: 7F 30 62 6C 66 03 80 5C  00 03 80 5C 01 03 80 9A  .0blf..\...\....
0A20: 46 00 45 56 80 F0 FF FF  7F F0 FF FF 7F 66 64 69  F.EV.........fdi
0A30: 32 03 80 21 00                                    2..!.           
```

#### Opcodes

```
  0: 0x0001 [0x42] SET_CLI_EVENT_CANCEL_DATA()
  1: 0x0002 [0x1A] CALL_SUBROUTINE(address=0x1B6F)
  2: 0x0005 [0x46] CAMERA_CONTROL: Disable user control
  3: 0x0007 [0x38] SET_CLIENT_EVENT_MODE(mode=19*)
  4: 0x000A [0x27] REQ_SET(priority=0x10, entity_id=Ragemont (ID: 17195718/0x010662C6), tag_num=0x02)
  5: 0x0011 [0x27] REQ_SET(priority=0x10, entity_id=Unnamed NPC (ID: 17195720/0x010662C8), tag_num=0x04)
  6: 0x0018 [0x4E] SET_ENTITY_HIDE_FLAG: Show Unnamed NPC (ID: 17195722/0x010662CA)
  7: 0x001E [0x4E] SET_ENTITY_HIDE_FLAG: Show ??? (ID: 17195721/0x010662C9)
  8: 0x0024 [0x92] Ragemont (ID: 17195718/0x010662C6)->Render.Flags3 ^= 0x01
  9: 0x002A [0x94] LocalPlayer->Render.Flags3 ^= 0x01
 10: 0x0030 [0x94] Ragemont (ID: 17195718/0x010662C6)->Render.Flags3 ^= 0x01
 11: 0x0036 [0x94] Cavernous Maw (ID: 17195668/0x01066294)->Render.Flags3 ^= 0x01
 12: 0x003C [0x94] Unnamed NPC (ID: 17195722/0x010662CA)->Render.Flags3 ^= 0x01
 13: 0x0042 [0x94] ??? (ID: 17195721/0x010662C9)->Render.Flags3 ^= 0x01
 14: 0x0048 [0x94] Unnamed NPC (ID: 17195720/0x010662C8)->Render.Flags3 ^= 0x01
 15: 0x004E [0xBA] SET_ENTITY_POSITION(entity_id=LocalPlayer, pos_x=-562.168*, pos_z=641.833*, pos_y=0.000*, direction=43.8°*)
 16: 0x005B [0xBA] SET_ENTITY_POSITION(entity_id=Ragemont (ID: 17195718/0x010662C6), pos_x=-562.008*, pos_z=638.159*, pos_y=0.000*, direction=259.2°*)
 17: 0x0068 [0xBA] SET_ENTITY_POSITION(entity_id=Unnamed NPC (ID: 17195722/0x010662CA), pos_x=-562.081*, pos_z=638.653*, pos_y=0.000*, direction=43.7°*)
 18: 0x0075 [0x59] UPDATE_ENTITY_DATA: ??? (ID: 17195721/0x010662C9)->Render.Flags0 |= 0x200000
 19: 0x007C [0xBA] SET_ENTITY_POSITION(entity_id=??? (ID: 17195721/0x010662C9), pos_x=-564.331*, pos_z=643.698*, pos_y=-24.984*, direction=222.7°*)
 20: 0x0089 [0x59] UPDATE_ENTITY_DATA: Unnamed NPC (ID: 17195720/0x010662C8)->Render.Flags0 |= 0x200000
 21: 0x0090 [0xBA] SET_ENTITY_POSITION(entity_id=Unnamed NPC (ID: 17195720/0x010662C8), pos_x=-564.331*, pos_z=643.698*, pos_y=-24.984*, direction=222.7°*)
 22: 0x009D [0x29] REQ_SET_WAIT(priority=0x10, entity_id=Unnamed NPC (ID: 17195720/0x010662C8), tag_num=0x09)
 23: 0x00A4 [0x80] LOAD_WAIT(entity=LocalPlayer)
 24: 0x00A9 [0x80] LOAD_WAIT(entity=Ragemont (ID: 17195718/0x010662C6))
 25: 0x00AE [0x80] LOAD_WAIT(entity=Cavernous Maw (ID: 17195668/0x01066294))
 26: 0x00B3 [0x80] LOAD_WAIT(entity=Unnamed NPC (ID: 17195720/0x010662C8))
 27: 0x00B8 [0x1C] WAIT(30* ticks)
 28: 0x00BB [0x79] Ragemont (ID: 17195718/0x010662C6) looks at Unnamed NPC (ID: 17195722/0x010662CA) (Basic look)
 29: 0x00C5 [0x66] LOAD_EXT_SCHEDULER_MAIN: Load scheduler "sir0" with entities [Ragemont (ID: 17195718/0x010662C6), Ragemont (ID: 17195718/0x010662C6)], work=29*
 30: 0x00D4 [0x53] WAIT_SCHEDULER_TASK: Wait for scheduler "sir0" with entities [Ragemont (ID: 17195718/0x010662C6), Ragemont (ID: 17195718/0x010662C6)]
 31: 0x00E1 [0x45] LOAD_SCHEDULED_TASK: Load scheduler "6300" with entities [LocalPlayer, LocalPlayer], work=[488*, 0*]
 32: 0x00F2 [0x1A] CALL_SUBROUTINE(address=0x1B4E)
 33: 0x00F5 [0x1C] WAIT(120* ticks)
 34: 0x00F8 [0x52] END_LOAD_SCHEDULER: End scheduler "6300" with entities [LocalPlayer, LocalPlayer], work=488*
 35: 0x0107 [0x45] LOAD_SCHEDULED_TASK: Load scheduler "6301" with entities [LocalPlayer, LocalPlayer], work=[488*, 0*]
 36: 0x0118 [0x1C] WAIT(30* ticks)
 37: 0x011B [0x79] LocalPlayer looks at Cavernous Maw (ID: 17195668/0x01066294) (Basic look)
 38: 0x0125 [0x1C] WAIT(120* ticks)
 39: 0x0128 [0x5C] MUSIC_CONTROL: Set Idle (Day) music to song 51*
 40: 0x012C [0x5C] MUSIC_CONTROL: Set Idle (Night) music to song 51*
 41: 0x0130 [0x9A] WAIT_MUSIC_SERVER()
 42: 0x0131 [0x52] END_LOAD_SCHEDULER: End scheduler "6301" with entities [LocalPlayer, LocalPlayer], work=488*
 43: 0x0140 [0x45] LOAD_SCHEDULED_TASK: Load scheduler "6302" with entities [LocalPlayer, LocalPlayer], work=[488*, 0*]
 44: 0x0151 [0x1C] WAIT(30* ticks)
 45: 0x0154 [0xCD] LOAD_SCHEDULED_TASK_ALT4: Load scheduler "main" with entities [Ragemont (ID: 17195718/0x010662C6), Ragemont (ID: 17195718/0x010662C6)], work=[80*, 0*]
 46: 0x0165 [0x79] LocalPlayer looks at Ragemont (ID: 17195718/0x010662C6) (Basic look)
 47: 0x016F [0x29] REQ_SET_WAIT(priority=0x10, entity_id=Ragemont (ID: 17195718/0x010662C6), tag_num=0x09)
 48: 0x0176 [0x1C] WAIT(60* ticks)
 49: 0x0179 [0x2B] Ragemont (ID: 17195718/0x010662C6) [11338*]:
    → "Grrr! Damn this chafing sensation!"
 50: 0x0180 [0x23] WAIT_FOR_DIALOG_INTERACTION
 51: 0x0181 [0x4A] LocalPlayer looks at Ragemont (ID: 17195718/0x010662C6)
 52: 0x018A [0x1C] WAIT(30* ticks)
 53: 0x018D [0x52] END_LOAD_SCHEDULER: End scheduler "6302" with entities [LocalPlayer, LocalPlayer], work=488*
 54: 0x019C [0x45] LOAD_SCHEDULED_TASK: Load scheduler "6303" with entities [LocalPlayer, LocalPlayer], work=[488*, 0*]
 55: 0x01AD [0x7B] Ragemont (ID: 17195718/0x010662C6) stops talking
 56: 0x01B2 [0x66] LOAD_EXT_SCHEDULER_MAIN: Load scheduler "sir1" with entities [Ragemont (ID: 17195718/0x010662C6), Ragemont (ID: 17195718/0x010662C6)], work=29*
 57: 0x01C1 [0x1C] WAIT(30* ticks)
 58: 0x01C4 [0x2B] Ragemont (ID: 17195718/0x010662C6) [11339*]:
    → "Hm? Why, th-that stone you bear..."
 59: 0x01CB [0x23] WAIT_FOR_DIALOG_INTERACTION
 60: 0x01CC [0x2B] Ragemont (ID: 17195718/0x010662C6) [11340*]:
    → "Am I correct in assuming that you're <Player>?"
 61: 0x01D3 [0x23] WAIT_FOR_DIALOG_INTERACTION
 62: 0x01D4 [0x52] END_LOAD_SCHEDULER: End scheduler "6303" with entities [LocalPlayer, LocalPlayer], work=488*
 63: 0x01E3 [0x29] REQ_SET_WAIT(priority=0x10, entity_id=LocalPlayer, tag_num=0x29)
 64: 0x01EA [0x02] IF !(Work_Zone[2] == 1*) GOTO 0x0206
 65: 0x01F2 [0x45] LOAD_SCHEDULED_TASK: Load scheduler "63mm" with entities [LocalPlayer, LocalPlayer], work=[488*, 0*]
 66: 0x0203 [0x01] GOTO 0x02CA
 67: 0x0206 [0x02] IF !(Work_Zone[2] == 2*) GOTO 0x0222
 68: 0x020E [0x45] LOAD_SCHEDULED_TASK: Load scheduler "63mm" with entities [LocalPlayer, LocalPlayer], work=[488*, 0*]
 69: 0x021F [0x01] GOTO 0x02CA
 70: 0x0222 [0x02] IF !(Work_Zone[2] == 3*) GOTO 0x023E
 71: 0x022A [0x45] LOAD_SCHEDULED_TASK: Load scheduler "63ll" with entities [LocalPlayer, LocalPlayer], work=[488*, 0*]
 72: 0x023B [0x01] GOTO 0x02CA
 73: 0x023E [0x02] IF !(Work_Zone[2] == 4*) GOTO 0x025A
 74: 0x0246 [0x45] LOAD_SCHEDULED_TASK: Load scheduler "63ll" with entities [LocalPlayer, LocalPlayer], work=[488*, 0*]
 75: 0x0257 [0x01] GOTO 0x02CA
 76: 0x025A [0x02] IF !(Work_Zone[2] == 5*) GOTO 0x0276
 77: 0x0262 [0x45] LOAD_SCHEDULED_TASK: Load scheduler "63ss" with entities [LocalPlayer, LocalPlayer], work=[488*, 0*]
 78: 0x0273 [0x01] GOTO 0x02CA
 79: 0x0276 [0x02] IF !(Work_Zone[2] == 6*) GOTO 0x0292
 80: 0x027E [0x45] LOAD_SCHEDULED_TASK: Load scheduler "63ss" with entities [LocalPlayer, LocalPlayer], work=[488*, 0*]
 81: 0x028F [0x01] GOTO 0x02CA
 82: 0x0292 [0x02] IF !(Work_Zone[2] == 7*) GOTO 0x02AE
 83: 0x029A [0x45] LOAD_SCHEDULED_TASK: Load scheduler "63mm" with entities [LocalPlayer, LocalPlayer], work=[488*, 0*]
 84: 0x02AB [0x01] GOTO 0x02CA
 85: 0x02AE [0x02] IF !(Work_Zone[2] == 8*) GOTO 0x02CA
 86: 0x02B6 [0x45] LOAD_SCHEDULED_TASK: Load scheduler "63ll" with entities [LocalPlayer, LocalPlayer], work=[488*, 0*]
 87: 0x02C7 [0x01] GOTO 0x02CA

SUBROUTINE_02CA:
 88: 0x02CA [0x24] CREATE_DIALOG(message_id=11341*, default_option=0*, option_flags=0*)
    → "Are you <Player>? [The one and only!/...]"
 89: 0x02D1 [0x25] WAIT_DIALOG_SELECT()
 90: 0x02D2 [0x02] IF !(Work_Zone[0] == 0*) GOTO 0x0331
 91: 0x02DA [0x6E] LocalPlayer uses emote 7*
 92: 0x02E1 [0x99] Wait for LocalPlayer animation to complete
 93: 0x02E6 [0x1C] WAIT(90* ticks)
 94: 0x02E9 [0x52] END_LOAD_SCHEDULER: End scheduler "63mm" with entities [LocalPlayer, LocalPlayer], work=488*
 95: 0x02F8 [0x52] END_LOAD_SCHEDULER: End scheduler "63ll" with entities [LocalPlayer, LocalPlayer], work=488*
 96: 0x0307 [0x52] END_LOAD_SCHEDULER: End scheduler "63ss" with entities [LocalPlayer, LocalPlayer], work=488*
 97: 0x0316 [0x45] LOAD_SCHEDULED_TASK: Load scheduler "6304" with entities [LocalPlayer, LocalPlayer], work=[488*, 0*]
 98: 0x0327 [0x27] REQ_SET(priority=0x10, entity_id=Ragemont (ID: 17195718/0x010662C6), tag_num=0x0C)
 99: 0x032E [0x01] GOTO 0x0398
100: 0x0331 [0x02] IF !(Work_Zone[0] == 1*) GOTO 0x0398
101: 0x0339 [0x6E] LocalPlayer uses emote 35*
102: 0x0340 [0x99] Wait for LocalPlayer animation to complete
103: 0x0345 [0x1C] WAIT(90* ticks)
104: 0x0348 [0x52] END_LOAD_SCHEDULER: End scheduler "63mm" with entities [LocalPlayer, LocalPlayer], work=488*
105: 0x0357 [0x52] END_LOAD_SCHEDULER: End scheduler "63ll" with entities [LocalPlayer, LocalPlayer], work=488*
106: 0x0366 [0x52] END_LOAD_SCHEDULER: End scheduler "63ss" with entities [LocalPlayer, LocalPlayer], work=488*
107: 0x0375 [0x45] LOAD_SCHEDULED_TASK: Load scheduler "6304" with entities [LocalPlayer, LocalPlayer], work=[488*, 0*]
108: 0x0386 [0x27] REQ_SET(priority=0x10, entity_id=Ragemont (ID: 17195718/0x010662C6), tag_num=0x0C)
109: 0x038D [0x2B] Ragemont (ID: 17195718/0x010662C6) [11342*]:
    → "Truly!?"
110: 0x0394 [0x23] WAIT_FOR_DIALOG_INTERACTION
111: 0x0395 [0x01] GOTO 0x0398

SUBROUTINE_0398:
112: 0x0398 [0x2A] GET_REQ_LEVEL(level=16, entity_id=Ragemont (ID: 17195718/0x010662C6))
113: 0x039E [0x29] REQ_SET_WAIT(priority=0x10, entity_id=Ragemont (ID: 17195718/0x010662C6), tag_num=0x0A)
114: 0x03A5 [0x2B] Ragemont (ID: 17195718/0x010662C6) [11343*]:
    → "My name is Ragemont, and I was told that you might show--"
115: 0x03AC [0x23] WAIT_FOR_DIALOG_INTERACTION
116: 0x03AD [0x52] END_LOAD_SCHEDULER: End scheduler "6304" with entities [LocalPlayer, LocalPlayer], work=488*
117: 0x03BC [0x45] LOAD_SCHEDULED_TASK: Load scheduler "6305" with entities [LocalPlayer, LocalPlayer], work=[488*, 0*]
118: 0x03CD [0x5B] LOAD_EXT_SCHEDULER: Load scheduler "jyu1" with entities [Ragemont (ID: 17195718/0x010662C6), Ragemont (ID: 17195718/0x010662C6)], work=3033*
119: 0x03DC [0x1C] WAIT(90* ticks)
120: 0x03DF [0x2B] Ragemont (ID: 17195718/0x010662C6) [11344*]:
    → "Aaargh! C-confound it!"
121: 0x03E6 [0x1C] WAIT(60* ticks)
122: 0x03E9 [0x23] WAIT_FOR_DIALOG_INTERACTION
123: 0x03EA [0x29] REQ_SET_WAIT(priority=0x10, entity_id=LocalPlayer, tag_num=0x31)
124: 0x03F1 [0x53] WAIT_SCHEDULER_TASK: Wait for scheduler "jyu1" with entities [Ragemont (ID: 17195718/0x010662C6), Ragemont (ID: 17195718/0x010662C6)]
125: 0x03FE [0x5B] LOAD_EXT_SCHEDULER: Load scheduler "jyu2" with entities [Ragemont (ID: 17195718/0x010662C6), Ragemont (ID: 17195718/0x010662C6)], work=3033*
126: 0x040D [0x1C] WAIT(60* ticks)
127: 0x0410 [0x52] END_LOAD_SCHEDULER: End scheduler "6305" with entities [LocalPlayer, LocalPlayer], work=488*
128: 0x041F [0x45] LOAD_SCHEDULED_TASK: Load scheduler "6306" with entities [LocalPlayer, LocalPlayer], work=[488*, 0*]
129: 0x0430 [0x1C] WAIT(120* ticks)
130: 0x0433 [0x2B] Ragemont (ID: 17195718/0x010662C6) [11345*]:
    → "I must ask you to disregard these abrupt outbursts. This pain is an inseparable part of inter-dimensional travel."
131: 0x043A [0x23] WAIT_FOR_DIALOG_INTERACTION
132: 0x043B [0x2B] Ragemont (ID: 17195718/0x010662C6) [11346*]:
    → "Though I'm made to understand that people of this world do not experience it."
133: 0x0442 [0x23] WAIT_FOR_DIALOG_INTERACTION
134: 0x0443 [0x6E] LocalPlayer uses emote 32*
135: 0x044A [0x99] Wait for LocalPlayer animation to complete
136: 0x044F [0x1C] WAIT(60* ticks)
137: 0x0452 [0x52] END_LOAD_SCHEDULER: End scheduler "6306" with entities [LocalPlayer, LocalPlayer], work=488*
138: 0x0461 [0x45] LOAD_SCHEDULED_TASK: Load scheduler "6307" with entities [LocalPlayer, LocalPlayer], work=[488*, 0*]
139: 0x0472 [0x5D] SET_MUSIC_VOLUME(volume=0*, fade_time=120*)
140: 0x0477 [0x1C] WAIT(30* ticks)
141: 0x047A [0x2B] Ragemont (ID: 17195718/0x010662C6) [11347*]:
    → "Oh, you've not been informed? Then it would be my pleasure to explain."
142: 0x0481 [0x23] WAIT_FOR_DIALOG_INTERACTION
143: 0x0482 [0x52] END_LOAD_SCHEDULER: End scheduler "6307" with entities [LocalPlayer, LocalPlayer], work=488*
144: 0x0491 [0x45] LOAD_SCHEDULED_TASK: Load scheduler "6308" with entities [LocalPlayer, LocalPlayer], work=[488*, 0*]
145: 0x04A2 [0x1C] WAIT(30* ticks)
146: 0x04A5 [0x6B] STOP_AND_IDLE: Ragemont (ID: 17195718/0x010662C6) stops current action and resets to idle (animation="idl0")
147: 0x04AE [0x2B] Ragemont (ID: 17195718/0x010662C6) [11348*]:
    → "In crossing over to this world, residents of Abyssea suffer from a phenomenon wherein their strength is halved. "Devivification," 'tis called, though the exact science of it remains beyond our fathoming."
148: 0x04B5 [0x1C] WAIT(30* ticks)
149: 0x04B8 [0x79] LocalPlayer looks at Cavernous Maw (ID: 17195668/0x01066294) (Basic look)
150: 0x04C2 [0x1C] WAIT(90* ticks)
151: 0x04C5 [0x23] WAIT_FOR_DIALOG_INTERACTION
152: 0x04C6 [0x52] END_LOAD_SCHEDULER: End scheduler "6308" with entities [LocalPlayer, LocalPlayer], work=488*
153: 0x04D5 [0x45] LOAD_SCHEDULED_TASK: Load scheduler "6309" with entities [LocalPlayer, LocalPlayer], work=[488*, 0*]
154: 0x04E6 [0x1C] WAIT(60* ticks)
155: 0x04E9 [0x66] LOAD_EXT_SCHEDULER_MAIN: Load scheduler "twb0" with entities [Ragemont (ID: 17195718/0x010662C6), Ragemont (ID: 17195718/0x010662C6)], work=29*
156: 0x04F8 [0x2B] Ragemont (ID: 17195718/0x010662C6) [11349*]:
    → "Curiously, the reverse is known to occur when people of your world cross over to ours."
157: 0x04FF [0x23] WAIT_FOR_DIALOG_INTERACTION
158: 0x0500 [0x2B] Ragemont (ID: 17195718/0x010662C6) [11350*]:
    → "And it is exactly for this reason that you're so important in our struggle. Only with the help of your enhanced powers could we hope to subdue the Abyssean menace and set the world to rights."
159: 0x0507 [0x23] WAIT_FOR_DIALOG_INTERACTION
160: 0x0508 [0x52] END_LOAD_SCHEDULER: End scheduler "6309" with entities [LocalPlayer, LocalPlayer], work=488*
161: 0x0517 [0x45] LOAD_SCHEDULED_TASK: Load scheduler "6310" with entities [LocalPlayer, LocalPlayer], work=[488*, 0*]
162: 0x0528 [0x66] LOAD_EXT_SCHEDULER_MAIN: Load scheduler "twb1" with entities [Ragemont (ID: 17195718/0x010662C6), Ragemont (ID: 17195718/0x010662C6)], work=29*
163: 0x0537 [0x79] LocalPlayer looks at Ragemont (ID: 17195718/0x010662C6) (Basic look)
164: 0x0541 [0x2B] Ragemont (ID: 17195718/0x010662C6) [11351*]:
    → "Ah, but I do ramble. Should you have any questions, my knowledge is at your disposal."
165: 0x0548 [0x23] WAIT_FOR_DIALOG_INTERACTION
166: 0x0549 [0x53] WAIT_SCHEDULER_TASK: Wait for scheduler "twb1" with entities [Ragemont (ID: 17195718/0x010662C6), Ragemont (ID: 17195718/0x010662C6)]
167: 0x0556 [0x5C] MUSIC_CONTROL: Set Idle (Day) music to song 44*
168: 0x055A [0x5C] MUSIC_CONTROL: Set Idle (Night) music to song 44*
169: 0x055E [0x9A] WAIT_MUSIC_SERVER()
170: 0x055F [0x06] ExtData[1]->WorkLocal[2] = 0

SUBROUTINE_0562:
171: 0x0562 [0x24] CREATE_DIALOG(message_id=11352*, default_option=0*, option_flags=ExtData[1]->WorkLocal[2])
    → "What will you ask about? [Devivification./The reverse effect./Nothing in particular.]"
172: 0x0569 [0x25] WAIT_DIALOG_SELECT()
173: 0x056A [0x02] IF !(Work_Zone[0] == 0*) GOTO 0x063A
174: 0x0572 [0x52] END_LOAD_SCHEDULER: End scheduler "6315" with entities [LocalPlayer, LocalPlayer], work=488*
175: 0x0581 [0x52] END_LOAD_SCHEDULER: End scheduler "6310" with entities [LocalPlayer, LocalPlayer], work=488*
176: 0x0590 [0x45] LOAD_SCHEDULED_TASK: Load scheduler "6311" with entities [LocalPlayer, LocalPlayer], work=[488*, 0*]
177: 0x05A1 [0x2B] Ragemont (ID: 17195718/0x010662C6) [11353*]:
    → "As I had mentioned prior, the journey here from Abyssea causes our strength to become halved."
178: 0x05A8 [0x23] WAIT_FOR_DIALOG_INTERACTION
179: 0x05A9 [0x66] LOAD_EXT_SCHEDULER_MAIN: Load scheduler "thk1" with entities [Ragemont (ID: 17195718/0x010662C6), Ragemont (ID: 17195718/0x010662C6)], work=29*
180: 0x05B8 [0x1C] WAIT(30* ticks)
181: 0x05BB [0x52] END_LOAD_SCHEDULER: End scheduler "6311" with entities [LocalPlayer, LocalPlayer], work=488*
182: 0x05CA [0x45] LOAD_SCHEDULED_TASK: Load scheduler "6312" with entities [LocalPlayer, LocalPlayer], work=[488*, 0*]
183: 0x05DB [0x2B] Ragemont (ID: 17195718/0x010662C6) [11354*]:
    → "In practice, it's as if we're in a constant state of weakness. Adding insult to injury, an unbearable chafing sensation assails us without warning."
184: 0x05E2 [0x23] WAIT_FOR_DIALOG_INTERACTION
185: 0x05E3 [0x2B] Ragemont (ID: 17195718/0x010662C6) [11355*]:
    → "Sounds bothersome, doesn't it? Yet we do what we must. The pain that ensues after each crossing compares not to the eternal death of our world."
186: 0x05EA [0x23] WAIT_FOR_DIALOG_INTERACTION
187: 0x05EB [0x52] END_LOAD_SCHEDULER: End scheduler "6312" with entities [LocalPlayer, LocalPlayer], work=488*
188: 0x05FA [0x45] LOAD_SCHEDULED_TASK: Load scheduler "6313" with entities [LocalPlayer, LocalPlayer], work=[488*, 0*]
189: 0x060B [0x66] LOAD_EXT_SCHEDULER_MAIN: Load scheduler "thk2" with entities [Ragemont (ID: 17195718/0x010662C6), Ragemont (ID: 17195718/0x010662C6)], work=29*
190: 0x061A [0x2B] Ragemont (ID: 17195718/0x010662C6) [11356*]:
    → "Not everyone is possessed of the ability to traverse dimensions, mind you. How it's decided that one child will be born with the gift but not another, mortals such as ourselves may never learn the truth of it."
191: 0x0621 [0x23] WAIT_FOR_DIALOG_INTERACTION
192: 0x0622 [0x53] WAIT_SCHEDULER_TASK: Wait for scheduler "thk2" with entities [Ragemont (ID: 17195718/0x010662C6), Ragemont (ID: 17195718/0x010662C6)]
193: 0x062F [0x0E] ExtData[1]->WorkLocal[2] |= 1*
194: 0x0634 [0x01] GOTO 0x0562

SUBROUTINE_06D0:
195: 0x06D0 [0x52] END_LOAD_SCHEDULER: End scheduler "6310" with entities [LocalPlayer, LocalPlayer], work=488*
196: 0x06DF [0x52] END_LOAD_SCHEDULER: End scheduler "6313" with entities [LocalPlayer, LocalPlayer], work=488*
197: 0x06EE [0x52] END_LOAD_SCHEDULER: End scheduler "6315" with entities [LocalPlayer, LocalPlayer], work=488*
198: 0x06FD [0x45] LOAD_SCHEDULED_TASK: Load scheduler "6316" with entities [LocalPlayer, LocalPlayer], work=[488*, 0*]
199: 0x070E [0x2B] Ragemont (ID: 17195718/0x010662C6) [11360*]:
    → "I see..."
200: 0x0715 [0x23] WAIT_FOR_DIALOG_INTERACTION
201: 0x0716 [0x6E] Ragemont (ID: 17195718/0x010662C6) uses emote 21*
202: 0x071D [0x99] Wait for Ragemont (ID: 17195718/0x010662C6) animation to complete
203: 0x0722 [0x03] Work_Zone[2] = 1271*
204: 0x0727 [0x2B] Ragemont (ID: 17195718/0x010662C6) [11361*]:
    → "Ah, yes. With regards to the $3..."
205: 0x072E [0x1C] WAIT(90* ticks)
206: 0x0731 [0x23] WAIT_FOR_DIALOG_INTERACTION
207: 0x0732 [0x4A] Ragemont (ID: 17195718/0x010662C6) looks at Cavernous Maw (ID: 17195668/0x01066294)
208: 0x073B [0x52] END_LOAD_SCHEDULER: End scheduler "6316" with entities [LocalPlayer, LocalPlayer], work=488*
209: 0x074A [0x45] LOAD_SCHEDULED_TASK: Load scheduler "6317" with entities [LocalPlayer, LocalPlayer], work=[488*, 0*]
210: 0x075B [0x1C] WAIT(45* ticks)
211: 0x075E [0x79] LocalPlayer looks at Cavernous Maw (ID: 17195668/0x01066294) (Basic look)
212: 0x0768 [0x2B] Ragemont (ID: 17195718/0x010662C6) [11362*]:
    → "Beyond this cavernous maw lies another La Theine Plateau, though you will find little resemblance beyond the name."
213: 0x076F [0x23] WAIT_FOR_DIALOG_INTERACTION
214: 0x0770 [0x52] END_LOAD_SCHEDULER: End scheduler "6317" with entities [LocalPlayer, LocalPlayer], work=488*
215: 0x077F [0x45] LOAD_SCHEDULED_TASK: Load scheduler "6318" with entities [LocalPlayer, LocalPlayer], work=[488*, 0*]
216: 0x0790 [0x5D] SET_MUSIC_VOLUME(volume=0*, fade_time=120*)
217: 0x0795 [0x1C] WAIT(90* ticks)
218: 0x0798 [0x2B] Ragemont (ID: 17195718/0x010662C6) [11363*]:
    → "I must say, it eases the heart to stand beneath a sky that isn't a constant and bloody reminder of encroaching death..."
219: 0x079F [0x23] WAIT_FOR_DIALOG_INTERACTION
220: 0x07A0 [0x52] END_LOAD_SCHEDULER: End scheduler "6318" with entities [LocalPlayer, LocalPlayer], work=488*
221: 0x07AF [0x45] LOAD_SCHEDULED_TASK: Load scheduler "6319" with entities [LocalPlayer, LocalPlayer], work=[488*, 0*]
222: 0x07C0 [0x1C] WAIT(60* ticks)
223: 0x07C3 [0x4A] Ragemont (ID: 17195718/0x010662C6) looks at LocalPlayer
224: 0x07CC [0x1C] WAIT(30* ticks)
225: 0x07CF [0x79] LocalPlayer looks at Ragemont (ID: 17195718/0x010662C6) (Basic look)
226: 0x07D9 [0x2B] Ragemont (ID: 17195718/0x010662C6) [11364*]:
    → "Ah, once again I must apologize. I am wont to become lost in such sentimental thoughts on occasion."
227: 0x07E0 [0x23] WAIT_FOR_DIALOG_INTERACTION
228: 0x07E1 [0x2B] Ragemont (ID: 17195718/0x010662C6) [11365*]:
    → "The La Theine of Abyssea is no longer the picturesque, tranquil plateau we stand upon. Seeing its former beauty restored is my fervent desire."
229: 0x07E8 [0x23] WAIT_FOR_DIALOG_INTERACTION
230: 0x07E9 [0x5C] MUSIC_CONTROL: Set Idle (Day) music to song 157*
231: 0x07ED [0x5C] MUSIC_CONTROL: Set Idle (Night) music to song 157*
232: 0x07F1 [0x9A] WAIT_MUSIC_SERVER()
233: 0x07F2 [0xC5] LOAD_SCHEDULED_TASK_ALT3: Load scheduler 0x80033030 for entities [??? (ID: 17195721/0x010662C9), ??? (ID: 17195721/0x010662C9)], work=213*, param=12403
234: 0x0803 [0x52] END_LOAD_SCHEDULER: End scheduler "6319" with entities [LocalPlayer, LocalPlayer], work=488*
235: 0x0812 [0x45] LOAD_SCHEDULED_TASK: Load scheduler "6320" with entities [LocalPlayer, LocalPlayer], work=[488*, 0*]
236: 0x0823 [0x7B] Ragemont (ID: 17195718/0x010662C6) stops talking
237: 0x0828 [0x66] LOAD_EXT_SCHEDULER_MAIN: Load scheduler "thk1" with entities [Ragemont (ID: 17195718/0x010662C6), Ragemont (ID: 17195718/0x010662C6)], work=29*
238: 0x0837 [0x1C] WAIT(60* ticks)
239: 0x083A [0x2B] Ragemont (ID: 17195718/0x010662C6) [11366*]:
    → "There exists an Abyssean monster that has been a great scourge to us--a Gigas of fearsome stature and savagery who dons a golden helm."
240: 0x0841 [0x23] WAIT_FOR_DIALOG_INTERACTION
241: 0x0842 [0x52] END_LOAD_SCHEDULER: End scheduler "6320" with entities [LocalPlayer, LocalPlayer], work=488*
242: 0x0851 [0x45] LOAD_SCHEDULED_TASK: Load scheduler "6321" with entities [LocalPlayer, LocalPlayer], work=[488*, 0*]
243: 0x0862 [0x77] SET_EVENT_TIME_WEATHER(hour=255*, weather=1*)
244: 0x0867 [0xAB] EventEntity->UnknownFlag = 1 // Enable unknown flag
245: 0x0869 [0x1C] WAIT(60* ticks)
246: 0x086C [0x2B] Ragemont (ID: 17195718/0x010662C6) [11367*]:
    → "Defeating this creature would be tantamount to laying the foundation stones for our dreams of peace."
247: 0x0873 [0x23] WAIT_FOR_DIALOG_INTERACTION
248: 0x0874 [0x52] END_LOAD_SCHEDULER: End scheduler "6321" with entities [LocalPlayer, LocalPlayer], work=488*
249: 0x0883 [0x45] LOAD_SCHEDULED_TASK: Load scheduler "6322" with entities [LocalPlayer, LocalPlayer], work=[488*, 0*]
250: 0x0894 [0x1C] WAIT(60* ticks)
251: 0x0897 [0x2B] Ragemont (ID: 17195718/0x010662C6) [11368*]:
    → "Yet a foundation requires many a heavy stone to be laid if a sturdy tower is to be built. More often than not, though, it feels as if we go about constructing this tower of dreams bereft of an architectural plan."
252: 0x089E [0x23] WAIT_FOR_DIALOG_INTERACTION
253: 0x089F [0x52] END_LOAD_SCHEDULER: End scheduler "6322" with entities [LocalPlayer, LocalPlayer], work=488*
254: 0x08AE [0x45] LOAD_SCHEDULED_TASK: Load scheduler "6323" with entities [LocalPlayer, LocalPlayer], work=[488*, 0*]
255: 0x08BF [0xAB] EventEntity->UnknownFlag = 0 // Disable unknown flag
256: 0x08C1 [0x78] ENABLE_GAME_TIMER_RESET_WEATHER()
257: 0x08C2 [0x66] LOAD_EXT_SCHEDULER_MAIN: Load scheduler "thk2" with entities [Ragemont (ID: 17195718/0x010662C6), Ragemont (ID: 17195718/0x010662C6)], work=29*
258: 0x08D1 [0x1C] WAIT(60* ticks)
259: 0x08D4 [0x4E] SET_ENTITY_HIDE_FLAG: Hide Unnamed NPC (ID: 17195720/0x010662C8)
260: 0x08DA [0xC5] LOAD_SCHEDULED_TASK_ALT3: Load scheduler 0x8003306C for entities [??? (ID: 17195721/0x010662C9), ??? (ID: 17195721/0x010662C9)], work=213*, param=26987
261: 0x08EB [0x2B] Ragemont (ID: 17195718/0x010662C6) [11369*]:
    → "And so we come to this world, seeking the aid of brave souls such as you. By ourselves, we stand not a sliver of a chance against the Abyssean hordes."
262: 0x08F2 [0x23] WAIT_FOR_DIALOG_INTERACTION
263: 0x08F3 [0x53] WAIT_SCHEDULER_TASK: Wait for scheduler "thk2" with entities [Ragemont (ID: 17195718/0x010662C6), Ragemont (ID: 17195718/0x010662C6)]
264: 0x0900 [0x52] END_LOAD_SCHEDULER: End scheduler "6323" with entities [LocalPlayer, LocalPlayer], work=488*
265: 0x090F [0x45] LOAD_SCHEDULED_TASK: Load scheduler "6324" with entities [LocalPlayer, LocalPlayer], work=[488*, 0*]
266: 0x0920 [0x5D] SET_MUSIC_VOLUME(volume=0*, fade_time=300*)
267: 0x0925 [0x59] UPDATE_ENTITY_DATA: Unnamed NPC (ID: 17195722/0x010662CA)->Render.Flags0 |= 0x200000
268: 0x092C [0xBA] SET_ENTITY_POSITION(entity_id=Unnamed NPC (ID: 17195722/0x010662CA), pos_x=-561.308*, pos_z=639.537*, pos_y=-1.999*, direction=87.4°*)
269: 0x0939 [0x66] LOAD_EXT_SCHEDULER_MAIN: Load scheduler "twb0" with entities [Ragemont (ID: 17195718/0x010662C6), Ragemont (ID: 17195718/0x010662C6)], work=29*
270: 0x0948 [0x2B] Ragemont (ID: 17195718/0x010662C6) [11370*]:
    → "Egads, I've lost track of time yet again. I must away before I'm missed. Before I take my leave, however, I would offer you a few words of advice."
271: 0x094F [0x23] WAIT_FOR_DIALOG_INTERACTION
272: 0x0950 [0x2B] Ragemont (ID: 17195718/0x010662C6) [11371*]:
    → "You are not alone. There are others of this world who have been blessed with the same gift as you."
273: 0x0957 [0x23] WAIT_FOR_DIALOG_INTERACTION
274: 0x0958 [0x52] END_LOAD_SCHEDULER: End scheduler "6324" with entities [LocalPlayer, LocalPlayer], work=488*
275: 0x0967 [0x45] LOAD_SCHEDULED_TASK: Load scheduler "6325" with entities [LocalPlayer, LocalPlayer], work=[488*, 0*]
276: 0x0978 [0x66] LOAD_EXT_SCHEDULER_MAIN: Load scheduler "twb1" with entities [Ragemont (ID: 17195718/0x010662C6), Ragemont (ID: 17195718/0x010662C6)], work=29*
277: 0x0987 [0x79] Ragemont (ID: 17195718/0x010662C6) looks at Unnamed NPC (ID: 17195722/0x010662CA) (Basic look)
278: 0x0991 [0x1C] WAIT(90* ticks)
279: 0x0994 [0x2B] Ragemont (ID: 17195718/0x010662C6) [11372*]:
    → "And do tread warily when first you set foot on Abyssean soil. For though our worlds may bear some resemblance, the difference may well determine life and death."
280: 0x099B [0x23] WAIT_FOR_DIALOG_INTERACTION
281: 0x099C [0x79] Ragemont (ID: 17195718/0x010662C6) looks at LocalPlayer (Basic look)
282: 0x09A6 [0x1C] WAIT(60* ticks)
283: 0x09A9 [0x2B] Ragemont (ID: 17195718/0x010662C6) [11373*]:
    → "'Til we meet again...fare you well!"
284: 0x09B0 [0x23] WAIT_FOR_DIALOG_INTERACTION
285: 0x09B1 [0x52] END_LOAD_SCHEDULER: End scheduler "6325" with entities [LocalPlayer, LocalPlayer], work=488*
286: 0x09C0 [0x45] LOAD_SCHEDULED_TASK: Load scheduler "6326" with entities [LocalPlayer, LocalPlayer], work=[488*, 0*]
287: 0x09D1 [0x6E] Ragemont (ID: 17195718/0x010662C6) uses emote 9*
288: 0x09D8 [0x99] Wait for Ragemont (ID: 17195718/0x010662C6) animation to complete
289: 0x09DD [0xCD] LOAD_SCHEDULED_TASK_ALT4: Load scheduler "main" with entities [Ragemont (ID: 17195718/0x010662C6), Ragemont (ID: 17195718/0x010662C6)], work=[79*, 0*]
290: 0x09EE [0x1C] WAIT(210* ticks)
291: 0x09F1 [0x1A] CALL_SUBROUTINE(address=0x1B6F)
292: 0x09F4 [0x1C] WAIT(30* ticks)
293: 0x09F7 [0x52] END_LOAD_SCHEDULER: End scheduler "6326" with entities [LocalPlayer, LocalPlayer], work=488*
294: 0x0A06 [0x45] LOAD_SCHEDULED_TASK: Load scheduler "0blf" with entities [LocalPlayer, LocalPlayer], work=[488*, 0*]
295: 0x0A17 [0x5C] MUSIC_CONTROL: Set Idle (Day) music to song 0*
296: 0x0A1B [0x5C] MUSIC_CONTROL: Set Idle (Night) music to song 0*
297: 0x0A1F [0x9A] WAIT_MUSIC_SERVER()
298: 0x0A20 [0x46] CAMERA_CONTROL: Restore default settings
299: 0x0A22 [0x45] LOAD_SCHEDULED_TASK: Load scheduler "fdi2" with entities [LocalPlayer, LocalPlayer], work=[200*, 0*]
300: 0x0A33 [0x21] END_EVENT
301: 0x0A34 [0x00] END_REQSTACK()
```

#### Data or dead code:

```
# Dead code (unreachable instructions):
     0x0637 [0x01] GOTO 0x06D0
     0x06CD [0x01] GOTO 0x06D0
```

### Event 10

#### Metadata

| Field        | Value     |
|--------------|-----------|
| Entrypoint   | 0x0A35    |
| Data Size    | 895 bytes |
| Instructions | 123       |

```
      00 01 02 03 04 05 06 07  08 09 0A 0B 0C 0D 0E 0F
      -- -- -- -- -- -- -- --  -- -- -- -- -- -- -- --
0A30:                42 1A 6F  1B 46 01 38 00 80 4E 00       B.o.F.8..N.
0A40: F0 FF FF 7F 27 10 C7 62  06 01 04 4E 00 CA 62 06  ....'..b...N..b.
0A50: 01 92 01 C7 62 06 01 94  01 F0 FF FF 7F 94 01 C7  ....b...........
0A60: 62 06 01 94 01 94 62 06  01 94 01 CA 62 06 01 BA  b.....b.....b...
0A70: F0 FF FF 7F 57 80 58 80  03 80 59 80 BA C7 62 06  ....W.X...Y...b.
0A80: 01 5A 80 5B 80 5C 80 5D  80 BA CA 62 06 01 5A 80  .Z.[.\.]...b..Z.
0A90: 5B 80 5C 80 5D 80 80 F0  FF FF 7F 80 C7 62 06 01  [.\.]........b..
0AA0: 80 94 62 06 01 1C 0F 80  79 00 F0 FF FF 7F CA 62  ..b.....y......b
0AB0: 06 01 29 10 F0 FF FF 7F  2B 6C F0 FF FF 7F 03 80  ..).....+l......
0AC0: 19 80 92 01 F0 FF FF 7F  CD 14 80 F0 FF FF 7F F0  ................
0AD0: FF FF 7F 6D 61 69 6E 03  80 45 11 80 F0 FF FF 7F  ...main..E......
0AE0: F0 FF FF 7F 36 33 33 30  03 80 1A 4E 1B 1C 12 80  ....6330...N....
0AF0: 92 00 F0 FF FF 7F 1C 15  80 52 11 80 F0 FF FF 7F  .........R......
0B00: F0 FF FF 7F 36 33 33 30  45 11 80 F0 FF FF 7F F0  ....6330E.......
0B10: FF FF 7F 36 33 33 31 03  80 79 00 F0 FF FF 7F C7  ...6331..y......
0B20: 62 06 01 29 10 F0 FF FF  7F 2C 55 11 80 F0 FF FF  b..).....,U.....
0B30: 7F F0 FF FF 7F 36 33 33  31 45 11 80 F0 FF FF 7F  .....6331E......
0B40: F0 FF FF 7F 36 33 33 32  03 80 29 10 C7 62 06 01  ....6332..)..b..
0B50: 09 7C 00 C7 62 06 01 2B  C7 62 06 01 5E 80 23 7C  .|..b..+.b..^.#|
0B60: 01 C7 62 06 01 79 00 C7  62 06 01 F0 FF FF 7F 48  ..b..y..b......H
0B70: 5F 80 1C 12 80 BA CA 62  06 01 60 80 61 80 62 80  _......b..`.a.b.
0B80: 63 80 2B C7 62 06 01 64  80 23 55 11 80 F0 FF FF  c.+.b..d.#U.....
0B90: 7F F0 FF FF 7F 36 33 33  32 45 11 80 F0 FF FF 7F  .....6332E......
0BA0: F0 FF FF 7F 36 33 33 33  03 80 1C 0F 80 29 10 C7  ....6333.....)..
0BB0: 62 06 01 0A 2B C7 62 06  01 65 80 23 52 11 80 F0  b...+.b..e.#R...
0BC0: FF FF 7F F0 FF FF 7F 36  33 33 33 45 11 80 F0 FF  .......6333E....
0BD0: FF 7F F0 FF FF 7F 36 33  33 34 03 80 79 00 C7 62  ......6334..y..b
0BE0: 06 01 CA 62 06 01 1C 0F  80 2B C7 62 06 01 66 80  ...b.....+.b..f.
0BF0: 23 2B C7 62 06 01 67 80  23 5C 00 68 80 5C 01 68  #+.b..g.#\.h.\.h
0C00: 80 9A 52 11 80 F0 FF FF  7F F0 FF FF 7F 36 33 33  ..R..........633
0C10: 34 45 11 80 F0 FF FF 7F  F0 FF FF 7F 36 33 33 35  4E..........6335
0C20: 03 80 79 00 C7 62 06 01  F0 FF FF 7F 1C 15 80 2B  ..y..b.........+
0C30: C7 62 06 01 69 80 23 27  10 C7 62 06 01 0B 1C 22  .b..i.#'..b...."
0C40: 80 59 05 CA 62 06 01 01  BA CA 62 06 01 6A 80 6B  .Y..b.....b..j.k
0C50: 80 6C 80 59 80 2B C7 62  06 01 6D 80 23 2A 10 C7  .l.Y.+.b..m.#*..
0C60: 62 06 01 52 11 80 F0 FF  FF 7F F0 FF FF 7F 36 33  b..R..........63
0C70: 33 35 45 11 80 F0 FF FF  7F F0 FF FF 7F 36 33 33  35E..........633
0C80: 36 03 80 03 01 10 19 80  43 00 43 01 2B C7 62 06  6.......C.C.+.b.
0C90: 01 6E 80 23 52 11 80 F0  FF FF 7F F0 FF FF 7F 36  .n.#R..........6
0CA0: 33 33 36 45 11 80 F0 FF  FF 7F F0 FF FF 7F 36 33  336E..........63
0CB0: 33 37 03 80 79 00 C7 62  06 01 CA 62 06 01 1C 22  37..y..b...b..."
0CC0: 80 2B C7 62 06 01 6F 80  23 2B C7 62 06 01 70 80  .+.b..o.#+.b..p.
0CD0: 23 52 11 80 F0 FF FF 7F  F0 FF FF 7F 36 33 33 37  #R..........6337
0CE0: 45 11 80 F0 FF FF 7F F0  FF FF 7F 36 33 33 38 03  E..........6338.
0CF0: 80 5D 03 80 4A 80 7B C7  62 06 01 1C 15 80 7C 00  .]..J.{.b.....|.
0D00: C7 62 06 01 2B C7 62 06  01 5E 80 23 7C 01 C7 62  .b..+.b..^.#|..b
0D10: 06 01 2B C7 62 06 01 71  80 23 79 00 C7 62 06 01  ..+.b..q.#y..b..
0D20: CA 62 06 01 1C 0F 80 79  00 F0 FF FF 7F CA 62 06  .b.....y......b.
0D30: 01 1C 15 80 2B C7 62 06  01 72 80 23 52 11 80 F0  ....+.b..r.#R...
0D40: FF FF 7F F0 FF FF 7F 36  33 33 38 45 11 80 F0 FF  .......6338E....
0D50: FF 7F F0 FF FF 7F 36 33  33 39 03 80 1C 12 80 1A  ......6339......
0D60: 6F 1B 1C 0F 80 52 11 80  F0 FF FF 7F F0 FF FF 7F  o....R..........
0D70: 36 33 33 39 45 11 80 F0  FF FF 7F F0 FF FF 7F 30  6339E..........0
0D80: 62 6C 66 03 80 5C 00 03  80 5C 01 03 80 9A 46 00  blf..\...\....F.
0D90: 45 73 80 F8 FF FF 7F F8  FF FF 7F 71 73 74 63 03  Es.........qstc.
0DA0: 80 45 56 80 F0 FF FF 7F  F0 FF FF 7F 66 64 69 32  .EV.........fdi2
0DB0: 03 80 21 00                                       ..!.            
```

#### Opcodes

```
  0: 0x0A35 [0x42] SET_CLI_EVENT_CANCEL_DATA()
  1: 0x0A36 [0x1A] CALL_SUBROUTINE(address=0x1B6F)
  2: 0x0A39 [0x46] CAMERA_CONTROL: Disable user control
  3: 0x0A3B [0x38] SET_CLIENT_EVENT_MODE(mode=19*)
  4: 0x0A3E [0x4E] SET_ENTITY_HIDE_FLAG: Show LocalPlayer
  5: 0x0A44 [0x27] REQ_SET(priority=0x10, entity_id=Knotty Oak (ID: 17195719/0x010662C7), tag_num=0x04)
  6: 0x0A4B [0x4E] SET_ENTITY_HIDE_FLAG: Show Unnamed NPC (ID: 17195722/0x010662CA)
  7: 0x0A51 [0x92] Knotty Oak (ID: 17195719/0x010662C7)->Render.Flags3 ^= 0x01
  8: 0x0A57 [0x94] LocalPlayer->Render.Flags3 ^= 0x01
  9: 0x0A5D [0x94] Knotty Oak (ID: 17195719/0x010662C7)->Render.Flags3 ^= 0x01
 10: 0x0A63 [0x94] Cavernous Maw (ID: 17195668/0x01066294)->Render.Flags3 ^= 0x01
 11: 0x0A69 [0x94] Unnamed NPC (ID: 17195722/0x010662CA)->Render.Flags3 ^= 0x01
 12: 0x0A6F [0xBA] SET_ENTITY_POSITION(entity_id=LocalPlayer, pos_x=-561.850*, pos_z=641.391*, pos_y=0.000*, direction=216.7°*)
 13: 0x0A7C [0xBA] SET_ENTITY_POSITION(entity_id=Knotty Oak (ID: 17195719/0x010662C7), pos_x=-564.700*, pos_z=643.576*, pos_y=0.033*, direction=36.0°*)
 14: 0x0A89 [0xBA] SET_ENTITY_POSITION(entity_id=Unnamed NPC (ID: 17195722/0x010662CA), pos_x=-564.700*, pos_z=643.576*, pos_y=0.033*, direction=36.0°*)
 15: 0x0A96 [0x80] LOAD_WAIT(entity=LocalPlayer)
 16: 0x0A9B [0x80] LOAD_WAIT(entity=Knotty Oak (ID: 17195719/0x010662C7))
 17: 0x0AA0 [0x80] LOAD_WAIT(entity=Cavernous Maw (ID: 17195668/0x01066294))
 18: 0x0AA5 [0x1C] WAIT(30* ticks)
 19: 0x0AA8 [0x79] LocalPlayer looks at Unnamed NPC (ID: 17195722/0x010662CA) (Basic look)
 20: 0x0AB2 [0x29] REQ_SET_WAIT(priority=0x10, entity_id=LocalPlayer, tag_num=0x2B)
 21: 0x0AB9 [0x6C] FADE_ENTITY_COLOR(entity_id=LocalPlayer, end_alpha=0*, fade_time=1*)
 22: 0x0AC2 [0x92] LocalPlayer->Render.Flags3 ^= 0x01
 23: 0x0AC8 [0xCD] LOAD_SCHEDULED_TASK_ALT4: Load scheduler "main" with entities [LocalPlayer, LocalPlayer], work=[80*, 0*]
 24: 0x0AD9 [0x45] LOAD_SCHEDULED_TASK: Load scheduler "6330" with entities [LocalPlayer, LocalPlayer], work=[488*, 0*]
 25: 0x0AEA [0x1A] CALL_SUBROUTINE(address=0x1B4E)
 26: 0x0AED [0x1C] WAIT(120* ticks)
 27: 0x0AF0 [0x92] LocalPlayer->Render.Flags3 = Flags3  // No change (flag=0)
 28: 0x0AF6 [0x1C] WAIT(60* ticks)
 29: 0x0AF9 [0x52] END_LOAD_SCHEDULER: End scheduler "6330" with entities [LocalPlayer, LocalPlayer], work=488*
 30: 0x0B08 [0x45] LOAD_SCHEDULED_TASK: Load scheduler "6331" with entities [LocalPlayer, LocalPlayer], work=[488*, 0*]
 31: 0x0B19 [0x79] LocalPlayer looks at Knotty Oak (ID: 17195719/0x010662C7) (Basic look)
 32: 0x0B23 [0x29] REQ_SET_WAIT(priority=0x10, entity_id=LocalPlayer, tag_num=0x2C)
 33: 0x0B2A [0x55] WAIT_LOAD_SCHEDULER: Wait for scheduler "6331" with entities [LocalPlayer, LocalPlayer], work=488*
 34: 0x0B39 [0x45] LOAD_SCHEDULED_TASK: Load scheduler "6332" with entities [LocalPlayer, LocalPlayer], work=[488*, 0*]
 35: 0x0B4A [0x29] REQ_SET_WAIT(priority=0x10, entity_id=Knotty Oak (ID: 17195719/0x010662C7), tag_num=0x09)
 36: 0x0B51 [0x7C] Knotty Oak (ID: 17195719/0x010662C7)->Render.Flags2 |= 0x00
 37: 0x0B57 [0x2B] Knotty Oak (ID: 17195719/0x010662C7) [11374*]:
    → "..."
 38: 0x0B5E [0x23] WAIT_FOR_DIALOG_INTERACTION
 39: 0x0B5F [0x7C] Knotty Oak (ID: 17195719/0x010662C7)->Render.Flags2 |= 0x01
 40: 0x0B65 [0x79] Knotty Oak (ID: 17195719/0x010662C7) looks at LocalPlayer (Basic look)
 41: 0x0B6F [0x48] [System] [11375*]:
    → "The stranger stares intently at <Player>."
 42: 0x0B72 [0x1C] WAIT(120* ticks)
 43: 0x0B75 [0xBA] SET_ENTITY_POSITION(entity_id=Unnamed NPC (ID: 17195722/0x010662CA), pos_x=-563.470*, pos_z=643.693*, pos_y=-0.016*, direction=216.8°*)
 44: 0x0B82 [0x2B] Knotty Oak (ID: 17195719/0x010662C7) [11376*]:
    → "You must be <Player>."
 45: 0x0B89 [0x23] WAIT_FOR_DIALOG_INTERACTION
 46: 0x0B8A [0x55] WAIT_LOAD_SCHEDULER: Wait for scheduler "6332" with entities [LocalPlayer, LocalPlayer], work=488*
 47: 0x0B99 [0x45] LOAD_SCHEDULED_TASK: Load scheduler "6333" with entities [LocalPlayer, LocalPlayer], work=[488*, 0*]
 48: 0x0BAA [0x1C] WAIT(30* ticks)
 49: 0x0BAD [0x29] REQ_SET_WAIT(priority=0x10, entity_id=Knotty Oak (ID: 17195719/0x010662C7), tag_num=0x0A)
 50: 0x0BB4 [0x2B] Knotty Oak (ID: 17195719/0x010662C7) [11377*]:
    → "The name's Oak. Knotty Oak."
 51: 0x0BBB [0x23] WAIT_FOR_DIALOG_INTERACTION
 52: 0x0BBC [0x52] END_LOAD_SCHEDULER: End scheduler "6333" with entities [LocalPlayer, LocalPlayer], work=488*
 53: 0x0BCB [0x45] LOAD_SCHEDULED_TASK: Load scheduler "6334" with entities [LocalPlayer, LocalPlayer], work=[488*, 0*]
 54: 0x0BDC [0x79] Knotty Oak (ID: 17195719/0x010662C7) looks at Unnamed NPC (ID: 17195722/0x010662CA) (Basic look)
 55: 0x0BE6 [0x1C] WAIT(30* ticks)
 56: 0x0BE9 [0x2B] Knotty Oak (ID: 17195719/0x010662C7) [11378*]:
    → "I know you're expecting to see Ragemont, but I'm afraid he won't be coming by anymore."
 57: 0x0BF0 [0x23] WAIT_FOR_DIALOG_INTERACTION
 58: 0x0BF1 [0x2B] Knotty Oak (ID: 17195719/0x010662C7) [11379*]:
    → "He saved my life in battle, but paid for it with his own. For this gift, I intend to carry on his legacy."
 59: 0x0BF8 [0x23] WAIT_FOR_DIALOG_INTERACTION
 60: 0x0BF9 [0x5C] MUSIC_CONTROL: Set Idle (Day) music to song 122*
 61: 0x0BFD [0x5C] MUSIC_CONTROL: Set Idle (Night) music to song 122*
 62: 0x0C01 [0x9A] WAIT_MUSIC_SERVER()
 63: 0x0C02 [0x52] END_LOAD_SCHEDULER: End scheduler "6334" with entities [LocalPlayer, LocalPlayer], work=488*
 64: 0x0C11 [0x45] LOAD_SCHEDULED_TASK: Load scheduler "6335" with entities [LocalPlayer, LocalPlayer], work=[488*, 0*]
 65: 0x0C22 [0x79] Knotty Oak (ID: 17195719/0x010662C7) looks at LocalPlayer (Basic look)
 66: 0x0C2C [0x1C] WAIT(60* ticks)
 67: 0x0C2F [0x2B] Knotty Oak (ID: 17195719/0x010662C7) [11380*]:
    → "I've heard of your exploits in our world, <Player>. You've proven yourself a true friend to the cause. Thank you."
 68: 0x0C36 [0x23] WAIT_FOR_DIALOG_INTERACTION
 69: 0x0C37 [0x27] REQ_SET(priority=0x10, entity_id=Knotty Oak (ID: 17195719/0x010662C7), tag_num=0x0B)
 70: 0x0C3E [0x1C] WAIT(90* ticks)
 71: 0x0C41 [0x59] UPDATE_ENTITY_DATA: Unnamed NPC (ID: 17195722/0x010662CA)->Render.Flags0 |= 0x200000
 72: 0x0C48 [0xBA] SET_ENTITY_POSITION(entity_id=Unnamed NPC (ID: 17195722/0x010662CA), pos_x=-563.572*, pos_z=640.120*, pos_y=-2.999*, direction=216.7°*)
 73: 0x0C55 [0x2B] Knotty Oak (ID: 17195719/0x010662C7) [11381*]:
    → "Now this isn't much, but I think you'll find it useful."
 74: 0x0C5C [0x23] WAIT_FOR_DIALOG_INTERACTION
 75: 0x0C5D [0x2A] GET_REQ_LEVEL(level=16, entity_id=Knotty Oak (ID: 17195719/0x010662C7))
 76: 0x0C63 [0x52] END_LOAD_SCHEDULER: End scheduler "6335" with entities [LocalPlayer, LocalPlayer], work=488*
 77: 0x0C72 [0x45] LOAD_SCHEDULED_TASK: Load scheduler "6336" with entities [LocalPlayer, LocalPlayer], work=[488*, 0*]
 78: 0x0C83 [0x03] Work_Zone[1] = 1*
 79: 0x0C88 [0x43] SEND_EVENT_UPDATE: Send pending tag to server (packet 0x005B)
 80: 0x0C8A [0x43] SEND_EVENT_UPDATE: Check pending flag (skip if not pending)
 81: 0x0C8C [0x2B] Knotty Oak (ID: 17195719/0x010662C7) [11382*]:
    → "6. Foreign-dimensioners are known to have an affinity for it."
 82: 0x0C93 [0x23] WAIT_FOR_DIALOG_INTERACTION
 83: 0x0C94 [0x52] END_LOAD_SCHEDULER: End scheduler "6336" with entities [LocalPlayer, LocalPlayer], work=488*
 84: 0x0CA3 [0x45] LOAD_SCHEDULED_TASK: Load scheduler "6337" with entities [LocalPlayer, LocalPlayer], work=[488*, 0*]
 85: 0x0CB4 [0x79] Knotty Oak (ID: 17195719/0x010662C7) looks at Unnamed NPC (ID: 17195722/0x010662CA) (Basic look)
 86: 0x0CBE [0x1C] WAIT(90* ticks)
 87: 0x0CC1 [0x2B] Knotty Oak (ID: 17195719/0x010662C7) [11383*]:
    → "Whether we've gotten closer to fulfilling Ragemont's wish, no one can say."
 88: 0x0CC8 [0x23] WAIT_FOR_DIALOG_INTERACTION
 89: 0x0CC9 [0x2B] Knotty Oak (ID: 17195719/0x010662C7) [11384*]:
    → "But I believe that his meeting with you will count for something."
 90: 0x0CD0 [0x23] WAIT_FOR_DIALOG_INTERACTION
 91: 0x0CD1 [0x52] END_LOAD_SCHEDULER: End scheduler "6337" with entities [LocalPlayer, LocalPlayer], work=488*
 92: 0x0CE0 [0x45] LOAD_SCHEDULED_TASK: Load scheduler "6338" with entities [LocalPlayer, LocalPlayer], work=[488*, 0*]
 93: 0x0CF1 [0x5D] SET_MUSIC_VOLUME(volume=0*, fade_time=300*)
 94: 0x0CF6 [0x7B] Knotty Oak (ID: 17195719/0x010662C7) stops talking
 95: 0x0CFB [0x1C] WAIT(60* ticks)
 96: 0x0CFE [0x7C] Knotty Oak (ID: 17195719/0x010662C7)->Render.Flags2 |= 0x00
 97: 0x0D04 [0x2B] Knotty Oak (ID: 17195719/0x010662C7) [11374*]:
    → "..."
 98: 0x0D0B [0x23] WAIT_FOR_DIALOG_INTERACTION
 99: 0x0D0C [0x7C] Knotty Oak (ID: 17195719/0x010662C7)->Render.Flags2 |= 0x01
100: 0x0D12 [0x2B] Knotty Oak (ID: 17195719/0x010662C7) [11385*]:
    → "Sorry, but I was never good with words."
101: 0x0D19 [0x23] WAIT_FOR_DIALOG_INTERACTION
102: 0x0D1A [0x79] Knotty Oak (ID: 17195719/0x010662C7) looks at Unnamed NPC (ID: 17195722/0x010662CA) (Basic look)
103: 0x0D24 [0x1C] WAIT(30* ticks)
104: 0x0D27 [0x79] LocalPlayer looks at Unnamed NPC (ID: 17195722/0x010662CA) (Basic look)
105: 0x0D31 [0x1C] WAIT(60* ticks)
106: 0x0D34 [0x2B] Knotty Oak (ID: 17195719/0x010662C7) [11386*]:
    → "This is one peaceful world you got here. It's good to see exactly what it is we're fighting to reclaim..."
107: 0x0D3B [0x23] WAIT_FOR_DIALOG_INTERACTION
108: 0x0D3C [0x52] END_LOAD_SCHEDULER: End scheduler "6338" with entities [LocalPlayer, LocalPlayer], work=488*
109: 0x0D4B [0x45] LOAD_SCHEDULED_TASK: Load scheduler "6339" with entities [LocalPlayer, LocalPlayer], work=[488*, 0*]
110: 0x0D5C [0x1C] WAIT(120* ticks)
111: 0x0D5F [0x1A] CALL_SUBROUTINE(address=0x1B6F)
112: 0x0D62 [0x1C] WAIT(30* ticks)
113: 0x0D65 [0x52] END_LOAD_SCHEDULER: End scheduler "6339" with entities [LocalPlayer, LocalPlayer], work=488*
114: 0x0D74 [0x45] LOAD_SCHEDULED_TASK: Load scheduler "0blf" with entities [LocalPlayer, LocalPlayer], work=[488*, 0*]
115: 0x0D85 [0x5C] MUSIC_CONTROL: Set Idle (Day) music to song 0*
116: 0x0D89 [0x5C] MUSIC_CONTROL: Set Idle (Night) music to song 0*
117: 0x0D8D [0x9A] WAIT_MUSIC_SERVER()
118: 0x0D8E [0x46] CAMERA_CONTROL: Restore default settings
119: 0x0D90 [0x45] LOAD_SCHEDULED_TASK: Load scheduler "qstc" with entities [EventEntity, EventEntity], work=[201*, 0*]
120: 0x0DA1 [0x45] LOAD_SCHEDULED_TASK: Load scheduler "fdi2" with entities [LocalPlayer, LocalPlayer], work=[200*, 0*]
121: 0x0DB2 [0x21] END_EVENT
122: 0x0DB3 [0x00] END_REQSTACK()
```

### Event 11

#### Metadata

| Field        | Value      |
|--------------|------------|
| Entrypoint   | 0x0DB4     |
| Data Size    | 1883 bytes |
| Instructions | 244        |

```
      00 01 02 03 04 05 06 07  08 09 0A 0B 0C 0D 0E 0F
      -- -- -- -- -- -- -- --  -- -- -- -- -- -- -- --
0DB0:             42 03 01 00  08 10 03 00 00 09 10 1A      B...........
0DC0: 6F 1B 46 01 38 00 80 02  01 00 03 80 00 D2 0D 01  o.F.8...........
0DD0: DC 0D 77 74 80 46 80 1C  19 80 AB 09 27 10 C8 62  ..wt.F......'..b
0DE0: 06 01 04 92 01 C8 62 06  01 94 01 F0 FF FF 7F 94  ......b.........
0DF0: 01 C8 62 06 01 BA F0 FF  FF 7F 75 80 76 80 77 80  ..b.......u.v.w.
0E00: 78 80 BA C8 62 06 01 79  80 7A 80 7B 80 7C 80 29  x...b..y.z.{.|.)
0E10: 10 C8 62 06 01 0C 29 10  C8 62 06 01 0D 80 F0 FF  ..b...)..b......
0E20: FF 7F 80 C8 62 06 01 1C  0F 80 27 10 C8 62 06 01  ....b.....'..b..
0E30: 0F 45 7D 80 F0 FF FF 7F  F0 FF FF 7F 36 38 30 30  .E}.........6800
0E40: 03 80 1A 4E 1B 1C 0F 80  2B C8 62 06 01 7E 80 1C  ...N....+.b..~..
0E50: 7F 80 4A F0 FF FF 7F C8  62 06 01 6F 76 F0 FF FF  ..J.....b..ov...
0E60: 7F 23 2A 10 C8 62 06 01  52 7D 80 F0 FF FF 7F F0  .#*..b..R}......
0E70: FF FF 7F 36 38 30 30 45  7D 80 F0 FF FF 7F F0 FF  ...6800E}.......
0E80: FF 7F 36 38 30 31 03 80  1C 15 80 2B C8 62 06 01  ..6801.....+.b..
0E90: 80 80 23 5C 00 81 80 5C  01 81 80 9A 52 7D 80 F0  ..#\...\....R}..
0EA0: FF FF 7F F0 FF FF 7F 36  38 30 31 45 7D 80 F0 FF  .......6801E}...
0EB0: FF 7F F0 FF FF 7F 36 38  30 32 03 80 02 00 00 03  ......6802......
0EC0: 80 80 04 0F 7B C8 62 06  01 5B 82 80 C8 62 06 01  ....{.b..[...b..
0ED0: C8 62 06 01 74 68 6B 30  2B C8 62 06 01 83 80 23  .b..thk0+.b....#
0EE0: 2B C8 62 06 01 84 80 23  5B 82 80 C8 62 06 01 C8  +.b....#[...b...
0EF0: 62 06 01 74 68 6B 31 79  00 C8 62 06 01 F0 FF FF  b..thk1y..b.....
0F00: 7F 01 50 0F 02 00 00 19  80 80 3D 0F 5B 82 80 C8  ..P.......=.[...
0F10: 62 06 01 C8 62 06 01 74  6C 6B 30 2B C8 62 06 01  b...b..tlk0+.b..
0F20: 85 80 23 5B 82 80 C8 62  06 01 C8 62 06 01 74 6C  ..#[...b...b..tl
0F30: 6B 31 2B C8 62 06 01 86  80 23 01 50 0F 02 00 00  k1+.b....#.P....
0F40: 1A 80 80 50 0F 2B C8 62  06 01 87 80 23 01 50 0F  ...P.+.b....#.P.
0F50: 52 7D 80 F0 FF FF 7F F0  FF FF 7F 36 38 30 32 45  R}.........6802E
0F60: 7D 80 F0 FF FF 7F F0 FF  FF 7F 36 38 30 33 03 80  }.........6803..
0F70: 29 10 C8 62 06 01 0E 2B  C8 62 06 01 88 80 23 2B  )..b...+.b....#+
0F80: C8 62 06 01 89 80 23 52  7D 80 F0 FF FF 7F F0 FF  .b....#R}.......
0F90: FF 7F 36 38 30 33 45 7D  80 F0 FF FF 7F F0 FF FF  ..6803E}........
0FA0: 7F 36 38 30 34 03 80 5B  82 80 C8 62 06 01 C8 62  .6804..[...b...b
0FB0: 06 01 74 6C 6B 30 2B C8  62 06 01 8A 80 23 2B C8  ..tlk0+.b....#+.
0FC0: 62 06 01 8B 80 23 5B 82  80 C8 62 06 01 C8 62 06  b....#[...b...b.
0FD0: 01 74 6C 6B 31 52 7D 80  F0 FF FF 7F F0 FF FF 7F  .tlk1R}.........
0FE0: 36 38 30 34 45 7D 80 F0  FF FF 7F F0 FF FF 7F 36  6804E}.........6
0FF0: 38 30 36 03 80 2B C8 62  06 01 8C 80 23 2B C8 62  806..+.b....#+.b
1000: 06 01 8D 80 23 03 03 00  03 80 52 7D 80 F0 FF FF  ....#.....R}....
1010: 7F F0 FF FF 7F 36 38 30  36 45 7D 80 F0 FF FF 7F  .....6806E}.....
1020: F0 FF FF 7F 36 38 30 35  03 80 24 8E 80 03 80 03  ....6805..$.....
1030: 00 25 02 00 10 03 80 00  C7 10 29 10 F0 FF FF 7F  .%........).....
1040: 31 52 7D 80 F0 FF FF 7F  F0 FF FF 7F 36 38 30 35  1R}.........6805
1050: 45 7D 80 F0 FF FF 7F F0  FF FF 7F 36 38 30 37 03  E}.........6807.
1060: 80 5B 82 80 C8 62 06 01  C8 62 06 01 74 6C 6B 30  .[...b...b..tlk0
1070: 2B C8 62 06 01 8F 80 23  2B C8 62 06 01 90 80 23  +.b....#+.b....#
1080: 52 7D 80 F0 FF FF 7F F0  FF FF 7F 36 38 30 37 45  R}.........6807E
1090: 7D 80 F0 FF FF 7F F0 FF  FF 7F 36 38 30 38 03 80  }.........6808..
10A0: 5B 82 80 C8 62 06 01 C8  62 06 01 74 6C 6B 31 2B  [...b...b..tlk1+
10B0: C8 62 06 01 91 80 23 2B  C8 62 06 01 92 80 23 0E  .b....#+.b....#.
10C0: 03 00 19 80 01 71 12 02  00 10 19 80 00 5D 11 29  .....q.......].)
10D0: 10 F0 FF FF 7F 31 52 7D  80 F0 FF FF 7F F0 FF FF  .....1R}........
10E0: 7F 36 38 30 35 45 7D 80  F0 FF FF 7F F0 FF FF 7F  .6805E}.........
10F0: 36 38 30 39 03 80 5B 82  80 C8 62 06 01 C8 62 06  6809..[...b...b.
1100: 01 73 74 6B 30 2B C8 62  06 01 93 80 23 2B C8 62  .stk0+.b....#+.b
1110: 06 01 94 80 23 53 C8 62  06 01 C8 62 06 01 73 74  ....#S.b...b..st
1120: 6B 30 02 00 00 19 80 04  55 11 52 7D 80 F0 FF FF  k0......U.R}....
1130: 7F F0 FF FF 7F 36 38 30  39 45 7D 80 F0 FF FF 7F  .....6809E}.....
1140: F0 FF FF 7F 36 38 31 30  03 80 1C 15 80 2B C8 62  ....6810.....+.b
1150: 06 01 95 80 23 0E 03 00  1A 80 01 71 12 02 00 10  ....#......q....
1160: 1A 80 00 71 12 29 10 F0  FF FF 7F 31 52 7D 80 F0  ...q.).....1R}..
1170: FF FF 7F F0 FF FF 7F 36  38 30 35 45 7D 80 F0 FF  .......6805E}...
1180: FF 7F F0 FF FF 7F 36 38  31 31 03 80 5B 82 80 C8  ......6811..[...
1190: 62 06 01 C8 62 06 01 79  62 74 30 2B C8 62 06 01  b...b..ybt0+.b..
11A0: 96 80 23 2B C8 62 06 01  97 80 23 52 7D 80 F0 FF  ..#+.b....#R}...
11B0: FF 7F F0 FF FF 7F 36 38  31 31 45 7D 80 F0 FF FF  ......6811E}....
11C0: 7F F0 FF FF 7F 36 38 31  32 03 80 2B C8 62 06 01  .....6812..+.b..
11D0: 98 80 23 2B C8 62 06 01  99 80 23 52 7D 80 F0 FF  ..#+.b....#R}...
11E0: FF 7F F0 FF FF 7F 36 38  31 32 45 7D 80 F0 FF FF  ......6812E}....
11F0: 7F F0 FF FF 7F 36 38 31  33 03 80 5B 82 80 C8 62  .....6813..[...b
1200: 06 01 C8 62 06 01 74 68  6B 30 2B C8 62 06 01 9A  ...b..thk0+.b...
1210: 80 23 2B C8 62 06 01 9B  80 23 2B C8 62 06 01 9C  .#+.b....#+.b...
1220: 80 23 52 7D 80 F0 FF FF  7F F0 FF FF 7F 36 38 31  .#R}.........681
1230: 33 45 7D 80 F0 FF FF 7F  F0 FF FF 7F 36 38 31 34  3E}.........6814
1240: 03 80 5B 82 80 C8 62 06  01 C8 62 06 01 74 68 6B  ..[...b...b..thk
1250: 31 2B C8 62 06 01 9D 80  23 02 00 00 1A 80 00 69  1+.b....#......i
1260: 12 2B C8 62 06 01 9E 80  23 0E 03 00 1C 80 01 71  .+.b....#......q
1270: 12 52 7D 80 F0 FF FF 7F  F0 FF FF 7F 36 38 30 38  .R}.........6808
1280: 52 7D 80 F0 FF FF 7F F0  FF FF 7F 36 38 30 39 52  R}.........6809R
1290: 7D 80 F0 FF FF 7F F0 FF  FF 7F 36 38 31 30 52 7D  }.........6810R}
12A0: 80 F0 FF FF 7F F0 FF FF  7F 36 38 31 34 02 03 00  .........6814...
12B0: 1F 80 01 B8 12 01 19 10  5D 03 80 12 80 45 7D 80  ........]....E}.
12C0: F0 FF FF 7F F0 FF FF 7F  36 38 31 35 03 80 2B C8  ........6815..+.
12D0: 62 06 01 9F 80 23 52 7D  80 F0 FF FF 7F F0 FF FF  b....#R}........
12E0: 7F 36 38 31 35 45 7D 80  F0 FF FF 7F F0 FF FF 7F  .6815E}.........
12F0: 36 38 31 37 03 80 5B 82  80 C8 62 06 01 C8 62 06  6817..[...b...b.
1300: 01 73 74 6B 30 2B C8 62  06 01 A0 80 23 2B C8 62  .stk0+.b....#+.b
1310: 06 01 A1 80 23 53 C8 62  06 01 C8 62 06 01 73 74  ....#S.b...b..st
1320: 6B 30 5C 00 13 80 5C 01  13 80 9A 52 7D 80 F0 FF  k0\...\....R}...
1330: FF 7F F0 FF FF 7F 36 38  31 37 45 7D 80 F0 FF FF  ......6817E}....
1340: 7F F0 FF FF 7F 36 38 31  36 03 80 5B 82 80 C8 62  .....6816..[...b
1350: 06 01 C8 62 06 01 74 68  6B 30 2B C8 62 06 01 A2  ...b..thk0+.b...
1360: 80 23 2B C8 62 06 01 A3  80 23 52 7D 80 F0 FF FF  .#+.b....#R}....
1370: 7F F0 FF FF 7F 36 38 31  36 45 7D 80 F0 FF FF 7F  .....6816E}.....
1380: F0 FF FF 7F 36 38 31 38  03 80 2B C8 62 06 01 A4  ....6818..+.b...
1390: 80 23 5B 82 80 C8 62 06  01 C8 62 06 01 74 68 6B  .#[...b...b..thk
13A0: 31 1C 0F 80 2B C8 62 06  01 A5 80 23 53 C8 62 06  1...+.b....#S.b.
13B0: 01 C8 62 06 01 74 68 6B  31 52 7D 80 F0 FF FF 7F  ..b..thk1R}.....
13C0: F0 FF FF 7F 36 38 31 38  45 7D 80 F0 FF FF 7F F0  ....6818E}......
13D0: FF FF 7F 36 38 31 39 03  80 1C 15 80 2B C8 62 06  ...6819.....+.b.
13E0: 01 A6 80 23 52 7D 80 F0  FF FF 7F F0 FF FF 7F 36  ...#R}.........6
13F0: 38 31 39 45 7D 80 F0 FF  FF 7F F0 FF FF 7F 36 38  819E}.........68
1400: 32 30 03 80 5B 82 80 C8  62 06 01 C8 62 06 01 79  20..[...b...b..y
1410: 62 74 30 2B C8 62 06 01  A7 80 23 2B C8 62 06 01  bt0+.b....#+.b..
1420: A8 80 23 52 7D 80 F0 FF  FF 7F F0 FF FF 7F 36 38  ..#R}.........68
1430: 32 30 45 7D 80 F0 FF FF  7F F0 FF FF 7F 36 38 32  20E}.........682
1440: 31 03 80 6E F0 FF FF 7F  A9 80 99 F0 FF FF 7F 1C  1..n............
1450: 12 80 52 7D 80 F0 FF FF  7F F0 FF FF 7F 36 38 32  ..R}.........682
1460: 31 45 7D 80 F0 FF FF 7F  F0 FF FF 7F 36 38 32 32  1E}.........6822
1470: 03 80 2B C8 62 06 01 AA  80 23 2B C8 62 06 01 AB  ..+.b....#+.b...
1480: 80 23 5D 03 80 4A 80 27  10 C8 62 06 01 10 1C 7F  .#]..J.'..b.....
1490: 80 52 7D 80 F0 FF FF 7F  F0 FF FF 7F 36 38 32 32  .R}.........6822
14A0: 45 7D 80 F0 FF FF 7F F0  FF FF 7F 36 38 32 33 03  E}.........6823.
14B0: 80 1C AC 80 1A 6F 1B 1C  0F 80 7A 00 C8 62 06 01  .....o....z..b..
14C0: 52 7D 80 F0 FF FF 7F F0  FF FF 7F 36 38 32 33 45  R}.........6823E
14D0: 7D 80 F0 FF FF 7F F0 FF  FF 7F 30 62 6C 66 03 80  }.........0blf..
14E0: 02 01 00 03 80 00 EB 14  01 F1 14 78 1C 19 80 AB  ...........x....
14F0: 0A 5C 00 03 80 5C 01 03  80 9A 46 00 45 56 80 F0  .\...\....F.EV..
1500: FF FF 7F F0 FF FF 7F 66  64 69 32 03 80 21 00     .......fdi2..!. 
```

#### Opcodes

```
  0: 0x0DB4 [0x42] SET_CLI_EVENT_CANCEL_DATA()
  1: 0x0DB5 [0x03] ExtData[1]->WorkLocal[1] = Work_Zone[8]
  2: 0x0DBA [0x03] ExtData[1]->WorkLocal[0] = Work_Zone[9]
  3: 0x0DBF [0x1A] CALL_SUBROUTINE(address=0x1B6F)
  4: 0x0DC2 [0x46] CAMERA_CONTROL: Disable user control
  5: 0x0DC4 [0x38] SET_CLIENT_EVENT_MODE(mode=19*)
  6: 0x0DC7 [0x02] IF !(ExtData[1]->WorkLocal[1] == 0*) GOTO 0x0DD2
  7: 0x0DCF [0x01] GOTO 0x0DDC
  8: 0x0DD2 [0x77] SET_EVENT_TIME_WEATHER(hour=18*, weather=255*)
  9: 0x0DD7 [0x1C] WAIT(1* ticks)
 10: 0x0DDA [0xAB] EventEntity->UnknownFlag = 1 // Enable unknown flag

SUBROUTINE_0DDC:
 11: 0x0DDC [0x27] REQ_SET(priority=0x10, entity_id=Unnamed NPC (ID: 17195720/0x010662C8), tag_num=0x04)
 12: 0x0DE3 [0x92] Unnamed NPC (ID: 17195720/0x010662C8)->Render.Flags3 ^= 0x01
 13: 0x0DE9 [0x94] LocalPlayer->Render.Flags3 ^= 0x01
 14: 0x0DEF [0x94] Unnamed NPC (ID: 17195720/0x010662C8)->Render.Flags3 ^= 0x01
 15: 0x0DF5 [0xBA] SET_ENTITY_POSITION(entity_id=LocalPlayer, pos_x=-179.183*, pos_z=253.548*, pos_y=8.873*, direction=239.9°*)
 16: 0x0E02 [0xBA] SET_ENTITY_POSITION(entity_id=Unnamed NPC (ID: 17195720/0x010662C8), pos_x=-174.319*, pos_z=246.101*, pos_y=8.546*, direction=59.8°*)
 17: 0x0E0F [0x29] REQ_SET_WAIT(priority=0x10, entity_id=Unnamed NPC (ID: 17195720/0x010662C8), tag_num=0x0C)
 18: 0x0E16 [0x29] REQ_SET_WAIT(priority=0x10, entity_id=Unnamed NPC (ID: 17195720/0x010662C8), tag_num=0x0D)
 19: 0x0E1D [0x80] LOAD_WAIT(entity=LocalPlayer)
 20: 0x0E22 [0x80] LOAD_WAIT(entity=Unnamed NPC (ID: 17195720/0x010662C8))
 21: 0x0E27 [0x1C] WAIT(30* ticks)
 22: 0x0E2A [0x27] REQ_SET(priority=0x10, entity_id=Unnamed NPC (ID: 17195720/0x010662C8), tag_num=0x0F)
 23: 0x0E31 [0x45] LOAD_SCHEDULED_TASK: Load scheduler "6800" with entities [LocalPlayer, LocalPlayer], work=[489*, 0*]
 24: 0x0E42 [0x1A] CALL_SUBROUTINE(address=0x1B4E)
 25: 0x0E45 [0x1C] WAIT(30* ticks)
 26: 0x0E48 [0x2B] Unnamed NPC (ID: 17195720/0x010662C8) [11387*]:
    → "Arrrg. Fancy seein' someone in these parts."
 27: 0x0E4F [0x1C] WAIT(15* ticks)
 28: 0x0E52 [0x4A] LocalPlayer looks at Unnamed NPC (ID: 17195720/0x010662C8)
 29: 0x0E5B [0x6F] WAIT_FRAME_DELAY: Yield until WaitTime reaches zero
 30: 0x0E5C [0x76] CHECK_ENTITY_RENDER_FLAGS: Wait until LocalPlayer Render.Flags0 and Render.Flags3 conditions are met
 31: 0x0E61 [0x23] WAIT_FOR_DIALOG_INTERACTION
 32: 0x0E62 [0x2A] GET_REQ_LEVEL(level=16, entity_id=Unnamed NPC (ID: 17195720/0x010662C8))
 33: 0x0E68 [0x52] END_LOAD_SCHEDULER: End scheduler "6800" with entities [LocalPlayer, LocalPlayer], work=489*
 34: 0x0E77 [0x45] LOAD_SCHEDULED_TASK: Load scheduler "6801" with entities [LocalPlayer, LocalPlayer], work=[489*, 0*]
 35: 0x0E88 [0x1C] WAIT(60* ticks)
 36: 0x0E8B [0x2B] Unnamed NPC (ID: 17195720/0x010662C8) [11388*]:
    → "Hmm? Would ye happen t' be <Player>, by any chance?"
 37: 0x0E92 [0x23] WAIT_FOR_DIALOG_INTERACTION
 38: 0x0E93 [0x5C] MUSIC_CONTROL: Set Idle (Day) music to song 206*
 39: 0x0E97 [0x5C] MUSIC_CONTROL: Set Idle (Night) music to song 206*
 40: 0x0E9B [0x9A] WAIT_MUSIC_SERVER()
 41: 0x0E9C [0x52] END_LOAD_SCHEDULER: End scheduler "6801" with entities [LocalPlayer, LocalPlayer], work=489*
 42: 0x0EAB [0x45] LOAD_SCHEDULED_TASK: Load scheduler "6802" with entities [LocalPlayer, LocalPlayer], work=[489*, 0*]
 43: 0x0EBC [0x02] IF !(ExtData[1]->WorkLocal[0] == 0*) GOTO 0x0F04
 44: 0x0EC4 [0x7B] Unnamed NPC (ID: 17195720/0x010662C8) stops talking
 45: 0x0EC9 [0x5B] LOAD_EXT_SCHEDULER: Load scheduler "thk0" with entities [Unnamed NPC (ID: 17195720/0x010662C8), Unnamed NPC (ID: 17195720/0x010662C8)], work=566*
 46: 0x0ED8 [0x2B] Unnamed NPC (ID: 17195720/0x010662C8) [11389*]:
    → "Passin' strange... Thought I'd recognize ye on sight, but perhaps age has clouded me eye. Now that we finally meet, though, I do sense somethin' diff'rent about ye."
 47: 0x0EDF [0x23] WAIT_FOR_DIALOG_INTERACTION
 48: 0x0EE0 [0x2B] Unnamed NPC (ID: 17195720/0x010662C8) [11390*]:
    → "Ye're wonderin' how I discern such things, aye? Well, a man don't live t' me age without learnin' a trick or two...although experience don't account fer all, t' be fair."
 49: 0x0EE7 [0x23] WAIT_FOR_DIALOG_INTERACTION
 50: 0x0EE8 [0x5B] LOAD_EXT_SCHEDULER: Load scheduler "thk1" with entities [Unnamed NPC (ID: 17195720/0x010662C8), Unnamed NPC (ID: 17195720/0x010662C8)], work=566*
 51: 0x0EF7 [0x79] Unnamed NPC (ID: 17195720/0x010662C8) looks at LocalPlayer (Basic look)
 52: 0x0F01 [0x01] GOTO 0x0F50
 53: 0x0F04 [0x02] IF !(ExtData[1]->WorkLocal[0] == 1*) GOTO 0x0F3D
 54: 0x0F0C [0x5B] LOAD_EXT_SCHEDULER: Load scheduler "tlk0" with entities [Unnamed NPC (ID: 17195720/0x010662C8), Unnamed NPC (ID: 17195720/0x010662C8)], work=566*
 55: 0x0F1B [0x2B] Unnamed NPC (ID: 17195720/0x010662C8) [11391*]:
    → "What's the matter? Ye look like ye've just been t' Davy Jones's locker an' back."
 56: 0x0F22 [0x23] WAIT_FOR_DIALOG_INTERACTION
 57: 0x0F23 [0x5B] LOAD_EXT_SCHEDULER: Load scheduler "tlk1" with entities [Unnamed NPC (ID: 17195720/0x010662C8), Unnamed NPC (ID: 17195720/0x010662C8)], work=566*
 58: 0x0F32 [0x2B] Unnamed NPC (ID: 17195720/0x010662C8) [11392*]:
    → "Let me take a wild stab: ye're acquainted with the me o' this world. Aye, ye've got an exprrression that says "I know what ye know, matey.""
 59: 0x0F39 [0x23] WAIT_FOR_DIALOG_INTERACTION
 60: 0x0F3A [0x01] GOTO 0x0F50
 61: 0x0F3D [0x02] IF !(ExtData[1]->WorkLocal[0] == 2*) GOTO 0x0F50
 62: 0x0F45 [0x2B] Unnamed NPC (ID: 17195720/0x010662C8) [11393*]:
    → "Hmm... Curse me fer a fool father, but that sparkle o' determination in yer eyes puts me in mind o' me dear daughter."
 63: 0x0F4C [0x23] WAIT_FOR_DIALOG_INTERACTION
 64: 0x0F4D [0x01] GOTO 0x0F50

SUBROUTINE_0F50:
 65: 0x0F50 [0x52] END_LOAD_SCHEDULER: End scheduler "6802" with entities [LocalPlayer, LocalPlayer], work=489*
 66: 0x0F5F [0x45] LOAD_SCHEDULED_TASK: Load scheduler "6803" with entities [LocalPlayer, LocalPlayer], work=[489*, 0*]
 67: 0x0F70 [0x29] REQ_SET_WAIT(priority=0x10, entity_id=Unnamed NPC (ID: 17195720/0x010662C8), tag_num=0x0E)
 68: 0x0F77 [0x2B] Unnamed NPC (ID: 17195720/0x010662C8) [11394*]:
    → "It seems I've gone an' taken leave o' me mannerrrs, like folk o' me trade are wont t' do."
 69: 0x0F7E [0x23] WAIT_FOR_DIALOG_INTERACTION
 70: 0x0F7F [0x2B] Unnamed NPC (ID: 17195720/0x010662C8) [11395*]:
    → "Thank ye fer makin' the journey here. Name's Gilgamesh. I be in the business o' liberrratin' cargo from those as don't need it an' givin' it to those who do--usually meself an' me boys. Call it philanthropy. Or call it piracy if ye like."
 71: 0x0F86 [0x23] WAIT_FOR_DIALOG_INTERACTION
 72: 0x0F87 [0x52] END_LOAD_SCHEDULER: End scheduler "6803" with entities [LocalPlayer, LocalPlayer], work=489*
 73: 0x0F96 [0x45] LOAD_SCHEDULED_TASK: Load scheduler "6804" with entities [LocalPlayer, LocalPlayer], work=[489*, 0*]
 74: 0x0FA7 [0x5B] LOAD_EXT_SCHEDULER: Load scheduler "tlk0" with entities [Unnamed NPC (ID: 17195720/0x010662C8), Unnamed NPC (ID: 17195720/0x010662C8)], work=566*
 75: 0x0FB6 [0x2B] Unnamed NPC (ID: 17195720/0x010662C8) [11396*]:
    → "Nothin' compares t' glidin' upon the waves on the high seas, feelin' the caress o' the wind as she fills yer sails with her sweet brrreath. Aye, the unfettered life o' a pirate be the life fer me."
 76: 0x0FBD [0x23] WAIT_FOR_DIALOG_INTERACTION
 77: 0x0FBE [0x2B] Unnamed NPC (ID: 17195720/0x010662C8) [11397*]:
    → "But all o' that an' more was taken away when me world Abyssea took grievously ill."
 78: 0x0FC5 [0x23] WAIT_FOR_DIALOG_INTERACTION
 79: 0x0FC6 [0x5B] LOAD_EXT_SCHEDULER: Load scheduler "tlk1" with entities [Unnamed NPC (ID: 17195720/0x010662C8), Unnamed NPC (ID: 17195720/0x010662C8)], work=566*
 80: 0x0FD5 [0x52] END_LOAD_SCHEDULER: End scheduler "6804" with entities [LocalPlayer, LocalPlayer], work=489*
 81: 0x0FE4 [0x45] LOAD_SCHEDULED_TASK: Load scheduler "6806" with entities [LocalPlayer, LocalPlayer], work=[489*, 0*]
 82: 0x0FF5 [0x2B] Unnamed NPC (ID: 17195720/0x010662C8) [11398*]:
    → "Aye, everythin' we knew crumbled away like ol' hard tack what even the ship rats won't touch. An' it got me t' thinkin'. Piratin' be tough when t'ain't no more merchants what needs piratin'. So I volunteered me services t' the resistance effort, wantin' to do me part fer mankind, ye see. I be an officer, in fact..."
 83: 0x0FFC [0x23] WAIT_FOR_DIALOG_INTERACTION
 84: 0x0FFD [0x2B] Unnamed NPC (ID: 17195720/0x010662C8) [11399*]:
    → "That be when the rumors o' ye first reached me, <Player>. The lil' mistress had heard o' ye, too, an' assigned me the task o' measurrrin' yer suitability. So here I be."
 85: 0x1004 [0x23] WAIT_FOR_DIALOG_INTERACTION
 86: 0x1005 [0x03] ExtData[1]->WorkLocal[3] = 0*
 87: 0x100A [0x52] END_LOAD_SCHEDULER: End scheduler "6806" with entities [LocalPlayer, LocalPlayer], work=489*

SUBROUTINE_1019:
 88: 0x1019 [0x45] LOAD_SCHEDULED_TASK: Load scheduler "6805" with entities [LocalPlayer, LocalPlayer], work=[489*, 0*]
 89: 0x102A [0x24] CREATE_DIALOG(message_id=11400*, default_option=0*, option_flags=ExtData[1]->WorkLocal[3])
    → "Ask about... [Rumors./The lil' mistress./Suitability.]"
 90: 0x1031 [0x25] WAIT_DIALOG_SELECT()
 91: 0x1032 [0x02] IF !(Work_Zone[0] == 0*) GOTO 0x10C7
 92: 0x103A [0x29] REQ_SET_WAIT(priority=0x10, entity_id=LocalPlayer, tag_num=0x31)
 93: 0x1041 [0x52] END_LOAD_SCHEDULER: End scheduler "6805" with entities [LocalPlayer, LocalPlayer], work=489*
 94: 0x1050 [0x45] LOAD_SCHEDULED_TASK: Load scheduler "6807" with entities [LocalPlayer, LocalPlayer], work=[489*, 0*]
 95: 0x1061 [0x5B] LOAD_EXT_SCHEDULER: Load scheduler "tlk0" with entities [Unnamed NPC (ID: 17195720/0x010662C8), Unnamed NPC (ID: 17195720/0x010662C8)], work=566*
 96: 0x1070 [0x2B] Unnamed NPC (ID: 17195720/0x010662C8) [11401*]:
    → "Yer right audacious feats in our ravaged world've earned ye considerable renown, matey. Thanks t' yer exploits, survivors across areas've learned o' each other's existence. Unity o' purpose is startin' t' be seen again."
 97: 0x1077 [0x23] WAIT_FOR_DIALOG_INTERACTION
 98: 0x1078 [0x2B] Unnamed NPC (ID: 17195720/0x010662C8) [11402*]:
    → "Truth be told, stubborn as we were, at first it was difficult fer us t' admit that we needed outside help t' survive."
 99: 0x107F [0x23] WAIT_FOR_DIALOG_INTERACTION
100: 0x1080 [0x52] END_LOAD_SCHEDULER: End scheduler "6807" with entities [LocalPlayer, LocalPlayer], work=489*
101: 0x108F [0x45] LOAD_SCHEDULED_TASK: Load scheduler "6808" with entities [LocalPlayer, LocalPlayer], work=[489*, 0*]
102: 0x10A0 [0x5B] LOAD_EXT_SCHEDULER: Load scheduler "tlk1" with entities [Unnamed NPC (ID: 17195720/0x010662C8), Unnamed NPC (ID: 17195720/0x010662C8)], work=566*
103: 0x10AF [0x2B] Unnamed NPC (ID: 17195720/0x010662C8) [11403*]:
    → "But prrride offers small comfort when loved ones are dyin' in yer arms. So we swallowed it, in order t' begin our arduous journey towards salvation."
104: 0x10B6 [0x23] WAIT_FOR_DIALOG_INTERACTION
105: 0x10B7 [0x2B] Unnamed NPC (ID: 17195720/0x010662C8) [11404*]:
    → "A long an' uncertain road lies ahead, t' be sure, but with the aid o' brave souls such as ye, we'll get t' our destination yet."
106: 0x10BE [0x23] WAIT_FOR_DIALOG_INTERACTION
107: 0x10BF [0x0E] ExtData[1]->WorkLocal[3] |= 1*
108: 0x10C4 [0x01] GOTO 0x1271
109: 0x10C7 [0x02] IF !(Work_Zone[0] == 1*) GOTO 0x115D
110: 0x10CF [0x29] REQ_SET_WAIT(priority=0x10, entity_id=LocalPlayer, tag_num=0x31)
111: 0x10D6 [0x52] END_LOAD_SCHEDULER: End scheduler "6805" with entities [LocalPlayer, LocalPlayer], work=489*
112: 0x10E5 [0x45] LOAD_SCHEDULED_TASK: Load scheduler "6809" with entities [LocalPlayer, LocalPlayer], work=[489*, 0*]
113: 0x10F6 [0x5B] LOAD_EXT_SCHEDULER: Load scheduler "stk0" with entities [Unnamed NPC (ID: 17195720/0x010662C8), Unnamed NPC (ID: 17195720/0x010662C8)], work=566*
114: 0x1105 [0x2B] Unnamed NPC (ID: 17195720/0x010662C8) [11405*]:
    → "Ye be curious about who I meant by "the lil' mistress"? Sorry, matey, but that information ain't mine t' sharrre. Arrrg."
115: 0x110C [0x23] WAIT_FOR_DIALOG_INTERACTION
116: 0x110D [0x2B] Unnamed NPC (ID: 17195720/0x010662C8) [11406*]:
    → "No need t' fret, though, 'cause I've got a feelin' ye'll get t' meet the lady soon enough."
117: 0x1114 [0x23] WAIT_FOR_DIALOG_INTERACTION
118: 0x1115 [0x53] WAIT_SCHEDULER_TASK: Wait for scheduler "stk0" with entities [Unnamed NPC (ID: 17195720/0x010662C8), Unnamed NPC (ID: 17195720/0x010662C8)]
119: 0x1122 [0x02] IF !(ExtData[1]->WorkLocal[0] < 1*) GOTO 0x1155
120: 0x112A [0x52] END_LOAD_SCHEDULER: End scheduler "6809" with entities [LocalPlayer, LocalPlayer], work=489*
121: 0x1139 [0x45] LOAD_SCHEDULED_TASK: Load scheduler "6810" with entities [LocalPlayer, LocalPlayer], work=[489*, 0*]
122: 0x114A [0x1C] WAIT(60* ticks)
123: 0x114D [0x2B] Unnamed NPC (ID: 17195720/0x010662C8) [11407*]:
    → "Takin' another wild stab, might be ye're already acquainted with her in this worrrld, much like ye know me. Though this be simple speculation, mind ye."
124: 0x1154 [0x23] WAIT_FOR_DIALOG_INTERACTION
125: 0x1155 [0x0E] ExtData[1]->WorkLocal[3] |= 2*
126: 0x115A [0x01] GOTO 0x1271
127: 0x115D [0x02] IF !(Work_Zone[0] == 2*) GOTO 0x1271
128: 0x1165 [0x29] REQ_SET_WAIT(priority=0x10, entity_id=LocalPlayer, tag_num=0x31)
129: 0x116C [0x52] END_LOAD_SCHEDULER: End scheduler "6805" with entities [LocalPlayer, LocalPlayer], work=489*
130: 0x117B [0x45] LOAD_SCHEDULED_TASK: Load scheduler "6811" with entities [LocalPlayer, LocalPlayer], work=[489*, 0*]
131: 0x118C [0x5B] LOAD_EXT_SCHEDULER: Load scheduler "ybt0" with entities [Unnamed NPC (ID: 17195720/0x010662C8), Unnamed NPC (ID: 17195720/0x010662C8)], work=566*
132: 0x119B [0x2B] Unnamed NPC (ID: 17195720/0x010662C8) [11408*]:
    → "T' spare ye the suspense, ye've passed with flyin' colors, matey."
133: 0x11A2 [0x23] WAIT_FOR_DIALOG_INTERACTION
134: 0x11A3 [0x2B] Unnamed NPC (ID: 17195720/0x010662C8) [11409*]:
    → "Navigatin' Abyssea like it were yer own lil' pond, smitin' beasties that'd shame all the horrors o' the sea like they're no more'n guppies--takes uncommon courage an' a healthy dose o' foolhardiness."
135: 0x11AA [0x23] WAIT_FOR_DIALOG_INTERACTION
136: 0x11AB [0x52] END_LOAD_SCHEDULER: End scheduler "6811" with entities [LocalPlayer, LocalPlayer], work=489*
137: 0x11BA [0x45] LOAD_SCHEDULED_TASK: Load scheduler "6812" with entities [LocalPlayer, LocalPlayer], work=[489*, 0*]
138: 0x11CB [0x2B] Unnamed NPC (ID: 17195720/0x010662C8) [11410*]:
    → "Aye, ye be a regular swashbuckler, I reckon."
139: 0x11D2 [0x23] WAIT_FOR_DIALOG_INTERACTION
140: 0x11D3 [0x2B] Unnamed NPC (ID: 17195720/0x010662C8) [11411*]:
    → "There be one among us come from the old Federation, an eccentric but likeable fellow. His field o' interest be the boundary between worlds, which he claims is gettin' t' be about as stable as an ol' sea dog w' two peg legs, an' it don't get much more unstable 'n that, matey. Ye ever heard o' such a thing?"
141: 0x11DA [0x23] WAIT_FOR_DIALOG_INTERACTION
142: 0x11DB [0x52] END_LOAD_SCHEDULER: End scheduler "6812" with entities [LocalPlayer, LocalPlayer], work=489*
143: 0x11EA [0x45] LOAD_SCHEDULED_TASK: Load scheduler "6813" with entities [LocalPlayer, LocalPlayer], work=[489*, 0*]
144: 0x11FB [0x5B] LOAD_EXT_SCHEDULER: Load scheduler "thk0" with entities [Unnamed NPC (ID: 17195720/0x010662C8), Unnamed NPC (ID: 17195720/0x010662C8)], work=566*
145: 0x120A [0x2B] Unnamed NPC (ID: 17195720/0x010662C8) [11412*]:
    → "Multiple dimensions exist in a single world, ye see, places similar yet different. Knowin' this, the notion that there be things the eye can't see becomes easier t' swallow, aye? Kinda like takin' a nice, long swig from me tankarrrd t' wash down the foul herbal remedy fer me heartburn. But that be a tale fer another day."
146: 0x1211 [0x23] WAIT_FOR_DIALOG_INTERACTION
147: 0x1212 [0x2B] Unnamed NPC (ID: 17195720/0x010662C8) [11413*]:
    → "Gettin' back on topic, the boundary be growin' unstable, ever since the dimensions synchronized...or so I be told. Can ye imagine such a phenomenon? Are ye still even followin' what I'm sayin'? 'Cause, blimey, even I ain't sure I follow meself sometimes."
148: 0x1219 [0x23] WAIT_FOR_DIALOG_INTERACTION
149: 0x121A [0x2B] Unnamed NPC (ID: 17195720/0x010662C8) [11414*]:
    → "I don't claim full understandin' o' all this, but it don't take no atma infusionist t' see there be a problem. Aye, even a boorish pirate such as meself can tell when all hell's brrroken loose."
150: 0x1221 [0x23] WAIT_FOR_DIALOG_INTERACTION
151: 0x1222 [0x52] END_LOAD_SCHEDULER: End scheduler "6813" with entities [LocalPlayer, LocalPlayer], work=489*
152: 0x1231 [0x45] LOAD_SCHEDULED_TASK: Load scheduler "6814" with entities [LocalPlayer, LocalPlayer], work=[489*, 0*]
153: 0x1242 [0x5B] LOAD_EXT_SCHEDULER: Load scheduler "thk1" with entities [Unnamed NPC (ID: 17195720/0x010662C8), Unnamed NPC (ID: 17195720/0x010662C8)], work=566*
154: 0x1251 [0x2B] Unnamed NPC (ID: 17195720/0x010662C8) [11415*]:
    → "What's any o' this got t' do with yer suitability, ye ask? Why, everything, matey! Our world's been fair turned into a disaster zone, an' we need mettlesome folk who won't get all squeamish when confrontin' the mess. And by me measurin' stick, ye surpass that requirement by a nautical malm."
155: 0x1258 [0x23] WAIT_FOR_DIALOG_INTERACTION
156: 0x1259 [0x02] IF !(ExtData[1]->WorkLocal[0] == 2*) GOTO 0x1269
157: 0x1261 [0x2B] Unnamed NPC (ID: 17195720/0x010662C8) [11416*]:
    → "Keep in mind, though, that it's all over if ye die. Ye've got just the one life, so careful what ye do with it. These words must seem hollow, comin' from the selfsame bastarrrd who's askin' ye t' dive headlong into danger. But we've already lost enough things we care fer. The gods be damned if we lose any more."
158: 0x1268 [0x23] WAIT_FOR_DIALOG_INTERACTION
159: 0x1269 [0x0E] ExtData[1]->WorkLocal[3] |= 4*
160: 0x126E [0x01] GOTO 0x1271

SUBROUTINE_1271:
161: 0x1271 [0x52] END_LOAD_SCHEDULER: End scheduler "6808" with entities [LocalPlayer, LocalPlayer], work=489*
162: 0x1280 [0x52] END_LOAD_SCHEDULER: End scheduler "6809" with entities [LocalPlayer, LocalPlayer], work=489*
163: 0x128F [0x52] END_LOAD_SCHEDULER: End scheduler "6810" with entities [LocalPlayer, LocalPlayer], work=489*
164: 0x129E [0x52] END_LOAD_SCHEDULER: End scheduler "6814" with entities [LocalPlayer, LocalPlayer], work=489*
165: 0x12AD [0x02] IF !(ExtData[1]->WorkLocal[3] == 7*) GOTO 0x12B8
166: 0x12B5 [0x01] GOTO 0x1019
167: 0x12B8 [0x5D] SET_MUSIC_VOLUME(volume=0*, fade_time=120*)
168: 0x12BD [0x45] LOAD_SCHEDULED_TASK: Load scheduler "6815" with entities [LocalPlayer, LocalPlayer], work=[489*, 0*]
169: 0x12CE [0x2B] Unnamed NPC (ID: 17195720/0x010662C8) [11417*]:
    → "Arrrg, but I ramble. I fear me mind's become much given t' wanderlust in old age. Resistin' the urge t' go off on a tangent or state the bleedin' obvious be about as hard as resistin' the call o' drink. Ye'll have t' bear with me."
170: 0x12D5 [0x23] WAIT_FOR_DIALOG_INTERACTION
171: 0x12D6 [0x52] END_LOAD_SCHEDULER: End scheduler "6815" with entities [LocalPlayer, LocalPlayer], work=489*
172: 0x12E5 [0x45] LOAD_SCHEDULED_TASK: Load scheduler "6817" with entities [LocalPlayer, LocalPlayer], work=[489*, 0*]
173: 0x12F6 [0x5B] LOAD_EXT_SCHEDULER: Load scheduler "stk0" with entities [Unnamed NPC (ID: 17195720/0x010662C8), Unnamed NPC (ID: 17195720/0x010662C8)], work=566*
174: 0x1305 [0x2B] Unnamed NPC (ID: 17195720/0x010662C8) [11418*]:
    → "Durin' me piratin' days, I saw many a thing n' more. "Arrrg, there be nothin' left in the world that could surprise this sea dog," I'd often boast."
175: 0x130C [0x23] WAIT_FOR_DIALOG_INTERACTION
176: 0x130D [0x2B] Unnamed NPC (ID: 17195720/0x010662C8) [11419*]:
    → "But then the earth crumbled an' the skies turned a bloody red, leavin' this brrraggart as dumbstruck an' clueless as a bleedin' lan'lubber gawpin' o'er an anchor hitch."
177: 0x1314 [0x23] WAIT_FOR_DIALOG_INTERACTION
178: 0x1315 [0x53] WAIT_SCHEDULER_TASK: Wait for scheduler "stk0" with entities [Unnamed NPC (ID: 17195720/0x010662C8), Unnamed NPC (ID: 17195720/0x010662C8)]
179: 0x1322 [0x5C] MUSIC_CONTROL: Set Idle (Day) music to song 51*
180: 0x1326 [0x5C] MUSIC_CONTROL: Set Idle (Night) music to song 51*
181: 0x132A [0x9A] WAIT_MUSIC_SERVER()
182: 0x132B [0x52] END_LOAD_SCHEDULER: End scheduler "6817" with entities [LocalPlayer, LocalPlayer], work=489*
183: 0x133A [0x45] LOAD_SCHEDULED_TASK: Load scheduler "6816" with entities [LocalPlayer, LocalPlayer], work=[489*, 0*]
184: 0x134B [0x5B] LOAD_EXT_SCHEDULER: Load scheduler "thk0" with entities [Unnamed NPC (ID: 17195720/0x010662C8), Unnamed NPC (ID: 17195720/0x010662C8)], work=566*
185: 0x135A [0x2B] Unnamed NPC (ID: 17195720/0x010662C8) [11420*]:
    → "So fer all me yappin', I've really got nothin' useful t' share with ye. At least not fer the time bein'. The lil' mistress, however, she be a veritable treasure trove o' knowledge, aye."
186: 0x1361 [0x23] WAIT_FOR_DIALOG_INTERACTION
187: 0x1362 [0x2B] Unnamed NPC (ID: 17195720/0x010662C8) [11421*]:
    → "Why do I know so little, ye ask? Why, that be a question o' readiness t' face the truth o' things, matey. Fer me, it seems the time's yet t' come."
188: 0x1369 [0x23] WAIT_FOR_DIALOG_INTERACTION
189: 0x136A [0x52] END_LOAD_SCHEDULER: End scheduler "6816" with entities [LocalPlayer, LocalPlayer], work=489*
190: 0x1379 [0x45] LOAD_SCHEDULED_TASK: Load scheduler "6818" with entities [LocalPlayer, LocalPlayer], work=[489*, 0*]
191: 0x138A [0x2B] Unnamed NPC (ID: 17195720/0x010662C8) [11422*]:
    → "Earlier, I told ye o' me involvement with the resistance. But truth be told, it's all this retired pirate can do t' keep himself an' those around him alive. All o' us have things we're bound t' prrrotect, after all."
192: 0x1391 [0x23] WAIT_FOR_DIALOG_INTERACTION
193: 0x1392 [0x5B] LOAD_EXT_SCHEDULER: Load scheduler "thk1" with entities [Unnamed NPC (ID: 17195720/0x010662C8), Unnamed NPC (ID: 17195720/0x010662C8)], work=566*
194: 0x13A1 [0x1C] WAIT(30* ticks)
195: 0x13A4 [0x2B] Unnamed NPC (ID: 17195720/0x010662C8) [11423*]:
    → "It shames me t' no end, havin' t' rely on the kindness o' selfless folk like yerself...but there be no help fer it."
196: 0x13AB [0x23] WAIT_FOR_DIALOG_INTERACTION
197: 0x13AC [0x53] WAIT_SCHEDULER_TASK: Wait for scheduler "thk1" with entities [Unnamed NPC (ID: 17195720/0x010662C8), Unnamed NPC (ID: 17195720/0x010662C8)]
198: 0x13B9 [0x52] END_LOAD_SCHEDULER: End scheduler "6818" with entities [LocalPlayer, LocalPlayer], work=489*
199: 0x13C8 [0x45] LOAD_SCHEDULED_TASK: Load scheduler "6819" with entities [LocalPlayer, LocalPlayer], work=[489*, 0*]
200: 0x13D9 [0x1C] WAIT(60* ticks)
201: 0x13DC [0x2B] Unnamed NPC (ID: 17195720/0x010662C8) [11424*]:
    → "Fact is, yer aid will be o' far greater worth t' the lil' mistress than what me folk an' I could ever muster up."
202: 0x13E3 [0x23] WAIT_FOR_DIALOG_INTERACTION
203: 0x13E4 [0x52] END_LOAD_SCHEDULER: End scheduler "6819" with entities [LocalPlayer, LocalPlayer], work=489*
204: 0x13F3 [0x45] LOAD_SCHEDULED_TASK: Load scheduler "6820" with entities [LocalPlayer, LocalPlayer], work=[489*, 0*]
205: 0x1404 [0x5B] LOAD_EXT_SCHEDULER: Load scheduler "ybt0" with entities [Unnamed NPC (ID: 17195720/0x010662C8), Unnamed NPC (ID: 17195720/0x010662C8)], work=566*
206: 0x1413 [0x2B] Unnamed NPC (ID: 17195720/0x010662C8) [11425*]:
    → "But don't be presumin' that we mean t' sit idly by, scratchin' our bum cheeks. Yer courageous exploits have instilled much needed morale within the survivors, an' they stand rrready t' fight again."
207: 0x141A [0x23] WAIT_FOR_DIALOG_INTERACTION
208: 0x141B [0x2B] Unnamed NPC (ID: 17195720/0x010662C8) [11426*]:
    → "The real battle starts from here, an' mankind ain't goin' down without a struggle, this I promise ye. Whatever bloodlust drives those vile creatures, we'll match it an' more with our will t' live."
209: 0x1422 [0x23] WAIT_FOR_DIALOG_INTERACTION
210: 0x1423 [0x52] END_LOAD_SCHEDULER: End scheduler "6820" with entities [LocalPlayer, LocalPlayer], work=489*
211: 0x1432 [0x45] LOAD_SCHEDULED_TASK: Load scheduler "6821" with entities [LocalPlayer, LocalPlayer], work=[489*, 0*]
212: 0x1443 [0x6E] LocalPlayer uses emote 36*
213: 0x144A [0x99] Wait for LocalPlayer animation to complete
214: 0x144F [0x1C] WAIT(120* ticks)
215: 0x1452 [0x52] END_LOAD_SCHEDULER: End scheduler "6821" with entities [LocalPlayer, LocalPlayer], work=489*
216: 0x1461 [0x45] LOAD_SCHEDULED_TASK: Load scheduler "6822" with entities [LocalPlayer, LocalPlayer], work=[489*, 0*]
217: 0x1472 [0x2B] Unnamed NPC (ID: 17195720/0x010662C8) [11427*]:
    → "Shiver me timbers, would ye look at the time? I must be headin' back before I'm missed. Be a good [lad/lass] an' pass me regards t' Joachim, would ye?"
218: 0x1479 [0x23] WAIT_FOR_DIALOG_INTERACTION
219: 0x147A [0x2B] Unnamed NPC (ID: 17195720/0x010662C8) [11428*]:
    → "I look forward t' our next meetin', <Player>. I promise t' cork up me rrramblin' then. Arrrg."
220: 0x1481 [0x23] WAIT_FOR_DIALOG_INTERACTION
221: 0x1482 [0x5D] SET_MUSIC_VOLUME(volume=0*, fade_time=300*)
222: 0x1487 [0x27] REQ_SET(priority=0x10, entity_id=Unnamed NPC (ID: 17195720/0x010662C8), tag_num=0x10)
223: 0x148E [0x1C] WAIT(15* ticks)
224: 0x1491 [0x52] END_LOAD_SCHEDULER: End scheduler "6822" with entities [LocalPlayer, LocalPlayer], work=489*
225: 0x14A0 [0x45] LOAD_SCHEDULED_TASK: Load scheduler "6823" with entities [LocalPlayer, LocalPlayer], work=[489*, 0*]
226: 0x14B1 [0x1C] WAIT(180* ticks)
227: 0x14B4 [0x1A] CALL_SUBROUTINE(address=0x1B6F)
228: 0x14B7 [0x1C] WAIT(30* ticks)
229: 0x14BA [0x7A] VM_CONTROL: Reset VM for Unnamed NPC (ID: 17195720/0x010662C8)
230: 0x14C0 [0x52] END_LOAD_SCHEDULER: End scheduler "6823" with entities [LocalPlayer, LocalPlayer], work=489*
231: 0x14CF [0x45] LOAD_SCHEDULED_TASK: Load scheduler "0blf" with entities [LocalPlayer, LocalPlayer], work=[489*, 0*]
