# 17195632 - Vauderame

## Common Data

| Field            | Value                       |
|------------------|-----------------------------|
| Zone             | La Theine Plateau (ID: 102) |
| Block Size       | 760 bytes                   |
| Total Events     | 38                          |
| References Count | 29                          |

## List of Events

| Event ID                   | Entrypoint   |   Size |   Instructions |
|----------------------------|--------------|--------|----------------|
| [65535](#event-65535)      | 0x0000       |      1 |              1 |
| [65535.1](#event-655351)   | 0x0001       |     16 |              2 |
| [65535.2](#event-655352)   | 0x0011       |     22 |              4 |
| [65535.3](#event-655353)   | 0x0027       |     16 |              2 |
| [65535.4](#event-655354)   | 0x0037       |     14 |              2 |
| [65535.5](#event-655355)   | 0x0045       |     16 |              2 |
| [65535.6](#event-655356)   | 0x0055       |     14 |              2 |
| [65535.7](#event-655357)   | 0x0063       |     16 |              2 |
| [65535.8](#event-655358)   | 0x0073       |     14 |              2 |
| [65535.9](#event-655359)   | 0x0081       |     16 |              2 |
| [65535.10](#event-6553510) | 0x0091       |     14 |              2 |
| [65535.11](#event-6553511) | 0x009F       |     16 |              2 |
| [65535.12](#event-6553512) | 0x00AF       |     14 |              2 |
| [65535.13](#event-6553513) | 0x00BD       |     16 |              2 |
| [65535.14](#event-6553514) | 0x00CD       |     14 |              2 |
| [65535.15](#event-6553515) | 0x00DB       |     16 |              2 |
| [65535.16](#event-6553516) | 0x00EB       |     14 |              2 |
| [65535.17](#event-6553517) | 0x00F9       |     16 |              2 |
| [65535.18](#event-6553518) | 0x0109       |     14 |              2 |
| [65535.19](#event-6553519) | 0x0117       |      9 |              3 |
| [119](#event-119)          | 0x0120       |      1 |              1 |
| [65535.20](#event-6553520) | 0x0121       |     14 |              4 |
| [65535.21](#event-6553521) | 0x012F       |     14 |              4 |
| [65535.22](#event-6553522) | 0x013D       |     11 |              3 |
| [65535.23](#event-6553523) | 0x0148       |     53 |              5 |
| [65535.24](#event-6553524) | 0x017D       |      5 |              3 |
| [65535.25](#event-6553525) | 0x0182       |      5 |              3 |
| [65535.26](#event-6553526) | 0x0187       |      5 |              3 |
| [65535.27](#event-6553527) | 0x018C       |      5 |              3 |
| [65535.28](#event-6553528) | 0x0191       |      5 |              3 |
| [65535.29](#event-6553529) | 0x0196       |      5 |              3 |
| [65535.30](#event-6553530) | 0x019B       |     19 |              5 |
| [65535.31](#event-6553531) | 0x01AE       |      5 |              3 |
| [65535.32](#event-6553532) | 0x01B3       |     19 |              5 |
| [65535.33](#event-6553533) | 0x01C6       |      5 |              3 |
| [65535.34](#event-6553534) | 0x01CB       |      5 |              3 |
| [65535.35](#event-6553535) | 0x01D0       |      5 |              3 |
| [65535.36](#event-6553536) | 0x01D5       |      5 |              3 |

## DAT References (imed_data)

|   Index | Hex Value   |   Dec Value |
|---------|-------------|-------------|
|       0 | 0x0014      |          20 |
|       1 | 0x001E      |          30 |
|       2 | 0x0015      |          21 |
|       3 | 0x000D      |          13 |
|       4 | 0xFFFED706  |  4294891270 |
|       5 | 0xFFF95E73  |  4294532723 |
|       6 | 0xD624      |       54820 |
|       7 | 0xFFFED87A  |  4294891642 |
|       8 | 0xFFF952CD  |  4294529741 |
|       9 | 0xD5CB      |       54731 |
|      10 | 0xFFFED9CE  |  4294891982 |
|      11 | 0xFFF94C57  |  4294528087 |
|      12 | 0xD5BA      |       54714 |
|      13 | 0x000F      |          15 |
|      14 | 0x0000      |           0 |
|      15 | 0x0064      |         100 |
|      16 | 0x1D5B      |        7515 |
|      17 | 0x1D60      |        7520 |
|      18 | 0x1D61      |        7521 |
|      19 | 0x1D63      |        7523 |
|      20 | 0x1D64      |        7524 |
|      21 | 0x1D69      |        7529 |
|      22 | 0x1D6A      |        7530 |
|      23 | 0x1D6D      |        7533 |
|      24 | 0x1D6E      |        7534 |
|      25 | 0x1D73      |        7539 |
|      26 | 0x1D74      |        7540 |
|      27 | 0x1D76      |        7542 |
|      28 | 0x1D78      |        7544 |

## String References

- **7515**: Well, well. It seems we have some uninvited guests...
- **7520**: Wait, I know these people. They helped me with a little task at the Tenshodo.
- **7521**: I thought this might happen, but... For the two of you to make it this far, it would seem that not all thieves are totally incompetent these days.
- **7523**: Of course. This is Nanaa Mihgo of Windurst, and <Player>, an adventurer [of San d'Oria/of Bastok/also of Windurst].
- **7524**: Linzaza, you mentioned someone asked for your signature again. I'm assuming that that someone is standing before you now.
- **7529**: You forget, Kanika. Atarefaunet's band is no more. We are now known as Vauderame's Knights.
- **7530**: I waited twenty years for the former Marquis to remember everything. All that is left is to restore the glory of our lost kingdom.
- **7533**: Not one of you has changed, even after all these years. Luckily, I was prepared for this.
- **7534**: ...Take care of it.
- **7539**: Mithra might seem wild and free, but they are deeply tied to one another. If we kill this one now, others will come looking for revenge. They will chase us to the ends of Vana'diel.
- **7540**: Then there is this adventurer. [He/She] looks like someone I did away with in another time...
- **7542**: ...Perhaps you're right. A foothold into the country I have spent twenty years restoring... Maybe my ego demands a witness to all that I have accomplished.
- **7544**: I will join you as soon as I can. Let us meet again in a newborn country...

## Events

### Event 65535

#### Metadata

| Field        | Value   |
|--------------|---------|
| Entrypoint   | 0x0000  |
| Data Size    | 1 bytes |
| Instructions | 1       |

```
      00 01 02 03 04 05 06 07  08 09 0A 0B 0C 0D 0E 0F
      -- -- -- -- -- -- -- --  -- -- -- -- -- -- -- --
0000: 00                                                .               
```

#### Opcodes

```
  0: 0x0000 [0x00] END_REQSTACK()
```

### Event 65535.1

#### Metadata

| Field        | Value    |
|--------------|----------|
| Entrypoint   | 0x0001   |
| Data Size    | 16 bytes |
| Instructions | 2        |

```
      00 01 02 03 04 05 06 07  08 09 0A 0B 0C 0D 0E 0F
      -- -- -- -- -- -- -- --  -- -- -- -- -- -- -- --
0000:    66 00 80 F8 FF FF 7F  F8 FF FF 7F 74 6C 6B 30   f..........tlk0
0010: 00                                                .               
```

#### Opcodes

```
  0: 0x0001 [0x66] LOAD_EXT_SCHEDULER_MAIN: Load scheduler "tlk0" with entities [EventEntity, EventEntity], work=20*
  1: 0x0010 [0x00] END_REQSTACK()
```

### Event 65535.2

#### Metadata

| Field        | Value    |
|--------------|----------|
| Entrypoint   | 0x0011   |
| Data Size    | 22 bytes |
| Instructions | 4        |

```
      00 01 02 03 04 05 06 07  08 09 0A 0B 0C 0D 0E 0F
      -- -- -- -- -- -- -- --  -- -- -- -- -- -- -- --
0010:    53 F8 FF FF 7F F8 FF  FF 7F 74 6C 6B 30 5E 69   S........tlk0^i
0020: 64 6C 30 1C 01 80 00                              dl0....         
```

#### Opcodes

```
  0: 0x0011 [0x53] WAIT_SCHEDULER_TASK: Wait for scheduler "tlk0" with entities [EventEntity, EventEntity]
  1: 0x001E [0x5E] EventEntity goes idle (kills current action) (animation: "idl0")
  2: 0x0023 [0x1C] WAIT(30* ticks)
  3: 0x0026 [0x00] END_REQSTACK()
```

### Event 65535.3

#### Metadata

| Field        | Value    |
|--------------|----------|
| Entrypoint   | 0x0027   |
| Data Size    | 16 bytes |
| Instructions | 2        |

```
      00 01 02 03 04 05 06 07  08 09 0A 0B 0C 0D 0E 0F
      -- -- -- -- -- -- -- --  -- -- -- -- -- -- -- --
0020:                      66  00 80 F8 FF FF 7F F8 FF         f........
0030: FF 7F 74 68 6B 31 00                              ..thk1.         
```

#### Opcodes

```
  0: 0x0027 [0x66] LOAD_EXT_SCHEDULER_MAIN: Load scheduler "thk1" with entities [EventEntity, EventEntity], work=20*
  1: 0x0036 [0x00] END_REQSTACK()
```

### Event 65535.4

#### Metadata

| Field        | Value    |
|--------------|----------|
| Entrypoint   | 0x0037   |
| Data Size    | 14 bytes |
| Instructions | 2        |

```
      00 01 02 03 04 05 06 07  08 09 0A 0B 0C 0D 0E 0F
      -- -- -- -- -- -- -- --  -- -- -- -- -- -- -- --
0030:                      53  F8 FF FF 7F F8 FF FF 7F         S........
0040: 74 68 6B 31 00                                    thk1.           
```

#### Opcodes

```
  0: 0x0037 [0x53] WAIT_SCHEDULER_TASK: Wait for scheduler "thk1" with entities [EventEntity, EventEntity]
  1: 0x0044 [0x00] END_REQSTACK()
```

### Event 65535.5

#### Metadata

| Field        | Value    |
|--------------|----------|
| Entrypoint   | 0x0045   |
| Data Size    | 16 bytes |
| Instructions | 2        |

```
      00 01 02 03 04 05 06 07  08 09 0A 0B 0C 0D 0E 0F
      -- -- -- -- -- -- -- --  -- -- -- -- -- -- -- --
0040:                66 00 80  F8 FF FF 7F F8 FF FF 7F       f..........
0050: 74 68 6B 32 00                                    thk2.           
```

#### Opcodes

```
  0: 0x0045 [0x66] LOAD_EXT_SCHEDULER_MAIN: Load scheduler "thk2" with entities [EventEntity, EventEntity], work=20*
  1: 0x0054 [0x00] END_REQSTACK()
```

### Event 65535.6

#### Metadata

| Field        | Value    |
|--------------|----------|
| Entrypoint   | 0x0055   |
| Data Size    | 14 bytes |
| Instructions | 2        |

```
      00 01 02 03 04 05 06 07  08 09 0A 0B 0C 0D 0E 0F
      -- -- -- -- -- -- -- --  -- -- -- -- -- -- -- --
0050:                53 F8 FF  FF 7F F8 FF FF 7F 74 68       S........th
0060: 6B 32 00                                          k2.             
```

#### Opcodes

```
  0: 0x0055 [0x53] WAIT_SCHEDULER_TASK: Wait for scheduler "thk2" with entities [EventEntity, EventEntity]
  1: 0x0062 [0x00] END_REQSTACK()
```

### Event 65535.7

#### Metadata

| Field        | Value    |
|--------------|----------|
| Entrypoint   | 0x0063   |
| Data Size    | 16 bytes |
| Instructions | 2        |

```
      00 01 02 03 04 05 06 07  08 09 0A 0B 0C 0D 0E 0F
      -- -- -- -- -- -- -- --  -- -- -- -- -- -- -- --
0060:          66 00 80 F8 FF  FF 7F F8 FF FF 7F 70 61     f..........pa
0070: 73 30 00                                          s0.             
```

#### Opcodes

```
  0: 0x0063 [0x66] LOAD_EXT_SCHEDULER_MAIN: Load scheduler "pas0" with entities [EventEntity, EventEntity], work=20*
  1: 0x0072 [0x00] END_REQSTACK()
```

### Event 65535.8

#### Metadata

| Field        | Value    |
|--------------|----------|
| Entrypoint   | 0x0073   |
| Data Size    | 14 bytes |
| Instructions | 2        |

```
      00 01 02 03 04 05 06 07  08 09 0A 0B 0C 0D 0E 0F
      -- -- -- -- -- -- -- --  -- -- -- -- -- -- -- --
0070:          53 F8 FF FF 7F  F8 FF FF 7F 70 61 73 30     S........pas0
0080: 00                                                .               
```

#### Opcodes

```
  0: 0x0073 [0x53] WAIT_SCHEDULER_TASK: Wait for scheduler "pas0" with entities [EventEntity, EventEntity]
  1: 0x0080 [0x00] END_REQSTACK()
```

### Event 65535.9

#### Metadata

| Field        | Value    |
|--------------|----------|
| Entrypoint   | 0x0081   |
| Data Size    | 16 bytes |
| Instructions | 2        |

```
      00 01 02 03 04 05 06 07  08 09 0A 0B 0C 0D 0E 0F
      -- -- -- -- -- -- -- --  -- -- -- -- -- -- -- --
0080:    66 00 80 F8 FF FF 7F  F8 FF FF 7F 70 6F 69 31   f..........poi1
0090: 00                                                .               
```

#### Opcodes

```
  0: 0x0081 [0x66] LOAD_EXT_SCHEDULER_MAIN: Load scheduler "poi1" with entities [EventEntity, EventEntity], work=20*
  1: 0x0090 [0x00] END_REQSTACK()
```

### Event 65535.10

#### Metadata

| Field        | Value    |
|--------------|----------|
| Entrypoint   | 0x0091   |
| Data Size    | 14 bytes |
| Instructions | 2        |

```
      00 01 02 03 04 05 06 07  08 09 0A 0B 0C 0D 0E 0F
      -- -- -- -- -- -- -- --  -- -- -- -- -- -- -- --
0090:    53 F8 FF FF 7F F8 FF  FF 7F 70 6F 69 31 00      S........poi1. 
```

#### Opcodes

```
  0: 0x0091 [0x53] WAIT_SCHEDULER_TASK: Wait for scheduler "poi1" with entities [EventEntity, EventEntity]
  1: 0x009E [0x00] END_REQSTACK()
```

### Event 65535.11

#### Metadata

| Field        | Value    |
|--------------|----------|
| Entrypoint   | 0x009F   |
| Data Size    | 16 bytes |
| Instructions | 2        |

```
      00 01 02 03 04 05 06 07  08 09 0A 0B 0C 0D 0E 0F
      -- -- -- -- -- -- -- --  -- -- -- -- -- -- -- --
0090:                                               66                 f
00A0: 00 80 F8 FF FF 7F F8 FF  FF 7F 70 6F 69 32 00     ..........poi2. 
```

#### Opcodes

```
  0: 0x009F [0x66] LOAD_EXT_SCHEDULER_MAIN: Load scheduler "poi2" with entities [EventEntity, EventEntity], work=20*
  1: 0x00AE [0x00] END_REQSTACK()
```

### Event 65535.12

#### Metadata

| Field        | Value    |
|--------------|----------|
| Entrypoint   | 0x00AF   |
| Data Size    | 14 bytes |
| Instructions | 2        |

```
      00 01 02 03 04 05 06 07  08 09 0A 0B 0C 0D 0E 0F
      -- -- -- -- -- -- -- --  -- -- -- -- -- -- -- --
00A0:                                               53                 S
00B0: F8 FF FF 7F F8 FF FF 7F  70 6F 69 32 00           ........poi2.   
```

#### Opcodes

```
  0: 0x00AF [0x53] WAIT_SCHEDULER_TASK: Wait for scheduler "poi2" with entities [EventEntity, EventEntity]
  1: 0x00BC [0x00] END_REQSTACK()
```

### Event 65535.13

#### Metadata

| Field        | Value    |
|--------------|----------|
| Entrypoint   | 0x00BD   |
| Data Size    | 16 bytes |
| Instructions | 2        |

```
      00 01 02 03 04 05 06 07  08 09 0A 0B 0C 0D 0E 0F
      -- -- -- -- -- -- -- --  -- -- -- -- -- -- -- --
00B0:                                         66 02 80               f..
00C0: F8 FF FF 7F F8 FF FF 7F  70 6F 69 30 00           ........poi0.   
```

#### Opcodes

```
  0: 0x00BD [0x66] LOAD_EXT_SCHEDULER_MAIN: Load scheduler "poi0" with entities [EventEntity, EventEntity], work=21*
  1: 0x00CC [0x00] END_REQSTACK()
```

### Event 65535.14

#### Metadata

| Field        | Value    |
|--------------|----------|
| Entrypoint   | 0x00CD   |
| Data Size    | 14 bytes |
| Instructions | 2        |

```
      00 01 02 03 04 05 06 07  08 09 0A 0B 0C 0D 0E 0F
      -- -- -- -- -- -- -- --  -- -- -- -- -- -- -- --
00C0:                                         53 F8 FF               S..
00D0: FF 7F F8 FF FF 7F 70 6F  69 30 00                 ......poi0.     
```

#### Opcodes

```
  0: 0x00CD [0x53] WAIT_SCHEDULER_TASK: Wait for scheduler "poi0" with entities [EventEntity, EventEntity]
  1: 0x00DA [0x00] END_REQSTACK()
```

### Event 65535.15

#### Metadata

| Field        | Value    |
|--------------|----------|
| Entrypoint   | 0x00DB   |
| Data Size    | 16 bytes |
| Instructions | 2        |

```
      00 01 02 03 04 05 06 07  08 09 0A 0B 0C 0D 0E 0F
      -- -- -- -- -- -- -- --  -- -- -- -- -- -- -- --
00D0:                                   66 02 80 F8 FF             f....
00E0: FF 7F F8 FF FF 7F 70 6F  69 31 00                 ......poi1.     
```

#### Opcodes

```
  0: 0x00DB [0x66] LOAD_EXT_SCHEDULER_MAIN: Load scheduler "poi1" with entities [EventEntity, EventEntity], work=21*
  1: 0x00EA [0x00] END_REQSTACK()
```

### Event 65535.16

#### Metadata

| Field        | Value    |
|--------------|----------|
| Entrypoint   | 0x00EB   |
| Data Size    | 14 bytes |
| Instructions | 2        |

```
      00 01 02 03 04 05 06 07  08 09 0A 0B 0C 0D 0E 0F
      -- -- -- -- -- -- -- --  -- -- -- -- -- -- -- --
00E0:                                   53 F8 FF FF 7F             S....
00F0: F8 FF FF 7F 70 6F 69 31  00                       ....poi1.       
```

#### Opcodes

```
  0: 0x00EB [0x53] WAIT_SCHEDULER_TASK: Wait for scheduler "poi1" with entities [EventEntity, EventEntity]
  1: 0x00F8 [0x00] END_REQSTACK()
```

### Event 65535.17

#### Metadata

| Field        | Value    |
|--------------|----------|
| Entrypoint   | 0x00F9   |
| Data Size    | 16 bytes |
| Instructions | 2        |

```
      00 01 02 03 04 05 06 07  08 09 0A 0B 0C 0D 0E 0F
      -- -- -- -- -- -- -- --  -- -- -- -- -- -- -- --
00F0:                             66 02 80 F8 FF FF 7F           f......
0100: F8 FF FF 7F 64 69 73 30  00                       ....dis0.       
```

#### Opcodes

```
  0: 0x00F9 [0x66] LOAD_EXT_SCHEDULER_MAIN: Load scheduler "dis0" with entities [EventEntity, EventEntity], work=21*
  1: 0x0108 [0x00] END_REQSTACK()
```

### Event 65535.18

#### Metadata

| Field        | Value    |
|--------------|----------|
| Entrypoint   | 0x0109   |
| Data Size    | 14 bytes |
| Instructions | 2        |

```
      00 01 02 03 04 05 06 07  08 09 0A 0B 0C 0D 0E 0F
      -- -- -- -- -- -- -- --  -- -- -- -- -- -- -- --
0100:                             53 F8 FF FF 7F F8 FF           S......
0110: FF 7F 64 69 73 30 00                              ..dis0.         
```

#### Opcodes

```
  0: 0x0109 [0x53] WAIT_SCHEDULER_TASK: Wait for scheduler "dis0" with entities [EventEntity, EventEntity]
  1: 0x0116 [0x00] END_REQSTACK()
```

### Event 65535.19

#### Metadata

| Field        | Value   |
|--------------|---------|
| Entrypoint   | 0x0117  |
| Data Size    | 9 bytes |
| Instructions | 3       |

```
      00 01 02 03 04 05 06 07  08 09 0A 0B 0C 0D 0E 0F
      -- -- -- -- -- -- -- --  -- -- -- -- -- -- -- --
0110:                      5E  69 64 6C 30 1C 01 80 00         ^idl0....
```

#### Opcodes

```
  0: 0x0117 [0x5E] EventEntity goes idle (kills current action) (animation: "idl0")
  1: 0x011C [0x1C] WAIT(30* ticks)
  2: 0x011F [0x00] END_REQSTACK()
```

### Event 119

#### Metadata

| Field        | Value   |
|--------------|---------|
| Entrypoint   | 0x0120  |
| Data Size    | 1 bytes |
| Instructions | 1       |

```
      00 01 02 03 04 05 06 07  08 09 0A 0B 0C 0D 0E 0F
      -- -- -- -- -- -- -- --  -- -- -- -- -- -- -- --
0120: 00                                                .               
```

#### Opcodes

```
  0: 0x0120 [0x00] END_REQSTACK()
```

### Event 65535.20

#### Metadata

| Field        | Value    |
|--------------|----------|
| Entrypoint   | 0x0121   |
| Data Size    | 14 bytes |
| Instructions | 4        |

```
      00 01 02 03 04 05 06 07  08 09 0A 0B 0C 0D 0E 0F
      -- -- -- -- -- -- -- --  -- -- -- -- -- -- -- --
0120:    32 03 80 1F 00 04 80  05 80 06 80 1F 01 00      2............. 
```

#### Opcodes

```
  0: 0x0121 [0x32] ExtData[1]->MainSpeed = 13* * 0.1
  1: 0x0124 [0x1F] MOVE_ENTITY: EventEntity moves to X=-76.026*, Z=-434.573*, Y=54.820*
  2: 0x012C [0x1F] MOVE_ENTITY: Update entity position (mode=1)
  3: 0x012E [0x00] END_REQSTACK()
```

### Event 65535.21

#### Metadata

| Field        | Value    |
|--------------|----------|
| Entrypoint   | 0x012F   |
| Data Size    | 14 bytes |
| Instructions | 4        |

```
      00 01 02 03 04 05 06 07  08 09 0A 0B 0C 0D 0E 0F
      -- -- -- -- -- -- -- --  -- -- -- -- -- -- -- --
0120:                                               32                 2
0130: 03 80 1F 00 07 80 08 80  09 80 1F 01 00           .............   
```

#### Opcodes

```
  0: 0x012F [0x32] ExtData[1]->MainSpeed = 13* * 0.1
  1: 0x0132 [0x1F] MOVE_ENTITY: EventEntity moves to X=-75.654*, Z=-437.555*, Y=54.731*
  2: 0x013A [0x1F] MOVE_ENTITY: Update entity position (mode=1)
  3: 0x013C [0x00] END_REQSTACK()
```

### Event 65535.22

#### Metadata

| Field        | Value    |
|--------------|----------|
| Entrypoint   | 0x013D   |
| Data Size    | 11 bytes |
| Instructions | 3        |

```
      00 01 02 03 04 05 06 07  08 09 0A 0B 0C 0D 0E 0F
      -- -- -- -- -- -- -- --  -- -- -- -- -- -- -- --
0130:                                         1F 00 0A               ...
0140: 80 0B 80 0C 80 1F 01 00                           ........        
```

#### Opcodes

```
  0: 0x013D [0x1F] MOVE_ENTITY: EventEntity moves to X=-75.314*, Z=-439.209*, Y=54.714*
  1: 0x0145 [0x1F] MOVE_ENTITY: Update entity position (mode=1)
  2: 0x0147 [0x00] END_REQSTACK()
```

### Event 65535.23

#### Metadata

| Field        | Value    |
|--------------|----------|
| Entrypoint   | 0x0148   |
| Data Size    | 53 bytes |
| Instructions | 5        |

```
      00 01 02 03 04 05 06 07  08 09 0A 0B 0C 0D 0E 0F
      -- -- -- -- -- -- -- --  -- -- -- -- -- -- -- --
0140:                          45 0D 80 F0 FF FF 7F F0          E.......
0150: FF FF 7F 73 30 37 35 0E  80 1C 0F 80 52 0D 80 F0  ...s075.....R...
0160: FF FF 7F F0 FF FF 7F 73  30 37 35 45 0D 80 F0 FF  .......s075E....
0170: FF 7F F0 FF FF 7F 73 30  37 37 0E 80 00           ......s077...   
```

#### Opcodes

```
  0: 0x0148 [0x45] LOAD_SCHEDULED_TASK: Load scheduler "s075" with entities [LocalPlayer, LocalPlayer], work=[15*, 0*]
  1: 0x0159 [0x1C] WAIT(100* ticks)
  2: 0x015C [0x52] END_LOAD_SCHEDULER: End scheduler "s075" with entities [LocalPlayer, LocalPlayer], work=15*
  3: 0x016B [0x45] LOAD_SCHEDULED_TASK: Load scheduler "s077" with entities [LocalPlayer, LocalPlayer], work=[15*, 0*]
  4: 0x017C [0x00] END_REQSTACK()
```

### Event 65535.24

#### Metadata

| Field        | Value   |
|--------------|---------|
| Entrypoint   | 0x017D  |
| Data Size    | 5 bytes |
| Instructions | 3       |

```
      00 01 02 03 04 05 06 07  08 09 0A 0B 0C 0D 0E 0F
      -- -- -- -- -- -- -- --  -- -- -- -- -- -- -- --
0170:                                         1D 10 80               ...
0180: 23 00                                             #.              
```

#### Opcodes

```
  0: 0x017D [0x1D] PRINT_EVENT_MESSAGE(message_id=7515*)
    → "Well, well. It seems we have some uninvited guests..."
  1: 0x0180 [0x23] WAIT_FOR_DIALOG_INTERACTION
  2: 0x0181 [0x00] END_REQSTACK()
```

### Event 65535.25

#### Metadata

| Field        | Value   |
|--------------|---------|
| Entrypoint   | 0x0182  |
| Data Size    | 5 bytes |
| Instructions | 3       |

```
      00 01 02 03 04 05 06 07  08 09 0A 0B 0C 0D 0E 0F
      -- -- -- -- -- -- -- --  -- -- -- -- -- -- -- --
0180:       1D 11 80 23 00                                ...#.         
```

#### Opcodes

```
  0: 0x0182 [0x1D] PRINT_EVENT_MESSAGE(message_id=7520*)
    → "Wait, I know these people. They helped me with a little task at the Tenshodo."
  1: 0x0185 [0x23] WAIT_FOR_DIALOG_INTERACTION
  2: 0x0186 [0x00] END_REQSTACK()
```

### Event 65535.26

#### Metadata

| Field        | Value   |
|--------------|---------|
| Entrypoint   | 0x0187  |
| Data Size    | 5 bytes |
| Instructions | 3       |

```
      00 01 02 03 04 05 06 07  08 09 0A 0B 0C 0D 0E 0F
      -- -- -- -- -- -- -- --  -- -- -- -- -- -- -- --
0180:                      1D  12 80 23 00                     ...#.    
```

#### Opcodes

```
  0: 0x0187 [0x1D] PRINT_EVENT_MESSAGE(message_id=7521*)
    → "I thought this might happen, but... For the two of you to make it this far, it would seem that not all thieves are totally incompetent these days."
  1: 0x018A [0x23] WAIT_FOR_DIALOG_INTERACTION
  2: 0x018B [0x00] END_REQSTACK()
```

### Event 65535.27

#### Metadata

| Field        | Value   |
|--------------|---------|
| Entrypoint   | 0x018C  |
| Data Size    | 5 bytes |
| Instructions | 3       |

```
      00 01 02 03 04 05 06 07  08 09 0A 0B 0C 0D 0E 0F
      -- -- -- -- -- -- -- --  -- -- -- -- -- -- -- --
0180:                                      1D 13 80 23              ...#
0190: 00                                                .               
```

#### Opcodes

```
  0: 0x018C [0x1D] PRINT_EVENT_MESSAGE(message_id=7523*)
    → "Of course. This is Nanaa Mihgo of Windurst, and <Player>, an adventurer [of San d'Oria/of Bastok/also of Windurst]."
  1: 0x018F [0x23] WAIT_FOR_DIALOG_INTERACTION
  2: 0x0190 [0x00] END_REQSTACK()
```

### Event 65535.28

#### Metadata

| Field        | Value   |
|--------------|---------|
| Entrypoint   | 0x0191  |
| Data Size    | 5 bytes |
| Instructions | 3       |

```
      00 01 02 03 04 05 06 07  08 09 0A 0B 0C 0D 0E 0F
      -- -- -- -- -- -- -- --  -- -- -- -- -- -- -- --
0190:    1D 14 80 23 00                                  ...#.          
```

#### Opcodes

```
  0: 0x0191 [0x1D] PRINT_EVENT_MESSAGE(message_id=7524*)
    → "Linzaza, you mentioned someone asked for your signature again. I'm assuming that that someone is standing before you now."
  1: 0x0194 [0x23] WAIT_FOR_DIALOG_INTERACTION
  2: 0x0195 [0x00] END_REQSTACK()
```

### Event 65535.29

#### Metadata

| Field        | Value   |
|--------------|---------|
| Entrypoint   | 0x0196  |
| Data Size    | 5 bytes |
| Instructions | 3       |

```
      00 01 02 03 04 05 06 07  08 09 0A 0B 0C 0D 0E 0F
      -- -- -- -- -- -- -- --  -- -- -- -- -- -- -- --
0190:                   1D 15  80 23 00                       ...#.     
```

#### Opcodes

```
  0: 0x0196 [0x1D] PRINT_EVENT_MESSAGE(message_id=7529*)
    → "You forget, Kanika. Atarefaunet's band is no more. We are now known as Vauderame's Knights."
  1: 0x0199 [0x23] WAIT_FOR_DIALOG_INTERACTION
  2: 0x019A [0x00] END_REQSTACK()
```

### Event 65535.30

#### Metadata

| Field        | Value    |
|--------------|----------|
| Entrypoint   | 0x019B   |
| Data Size    | 19 bytes |
| Instructions | 5        |

```
      00 01 02 03 04 05 06 07  08 09 0A 0B 0C 0D 0E 0F
      -- -- -- -- -- -- -- --  -- -- -- -- -- -- -- --
0190:                                   29 08 70 62 06             ).pb.
01A0: 01 01 1D 16 80 23 29 08  70 62 06 01 02 00        .....#).pb....  
```

#### Opcodes

```
  0: 0x019B [0x29] REQ_SET_WAIT(priority=0x08, entity_id=Vauderame (ID: 17195632/0x01066270), tag_num=0x01)
  1: 0x01A2 [0x1D] PRINT_EVENT_MESSAGE(message_id=7530*)
    → "I waited twenty years for the former Marquis to remember everything. All that is left is to restore the glory of our lost kingdom."
  2: 0x01A5 [0x23] WAIT_FOR_DIALOG_INTERACTION
  3: 0x01A6 [0x29] REQ_SET_WAIT(priority=0x08, entity_id=Vauderame (ID: 17195632/0x01066270), tag_num=0x02)
  4: 0x01AD [0x00] END_REQSTACK()
```

### Event 65535.31

#### Metadata

| Field        | Value   |
|--------------|---------|
| Entrypoint   | 0x01AE  |
| Data Size    | 5 bytes |
| Instructions | 3       |

```
      00 01 02 03 04 05 06 07  08 09 0A 0B 0C 0D 0E 0F
      -- -- -- -- -- -- -- --  -- -- -- -- -- -- -- --
01A0:                                            1D 17                ..
01B0: 80 23 00                                          .#.             
```

#### Opcodes

```
  0: 0x01AE [0x1D] PRINT_EVENT_MESSAGE(message_id=7533*)
    → "Not one of you has changed, even after all these years. Luckily, I was prepared for this."
  1: 0x01B1 [0x23] WAIT_FOR_DIALOG_INTERACTION
  2: 0x01B2 [0x00] END_REQSTACK()
```

### Event 65535.32

#### Metadata

| Field        | Value    |
|--------------|----------|
| Entrypoint   | 0x01B3   |
| Data Size    | 19 bytes |
| Instructions | 5        |

```
      00 01 02 03 04 05 06 07  08 09 0A 0B 0C 0D 0E 0F
      -- -- -- -- -- -- -- --  -- -- -- -- -- -- -- --
01B0:          29 08 70 62 06  01 01 1D 18 80 23 29 08     ).pb......#).
01C0: 70 62 06 01 02 00                                 pb....          
```

#### Opcodes

```
  0: 0x01B3 [0x29] REQ_SET_WAIT(priority=0x08, entity_id=Vauderame (ID: 17195632/0x01066270), tag_num=0x01)
  1: 0x01BA [0x1D] PRINT_EVENT_MESSAGE(message_id=7534*)
    → "...Take care of it."
  2: 0x01BD [0x23] WAIT_FOR_DIALOG_INTERACTION
  3: 0x01BE [0x29] REQ_SET_WAIT(priority=0x08, entity_id=Vauderame (ID: 17195632/0x01066270), tag_num=0x02)
  4: 0x01C5 [0x00] END_REQSTACK()
```

### Event 65535.33

#### Metadata

| Field        | Value   |
|--------------|---------|
| Entrypoint   | 0x01C6  |
| Data Size    | 5 bytes |
| Instructions | 3       |

```
      00 01 02 03 04 05 06 07  08 09 0A 0B 0C 0D 0E 0F
      -- -- -- -- -- -- -- --  -- -- -- -- -- -- -- --
01C0:                   1D 19  80 23 00                       ...#.     
```

#### Opcodes

```
  0: 0x01C6 [0x1D] PRINT_EVENT_MESSAGE(message_id=7539*)
    → "Mithra might seem wild and free, but they are deeply tied to one another. If we kill this one now, others will come looking for revenge. They will chase us to the ends of Vana'diel."
  1: 0x01C9 [0x23] WAIT_FOR_DIALOG_INTERACTION
  2: 0x01CA [0x00] END_REQSTACK()
```

### Event 65535.34

#### Metadata

| Field        | Value   |
|--------------|---------|
| Entrypoint   | 0x01CB  |
| Data Size    | 5 bytes |
| Instructions | 3       |

```
      00 01 02 03 04 05 06 07  08 09 0A 0B 0C 0D 0E 0F
      -- -- -- -- -- -- -- --  -- -- -- -- -- -- -- --
01C0:                                   1D 1A 80 23 00             ...#.
```

#### Opcodes

```
  0: 0x01CB [0x1D] PRINT_EVENT_MESSAGE(message_id=7540*)
    → "Then there is this adventurer. [He/She] looks like someone I did away with in another time..."
  1: 0x01CE [0x23] WAIT_FOR_DIALOG_INTERACTION
  2: 0x01CF [0x00] END_REQSTACK()
```

### Event 65535.35

#### Metadata

| Field        | Value   |
|--------------|---------|
| Entrypoint   | 0x01D0  |
| Data Size    | 5 bytes |
| Instructions | 3       |

```
      00 01 02 03 04 05 06 07  08 09 0A 0B 0C 0D 0E 0F
      -- -- -- -- -- -- -- --  -- -- -- -- -- -- -- --
01D0: 1D 1B 80 23 00                                    ...#.           
```

#### Opcodes

```
  0: 0x01D0 [0x1D] PRINT_EVENT_MESSAGE(message_id=7542*)
    → "...Perhaps you're right. A foothold into the country I have spent twenty years restoring... Maybe my ego demands a witness to all that I have accomplished."
  1: 0x01D3 [0x23] WAIT_FOR_DIALOG_INTERACTION
  2: 0x01D4 [0x00] END_REQSTACK()
```

### Event 65535.36

#### Metadata

| Field        | Value   |
|--------------|---------|
| Entrypoint   | 0x01D5  |
| Data Size    | 5 bytes |
| Instructions | 3       |

```
      00 01 02 03 04 05 06 07  08 09 0A 0B 0C 0D 0E 0F
      -- -- -- -- -- -- -- --  -- -- -- -- -- -- -- --
01D0:                1D 1C 80  23 00                         ...#.      
```

#### Opcodes

```
  0: 0x01D5 [0x1D] PRINT_EVENT_MESSAGE(message_id=7544*)
    → "I will join you as soon as I can. Let us meet again in a newborn country..."
  1: 0x01D8 [0x23] WAIT_FOR_DIALOG_INTERACTION
  2: 0x01D9 [0x00] END_REQSTACK()
```
