# 17195661 - Wolfgang

## Common Data

| Field            | Value                       |
|------------------|-----------------------------|
| Zone             | La Theine Plateau (ID: 102) |
| Block Size       | 192 bytes                   |
| Total Events     | 6                           |
| References Count | 16                          |

## List of Events

| Event ID                 | Entrypoint   |   Size |   Instructions |
|--------------------------|--------------|--------|----------------|
| [65535](#event-65535)    | 0x0000       |      7 |              2 |
| [201](#event-201)        | 0x0007       |      1 |              1 |
| [65535.1](#event-655351) | 0x0008       |     17 |              4 |
| [65535.2](#event-655352) | 0x0019       |     19 |              5 |
| [65535.3](#event-655353) | 0x002C       |     29 |              6 |
| [65535.4](#event-655354) | 0x0049       |     14 |              4 |

## DAT References (imed_data)

|   Index | Hex Value   |   Dec Value |
|---------|-------------|-------------|
|       0 | 0x4CA01     |      313857 |
|       1 | 0xFFFF3D35  |  4294917429 |
|       2 | 0x5DAC      |       23980 |
|       3 | 0x02DE      |         734 |
|       4 | 0x000D      |          13 |
|       5 | 0x4D026     |      315430 |
|       6 | 0xFFFF2A9D  |  4294912669 |
|       7 | 0x5F4D      |       24397 |
|       8 | 0x4B8AB     |      309419 |
|       9 | 0xFFFF7326  |  4294931238 |
|      10 | 0x5E3E      |       24126 |
|      11 | 0x0296      |         662 |
|      12 | 0x0050      |          80 |
|      13 | 0x4CD9E     |      314782 |
|      14 | 0xFFFF4246  |  4294918726 |
|      15 | 0x5D9D      |       23965 |

## Events

### Event 65535

#### Metadata

| Field        | Value   |
|--------------|---------|
| Entrypoint   | 0x0000  |
| Data Size    | 7 bytes |
| Instructions | 2       |

```
      00 01 02 03 04 05 06 07  08 09 0A 0B 0C 0D 0E 0F
      -- -- -- -- -- -- -- --  -- -- -- -- -- -- -- --
0000: 92 01 F8 FF FF 7F 00                              .......         
```

#### Opcodes

```
  0: 0x0000 [0x92] EventEntity->Render.Flags3 ^= 0x01
  1: 0x0006 [0x00] END_REQSTACK()
```

### Event 201

#### Metadata

| Field        | Value   |
|--------------|---------|
| Entrypoint   | 0x0007  |
| Data Size    | 1 bytes |
| Instructions | 1       |

```
      00 01 02 03 04 05 06 07  08 09 0A 0B 0C 0D 0E 0F
      -- -- -- -- -- -- -- --  -- -- -- -- -- -- -- --
0000:                      00                                  .        
```

#### Opcodes

```
  0: 0x0007 [0x00] END_REQSTACK()
```

### Event 65535.1

#### Metadata

| Field        | Value    |
|--------------|----------|
| Entrypoint   | 0x0008   |
| Data Size    | 17 bytes |
| Instructions | 4        |

```
      00 01 02 03 04 05 06 07  08 09 0A 0B 0C 0D 0E 0F
      -- -- -- -- -- -- -- --  -- -- -- -- -- -- -- --
0000:                          7E 00 F8 FF FF 7F 37 00          ~.....7.
0010: 80 01 80 02 80 03 80 84  00                       .........       
```

#### Opcodes

```
  0: 0x0008 [0x7E] CHOCOBO_MOUNT: Dismount EventEntity (status = 0)
  1: 0x000E [0x37] UPDATE_EVENT_POSITION_AND_DIR: x=313.857*, z=-49.867*, y=23.980*, direction=64.5°*
  2: 0x0017 [0x84] ADJUST_RENDER_FLAGS3_BIT0()
  3: 0x0018 [0x00] END_REQSTACK()
```

### Event 65535.2

#### Metadata

| Field        | Value    |
|--------------|----------|
| Entrypoint   | 0x0019   |
| Data Size    | 19 bytes |
| Instructions | 5        |

```
      00 01 02 03 04 05 06 07  08 09 0A 0B 0C 0D 0E 0F
      -- -- -- -- -- -- -- --  -- -- -- -- -- -- -- --
0010:                             80 8D 62 06 01 32 04           ..b..2.
0020: 80 1F 00 05 80 06 80 07  80 1F 01 00              ............    
```

#### Opcodes

```
  0: 0x0019 [0x80] LOAD_WAIT(entity=Wolfgang (ID: 17195661/0x0106628D))
  1: 0x001E [0x32] ExtData[1]->MainSpeed = 13* * 0.1
  2: 0x0021 [0x1F] MOVE_ENTITY: EventEntity moves to X=315.430*, Z=-54.627*, Y=24.397*
  3: 0x0029 [0x1F] MOVE_ENTITY: Update entity position (mode=1)
  4: 0x002B [0x00] END_REQSTACK()
```

### Event 65535.3

#### Metadata

| Field        | Value    |
|--------------|----------|
| Entrypoint   | 0x002C   |
| Data Size    | 29 bytes |
| Instructions | 6        |

```
      00 01 02 03 04 05 06 07  08 09 0A 0B 0C 0D 0E 0F
      -- -- -- -- -- -- -- --  -- -- -- -- -- -- -- --
0020:                                      22 00 37 08              ".7.
0030: 80 09 80 0A 80 0B 80 7E  01 F8 FF FF 7F 7E 02 F8  .......~.....~..
0040: FF FF 7F 80 F8 FF FF 7F  00                       .........       
```

#### Opcodes

```
  0: 0x002C [0x22] ENTITY_HIDE_FLAG(enabled=0x00)
  1: 0x002E [0x37] UPDATE_EVENT_POSITION_AND_DIR: x=309.419*, z=-36.058*, y=24.126*, direction=58.2°*
  2: 0x0037 [0x7E] CHOCOBO_MOUNT: Mount chocobo on EventEntity (status = 5)
  3: 0x003D [0x7E] CHOCOBO_MOUNT: Execute attachment function on EventEntity
  4: 0x0043 [0x80] LOAD_WAIT(entity=EventEntity)
  5: 0x0048 [0x00] END_REQSTACK()
```

### Event 65535.4

#### Metadata

| Field        | Value    |
|--------------|----------|
| Entrypoint   | 0x0049   |
| Data Size    | 14 bytes |
| Instructions | 4        |

```
      00 01 02 03 04 05 06 07  08 09 0A 0B 0C 0D 0E 0F
      -- -- -- -- -- -- -- --  -- -- -- -- -- -- -- --
0040:                             32 0C 80 1F 00 0D 80           2......
0050: 0E 80 0F 80 1F 01 00                              .......         
```

#### Opcodes

```
  0: 0x0049 [0x32] ExtData[1]->MainSpeed = 80* * 0.1
  1: 0x004C [0x1F] MOVE_ENTITY: EventEntity moves to X=314.782*, Z=-48.570*, Y=23.965*
  2: 0x0054 [0x1F] MOVE_ENTITY: Update entity position (mode=1)
  3: 0x0056 [0x00] END_REQSTACK()
```
