# 17195641 - Nanaa Mihgo

## Common Data

| Field            | Value                       |
|------------------|-----------------------------|
| Zone             | La Theine Plateau (ID: 102) |
| Block Size       | 1180 bytes                  |
| Total Events     | 50                          |
| References Count | 43                          |

## List of Events

| Event ID                   | Entrypoint   |   Size |   Instructions |
|----------------------------|--------------|--------|----------------|
| [65535](#event-65535)      | 0x0000       |      1 |              1 |
| [65535.1](#event-655351)   | 0x0001       |     16 |              2 |
| [65535.2](#event-655352)   | 0x0011       |     14 |              2 |
| [65535.3](#event-655353)   | 0x001F       |     16 |              2 |
| [65535.4](#event-655354)   | 0x002F       |     14 |              2 |
| [65535.5](#event-655355)   | 0x003D       |     16 |              2 |
| [65535.6](#event-655356)   | 0x004D       |     14 |              2 |
| [65535.7](#event-655357)   | 0x005B       |     16 |              2 |
| [65535.8](#event-655358)   | 0x006B       |     14 |              2 |
| [65535.9](#event-655359)   | 0x0079       |     22 |              3 |
| [65535.10](#event-6553510) | 0x008F       |     14 |              2 |
| [65535.11](#event-6553511) | 0x009D       |     16 |              2 |
| [65535.12](#event-6553512) | 0x00AD       |     20 |              3 |
| [65535.13](#event-6553513) | 0x00C1       |     16 |              2 |
| [65535.14](#event-6553514) | 0x00D1       |     14 |              2 |
| [65535.15](#event-6553515) | 0x00DF       |     16 |              2 |
| [65535.16](#event-6553516) | 0x00EF       |     14 |              2 |
| [65535.17](#event-6553517) | 0x00FD       |     16 |              2 |
| [65535.18](#event-6553518) | 0x010D       |     14 |              2 |
| [65535.19](#event-6553519) | 0x011B       |     16 |              2 |
| [65535.20](#event-6553520) | 0x012B       |     14 |              2 |
| [65535.21](#event-6553521) | 0x0139       |     16 |              2 |
| [65535.22](#event-6553522) | 0x0149       |     14 |              2 |
| [65535.23](#event-6553523) | 0x0157       |     16 |              2 |
| [65535.24](#event-6553524) | 0x0167       |     14 |              2 |
| [65535.25](#event-6553525) | 0x0175       |     16 |              2 |
| [65535.26](#event-6553526) | 0x0185       |     14 |              2 |
| [65535.27](#event-6553527) | 0x0193       |     16 |              2 |
| [65535.28](#event-6553528) | 0x01A3       |     14 |              2 |
| [65535.29](#event-6553529) | 0x01B1       |      9 |              3 |
| [65535.30](#event-6553530) | 0x01BA       |     57 |              5 |
| [65535.31](#event-6553531) | 0x01F3       |     29 |              3 |
| [65535.32](#event-6553532) | 0x0210       |     29 |              3 |
| [119](#event-119)          | 0x022D       |      1 |              1 |
| [65535.33](#event-6553533) | 0x022E       |     10 |              2 |
| [65535.34](#event-6553534) | 0x0238       |     24 |              6 |
| [65535.35](#event-6553535) | 0x0250       |     31 |              9 |
| [65535.36](#event-6553536) | 0x026F       |     11 |              3 |
| [65535.37](#event-6553537) | 0x027A       |     41 |              5 |
| [65535.38](#event-6553538) | 0x02A3       |      5 |              3 |
| [65535.39](#event-6553539) | 0x02A8       |      5 |              3 |
| [65535.40](#event-6553540) | 0x02AD       |      5 |              3 |
| [65535.41](#event-6553541) | 0x02B2       |      5 |              3 |
| [65535.42](#event-6553542) | 0x02B7       |      5 |              3 |
| [65535.43](#event-6553543) | 0x02BC       |      5 |              3 |
| [65535.44](#event-6553544) | 0x02C1       |     23 |              7 |
| [65535.45](#event-6553545) | 0x02D8       |     19 |              5 |
| [65535.46](#event-6553546) | 0x02EB       |     19 |              5 |
| [65535.47](#event-6553547) | 0x02FE       |     19 |              5 |
| [65535.48](#event-6553548) | 0x0311       |      5 |              3 |

## DAT References (imed_data)

|   Index | Hex Value   |   Dec Value |
|---------|-------------|-------------|
|       0 | 0x0172      |         370 |
|       1 | 0x0166      |         358 |
|       2 | 0x0168      |         360 |
|       3 | 0x016C      |         364 |
|       4 | 0x0164      |         356 |
|       5 | 0x001E      |          30 |
|       6 | 0x0170      |         368 |
|       7 | 0xFFFEDFFB  |  4294893563 |
|       8 | 0xFFF94304  |  4294525700 |
|       9 | 0xD56C      |       54636 |
|      10 | 0x0AA3      |        2723 |
|      11 | 0x0028      |          40 |
|      12 | 0xFFFED8A2  |  4294891682 |
|      13 | 0xFFF95C70  |  4294532208 |
|      14 | 0xD5F6      |       54774 |
|      15 | 0xFFFEDCF5  |  4294892789 |
|      16 | 0xFFF9514D  |  4294529357 |
|      17 | 0xD592      |       54674 |
|      18 | 0x000D      |          13 |
|      19 | 0xFFFEDF5B  |  4294893403 |
|      20 | 0xFFF9445E  |  4294526046 |
|      21 | 0xD574      |       54644 |
|      22 | 0xFFFEE239  |  4294894137 |
|      23 | 0xFFF941DA  |  4294525402 |
|      24 | 0xD54F      |       54607 |
|      25 | 0xFFFEDB0A  |  4294892298 |
|      26 | 0xFFF94C72  |  4294528114 |
|      27 | 0xD5AB      |       54699 |
|      28 | 0x00C8      |         200 |
|      29 | 0x0000      |           0 |
|      30 | 0x003C      |          60 |
|      31 | 0x1D55      |        7509 |
|      32 | 0x1D56      |        7510 |
|      33 | 0x1D58      |        7512 |
|      34 | 0x1D59      |        7513 |
|      35 | 0x1D5A      |        7514 |
|      36 | 0x1D7A      |        7546 |
|      37 | 0x1D7B      |        7547 |
|      38 | 0x1D7C      |        7548 |
|      39 | 0x1D7D      |        7549 |
|      40 | 0x1D7E      |        7550 |
|      41 | 0x1D7F      |        7551 |
|      42 | 0x1D80      |        7552 |

## String References

- **7509**: Hey! What do you think you're doing, finding the trrreasure chest before me!?
- **7510**: Rrright, move it or lose it. I'll be the one to open it.
- **7512**: ...Rauuugh! Got it open! Now, let's take a look at the treasure...
- **7513**: ...Huh? This is a poor haul... Some musty old armor, some velvet mantles and...ah! A golden scepter! This will go for a good price!
- **7514**: But this... This is not what I expected at all... There's something strange going on here...
- **7546**: Hey! The catnap is over!
- **7547**: You're finally up... We were caught by a trrrap on the treasure chest and sent into dreamland. It took me by surprise.
- **7548**: I thought I had disarmed the trap, but... Now my head is all woozy and I can't think straight.
- **7549**: ...Anyway, there was nothing of great value in the chest.
- **7550**: The thief boots I found in there...I already put them in your pack. They're a little worse for wear, but being part of Atarefaunet's treasure, they should be worth a bit.
- **7551**: All that's left are a couple of gems, which I claim for myself. I have those two kittens to feed--you know how it is.
- **7552**: Time to leave this place behind. Although I would like to see Vauderame's face when he opens the chest to find it empty...

## Events

### Event 65535

#### Metadata

| Field        | Value   |
|--------------|---------|
| Entrypoint   | 0x0000  |
| Data Size    | 1 bytes |
| Instructions | 1       |

```
      00 01 02 03 04 05 06 07  08 09 0A 0B 0C 0D 0E 0F
      -- -- -- -- -- -- -- --  -- -- -- -- -- -- -- --
0000: 00                                                .               
```

#### Opcodes

```
  0: 0x0000 [0x00] END_REQSTACK()
```

### Event 65535.1

#### Metadata

| Field        | Value    |
|--------------|----------|
| Entrypoint   | 0x0001   |
| Data Size    | 16 bytes |
| Instructions | 2        |

```
      00 01 02 03 04 05 06 07  08 09 0A 0B 0C 0D 0E 0F
      -- -- -- -- -- -- -- --  -- -- -- -- -- -- -- --
0000:    5B 00 80 F8 FF FF 7F  F8 FF FF 7F 74 6C 6B 30   [..........tlk0
0010: 00                                                .               
```

#### Opcodes

```
  0: 0x0001 [0x5B] LOAD_EXT_SCHEDULER: Load scheduler "tlk0" with entities [EventEntity, EventEntity], work=370*
  1: 0x0010 [0x00] END_REQSTACK()
```

### Event 65535.2

#### Metadata

| Field        | Value    |
|--------------|----------|
| Entrypoint   | 0x0011   |
| Data Size    | 14 bytes |
| Instructions | 2        |

```
      00 01 02 03 04 05 06 07  08 09 0A 0B 0C 0D 0E 0F
      -- -- -- -- -- -- -- --  -- -- -- -- -- -- -- --
0010:    53 F8 FF FF 7F F8 FF  FF 7F 74 6C 6B 30 00      S........tlk0. 
```

#### Opcodes

```
  0: 0x0011 [0x53] WAIT_SCHEDULER_TASK: Wait for scheduler "tlk0" with entities [EventEntity, EventEntity]
  1: 0x001E [0x00] END_REQSTACK()
```

### Event 65535.3

#### Metadata

| Field        | Value    |
|--------------|----------|
| Entrypoint   | 0x001F   |
| Data Size    | 16 bytes |
| Instructions | 2        |

```
      00 01 02 03 04 05 06 07  08 09 0A 0B 0C 0D 0E 0F
      -- -- -- -- -- -- -- --  -- -- -- -- -- -- -- --
0010:                                               5B                 [
0020: 00 80 F8 FF FF 7F F8 FF  FF 7F 74 6C 6B 31 00     ..........tlk1. 
```

#### Opcodes

```
  0: 0x001F [0x5B] LOAD_EXT_SCHEDULER: Load scheduler "tlk1" with entities [EventEntity, EventEntity], work=370*
  1: 0x002E [0x00] END_REQSTACK()
```

### Event 65535.4

#### Metadata

| Field        | Value    |
|--------------|----------|
| Entrypoint   | 0x002F   |
| Data Size    | 14 bytes |
| Instructions | 2        |

```
      00 01 02 03 04 05 06 07  08 09 0A 0B 0C 0D 0E 0F
      -- -- -- -- -- -- -- --  -- -- -- -- -- -- -- --
0020:                                               53                 S
0030: F8 FF FF 7F F8 FF FF 7F  74 6C 6B 31 00           ........tlk1.   
```

#### Opcodes

```
  0: 0x002F [0x53] WAIT_SCHEDULER_TASK: Wait for scheduler "tlk1" with entities [EventEntity, EventEntity]
  1: 0x003C [0x00] END_REQSTACK()
```

### Event 65535.5

#### Metadata

| Field        | Value    |
|--------------|----------|
| Entrypoint   | 0x003D   |
| Data Size    | 16 bytes |
| Instructions | 2        |

```
      00 01 02 03 04 05 06 07  08 09 0A 0B 0C 0D 0E 0F
      -- -- -- -- -- -- -- --  -- -- -- -- -- -- -- --
0030:                                         5B 00 80               [..
0040: F8 FF FF 7F F8 FF FF 7F  69 74 74 30 00           ........itt0.   
```

#### Opcodes

```
  0: 0x003D [0x5B] LOAD_EXT_SCHEDULER: Load scheduler "itt0" with entities [EventEntity, EventEntity], work=370*
  1: 0x004C [0x00] END_REQSTACK()
```

### Event 65535.6

#### Metadata

| Field        | Value    |
|--------------|----------|
| Entrypoint   | 0x004D   |
| Data Size    | 14 bytes |
| Instructions | 2        |

```
      00 01 02 03 04 05 06 07  08 09 0A 0B 0C 0D 0E 0F
      -- -- -- -- -- -- -- --  -- -- -- -- -- -- -- --
0040:                                         53 F8 FF               S..
0050: FF 7F F8 FF FF 7F 69 74  74 30 00                 ......itt0.     
```

#### Opcodes

```
  0: 0x004D [0x53] WAIT_SCHEDULER_TASK: Wait for scheduler "itt0" with entities [EventEntity, EventEntity]
  1: 0x005A [0x00] END_REQSTACK()
```

### Event 65535.7

#### Metadata

| Field        | Value    |
|--------------|----------|
| Entrypoint   | 0x005B   |
| Data Size    | 16 bytes |
| Instructions | 2        |

```
      00 01 02 03 04 05 06 07  08 09 0A 0B 0C 0D 0E 0F
      -- -- -- -- -- -- -- --  -- -- -- -- -- -- -- --
0050:                                   5B 01 80 F8 FF             [....
0060: FF 7F F8 FF FF 7F 69 74  74 31 00                 ......itt1.     
```

#### Opcodes

```
  0: 0x005B [0x5B] LOAD_EXT_SCHEDULER: Load scheduler "itt1" with entities [EventEntity, EventEntity], work=358*
  1: 0x006A [0x00] END_REQSTACK()
```

### Event 65535.8

#### Metadata

| Field        | Value    |
|--------------|----------|
| Entrypoint   | 0x006B   |
| Data Size    | 14 bytes |
| Instructions | 2        |

```
      00 01 02 03 04 05 06 07  08 09 0A 0B 0C 0D 0E 0F
      -- -- -- -- -- -- -- --  -- -- -- -- -- -- -- --
0060:                                   53 F8 FF FF 7F             S....
0070: F8 FF FF 7F 69 74 74 31  00                       ....itt1.       
```

#### Opcodes

```
  0: 0x006B [0x53] WAIT_SCHEDULER_TASK: Wait for scheduler "itt1" with entities [EventEntity, EventEntity]
  1: 0x0078 [0x00] END_REQSTACK()
```

### Event 65535.9

#### Metadata

| Field        | Value    |
|--------------|----------|
| Entrypoint   | 0x0079   |
| Data Size    | 22 bytes |
| Instructions | 3        |

```
      00 01 02 03 04 05 06 07  08 09 0A 0B 0C 0D 0E 0F
      -- -- -- -- -- -- -- --  -- -- -- -- -- -- -- --
0070:                             81 00 F8 FF FF 7F 5B           ......[
0080: 00 80 F8 FF FF 7F F8 FF  FF 7F 6E 74 6F 30 00     ..........nto0. 
```

#### Opcodes

```
  0: 0x0079 [0x81] SET_ENTITY_BLINKING(blink_flag=0x00, entity=EventEntity)
  1: 0x007F [0x5B] LOAD_EXT_SCHEDULER: Load scheduler "nto0" with entities [EventEntity, EventEntity], work=370*
  2: 0x008E [0x00] END_REQSTACK()
```

### Event 65535.10

#### Metadata

| Field        | Value    |
|--------------|----------|
| Entrypoint   | 0x008F   |
| Data Size    | 14 bytes |
| Instructions | 2        |

```
      00 01 02 03 04 05 06 07  08 09 0A 0B 0C 0D 0E 0F
      -- -- -- -- -- -- -- --  -- -- -- -- -- -- -- --
0080:                                               53                 S
0090: F8 FF FF 7F F8 FF FF 7F  6E 74 6F 30 00           ........nto0.   
```

#### Opcodes

```
  0: 0x008F [0x53] WAIT_SCHEDULER_TASK: Wait for scheduler "nto0" with entities [EventEntity, EventEntity]
  1: 0x009C [0x00] END_REQSTACK()
```

### Event 65535.11

#### Metadata

| Field        | Value    |
|--------------|----------|
| Entrypoint   | 0x009D   |
| Data Size    | 16 bytes |
| Instructions | 2        |

```
      00 01 02 03 04 05 06 07  08 09 0A 0B 0C 0D 0E 0F
      -- -- -- -- -- -- -- --  -- -- -- -- -- -- -- --
0090:                                         5B 00 80               [..
00A0: F8 FF FF 7F F8 FF FF 7F  6E 74 6F 31 00           ........nto1.   
```

#### Opcodes

```
  0: 0x009D [0x5B] LOAD_EXT_SCHEDULER: Load scheduler "nto1" with entities [EventEntity, EventEntity], work=370*
  1: 0x00AC [0x00] END_REQSTACK()
```

### Event 65535.12

#### Metadata

| Field        | Value    |
|--------------|----------|
| Entrypoint   | 0x00AD   |
| Data Size    | 20 bytes |
| Instructions | 3        |

```
      00 01 02 03 04 05 06 07  08 09 0A 0B 0C 0D 0E 0F
      -- -- -- -- -- -- -- --  -- -- -- -- -- -- -- --
00A0:                                         53 F8 FF               S..
00B0: FF 7F F8 FF FF 7F 6E 74  6F 31 81 01 F8 FF FF 7F  ......nto1......
00C0: 00                                                .               
```

#### Opcodes

```
  0: 0x00AD [0x53] WAIT_SCHEDULER_TASK: Wait for scheduler "nto1" with entities [EventEntity, EventEntity]
  1: 0x00BA [0x81] SET_ENTITY_BLINKING(blink_flag=0x01, entity=EventEntity)
  2: 0x00C0 [0x00] END_REQSTACK()
```

### Event 65535.13

#### Metadata

| Field        | Value    |
|--------------|----------|
| Entrypoint   | 0x00C1   |
| Data Size    | 16 bytes |
| Instructions | 2        |

```
      00 01 02 03 04 05 06 07  08 09 0A 0B 0C 0D 0E 0F
      -- -- -- -- -- -- -- --  -- -- -- -- -- -- -- --
00C0:    5B 01 80 F8 FF FF 7F  F8 FF FF 7F 74 68 6B 31   [..........thk1
00D0: 00                                                .               
```

#### Opcodes

```
  0: 0x00C1 [0x5B] LOAD_EXT_SCHEDULER: Load scheduler "thk1" with entities [EventEntity, EventEntity], work=358*
  1: 0x00D0 [0x00] END_REQSTACK()
```

### Event 65535.14

#### Metadata

| Field        | Value    |
|--------------|----------|
| Entrypoint   | 0x00D1   |
| Data Size    | 14 bytes |
| Instructions | 2        |

```
      00 01 02 03 04 05 06 07  08 09 0A 0B 0C 0D 0E 0F
      -- -- -- -- -- -- -- --  -- -- -- -- -- -- -- --
00D0:    53 F8 FF FF 7F F8 FF  FF 7F 74 68 6B 31 00      S........thk1. 
```

#### Opcodes

```
  0: 0x00D1 [0x53] WAIT_SCHEDULER_TASK: Wait for scheduler "thk1" with entities [EventEntity, EventEntity]
  1: 0x00DE [0x00] END_REQSTACK()
```

### Event 65535.15

#### Metadata

| Field        | Value    |
|--------------|----------|
| Entrypoint   | 0x00DF   |
| Data Size    | 16 bytes |
| Instructions | 2        |

```
      00 01 02 03 04 05 06 07  08 09 0A 0B 0C 0D 0E 0F
      -- -- -- -- -- -- -- --  -- -- -- -- -- -- -- --
00D0:                                               5B                 [
00E0: 01 80 F8 FF FF 7F F8 FF  FF 7F 74 68 6B 32 00     ..........thk2. 
```

#### Opcodes

```
  0: 0x00DF [0x5B] LOAD_EXT_SCHEDULER: Load scheduler "thk2" with entities [EventEntity, EventEntity], work=358*
  1: 0x00EE [0x00] END_REQSTACK()
```

### Event 65535.16

#### Metadata

| Field        | Value    |
|--------------|----------|
| Entrypoint   | 0x00EF   |
| Data Size    | 14 bytes |
| Instructions | 2        |

```
      00 01 02 03 04 05 06 07  08 09 0A 0B 0C 0D 0E 0F
      -- -- -- -- -- -- -- --  -- -- -- -- -- -- -- --
00E0:                                               53                 S
00F0: F8 FF FF 7F F8 FF FF 7F  74 68 6B 32 00           ........thk2.   
```

#### Opcodes

```
  0: 0x00EF [0x53] WAIT_SCHEDULER_TASK: Wait for scheduler "thk2" with entities [EventEntity, EventEntity]
  1: 0x00FC [0x00] END_REQSTACK()
```

### Event 65535.17

#### Metadata

| Field        | Value    |
|--------------|----------|
| Entrypoint   | 0x00FD   |
| Data Size    | 16 bytes |
| Instructions | 2        |

```
      00 01 02 03 04 05 06 07  08 09 0A 0B 0C 0D 0E 0F
      -- -- -- -- -- -- -- --  -- -- -- -- -- -- -- --
00F0:                                         5B 01 80               [..
0100: F8 FF FF 7F F8 FF FF 7F  70 6F 69 30 00           ........poi0.   
```

#### Opcodes

```
  0: 0x00FD [0x5B] LOAD_EXT_SCHEDULER: Load scheduler "poi0" with entities [EventEntity, EventEntity], work=358*
  1: 0x010C [0x00] END_REQSTACK()
```

### Event 65535.18

#### Metadata

| Field        | Value    |
|--------------|----------|
| Entrypoint   | 0x010D   |
| Data Size    | 14 bytes |
| Instructions | 2        |

```
      00 01 02 03 04 05 06 07  08 09 0A 0B 0C 0D 0E 0F
      -- -- -- -- -- -- -- --  -- -- -- -- -- -- -- --
0100:                                         53 F8 FF               S..
0110: FF 7F F8 FF FF 7F 70 6F  69 30 00                 ......poi0.     
```

#### Opcodes

```
  0: 0x010D [0x53] WAIT_SCHEDULER_TASK: Wait for scheduler "poi0" with entities [EventEntity, EventEntity]
  1: 0x011A [0x00] END_REQSTACK()
```

### Event 65535.19

#### Metadata

| Field        | Value    |
|--------------|----------|
| Entrypoint   | 0x011B   |
| Data Size    | 16 bytes |
| Instructions | 2        |

```
      00 01 02 03 04 05 06 07  08 09 0A 0B 0C 0D 0E 0F
      -- -- -- -- -- -- -- --  -- -- -- -- -- -- -- --
0110:                                   5B 02 80 F8 FF             [....
0120: FF 7F F8 FF FF 7F 70 6F  69 31 00                 ......poi1.     
```

#### Opcodes

```
  0: 0x011B [0x5B] LOAD_EXT_SCHEDULER: Load scheduler "poi1" with entities [EventEntity, EventEntity], work=360*
  1: 0x012A [0x00] END_REQSTACK()
```

### Event 65535.20

#### Metadata

| Field        | Value    |
|--------------|----------|
| Entrypoint   | 0x012B   |
| Data Size    | 14 bytes |
| Instructions | 2        |

```
      00 01 02 03 04 05 06 07  08 09 0A 0B 0C 0D 0E 0F
      -- -- -- -- -- -- -- --  -- -- -- -- -- -- -- --
0120:                                   53 F8 FF FF 7F             S....
0130: F8 FF FF 7F 70 6F 69 31  00                       ....poi1.       
```

#### Opcodes

```
  0: 0x012B [0x53] WAIT_SCHEDULER_TASK: Wait for scheduler "poi1" with entities [EventEntity, EventEntity]
  1: 0x0138 [0x00] END_REQSTACK()
```

### Event 65535.21

#### Metadata

| Field        | Value    |
|--------------|----------|
| Entrypoint   | 0x0139   |
| Data Size    | 16 bytes |
| Instructions | 2        |

```
      00 01 02 03 04 05 06 07  08 09 0A 0B 0C 0D 0E 0F
      -- -- -- -- -- -- -- --  -- -- -- -- -- -- -- --
0130:                             5B 02 80 F8 FF FF 7F           [......
0140: F8 FF FF 7F 70 6F 69 33  00                       ....poi3.       
```

#### Opcodes

```
  0: 0x0139 [0x5B] LOAD_EXT_SCHEDULER: Load scheduler "poi3" with entities [EventEntity, EventEntity], work=360*
  1: 0x0148 [0x00] END_REQSTACK()
```

### Event 65535.22

#### Metadata

| Field        | Value    |
|--------------|----------|
| Entrypoint   | 0x0149   |
| Data Size    | 14 bytes |
| Instructions | 2        |

```
      00 01 02 03 04 05 06 07  08 09 0A 0B 0C 0D 0E 0F
      -- -- -- -- -- -- -- --  -- -- -- -- -- -- -- --
0140:                             53 F8 FF FF 7F F8 FF           S......
0150: FF 7F 70 6F 69 33 00                              ..poi3.         
```

#### Opcodes

```
  0: 0x0149 [0x53] WAIT_SCHEDULER_TASK: Wait for scheduler "poi3" with entities [EventEntity, EventEntity]
  1: 0x0156 [0x00] END_REQSTACK()
```

### Event 65535.23

#### Metadata

| Field        | Value    |
|--------------|----------|
| Entrypoint   | 0x0157   |
| Data Size    | 16 bytes |
| Instructions | 2        |

```
      00 01 02 03 04 05 06 07  08 09 0A 0B 0C 0D 0E 0F
      -- -- -- -- -- -- -- --  -- -- -- -- -- -- -- --
0150:                      5B  02 80 F8 FF FF 7F F8 FF         [........
0160: FF 7F 64 69 73 30 00                              ..dis0.         
```

#### Opcodes

```
  0: 0x0157 [0x5B] LOAD_EXT_SCHEDULER: Load scheduler "dis0" with entities [EventEntity, EventEntity], work=360*
  1: 0x0166 [0x00] END_REQSTACK()
```

### Event 65535.24

#### Metadata

| Field        | Value    |
|--------------|----------|
| Entrypoint   | 0x0167   |
| Data Size    | 14 bytes |
| Instructions | 2        |

```
      00 01 02 03 04 05 06 07  08 09 0A 0B 0C 0D 0E 0F
      -- -- -- -- -- -- -- --  -- -- -- -- -- -- -- --
0160:                      53  F8 FF FF 7F F8 FF FF 7F         S........
0170: 64 69 73 30 00                                    dis0.           
```

#### Opcodes

```
  0: 0x0167 [0x53] WAIT_SCHEDULER_TASK: Wait for scheduler "dis0" with entities [EventEntity, EventEntity]
  1: 0x0174 [0x00] END_REQSTACK()
```

### Event 65535.25

#### Metadata

| Field        | Value    |
|--------------|----------|
| Entrypoint   | 0x0175   |
| Data Size    | 16 bytes |
| Instructions | 2        |

```
      00 01 02 03 04 05 06 07  08 09 0A 0B 0C 0D 0E 0F
      -- -- -- -- -- -- -- --  -- -- -- -- -- -- -- --
0170:                5B 03 80  F8 FF FF 7F F8 FF FF 7F       [..........
0180: 70 61 73 30 00                                    pas0.           
```

#### Opcodes

```
  0: 0x0175 [0x5B] LOAD_EXT_SCHEDULER: Load scheduler "pas0" with entities [EventEntity, EventEntity], work=364*
  1: 0x0184 [0x00] END_REQSTACK()
```

### Event 65535.26

#### Metadata

| Field        | Value    |
|--------------|----------|
| Entrypoint   | 0x0185   |
| Data Size    | 14 bytes |
| Instructions | 2        |

```
      00 01 02 03 04 05 06 07  08 09 0A 0B 0C 0D 0E 0F
      -- -- -- -- -- -- -- --  -- -- -- -- -- -- -- --
0180:                53 F8 FF  FF 7F F8 FF FF 7F 70 61       S........pa
0190: 73 30 00                                          s0.             
```

#### Opcodes

```
  0: 0x0185 [0x53] WAIT_SCHEDULER_TASK: Wait for scheduler "pas0" with entities [EventEntity, EventEntity]
  1: 0x0192 [0x00] END_REQSTACK()
```

### Event 65535.27

#### Metadata

| Field        | Value    |
|--------------|----------|
| Entrypoint   | 0x0193   |
| Data Size    | 16 bytes |
| Instructions | 2        |

```
      00 01 02 03 04 05 06 07  08 09 0A 0B 0C 0D 0E 0F
      -- -- -- -- -- -- -- --  -- -- -- -- -- -- -- --
0190:          5B 04 80 F8 FF  FF 7F F8 FF FF 7F 74 6C     [..........tl
01A0: 6B 30 00                                          k0.             
```

#### Opcodes

```
  0: 0x0193 [0x5B] LOAD_EXT_SCHEDULER: Load scheduler "tlk0" with entities [EventEntity, EventEntity], work=356*
  1: 0x01A2 [0x00] END_REQSTACK()
```

### Event 65535.28

#### Metadata

| Field        | Value    |
|--------------|----------|
| Entrypoint   | 0x01A3   |
| Data Size    | 14 bytes |
| Instructions | 2        |

```
      00 01 02 03 04 05 06 07  08 09 0A 0B 0C 0D 0E 0F
      -- -- -- -- -- -- -- --  -- -- -- -- -- -- -- --
01A0:          53 F8 FF FF 7F  F8 FF FF 7F 74 6C 6B 30     S........tlk0
01B0: 00                                                .               
```

#### Opcodes

```
  0: 0x01A3 [0x53] WAIT_SCHEDULER_TASK: Wait for scheduler "tlk0" with entities [EventEntity, EventEntity]
  1: 0x01B0 [0x00] END_REQSTACK()
```

### Event 65535.29

#### Metadata

| Field        | Value   |
|--------------|---------|
| Entrypoint   | 0x01B1  |
| Data Size    | 9 bytes |
| Instructions | 3       |

```
      00 01 02 03 04 05 06 07  08 09 0A 0B 0C 0D 0E 0F
      -- -- -- -- -- -- -- --  -- -- -- -- -- -- -- --
01B0:    5E 69 64 6C 30 1C 05  80 00                     ^idl0....      
```

#### Opcodes

```
  0: 0x01B1 [0x5E] EventEntity goes idle (kills current action) (animation: "idl0")
  1: 0x01B6 [0x1C] WAIT(30* ticks)
  2: 0x01B9 [0x00] END_REQSTACK()
```

### Event 65535.30

#### Metadata

| Field        | Value    |
|--------------|----------|
| Entrypoint   | 0x01BA   |
| Data Size    | 57 bytes |
| Instructions | 5        |

```
      00 01 02 03 04 05 06 07  08 09 0A 0B 0C 0D 0E 0F
      -- -- -- -- -- -- -- --  -- -- -- -- -- -- -- --
01B0:                                5B 06 80 F8 FF FF            [.....
01C0: 7F F8 FF FF 7F 64 65 61  64 53 79 62 06 01 79 62  .....deadSyb..yb
01D0: 06 01 64 65 61 64 5B 06  80 F8 FF FF 7F F8 FF FF  ..dead[.........
01E0: 7F 63 6F 72 70 53 79 62  06 01 79 62 06 01 63 6F  .corpSyb..yb..co
01F0: 72 70 00                                          rp.             
```

#### Opcodes

```
  0: 0x01BA [0x5B] LOAD_EXT_SCHEDULER: Load scheduler "dead" with entities [EventEntity, EventEntity], work=368*
  1: 0x01C9 [0x53] WAIT_SCHEDULER_TASK: Wait for scheduler "dead" with entities [Nanaa Mihgo (ID: 17195641/0x01066279), Nanaa Mihgo (ID: 17195641/0x01066279)]
  2: 0x01D6 [0x5B] LOAD_EXT_SCHEDULER: Load scheduler "corp" with entities [EventEntity, EventEntity], work=368*
  3: 0x01E5 [0x53] WAIT_SCHEDULER_TASK: Wait for scheduler "corp" with entities [Nanaa Mihgo (ID: 17195641/0x01066279), Nanaa Mihgo (ID: 17195641/0x01066279)]
  4: 0x01F2 [0x00] END_REQSTACK()
```

### Event 65535.31

#### Metadata

| Field        | Value    |
|--------------|----------|
| Entrypoint   | 0x01F3   |
| Data Size    | 29 bytes |
| Instructions | 3        |

```
      00 01 02 03 04 05 06 07  08 09 0A 0B 0C 0D 0E 0F
      -- -- -- -- -- -- -- --  -- -- -- -- -- -- -- --
01F0:          5B 06 80 F8 FF  FF 7F F8 FF FF 7F 72 6C     [..........rl
0200: 78 31 53 79 62 06 01 79  62 06 01 72 6C 78 31 00  x1Syb..yb..rlx1.
```

#### Opcodes

```
  0: 0x01F3 [0x5B] LOAD_EXT_SCHEDULER: Load scheduler "rlx1" with entities [EventEntity, EventEntity], work=368*
  1: 0x0202 [0x53] WAIT_SCHEDULER_TASK: Wait for scheduler "rlx1" with entities [Nanaa Mihgo (ID: 17195641/0x01066279), Nanaa Mihgo (ID: 17195641/0x01066279)]
  2: 0x020F [0x00] END_REQSTACK()
```

### Event 65535.32

#### Metadata

| Field        | Value    |
|--------------|----------|
| Entrypoint   | 0x0210   |
| Data Size    | 29 bytes |
| Instructions | 3        |

```
      00 01 02 03 04 05 06 07  08 09 0A 0B 0C 0D 0E 0F
      -- -- -- -- -- -- -- --  -- -- -- -- -- -- -- --
0210: 5B 06 80 F8 FF FF 7F F8  FF FF 7F 72 6C 78 30 53  [..........rlx0S
0220: 79 62 06 01 79 62 06 01  72 6C 78 30 00           yb..yb..rlx0.   
```

#### Opcodes

```
  0: 0x0210 [0x5B] LOAD_EXT_SCHEDULER: Load scheduler "rlx0" with entities [EventEntity, EventEntity], work=368*
  1: 0x021F [0x53] WAIT_SCHEDULER_TASK: Wait for scheduler "rlx0" with entities [Nanaa Mihgo (ID: 17195641/0x01066279), Nanaa Mihgo (ID: 17195641/0x01066279)]
  2: 0x022C [0x00] END_REQSTACK()
```

### Event 119

#### Metadata

| Field        | Value   |
|--------------|---------|
| Entrypoint   | 0x022D  |
| Data Size    | 1 bytes |
| Instructions | 1       |

```
      00 01 02 03 04 05 06 07  08 09 0A 0B 0C 0D 0E 0F
      -- -- -- -- -- -- -- --  -- -- -- -- -- -- -- --
0220:                                         00                     .  
```

#### Opcodes

```
  0: 0x022D [0x00] END_REQSTACK()
```

### Event 65535.33

#### Metadata

| Field        | Value    |
|--------------|----------|
| Entrypoint   | 0x022E   |
| Data Size    | 10 bytes |
| Instructions | 2        |

```
      00 01 02 03 04 05 06 07  08 09 0A 0B 0C 0D 0E 0F
      -- -- -- -- -- -- -- --  -- -- -- -- -- -- -- --
0220:                                            37 07                7.
0230: 80 08 80 09 80 0A 80 00                           ........        
```

#### Opcodes

```
  0: 0x022E [0x37] UPDATE_EVENT_POSITION_AND_DIR: x=-73.733*, z=-441.596*, y=54.636*, direction=239.3°*
  1: 0x0237 [0x00] END_REQSTACK()
```

### Event 65535.34

#### Metadata

| Field        | Value    |
|--------------|----------|
| Entrypoint   | 0x0238   |
| Data Size    | 24 bytes |
| Instructions | 6        |

```
      00 01 02 03 04 05 06 07  08 09 0A 0B 0C 0D 0E 0F
      -- -- -- -- -- -- -- --  -- -- -- -- -- -- -- --
0230:                          32 0B 80 1F 00 0C 80 0D          2.......
0240: 80 0E 80 1F 01 1F 00 0F  80 10 80 11 80 1F 01 00  ................
```

#### Opcodes

```
  0: 0x0238 [0x32] ExtData[1]->MainSpeed = 40* * 0.1
  1: 0x023B [0x1F] MOVE_ENTITY: EventEntity moves to X=-75.614*, Z=-435.088*, Y=54.774*
  2: 0x0243 [0x1F] MOVE_ENTITY: Update entity position (mode=1)
  3: 0x0245 [0x1F] MOVE_ENTITY: EventEntity moves to X=-74.507*, Z=-437.939*, Y=54.674*
  4: 0x024D [0x1F] MOVE_ENTITY: Update entity position (mode=1)
  5: 0x024F [0x00] END_REQSTACK()
```

### Event 65535.35

#### Metadata

| Field        | Value    |
|--------------|----------|
| Entrypoint   | 0x0250   |
| Data Size    | 31 bytes |
| Instructions | 9        |

```
      00 01 02 03 04 05 06 07  08 09 0A 0B 0C 0D 0E 0F
      -- -- -- -- -- -- -- --  -- -- -- -- -- -- -- --
0250: 32 12 80 1F 00 13 80 14  80 15 80 1F 01 1F 00 16  2...............
0260: 80 17 80 18 80 1F 01 1E  7A 62 06 01 6F 70 00     ........zb..op. 
```

#### Opcodes

```
  0: 0x0250 [0x32] ExtData[1]->MainSpeed = 13* * 0.1
  1: 0x0253 [0x1F] MOVE_ENTITY: EventEntity moves to X=-73.893*, Z=-441.250*, Y=54.644*
  2: 0x025B [0x1F] MOVE_ENTITY: Update entity position (mode=1)
  3: 0x025D [0x1F] MOVE_ENTITY: EventEntity moves to X=-73.159*, Z=-441.894*, Y=54.607*
  4: 0x0265 [0x1F] MOVE_ENTITY: Update entity position (mode=1)
  5: 0x0267 [0x1E] EventEntity looks at Takarabako (ID: 17195642/0x0106627A) and starts talking
  6: 0x026C [0x6F] WAIT_FRAME_DELAY: Yield until WaitTime reaches zero
  7: 0x026D [0x70] WAIT_ENTITY_RENDER_FLAG: Wait while EventEntity->Render.Flags3 bit 2 is set (cancel turn if not)
  8: 0x026E [0x00] END_REQSTACK()
```

### Event 65535.36

#### Metadata

| Field        | Value    |
|--------------|----------|
| Entrypoint   | 0x026F   |
| Data Size    | 11 bytes |
| Instructions | 3        |

```
      00 01 02 03 04 05 06 07  08 09 0A 0B 0C 0D 0E 0F
      -- -- -- -- -- -- -- --  -- -- -- -- -- -- -- --
0260:                                               1F                 .
0270: 00 19 80 1A 80 1B 80 1F  01 00                    ..........      
```

#### Opcodes

```
  0: 0x026F [0x1F] MOVE_ENTITY: EventEntity moves to X=-74.998*, Z=-439.182*, Y=54.699*
  1: 0x0277 [0x1F] MOVE_ENTITY: Update entity position (mode=1)
  2: 0x0279 [0x00] END_REQSTACK()
```

### Event 65535.37

#### Metadata

| Field        | Value    |
|--------------|----------|
| Entrypoint   | 0x027A   |
| Data Size    | 41 bytes |
| Instructions | 5        |

```
      00 01 02 03 04 05 06 07  08 09 0A 0B 0C 0D 0E 0F
      -- -- -- -- -- -- -- --  -- -- -- -- -- -- -- --
0270:                                45 1C 80 F8 FF FF            E.....
0280: 7F F8 FF FF 7F 66 64 69  31 1D 80 1C 1E 80 45 1C  .....fdi1.....E.
0290: 80 F8 FF FF 7F F8 FF FF  7F 66 64 6F 31 1D 80 1C  .........fdo1...
02A0: 1E 80 00                                          ...             
```

#### Opcodes

```
  0: 0x027A [0x45] LOAD_SCHEDULED_TASK: Load scheduler "fdi1" with entities [EventEntity, EventEntity], work=[200*, 0*]
  1: 0x028B [0x1C] WAIT(60* ticks)
  2: 0x028E [0x45] LOAD_SCHEDULED_TASK: Load scheduler "fdo1" with entities [EventEntity, EventEntity], work=[200*, 0*]
  3: 0x029F [0x1C] WAIT(60* ticks)
  4: 0x02A2 [0x00] END_REQSTACK()
```

### Event 65535.38

#### Metadata

| Field        | Value   |
|--------------|---------|
| Entrypoint   | 0x02A3  |
| Data Size    | 5 bytes |
| Instructions | 3       |

```
      00 01 02 03 04 05 06 07  08 09 0A 0B 0C 0D 0E 0F
      -- -- -- -- -- -- -- --  -- -- -- -- -- -- -- --
02A0:          1D 1F 80 23 00                              ...#.        
```

#### Opcodes

```
  0: 0x02A3 [0x1D] PRINT_EVENT_MESSAGE(message_id=7509*)
    → "Hey! What do you think you're doing, finding the trrreasure chest before me!?"
  1: 0x02A6 [0x23] WAIT_FOR_DIALOG_INTERACTION
  2: 0x02A7 [0x00] END_REQSTACK()
```

### Event 65535.39

#### Metadata

| Field        | Value   |
|--------------|---------|
| Entrypoint   | 0x02A8  |
| Data Size    | 5 bytes |
| Instructions | 3       |

```
      00 01 02 03 04 05 06 07  08 09 0A 0B 0C 0D 0E 0F
      -- -- -- -- -- -- -- --  -- -- -- -- -- -- -- --
02A0:                          1D 20 80 23 00                   . .#.   
```

#### Opcodes

```
  0: 0x02A8 [0x1D] PRINT_EVENT_MESSAGE(message_id=7510*)
    → "Rrright, move it or lose it. I'll be the one to open it."
  1: 0x02AB [0x23] WAIT_FOR_DIALOG_INTERACTION
  2: 0x02AC [0x00] END_REQSTACK()
```

### Event 65535.40

#### Metadata

| Field        | Value   |
|--------------|---------|
| Entrypoint   | 0x02AD  |
| Data Size    | 5 bytes |
| Instructions | 3       |

```
      00 01 02 03 04 05 06 07  08 09 0A 0B 0C 0D 0E 0F
      -- -- -- -- -- -- -- --  -- -- -- -- -- -- -- --
02A0:                                         1D 21 80               .!.
02B0: 23 00                                             #.              
```

#### Opcodes

```
  0: 0x02AD [0x1D] PRINT_EVENT_MESSAGE(message_id=7512*)
    → "...Rauuugh! Got it open! Now, let's take a look at the treasure..."
  1: 0x02B0 [0x23] WAIT_FOR_DIALOG_INTERACTION
  2: 0x02B1 [0x00] END_REQSTACK()
```

### Event 65535.41

#### Metadata

| Field        | Value   |
|--------------|---------|
| Entrypoint   | 0x02B2  |
| Data Size    | 5 bytes |
| Instructions | 3       |

```
      00 01 02 03 04 05 06 07  08 09 0A 0B 0C 0D 0E 0F
      -- -- -- -- -- -- -- --  -- -- -- -- -- -- -- --
02B0:       1D 22 80 23 00                                .".#.         
```

#### Opcodes

```
  0: 0x02B2 [0x1D] PRINT_EVENT_MESSAGE(message_id=7513*)
    → "...Huh? This is a poor haul... Some musty old armor, some velvet mantles and...ah! A golden scepter! This will go for a good price!"
  1: 0x02B5 [0x23] WAIT_FOR_DIALOG_INTERACTION
  2: 0x02B6 [0x00] END_REQSTACK()
```

### Event 65535.42

#### Metadata

| Field        | Value   |
|--------------|---------|
| Entrypoint   | 0x02B7  |
| Data Size    | 5 bytes |
| Instructions | 3       |

```
      00 01 02 03 04 05 06 07  08 09 0A 0B 0C 0D 0E 0F
      -- -- -- -- -- -- -- --  -- -- -- -- -- -- -- --
02B0:                      1D  23 80 23 00                     .#.#.    
```

#### Opcodes

```
  0: 0x02B7 [0x1D] PRINT_EVENT_MESSAGE(message_id=7514*)
    → "But this... This is not what I expected at all... There's something strange going on here..."
  1: 0x02BA [0x23] WAIT_FOR_DIALOG_INTERACTION
  2: 0x02BB [0x00] END_REQSTACK()
```

### Event 65535.43

#### Metadata

| Field        | Value   |
|--------------|---------|
| Entrypoint   | 0x02BC  |
| Data Size    | 5 bytes |
| Instructions | 3       |

```
      00 01 02 03 04 05 06 07  08 09 0A 0B 0C 0D 0E 0F
      -- -- -- -- -- -- -- --  -- -- -- -- -- -- -- --
02B0:                                      1D 24 80 23              .$.#
02C0: 00                                                .               
```

#### Opcodes

```
  0: 0x02BC [0x1D] PRINT_EVENT_MESSAGE(message_id=7546*)
    → "Hey! The catnap is over!"
  1: 0x02BF [0x23] WAIT_FOR_DIALOG_INTERACTION
  2: 0x02C0 [0x00] END_REQSTACK()
```

### Event 65535.44

#### Metadata

| Field        | Value    |
|--------------|----------|
| Entrypoint   | 0x02C1   |
| Data Size    | 23 bytes |
| Instructions | 7        |

```
      00 01 02 03 04 05 06 07  08 09 0A 0B 0C 0D 0E 0F
      -- -- -- -- -- -- -- --  -- -- -- -- -- -- -- --
02C0:    29 08 79 62 06 01 07  1D 25 80 23 29 08 79 62   ).yb....%.#).yb
02D0: 06 01 08 1D 26 80 23 00                           ....&.#.        
```

#### Opcodes

```
  0: 0x02C1 [0x29] REQ_SET_WAIT(priority=0x08, entity_id=Nanaa Mihgo (ID: 17195641/0x01066279), tag_num=0x07)
  1: 0x02C8 [0x1D] PRINT_EVENT_MESSAGE(message_id=7547*)
    → "You're finally up... We were caught by a trrrap on the treasure chest and sent into dreamland. It took me by surprise."
  2: 0x02CB [0x23] WAIT_FOR_DIALOG_INTERACTION
  3: 0x02CC [0x29] REQ_SET_WAIT(priority=0x08, entity_id=Nanaa Mihgo (ID: 17195641/0x01066279), tag_num=0x08)
  4: 0x02D3 [0x1D] PRINT_EVENT_MESSAGE(message_id=7548*)
    → "I thought I had disarmed the trap, but... Now my head is all woozy and I can't think straight."
  5: 0x02D6 [0x23] WAIT_FOR_DIALOG_INTERACTION
  6: 0x02D7 [0x00] END_REQSTACK()
```

### Event 65535.45

#### Metadata

| Field        | Value    |
|--------------|----------|
| Entrypoint   | 0x02D8   |
| Data Size    | 19 bytes |
| Instructions | 5        |

```
      00 01 02 03 04 05 06 07  08 09 0A 0B 0C 0D 0E 0F
      -- -- -- -- -- -- -- --  -- -- -- -- -- -- -- --
02D0:                          29 08 79 62 06 01 01 1D          ).yb....
02E0: 27 80 23 29 08 79 62 06  01 02 00                 '.#).yb....     
```

#### Opcodes

```
  0: 0x02D8 [0x29] REQ_SET_WAIT(priority=0x08, entity_id=Nanaa Mihgo (ID: 17195641/0x01066279), tag_num=0x01)
  1: 0x02DF [0x1D] PRINT_EVENT_MESSAGE(message_id=7549*)
    → "...Anyway, there was nothing of great value in the chest."
  2: 0x02E2 [0x23] WAIT_FOR_DIALOG_INTERACTION
  3: 0x02E3 [0x29] REQ_SET_WAIT(priority=0x08, entity_id=Nanaa Mihgo (ID: 17195641/0x01066279), tag_num=0x02)
  4: 0x02EA [0x00] END_REQSTACK()
```

### Event 65535.46

#### Metadata

| Field        | Value    |
|--------------|----------|
| Entrypoint   | 0x02EB   |
| Data Size    | 19 bytes |
| Instructions | 5        |

```
      00 01 02 03 04 05 06 07  08 09 0A 0B 0C 0D 0E 0F
      -- -- -- -- -- -- -- --  -- -- -- -- -- -- -- --
02E0:                                   29 08 79 62 06             ).yb.
02F0: 01 09 1D 28 80 23 29 08  79 62 06 01 0A 00        ...(.#).yb....  
```

#### Opcodes

```
  0: 0x02EB [0x29] REQ_SET_WAIT(priority=0x08, entity_id=Nanaa Mihgo (ID: 17195641/0x01066279), tag_num=0x09)
  1: 0x02F2 [0x1D] PRINT_EVENT_MESSAGE(message_id=7550*)
    → "The thief boots I found in there...I already put them in your pack. They're a little worse for wear, but being part of Atarefaunet's treasure, they should be worth a bit."
  2: 0x02F5 [0x23] WAIT_FOR_DIALOG_INTERACTION
  3: 0x02F6 [0x29] REQ_SET_WAIT(priority=0x08, entity_id=Nanaa Mihgo (ID: 17195641/0x01066279), tag_num=0x0A)
  4: 0x02FD [0x00] END_REQSTACK()
```

### Event 65535.47

#### Metadata

| Field        | Value    |
|--------------|----------|
| Entrypoint   | 0x02FE   |
| Data Size    | 19 bytes |
| Instructions | 5        |

```
      00 01 02 03 04 05 06 07  08 09 0A 0B 0C 0D 0E 0F
      -- -- -- -- -- -- -- --  -- -- -- -- -- -- -- --
02F0:                                            29 08                ).
0300: 79 62 06 01 0B 1D 29 80  23 29 08 79 62 06 01 0C  yb....).#).yb...
0310: 00                                                .               
```

#### Opcodes

```
  0: 0x02FE [0x29] REQ_SET_WAIT(priority=0x08, entity_id=Nanaa Mihgo (ID: 17195641/0x01066279), tag_num=0x0B)
  1: 0x0305 [0x1D] PRINT_EVENT_MESSAGE(message_id=7551*)
    → "All that's left are a couple of gems, which I claim for myself. I have those two kittens to feed--you know how it is."
  2: 0x0308 [0x23] WAIT_FOR_DIALOG_INTERACTION
  3: 0x0309 [0x29] REQ_SET_WAIT(priority=0x08, entity_id=Nanaa Mihgo (ID: 17195641/0x01066279), tag_num=0x0C)
  4: 0x0310 [0x00] END_REQSTACK()
```

### Event 65535.48

#### Metadata

| Field        | Value   |
|--------------|---------|
| Entrypoint   | 0x0311  |
| Data Size    | 5 bytes |
| Instructions | 3       |

```
      00 01 02 03 04 05 06 07  08 09 0A 0B 0C 0D 0E 0F
      -- -- -- -- -- -- -- --  -- -- -- -- -- -- -- --
0310:    1D 2A 80 23 00                                  .*.#.          
```

#### Opcodes

```
  0: 0x0311 [0x1D] PRINT_EVENT_MESSAGE(message_id=7552*)
    → "Time to leave this place behind. Although I would like to see Vauderame's face when he opens the chest to find it empty..."
  1: 0x0314 [0x23] WAIT_FOR_DIALOG_INTERACTION
  2: 0x0315 [0x00] END_REQSTACK()
```
