# 17195649 - Vijartal

## Common Data

| Field            | Value                       |
|------------------|-----------------------------|
| Zone             | La Theine Plateau (ID: 102) |
| Block Size       | 608 bytes                   |
| Total Events     | 22                          |
| References Count | 51                          |

## List of Events

| Event ID                   | Entrypoint   |   Size |   Instructions |
|----------------------------|--------------|--------|----------------|
| [65535](#event-65535)      | 0x0000       |      1 |              1 |
| [0](#event-0)              | 0x0001       |     16 |              3 |
| [65535.1](#event-655351)   | 0x0011       |     14 |              4 |
| [65535.2](#event-655352)   | 0x001F       |      6 |              2 |
| [65535.3](#event-655353)   | 0x0025       |      6 |              2 |
| [65535.4](#event-655354)   | 0x002B       |      6 |              2 |
| [65535.5](#event-655355)   | 0x0031       |      6 |              2 |
| [65535.6](#event-655356)   | 0x0037       |     10 |              2 |
| [1](#event-1)              | 0x0041       |     16 |              3 |
| [65535.7](#event-655357)   | 0x0051       |     18 |              2 |
| [65535.8](#event-655358)   | 0x0063       |     23 |              9 |
| [65535.9](#event-655359)   | 0x007A       |      6 |              2 |
| [65535.10](#event-6553510) | 0x0080       |     14 |              4 |
| [65535.11](#event-6553511) | 0x008E       |     25 |              5 |
| [65535.12](#event-6553512) | 0x00A7       |     20 |              6 |
| [65535.13](#event-6553513) | 0x00BB       |     16 |              4 |
| [65535.14](#event-6553514) | 0x00CB       |     10 |              2 |
| [65535.15](#event-6553515) | 0x00D5       |     18 |              4 |
| [65535.16](#event-6553516) | 0x00E7       |     18 |              4 |
| [65535.17](#event-6553517) | 0x00F9       |     13 |              3 |
| [65535.18](#event-6553518) | 0x0106       |     18 |              4 |
| [65535.19](#event-6553519) | 0x0118       |     18 |              4 |

## DAT References (imed_data)

|   Index | Hex Value   |   Dec Value |
|---------|-------------|-------------|
|       0 | 0xFFFC0A5E  |  4294707806 |
|       1 | 0x1E0F3     |      123123 |
|       2 | 0x5C78      |       23672 |
|       3 | 0x0ABB      |        2747 |
|       4 | 0x000D      |          13 |
|       5 | 0xFFFC049A  |  4294706330 |
|       6 | 0x1FB4C     |      129868 |
|       7 | 0x577D      |       22397 |
|       8 | 0xFFFA6E2F  |  4294602287 |
|       9 | 0x38CF8     |      232696 |
|      10 | 0x5558      |       21848 |
|      11 | 0x02D5      |         725 |
|      12 | 0xFFFBE13E  |  4294697278 |
|      13 | 0x20A00     |      133632 |
|      14 | 0x5867      |       22631 |
|      15 | 0x00B8      |         184 |
|      16 | 0x002B      |          43 |
|      17 | 0x0000      |           0 |
|      18 | 0xFFFBEF50  |  4294700880 |
|      19 | 0x206C0     |      132800 |
|      20 | 0x55B1      |       21937 |
|      21 | 0x001E      |          30 |
|      22 | 0x08C0      |        2240 |
|      23 | 0x0028      |          40 |
|      24 | 0xFFFC098C  |  4294707596 |
|      25 | 0x1E7D3     |      124883 |
|      26 | 0x5ADD      |       23261 |
|      27 | 0xFFFC15E9  |  4294710761 |
|      28 | 0x1C51F     |      115999 |
|      29 | 0x5BBB      |       23483 |
|      30 | 0x0096      |         150 |
|      31 | 0xFFFBB974  |  4294687092 |
|      32 | 0x18A58     |      100952 |
|      33 | 0x5DBF      |       23999 |
|      34 | 0x053F      |        1343 |
|      35 | 0xFFFBAD92  |  4294684050 |
|      36 | 0x18315     |       99093 |
|      37 | 0x5DB2      |       23986 |
|      38 | 0xFFFB997D  |  4294678909 |
|      39 | 0x1792A     |       96554 |
|      40 | 0x5C73      |       23667 |
|      41 | 0x00B4      |         180 |
|      42 | 0xFFFBA80C  |  4294682636 |
|      43 | 0x180C1     |       98497 |
|      44 | 0x5D99      |       23961 |
|      45 | 0x06FF      |        1791 |
|      46 | 0x001D      |          29 |
|      47 | 0x0016      |          22 |
|      48 | 0x001A      |          26 |
|      49 | 0x0015      |          21 |
|      50 | 0x0009      |           9 |

## Events

### Event 65535

#### Metadata

| Field        | Value   |
|--------------|---------|
| Entrypoint   | 0x0000  |
| Data Size    | 1 bytes |
| Instructions | 1       |

```
      00 01 02 03 04 05 06 07  08 09 0A 0B 0C 0D 0E 0F
      -- -- -- -- -- -- -- --  -- -- -- -- -- -- -- --
0000: 00                                                .               
```

#### Opcodes

```
  0: 0x0000 [0x00] END_REQSTACK()
```

### Event 0

#### Metadata

| Field        | Value    |
|--------------|----------|
| Entrypoint   | 0x0001   |
| Data Size    | 16 bytes |
| Instructions | 3        |

```
      00 01 02 03 04 05 06 07  08 09 0A 0B 0C 0D 0E 0F
      -- -- -- -- -- -- -- --  -- -- -- -- -- -- -- --
0000:    94 01 F8 FF FF 7F 37  00 80 01 80 02 80 03 80   ......7........
0010: 00                                                .               
```

#### Opcodes

```
  0: 0x0001 [0x94] EventEntity->Render.Flags3 ^= 0x01
  1: 0x0007 [0x37] UPDATE_EVENT_POSITION_AND_DIR: x=-259.490*, z=123.123*, y=23.672*, direction=241.4°*
  2: 0x0010 [0x00] END_REQSTACK()
```

### Event 65535.1

#### Metadata

| Field        | Value    |
|--------------|----------|
| Entrypoint   | 0x0011   |
| Data Size    | 14 bytes |
| Instructions | 4        |

```
      00 01 02 03 04 05 06 07  08 09 0A 0B 0C 0D 0E 0F
      -- -- -- -- -- -- -- --  -- -- -- -- -- -- -- --
0010:    32 04 80 1F 00 05 80  06 80 07 80 1F 01 00      2............. 
```

#### Opcodes

```
  0: 0x0011 [0x32] ExtData[1]->MainSpeed = 13* * 0.1
  1: 0x0014 [0x1F] MOVE_ENTITY: EventEntity moves to X=-260.966*, Z=129.868*, Y=22.397*
  2: 0x001C [0x1F] MOVE_ENTITY: Update entity position (mode=1)
  3: 0x001E [0x00] END_REQSTACK()
```

### Event 65535.2

#### Metadata

| Field        | Value   |
|--------------|---------|
| Entrypoint   | 0x001F  |
| Data Size    | 6 bytes |
| Instructions | 2       |

```
      00 01 02 03 04 05 06 07  08 09 0A 0B 0C 0D 0E 0F
      -- -- -- -- -- -- -- --  -- -- -- -- -- -- -- --
0010:                                               1E                 .
0020: F0 FF FF 7F 00                                    .....           
```

#### Opcodes

```
  0: 0x001F [0x1E] EventEntity looks at LocalPlayer and starts talking
  1: 0x0024 [0x00] END_REQSTACK()
```

### Event 65535.3

#### Metadata

| Field        | Value   |
|--------------|---------|
| Entrypoint   | 0x0025  |
| Data Size    | 6 bytes |
| Instructions | 2       |

```
      00 01 02 03 04 05 06 07  08 09 0A 0B 0C 0D 0E 0F
      -- -- -- -- -- -- -- --  -- -- -- -- -- -- -- --
0020:                1E 80 62  06 01 00                      ..b...     
```

#### Opcodes

```
  0: 0x0025 [0x1E] EventEntity looks at Elmemague (ID: 17195648/0x01066280) and starts talking
  1: 0x002A [0x00] END_REQSTACK()
```

### Event 65535.4

#### Metadata

| Field        | Value   |
|--------------|---------|
| Entrypoint   | 0x002B  |
| Data Size    | 6 bytes |
| Instructions | 2       |

```
      00 01 02 03 04 05 06 07  08 09 0A 0B 0C 0D 0E 0F
      -- -- -- -- -- -- -- --  -- -- -- -- -- -- -- --
0020:                                   1E 5F 62 06 01             ._b..
0030: 00                                                .               
```

#### Opcodes

```
  0: 0x002B [0x1E] EventEntity looks at Narvecaint (ID: 17195615/0x0106625F) and starts talking
  1: 0x0030 [0x00] END_REQSTACK()
```

### Event 65535.5

#### Metadata

| Field        | Value   |
|--------------|---------|
| Entrypoint   | 0x0031  |
| Data Size    | 6 bytes |
| Instructions | 2       |

```
      00 01 02 03 04 05 06 07  08 09 0A 0B 0C 0D 0E 0F
      -- -- -- -- -- -- -- --  -- -- -- -- -- -- -- --
0030:    1E 83 62 06 01 00                               ..b...         
```

#### Opcodes

```
  0: 0x0031 [0x1E] EventEntity looks at Millechairale (ID: 17195651/0x01066283) and starts talking
  1: 0x0036 [0x00] END_REQSTACK()
```

### Event 65535.6

#### Metadata

| Field        | Value    |
|--------------|----------|
| Entrypoint   | 0x0037   |
| Data Size    | 10 bytes |
| Instructions | 2        |

```
      00 01 02 03 04 05 06 07  08 09 0A 0B 0C 0D 0E 0F
      -- -- -- -- -- -- -- --  -- -- -- -- -- -- -- --
0030:                      37  08 80 09 80 0A 80 0B 80         7........
0040: 00                                                .               
```

#### Opcodes

```
  0: 0x0037 [0x37] UPDATE_EVENT_POSITION_AND_DIR: x=-365.009*, z=232.696*, y=21.848*, direction=63.7°*
  1: 0x0040 [0x00] END_REQSTACK()
```

### Event 1

#### Metadata

| Field        | Value    |
|--------------|----------|
| Entrypoint   | 0x0041   |
| Data Size    | 16 bytes |
| Instructions | 3        |

```
      00 01 02 03 04 05 06 07  08 09 0A 0B 0C 0D 0E 0F
      -- -- -- -- -- -- -- --  -- -- -- -- -- -- -- --
0040:    94 01 F8 FF FF 7F 37  0C 80 0D 80 0E 80 0F 80   ......7........
0050: 00                                                .               
```

#### Opcodes

```
  0: 0x0041 [0x94] EventEntity->Render.Flags3 ^= 0x01
  1: 0x0047 [0x37] UPDATE_EVENT_POSITION_AND_DIR: x=-270.018*, z=133.632*, y=22.631*, direction=16.2°*
  2: 0x0050 [0x00] END_REQSTACK()
```

### Event 65535.7

#### Metadata

| Field        | Value    |
|--------------|----------|
| Entrypoint   | 0x0051   |
| Data Size    | 18 bytes |
| Instructions | 2        |

```
      00 01 02 03 04 05 06 07  08 09 0A 0B 0C 0D 0E 0F
      -- -- -- -- -- -- -- --  -- -- -- -- -- -- -- --
0050:    62 10 80 F8 FF FF 7F  F8 FF FF 7F 6D 61 69 6E   b..........main
0060: 11 80 00                                          ...             
```

#### Opcodes

```
  0: 0x0051 [0x62] LOAD_EVENT_SCHEDULER: Load scheduler "main" with entities [EventEntity, EventEntity], work=[43*, 0*]
  1: 0x0062 [0x00] END_REQSTACK()
```

### Event 65535.8

#### Metadata

| Field        | Value    |
|--------------|----------|
| Entrypoint   | 0x0063   |
| Data Size    | 23 bytes |
| Instructions | 9        |

```
      00 01 02 03 04 05 06 07  08 09 0A 0B 0C 0D 0E 0F
      -- -- -- -- -- -- -- --  -- -- -- -- -- -- -- --
0060:          32 04 80 1F 00  12 80 13 80 14 80 1F 01     2............
0070: 6F 1C 15 80 39 16 80 6F  70 00                    o...9..op.      
```

#### Opcodes

```
  0: 0x0063 [0x32] ExtData[1]->MainSpeed = 13* * 0.1
  1: 0x0066 [0x1F] MOVE_ENTITY: EventEntity moves to X=-266.416*, Z=132.800*, Y=21.937*
  2: 0x006E [0x1F] MOVE_ENTITY: Update entity position (mode=1)
  3: 0x0070 [0x6F] WAIT_FRAME_DELAY: Yield until WaitTime reaches zero
  4: 0x0071 [0x1C] WAIT(30* ticks)
  5: 0x0074 [0x39] SET_ENTITY_DIRECTION(direction=12.3°*)
  6: 0x0077 [0x6F] WAIT_FRAME_DELAY: Yield until WaitTime reaches zero
  7: 0x0078 [0x70] WAIT_ENTITY_RENDER_FLAG: Wait while EventEntity->Render.Flags3 bit 2 is set (cancel turn if not)
  8: 0x0079 [0x00] END_REQSTACK()
```

### Event 65535.9

#### Metadata

| Field        | Value   |
|--------------|---------|
| Entrypoint   | 0x007A  |
| Data Size    | 6 bytes |
| Instructions | 2       |

```
      00 01 02 03 04 05 06 07  08 09 0A 0B 0C 0D 0E 0F
      -- -- -- -- -- -- -- --  -- -- -- -- -- -- -- --
0070:                                1E 82 62 06 01 00            ..b...
```

#### Opcodes

```
  0: 0x007A [0x1E] EventEntity looks at Roido (ID: 17195650/0x01066282) and starts talking
  1: 0x007F [0x00] END_REQSTACK()
```

### Event 65535.10

#### Metadata

| Field        | Value    |
|--------------|----------|
| Entrypoint   | 0x0080   |
| Data Size    | 14 bytes |
| Instructions | 4        |

```
      00 01 02 03 04 05 06 07  08 09 0A 0B 0C 0D 0E 0F
      -- -- -- -- -- -- -- --  -- -- -- -- -- -- -- --
0080: 32 17 80 1F 00 18 80 19  80 1A 80 1F 01 00        2.............  
```

#### Opcodes

```
  0: 0x0080 [0x32] ExtData[1]->MainSpeed = 40* * 0.1
  1: 0x0083 [0x1F] MOVE_ENTITY: EventEntity moves to X=-259.700*, Z=124.883*, Y=23.261*
  2: 0x008B [0x1F] MOVE_ENTITY: Update entity position (mode=1)
  3: 0x008D [0x00] END_REQSTACK()
```

### Event 65535.11

#### Metadata

| Field        | Value    |
|--------------|----------|
| Entrypoint   | 0x008E   |
| Data Size    | 25 bytes |
| Instructions | 5        |

```
      00 01 02 03 04 05 06 07  08 09 0A 0B 0C 0D 0E 0F
      -- -- -- -- -- -- -- --  -- -- -- -- -- -- -- --
0080:                                            32 04                2.
0090: 80 31 00 1B 80 1C 80 1D  80 1E 80 31 01 37 1F 80  .1.........1.7..
00A0: 20 80 21 80 22 80 00                               .!."..         
```

#### Opcodes

```
  0: 0x008E [0x32] ExtData[1]->MainSpeed = 13* * 0.1
  1: 0x0091 [0x31] UPDATE_ENTITY_POSITION: Set EventEntity goal position to X=-256.535*, Z=115.999*, Y=23.483*, Time=150*
  2: 0x009B [0x31] UPDATE_ENTITY_POSITION: Move EventEntity towards goal position
  3: 0x009D [0x37] UPDATE_EVENT_POSITION_AND_DIR: x=-280.204*, z=100.952*, y=23.999*, direction=118.0°*
  4: 0x00A6 [0x00] END_REQSTACK()
```

### Event 65535.12

#### Metadata

| Field        | Value    |
|--------------|----------|
| Entrypoint   | 0x00A7   |
| Data Size    | 20 bytes |
| Instructions | 6        |

```
      00 01 02 03 04 05 06 07  08 09 0A 0B 0C 0D 0E 0F
      -- -- -- -- -- -- -- --  -- -- -- -- -- -- -- --
00A0:                      32  04 80 1F 00 23 80 24 80         2....#.$.
00B0: 25 80 1F 01 6F 1E 83 62  06 01 00                 %...o..b...     
```

#### Opcodes

```
  0: 0x00A7 [0x32] ExtData[1]->MainSpeed = 13* * 0.1
  1: 0x00AA [0x1F] MOVE_ENTITY: EventEntity moves to X=-283.246*, Z=99.093*, Y=23.986*
  2: 0x00B2 [0x1F] MOVE_ENTITY: Update entity position (mode=1)
  3: 0x00B4 [0x6F] WAIT_FRAME_DELAY: Yield until WaitTime reaches zero
  4: 0x00B5 [0x1E] EventEntity looks at Millechairale (ID: 17195651/0x01066283) and starts talking
  5: 0x00BA [0x00] END_REQSTACK()
```

### Event 65535.13

#### Metadata

| Field        | Value    |
|--------------|----------|
| Entrypoint   | 0x00BB   |
| Data Size    | 16 bytes |
| Instructions | 4        |

```
      00 01 02 03 04 05 06 07  08 09 0A 0B 0C 0D 0E 0F
      -- -- -- -- -- -- -- --  -- -- -- -- -- -- -- --
00B0:                                   32 04 80 31 00             2..1.
00C0: 26 80 27 80 28 80 29 80  31 01 00                 &.'.(.).1..     
```

#### Opcodes

```
  0: 0x00BB [0x32] ExtData[1]->MainSpeed = 13* * 0.1
  1: 0x00BE [0x31] UPDATE_ENTITY_POSITION: Set EventEntity goal position to X=-288.387*, Z=96.554*, Y=23.667*, Time=180*
  2: 0x00C8 [0x31] UPDATE_ENTITY_POSITION: Move EventEntity towards goal position
  3: 0x00CA [0x00] END_REQSTACK()
```

### Event 65535.14

#### Metadata

| Field        | Value    |
|--------------|----------|
| Entrypoint   | 0x00CB   |
| Data Size    | 10 bytes |
| Instructions | 2        |

```
      00 01 02 03 04 05 06 07  08 09 0A 0B 0C 0D 0E 0F
      -- -- -- -- -- -- -- --  -- -- -- -- -- -- -- --
00C0:                                   37 2A 80 2B 80             7*.+.
00D0: 2C 80 2D 80 00                                    ,.-..           
```

#### Opcodes

```
  0: 0x00CB [0x37] UPDATE_EVENT_POSITION_AND_DIR: x=-284.660*, z=98.497*, y=23.961*, direction=157.4°*
  1: 0x00D4 [0x00] END_REQSTACK()
```

### Event 65535.15

#### Metadata

| Field        | Value    |
|--------------|----------|
| Entrypoint   | 0x00D5   |
| Data Size    | 18 bytes |
| Instructions | 4        |

```
      00 01 02 03 04 05 06 07  08 09 0A 0B 0C 0D 0E 0F
      -- -- -- -- -- -- -- --  -- -- -- -- -- -- -- --
00D0:                6E F8 FF  FF 7F 2E 80 99 F8 FF FF       n..........
00E0: 7F 99 F8 FF FF 7F 00                              .......         
```

#### Opcodes

```
  0: 0x00D5 [0x6E] EventEntity uses emote 29*
  1: 0x00DC [0x99] Wait for EventEntity animation to complete
  2: 0x00E1 [0x99] Wait for EventEntity animation to complete
  3: 0x00E6 [0x00] END_REQSTACK()
```

### Event 65535.16

#### Metadata

| Field        | Value    |
|--------------|----------|
| Entrypoint   | 0x00E7   |
| Data Size    | 18 bytes |
| Instructions | 4        |

```
      00 01 02 03 04 05 06 07  08 09 0A 0B 0C 0D 0E 0F
      -- -- -- -- -- -- -- --  -- -- -- -- -- -- -- --
00E0:                      6E  F8 FF FF 7F 2F 80 99 F8         n..../...
00F0: FF FF 7F 99 F8 FF FF 7F  00                       .........       
```

#### Opcodes

```
  0: 0x00E7 [0x6E] EventEntity uses emote 22*
  1: 0x00EE [0x99] Wait for EventEntity animation to complete
  2: 0x00F3 [0x99] Wait for EventEntity animation to complete
  3: 0x00F8 [0x00] END_REQSTACK()
```

### Event 65535.17

#### Metadata

| Field        | Value    |
|--------------|----------|
| Entrypoint   | 0x00F9   |
| Data Size    | 13 bytes |
| Instructions | 3        |

```
      00 01 02 03 04 05 06 07  08 09 0A 0B 0C 0D 0E 0F
      -- -- -- -- -- -- -- --  -- -- -- -- -- -- -- --
00F0:                             6E F8 FF FF 7F 30 80           n....0.
0100: 99 F8 FF FF 7F 00                                 ......          
```

#### Opcodes

```
  0: 0x00F9 [0x6E] EventEntity uses emote 26*
  1: 0x0100 [0x99] Wait for EventEntity animation to complete
  2: 0x0105 [0x00] END_REQSTACK()
```

### Event 65535.18

#### Metadata

| Field        | Value    |
|--------------|----------|
| Entrypoint   | 0x0106   |
| Data Size    | 18 bytes |
| Instructions | 4        |

```
      00 01 02 03 04 05 06 07  08 09 0A 0B 0C 0D 0E 0F
      -- -- -- -- -- -- -- --  -- -- -- -- -- -- -- --
0100:                   6E F8  FF FF 7F 31 80 99 F8 FF        n....1....
0110: FF 7F 99 F8 FF FF 7F 00                           ........        
```

#### Opcodes

```
  0: 0x0106 [0x6E] EventEntity uses emote 21*
  1: 0x010D [0x99] Wait for EventEntity animation to complete
  2: 0x0112 [0x99] Wait for EventEntity animation to complete
  3: 0x0117 [0x00] END_REQSTACK()
```

### Event 65535.19

#### Metadata

| Field        | Value    |
|--------------|----------|
| Entrypoint   | 0x0118   |
| Data Size    | 18 bytes |
| Instructions | 4        |

```
      00 01 02 03 04 05 06 07  08 09 0A 0B 0C 0D 0E 0F
      -- -- -- -- -- -- -- --  -- -- -- -- -- -- -- --
0110:                          6E F8 FF FF 7F 32 80 99          n....2..
0120: F8 FF FF 7F 99 F8 FF FF  7F 00                    ..........      
```

#### Opcodes

```
  0: 0x0118 [0x6E] EventEntity uses emote 9*
  1: 0x011F [0x99] Wait for EventEntity animation to complete
  2: 0x0124 [0x99] Wait for EventEntity animation to complete
  3: 0x0129 [0x00] END_REQSTACK()
```
