# 17195779 - Tethys

## Common Data

| Field            | Value                       |
|------------------|-----------------------------|
| Zone             | La Theine Plateau (ID: 102) |
| Block Size       | 1248 bytes                  |
| Total Events     | 59                          |
| References Count | 23                          |

## List of Events

| Event ID                   | Entrypoint   |   Size |   Instructions |
|----------------------------|--------------|--------|----------------|
| [65535](#event-65535)      | 0x0000       |      1 |              1 |
| [65535.1](#event-655351)   | 0x0001       |     16 |              2 |
| [65535.2](#event-655352)   | 0x0011       |     14 |              2 |
| [65535.3](#event-655353)   | 0x001F       |     16 |              2 |
| [65535.4](#event-655354)   | 0x002F       |     14 |              2 |
| [65535.5](#event-655355)   | 0x003D       |     16 |              2 |
| [65535.6](#event-655356)   | 0x004D       |     14 |              2 |
| [65535.7](#event-655357)   | 0x005B       |     16 |              2 |
| [65535.8](#event-655358)   | 0x006B       |     14 |              2 |
| [65535.9](#event-655359)   | 0x0079       |     16 |              2 |
| [65535.10](#event-6553510) | 0x0089       |     14 |              2 |
| [65535.11](#event-6553511) | 0x0097       |     16 |              2 |
| [65535.12](#event-6553512) | 0x00A7       |     14 |              2 |
| [65535.13](#event-6553513) | 0x00B5       |     16 |              2 |
| [65535.14](#event-6553514) | 0x00C5       |     14 |              2 |
| [65535.15](#event-6553515) | 0x00D3       |     16 |              2 |
| [65535.16](#event-6553516) | 0x00E3       |     14 |              2 |
| [65535.17](#event-6553517) | 0x00F1       |     16 |              2 |
| [65535.18](#event-6553518) | 0x0101       |     14 |              2 |
| [65535.19](#event-6553519) | 0x010F       |     16 |              2 |
| [65535.20](#event-6553520) | 0x011F       |     14 |              2 |
| [65535.21](#event-6553521) | 0x012D       |     16 |              2 |
| [65535.22](#event-6553522) | 0x013D       |     14 |              2 |
| [65535.23](#event-6553523) | 0x014B       |     16 |              2 |
| [65535.24](#event-6553524) | 0x015B       |     14 |              2 |
| [65535.25](#event-6553525) | 0x0169       |     16 |              2 |
| [65535.26](#event-6553526) | 0x0179       |     14 |              2 |
| [65535.27](#event-6553527) | 0x0187       |     16 |              2 |
| [65535.28](#event-6553528) | 0x0197       |     14 |              2 |
| [65535.29](#event-6553529) | 0x01A5       |     16 |              2 |
| [65535.30](#event-6553530) | 0x01B5       |     14 |              2 |
| [65535.31](#event-6553531) | 0x01C3       |     16 |              2 |
| [65535.32](#event-6553532) | 0x01D3       |     14 |              2 |
| [65535.33](#event-6553533) | 0x01E1       |     16 |              2 |
| [65535.34](#event-6553534) | 0x01F1       |     14 |              2 |
| [65535.35](#event-6553535) | 0x01FF       |     16 |              2 |
| [65535.36](#event-6553536) | 0x020F       |     14 |              2 |
| [65535.37](#event-6553537) | 0x021D       |     16 |              2 |
| [65535.38](#event-6553538) | 0x022D       |     14 |              2 |
| [65535.39](#event-6553539) | 0x023B       |     16 |              2 |
| [65535.40](#event-6553540) | 0x024B       |     14 |              2 |
| [65535.41](#event-6553541) | 0x0259       |     16 |              2 |
| [65535.42](#event-6553542) | 0x0269       |     14 |              2 |
| [65535.43](#event-6553543) | 0x0277       |     16 |              2 |
| [65535.44](#event-6553544) | 0x0287       |     14 |              2 |
| [65535.45](#event-6553545) | 0x0295       |     16 |              2 |
| [65535.46](#event-6553546) | 0x02A5       |     14 |              2 |
| [65535.47](#event-6553547) | 0x02B3       |     16 |              2 |
| [65535.48](#event-6553548) | 0x02C3       |     14 |              2 |
| [65535.49](#event-6553549) | 0x02D1       |     16 |              2 |
| [65535.50](#event-6553550) | 0x02E1       |     14 |              2 |
| [225](#event-225)          | 0x02EF       |      7 |              2 |
| [65535.51](#event-6553551) | 0x02F6       |     65 |             11 |
| [65535.52](#event-6553552) | 0x0337       |      6 |              2 |
| [226](#event-226)          | 0x033D       |      7 |              2 |
| [227](#event-227)          | 0x0344       |      7 |              2 |
| [65535.53](#event-6553553) | 0x034B       |      7 |              3 |
| [65535.54](#event-6553554) | 0x0352       |      7 |              3 |
| [65535.55](#event-6553555) | 0x0359       |     44 |             10 |

## DAT References (imed_data)

|   Index | Hex Value   |   Dec Value |
|---------|-------------|-------------|
|       0 | 0x052A      |        1322 |
|       1 | 0x0946      |        2374 |
|       2 | 0x0948      |        2376 |
|       3 | 0x05AD      |        1453 |
|       4 | 0x091B      |        2331 |
|       5 | 0x091D      |        2333 |
|       6 | 0x0000      |           0 |
|       7 | 0x005A      |          90 |
|       8 | 0x006E      |         110 |
|       9 | 0x0001      |           1 |
|      10 | 0x000D      |          13 |
|      11 | 0x3B928     |      244008 |
|      12 | 0xFFFAAC8A  |  4294618250 |
|      13 | 0x4FD2      |       20434 |
|      14 | 0x3B6E6     |      243430 |
|      15 | 0xFFFABFEC  |  4294623212 |
|      16 | 0x50C9      |       20681 |
|      17 | 0x3B1E4     |      242148 |
|      18 | 0xFFFADC29  |  4294630441 |
|      19 | 0x511F      |       20767 |
|      20 | 0x3AB27     |      240423 |
|      21 | 0xFFFAF772  |  4294637426 |
|      22 | 0x4FD7      |       20439 |

## Events

### Event 65535

#### Metadata

| Field        | Value   |
|--------------|---------|
| Entrypoint   | 0x0000  |
| Data Size    | 1 bytes |
| Instructions | 1       |

```
      00 01 02 03 04 05 06 07  08 09 0A 0B 0C 0D 0E 0F
      -- -- -- -- -- -- -- --  -- -- -- -- -- -- -- --
0000: 00                                                .               
```

#### Opcodes

```
  0: 0x0000 [0x00] END_REQSTACK()
```

### Event 65535.1

#### Metadata

| Field        | Value    |
|--------------|----------|
| Entrypoint   | 0x0001   |
| Data Size    | 16 bytes |
| Instructions | 2        |

```
      00 01 02 03 04 05 06 07  08 09 0A 0B 0C 0D 0E 0F
      -- -- -- -- -- -- -- --  -- -- -- -- -- -- -- --
0000:    5B 00 80 F8 FF FF 7F  F8 FF FF 7F 73 64 30 30   [..........sd00
0010: 00                                                .               
```

#### Opcodes

```
  0: 0x0001 [0x5B] LOAD_EXT_SCHEDULER: Load scheduler "sd00" with entities [EventEntity, EventEntity], work=1322*
  1: 0x0010 [0x00] END_REQSTACK()
```

### Event 65535.2

#### Metadata

| Field        | Value    |
|--------------|----------|
| Entrypoint   | 0x0011   |
| Data Size    | 14 bytes |
| Instructions | 2        |

```
      00 01 02 03 04 05 06 07  08 09 0A 0B 0C 0D 0E 0F
      -- -- -- -- -- -- -- --  -- -- -- -- -- -- -- --
0010:    53 F8 FF FF 7F F8 FF  FF 7F 73 64 30 30 00      S........sd00. 
```

#### Opcodes

```
  0: 0x0011 [0x53] WAIT_SCHEDULER_TASK: Wait for scheduler "sd00" with entities [EventEntity, EventEntity]
  1: 0x001E [0x00] END_REQSTACK()
```

### Event 65535.3

#### Metadata

| Field        | Value    |
|--------------|----------|
| Entrypoint   | 0x001F   |
| Data Size    | 16 bytes |
| Instructions | 2        |

```
      00 01 02 03 04 05 06 07  08 09 0A 0B 0C 0D 0E 0F
      -- -- -- -- -- -- -- --  -- -- -- -- -- -- -- --
0010:                                               5B                 [
0020: 00 80 F8 FF FF 7F F8 FF  FF 7F 73 64 30 31 00     ..........sd01. 
```

#### Opcodes

```
  0: 0x001F [0x5B] LOAD_EXT_SCHEDULER: Load scheduler "sd01" with entities [EventEntity, EventEntity], work=1322*
  1: 0x002E [0x00] END_REQSTACK()
```

### Event 65535.4

#### Metadata

| Field        | Value    |
|--------------|----------|
| Entrypoint   | 0x002F   |
| Data Size    | 14 bytes |
| Instructions | 2        |

```
      00 01 02 03 04 05 06 07  08 09 0A 0B 0C 0D 0E 0F
      -- -- -- -- -- -- -- --  -- -- -- -- -- -- -- --
0020:                                               53                 S
0030: F8 FF FF 7F F8 FF FF 7F  73 64 30 31 00           ........sd01.   
```

#### Opcodes

```
  0: 0x002F [0x53] WAIT_SCHEDULER_TASK: Wait for scheduler "sd01" with entities [EventEntity, EventEntity]
  1: 0x003C [0x00] END_REQSTACK()
```

### Event 65535.5

#### Metadata

| Field        | Value    |
|--------------|----------|
| Entrypoint   | 0x003D   |
| Data Size    | 16 bytes |
| Instructions | 2        |

```
      00 01 02 03 04 05 06 07  08 09 0A 0B 0C 0D 0E 0F
      -- -- -- -- -- -- -- --  -- -- -- -- -- -- -- --
0030:                                         5B 00 80               [..
0040: F8 FF FF 7F F8 FF FF 7F  61 61 33 30 00           ........aa30.   
```

#### Opcodes

```
  0: 0x003D [0x5B] LOAD_EXT_SCHEDULER: Load scheduler "aa30" with entities [EventEntity, EventEntity], work=1322*
  1: 0x004C [0x00] END_REQSTACK()
```

### Event 65535.6

#### Metadata

| Field        | Value    |
|--------------|----------|
| Entrypoint   | 0x004D   |
| Data Size    | 14 bytes |
| Instructions | 2        |

```
      00 01 02 03 04 05 06 07  08 09 0A 0B 0C 0D 0E 0F
      -- -- -- -- -- -- -- --  -- -- -- -- -- -- -- --
0040:                                         53 F8 FF               S..
0050: FF 7F F8 FF FF 7F 61 61  33 30 00                 ......aa30.     
```

#### Opcodes

```
  0: 0x004D [0x53] WAIT_SCHEDULER_TASK: Wait for scheduler "aa30" with entities [EventEntity, EventEntity]
  1: 0x005A [0x00] END_REQSTACK()
```

### Event 65535.7

#### Metadata

| Field        | Value    |
|--------------|----------|
| Entrypoint   | 0x005B   |
| Data Size    | 16 bytes |
| Instructions | 2        |

```
      00 01 02 03 04 05 06 07  08 09 0A 0B 0C 0D 0E 0F
      -- -- -- -- -- -- -- --  -- -- -- -- -- -- -- --
0050:                                   5B 00 80 F8 FF             [....
0060: FF 7F F8 FF FF 7F 73 64  30 32 00                 ......sd02.     
```

#### Opcodes

```
  0: 0x005B [0x5B] LOAD_EXT_SCHEDULER: Load scheduler "sd02" with entities [EventEntity, EventEntity], work=1322*
  1: 0x006A [0x00] END_REQSTACK()
```

### Event 65535.8

#### Metadata

| Field        | Value    |
|--------------|----------|
| Entrypoint   | 0x006B   |
| Data Size    | 14 bytes |
| Instructions | 2        |

```
      00 01 02 03 04 05 06 07  08 09 0A 0B 0C 0D 0E 0F
      -- -- -- -- -- -- -- --  -- -- -- -- -- -- -- --
0060:                                   53 F8 FF FF 7F             S....
0070: F8 FF FF 7F 73 64 30 32  00                       ....sd02.       
```

#### Opcodes

```
  0: 0x006B [0x53] WAIT_SCHEDULER_TASK: Wait for scheduler "sd02" with entities [EventEntity, EventEntity]
  1: 0x0078 [0x00] END_REQSTACK()
```

### Event 65535.9

#### Metadata

| Field        | Value    |
|--------------|----------|
| Entrypoint   | 0x0079   |
| Data Size    | 16 bytes |
| Instructions | 2        |

```
      00 01 02 03 04 05 06 07  08 09 0A 0B 0C 0D 0E 0F
      -- -- -- -- -- -- -- --  -- -- -- -- -- -- -- --
0070:                             5B 00 80 F8 FF FF 7F           [......
0080: F8 FF FF 7F 6C 6F 75 30  00                       ....lou0.       
```

#### Opcodes

```
  0: 0x0079 [0x5B] LOAD_EXT_SCHEDULER: Load scheduler "lou0" with entities [EventEntity, EventEntity], work=1322*
  1: 0x0088 [0x00] END_REQSTACK()
```

### Event 65535.10

#### Metadata

| Field        | Value    |
|--------------|----------|
| Entrypoint   | 0x0089   |
| Data Size    | 14 bytes |
| Instructions | 2        |

```
      00 01 02 03 04 05 06 07  08 09 0A 0B 0C 0D 0E 0F
      -- -- -- -- -- -- -- --  -- -- -- -- -- -- -- --
0080:                             53 F8 FF FF 7F F8 FF           S......
0090: FF 7F 6C 6F 75 30 00                              ..lou0.         
```

#### Opcodes

```
  0: 0x0089 [0x53] WAIT_SCHEDULER_TASK: Wait for scheduler "lou0" with entities [EventEntity, EventEntity]
  1: 0x0096 [0x00] END_REQSTACK()
```

### Event 65535.11

#### Metadata

| Field        | Value    |
|--------------|----------|
| Entrypoint   | 0x0097   |
| Data Size    | 16 bytes |
| Instructions | 2        |

```
      00 01 02 03 04 05 06 07  08 09 0A 0B 0C 0D 0E 0F
      -- -- -- -- -- -- -- --  -- -- -- -- -- -- -- --
0090:                      5B  00 80 F8 FF FF 7F F8 FF         [........
00A0: FF 7F 74 6C 6B 30 00                              ..tlk0.         
```

#### Opcodes

```
  0: 0x0097 [0x5B] LOAD_EXT_SCHEDULER: Load scheduler "tlk0" with entities [EventEntity, EventEntity], work=1322*
  1: 0x00A6 [0x00] END_REQSTACK()
```

### Event 65535.12

#### Metadata

| Field        | Value    |
|--------------|----------|
| Entrypoint   | 0x00A7   |
| Data Size    | 14 bytes |
| Instructions | 2        |

```
      00 01 02 03 04 05 06 07  08 09 0A 0B 0C 0D 0E 0F
      -- -- -- -- -- -- -- --  -- -- -- -- -- -- -- --
00A0:                      53  F8 FF FF 7F F8 FF FF 7F         S........
00B0: 74 6C 6B 30 00                                    tlk0.           
```

#### Opcodes

```
  0: 0x00A7 [0x53] WAIT_SCHEDULER_TASK: Wait for scheduler "tlk0" with entities [EventEntity, EventEntity]
  1: 0x00B4 [0x00] END_REQSTACK()
```

### Event 65535.13

#### Metadata

| Field        | Value    |
|--------------|----------|
| Entrypoint   | 0x00B5   |
| Data Size    | 16 bytes |
| Instructions | 2        |

```
      00 01 02 03 04 05 06 07  08 09 0A 0B 0C 0D 0E 0F
      -- -- -- -- -- -- -- --  -- -- -- -- -- -- -- --
00B0:                5B 00 80  F8 FF FF 7F F8 FF FF 7F       [..........
00C0: 74 6C 6B 62 00                                    tlkb.           
```

#### Opcodes

```
  0: 0x00B5 [0x5B] LOAD_EXT_SCHEDULER: Load scheduler "tlkb" with entities [EventEntity, EventEntity], work=1322*
  1: 0x00C4 [0x00] END_REQSTACK()
```

### Event 65535.14

#### Metadata

| Field        | Value    |
|--------------|----------|
| Entrypoint   | 0x00C5   |
| Data Size    | 14 bytes |
| Instructions | 2        |

```
      00 01 02 03 04 05 06 07  08 09 0A 0B 0C 0D 0E 0F
      -- -- -- -- -- -- -- --  -- -- -- -- -- -- -- --
00C0:                53 F8 FF  FF 7F F8 FF FF 7F 74 6C       S........tl
00D0: 6B 62 00                                          kb.             
```

#### Opcodes

```
  0: 0x00C5 [0x53] WAIT_SCHEDULER_TASK: Wait for scheduler "tlkb" with entities [EventEntity, EventEntity]
  1: 0x00D2 [0x00] END_REQSTACK()
```

### Event 65535.15

#### Metadata

| Field        | Value    |
|--------------|----------|
| Entrypoint   | 0x00D3   |
| Data Size    | 16 bytes |
| Instructions | 2        |

```
      00 01 02 03 04 05 06 07  08 09 0A 0B 0C 0D 0E 0F
      -- -- -- -- -- -- -- --  -- -- -- -- -- -- -- --
00D0:          5B 01 80 F8 FF  FF 7F F8 FF FF 7F 68 72     [..........hr
00E0: 61 30 00                                          a0.             
```

#### Opcodes

```
  0: 0x00D3 [0x5B] LOAD_EXT_SCHEDULER: Load scheduler "hra0" with entities [EventEntity, EventEntity], work=2374*
  1: 0x00E2 [0x00] END_REQSTACK()
```

### Event 65535.16

#### Metadata

| Field        | Value    |
|--------------|----------|
| Entrypoint   | 0x00E3   |
| Data Size    | 14 bytes |
| Instructions | 2        |

```
      00 01 02 03 04 05 06 07  08 09 0A 0B 0C 0D 0E 0F
      -- -- -- -- -- -- -- --  -- -- -- -- -- -- -- --
00E0:          53 F8 FF FF 7F  F8 FF FF 7F 68 72 61 30     S........hra0
00F0: 00                                                .               
```

#### Opcodes

```
  0: 0x00E3 [0x53] WAIT_SCHEDULER_TASK: Wait for scheduler "hra0" with entities [EventEntity, EventEntity]
  1: 0x00F0 [0x00] END_REQSTACK()
```

### Event 65535.17

#### Metadata

| Field        | Value    |
|--------------|----------|
| Entrypoint   | 0x00F1   |
| Data Size    | 16 bytes |
| Instructions | 2        |

```
      00 01 02 03 04 05 06 07  08 09 0A 0B 0C 0D 0E 0F
      -- -- -- -- -- -- -- --  -- -- -- -- -- -- -- --
00F0:    5B 01 80 F8 FF FF 7F  F8 FF FF 7F 68 72 61 31   [..........hra1
0100: 00                                                .               
```

#### Opcodes

```
  0: 0x00F1 [0x5B] LOAD_EXT_SCHEDULER: Load scheduler "hra1" with entities [EventEntity, EventEntity], work=2374*
  1: 0x0100 [0x00] END_REQSTACK()
```

### Event 65535.18

#### Metadata

| Field        | Value    |
|--------------|----------|
| Entrypoint   | 0x0101   |
| Data Size    | 14 bytes |
| Instructions | 2        |

```
      00 01 02 03 04 05 06 07  08 09 0A 0B 0C 0D 0E 0F
      -- -- -- -- -- -- -- --  -- -- -- -- -- -- -- --
0100:    53 F8 FF FF 7F F8 FF  FF 7F 68 72 61 31 00      S........hra1. 
```

#### Opcodes

```
  0: 0x0101 [0x53] WAIT_SCHEDULER_TASK: Wait for scheduler "hra1" with entities [EventEntity, EventEntity]
  1: 0x010E [0x00] END_REQSTACK()
```

### Event 65535.19

#### Metadata

| Field        | Value    |
|--------------|----------|
| Entrypoint   | 0x010F   |
| Data Size    | 16 bytes |
| Instructions | 2        |

```
      00 01 02 03 04 05 06 07  08 09 0A 0B 0C 0D 0E 0F
      -- -- -- -- -- -- -- --  -- -- -- -- -- -- -- --
0100:                                               5B                 [
0110: 01 80 F8 FF FF 7F F8 FF  FF 7F 68 6C 61 31 00     ..........hla1. 
```

#### Opcodes

```
  0: 0x010F [0x5B] LOAD_EXT_SCHEDULER: Load scheduler "hla1" with entities [EventEntity, EventEntity], work=2374*
  1: 0x011E [0x00] END_REQSTACK()
```

### Event 65535.20

#### Metadata

| Field        | Value    |
|--------------|----------|
| Entrypoint   | 0x011F   |
| Data Size    | 14 bytes |
| Instructions | 2        |

```
      00 01 02 03 04 05 06 07  08 09 0A 0B 0C 0D 0E 0F
      -- -- -- -- -- -- -- --  -- -- -- -- -- -- -- --
0110:                                               53                 S
0120: F8 FF FF 7F F8 FF FF 7F  68 6C 61 31 00           ........hla1.   
```

#### Opcodes

```
  0: 0x011F [0x53] WAIT_SCHEDULER_TASK: Wait for scheduler "hla1" with entities [EventEntity, EventEntity]
  1: 0x012C [0x00] END_REQSTACK()
```

### Event 65535.21

#### Metadata

| Field        | Value    |
|--------------|----------|
| Entrypoint   | 0x012D   |
| Data Size    | 16 bytes |
| Instructions | 2        |

```
      00 01 02 03 04 05 06 07  08 09 0A 0B 0C 0D 0E 0F
      -- -- -- -- -- -- -- --  -- -- -- -- -- -- -- --
0120:                                         5B 01 80               [..
0130: F8 FF FF 7F F8 FF FF 7F  68 72 62 30 00           ........hrb0.   
```

#### Opcodes

```
  0: 0x012D [0x5B] LOAD_EXT_SCHEDULER: Load scheduler "hrb0" with entities [EventEntity, EventEntity], work=2374*
  1: 0x013C [0x00] END_REQSTACK()
```

### Event 65535.22

#### Metadata

| Field        | Value    |
|--------------|----------|
| Entrypoint   | 0x013D   |
| Data Size    | 14 bytes |
| Instructions | 2        |

```
      00 01 02 03 04 05 06 07  08 09 0A 0B 0C 0D 0E 0F
      -- -- -- -- -- -- -- --  -- -- -- -- -- -- -- --
0130:                                         53 F8 FF               S..
0140: FF 7F F8 FF FF 7F 68 72  62 30 00                 ......hrb0.     
```

#### Opcodes

```
  0: 0x013D [0x53] WAIT_SCHEDULER_TASK: Wait for scheduler "hrb0" with entities [EventEntity, EventEntity]
  1: 0x014A [0x00] END_REQSTACK()
```

### Event 65535.23

#### Metadata

| Field        | Value    |
|--------------|----------|
| Entrypoint   | 0x014B   |
| Data Size    | 16 bytes |
| Instructions | 2        |

```
      00 01 02 03 04 05 06 07  08 09 0A 0B 0C 0D 0E 0F
      -- -- -- -- -- -- -- --  -- -- -- -- -- -- -- --
0140:                                   5B 01 80 F8 FF             [....
0150: FF 7F F8 FF FF 7F 68 72  62 31 00                 ......hrb1.     
```

#### Opcodes

```
  0: 0x014B [0x5B] LOAD_EXT_SCHEDULER: Load scheduler "hrb1" with entities [EventEntity, EventEntity], work=2374*
  1: 0x015A [0x00] END_REQSTACK()
```

### Event 65535.24

#### Metadata

| Field        | Value    |
|--------------|----------|
| Entrypoint   | 0x015B   |
| Data Size    | 14 bytes |
| Instructions | 2        |

```
      00 01 02 03 04 05 06 07  08 09 0A 0B 0C 0D 0E 0F
      -- -- -- -- -- -- -- --  -- -- -- -- -- -- -- --
0150:                                   53 F8 FF FF 7F             S....
0160: F8 FF FF 7F 68 72 62 31  00                       ....hrb1.       
```

#### Opcodes

```
  0: 0x015B [0x53] WAIT_SCHEDULER_TASK: Wait for scheduler "hrb1" with entities [EventEntity, EventEntity]
  1: 0x0168 [0x00] END_REQSTACK()
```

### Event 65535.25

#### Metadata

| Field        | Value    |
|--------------|----------|
| Entrypoint   | 0x0169   |
| Data Size    | 16 bytes |
| Instructions | 2        |

```
      00 01 02 03 04 05 06 07  08 09 0A 0B 0C 0D 0E 0F
      -- -- -- -- -- -- -- --  -- -- -- -- -- -- -- --
0160:                             5B 01 80 F8 FF FF 7F           [......
0170: F8 FF FF 7F 68 72 63 30  00                       ....hrc0.       
```

#### Opcodes

```
  0: 0x0169 [0x5B] LOAD_EXT_SCHEDULER: Load scheduler "hrc0" with entities [EventEntity, EventEntity], work=2374*
  1: 0x0178 [0x00] END_REQSTACK()
```

### Event 65535.26

#### Metadata

| Field        | Value    |
|--------------|----------|
| Entrypoint   | 0x0179   |
| Data Size    | 14 bytes |
| Instructions | 2        |

```
      00 01 02 03 04 05 06 07  08 09 0A 0B 0C 0D 0E 0F
      -- -- -- -- -- -- -- --  -- -- -- -- -- -- -- --
0170:                             53 F8 FF FF 7F F8 FF           S......
0180: FF 7F 68 72 63 30 00                              ..hrc0.         
```

#### Opcodes

```
  0: 0x0179 [0x53] WAIT_SCHEDULER_TASK: Wait for scheduler "hrc0" with entities [EventEntity, EventEntity]
  1: 0x0186 [0x00] END_REQSTACK()
```

### Event 65535.27

#### Metadata

| Field        | Value    |
|--------------|----------|
| Entrypoint   | 0x0187   |
| Data Size    | 16 bytes |
| Instructions | 2        |

```
      00 01 02 03 04 05 06 07  08 09 0A 0B 0C 0D 0E 0F
      -- -- -- -- -- -- -- --  -- -- -- -- -- -- -- --
0180:                      5B  02 80 F8 FF FF 7F F8 FF         [........
0190: FF 7F 75 72 61 30 00                              ..ura0.         
```

#### Opcodes

```
  0: 0x0187 [0x5B] LOAD_EXT_SCHEDULER: Load scheduler "ura0" with entities [EventEntity, EventEntity], work=2376*
  1: 0x0196 [0x00] END_REQSTACK()
```

### Event 65535.28

#### Metadata

| Field        | Value    |
|--------------|----------|
| Entrypoint   | 0x0197   |
| Data Size    | 14 bytes |
| Instructions | 2        |

```
      00 01 02 03 04 05 06 07  08 09 0A 0B 0C 0D 0E 0F
      -- -- -- -- -- -- -- --  -- -- -- -- -- -- -- --
0190:                      53  F8 FF FF 7F F8 FF FF 7F         S........
01A0: 75 72 61 30 00                                    ura0.           
```

#### Opcodes

```
  0: 0x0197 [0x53] WAIT_SCHEDULER_TASK: Wait for scheduler "ura0" with entities [EventEntity, EventEntity]
  1: 0x01A4 [0x00] END_REQSTACK()
```

### Event 65535.29

#### Metadata

| Field        | Value    |
|--------------|----------|
| Entrypoint   | 0x01A5   |
| Data Size    | 16 bytes |
| Instructions | 2        |

```
      00 01 02 03 04 05 06 07  08 09 0A 0B 0C 0D 0E 0F
      -- -- -- -- -- -- -- --  -- -- -- -- -- -- -- --
01A0:                5B 02 80  F8 FF FF 7F F8 FF FF 7F       [..........
01B0: 75 72 61 31 00                                    ura1.           
```

#### Opcodes

```
  0: 0x01A5 [0x5B] LOAD_EXT_SCHEDULER: Load scheduler "ura1" with entities [EventEntity, EventEntity], work=2376*
  1: 0x01B4 [0x00] END_REQSTACK()
```

### Event 65535.30

#### Metadata

| Field        | Value    |
|--------------|----------|
| Entrypoint   | 0x01B5   |
| Data Size    | 14 bytes |
| Instructions | 2        |

```
      00 01 02 03 04 05 06 07  08 09 0A 0B 0C 0D 0E 0F
      -- -- -- -- -- -- -- --  -- -- -- -- -- -- -- --
01B0:                53 F8 FF  FF 7F F8 FF FF 7F 75 72       S........ur
01C0: 61 31 00                                          a1.             
```

#### Opcodes

```
  0: 0x01B5 [0x53] WAIT_SCHEDULER_TASK: Wait for scheduler "ura1" with entities [EventEntity, EventEntity]
  1: 0x01C2 [0x00] END_REQSTACK()
```

### Event 65535.31

#### Metadata

| Field        | Value    |
|--------------|----------|
| Entrypoint   | 0x01C3   |
| Data Size    | 16 bytes |
| Instructions | 2        |

```
      00 01 02 03 04 05 06 07  08 09 0A 0B 0C 0D 0E 0F
      -- -- -- -- -- -- -- --  -- -- -- -- -- -- -- --
01C0:          5B 03 80 F8 FF  FF 7F F8 FF FF 7F 64 72     [..........dr
01D0: 61 30 00                                          a0.             
```

#### Opcodes

```
  0: 0x01C3 [0x5B] LOAD_EXT_SCHEDULER: Load scheduler "dra0" with entities [EventEntity, EventEntity], work=1453*
  1: 0x01D2 [0x00] END_REQSTACK()
```

### Event 65535.32

#### Metadata

| Field        | Value    |
|--------------|----------|
| Entrypoint   | 0x01D3   |
| Data Size    | 14 bytes |
| Instructions | 2        |

```
      00 01 02 03 04 05 06 07  08 09 0A 0B 0C 0D 0E 0F
      -- -- -- -- -- -- -- --  -- -- -- -- -- -- -- --
01D0:          53 F8 FF FF 7F  F8 FF FF 7F 64 72 61 30     S........dra0
01E0: 00                                                .               
```

#### Opcodes

```
  0: 0x01D3 [0x53] WAIT_SCHEDULER_TASK: Wait for scheduler "dra0" with entities [EventEntity, EventEntity]
  1: 0x01E0 [0x00] END_REQSTACK()
```

### Event 65535.33

#### Metadata

| Field        | Value    |
|--------------|----------|
| Entrypoint   | 0x01E1   |
| Data Size    | 16 bytes |
| Instructions | 2        |

```
      00 01 02 03 04 05 06 07  08 09 0A 0B 0C 0D 0E 0F
      -- -- -- -- -- -- -- --  -- -- -- -- -- -- -- --
01E0:    5B 03 80 F8 FF FF 7F  F8 FF FF 7F 64 72 61 31   [..........dra1
01F0: 00                                                .               
```

#### Opcodes

```
  0: 0x01E1 [0x5B] LOAD_EXT_SCHEDULER: Load scheduler "dra1" with entities [EventEntity, EventEntity], work=1453*
  1: 0x01F0 [0x00] END_REQSTACK()
```

### Event 65535.34

#### Metadata

| Field        | Value    |
|--------------|----------|
| Entrypoint   | 0x01F1   |
| Data Size    | 14 bytes |
| Instructions | 2        |

```
      00 01 02 03 04 05 06 07  08 09 0A 0B 0C 0D 0E 0F
      -- -- -- -- -- -- -- --  -- -- -- -- -- -- -- --
01F0:    53 F8 FF FF 7F F8 FF  FF 7F 64 72 61 31 00      S........dra1. 
```

#### Opcodes

```
  0: 0x01F1 [0x53] WAIT_SCHEDULER_TASK: Wait for scheduler "dra1" with entities [EventEntity, EventEntity]
  1: 0x01FE [0x00] END_REQSTACK()
```

### Event 65535.35

#### Metadata

| Field        | Value    |
|--------------|----------|
| Entrypoint   | 0x01FF   |
| Data Size    | 16 bytes |
| Instructions | 2        |

```
      00 01 02 03 04 05 06 07  08 09 0A 0B 0C 0D 0E 0F
      -- -- -- -- -- -- -- --  -- -- -- -- -- -- -- --
01F0:                                               5B                 [
0200: 03 80 F8 FF FF 7F F8 FF  FF 7F 64 72 61 32 00     ..........dra2. 
```

#### Opcodes

```
  0: 0x01FF [0x5B] LOAD_EXT_SCHEDULER: Load scheduler "dra2" with entities [EventEntity, EventEntity], work=1453*
  1: 0x020E [0x00] END_REQSTACK()
```

### Event 65535.36

#### Metadata

| Field        | Value    |
|--------------|----------|
| Entrypoint   | 0x020F   |
| Data Size    | 14 bytes |
| Instructions | 2        |

```
      00 01 02 03 04 05 06 07  08 09 0A 0B 0C 0D 0E 0F
      -- -- -- -- -- -- -- --  -- -- -- -- -- -- -- --
0200:                                               53                 S
0210: F8 FF FF 7F F8 FF FF 7F  64 72 61 32 00           ........dra2.   
```

#### Opcodes

```
  0: 0x020F [0x53] WAIT_SCHEDULER_TASK: Wait for scheduler "dra2" with entities [EventEntity, EventEntity]
  1: 0x021C [0x00] END_REQSTACK()
```

### Event 65535.37

#### Metadata

| Field        | Value    |
|--------------|----------|
| Entrypoint   | 0x021D   |
| Data Size    | 16 bytes |
| Instructions | 2        |

```
      00 01 02 03 04 05 06 07  08 09 0A 0B 0C 0D 0E 0F
      -- -- -- -- -- -- -- --  -- -- -- -- -- -- -- --
0210:                                         5B 04 80               [..
0220: F8 FF FF 7F F8 FF FF 7F  6B 61 6D 30 00           ........kam0.   
```

#### Opcodes

```
  0: 0x021D [0x5B] LOAD_EXT_SCHEDULER: Load scheduler "kam0" with entities [EventEntity, EventEntity], work=2331*
  1: 0x022C [0x00] END_REQSTACK()
```

### Event 65535.38

#### Metadata

| Field        | Value    |
|--------------|----------|
| Entrypoint   | 0x022D   |
| Data Size    | 14 bytes |
| Instructions | 2        |

```
      00 01 02 03 04 05 06 07  08 09 0A 0B 0C 0D 0E 0F
      -- -- -- -- -- -- -- --  -- -- -- -- -- -- -- --
0220:                                         53 F8 FF               S..
0230: FF 7F F8 FF FF 7F 6B 61  6D 30 00                 ......kam0.     
```

#### Opcodes

```
  0: 0x022D [0x53] WAIT_SCHEDULER_TASK: Wait for scheduler "kam0" with entities [EventEntity, EventEntity]
  1: 0x023A [0x00] END_REQSTACK()
```

### Event 65535.39

#### Metadata

| Field        | Value    |
|--------------|----------|
| Entrypoint   | 0x023B   |
| Data Size    | 16 bytes |
| Instructions | 2        |

```
      00 01 02 03 04 05 06 07  08 09 0A 0B 0C 0D 0E 0F
      -- -- -- -- -- -- -- --  -- -- -- -- -- -- -- --
0230:                                   5B 04 80 F8 FF             [....
0240: FF 7F F8 FF FF 7F 66 72  69 30 00                 ......fri0.     
```

#### Opcodes

```
  0: 0x023B [0x5B] LOAD_EXT_SCHEDULER: Load scheduler "fri0" with entities [EventEntity, EventEntity], work=2331*
  1: 0x024A [0x00] END_REQSTACK()
```

### Event 65535.40

#### Metadata

| Field        | Value    |
|--------------|----------|
| Entrypoint   | 0x024B   |
| Data Size    | 14 bytes |
| Instructions | 2        |

```
      00 01 02 03 04 05 06 07  08 09 0A 0B 0C 0D 0E 0F
      -- -- -- -- -- -- -- --  -- -- -- -- -- -- -- --
0240:                                   53 F8 FF FF 7F             S....
0250: F8 FF FF 7F 66 72 69 30  00                       ....fri0.       
```

#### Opcodes

```
  0: 0x024B [0x53] WAIT_SCHEDULER_TASK: Wait for scheduler "fri0" with entities [EventEntity, EventEntity]
  1: 0x0258 [0x00] END_REQSTACK()
```

### Event 65535.41

#### Metadata

| Field        | Value    |
|--------------|----------|
| Entrypoint   | 0x0259   |
| Data Size    | 16 bytes |
| Instructions | 2        |

```
      00 01 02 03 04 05 06 07  08 09 0A 0B 0C 0D 0E 0F
      -- -- -- -- -- -- -- --  -- -- -- -- -- -- -- --
0250:                             5B 04 80 F8 FF FF 7F           [......
0260: F8 FF FF 7F 64 77 6E 30  00                       ....dwn0.       
```

#### Opcodes

```
  0: 0x0259 [0x5B] LOAD_EXT_SCHEDULER: Load scheduler "dwn0" with entities [EventEntity, EventEntity], work=2331*
  1: 0x0268 [0x00] END_REQSTACK()
```

### Event 65535.42

#### Metadata

| Field        | Value    |
|--------------|----------|
| Entrypoint   | 0x0269   |
| Data Size    | 14 bytes |
| Instructions | 2        |

```
      00 01 02 03 04 05 06 07  08 09 0A 0B 0C 0D 0E 0F
      -- -- -- -- -- -- -- --  -- -- -- -- -- -- -- --
0260:                             53 F8 FF FF 7F F8 FF           S......
0270: FF 7F 64 77 6E 30 00                              ..dwn0.         
```

#### Opcodes

```
  0: 0x0269 [0x53] WAIT_SCHEDULER_TASK: Wait for scheduler "dwn0" with entities [EventEntity, EventEntity]
  1: 0x0276 [0x00] END_REQSTACK()
```

### Event 65535.43

#### Metadata

| Field        | Value    |
|--------------|----------|
| Entrypoint   | 0x0277   |
| Data Size    | 16 bytes |
| Instructions | 2        |

```
      00 01 02 03 04 05 06 07  08 09 0A 0B 0C 0D 0E 0F
      -- -- -- -- -- -- -- --  -- -- -- -- -- -- -- --
0270:                      5B  05 80 F8 FF FF 7F F8 FF         [........
0280: FF 7F 6B 61 6D 30 00                              ..kam0.         
```

#### Opcodes

```
  0: 0x0277 [0x5B] LOAD_EXT_SCHEDULER: Load scheduler "kam0" with entities [EventEntity, EventEntity], work=2333*
  1: 0x0286 [0x00] END_REQSTACK()
```

### Event 65535.44

#### Metadata

| Field        | Value    |
|--------------|----------|
| Entrypoint   | 0x0287   |
| Data Size    | 14 bytes |
| Instructions | 2        |

```
      00 01 02 03 04 05 06 07  08 09 0A 0B 0C 0D 0E 0F
      -- -- -- -- -- -- -- --  -- -- -- -- -- -- -- --
0280:                      53  F8 FF FF 7F F8 FF FF 7F         S........
0290: 6B 61 6D 30 00                                    kam0.           
```

#### Opcodes

```
  0: 0x0287 [0x53] WAIT_SCHEDULER_TASK: Wait for scheduler "kam0" with entities [EventEntity, EventEntity]
  1: 0x0294 [0x00] END_REQSTACK()
```

### Event 65535.45

#### Metadata

| Field        | Value    |
|--------------|----------|
| Entrypoint   | 0x0295   |
| Data Size    | 16 bytes |
| Instructions | 2        |

```
      00 01 02 03 04 05 06 07  08 09 0A 0B 0C 0D 0E 0F
      -- -- -- -- -- -- -- --  -- -- -- -- -- -- -- --
0290:                5B 05 80  F8 FF FF 7F F8 FF FF 7F       [..........
02A0: 6E 61 67 30 00                                    nag0.           
```

#### Opcodes

```
  0: 0x0295 [0x5B] LOAD_EXT_SCHEDULER: Load scheduler "nag0" with entities [EventEntity, EventEntity], work=2333*
  1: 0x02A4 [0x00] END_REQSTACK()
```

### Event 65535.46

#### Metadata

| Field        | Value    |
|--------------|----------|
| Entrypoint   | 0x02A5   |
| Data Size    | 14 bytes |
| Instructions | 2        |

```
      00 01 02 03 04 05 06 07  08 09 0A 0B 0C 0D 0E 0F
      -- -- -- -- -- -- -- --  -- -- -- -- -- -- -- --
02A0:                53 F8 FF  FF 7F F8 FF FF 7F 6E 61       S........na
02B0: 67 30 00                                          g0.             
```

#### Opcodes

```
  0: 0x02A5 [0x53] WAIT_SCHEDULER_TASK: Wait for scheduler "nag0" with entities [EventEntity, EventEntity]
  1: 0x02B2 [0x00] END_REQSTACK()
```

### Event 65535.47

#### Metadata

| Field        | Value    |
|--------------|----------|
| Entrypoint   | 0x02B3   |
| Data Size    | 16 bytes |
| Instructions | 2        |

```
      00 01 02 03 04 05 06 07  08 09 0A 0B 0C 0D 0E 0F
      -- -- -- -- -- -- -- --  -- -- -- -- -- -- -- --
02B0:          5B 05 80 F8 FF  FF 7F F8 FF FF 7F 6E 61     [..........na
02C0: 67 31 00                                          g1.             
```

#### Opcodes

```
  0: 0x02B3 [0x5B] LOAD_EXT_SCHEDULER: Load scheduler "nag1" with entities [EventEntity, EventEntity], work=2333*
  1: 0x02C2 [0x00] END_REQSTACK()
```

### Event 65535.48

#### Metadata

| Field        | Value    |
|--------------|----------|
| Entrypoint   | 0x02C3   |
| Data Size    | 14 bytes |
| Instructions | 2        |

```
      00 01 02 03 04 05 06 07  08 09 0A 0B 0C 0D 0E 0F
      -- -- -- -- -- -- -- --  -- -- -- -- -- -- -- --
02C0:          53 F8 FF FF 7F  F8 FF FF 7F 6E 61 67 31     S........nag1
02D0: 00                                                .               
```

#### Opcodes

```
  0: 0x02C3 [0x53] WAIT_SCHEDULER_TASK: Wait for scheduler "nag1" with entities [EventEntity, EventEntity]
  1: 0x02D0 [0x00] END_REQSTACK()
```

### Event 65535.49

#### Metadata

| Field        | Value    |
|--------------|----------|
| Entrypoint   | 0x02D1   |
| Data Size    | 16 bytes |
| Instructions | 2        |

```
      00 01 02 03 04 05 06 07  08 09 0A 0B 0C 0D 0E 0F
      -- -- -- -- -- -- -- --  -- -- -- -- -- -- -- --
02D0:    5B 05 80 F8 FF FF 7F  F8 FF FF 7F 6E 61 67 32   [..........nag2
02E0: 00                                                .               
```

#### Opcodes

```
  0: 0x02D1 [0x5B] LOAD_EXT_SCHEDULER: Load scheduler "nag2" with entities [EventEntity, EventEntity], work=2333*
  1: 0x02E0 [0x00] END_REQSTACK()
```

### Event 65535.50

#### Metadata

| Field        | Value    |
|--------------|----------|
| Entrypoint   | 0x02E1   |
| Data Size    | 14 bytes |
| Instructions | 2        |

```
      00 01 02 03 04 05 06 07  08 09 0A 0B 0C 0D 0E 0F
      -- -- -- -- -- -- -- --  -- -- -- -- -- -- -- --
02E0:    53 F8 FF FF 7F F8 FF  FF 7F 6E 61 67 32 00      S........nag2. 
```

#### Opcodes

```
  0: 0x02E1 [0x53] WAIT_SCHEDULER_TASK: Wait for scheduler "nag2" with entities [EventEntity, EventEntity]
  1: 0x02EE [0x00] END_REQSTACK()
```

### Event 225

#### Metadata

| Field        | Value   |
|--------------|---------|
| Entrypoint   | 0x02EF  |
| Data Size    | 7 bytes |
| Instructions | 2       |

```
      00 01 02 03 04 05 06 07  08 09 0A 0B 0C 0D 0E 0F
      -- -- -- -- -- -- -- --  -- -- -- -- -- -- -- --
02E0:                                               92                 .
02F0: 01 F8 FF FF 7F 00                                 ......          
```

#### Opcodes

```
  0: 0x02EF [0x92] EventEntity->Render.Flags3 ^= 0x01
  1: 0x02F5 [0x00] END_REQSTACK()
```

### Event 65535.51

#### Metadata

| Field        | Value    |
|--------------|----------|
| Entrypoint   | 0x02F6   |
| Data Size    | 65 bytes |
| Instructions | 11       |

```
      00 01 02 03 04 05 06 07  08 09 0A 0B 0C 0D 0E 0F
      -- -- -- -- -- -- -- --  -- -- -- -- -- -- -- --
02F0:                   03 00  00 06 80 02 00 00 06 80        ..........
0300: 00 36 03 1C 07 80 C4 01  06 80 F8 FF FF 7F FE 62  .6.............b
0310: 06 01 1C 08 80 C4 01 06  80 F8 FF FF 7F FE 62 06  ..............b.
0320: 01 1C 08 80 C4 01 06 80  F8 FF FF 7F FE 62 06 01  .............b..
0330: 1C 08 80 01 FB 02 00                              .......         
```

#### Opcodes

```
  0: 0x02F6 [0x03] ExtData[1]->WorkLocal[0] = 0*
  1: 0x02FB [0x02] IF !(ExtData[1]->WorkLocal[0] == 0*) GOTO 0x0336
  2: 0x0303 [0x1C] WAIT(90* ticks)
  3: 0x0306 [0xC4] SCHEDULE_MAGIC_CASTING_ALT (arg=17): EventEntity casts magic 0* on Kupofried (ID: 17195774/0x010662FE)
  4: 0x0312 [0x1C] WAIT(110* ticks)
  5: 0x0315 [0xC4] SCHEDULE_MAGIC_CASTING_ALT (arg=17): EventEntity casts magic 0* on Kupofried (ID: 17195774/0x010662FE)
  6: 0x0321 [0x1C] WAIT(110* ticks)
  7: 0x0324 [0xC4] SCHEDULE_MAGIC_CASTING_ALT (arg=17): EventEntity casts magic 0* on Kupofried (ID: 17195774/0x010662FE)
  8: 0x0330 [0x1C] WAIT(110* ticks)
  9: 0x0333 [0x01] GOTO 0x02FB
 10: 0x0336 [0x00] END_REQSTACK()
```

### Event 65535.52

#### Metadata

| Field        | Value   |
|--------------|---------|
| Entrypoint   | 0x0337  |
| Data Size    | 6 bytes |
| Instructions | 2       |

```
      00 01 02 03 04 05 06 07  08 09 0A 0B 0C 0D 0E 0F
      -- -- -- -- -- -- -- --  -- -- -- -- -- -- -- --
0330:                      03  00 00 09 80 00                  ......   
```

#### Opcodes

```
  0: 0x0337 [0x03] ExtData[1]->WorkLocal[0] = 1*
  1: 0x033C [0x00] END_REQSTACK()
```

### Event 226

#### Metadata

| Field        | Value   |
|--------------|---------|
| Entrypoint   | 0x033D  |
| Data Size    | 7 bytes |
| Instructions | 2       |

```
      00 01 02 03 04 05 06 07  08 09 0A 0B 0C 0D 0E 0F
      -- -- -- -- -- -- -- --  -- -- -- -- -- -- -- --
0330:                                         92 01 F8               ...
0340: FF FF 7F 00                                       ....            
```

#### Opcodes

```
  0: 0x033D [0x92] EventEntity->Render.Flags3 ^= 0x01
  1: 0x0343 [0x00] END_REQSTACK()
```

### Event 227

#### Metadata

| Field        | Value   |
|--------------|---------|
| Entrypoint   | 0x0344  |
| Data Size    | 7 bytes |
| Instructions | 2       |

```
      00 01 02 03 04 05 06 07  08 09 0A 0B 0C 0D 0E 0F
      -- -- -- -- -- -- -- --  -- -- -- -- -- -- -- --
0340:             92 01 F8 FF  FF 7F 00                     .......     
```

#### Opcodes

```
  0: 0x0344 [0x92] EventEntity->Render.Flags3 ^= 0x01
  1: 0x034A [0x00] END_REQSTACK()
```

### Event 65535.53

#### Metadata

| Field        | Value   |
|--------------|---------|
| Entrypoint   | 0x034B  |
| Data Size    | 7 bytes |
| Instructions | 3       |

```
      00 01 02 03 04 05 06 07  08 09 0A 0B 0C 0D 0E 0F
      -- -- -- -- -- -- -- --  -- -- -- -- -- -- -- --
0340:                                   AB 03 AC 01 09             .....
0350: 80 00                                             ..              
```

#### Opcodes

```
  0: 0x034B [0xAB] EventEntity->Render.Flags0 ^= 0x20000 // Toggle bit 17
  1: 0x034D [0xAC] EventEntity->StatusEvent = 1*
  2: 0x0351 [0x00] END_REQSTACK()
```

### Event 65535.54

#### Metadata

| Field        | Value   |
|--------------|---------|
| Entrypoint   | 0x0352  |
| Data Size    | 7 bytes |
| Instructions | 3       |

```
      00 01 02 03 04 05 06 07  08 09 0A 0B 0C 0D 0E 0F
      -- -- -- -- -- -- -- --  -- -- -- -- -- -- -- --
0350:       AC 01 06 80 AB 04  00                         .......       
```

#### Opcodes

```
  0: 0x0352 [0xAC] EventEntity->StatusEvent = 0*
  1: 0x0356 [0xAB] EventEntity->Render.Flags0 |= 0x40000 // Set bit 18
  2: 0x0358 [0x00] END_REQSTACK()
```

### Event 65535.55

#### Metadata

| Field        | Value    |
|--------------|----------|
| Entrypoint   | 0x0359   |
| Data Size    | 44 bytes |
| Instructions | 10       |

```
      00 01 02 03 04 05 06 07  08 09 0A 0B 0C 0D 0E 0F
      -- -- -- -- -- -- -- --  -- -- -- -- -- -- -- --
0350:                             32 0A 80 5A 00 0B 80           2..Z...
0360: 0C 80 0D 80 5A 01 5A 00  0E 80 0F 80 10 80 5A 01  ....Z.Z.......Z.
0370: 5A 00 11 80 12 80 13 80  5A 01 5A 00 14 80 15 80  Z.......Z.Z.....
0380: 16 80 5A 01 00                                    ..Z..           
```

#### Opcodes

```
  0: 0x0359 [0x32] ExtData[1]->MainSpeed = 13* * 0.1
  1: 0x035C [0x5A] UPDATE_EVENT_POSITION: Set EventEntity MovePosition to X=244.008*, Z=-349.046*, Y=20.434*
  2: 0x0364 [0x5A] UPDATE_EVENT_POSITION: Move EventEntity incrementally towards MovePosition
  3: 0x0366 [0x5A] UPDATE_EVENT_POSITION: Set EventEntity MovePosition to X=243.430*, Z=-344.084*, Y=20.681*
  4: 0x036E [0x5A] UPDATE_EVENT_POSITION: Move EventEntity incrementally towards MovePosition
  5: 0x0370 [0x5A] UPDATE_EVENT_POSITION: Set EventEntity MovePosition to X=242.148*, Z=-336.855*, Y=20.767*
  6: 0x0378 [0x5A] UPDATE_EVENT_POSITION: Move EventEntity incrementally towards MovePosition
  7: 0x037A [0x5A] UPDATE_EVENT_POSITION: Set EventEntity MovePosition to X=240.423*, Z=-329.870*, Y=20.439*
  8: 0x0382 [0x5A] UPDATE_EVENT_POSITION: Move EventEntity incrementally towards MovePosition
  9: 0x0384 [0x00] END_REQSTACK()
```
