# 17195669 - Carbuncle

## Common Data

| Field            | Value                       |
|------------------|-----------------------------|
| Zone             | La Theine Plateau (ID: 102) |
| Block Size       | 844 bytes                   |
| Total Events     | 37                          |
| References Count | 37                          |

## List of Events

| Event ID                   | Entrypoint   |   Size |   Instructions |
|----------------------------|--------------|--------|----------------|
| [65535](#event-65535)      | 0x0000       |      1 |              1 |
| [205](#event-205)          | 0x0001       |     10 |              2 |
| [207](#event-207)          | 0x000B       |     10 |              2 |
| [206](#event-206)          | 0x0015       |     10 |              2 |
| [208](#event-208)          | 0x001F       |     10 |              2 |
| [65535.1](#event-655351)   | 0x0029       |     16 |              2 |
| [65535.2](#event-655352)   | 0x0039       |     14 |              2 |
| [65535.3](#event-655353)   | 0x0047       |     16 |              2 |
| [65535.4](#event-655354)   | 0x0057       |     14 |              2 |
| [65535.5](#event-655355)   | 0x0065       |     16 |              2 |
| [65535.6](#event-655356)   | 0x0075       |     14 |              2 |
| [65535.7](#event-655357)   | 0x0083       |     16 |              2 |
| [65535.8](#event-655358)   | 0x0093       |     14 |              2 |
| [65535.9](#event-655359)   | 0x00A1       |     16 |              2 |
| [65535.10](#event-6553510) | 0x00B1       |     14 |              2 |
| [65535.11](#event-6553511) | 0x00BF       |     16 |              2 |
| [65535.12](#event-6553512) | 0x00CF       |     14 |              2 |
| [65535.13](#event-6553513) | 0x00DD       |     16 |              2 |
| [65535.14](#event-6553514) | 0x00ED       |     14 |              2 |
| [65535.15](#event-6553515) | 0x00FB       |     16 |              2 |
| [65535.16](#event-6553516) | 0x010B       |     14 |              2 |
| [65535.17](#event-6553517) | 0x0119       |     16 |              2 |
| [65535.18](#event-6553518) | 0x0129       |     14 |              2 |
| [203](#event-203)          | 0x0137       |      7 |              2 |
| [65535.19](#event-6553519) | 0x013E       |     19 |              3 |
| [65535.20](#event-6553520) | 0x0151       |     14 |              2 |
| [65535.21](#event-6553521) | 0x015F       |     73 |              7 |
| [65535.22](#event-6553522) | 0x01A8       |     15 |              5 |
| [65535.23](#event-6553523) | 0x01B7       |     15 |              5 |
| [65535.24](#event-6553524) | 0x01C6       |     15 |              5 |
| [65535.25](#event-6553525) | 0x01D5       |     15 |              5 |
| [65535.26](#event-6553526) | 0x01E4       |     15 |              5 |
| [65535.27](#event-6553527) | 0x01F3       |      8 |              2 |
| [19](#event-19)            | 0x01FB       |      1 |              1 |
| [65535.28](#event-6553528) | 0x01FC       |     14 |              4 |
| [65535.29](#event-6553529) | 0x020A       |      5 |              2 |
| [65535.30](#event-6553530) | 0x020F       |      5 |              2 |

## DAT References (imed_data)

|   Index | Hex Value   |   Dec Value |
|---------|-------------|-------------|
|       0 | 0xFFFD40E7  |  4294787303 |
|       1 | 0x3E91E     |      256286 |
|       2 | 0x2206      |        8710 |
|       3 | 0x0398      |         920 |
|       4 | 0xFFFD3C3C  |  4294786108 |
|       5 | 0x3F21D     |      258589 |
|       6 | 0x1FF0      |        8176 |
|       7 | 0x02FD      |         765 |
|       8 | 0x0198      |         408 |
|       9 | 0xFFFD4213  |  4294787603 |
|      10 | 0x3E177     |      254327 |
|      11 | 0x1EA5      |        7845 |
|      12 | 0x0263      |         611 |
|      13 | 0x0000      |           0 |
|      14 | 0x0001      |           1 |
|      15 | 0x00AC      |         172 |
|      16 | 0x00A0      |         160 |
|      17 | 0x00C8      |         200 |
|      18 | 0x0050      |          80 |
|      19 | 0x000D      |          13 |
|      20 | 0xFFFD3E07  |  4294786567 |
|      21 | 0x3E911     |      256273 |
|      22 | 0x21CE      |        8654 |
|      23 | 0xFFFD457A  |  4294788474 |
|      24 | 0x3DB58     |      252760 |
|      25 | 0x22C4      |        8900 |
|      26 | 0xFFFD4759  |  4294788953 |
|      27 | 0x3D7BA     |      251834 |
|      28 | 0x22CD      |        8909 |
|      29 | 0xFFFD3DF0  |  4294786544 |
|      30 | 0x3E08C     |      254092 |
|      31 | 0x222B      |        8747 |
|      32 | 0xFFFD27AB  |  4294780843 |
|      33 | 0x3FE3C     |      261692 |
|      34 | 0x1E78      |        7800 |
|      35 | 0x0317      |         791 |
|      36 | 0x03D2      |         978 |

## Events

### Event 65535

#### Metadata

| Field        | Value   |
|--------------|---------|
| Entrypoint   | 0x0000  |
| Data Size    | 1 bytes |
| Instructions | 1       |

```
      00 01 02 03 04 05 06 07  08 09 0A 0B 0C 0D 0E 0F
      -- -- -- -- -- -- -- --  -- -- -- -- -- -- -- --
0000: 00                                                .               
```

#### Opcodes

```
  0: 0x0000 [0x00] END_REQSTACK()
```

### Event 205

#### Metadata

| Field        | Value    |
|--------------|----------|
| Entrypoint   | 0x0001   |
| Data Size    | 10 bytes |
| Instructions | 2        |

```
      00 01 02 03 04 05 06 07  08 09 0A 0B 0C 0D 0E 0F
      -- -- -- -- -- -- -- --  -- -- -- -- -- -- -- --
0000:    37 00 80 01 80 02 80  03 80 00                  7.........     
```

#### Opcodes

```
  0: 0x0001 [0x37] UPDATE_EVENT_POSITION_AND_DIR: x=-179.993*, z=256.286*, y=8.710*, direction=80.9°*
  1: 0x000A [0x00] END_REQSTACK()
```

### Event 207

#### Metadata

| Field        | Value    |
|--------------|----------|
| Entrypoint   | 0x000B   |
| Data Size    | 10 bytes |
| Instructions | 2        |

```
      00 01 02 03 04 05 06 07  08 09 0A 0B 0C 0D 0E 0F
      -- -- -- -- -- -- -- --  -- -- -- -- -- -- -- --
0000:                                   37 00 80 01 80             7....
0010: 02 80 03 80 00                                    .....           
```

#### Opcodes

```
  0: 0x000B [0x37] UPDATE_EVENT_POSITION_AND_DIR: x=-179.993*, z=256.286*, y=8.710*, direction=80.9°*
  1: 0x0014 [0x00] END_REQSTACK()
```

### Event 206

#### Metadata

| Field        | Value    |
|--------------|----------|
| Entrypoint   | 0x0015   |
| Data Size    | 10 bytes |
| Instructions | 2        |

```
      00 01 02 03 04 05 06 07  08 09 0A 0B 0C 0D 0E 0F
      -- -- -- -- -- -- -- --  -- -- -- -- -- -- -- --
0010:                37 04 80  05 80 06 80 07 80 00          7......... 
```

#### Opcodes

```
  0: 0x0015 [0x37] UPDATE_EVENT_POSITION_AND_DIR: x=-181.188*, z=258.589*, y=8.176*, direction=67.2°*
  1: 0x001E [0x00] END_REQSTACK()
```

### Event 208

#### Metadata

| Field        | Value    |
|--------------|----------|
| Entrypoint   | 0x001F   |
| Data Size    | 10 bytes |
| Instructions | 2        |

```
      00 01 02 03 04 05 06 07  08 09 0A 0B 0C 0D 0E 0F
      -- -- -- -- -- -- -- --  -- -- -- -- -- -- -- --
0010:                                               37                 7
0020: 04 80 05 80 06 80 07 80  00                       .........       
```

#### Opcodes

```
  0: 0x001F [0x37] UPDATE_EVENT_POSITION_AND_DIR: x=-181.188*, z=258.589*, y=8.176*, direction=67.2°*
  1: 0x0028 [0x00] END_REQSTACK()
```

### Event 65535.1

#### Metadata

| Field        | Value    |
|--------------|----------|
| Entrypoint   | 0x0029   |
| Data Size    | 16 bytes |
| Instructions | 2        |

```
      00 01 02 03 04 05 06 07  08 09 0A 0B 0C 0D 0E 0F
      -- -- -- -- -- -- -- --  -- -- -- -- -- -- -- --
0020:                             5B 08 80 F8 FF FF 7F           [......
0030: F8 FF FF 7F 6B 72 73 30  00                       ....krs0.       
```

#### Opcodes

```
  0: 0x0029 [0x5B] LOAD_EXT_SCHEDULER: Load scheduler "krs0" with entities [EventEntity, EventEntity], work=408*
  1: 0x0038 [0x00] END_REQSTACK()
```

### Event 65535.2

#### Metadata

| Field        | Value    |
|--------------|----------|
| Entrypoint   | 0x0039   |
| Data Size    | 14 bytes |
| Instructions | 2        |

```
      00 01 02 03 04 05 06 07  08 09 0A 0B 0C 0D 0E 0F
      -- -- -- -- -- -- -- --  -- -- -- -- -- -- -- --
0030:                             53 F8 FF FF 7F F8 FF           S......
0040: FF 7F 6B 72 73 30 00                              ..krs0.         
```

#### Opcodes

```
  0: 0x0039 [0x53] WAIT_SCHEDULER_TASK: Wait for scheduler "krs0" with entities [EventEntity, EventEntity]
  1: 0x0046 [0x00] END_REQSTACK()
```

### Event 65535.3

#### Metadata

| Field        | Value    |
|--------------|----------|
| Entrypoint   | 0x0047   |
| Data Size    | 16 bytes |
| Instructions | 2        |

```
      00 01 02 03 04 05 06 07  08 09 0A 0B 0C 0D 0E 0F
      -- -- -- -- -- -- -- --  -- -- -- -- -- -- -- --
0040:                      5B  08 80 F8 FF FF 7F F8 FF         [........
0050: FF 7F 70 6F 70 30 00                              ..pop0.         
```

#### Opcodes

```
  0: 0x0047 [0x5B] LOAD_EXT_SCHEDULER: Load scheduler "pop0" with entities [EventEntity, EventEntity], work=408*
  1: 0x0056 [0x00] END_REQSTACK()
```

### Event 65535.4

#### Metadata

| Field        | Value    |
|--------------|----------|
| Entrypoint   | 0x0057   |
| Data Size    | 14 bytes |
| Instructions | 2        |

```
      00 01 02 03 04 05 06 07  08 09 0A 0B 0C 0D 0E 0F
      -- -- -- -- -- -- -- --  -- -- -- -- -- -- -- --
0050:                      53  F8 FF FF 7F F8 FF FF 7F         S........
0060: 70 6F 70 30 00                                    pop0.           
```

#### Opcodes

```
  0: 0x0057 [0x53] WAIT_SCHEDULER_TASK: Wait for scheduler "pop0" with entities [EventEntity, EventEntity]
  1: 0x0064 [0x00] END_REQSTACK()
```

### Event 65535.5

#### Metadata

| Field        | Value    |
|--------------|----------|
| Entrypoint   | 0x0065   |
| Data Size    | 16 bytes |
| Instructions | 2        |

```
      00 01 02 03 04 05 06 07  08 09 0A 0B 0C 0D 0E 0F
      -- -- -- -- -- -- -- --  -- -- -- -- -- -- -- --
0060:                5B 08 80  F8 FF FF 7F F8 FF FF 7F       [..........
0070: 6F 64 30 30 00                                    od00.           
```

#### Opcodes

```
  0: 0x0065 [0x5B] LOAD_EXT_SCHEDULER: Load scheduler "od00" with entities [EventEntity, EventEntity], work=408*
  1: 0x0074 [0x00] END_REQSTACK()
```

### Event 65535.6

#### Metadata

| Field        | Value    |
|--------------|----------|
| Entrypoint   | 0x0075   |
| Data Size    | 14 bytes |
| Instructions | 2        |

```
      00 01 02 03 04 05 06 07  08 09 0A 0B 0C 0D 0E 0F
      -- -- -- -- -- -- -- --  -- -- -- -- -- -- -- --
0070:                53 F8 FF  FF 7F F8 FF FF 7F 6F 64       S........od
0080: 30 30 00                                          00.             
```

#### Opcodes

```
  0: 0x0075 [0x53] WAIT_SCHEDULER_TASK: Wait for scheduler "od00" with entities [EventEntity, EventEntity]
  1: 0x0082 [0x00] END_REQSTACK()
```

### Event 65535.7

#### Metadata

| Field        | Value    |
|--------------|----------|
| Entrypoint   | 0x0083   |
| Data Size    | 16 bytes |
| Instructions | 2        |

```
      00 01 02 03 04 05 06 07  08 09 0A 0B 0C 0D 0E 0F
      -- -- -- -- -- -- -- --  -- -- -- -- -- -- -- --
0080:          5B 08 80 F8 FF  FF 7F F8 FF FF 7F 6F 64     [..........od
0090: 30 31 00                                          01.             
```

#### Opcodes

```
  0: 0x0083 [0x5B] LOAD_EXT_SCHEDULER: Load scheduler "od01" with entities [EventEntity, EventEntity], work=408*
  1: 0x0092 [0x00] END_REQSTACK()
```

### Event 65535.8

#### Metadata

| Field        | Value    |
|--------------|----------|
| Entrypoint   | 0x0093   |
| Data Size    | 14 bytes |
| Instructions | 2        |

```
      00 01 02 03 04 05 06 07  08 09 0A 0B 0C 0D 0E 0F
      -- -- -- -- -- -- -- --  -- -- -- -- -- -- -- --
0090:          53 F8 FF FF 7F  F8 FF FF 7F 6F 64 30 31     S........od01
00A0: 00                                                .               
```

#### Opcodes

```
  0: 0x0093 [0x53] WAIT_SCHEDULER_TASK: Wait for scheduler "od01" with entities [EventEntity, EventEntity]
  1: 0x00A0 [0x00] END_REQSTACK()
```

### Event 65535.9

#### Metadata

| Field        | Value    |
|--------------|----------|
| Entrypoint   | 0x00A1   |
| Data Size    | 16 bytes |
| Instructions | 2        |

```
      00 01 02 03 04 05 06 07  08 09 0A 0B 0C 0D 0E 0F
      -- -- -- -- -- -- -- --  -- -- -- -- -- -- -- --
00A0:    5B 08 80 F8 FF FF 7F  F8 FF FF 7F 70 6F 70 66   [..........popf
00B0: 00                                                .               
```

#### Opcodes

```
  0: 0x00A1 [0x5B] LOAD_EXT_SCHEDULER: Load scheduler "popf" with entities [EventEntity, EventEntity], work=408*
  1: 0x00B0 [0x00] END_REQSTACK()
```

### Event 65535.10

#### Metadata

| Field        | Value    |
|--------------|----------|
| Entrypoint   | 0x00B1   |
| Data Size    | 14 bytes |
| Instructions | 2        |

```
      00 01 02 03 04 05 06 07  08 09 0A 0B 0C 0D 0E 0F
      -- -- -- -- -- -- -- --  -- -- -- -- -- -- -- --
00B0:    53 F8 FF FF 7F F8 FF  FF 7F 70 6F 70 66 00      S........popf. 
```

#### Opcodes

```
  0: 0x00B1 [0x53] WAIT_SCHEDULER_TASK: Wait for scheduler "popf" with entities [EventEntity, EventEntity]
  1: 0x00BE [0x00] END_REQSTACK()
```

### Event 65535.11

#### Metadata

| Field        | Value    |
|--------------|----------|
| Entrypoint   | 0x00BF   |
| Data Size    | 16 bytes |
| Instructions | 2        |

```
      00 01 02 03 04 05 06 07  08 09 0A 0B 0C 0D 0E 0F
      -- -- -- -- -- -- -- --  -- -- -- -- -- -- -- --
00B0:                                               5B                 [
00C0: 08 80 F8 FF FF 7F F8 FF  FF 7F 75 6E 61 30 00     ..........una0. 
```

#### Opcodes

```
  0: 0x00BF [0x5B] LOAD_EXT_SCHEDULER: Load scheduler "una0" with entities [EventEntity, EventEntity], work=408*
  1: 0x00CE [0x00] END_REQSTACK()
```

### Event 65535.12

#### Metadata

| Field        | Value    |
|--------------|----------|
| Entrypoint   | 0x00CF   |
| Data Size    | 14 bytes |
| Instructions | 2        |

```
      00 01 02 03 04 05 06 07  08 09 0A 0B 0C 0D 0E 0F
      -- -- -- -- -- -- -- --  -- -- -- -- -- -- -- --
00C0:                                               53                 S
00D0: F8 FF FF 7F F8 FF FF 7F  75 6E 61 30 00           ........una0.   
```

#### Opcodes

```
  0: 0x00CF [0x53] WAIT_SCHEDULER_TASK: Wait for scheduler "una0" with entities [EventEntity, EventEntity]
  1: 0x00DC [0x00] END_REQSTACK()
```

### Event 65535.13

#### Metadata

| Field        | Value    |
|--------------|----------|
| Entrypoint   | 0x00DD   |
| Data Size    | 16 bytes |
| Instructions | 2        |

```
      00 01 02 03 04 05 06 07  08 09 0A 0B 0C 0D 0E 0F
      -- -- -- -- -- -- -- --  -- -- -- -- -- -- -- --
00D0:                                         5B 08 80               [..
00E0: F8 FF FF 7F F8 FF FF 7F  6C 6B 75 30 00           ........lku0.   
```

#### Opcodes

```
  0: 0x00DD [0x5B] LOAD_EXT_SCHEDULER: Load scheduler "lku0" with entities [EventEntity, EventEntity], work=408*
  1: 0x00EC [0x00] END_REQSTACK()
```

### Event 65535.14

#### Metadata

| Field        | Value    |
|--------------|----------|
| Entrypoint   | 0x00ED   |
| Data Size    | 14 bytes |
| Instructions | 2        |

```
      00 01 02 03 04 05 06 07  08 09 0A 0B 0C 0D 0E 0F
      -- -- -- -- -- -- -- --  -- -- -- -- -- -- -- --
00E0:                                         53 F8 FF               S..
00F0: FF 7F F8 FF FF 7F 6C 6B  75 30 00                 ......lku0.     
```

#### Opcodes

```
  0: 0x00ED [0x53] WAIT_SCHEDULER_TASK: Wait for scheduler "lku0" with entities [EventEntity, EventEntity]
  1: 0x00FA [0x00] END_REQSTACK()
```

### Event 65535.15

#### Metadata

| Field        | Value    |
|--------------|----------|
| Entrypoint   | 0x00FB   |
| Data Size    | 16 bytes |
| Instructions | 2        |

```
      00 01 02 03 04 05 06 07  08 09 0A 0B 0C 0D 0E 0F
      -- -- -- -- -- -- -- --  -- -- -- -- -- -- -- --
00F0:                                   5B 08 80 F8 FF             [....
0100: FF 7F F8 FF FF 7F 6C 6B  75 31 00                 ......lku1.     
```

#### Opcodes

```
  0: 0x00FB [0x5B] LOAD_EXT_SCHEDULER: Load scheduler "lku1" with entities [EventEntity, EventEntity], work=408*
  1: 0x010A [0x00] END_REQSTACK()
```

### Event 65535.16

#### Metadata

| Field        | Value    |
|--------------|----------|
| Entrypoint   | 0x010B   |
| Data Size    | 14 bytes |
| Instructions | 2        |

```
      00 01 02 03 04 05 06 07  08 09 0A 0B 0C 0D 0E 0F
      -- -- -- -- -- -- -- --  -- -- -- -- -- -- -- --
0100:                                   53 F8 FF FF 7F             S....
0110: F8 FF FF 7F 6C 6B 75 31  00                       ....lku1.       
```

#### Opcodes

```
  0: 0x010B [0x53] WAIT_SCHEDULER_TASK: Wait for scheduler "lku1" with entities [EventEntity, EventEntity]
  1: 0x0118 [0x00] END_REQSTACK()
```

### Event 65535.17

#### Metadata

| Field        | Value    |
|--------------|----------|
| Entrypoint   | 0x0119   |
| Data Size    | 16 bytes |
| Instructions | 2        |

```
      00 01 02 03 04 05 06 07  08 09 0A 0B 0C 0D 0E 0F
      -- -- -- -- -- -- -- --  -- -- -- -- -- -- -- --
0110:                             5B 08 80 F8 FF FF 7F           [......
0120: F8 FF FF 7F 70 6F 70 31  00                       ....pop1.       
```

#### Opcodes

```
  0: 0x0119 [0x5B] LOAD_EXT_SCHEDULER: Load scheduler "pop1" with entities [EventEntity, EventEntity], work=408*
  1: 0x0128 [0x00] END_REQSTACK()
```

### Event 65535.18

#### Metadata

| Field        | Value    |
|--------------|----------|
| Entrypoint   | 0x0129   |
| Data Size    | 14 bytes |
| Instructions | 2        |

```
      00 01 02 03 04 05 06 07  08 09 0A 0B 0C 0D 0E 0F
      -- -- -- -- -- -- -- --  -- -- -- -- -- -- -- --
0120:                             53 F8 FF FF 7F F8 FF           S......
0130: FF 7F 70 6F 70 31 00                              ..pop1.         
```

#### Opcodes

```
  0: 0x0129 [0x53] WAIT_SCHEDULER_TASK: Wait for scheduler "pop1" with entities [EventEntity, EventEntity]
  1: 0x0136 [0x00] END_REQSTACK()
```

### Event 203

#### Metadata

| Field        | Value   |
|--------------|---------|
| Entrypoint   | 0x0137  |
| Data Size    | 7 bytes |
| Instructions | 2       |

```
      00 01 02 03 04 05 06 07  08 09 0A 0B 0C 0D 0E 0F
      -- -- -- -- -- -- -- --  -- -- -- -- -- -- -- --
0130:                      92  01 F8 FF FF 7F 00               .......  
```

#### Opcodes

```
  0: 0x0137 [0x92] EventEntity->Render.Flags3 ^= 0x01
  1: 0x013D [0x00] END_REQSTACK()
```

### Event 65535.19

#### Metadata

| Field        | Value    |
|--------------|----------|
| Entrypoint   | 0x013E   |
| Data Size    | 19 bytes |
| Instructions | 3        |

```
      00 01 02 03 04 05 06 07  08 09 0A 0B 0C 0D 0E 0F
      -- -- -- -- -- -- -- --  -- -- -- -- -- -- -- --
0130:                                            37 09                7.
0140: 80 0A 80 0B 80 0C 80 6C  F8 FF FF 7F 0D 80 0E 80  .......l........
0150: 00                                                .               
```

#### Opcodes

```
  0: 0x013E [0x37] UPDATE_EVENT_POSITION_AND_DIR: x=-179.693*, z=254.327*, y=7.845*, direction=53.7°*
  1: 0x0147 [0x6C] FADE_ENTITY_COLOR(entity_id=EventEntity, end_alpha=0*, fade_time=1*)
  2: 0x0150 [0x00] END_REQSTACK()
```

### Event 65535.20

#### Metadata

| Field        | Value    |
|--------------|----------|
| Entrypoint   | 0x0151   |
| Data Size    | 14 bytes |
| Instructions | 2        |

```
      00 01 02 03 04 05 06 07  08 09 0A 0B 0C 0D 0E 0F
      -- -- -- -- -- -- -- --  -- -- -- -- -- -- -- --
0150:    2C F8 FF FF 7F F8 FF  FF 7F 65 66 6F 66 00      ,........efof. 
```

#### Opcodes

```
  0: 0x0151 [0x2C] CREATE_SCHEDULER_TASK: Create scheduler "efof" with entities [EventEntity, EventEntity]
  1: 0x015E [0x00] END_REQSTACK()
```

### Event 65535.21

#### Metadata

| Field        | Value    |
|--------------|----------|
| Entrypoint   | 0x015F   |
| Data Size    | 73 bytes |
| Instructions | 7        |

```
      00 01 02 03 04 05 06 07  08 09 0A 0B 0C 0D 0E 0F
      -- -- -- -- -- -- -- --  -- -- -- -- -- -- -- --
0150:                                               45                 E
0160: 0F 80 F8 FF FF 7F F8 FF  FF 7F 73 30 30 30 0D 80  ..........s000..
0170: 1C 10 80 52 0F 80 F8 FF  FF 7F F8 FF FF 7F 73 30  ...R..........s0
0180: 30 30 45 11 80 F0 FF FF  7F F0 FF FF 7F 6F 76 6C  00E..........ovl
0190: 31 0D 80 45 0F 80 F8 FF  FF 7F F8 FF FF 7F 73 30  1..E..........s0
01A0: 30 31 0D 80 1C 12 80 00                           01......        
```

#### Opcodes

```
  0: 0x015F [0x45] LOAD_SCHEDULED_TASK: Load scheduler "s000" with entities [EventEntity, EventEntity], work=[172*, 0*]
  1: 0x0170 [0x1C] WAIT(160* ticks)
  2: 0x0173 [0x52] END_LOAD_SCHEDULER: End scheduler "s000" with entities [EventEntity, EventEntity], work=172*
  3: 0x0182 [0x45] LOAD_SCHEDULED_TASK: Load scheduler "ovl1" with entities [LocalPlayer, LocalPlayer], work=[200*, 0*]
  4: 0x0193 [0x45] LOAD_SCHEDULED_TASK: Load scheduler "s001" with entities [EventEntity, EventEntity], work=[172*, 0*]
  5: 0x01A4 [0x1C] WAIT(80* ticks)
  6: 0x01A7 [0x00] END_REQSTACK()
```

### Event 65535.22

#### Metadata

| Field        | Value    |
|--------------|----------|
| Entrypoint   | 0x01A8   |
| Data Size    | 15 bytes |
| Instructions | 5        |

```
      00 01 02 03 04 05 06 07  08 09 0A 0B 0C 0D 0E 0F
      -- -- -- -- -- -- -- --  -- -- -- -- -- -- -- --
01A0:                          32 13 80 1F 00 14 80 15          2.......
01B0: 80 16 80 1F 01 6F 00                              .....o.         
```

#### Opcodes

```
  0: 0x01A8 [0x32] ExtData[1]->MainSpeed = 13* * 0.1
  1: 0x01AB [0x1F] MOVE_ENTITY: EventEntity moves to X=-180.729*, Z=256.273*, Y=8.654*
  2: 0x01B3 [0x1F] MOVE_ENTITY: Update entity position (mode=1)
  3: 0x01B5 [0x6F] WAIT_FRAME_DELAY: Yield until WaitTime reaches zero
  4: 0x01B6 [0x00] END_REQSTACK()
```

### Event 65535.23

#### Metadata

| Field        | Value    |
|--------------|----------|
| Entrypoint   | 0x01B7   |
| Data Size    | 15 bytes |
| Instructions | 5        |

```
      00 01 02 03 04 05 06 07  08 09 0A 0B 0C 0D 0E 0F
      -- -- -- -- -- -- -- --  -- -- -- -- -- -- -- --
01B0:                      32  13 80 1F 00 09 80 0A 80         2........
01C0: 0B 80 1F 01 6F 00                                 ....o.          
```

#### Opcodes

```
  0: 0x01B7 [0x32] ExtData[1]->MainSpeed = 13* * 0.1
  1: 0x01BA [0x1F] MOVE_ENTITY: EventEntity moves to X=-179.693*, Z=254.327*, Y=7.845*
  2: 0x01C2 [0x1F] MOVE_ENTITY: Update entity position (mode=1)
  3: 0x01C4 [0x6F] WAIT_FRAME_DELAY: Yield until WaitTime reaches zero
  4: 0x01C5 [0x00] END_REQSTACK()
```

### Event 65535.24

#### Metadata

| Field        | Value    |
|--------------|----------|
| Entrypoint   | 0x01C6   |
| Data Size    | 15 bytes |
| Instructions | 5        |

```
      00 01 02 03 04 05 06 07  08 09 0A 0B 0C 0D 0E 0F
      -- -- -- -- -- -- -- --  -- -- -- -- -- -- -- --
01C0:                   32 13  80 1F 00 17 80 18 80 19        2.........
01D0: 80 1F 01 6F 00                                    ...o.           
```

#### Opcodes

```
  0: 0x01C6 [0x32] ExtData[1]->MainSpeed = 13* * 0.1
  1: 0x01C9 [0x1F] MOVE_ENTITY: EventEntity moves to X=-178.822*, Z=252.760*, Y=8.900*
  2: 0x01D1 [0x1F] MOVE_ENTITY: Update entity position (mode=1)
  3: 0x01D3 [0x6F] WAIT_FRAME_DELAY: Yield until WaitTime reaches zero
  4: 0x01D4 [0x00] END_REQSTACK()
```

### Event 65535.25

#### Metadata

| Field        | Value    |
|--------------|----------|
| Entrypoint   | 0x01D5   |
| Data Size    | 15 bytes |
| Instructions | 5        |

```
      00 01 02 03 04 05 06 07  08 09 0A 0B 0C 0D 0E 0F
      -- -- -- -- -- -- -- --  -- -- -- -- -- -- -- --
01D0:                32 13 80  1F 00 1A 80 1B 80 1C 80       2..........
01E0: 1F 01 6F 00                                       ..o.            
```

#### Opcodes

```
  0: 0x01D5 [0x32] ExtData[1]->MainSpeed = 13* * 0.1
  1: 0x01D8 [0x1F] MOVE_ENTITY: EventEntity moves to X=-178.343*, Z=251.834*, Y=8.909*
  2: 0x01E0 [0x1F] MOVE_ENTITY: Update entity position (mode=1)
  3: 0x01E2 [0x6F] WAIT_FRAME_DELAY: Yield until WaitTime reaches zero
  4: 0x01E3 [0x00] END_REQSTACK()
```

### Event 65535.26

#### Metadata

| Field        | Value    |
|--------------|----------|
| Entrypoint   | 0x01E4   |
| Data Size    | 15 bytes |
| Instructions | 5        |

```
      00 01 02 03 04 05 06 07  08 09 0A 0B 0C 0D 0E 0F
      -- -- -- -- -- -- -- --  -- -- -- -- -- -- -- --
01E0:             32 13 80 1F  00 1D 80 1E 80 1F 80 1F      2...........
01F0: 01 6F 00                                          .o.             
```

#### Opcodes

```
  0: 0x01E4 [0x32] ExtData[1]->MainSpeed = 13* * 0.1
  1: 0x01E7 [0x1F] MOVE_ENTITY: EventEntity moves to X=-180.752*, Z=254.092*, Y=8.747*
  2: 0x01EF [0x1F] MOVE_ENTITY: Update entity position (mode=1)
  3: 0x01F1 [0x6F] WAIT_FRAME_DELAY: Yield until WaitTime reaches zero
  4: 0x01F2 [0x00] END_REQSTACK()
```

### Event 65535.27

#### Metadata

| Field        | Value   |
|--------------|---------|
| Entrypoint   | 0x01F3  |
| Data Size    | 8 bytes |
| Instructions | 2       |

```
      00 01 02 03 04 05 06 07  08 09 0A 0B 0C 0D 0E 0F
      -- -- -- -- -- -- -- --  -- -- -- -- -- -- -- --
01F0:          29 08 95 62 06  01 07 00                    )..b....     
```

#### Opcodes

```
  0: 0x01F3 [0x29] REQ_SET_WAIT(priority=0x08, entity_id=Carbuncle (ID: 17195669/0x01066295), tag_num=0x07)
  1: 0x01FA [0x00] END_REQSTACK()
```

### Event 19

#### Metadata

| Field        | Value   |
|--------------|---------|
| Entrypoint   | 0x01FB  |
| Data Size    | 1 bytes |
| Instructions | 1       |

```
      00 01 02 03 04 05 06 07  08 09 0A 0B 0C 0D 0E 0F
      -- -- -- -- -- -- -- --  -- -- -- -- -- -- -- --
01F0:                                   00                         .    
```

#### Opcodes

```
  0: 0x01FB [0x00] END_REQSTACK()
```

### Event 65535.28

#### Metadata

| Field        | Value    |
|--------------|----------|
| Entrypoint   | 0x01FC   |
| Data Size    | 14 bytes |
| Instructions | 4        |

```
      00 01 02 03 04 05 06 07  08 09 0A 0B 0C 0D 0E 0F
      -- -- -- -- -- -- -- --  -- -- -- -- -- -- -- --
01F0:                                      32 13 80 1F              2...
0200: 00 20 80 21 80 22 80 1F  01 00                    . .!."....      
```

#### Opcodes

```
  0: 0x01FC [0x32] ExtData[1]->MainSpeed = 13* * 0.1
  1: 0x01FF [0x1F] MOVE_ENTITY: EventEntity moves to X=-186.453*, Z=261.692*, Y=7.800*
  2: 0x0207 [0x1F] MOVE_ENTITY: Update entity position (mode=1)
  3: 0x0209 [0x00] END_REQSTACK()
```

### Event 65535.29

#### Metadata

| Field        | Value   |
|--------------|---------|
| Entrypoint   | 0x020A  |
| Data Size    | 5 bytes |
| Instructions | 2       |

```
      00 01 02 03 04 05 06 07  08 09 0A 0B 0C 0D 0E 0F
      -- -- -- -- -- -- -- --  -- -- -- -- -- -- -- --
0200:                                B6 00 23 80 00               ..#.. 
```

#### Opcodes

```
  0: 0x020A [0xB6] ENTITY_APPEARANCE_HANDLER(case=Hair style, value=791*)
  1: 0x020E [0x00] END_REQSTACK()
```

### Event 65535.30

#### Metadata

| Field        | Value   |
|--------------|---------|
| Entrypoint   | 0x020F  |
| Data Size    | 5 bytes |
| Instructions | 2       |

```
      00 01 02 03 04 05 06 07  08 09 0A 0B 0C 0D 0E 0F
      -- -- -- -- -- -- -- --  -- -- -- -- -- -- -- --
0200:                                               B6                 .
0210: 00 24 80 00                                       .$..            
```

#### Opcodes

```
  0: 0x020F [0xB6] ENTITY_APPEARANCE_HANDLER(case=Hair style, value=978*)
  1: 0x0213 [0x00] END_REQSTACK()
```
