# 17195743

## Common Data

| Field            | Value                       |
|------------------|-----------------------------|
| Zone             | La Theine Plateau (ID: 102) |
| Block Size       | 776 bytes                   |
| Total Events     | 3                           |
| References Count | 8                           |

## List of Events

| Event ID                 | Entrypoint   |   Size |   Instructions |
|--------------------------|--------------|--------|----------------|
| [65535](#event-65535)    | 0x0000       |      1 |              1 |
| [65535.1](#event-655351) | 0x0001       |     32 |              9 |
| [65535.2](#event-655352) | 0x0021       |    680 |             67 |

## DAT References (imed_data)

|   Index | Hex Value   |   Dec Value |
|---------|-------------|-------------|
|       0 | 0x0001      |           1 |
|       1 | 0x00C8      |         200 |
|       2 | 0x0000      |           0 |
|       3 | 0x00C9      |         201 |
|       4 | 0x002D      |          45 |
|       5 | 0x0002      |           2 |
|       6 | 0x001E      |          30 |
|       7 | 0x00D7      |         215 |

## Events

### Event 65535

#### Metadata

| Field        | Value   |
|--------------|---------|
| Entrypoint   | 0x0000  |
| Data Size    | 1 bytes |
| Instructions | 1       |

```
      00 01 02 03 04 05 06 07  08 09 0A 0B 0C 0D 0E 0F
      -- -- -- -- -- -- -- --  -- -- -- -- -- -- -- --
0000: 00                                                .               
```

#### Opcodes

```
  0: 0x0000 [0x00] END_REQSTACK()
```

### Event 65535.1

#### Metadata

| Field        | Value    |
|--------------|----------|
| Entrypoint   | 0x0001   |
| Data Size    | 32 bytes |
| Instructions | 9        |

```
      00 01 02 03 04 05 06 07  08 09 0A 0B 0C 0D 0E 0F
      -- -- -- -- -- -- -- --  -- -- -- -- -- -- -- --
0000:    42 03 01 10 00 80 43  00 43 01 9A 46 00 45 01   B.....C.C..F.E.
0010: 80 F8 FF FF 7F F8 FF FF  7F 66 64 69 32 02 80 21  .........fdi2..!
0020: 00                                                .               
```

#### Opcodes

```
  0: 0x0001 [0x42] SET_CLI_EVENT_CANCEL_DATA()
  1: 0x0002 [0x03] Work_Zone[1] = 1*
  2: 0x0007 [0x43] SEND_EVENT_UPDATE: Send pending tag to server (packet 0x005B)
  3: 0x0009 [0x43] SEND_EVENT_UPDATE: Check pending flag (skip if not pending)
  4: 0x000B [0x9A] WAIT_MUSIC_SERVER()
  5: 0x000C [0x46] CAMERA_CONTROL: Restore default settings
  6: 0x000E [0x45] LOAD_SCHEDULED_TASK: Load scheduler "fdi2" with entities [EventEntity, EventEntity], work=[200*, 0*]
  7: 0x001F [0x21] END_EVENT
  8: 0x0020 [0x00] END_REQSTACK()
```

### Event 65535.2

#### Metadata

| Field        | Value     |
|--------------|-----------|
| Entrypoint   | 0x0021    |
| Data Size    | 680 bytes |
| Instructions | 6         |

```
      00 01 02 03 04 05 06 07  08 09 0A 0B 0C 0D 0E 0F
      -- -- -- -- -- -- -- --  -- -- -- -- -- -- -- --
0020:    42 9A 46 00 45 01 80  F8 FF FF 7F F8 FF FF 7F   B.F.E..........
0030: 66 64 69 32 02 80 21 00  45 01 80 F0 FF FF 7F F0  fdi2..!.E.......
0040: FF FF 7F 66 64 69 30 02  80 55 01 80 F0 FF FF 7F  ...fdi0..U......
0050: F0 FF FF 7F 66 64 69 30  1B 45 01 80 F0 FF FF 7F  ....fdi0.E......
0060: F0 FF FF 7F 66 64 6F 30  02 80 55 01 80 F0 FF FF  ....fdo0..U.....
0070: 7F F0 FF FF 7F 66 64 6F  30 1B 45 01 80 F0 FF FF  .....fdo0.E.....
0080: 7F F0 FF FF 7F 66 64 69  31 02 80 55 01 80 F0 FF  .....fdi1..U....
0090: FF 7F F0 FF FF 7F 66 64  69 31 1B 45 01 80 F0 FF  ......fdi1.E....
00A0: FF 7F F0 FF FF 7F 66 64  6F 31 02 80 55 01 80 F0  ......fdo1..U...
00B0: FF FF 7F F0 FF FF 7F 66  64 6F 31 1B 45 03 80 F0  .......fdo1.E...
00C0: FF FF 7F F0 FF FF 7F 77  68 69 31 02 80 55 03 80  .......whi1..U..
00D0: F0 FF FF 7F F0 FF FF 7F  77 68 69 31 1B 45 03 80  ........whi1.E..
00E0: F0 FF FF 7F F0 FF FF 7F  77 68 6F 31 02 80 55 03  ........who1..U.
00F0: 80 F0 FF FF 7F F0 FF FF  7F 77 68 6F 31 1B 45 03  .........who1.E.
0100: 80 F0 FF FF 7F F0 FF FF  7F 77 68 6F 32 02 80 55  .........who2..U
0110: 03 80 F0 FF FF 7F F0 FF  FF 7F 77 68 6F 32 1B 45  ..........who2.E
0120: 03 80 F0 FF FF 7F F0 FF  FF 7F 77 68 6F 33 02 80  ..........who3..
0130: 55 03 80 F0 FF FF 7F F0  FF FF 7F 77 68 6F 33 1B  U..........who3.
0140: 62 00 80 F0 FF FF 7F F0  FF FF 7F 6D 61 69 6E 02  b..........main.
0150: 80 1C 04 80 45 01 80 F0  FF FF 7F F0 FF FF 7F 66  ....E..........f
0160: 64 6F 31 02 80 55 01 80  F0 FF FF 7F F0 FF FF 7F  do1..U..........
0170: 66 64 6F 31 1B 45 01 80  F0 FF FF 7F F0 FF FF 7F  fdo1.E..........
0180: 66 64 69 31 02 80 62 05  80 F0 FF FF 7F F0 FF FF  fdi1..b.........
0190: 7F 6D 61 69 6E 02 80 1C  06 80 55 01 80 F0 FF FF  .main.....U.....
01A0: 7F F0 FF FF 7F 66 64 69  31 1B 45 01 80 F0 FF FF  .....fdi1.E.....
01B0: 7F F0 FF FF 7F 62 6C 6F  6E 02 80 45 03 80 F0 FF  .....blon..E....
01C0: FF 7F F0 FF FF 7F 62 6C  6F 6E 02 80 1B 45 03 80  ......blon...E..
01D0: F0 FF FF 7F F0 FF FF 7F  77 68 69 30 02 80 55 03  ........whi0..U.
01E0: 80 F0 FF FF 7F F0 FF FF  7F 77 68 69 30 1B 45 03  .........whi0.E.
01F0: 80 F0 FF FF 7F F0 FF FF  7F 77 68 6F 30 02 80 55  .........who0..U
0200: 03 80 F0 FF FF 7F F0 FF  FF 7F 77 68 6F 30 1B 45  ..........who0.E
0210: 07 80 F0 FF FF 7F F0 FF  FF 7F 65 66 6F 6E 02 80  ..........efon..
0220: 55 07 80 F0 FF FF 7F F0  FF FF 7F 65 66 6F 6E 1B  U..........efon.
0230: 45 01 80 F0 FF FF 7F F0  FF FF 7F 66 64 69 73 02  E..........fdis.
0240: 80 1B 45 01 80 F0 FF FF  7F F0 FF FF 7F 66 64 6F  ..E..........fdo
0250: 73 02 80 55 01 80 F0 FF  FF 7F F0 FF FF 7F 66 64  s..U..........fd
0260: 6F 73 1B 45 01 80 F0 FF  FF 7F F0 FF FF 7F 66 64  os.E..........fd
0270: 69 66 02 80 1B 45 01 80  F0 FF FF 7F F0 FF FF 7F  if...E..........
0280: 66 64 6F 66 02 80 55 01  80 F0 FF FF 7F F0 FF FF  fdof..U.........
0290: 7F 66 64 6F 66 1B 45 01  80 F0 FF FF 7F F0 FF FF  .fdof.E.........
02A0: 7F 66 64 69 70 02 80 1B  45 01 80 F0 FF FF 7F F0  .fdip...E.......
02B0: FF FF 7F 66 64 6F 70 02  80 55 01 80 F0 FF FF 7F  ...fdop..U......
02C0: F0 FF FF 7F 66 64 6F 70  1B                       ....fdop.       
```

#### Opcodes

```
  0: 0x0021 [0x42] SET_CLI_EVENT_CANCEL_DATA()
  1: 0x0022 [0x9A] WAIT_MUSIC_SERVER()
  2: 0x0023 [0x46] CAMERA_CONTROL: Restore default settings
  3: 0x0025 [0x45] LOAD_SCHEDULED_TASK: Load scheduler "fdi2" with entities [EventEntity, EventEntity], work=[200*, 0*]
  4: 0x0036 [0x21] END_EVENT
  5: 0x0037 [0x00] END_REQSTACK()
```

#### Data or dead code:

```
# Dead code (unreachable instructions):
     0x0038 [0x45] LOAD_SCHEDULED_TASK: Load scheduler "fdi0" with entities [LocalPlayer, LocalPlayer], work=[200*, 0*]
     0x0049 [0x55] WAIT_LOAD_SCHEDULER: Wait for scheduler "fdi0" with entities [LocalPlayer, LocalPlayer], work=200*
     0x0058 [0x1B] RETURN
     0x0059 [0x45] LOAD_SCHEDULED_TASK: Load scheduler "fdo0" with entities [LocalPlayer, LocalPlayer], work=[200*, 0*]
     0x006A [0x55] WAIT_LOAD_SCHEDULER: Wait for scheduler "fdo0" with entities [LocalPlayer, LocalPlayer], work=200*
     0x0079 [0x1B] RETURN
     0x007A [0x45] LOAD_SCHEDULED_TASK: Load scheduler "fdi1" with entities [LocalPlayer, LocalPlayer], work=[200*, 0*]
     0x008B [0x55] WAIT_LOAD_SCHEDULER: Wait for scheduler "fdi1" with entities [LocalPlayer, LocalPlayer], work=200*
     0x009A [0x1B] RETURN
     0x009B [0x45] LOAD_SCHEDULED_TASK: Load scheduler "fdo1" with entities [LocalPlayer, LocalPlayer], work=[200*, 0*]
     0x00AC [0x55] WAIT_LOAD_SCHEDULER: Wait for scheduler "fdo1" with entities [LocalPlayer, LocalPlayer], work=200*
     0x00BB [0x1B] RETURN
     0x00BC [0x45] LOAD_SCHEDULED_TASK: Load scheduler "whi1" with entities [LocalPlayer, LocalPlayer], work=[201*, 0*]
     0x00CD [0x55] WAIT_LOAD_SCHEDULER: Wait for scheduler "whi1" with entities [LocalPlayer, LocalPlayer], work=201*
     0x00DC [0x1B] RETURN
     0x00DD [0x45] LOAD_SCHEDULED_TASK: Load scheduler "who1" with entities [LocalPlayer, LocalPlayer], work=[201*, 0*]
     0x00EE [0x55] WAIT_LOAD_SCHEDULER: Wait for scheduler "who1" with entities [LocalPlayer, LocalPlayer], work=201*
     0x00FD [0x1B] RETURN
     0x00FE [0x45] LOAD_SCHEDULED_TASK: Load scheduler "who2" with entities [LocalPlayer, LocalPlayer], work=[201*, 0*]
     0x010F [0x55] WAIT_LOAD_SCHEDULER: Wait for scheduler "who2" with entities [LocalPlayer, LocalPlayer], work=201*
     0x011E [0x1B] RETURN
     0x011F [0x45] LOAD_SCHEDULED_TASK: Load scheduler "who3" with entities [LocalPlayer, LocalPlayer], work=[201*, 0*]
     0x0130 [0x55] WAIT_LOAD_SCHEDULER: Wait for scheduler "who3" with entities [LocalPlayer, LocalPlayer], work=201*
     0x013F [0x1B] RETURN
     0x0140 [0x62] LOAD_EVENT_SCHEDULER: Load scheduler "main" with entities [LocalPlayer, LocalPlayer], work=[1*, 0*]
     0x0151 [0x1C] WAIT(45* ticks)
     0x0154 [0x45] LOAD_SCHEDULED_TASK: Load scheduler "fdo1" with entities [LocalPlayer, LocalPlayer], work=[200*, 0*]
     0x0165 [0x55] WAIT_LOAD_SCHEDULER: Wait for scheduler "fdo1" with entities [LocalPlayer, LocalPlayer], work=200*
     0x0174 [0x1B] RETURN
     0x0175 [0x45] LOAD_SCHEDULED_TASK: Load scheduler "fdi1" with entities [LocalPlayer, LocalPlayer], work=[200*, 0*]
     0x0186 [0x62] LOAD_EVENT_SCHEDULER: Load scheduler "main" with entities [LocalPlayer, LocalPlayer], work=[2*, 0*]
     0x0197 [0x1C] WAIT(30* ticks)
     0x019A [0x55] WAIT_LOAD_SCHEDULER: Wait for scheduler "fdi1" with entities [LocalPlayer, LocalPlayer], work=200*
     0x01A9 [0x1B] RETURN
     0x01AA [0x45] LOAD_SCHEDULED_TASK: Load scheduler "blon" with entities [LocalPlayer, LocalPlayer], work=[200*, 0*]
     0x01BB [0x45] LOAD_SCHEDULED_TASK: Load scheduler "blon" with entities [LocalPlayer, LocalPlayer], work=[201*, 0*]
     0x01CC [0x1B] RETURN
     0x01CD [0x45] LOAD_SCHEDULED_TASK: Load scheduler "whi0" with entities [LocalPlayer, LocalPlayer], work=[201*, 0*]
     0x01DE [0x55] WAIT_LOAD_SCHEDULER: Wait for scheduler "whi0" with entities [LocalPlayer, LocalPlayer], work=201*
     0x01ED [0x1B] RETURN
     0x01EE [0x45] LOAD_SCHEDULED_TASK: Load scheduler "who0" with entities [LocalPlayer, LocalPlayer], work=[201*, 0*]
     0x01FF [0x55] WAIT_LOAD_SCHEDULER: Wait for scheduler "who0" with entities [LocalPlayer, LocalPlayer], work=201*
     0x020E [0x1B] RETURN
     0x020F [0x45] LOAD_SCHEDULED_TASK: Load scheduler "efon" with entities [LocalPlayer, LocalPlayer], work=[215*, 0*]
     0x0220 [0x55] WAIT_LOAD_SCHEDULER: Wait for scheduler "efon" with entities [LocalPlayer, LocalPlayer], work=215*
     0x022F [0x1B] RETURN
     0x0230 [0x45] LOAD_SCHEDULED_TASK: Load scheduler "fdis" with entities [LocalPlayer, LocalPlayer], work=[200*, 0*]
     0x0241 [0x1B] RETURN
     0x0242 [0x45] LOAD_SCHEDULED_TASK: Load scheduler "fdos" with entities [LocalPlayer, LocalPlayer], work=[200*, 0*]
     0x0253 [0x55] WAIT_LOAD_SCHEDULER: Wait for scheduler "fdos" with entities [LocalPlayer, LocalPlayer], work=200*
     0x0262 [0x1B] RETURN
     0x0263 [0x45] LOAD_SCHEDULED_TASK: Load scheduler "fdif" with entities [LocalPlayer, LocalPlayer], work=[200*, 0*]
     0x0274 [0x1B] RETURN
     0x0275 [0x45] LOAD_SCHEDULED_TASK: Load scheduler "fdof" with entities [LocalPlayer, LocalPlayer], work=[200*, 0*]
     0x0286 [0x55] WAIT_LOAD_SCHEDULER: Wait for scheduler "fdof" with entities [LocalPlayer, LocalPlayer], work=200*
     0x0295 [0x1B] RETURN
     0x0296 [0x45] LOAD_SCHEDULED_TASK: Load scheduler "fdip" with entities [LocalPlayer, LocalPlayer], work=[200*, 0*]
     0x02A7 [0x1B] RETURN
     0x02A8 [0x45] LOAD_SCHEDULED_TASK: Load scheduler "fdop" with entities [LocalPlayer, LocalPlayer], work=[200*, 0*]
     0x02B9 [0x55] WAIT_LOAD_SCHEDULER: Wait for scheduler "fdop" with entities [LocalPlayer, LocalPlayer], work=200*
     0x02C8 [0x1B] RETURN
```
