# 17195612 - Tayula

## Common Data

| Field            | Value                       |
|------------------|-----------------------------|
| Zone             | La Theine Plateau (ID: 102) |
| Block Size       | 116 bytes                   |
| Total Events     | 4                           |
| References Count | 2                           |

## List of Events

| Event ID                 | Entrypoint   |   Size |   Instructions |
|--------------------------|--------------|--------|----------------|
| [65535](#event-65535)    | 0x0000       |      1 |              1 |
| [104](#event-104)        | 0x0001       |      1 |              1 |
| [105](#event-105)        | 0x0002       |     36 |             10 |
| [65535.1](#event-655351) | 0x0026       |     35 |              9 |

## DAT References (imed_data)

|   Index | Hex Value   |   Dec Value |
|---------|-------------|-------------|
|       0 | 0x001E      |          30 |
|       1 | 0x1CF3      |        7411 |

## String References

- **7411**: No, nothing, sir!

## Events

### Event 65535

#### Metadata

| Field        | Value   |
|--------------|---------|
| Entrypoint   | 0x0000  |
| Data Size    | 1 bytes |
| Instructions | 1       |

```
      00 01 02 03 04 05 06 07  08 09 0A 0B 0C 0D 0E 0F
      -- -- -- -- -- -- -- --  -- -- -- -- -- -- -- --
0000: 00                                                .               
```

#### Opcodes

```
  0: 0x0000 [0x00] END_REQSTACK()
```

### Event 104

#### Metadata

| Field        | Value   |
|--------------|---------|
| Entrypoint   | 0x0001  |
| Data Size    | 1 bytes |
| Instructions | 1       |

```
      00 01 02 03 04 05 06 07  08 09 0A 0B 0C 0D 0E 0F
      -- -- -- -- -- -- -- --  -- -- -- -- -- -- -- --
0000:    00                                              .              
```

#### Opcodes

```
  0: 0x0001 [0x00] END_REQSTACK()
```

### Event 105

#### Metadata

| Field        | Value    |
|--------------|----------|
| Entrypoint   | 0x0002   |
| Data Size    | 36 bytes |
| Instructions | 10       |

```
      00 01 02 03 04 05 06 07  08 09 0A 0B 0C 0D 0E 0F
      -- -- -- -- -- -- -- --  -- -- -- -- -- -- -- --
0000:       1E F0 FF FF 7F 6F  70 66 00 80 F8 FF FF 7F    .....opf......
0010: F8 FF FF 7F 74 6C 6B 30  1D 01 80 23 5E 69 64 6C  ....tlk0...#^idl
0020: 30 1C 00 80 21 00                                 0...!.          
```

#### Opcodes

```
  0: 0x0002 [0x1E] EventEntity looks at LocalPlayer and starts talking
  1: 0x0007 [0x6F] WAIT_FRAME_DELAY: Yield until WaitTime reaches zero
  2: 0x0008 [0x70] WAIT_ENTITY_RENDER_FLAG: Wait while EventEntity->Render.Flags3 bit 2 is set (cancel turn if not)
  3: 0x0009 [0x66] LOAD_EXT_SCHEDULER_MAIN: Load scheduler "tlk0" with entities [EventEntity, EventEntity], work=30*
  4: 0x0018 [0x1D] PRINT_EVENT_MESSAGE(message_id=7411*)
    → "No, nothing, sir!"
  5: 0x001B [0x23] WAIT_FOR_DIALOG_INTERACTION
  6: 0x001C [0x5E] EventEntity goes idle (kills current action) (animation: "idl0")
  7: 0x0021 [0x1C] WAIT(30* ticks)
  8: 0x0024 [0x21] END_EVENT
  9: 0x0025 [0x00] END_REQSTACK()
```

### Event 65535.1

#### Metadata

| Field        | Value    |
|--------------|----------|
| Entrypoint   | 0x0026   |
| Data Size    | 35 bytes |
| Instructions | 9        |

```
      00 01 02 03 04 05 06 07  08 09 0A 0B 0C 0D 0E 0F
      -- -- -- -- -- -- -- --  -- -- -- -- -- -- -- --
0020:                   1E F0  FF FF 7F 6F 70 66 00 80        .....opf..
0030: F8 FF FF 7F F8 FF FF 7F  74 6C 6B 30 1D 01 80 23  ........tlk0...#
0040: 5E 69 64 6C 30 1C 00 80  00                       ^idl0....       
```

#### Opcodes

```
  0: 0x0026 [0x1E] EventEntity looks at LocalPlayer and starts talking
  1: 0x002B [0x6F] WAIT_FRAME_DELAY: Yield until WaitTime reaches zero
  2: 0x002C [0x70] WAIT_ENTITY_RENDER_FLAG: Wait while EventEntity->Render.Flags3 bit 2 is set (cancel turn if not)
  3: 0x002D [0x66] LOAD_EXT_SCHEDULER_MAIN: Load scheduler "tlk0" with entities [EventEntity, EventEntity], work=30*
  4: 0x003C [0x1D] PRINT_EVENT_MESSAGE(message_id=7411*)
    → "No, nothing, sir!"
  5: 0x003F [0x23] WAIT_FOR_DIALOG_INTERACTION
  6: 0x0040 [0x5E] EventEntity goes idle (kills current action) (animation: "idl0")
  7: 0x0045 [0x1C] WAIT(30* ticks)
  8: 0x0048 [0x00] END_REQSTACK()
```
