# 17195733

## Common Data

| Field            | Value                       |
|------------------|-----------------------------|
| Zone             | La Theine Plateau (ID: 102) |
| Block Size       | 12168 bytes                 |
| Total Events     | 15                          |
| References Count | 283                         |

## List of Events

| Event ID                   | Entrypoint   |   Size |   Instructions |
|----------------------------|--------------|--------|----------------|
| [65535](#event-65535)      | 0x0000       |      1 |              1 |
| [65535.1](#event-655351)   | 0x0001       |     22 |              5 |
| [14](#event-14)            | 0x0017       |   2267 |            285 |
| [15](#event-15)            | 0x08F2       |   4104 |            468 |
| [16](#event-16)            | 0x18FA       |   3727 |            446 |
| [65535.2](#event-655352)   | 0x2789       |     22 |              5 |
| [65535.3](#event-655353)   | 0x279F       |     22 |              5 |
| [65535.4](#event-655354)   | 0x27B5       |     32 |              9 |
| [65535.5](#event-655355)   | 0x27D5       |     23 |              6 |
| [65535.6](#event-655356)   | 0x27EC       |     32 |              9 |
| [65535.7](#event-655357)   | 0x280C       |     23 |              6 |
| [65535.8](#event-655358)   | 0x2823       |    680 |             67 |
| [65535.9](#event-655359)   | 0x2ACB       |      1 |              1 |
| [65535.10](#event-6553510) | 0x2ACC       |      1 |              1 |
| [65535.11](#event-6553511) | 0x2ACD       |      1 |              1 |

## DAT References (imed_data)

|   Index | Hex Value   |   Dec Value |
|---------|-------------|-------------|
|       0 | 0x00C8      |         200 |
|       1 | 0x0000      |           0 |
|       2 | 0x0078      |         120 |
|       3 | 0x001B      |          27 |
|       4 | 0x305C      |       12380 |
|       5 | 0x021D      |         541 |
|       6 | 0x00FF      |         255 |
|       7 | 0x0001      |           1 |
|       8 | 0xFFF9F070  |  4294570096 |
|       9 | 0x54F24     |      347940 |
|      10 | 0xFFFFB565  |  4294948197 |
|      11 | 0x0C00      |        3072 |
|      12 | 0x004F      |          79 |
|      13 | 0xFFF9E5C0  |  4294567360 |
|      14 | 0x56712     |      354066 |
|      15 | 0x0AB8      |        2744 |
|      16 | 0x001E      |          30 |
|      17 | 0x0063      |          99 |
|      18 | 0x006B      |         107 |
|      19 | 0x02F9      |         761 |
|      20 | 0x000F      |          15 |
|      21 | 0x0096      |         150 |
|      22 | 0x0BEA      |        3050 |
|      23 | 0xFFF9ECB3  |  4294569139 |
|      24 | 0x56271     |      352881 |
|      25 | 0x1CE9      |        7401 |
|      26 | 0x305D      |       12381 |
|      27 | 0x305E      |       12382 |
|      28 | 0x305F      |       12383 |
|      29 | 0x00B4      |         180 |
|      30 | 0x3060      |       12384 |
|      31 | 0x3061      |       12385 |
|      32 | 0xFFFFFF5B  |  4294967131 |
|      33 | 0x003C      |          60 |
|      34 | 0x03E8      |        1000 |
|      35 | 0x0514      |        1300 |
|      36 | 0x012C      |         300 |
|      37 | 0x3062      |       12386 |
|      38 | 0x3063      |       12387 |
|      39 | 0x3064      |       12388 |
|      40 | 0x3065      |       12389 |
|      41 | 0x3066      |       12390 |
|      42 | 0x005A      |          90 |
|      43 | 0x00F0      |         240 |
|      44 | 0x3067      |       12391 |
|      45 | 0x3068      |       12392 |
|      46 | 0x3069      |       12393 |
|      47 | 0x306C      |       12396 |
|      48 | 0x306D      |       12397 |
|      49 | 0x306A      |       12394 |
|      50 | 0x306B      |       12395 |
|      51 | 0x306E      |       12398 |
|      52 | 0x306F      |       12399 |
|      53 | 0x0050      |          80 |
|      54 | 0x0014      |          20 |
|      55 | 0x3070      |       12400 |
|      56 | 0x005F      |          95 |
|      57 | 0x3071      |       12401 |
|      58 | 0x3072      |       12402 |
|      59 | 0x3073      |       12403 |
|      60 | 0x3074      |       12404 |
|      61 | 0x0006      |           6 |
|      62 | 0x021A      |         538 |
|      63 | 0x3075      |       12405 |
|      64 | 0x3076      |       12406 |
|      65 | 0x3077      |       12407 |
|      66 | 0x3078      |       12408 |
|      67 | 0x307A      |       12410 |
|      68 | 0x3079      |       12409 |
|      69 | 0x0002      |           2 |
|      70 | 0x307B      |       12411 |
|      71 | 0x307C      |       12412 |
|      72 | 0x307D      |       12413 |
|      73 | 0x307E      |       12414 |
|      74 | 0x008C      |         140 |
|      75 | 0x307F      |       12415 |
|      76 | 0x3080      |       12416 |
|      77 | 0x3081      |       12417 |
|      78 | 0x0066      |         102 |
|      79 | 0x0005      |           5 |
|      80 | 0x0007      |           7 |
|      81 | 0x0008      |           8 |
|      82 | 0xFFF9DFF0  |  4294565872 |
|      83 | 0x56C0E     |      355342 |
|      84 | 0x0795      |        1941 |
|      85 | 0xFFF9E6B0  |  4294567600 |
|      86 | 0x570CA     |      356554 |
|      87 | 0x0003      |           3 |
|      88 | 0xFFF9EE18  |  4294569496 |
|      89 | 0x5682E     |      354350 |
|      90 | 0xFFFFB0B5  |  4294946997 |
|      91 | 0x0DA3      |        3491 |
|      92 | 0x0004      |           4 |
|      93 | 0xFFFFB439  |  4294947897 |
|      94 | 0xFFFFB17D  |  4294947197 |
|      95 | 0x02FA      |         762 |
|      96 | 0x0F15      |        3861 |
|      97 | 0x3082      |       12418 |
|      98 | 0x3083      |       12419 |
|      99 | 0x0067      |         103 |
|     100 | 0x0F17      |        3863 |
|     101 | 0x00F3      |         243 |
|     102 | 0x3084      |       12420 |
|     103 | 0xFFF9ED97  |  4294569367 |
|     104 | 0x5685C     |      354396 |
|     105 | 0x3085      |       12421 |
|     106 | 0x00A0      |         160 |
|     107 | 0x3086      |       12422 |
|     108 | 0x3087      |       12423 |
|     109 | 0x3088      |       12424 |
|     110 | 0x0640      |        1600 |
|     111 | 0x3089      |       12425 |
|     112 | 0x308A      |       12426 |
|     113 | 0x308B      |       12427 |
|     114 | 0x308C      |       12428 |
|     115 | 0x00F4      |         244 |
|     116 | 0x308D      |       12429 |
|     117 | 0x003F      |          63 |
|     118 | 0x309D      |       12445 |
|     119 | 0x309E      |       12446 |
|     120 | 0x0F16      |        3862 |
|     121 | 0x309F      |       12447 |
|     122 | 0x0046      |          70 |
|     123 | 0x30A0      |       12448 |
|     124 | 0x30A1      |       12449 |
|     125 | 0x30A2      |       12450 |
|     126 | 0x3096      |       12438 |
|     127 | 0x3097      |       12439 |
|     128 | 0x3098      |       12440 |
|     129 | 0x3099      |       12441 |
|     130 | 0x309A      |       12442 |
|     131 | 0x309B      |       12443 |
|     132 | 0x309C      |       12444 |
|     133 | 0x308E      |       12430 |
|     134 | 0x308F      |       12431 |
|     135 | 0x3090      |       12432 |
|     136 | 0x3091      |       12433 |
|     137 | 0x3092      |       12434 |
|     138 | 0x3093      |       12435 |
|     139 | 0x3094      |       12436 |
|     140 | 0x3095      |       12437 |
|     141 | 0x30A3      |       12451 |
|     142 | 0x30A4      |       12452 |
|     143 | 0x30A5      |       12453 |
|     144 | 0x0075      |         117 |
|     145 | 0x00C9      |         201 |
|     146 | 0x30A6      |       12454 |
|     147 | 0x30A7      |       12455 |
|     148 | 0x30A8      |       12456 |
|     149 | 0x30A9      |       12457 |
|     150 | 0x30AA      |       12458 |
|     151 | 0xFFF9E48B  |  4294567051 |
|     152 | 0x571E6     |      356838 |
|     153 | 0x0546      |        1350 |
|     154 | 0x30AB      |       12459 |
|     155 | 0x30AC      |       12460 |
|     156 | 0x30AD      |       12461 |
|     157 | 0x30AE      |       12462 |
|     158 | 0x30AF      |       12463 |
|     159 | 0x30B0      |       12464 |
|     160 | 0x30B1      |       12465 |
|     161 | 0x30B2      |       12466 |
|     162 | 0x30B3      |       12467 |
|     163 | 0xFFFFFFCE  |  4294967246 |
|     164 | 0x0B1F      |        2847 |
|     165 | 0x30B4      |       12468 |
|     166 | 0x0021      |          33 |
|     167 | 0x23668     |      145000 |
|     168 | 0xFFF570E0  |  4294275296 |
|     169 | 0xFFFFF830  |  4294965296 |
|     170 | 0x0C4F      |        3151 |
|     171 | 0x25220     |      152096 |
|     172 | 0xFFF56352  |  4294271826 |
|     173 | 0xFFFFF73C  |  4294965052 |
|     174 | 0x25CAA     |      154794 |
|     175 | 0xFFF57A71  |  4294277745 |
|     176 | 0xFFFFFB92  |  4294966162 |
|     177 | 0x07BA      |        1978 |
|     178 | 0x263A0     |      156576 |
|     179 | 0xFFF571C4  |  4294275524 |
|     180 | 0xFFFFFC3B  |  4294966331 |
|     181 | 0x076A      |        1898 |
|     182 | 0x1D4C0     |      120000 |
|     183 | 0xFFF71A45  |  4294384197 |
|     184 | 0xFFFFE32B  |  4294959915 |
|     185 | 0x049A      |        1178 |
|     186 | 0x1F4D6     |      128214 |
|     187 | 0xFFF6C6DE  |  4294362846 |
|     188 | 0xFFFFF6B3  |  4294964915 |
|     189 | 0x1C117     |      114967 |
|     190 | 0xFFF6749D  |  4294341789 |
|     191 | 0x0BB8      |        3000 |
|     192 | 0x1C520     |      116000 |
|     193 | 0xFFF6CBA4  |  4294364068 |
|     194 | 0x255DB     |      153051 |
|     195 | 0xFFF572D0  |  4294275792 |
|     196 | 0xFFFF38EE  |  4294916334 |
|     197 | 0x0CBA      |        3258 |
|     198 | 0xFFFFFC3E  |  4294966334 |
|     199 | 0x04BA      |        1210 |
|     200 | 0x01CF      |         463 |
|     201 | 0x008F      |         143 |
|     202 | 0x00E9      |         233 |
|     203 | 0x0301      |         769 |
|     204 | 0x00A4      |         164 |
|     205 | 0x0186      |         390 |
|     206 | 0x30B5      |       12469 |
|     207 | 0x30B6      |       12470 |
|     208 | 0x02DD      |         733 |
|     209 | 0x30B7      |       12471 |
|     210 | 0x30B8      |       12472 |
|     211 | 0x30B9      |       12473 |
|     212 | 0x30BA      |       12474 |
|     213 | 0x0028      |          40 |
|     214 | 0x30BB      |       12475 |
|     215 | 0x30BC      |       12476 |
|     216 | 0x30BD      |       12477 |
|     217 | 0x30BE      |       12478 |
|     218 | 0x30BF      |       12479 |
|     219 | 0x30C0      |       12480 |
|     220 | 0x30C1      |       12481 |
|     221 | 0x24EFD     |      151293 |
|     222 | 0xFFF5464A  |  4294264394 |
|     223 | 0xFFFFEA12  |  4294961682 |
|     224 | 0x0C12      |        3090 |
|     225 | 0x01D0      |         464 |
|     226 | 0x30C2      |       12482 |
|     227 | 0x30C3      |       12483 |
|     228 | 0x30C4      |       12484 |
|     229 | 0x30C5      |       12485 |
|     230 | 0x30C6      |       12486 |
|     231 | 0x30C7      |       12487 |
|     232 | 0x30C8      |       12488 |
|     233 | 0x0015      |          21 |
|     234 | 0x30C9      |       12489 |
|     235 | 0x30CA      |       12490 |
|     236 | 0x30CB      |       12491 |
|     237 | 0x30CC      |       12492 |
|     238 | 0x30CD      |       12493 |
|     239 | 0xFFFFFF57  |  4294967127 |
|     240 | 0x30CE      |       12494 |
|     241 | 0x30CF      |       12495 |
|     242 | 0x30D0      |       12496 |
|     243 | 0x27100     |      160000 |
|     244 | 0xFFF56528  |  4294272296 |
|     245 | 0x30D1      |       12497 |
|     246 | 0x30D2      |       12498 |
|     247 | 0x30D3      |       12499 |
|     248 | 0x30D4      |       12500 |
|     249 | 0x30D5      |       12501 |
|     250 | 0x30D6      |       12502 |
|     251 | 0x30D7      |       12503 |
|     252 | 0x30D8      |       12504 |
|     253 | 0x244BD     |      148669 |
|     254 | 0xFFF57241  |  4294275649 |
|     255 | 0xFFFF3F6D  |  4294917997 |
|     256 | 0x0031      |          49 |
|     257 | 0x0059      |          89 |
|     258 | 0x30D9      |       12505 |
|     259 | 0x30DA      |       12506 |
|     260 | 0x30DB      |       12507 |
|     261 | 0x24C8D     |      150669 |
|     262 | 0x0F26      |        3878 |
|     263 | 0x30DC      |       12508 |
|     264 | 0x30DD      |       12509 |
|     265 | 0x30DE      |       12510 |
|     266 | 0x30DF      |       12511 |
|     267 | 0x30E0      |       12512 |
|     268 | 0x30E1      |       12513 |
|     269 | 0x30E2      |       12514 |
|     270 | 0x30E3      |       12515 |
|     271 | 0x30E4      |       12516 |
|     272 | 0x0E19      |        3609 |
|     273 | 0x00FA      |         250 |
|     274 | 0x000A      |          10 |
|     275 | 0x30E5      |       12517 |
|     276 | 0x30E6      |       12518 |
|     277 | 0x30E7      |       12519 |
|     278 | 0x30E8      |       12520 |
|     279 | 0x00A5      |         165 |
|     280 | 0x02DA      |         730 |
|     281 | 0x002D      |          45 |
|     282 | 0x00D7      |         215 |

## String References

- **7401**: @@
- **12380**: What you seek lies only a few steps ahead...
- **12408**: How about it? [I'll go./I can't right now./Uh...go where, exactly?]
- **12412**: Where did the vision take place? [Lower Jeuno./Delkfutt's Tower./Qufim Island.]
- **12468**: The resonance between the $3 and the crystal reaches a crescendo!
- **12497**: Inquire about what? [Drawing crystal energy./Accumulating light.]

## Events

### Event 65535

#### Metadata

| Field        | Value   |
|--------------|---------|
| Entrypoint   | 0x0000  |
| Data Size    | 1 bytes |
| Instructions | 1       |

```
      00 01 02 03 04 05 06 07  08 09 0A 0B 0C 0D 0E 0F
      -- -- -- -- -- -- -- --  -- -- -- -- -- -- -- --
0000: 00                                                .               
```

#### Opcodes

```
  0: 0x0000 [0x00] END_REQSTACK()
```

### Event 65535.1

#### Metadata

| Field        | Value    |
|--------------|----------|
| Entrypoint   | 0x0001   |
| Data Size    | 22 bytes |
| Instructions | 5        |

```
      00 01 02 03 04 05 06 07  08 09 0A 0B 0C 0D 0E 0F
      -- -- -- -- -- -- -- --  -- -- -- -- -- -- -- --
0000:    9A 46 00 45 00 80 F8  FF FF 7F F8 FF FF 7F 66   .F.E..........f
0010: 64 69 32 01 80 21 00                              di2..!.         
```

#### Opcodes

```
  0: 0x0001 [0x9A] WAIT_MUSIC_SERVER()
  1: 0x0002 [0x46] CAMERA_CONTROL: Restore default settings
  2: 0x0004 [0x45] LOAD_SCHEDULED_TASK: Load scheduler "fdi2" with entities [EventEntity, EventEntity], work=[200*, 0*]
  3: 0x0015 [0x21] END_EVENT
  4: 0x0016 [0x00] END_REQSTACK()
```

### Event 14

#### Metadata

| Field        | Value      |
|--------------|------------|
| Entrypoint   | 0x0017     |
| Data Size    | 2267 bytes |
| Instructions | 264        |

```
      00 01 02 03 04 05 06 07  08 09 0A 0B 0C 0D 0E 0F
      -- -- -- -- -- -- -- --  -- -- -- -- -- -- -- --
0010:                      42  03 01 00 08 10 03 02 00         B........
0020: 09 10 5D 01 80 02 80 45  00 80 F8 FF FF 7F F8 FF  ..]....E........
0030: FF 7F 66 64 6F 31 01 80  55 00 80 F8 FF FF 7F F8  ..fdo1..U.......
0040: FF FF 7F 66 64 6F 31 46  01 38 03 80 48 04 80 23  ...fdo1F.8..H..#
0050: 34 05 80 77 06 80 07 80  1C 07 80 2F 00 D7 62 06  4..w......./..b.
0060: 01 4E 00 D7 62 06 01 92  01 D7 62 06 01 94 01 D7  .N..b.....b.....
0070: 62 06 01 94 01 F0 FF FF  7F 81 00 D7 62 06 01 BA  b...........b...
0080: F0 FF FF 7F 08 80 09 80  0A 80 0B 80 80 F0 FF FF  ................
0090: 7F 5C 00 0C 80 5C 01 0C  80 9A 02 01 00 07 80 00  .\...\..........
00A0: 25 02 27 05 D7 62 06 01  05 BA D7 62 06 01 0D 80  %.'..b.....b....
00B0: 0E 80 0A 80 0F 80 80 D7  62 06 01 1C 10 80 5B 11  ........b.....[.
00C0: 80 D7 62 06 01 D7 62 06  01 74 61 6F 6C D0 12 80  ..b...b..taol...
00D0: D7 62 06 01 D7 62 06 01  6C 69 30 30 01 80 1C 10  .b...b..li00....
00E0: 80 45 13 80 F8 FF FF 7F  F8 FF FF 7F 73 31 30 39  .E..........s109
00F0: 01 80 1C 14 80 45 00 80  F8 FF FF 7F F8 FF FF 7F  .....E..........
0100: 66 64 69 31 01 80 1C 15  80 27 05 F0 FF FF 7F 33  fdi1.....'.....3
0110: 1C 10 80 52 13 80 F8 FF  FF 7F F8 FF FF 7F 73 31  ...R..........s1
0120: 30 39 45 13 80 F8 FF FF  7F F8 FF FF 7F 73 31 31  09E..........s11
0130: 30 01 80 2A 05 F0 FF FF  7F 1C 10 80 45 00 80 F8  0..*........E...
0140: FF FF 7F F8 FF FF 7F 66  64 6F 31 01 80 55 00 80  .......fdo1..U..
0150: F8 FF FF 7F F8 FF FF 7F  66 64 6F 31 52 13 80 F8  ........fdo1R...
0160: FF FF 7F F8 FF FF 7F 73  31 31 30 BA D7 62 06 01  .......s110..b..
0170: 0D 80 0E 80 0A 80 16 80  BA F0 FF FF 7F 17 80 18  ................
0180: 80 0A 80 0B 80 80 F0 FF  FF 7F 80 D7 62 06 01 79  ............b..y
0190: 00 F0 FF FF 7F D7 62 06  01 1C 10 80 5B 11 80 D7  ......b.....[...
01A0: 62 06 01 D7 62 06 01 6B  61 6B 6C D0 12 80 D7 62  b...b..kakl....b
01B0: 06 01 D7 62 06 01 6C 69  30 31 01 80 1C 10 80 48  ...b..li01.....H
01C0: 19 80 1C 02 80 45 13 80  F8 FF FF 7F F8 FF FF 7F  .....E..........
01D0: 73 31 31 32 01 80 1C 14  80 45 00 80 F8 FF FF 7F  s112.....E......
01E0: F8 FF FF 7F 66 64 69 31  01 80 2B D7 62 06 01 1A  ....fdi1..+.b...
01F0: 80 23 52 13 80 F8 FF FF  7F F8 FF FF 7F 73 31 31  .#R..........s11
0200: 32 45 13 80 F8 FF FF 7F  F8 FF FF 7F 73 31 31 33  2E..........s113
0210: 01 80 2B D7 62 06 01 1B  80 23 2B D7 62 06 01 1C  ..+.b....#+.b...
0220: 80 23 01 B5 02 BA D7 62  06 01 0D 80 0E 80 0A 80  .#.....b........
0230: 16 80 80 D7 62 06 01 1C  10 80 5B 11 80 D7 62 06  ....b.....[...b.
0240: 01 D7 62 06 01 6B 61 6B  6C 1C 10 80 27 05 F0 FF  ..b..kakl...'...
0250: FF 7F 34 45 13 80 F8 FF  FF 7F F8 FF FF 7F 73 31  ..4E..........s1
0260: 31 32 01 80 1C 14 80 45  00 80 F8 FF FF 7F F8 FF  12.....E........
0270: FF 7F 66 64 69 31 01 80  1C 1D 80 52 13 80 F8 FF  ..fdi1.....R....
0280: FF 7F F8 FF FF 7F 73 31  31 32 45 13 80 F8 FF FF  ......s112E.....
0290: 7F F8 FF FF 7F 73 31 31  33 01 80 79 00 F0 FF FF  .....s113..y....
02A0: 7F D7 62 06 01 2B D7 62  06 01 1E 80 23 2B D7 62  ..b..+.b....#+.b
02B0: 06 01 1F 80 23 45 00 80  F8 FF FF 7F F8 FF FF 7F  ....#E..........
02C0: 66 64 6F 31 01 80 55 00  80 F8 FF FF 7F F8 FF FF  fdo1..U.........
02D0: 7F 66 64 6F 31 52 13 80  F8 FF FF 7F F8 FF FF 7F  .fdo1R..........
02E0: 73 31 31 33 6B 69 64 6C  30 D7 62 06 01 81 01 D7  s113kidl0.b.....
02F0: 62 06 01 1A 44 2A 89 20  80 1C 21 80 B4 14 22 80  b...D*. ..!...".
0300: 22 80 23 80 01 80 07 80  1C 10 80 B4 14 22 80 22  ".#.........."."
0310: 80 22 80 24 80 07 80 03  02 10 15 80 27 10 C8 62  .".$........'..b
0320: 06 01 01 1A 32 2A 2B D7  62 06 01 25 80 23 2B D7  ....2*+.b..%.#+.
0330: 62 06 01 26 80 23 2A 10  C8 62 06 01 1A 44 2A 8A  b..&.#*..b...D*.
0340: B4 15 1A 32 2A 45 13 80  F8 FF FF 7F F8 FF FF 7F  ...2*E..........
0350: 73 31 31 34 01 80 1C 14  80 45 00 80 F8 FF FF 7F  s114.....E......
0360: F8 FF FF 7F 66 64 69 31  01 80 2B D7 62 06 01 27  ....fdi1..+.b..'
0370: 80 23 52 13 80 F8 FF FF  7F F8 FF FF 7F 73 31 31  .#R..........s11
0380: 34 45 13 80 F8 FF FF 7F  F8 FF FF 7F 73 31 31 35  4E..........s115
0390: 01 80 02 02 00 07 80 01  18 04 2B D7 62 06 01 28  ..........+.b..(
03A0: 80 23 2B D7 62 06 01 29  80 23 7B F0 FF FF 7F 1C  .#+.b..).#{.....
03B0: 2A 80 52 13 80 F8 FF FF  7F F8 FF FF 7F 73 31 31  *.R..........s11
03C0: 35 45 13 80 F8 FF FF 7F  F8 FF FF 7F 73 31 31 36  5E..........s116
03D0: 01 80 03 02 10 2B 80 27  10 C8 62 06 01 01 2B D7  .....+.'..b...+.
03E0: 62 06 01 2C 80 23 2B D7  62 06 01 2D 80 23 2B D7  b..,.#+.b..-.#+.
03F0: 62 06 01 2E 80 23 79 00  F0 FF FF 7F D7 62 06 01  b....#y......b..
0400: 2A 10 C8 62 06 01 52 13  80 F8 FF FF 7F F8 FF FF  *..b..R.........
0410: 7F 73 31 31 36 01 52 04  02 01 00 07 80 00 33 04  .s116.R.......3.
0420: 2B D7 62 06 01 2F 80 23  2B D7 62 06 01 30 80 23  +.b../.#+.b..0.#
0430: 01 43 04 2B D7 62 06 01  31 80 23 2B D7 62 06 01  .C.+.b..1.#+.b..
0440: 32 80 23 52 13 80 F8 FF  FF 7F F8 FF FF 7F 73 31  2.#R..........s1
0450: 31 35 45 13 80 F8 FF FF  7F F8 FF FF 7F 73 31 31  15E..........s11
0460: 37 01 80 2B D7 62 06 01  33 80 23 2B D7 62 06 01  7..+.b..3.#+.b..
0470: 34 80 23 4A F0 FF FF 7F  D7 62 06 01 1C 10 80 52  4.#J.....b.....R
0480: 13 80 F8 FF FF 7F F8 FF  FF 7F 73 31 31 37 45 13  ..........s117E.
0490: 80 F8 FF FF 7F F8 FF FF  7F 73 31 31 38 01 80 27  .........s118..'
04A0: 05 F0 FF FF 7F 2D 1C 35  80 27 05 F0 FF FF 7F 2E  .....-.5.'......
04B0: 1C 36 80 4A D7 62 06 01  F0 FF FF 7F 1C 36 80 52  .6.J.b.......6.R
04C0: 13 80 F8 FF FF 7F F8 FF  FF 7F 73 31 31 38 45 13  ..........s118E.
04D0: 80 F8 FF FF 7F F8 FF FF  7F 73 31 31 39 01 80 2B  .........s119..+
04E0: D7 62 06 01 37 80 23 52  13 80 F8 FF FF 7F F8 FF  .b..7.#R........
04F0: FF 7F 73 31 31 39 45 13  80 F8 FF FF 7F F8 FF FF  ..s119E.........
0500: 7F 73 31 32 30 01 80 5B  38 80 D7 62 06 01 D7 62  .s120..[8..b...b
0510: 06 01 74 68 6B 31 2B D7  62 06 01 39 80 23 2B D7  ..thk1+.b..9.#+.
0520: 62 06 01 3A 80 23 52 13  80 F8 FF FF 7F F8 FF FF  b..:.#R.........
0530: 7F 73 31 32 30 45 13 80  F8 FF FF 7F F8 FF FF 7F  .s120E..........
0540: 73 31 32 31 01 80 2B D7  62 06 01 3B 80 23 5B 38  s121..+.b..;.#[8
0550: 80 D7 62 06 01 D7 62 06  01 74 68 6B 32 2B D7 62  ..b...b..thk2+.b
0560: 06 01 3C 80 23 6E F0 FF  FF 7F 3D 80 99 F0 FF FF  ..<.#n....=.....
0570: 7F 1C 2A 80 52 13 80 F8  FF FF 7F F8 FF FF 7F 73  ..*.R..........s
0580: 31 32 31 45 13 80 F8 FF  FF 7F F8 FF FF 7F 73 31  121E..........s1
0590: 32 32 01 80 5B 3E 80 D7  62 06 01 D7 62 06 01 74  22..[>..b...b..t
05A0: 6C 34 30 02 01 00 07 80  00 BE 05 2B D7 62 06 01  l40........+.b..
05B0: 3F 80 23 2B D7 62 06 01  40 80 23 01 C6 05 2B D7  ?.#+.b..@.#...+.
05C0: 62 06 01 41 80 23 5B 3E  80 D7 62 06 01 D7 62 06  b..A.#[>..b...b.
05D0: 01 74 6C 34 31 52 13 80  F8 FF FF 7F F8 FF FF 7F  .tl41R..........
05E0: 73 31 32 32 45 13 80 F8  FF FF 7F F8 FF FF 7F 73  s122E..........s
05F0: 31 32 33 01 80 24 42 80  01 80 01 80 25 02 00 10  123..$B.....%...
0600: 01 80 00 3F 06 52 13 80  F8 FF FF 7F F8 FF FF 7F  ...?.R..........
0610: 73 31 32 33 45 13 80 F8  FF FF 7F F8 FF FF 7F 73  s123E..........s
0620: 31 32 35 01 80 5B 3E 80  D7 62 06 01 D7 62 06 01  125..[>..b...b..
0630: 74 6C 34 30 2B D7 62 06  01 43 80 23 01 E4 06 02  tl40+.b..C.#....
0640: 00 10 07 80 00 A2 06 52  13 80 F8 FF FF 7F F8 FF  .......R........
0650: FF 7F 73 31 32 33 45 13  80 F8 FF FF 7F F8 FF FF  ..s123E.........
0660: 7F 73 31 32 34 01 80 5B  3E 80 D7 62 06 01 D7 62  .s124..[>..b...b
0670: 06 01 74 6C 34 30 2B D7  62 06 01 44 80 23 5B 3E  ..tl40+.b..D.#[>
0680: 80 D7 62 06 01 D7 62 06  01 74 6C 34 31 52 13 80  ..b...b..tl41R..
0690: F8 FF FF 7F F8 FF FF 7F  73 31 32 34 01 E4 05 01  ........s124....
06A0: E4 06 02 00 10 45 80 00  E4 06 52 13 80 F8 FF FF  .....E....R.....
06B0: 7F F8 FF FF 7F 73 31 32  33 45 13 80 F8 FF FF 7F  .....s123E......
06C0: F8 FF FF 7F 73 31 32 35  01 80 5B 3E 80 D7 62 06  ....s125..[>..b.
06D0: 01 D7 62 06 01 74 6C 34  30 2B D7 62 06 01 46 80  ..b..tl40+.b..F.
06E0: 23 01 E4 06 5B 3E 80 D7  62 06 01 D7 62 06 01 74  #...[>..b...b..t
06F0: 6C 34 31 52 13 80 F8 FF  FF 7F F8 FF FF 7F 73 31  l41R..........s1
0700: 32 35 45 13 80 F8 FF FF  7F F8 FF FF 7F 73 31 32  25E..........s12
0710: 36 01 80 24 47 80 01 80  01 80 25 02 00 10 01 80  6..$G.....%.....
0720: 00 8A 07 52 13 80 F8 FF  FF 7F F8 FF FF 7F 73 31  ...R..........s1
0730: 32 36 45 13 80 F8 FF FF  7F F8 FF FF 7F 73 31 32  26E..........s12
0740: 37 01 80 81 00 D7 62 06  01 5B 38 80 D7 62 06 01  7.....b..[8..b..
0750: D7 62 06 01 74 68 6B 31  2B D7 62 06 01 48 80 23  .b..thk1+.b..H.#
0760: 81 01 D7 62 06 01 5B 38  80 D7 62 06 01 D7 62 06  ...b..[8..b...b.
0770: 01 74 68 6B 32 52 13 80  F8 FF FF 7F F8 FF FF 7F  .thk2R..........
0780: 73 31 32 37 01 02 07 01  F9 07 02 00 10 07 80 00  s127............
0790: F9 07 52 13 80 F8 FF FF  7F F8 FF FF 7F 73 31 32  ..R..........s12
07A0: 36 45 13 80 F8 FF FF 7F  F8 FF FF 7F 73 31 32 37  6E..........s127
07B0: 01 80 81 00 D7 62 06 01  5B 38 80 D7 62 06 01 D7  .....b..[8..b...
07C0: 62 06 01 74 68 6B 31 2B  D7 62 06 01 48 80 23 81  b..thk1+.b..H.#.
07D0: 01 D7 62 06 01 5B 38 80  D7 62 06 01 D7 62 06 01  ..b..[8..b...b..
07E0: 74 68 6B 32 52 13 80 F8  FF FF 7F F8 FF FF 7F 73  thk2R..........s
07F0: 31 32 37 01 02 07 01 F9  07 52 13 80 F8 FF FF 7F  127......R......
0800: F8 FF FF 7F 73 31 32 36  45 13 80 F8 FF FF 7F F8  ....s126E.......
0810: FF FF 7F 73 31 32 38 01  80 5B 11 80 D7 62 06 01  ...s128..[...b..
0820: D7 62 06 01 79 65 73 30  2B D7 62 06 01 49 80 1C  .b..yes0+.b..I..
0830: 4A 80 23 52 13 80 F8 FF  FF 7F F8 FF FF 7F 73 31  J.#R..........s1
0840: 32 38 45 13 80 F8 FF FF  7F F8 FF FF 7F 73 31 32  28E..........s12
0850: 39 01 80 5B 3E 80 D7 62  06 01 D7 62 06 01 74 6C  9..[>..b...b..tl
0860: 34 30 02 01 00 07 80 00  91 08 2B D7 62 06 01 4B  40........+.b..K
0870: 80 23 2B D7 62 06 01 4C  80 23 D0 12 80 D7 62 06  .#+.b..L.#....b.
0880: 01 D7 62 06 01 6B 69 65  30 01 80 1C 1D 80 01 99  ..b..kie0.......
0890: 08 2B D7 62 06 01 4D 80  23 5D 01 80 02 80 45 00  .+.b..M.#]....E.
08A0: 80 F8 FF FF 7F F8 FF FF  7F 66 64 6F 31 01 80 55  .........fdo1..U
08B0: 00 80 F8 FF FF 7F F8 FF  FF 7F 66 64 6F 31 52 13  ..........fdo1R.
08C0: 80 F8 FF FF 7F F8 FF FF  7F 73 31 32 39 35 4E 80  .........s1295N.
08D0: 78 1C 07 80 5C 00 01 80  5C 01 01 80 9A 46 00 45  x...\...\....F.E
08E0: 00 80 F8 FF FF 7F F8 FF  FF 7F 66 64 69 32 01 80  ..........fdi2..
08F0: 21 00                                             !.              
```

#### Opcodes

```
  0: 0x0017 [0x42] SET_CLI_EVENT_CANCEL_DATA()
  1: 0x0018 [0x03] ExtData[1]->WorkLocal[1] = Work_Zone[8]
  2: 0x001D [0x03] ExtData[1]->WorkLocal[2] = Work_Zone[9]
  3: 0x0022 [0x5D] SET_MUSIC_VOLUME(volume=0*, fade_time=120*)
  4: 0x0027 [0x45] LOAD_SCHEDULED_TASK: Load scheduler "fdo1" with entities [EventEntity, EventEntity], work=[200*, 0*]
  5: 0x0038 [0x55] WAIT_LOAD_SCHEDULER: Wait for scheduler "fdo1" with entities [EventEntity, EventEntity], work=200*
  6: 0x0047 [0x46] CAMERA_CONTROL: Disable user control
  7: 0x0049 [0x38] SET_CLIENT_EVENT_MODE(mode=27*)
  8: 0x004C [0x48] [System] [12380*]:
    → "What you seek lies only a few steps ahead..."
  9: 0x004F [0x23] WAIT_FOR_DIALOG_INTERACTION
 10: 0x0050 [0x34] LOAD_UNLOAD_ZONE(zone_id=541*)
 11: 0x0053 [0x77] SET_EVENT_TIME_WEATHER(hour=255*, weather=1*)
 12: 0x0058 [0x1C] WAIT(1* ticks)
 13: 0x005B [0x2F] Lion (ID: 17195735/0x010662D7)->Render.Flags0 &= ~0x80000 // Bit 19
 14: 0x0061 [0x4E] SET_ENTITY_HIDE_FLAG: Show Lion (ID: 17195735/0x010662D7)
 15: 0x0067 [0x92] Lion (ID: 17195735/0x010662D7)->Render.Flags3 ^= 0x01
 16: 0x006D [0x94] Lion (ID: 17195735/0x010662D7)->Render.Flags3 ^= 0x01
 17: 0x0073 [0x94] LocalPlayer->Render.Flags3 ^= 0x01
 18: 0x0079 [0x81] SET_ENTITY_BLINKING(blink_flag=0x00, entity=Lion (ID: 17195735/0x010662D7))
 19: 0x007F [0xBA] SET_ENTITY_POSITION(entity_id=LocalPlayer, pos_x=-397.200*, pos_z=347.940*, pos_y=-19.099*, direction=270.0°*)
 20: 0x008C [0x80] LOAD_WAIT(entity=LocalPlayer)
 21: 0x0091 [0x5C] MUSIC_CONTROL: Set Idle (Day) music to song 79*
 22: 0x0095 [0x5C] MUSIC_CONTROL: Set Idle (Night) music to song 79*
 23: 0x0099 [0x9A] WAIT_MUSIC_SERVER()
 24: 0x009A [0x02] IF !(ExtData[1]->WorkLocal[1] == 1*) GOTO 0x0225
 25: 0x00A2 [0x27] REQ_SET(priority=0x05, entity_id=Lion (ID: 17195735/0x010662D7), tag_num=0x05)
 26: 0x00A9 [0xBA] SET_ENTITY_POSITION(entity_id=Lion (ID: 17195735/0x010662D7), pos_x=-399.936*, pos_z=354.066*, pos_y=-19.099*, direction=241.2°*)
 27: 0x00B6 [0x80] LOAD_WAIT(entity=Lion (ID: 17195735/0x010662D7))
 28: 0x00BB [0x1C] WAIT(30* ticks)
 29: 0x00BE [0x5B] LOAD_EXT_SCHEDULER: Load scheduler "taol" with entities [Lion (ID: 17195735/0x010662D7), Lion (ID: 17195735/0x010662D7)], work=99*
 30: 0x00CD [0xD0] LOAD_SCHEDULED_TASK_ALT5: Load scheduler "li00" with entities [Lion (ID: 17195735/0x010662D7), Lion (ID: 17195735/0x010662D7)], work=[107*, 0*]
 31: 0x00DE [0x1C] WAIT(30* ticks)
 32: 0x00E1 [0x45] LOAD_SCHEDULED_TASK: Load scheduler "s109" with entities [EventEntity, EventEntity], work=[761*, 0*]
 33: 0x00F2 [0x1C] WAIT(15* ticks)
 34: 0x00F5 [0x45] LOAD_SCHEDULED_TASK: Load scheduler "fdi1" with entities [EventEntity, EventEntity], work=[200*, 0*]
 35: 0x0106 [0x1C] WAIT(150* ticks)
 36: 0x0109 [0x27] REQ_SET(priority=0x05, entity_id=LocalPlayer, tag_num=0x33)
 37: 0x0110 [0x1C] WAIT(30* ticks)
 38: 0x0113 [0x52] END_LOAD_SCHEDULER: End scheduler "s109" with entities [EventEntity, EventEntity], work=761*
 39: 0x0122 [0x45] LOAD_SCHEDULED_TASK: Load scheduler "s110" with entities [EventEntity, EventEntity], work=[761*, 0*]
 40: 0x0133 [0x2A] GET_REQ_LEVEL(level=5, entity_id=LocalPlayer)
 41: 0x0139 [0x1C] WAIT(30* ticks)
 42: 0x013C [0x45] LOAD_SCHEDULED_TASK: Load scheduler "fdo1" with entities [EventEntity, EventEntity], work=[200*, 0*]
 43: 0x014D [0x55] WAIT_LOAD_SCHEDULER: Wait for scheduler "fdo1" with entities [EventEntity, EventEntity], work=200*
 44: 0x015C [0x52] END_LOAD_SCHEDULER: End scheduler "s110" with entities [EventEntity, EventEntity], work=761*
 45: 0x016B [0xBA] SET_ENTITY_POSITION(entity_id=Lion (ID: 17195735/0x010662D7), pos_x=-399.936*, pos_z=354.066*, pos_y=-19.099*, direction=268.1°*)
 46: 0x0178 [0xBA] SET_ENTITY_POSITION(entity_id=LocalPlayer, pos_x=-398.157*, pos_z=352.881*, pos_y=-19.099*, direction=270.0°*)
 47: 0x0185 [0x80] LOAD_WAIT(entity=LocalPlayer)
 48: 0x018A [0x80] LOAD_WAIT(entity=Lion (ID: 17195735/0x010662D7))
 49: 0x018F [0x79] LocalPlayer looks at Lion (ID: 17195735/0x010662D7) (Basic look)
 50: 0x0199 [0x1C] WAIT(30* ticks)
 51: 0x019C [0x5B] LOAD_EXT_SCHEDULER: Load scheduler "kakl" with entities [Lion (ID: 17195735/0x010662D7), Lion (ID: 17195735/0x010662D7)], work=99*
 52: 0x01AB [0xD0] LOAD_SCHEDULED_TASK_ALT5: Load scheduler "li01" with entities [Lion (ID: 17195735/0x010662D7), Lion (ID: 17195735/0x010662D7)], work=[107*, 0*]
 53: 0x01BC [0x1C] WAIT(30* ticks)
 54: 0x01BF [0x48] [System] [7401*]:
    → "@@"
 55: 0x01C2 [0x1C] WAIT(120* ticks)
 56: 0x01C5 [0x45] LOAD_SCHEDULED_TASK: Load scheduler "s112" with entities [EventEntity, EventEntity], work=[761*, 0*]
 57: 0x01D6 [0x1C] WAIT(15* ticks)
 58: 0x01D9 [0x45] LOAD_SCHEDULED_TASK: Load scheduler "fdi1" with entities [EventEntity, EventEntity], work=[200*, 0*]
 59: 0x01EA [0x2B] Lion (ID: 17195735/0x010662D7) [12381*]:
    → "<Player>... Why? Why am I...here?"
 60: 0x01F1 [0x23] WAIT_FOR_DIALOG_INTERACTION
 61: 0x01F2 [0x52] END_LOAD_SCHEDULER: End scheduler "s112" with entities [EventEntity, EventEntity], work=761*
 62: 0x0201 [0x45] LOAD_SCHEDULED_TASK: Load scheduler "s113" with entities [EventEntity, EventEntity], work=[761*, 0*]
 63: 0x0212 [0x2B] Lion (ID: 17195735/0x010662D7) [12382*]:
    → "Am I still dreaming? Or can it really be...?"
 64: 0x0219 [0x23] WAIT_FOR_DIALOG_INTERACTION
 65: 0x021A [0x2B] Lion (ID: 17195735/0x010662D7) [12383*]:
    → "Lately, I've seen the strangest visions..."
 66: 0x0221 [0x23] WAIT_FOR_DIALOG_INTERACTION
 67: 0x0222 [0x01] GOTO 0x02B5
 68: 0x0225 [0xBA] SET_ENTITY_POSITION(entity_id=Lion (ID: 17195735/0x010662D7), pos_x=-399.936*, pos_z=354.066*, pos_y=-19.099*, direction=268.1°*)
 69: 0x0232 [0x80] LOAD_WAIT(entity=Lion (ID: 17195735/0x010662D7))
 70: 0x0237 [0x1C] WAIT(30* ticks)
 71: 0x023A [0x5B] LOAD_EXT_SCHEDULER: Load scheduler "kakl" with entities [Lion (ID: 17195735/0x010662D7), Lion (ID: 17195735/0x010662D7)], work=99*
 72: 0x0249 [0x1C] WAIT(30* ticks)
 73: 0x024C [0x27] REQ_SET(priority=0x05, entity_id=LocalPlayer, tag_num=0x34)
 74: 0x0253 [0x45] LOAD_SCHEDULED_TASK: Load scheduler "s112" with entities [EventEntity, EventEntity], work=[761*, 0*]
 75: 0x0264 [0x1C] WAIT(15* ticks)
 76: 0x0267 [0x45] LOAD_SCHEDULED_TASK: Load scheduler "fdi1" with entities [EventEntity, EventEntity], work=[200*, 0*]
 77: 0x0278 [0x1C] WAIT(180* ticks)
 78: 0x027B [0x52] END_LOAD_SCHEDULER: End scheduler "s112" with entities [EventEntity, EventEntity], work=761*
 79: 0x028A [0x45] LOAD_SCHEDULED_TASK: Load scheduler "s113" with entities [EventEntity, EventEntity], work=[761*, 0*]
 80: 0x029B [0x79] LocalPlayer looks at Lion (ID: 17195735/0x010662D7) (Basic look)
 81: 0x02A5 [0x2B] Lion (ID: 17195735/0x010662D7) [12384*]:
    → "As I waited for you here, this crystal--it spoke to me...and I fell into a trance."
 82: 0x02AC [0x23] WAIT_FOR_DIALOG_INTERACTION
 83: 0x02AD [0x2B] Lion (ID: 17195735/0x010662D7) [12385*]:
    → "It was but another vision."
 84: 0x02B4 [0x23] WAIT_FOR_DIALOG_INTERACTION

SUBROUTINE_02B5:
 85: 0x02B5 [0x45] LOAD_SCHEDULED_TASK: Load scheduler "fdo1" with entities [EventEntity, EventEntity], work=[200*, 0*]
 86: 0x02C6 [0x55] WAIT_LOAD_SCHEDULER: Wait for scheduler "fdo1" with entities [EventEntity, EventEntity], work=200*
 87: 0x02D5 [0x52] END_LOAD_SCHEDULER: End scheduler "s113" with entities [EventEntity, EventEntity], work=761*
 88: 0x02E4 [0x6B] STOP_AND_IDLE: Lion (ID: 17195735/0x010662D7) stops current action and resets to idle (animation="idl0")
 89: 0x02ED [0x81] SET_ENTITY_BLINKING(blink_flag=0x01, entity=Lion (ID: 17195735/0x010662D7))
 90: 0x02F3 [0x1A] CALL_SUBROUTINE(address=0x2A44)
 91: 0x02F6 [0x89] OPEN_MAP(map_id=0x00008020)
 92: 0x02F9 [0x1C] WAIT(60* ticks)
 93: 0x02FC [0xB4] UI_WINDOW_STRING_HANDLER(case=0x14 - Update map window values, work_offset1=1000*, work_offset2=1000*, work_offset3=1300*, work_offset4=0*, work_offset5=1*)
 94: 0x0308 [0x1C] WAIT(30* ticks)
 95: 0x030B [0xB4] UI_WINDOW_STRING_HANDLER(case=0x14 - Update map window values, work_offset1=1000*, work_offset2=1000*, work_offset3=1000*, work_offset4=300*, work_offset5=1*)
 96: 0x0317 [0x03] Work_Zone[2] = 150*
 97: 0x031C [0x27] REQ_SET(priority=0x10, entity_id=??? (ID: 17195720/0x010662C8), tag_num=0x01)
 98: 0x0323 [0x1A] CALL_SUBROUTINE(address=0x2A32)
 99: 0x0326 [0x2B] Lion (ID: 17195735/0x010662D7) [12386*]:
    → "People fled to the four corners of Vana'diel, futilely trying to escape an ever-growing cloud of darkness."
100: 0x032D [0x23] WAIT_FOR_DIALOG_INTERACTION
101: 0x032E [0x2B] Lion (ID: 17195735/0x010662D7) [12387*]:
    → "And there I stood, frozen, my legs unable to do so much as quiver."
102: 0x0335 [0x23] WAIT_FOR_DIALOG_INTERACTION
103: 0x0336 [0x2A] GET_REQ_LEVEL(level=16, entity_id=??? (ID: 17195720/0x010662C8))
104: 0x033C [0x1A] CALL_SUBROUTINE(address=0x2A44)
105: 0x033F [0x8A] CLOSE_MAP()
106: 0x0340 [0xB4] UI_WINDOW_STRING_HANDLER(case=0x15 - Test map window validity)
107: 0x0342 [0x1A] CALL_SUBROUTINE(address=0x2A32)
108: 0x0345 [0x45] LOAD_SCHEDULED_TASK: Load scheduler "s114" with entities [EventEntity, EventEntity], work=[761*, 0*]
109: 0x0356 [0x1C] WAIT(15* ticks)
110: 0x0359 [0x45] LOAD_SCHEDULED_TASK: Load scheduler "fdi1" with entities [EventEntity, EventEntity], work=[200*, 0*]
111: 0x036A [0x2B] Lion (ID: 17195735/0x010662D7) [12388*]:
    → "The mothercrystal's vision can't be simple happenstance."
112: 0x0371 [0x23] WAIT_FOR_DIALOG_INTERACTION
113: 0x0372 [0x52] END_LOAD_SCHEDULER: End scheduler "s114" with entities [EventEntity, EventEntity], work=761*
114: 0x0381 [0x45] LOAD_SCHEDULED_TASK: Load scheduler "s115" with entities [EventEntity, EventEntity], work=[761*, 0*]
115: 0x0392 [0x02] IF !(ExtData[1]->WorkLocal[2] == 1*) GOTO 0x0418
116: 0x039A [0x2B] Lion (ID: 17195735/0x010662D7) [12389*]:
    → "Not everyone is aware that our world--our Vana'diel--is protected by the benevolence of the mothercrystal."
117: 0x03A1 [0x23] WAIT_FOR_DIALOG_INTERACTION
118: 0x03A2 [0x2B] Lion (ID: 17195735/0x010662D7) [12390*]:
    → "Look all around you. This place is no accident."
119: 0x03A9 [0x23] WAIT_FOR_DIALOG_INTERACTION
120: 0x03AA [0x7B] LocalPlayer stops talking
121: 0x03AF [0x1C] WAIT(90* ticks)
122: 0x03B2 [0x52] END_LOAD_SCHEDULER: End scheduler "s115" with entities [EventEntity, EventEntity], work=761*
123: 0x03C1 [0x45] LOAD_SCHEDULED_TASK: Load scheduler "s116" with entities [EventEntity, EventEntity], work=[761*, 0*]
124: 0x03D2 [0x03] Work_Zone[2] = 240*
125: 0x03D7 [0x27] REQ_SET(priority=0x10, entity_id=??? (ID: 17195720/0x010662C8), tag_num=0x01)
126: 0x03DE [0x2B] Lion (ID: 17195735/0x010662D7) [12391*]:
    → "The technologies required to make these structures are beyond any known to us."
127: 0x03E5 [0x23] WAIT_FOR_DIALOG_INTERACTION
128: 0x03E6 [0x2B] Lion (ID: 17195735/0x010662D7) [12392*]:
    → "Those who came before doubtlessly created this facility to shelter the crystal from harm."
129: 0x03ED [0x23] WAIT_FOR_DIALOG_INTERACTION
130: 0x03EE [0x2B] Lion (ID: 17195735/0x010662D7) [12393*]:
    → "But I wonder..."
131: 0x03F5 [0x23] WAIT_FOR_DIALOG_INTERACTION
132: 0x03F6 [0x79] LocalPlayer looks at Lion (ID: 17195735/0x010662D7) (Basic look)
133: 0x0400 [0x2A] GET_REQ_LEVEL(level=16, entity_id=??? (ID: 17195720/0x010662C8))
134: 0x0406 [0x52] END_LOAD_SCHEDULER: End scheduler "s116" with entities [EventEntity, EventEntity], work=761*
135: 0x0415 [0x01] GOTO 0x0452
136: 0x0418 [0x02] IF !(ExtData[1]->WorkLocal[1] == 1*) GOTO 0x0433
137: 0x0420 [0x2B] Lion (ID: 17195735/0x010662D7) [12396*]:
    → "Our world has remained resilient thanks to mothercrystals' blessings."
138: 0x0427 [0x23] WAIT_FOR_DIALOG_INTERACTION
139: 0x0428 [0x2B] Lion (ID: 17195735/0x010662D7) [12397*]:
    → "But what if it is our turn to protect her?"
140: 0x042F [0x23] WAIT_FOR_DIALOG_INTERACTION
141: 0x0430 [0x01] GOTO 0x0443
142: 0x0433 [0x2B] Lion (ID: 17195735/0x010662D7) [12394*]:
    → "There's some reason why the same visions continue to float before my eyes."
143: 0x043A [0x23] WAIT_FOR_DIALOG_INTERACTION
144: 0x043B [0x2B] Lion (ID: 17195735/0x010662D7) [12395*]:
    → "So I came here, to the mothercrystal."
145: 0x0442 [0x23] WAIT_FOR_DIALOG_INTERACTION

SUBROUTINE_0443:
146: 0x0443 [0x52] END_LOAD_SCHEDULER: End scheduler "s115" with entities [EventEntity, EventEntity], work=761*

SUBROUTINE_0452:
147: 0x0452 [0x45] LOAD_SCHEDULED_TASK: Load scheduler "s117" with entities [EventEntity, EventEntity], work=[761*, 0*]
148: 0x0463 [0x2B] Lion (ID: 17195735/0x010662D7) [12398*]:
    → "In my dream, an infernal gloom obscured the mothercrystal from view."
149: 0x046A [0x23] WAIT_FOR_DIALOG_INTERACTION
150: 0x046B [0x2B] Lion (ID: 17195735/0x010662D7) [12399*]:
    → "This mothercrystal isn't the only one, of course, and I've no way of knowing if I'm even at the right one..."
151: 0x0472 [0x23] WAIT_FOR_DIALOG_INTERACTION
152: 0x0473 [0x4A] LocalPlayer looks at Lion (ID: 17195735/0x010662D7)
153: 0x047C [0x1C] WAIT(30* ticks)
154: 0x047F [0x52] END_LOAD_SCHEDULER: End scheduler "s117" with entities [EventEntity, EventEntity], work=761*
155: 0x048E [0x45] LOAD_SCHEDULED_TASK: Load scheduler "s118" with entities [EventEntity, EventEntity], work=[761*, 0*]
156: 0x049F [0x27] REQ_SET(priority=0x05, entity_id=LocalPlayer, tag_num=0x2D)
157: 0x04A6 [0x1C] WAIT(80* ticks)
158: 0x04A9 [0x27] REQ_SET(priority=0x05, entity_id=LocalPlayer, tag_num=0x2E)
159: 0x04B0 [0x1C] WAIT(20* ticks)
160: 0x04B3 [0x4A] Lion (ID: 17195735/0x010662D7) looks at LocalPlayer
161: 0x04BC [0x1C] WAIT(20* ticks)
162: 0x04BF [0x52] END_LOAD_SCHEDULER: End scheduler "s118" with entities [EventEntity, EventEntity], work=761*
163: 0x04CE [0x45] LOAD_SCHEDULED_TASK: Load scheduler "s119" with entities [EventEntity, EventEntity], work=[761*, 0*]
164: 0x04DF [0x2B] Lion (ID: 17195735/0x010662D7) [12400*]:
    → "Wait--does that mean you've seen the same vision?"
165: 0x04E6 [0x23] WAIT_FOR_DIALOG_INTERACTION
166: 0x04E7 [0x52] END_LOAD_SCHEDULER: End scheduler "s119" with entities [EventEntity, EventEntity], work=761*
167: 0x04F6 [0x45] LOAD_SCHEDULED_TASK: Load scheduler "s120" with entities [EventEntity, EventEntity], work=[761*, 0*]
168: 0x0507 [0x5B] LOAD_EXT_SCHEDULER: Load scheduler "thk1" with entities [Lion (ID: 17195735/0x010662D7), Lion (ID: 17195735/0x010662D7)], work=95*
169: 0x0516 [0x2B] Lion (ID: 17195735/0x010662D7) [12401*]:
    → "...I see. Then this "Iroha" came from a future where much the same thing has happened."
170: 0x051D [0x23] WAIT_FOR_DIALOG_INTERACTION
171: 0x051E [0x2B] Lion (ID: 17195735/0x010662D7) [12402*]:
    → "Then the beastmen that ravage the three nations are not to blame. So... So what is this "Emptiness"?"
172: 0x0525 [0x23] WAIT_FOR_DIALOG_INTERACTION
173: 0x0526 [0x52] END_LOAD_SCHEDULER: End scheduler "s120" with entities [EventEntity, EventEntity], work=761*
174: 0x0535 [0x45] LOAD_SCHEDULED_TASK: Load scheduler "s121" with entities [EventEntity, EventEntity], work=[761*, 0*]
175: 0x0546 [0x2B] Lion (ID: 17195735/0x010662D7) [12403*]:
    → "She might be the only one with the answers I seek."
176: 0x054D [0x23] WAIT_FOR_DIALOG_INTERACTION
177: 0x054E [0x5B] LOAD_EXT_SCHEDULER: Load scheduler "thk2" with entities [Lion (ID: 17195735/0x010662D7), Lion (ID: 17195735/0x010662D7)], work=95*
178: 0x055D [0x2B] Lion (ID: 17195735/0x010662D7) [12404*]:
    → "Where could we run into her again?"
179: 0x0564 [0x23] WAIT_FOR_DIALOG_INTERACTION
180: 0x0565 [0x6E] LocalPlayer uses emote 6*
181: 0x056C [0x99] Wait for LocalPlayer animation to complete
182: 0x0571 [0x1C] WAIT(90* ticks)
183: 0x0574 [0x52] END_LOAD_SCHEDULER: End scheduler "s121" with entities [EventEntity, EventEntity], work=761*
184: 0x0583 [0x45] LOAD_SCHEDULED_TASK: Load scheduler "s122" with entities [EventEntity, EventEntity], work=[761*, 0*]
185: 0x0594 [0x5B] LOAD_EXT_SCHEDULER: Load scheduler "tl40" with entities [Lion (ID: 17195735/0x010662D7), Lion (ID: 17195735/0x010662D7)], work=538*
186: 0x05A3 [0x02] IF !(ExtData[1]->WorkLocal[1] == 1*) GOTO 0x05BE
187: 0x05AB [0x2B] Lion (ID: 17195735/0x010662D7) [12405*]:
    → ""Giving up" isn't in my vocabulary, yet we've no choice but to hold off for now."
188: 0x05B2 [0x23] WAIT_FOR_DIALOG_INTERACTION
189: 0x05B3 [0x2B] Lion (ID: 17195735/0x010662D7) [12406*]:
    → "In the meantime, I'd like you to go to the place I saw in my dream. I'd go myself, but...."
190: 0x05BA [0x23] WAIT_FOR_DIALOG_INTERACTION
191: 0x05BB [0x01] GOTO 0x05C6
192: 0x05BE [0x2B] Lion (ID: 17195735/0x010662D7) [12407*]:
    → "In the meantime, I'd like you to go to the place I saw in my dream."
193: 0x05C5 [0x23] WAIT_FOR_DIALOG_INTERACTION

SUBROUTINE_05C6:
194: 0x05C6 [0x5B] LOAD_EXT_SCHEDULER: Load scheduler "tl41" with entities [Lion (ID: 17195735/0x010662D7), Lion (ID: 17195735/0x010662D7)], work=538*
195: 0x05D5 [0x52] END_LOAD_SCHEDULER: End scheduler "s122" with entities [EventEntity, EventEntity], work=761*

SUBROUTINE_05E4:
196: 0x05E4 [0x45] LOAD_SCHEDULED_TASK: Load scheduler "s123" with entities [EventEntity, EventEntity], work=[761*, 0*]
197: 0x05F5 [0x24] CREATE_DIALOG(message_id=12408*, default_option=0*, option_flags=0*)
    → "How about it? [I'll go./I can't right now./Uh...go where, exactly?]"
198: 0x05FC [0x25] WAIT_DIALOG_SELECT()
199: 0x05FD [0x02] IF !(Work_Zone[0] == 0*) GOTO 0x063F
200: 0x0605 [0x52] END_LOAD_SCHEDULER: End scheduler "s123" with entities [EventEntity, EventEntity], work=761*
201: 0x0614 [0x45] LOAD_SCHEDULED_TASK: Load scheduler "s125" with entities [EventEntity, EventEntity], work=[761*, 0*]
202: 0x0625 [0x5B] LOAD_EXT_SCHEDULER: Load scheduler "tl40" with entities [Lion (ID: 17195735/0x010662D7), Lion (ID: 17195735/0x010662D7)], work=538*
203: 0x0634 [0x2B] Lion (ID: 17195735/0x010662D7) [12410*]:
    → "Thank you. I'm pretty sure the place I saw was somewhere near Jeuno."
204: 0x063B [0x23] WAIT_FOR_DIALOG_INTERACTION
205: 0x063C [0x01] GOTO 0x06E4
206: 0x063F [0x02] IF !(Work_Zone[0] == 1*) GOTO 0x06A2
207: 0x0647 [0x52] END_LOAD_SCHEDULER: End scheduler "s123" with entities [EventEntity, EventEntity], work=761*
208: 0x0656 [0x45] LOAD_SCHEDULED_TASK: Load scheduler "s124" with entities [EventEntity, EventEntity], work=[761*, 0*]
209: 0x0667 [0x5B] LOAD_EXT_SCHEDULER: Load scheduler "tl40" with entities [Lion (ID: 17195735/0x010662D7), Lion (ID: 17195735/0x010662D7)], work=538*
210: 0x0676 [0x2B] Lion (ID: 17195735/0x010662D7) [12409*]:
    → "If you scratch my back, I'll scratch yours...but I can't force you."
211: 0x067D [0x23] WAIT_FOR_DIALOG_INTERACTION
212: 0x067E [0x5B] LOAD_EXT_SCHEDULER: Load scheduler "tl41" with entities [Lion (ID: 17195735/0x010662D7), Lion (ID: 17195735/0x010662D7)], work=538*
213: 0x068D [0x52] END_LOAD_SCHEDULER: End scheduler "s124" with entities [EventEntity, EventEntity], work=761*
214: 0x069C [0x01] GOTO 0x05E4

SUBROUTINE_06E4:
215: 0x06E4 [0x5B] LOAD_EXT_SCHEDULER: Load scheduler "tl41" with entities [Lion (ID: 17195735/0x010662D7), Lion (ID: 17195735/0x010662D7)], work=538*
216: 0x06F3 [0x52] END_LOAD_SCHEDULER: End scheduler "s125" with entities [EventEntity, EventEntity], work=761*

SUBROUTINE_0702:
217: 0x0702 [0x45] LOAD_SCHEDULED_TASK: Load scheduler "s126" with entities [EventEntity, EventEntity], work=[761*, 0*]
218: 0x0713 [0x24] CREATE_DIALOG(message_id=12412*, default_option=0*, option_flags=0*)
    → "Where did the vision take place? [Lower Jeuno./Delkfutt's Tower./Qufim Island.]"
219: 0x071A [0x25] WAIT_DIALOG_SELECT()
220: 0x071B [0x02] IF !(Work_Zone[0] == 0*) GOTO 0x078A
221: 0x0723 [0x52] END_LOAD_SCHEDULER: End scheduler "s126" with entities [EventEntity, EventEntity], work=761*
222: 0x0732 [0x45] LOAD_SCHEDULED_TASK: Load scheduler "s127" with entities [EventEntity, EventEntity], work=[761*, 0*]
223: 0x0743 [0x81] SET_ENTITY_BLINKING(blink_flag=0x00, entity=Lion (ID: 17195735/0x010662D7))
224: 0x0749 [0x5B] LOAD_EXT_SCHEDULER: Load scheduler "thk1" with entities [Lion (ID: 17195735/0x010662D7), Lion (ID: 17195735/0x010662D7)], work=95*
225: 0x0758 [0x2B] Lion (ID: 17195735/0x010662D7) [12413*]:
    → "Do you think? I'm not so sure..."
226: 0x075F [0x23] WAIT_FOR_DIALOG_INTERACTION
227: 0x0760 [0x81] SET_ENTITY_BLINKING(blink_flag=0x01, entity=Lion (ID: 17195735/0x010662D7))
228: 0x0766 [0x5B] LOAD_EXT_SCHEDULER: Load scheduler "thk2" with entities [Lion (ID: 17195735/0x010662D7), Lion (ID: 17195735/0x010662D7)], work=95*
229: 0x0775 [0x52] END_LOAD_SCHEDULER: End scheduler "s127" with entities [EventEntity, EventEntity], work=761*
230: 0x0784 [0x01] GOTO 0x0702

SUBROUTINE_07F9:
231: 0x07F9 [0x52] END_LOAD_SCHEDULER: End scheduler "s126" with entities [EventEntity, EventEntity], work=761*
232: 0x0808 [0x45] LOAD_SCHEDULED_TASK: Load scheduler "s128" with entities [EventEntity, EventEntity], work=[761*, 0*]
233: 0x0819 [0x5B] LOAD_EXT_SCHEDULER: Load scheduler "yes0" with entities [Lion (ID: 17195735/0x010662D7), Lion (ID: 17195735/0x010662D7)], work=99*
234: 0x0828 [0x2B] Lion (ID: 17195735/0x010662D7) [12414*]:
    → "That's it! It's so clear to me now!"
235: 0x082F [0x1C] WAIT(140* ticks)
236: 0x0832 [0x23] WAIT_FOR_DIALOG_INTERACTION
237: 0x0833 [0x52] END_LOAD_SCHEDULER: End scheduler "s128" with entities [EventEntity, EventEntity], work=761*
238: 0x0842 [0x45] LOAD_SCHEDULED_TASK: Load scheduler "s129" with entities [EventEntity, EventEntity], work=[761*, 0*]
239: 0x0853 [0x5B] LOAD_EXT_SCHEDULER: Load scheduler "tl40" with entities [Lion (ID: 17195735/0x010662D7), Lion (ID: 17195735/0x010662D7)], work=538*
240: 0x0862 [0x02] IF !(ExtData[1]->WorkLocal[1] == 1*) GOTO 0x0891
241: 0x086A [0x2B] Lion (ID: 17195735/0x010662D7) [12415*]:
    → "I wish I could go with you, but know that I'm there in spirit."
242: 0x0871 [0x23] WAIT_FOR_DIALOG_INTERACTION
243: 0x0872 [0x2B] Lion (ID: 17195735/0x010662D7) [12416*]:
    → "It doesn't take a soothsayer to know that darkness bodes ill. Stay safe."
244: 0x0879 [0x23] WAIT_FOR_DIALOG_INTERACTION
245: 0x087A [0xD0] LOAD_SCHEDULED_TASK_ALT5: Load scheduler "kie0" with entities [Lion (ID: 17195735/0x010662D7), Lion (ID: 17195735/0x010662D7)], work=[107*, 0*]
246: 0x088B [0x1C] WAIT(180* ticks)
247: 0x088E [0x01] GOTO 0x0899
248: 0x0891 [0x2B] Lion (ID: 17195735/0x010662D7) [12417*]:
    → "I'll be there, <Player>."
249: 0x0898 [0x23] WAIT_FOR_DIALOG_INTERACTION

SUBROUTINE_0899:
250: 0x0899 [0x5D] SET_MUSIC_VOLUME(volume=0*, fade_time=120*)
251: 0x089E [0x45] LOAD_SCHEDULED_TASK: Load scheduler "fdo1" with entities [EventEntity, EventEntity], work=[200*, 0*]
252: 0x08AF [0x55] WAIT_LOAD_SCHEDULER: Wait for scheduler "fdo1" with entities [EventEntity, EventEntity], work=200*
253: 0x08BE [0x52] END_LOAD_SCHEDULER: End scheduler "s129" with entities [EventEntity, EventEntity], work=761*
254: 0x08CD [0x35] LOAD_ZONE_NO_CLOSE(zone_id=102*)
255: 0x08D0 [0x78] ENABLE_GAME_TIMER_RESET_WEATHER()
256: 0x08D1 [0x1C] WAIT(1* ticks)
257: 0x08D4 [0x5C] MUSIC_CONTROL: Set Idle (Day) music to song 0*
258: 0x08D8 [0x5C] MUSIC_CONTROL: Set Idle (Night) music to song 0*
259: 0x08DC [0x9A] WAIT_MUSIC_SERVER()
260: 0x08DD [0x46] CAMERA_CONTROL: Restore default settings
261: 0x08DF [0x45] LOAD_SCHEDULED_TASK: Load scheduler "fdi2" with entities [EventEntity, EventEntity], work=[200*, 0*]
262: 0x08F0 [0x21] END_EVENT
263: 0x08F1 [0x00] END_REQSTACK()
```

#### Data or dead code:

```
# Dead code (unreachable instructions):
     0x069F [0x01] GOTO 0x06E4
# Dead code (unreachable instructions):
     0x0787 [0x01] GOTO 0x07F9
     0x07F6 [0x01] GOTO 0x07F9
```

### Event 15

#### Metadata

| Field        | Value      |
|--------------|------------|
| Entrypoint   | 0x08F2     |
| Data Size    | 4104 bytes |
| Instructions | 468        |

```
      00 01 02 03 04 05 06 07  08 09 0A 0B 0C 0D 0E 0F
      -- -- -- -- -- -- -- --  -- -- -- -- -- -- -- --
08F0:       42 03 01 00 08 10  03 01 10 07 80 43 00 43    B..........C.C
0900: 01 03 03 00 08 10 03 04  00 09 10 5D 01 80 02 80  ...........]....
0910: 45 00 80 F8 FF FF 7F F8  FF FF 7F 66 64 6F 31 01  E..........fdo1.
0920: 80 55 00 80 F8 FF FF 7F  F8 FF FF 7F 66 64 6F 31  .U..........fdo1
0930: 46 01 38 03 80 34 05 80  77 06 80 07 80 1C 07 80  F.8..4..w.......
0940: 2F 00 D7 62 06 01 2F 00  D6 62 06 01 2F 00 D8 62  /..b../..b../..b
0950: 06 01 2F 00 D9 62 06 01  4E 00 D7 62 06 01 4E 00  ../..b..N..b..N.
0960: D6 62 06 01 4E 00 D8 62  06 01 4E 00 D9 62 06 01  .b..N..b..N..b..
0970: 92 01 D7 62 06 01 92 01  D6 62 06 01 92 01 D8 62  ...b.....b.....b
0980: 06 01 94 01 D7 62 06 01  94 01 D6 62 06 01 94 01  .....b.....b....
0990: D8 62 06 01 94 01 F0 FF  FF 7F 94 01 D9 62 06 01  .b...........b..
09A0: 02 87 7F 4F 80 80 B2 09  27 05 F0 FF FF 7F 35 01  ...O....'.....5.
09B0: EF 09 02 87 7F 3D 80 80  C4 09 27 05 F0 FF FF 7F  .....=....'.....
09C0: 35 01 EF 09 02 87 7F 50  80 80 D6 09 27 05 F0 FF  5......P....'...
09D0: FF 7F 36 01 EF 09 02 87  7F 51 80 80 E8 09 27 05  ..6......Q....'.
09E0: F0 FF FF 7F 37 01 EF 09  27 05 F0 FF FF 7F 38 59  ....7...'.....8Y
09F0: 05 D9 62 06 01 01 BA D7  62 06 01 0D 80 0E 80 0A  ..b.....b.......
0A00: 80 16 80 BA F0 FF FF 7F  08 80 09 80 0A 80 0B 80  ................
0A10: BA D8 62 06 01 52 80 53  80 0A 80 54 80 BA D6 62  ..b..R.S...T...b
0A20: 06 01 55 80 56 80 0A 80  54 80 02 87 7F 57 80 80  ..U.V...T....W..
0A30: 42 0A BA D9 62 06 01 58  80 59 80 5A 80 5B 80 01  B...b..X.Y.Z.[..
0A40: AF 0A 02 87 7F 5C 80 80  5A 0A BA D9 62 06 01 58  .....\..Z...b..X
0A50: 80 59 80 5A 80 5B 80 01  AF 0A 02 87 7F 4F 80 80  .Y.Z.[.......O..
0A60: 72 0A BA D9 62 06 01 58  80 59 80 5D 80 5B 80 01  r...b..X.Y.].[..
0A70: AF 0A 02 87 7F 3D 80 80  8A 0A BA D9 62 06 01 58  .....=......b..X
0A80: 80 59 80 5D 80 5B 80 01  AF 0A 02 87 7F 51 80 80  .Y.].[.......Q..
0A90: A2 0A BA D9 62 06 01 58  80 59 80 5A 80 5B 80 01  ....b..X.Y.Z.[..
0AA0: AF 0A BA D9 62 06 01 58  80 59 80 5E 80 5B 80 80  ....b..X.Y.^.[..
0AB0: F0 FF FF 7F 80 D7 62 06  01 80 D6 62 06 01 80 D8  ......b....b....
0AC0: 62 06 01 80 D9 62 06 01  5C 00 01 80 5C 01 01 80  b....b..\...\...
0AD0: 9A 4A D6 62 06 01 D7 62  06 01 4A D8 62 06 01 D7  .J.b...b..J.b...
0AE0: 62 06 01 4A D7 62 06 01  D6 62 06 01 4A D9 62 06  b..J.b...b..J.b.
0AF0: 01 D6 62 06 01 1C 10 80  02 01 00 07 80 00 18 0B  ..b.............
0B00: 27 05 D7 62 06 01 05 D0  12 80 D7 62 06 01 D7 62  '..b.......b...b
0B10: 06 01 6C 69 30 31 01 80  5C 00 0C 80 5C 01 0C 80  ..li01..\...\...
0B20: 9A 27 05 F0 FF FF 7F 39  45 5F 80 F8 FF FF 7F F8  .'.....9E_......
0B30: FF FF 7F 73 30 30 30 01  80 1C 14 80 45 00 80 F8  ...s000.....E...
0B40: FF FF 7F F8 FF FF 7F 66  64 69 31 01 80 1C 02 80  .......fdi1.....
0B50: 52 5F 80 F8 FF FF 7F F8  FF FF 7F 73 30 30 30 45  R_.........s000E
0B60: 5F 80 F8 FF FF 7F F8 FF  FF 7F 73 30 30 31 01 80  _.........s001..
0B70: 79 00 D6 62 06 01 F0 FF  FF 7F 1C 10 80 5B 60 80  y..b.........[`.
0B80: D6 62 06 01 D6 62 06 01  74 6C 6B 30 02 01 00 07  .b...b..tlk0....
0B90: 80 00 9F 0B 2B D6 62 06  01 61 80 23 01 A7 0B 2B  ....+.b..a.#...+
0BA0: D6 62 06 01 62 80 23 5B  60 80 D6 62 06 01 D6 62  .b..b.#[`..b...b
0BB0: 06 01 74 6C 6B 31 52 5F  80 F8 FF FF 7F F8 FF FF  ..tlk1R_........
0BC0: 7F 73 30 30 31 02 87 7F  4F 80 80 E1 0B 45 5F 80  .s001...O....E_.
0BD0: F8 FF FF 7F F8 FF FF 7F  73 30 30 33 01 80 01 0E  ........s003....
0BE0: 0C 02 87 7F 3D 80 80 FD  0B 45 5F 80 F8 FF FF 7F  ....=....E_.....
0BF0: F8 FF FF 7F 73 30 30 33  01 80 01 0E 0C 45 5F 80  ....s003.....E_.
0C00: F8 FF FF 7F F8 FF FF 7F  73 30 30 32 01 80 D0 63  ........s002...c
0C10: 80 D9 62 06 01 D9 62 06  01 73 74 61 31 01 80 1C  ..b...b..sta1...
0C20: 21 80 4A D7 62 06 01 F0  FF FF 7F 7B D7 62 06 01  !.J.b......{.b..
0C30: 7B D8 62 06 01 1C 21 80  81 00 D7 62 06 01 5B 11  {.b...!....b..[.
0C40: 80 D7 62 06 01 D7 62 06  01 68 69 7A 30 52 5F 80  ..b...b..hiz0R_.
0C50: F8 FF FF 7F F8 FF FF 7F  73 30 30 32 52 5F 80 F8  ........s002R_..
0C60: FF FF 7F F8 FF FF 7F 73  30 30 33 45 5F 80 F8 FF  .......s003E_...
0C70: FF 7F F8 FF FF 7F 73 30  30 34 01 80 79 00 D6 62  ......s004..y..b
0C80: 06 01 D7 62 06 01 1C 02  80 5B 64 80 D6 62 06 01  ...b.....[d..b..
0C90: D6 62 06 01 62 69 6B 30  5B 65 80 D8 62 06 01 D8  .b..bik0[e..b...
0CA0: 62 06 01 68 69 7A 30 52  5F 80 F8 FF FF 7F F8 FF  b..hiz0R_.......
0CB0: FF 7F 73 30 30 34 45 5F  80 F8 FF FF 7F F8 FF FF  ..s004E_........
0CC0: 7F 73 30 30 35 01 80 2B  D8 62 06 01 66 80 1C 00  .s005..+.b..f...
0CD0: 80 45 00 80 F8 FF FF 7F  F8 FF FF 7F 66 64 6F 31  .E..........fdo1
0CE0: 01 80 55 00 80 F8 FF FF  7F F8 FF FF 7F 66 64 6F  ..U..........fdo
0CF0: 31 52 5F 80 F8 FF FF 7F  F8 FF FF 7F 73 30 30 35  1R_.........s005
0D00: D0 63 80 D9 62 06 01 D9  62 06 01 6B 69 6C 32 01  .c..b...b..kil2.
0D10: 80 6B 69 64 6C 30 D8 62  06 01 6B 69 64 6C 30 D6  .kidl0.b..kidl0.
0D20: 62 06 01 27 05 D9 62 06  01 02 BA D9 62 06 01 67  b..'..b.....b..g
0D30: 80 68 80 0A 80 5B 80 80  D9 62 06 01 4A F0 FF FF  .h...[...b..J...
0D40: 7F D7 62 06 01 4A D9 62  06 01 D7 62 06 01 79 00  ..b..J.b...b..y.
0D50: D8 62 06 01 D7 62 06 01  1C 10 80 5B 11 80 D7 62  .b...b.....[...b
0D60: 06 01 D7 62 06 01 6B 61  6B 6C D0 63 80 D9 62 06  ...b..kakl.c..b.
0D70: 01 D9 62 06 01 73 74 61  72 01 80 27 05 F0 FF FF  ..b..star..'....
0D80: 7F 3A 1C 10 80 45 5F 80  F8 FF FF 7F F8 FF FF 7F  .:...E_.........
0D90: 73 30 30 36 01 80 1C 14  80 45 00 80 F8 FF FF 7F  s006.....E......
0DA0: F8 FF FF 7F 66 64 69 31  01 80 2B D7 62 06 01 69  ....fdi1..+.b..i
0DB0: 80 1C 02 80 5F 05 11 80  D7 62 06 01 D7 62 06 01  ...._....b...b..
0DC0: 6B 61 6B 31 6A 80 2B D7  62 06 01 6B 80 23 2B D7  kak1j.+.b..k.#+.
0DD0: 62 06 01 6C 80 23 5F 07  D7 62 06 01 D7 62 06 01  b..l.#_..b...b..
0DE0: 6B 61 6B 31 52 5F 80 F8  FF FF 7F F8 FF FF 7F 73  kak1R_.........s
0DF0: 30 30 36 45 5F 80 F8 FF  FF 7F F8 FF FF 7F 73 30  006E_.........s0
0E00: 38 31 01 80 27 05 D7 62  06 01 03 7B D7 62 06 01  81..'..b...{.b..
0E10: 2B D7 62 06 01 6D 80 1C  10 80 4B F0 FF FF 7F 6E  +.b..m....K....n
0E20: 80 4B D9 62 06 01 6E 80  1C 10 80 52 5F 80 F8 FF  .K.b..n....R_...
0E30: FF 7F F8 FF FF 7F 73 30  38 31 45 5F 80 F8 FF FF  ......s081E_....
0E40: 7F F8 FF FF 7F 73 30 30  37 01 80 23 2B D7 62 06  .....s007..#+.b.
0E50: 01 6F 80 23 2A 05 D7 62  06 01 52 5F 80 F8 FF FF  .o.#*..b..R_....
0E60: 7F F8 FF FF 7F 73 30 30  37 45 5F 80 F8 FF FF 7F  .....s007E_.....
0E70: F8 FF FF 7F 73 30 30 38  01 80 2B D7 62 06 01 70  ....s008..+.b..p
0E80: 80 23 52 5F 80 F8 FF FF  7F F8 FF FF 7F 73 30 30  .#R_.........s00
0E90: 38 45 5F 80 F8 FF FF 7F  F8 FF FF 7F 73 30 30 39  8E_.........s009
0EA0: 01 80 5B 64 80 D6 62 06  01 D6 62 06 01 74 6C 63  ..[d..b...b..tlc
0EB0: 30 2B D6 62 06 01 71 80  23 5B 64 80 D6 62 06 01  0+.b..q.#[d..b..
0EC0: D6 62 06 01 74 6C 63 31  4A D7 62 06 01 D6 62 06  .b..tlc1J.b...b.
0ED0: 01 1C 10 80 5B 11 80 D7  62 06 01 D7 62 06 01 79  ....[...b...b..y
0EE0: 65 73 30 1C 4A 80 5B 3E  80 D7 62 06 01 D7 62 06  es0.J.[>..b...b.
0EF0: 01 74 6C 34 30 2B D7 62  06 01 72 80 23 5B 3E 80  .tl40+.b..r.#[>.
0F00: D7 62 06 01 D7 62 06 01  74 6C 34 31 52 5F 80 F8  .b...b..tl41R_..
0F10: FF FF 7F F8 FF FF 7F 73  30 30 39 45 5F 80 F8 FF  .......s009E_...
0F20: FF 7F F8 FF FF 7F 73 30  31 30 01 80 5B 73 80 D8  ......s010..[s..
0F30: 62 06 01 D8 62 06 01 74  6B 62 30 2B D8 62 06 01  b...b..tkb0+.b..
0F40: 74 80 23 5B 73 80 D8 62  06 01 D8 62 06 01 74 6B  t.#[s..b...b..tk
0F50: 62 31 52 5F 80 F8 FF FF  7F F8 FF FF 7F 73 30 31  b1R_.........s01
0F60: 30 45 5F 80 F8 FF FF 7F  F8 FF FF 7F 73 30 31 31  0E_.........s011
0F70: 01 80 D0 63 80 D9 62 06  01 D9 62 06 01 6B 69 6C  ...c..b...b..kil
0F80: 6C 01 80 4A D7 62 06 01  F0 FF FF 7F 1C 10 80 02  l..J.b..........
0F90: 75 80 04 00 00 A5 10 5B  3E 80 D7 62 06 01 D7 62  u......[>..b...b
0FA0: 06 01 74 6C 34 30 2B D7  62 06 01 76 80 23 2B D7  ..tl40+.b..v.#+.
0FB0: 62 06 01 77 80 23 5B 3E  80 D7 62 06 01 D7 62 06  b..w.#[>..b...b.
0FC0: 01 74 6C 34 31 52 5F 80  F8 FF FF 7F F8 FF FF 7F  .tl41R_.........
0FD0: 73 30 31 31 45 5F 80 F8  FF FF 7F F8 FF FF 7F 73  s011E_.........s
0FE0: 30 31 34 01 80 5B 78 80  D6 62 06 01 D6 62 06 01  014..[x..b...b..
0FF0: 79 65 73 30 2B D6 62 06  01 79 80 23 1C 21 80 D0  yes0+.b..y.#.!..
1000: 63 80 D9 62 06 01 D9 62  06 01 73 74 61 72 01 80  c..b...b..star..
1010: 4A D7 62 06 01 D6 62 06  01 1C 7A 80 23 52 5F 80  J.b...b...z.#R_.
1020: F8 FF FF 7F F8 FF FF 7F  73 30 31 34 45 5F 80 F8  ........s014E_..
1030: FF FF 7F F8 FF FF 7F 73  30 31 35 01 80 5B 60 80  .......s015..[`.
1040: D6 62 06 01 D6 62 06 01  74 6C 6B 30 2B D6 62 06  .b...b..tlk0+.b.
1050: 01 7B 80 23 2B D6 62 06  01 7C 80 23 5B 60 80 D6  .{.#+.b..|.#[`..
1060: 62 06 01 D6 62 06 01 74  6C 6B 31 52 5F 80 F8 FF  b...b..tlk1R_...
1070: FF 7F F8 FF FF 7F 73 30  31 35 45 5F 80 F8 FF FF  ......s015E_....
1080: 7F F8 FF FF 7F 73 30 31  36 01 80 5B 73 80 D8 62  .....s016..[s..b
1090: 06 01 D8 62 06 01 75 64  65 30 2B D8 62 06 01 7D  ...b..ude0+.b..}
10A0: 80 23 01 4B 13 02 03 00  07 80 00 C2 11 5B 3E 80  .#.K.........[>.
10B0: D7 62 06 01 D7 62 06 01  74 6C 34 30 2B D7 62 06  .b...b..tl40+.b.
10C0: 01 7E 80 23 2B D7 62 06  01 7F 80 23 2B D7 62 06  .~.#+.b....#+.b.
10D0: 01 80 80 23 5B 3E 80 D7  62 06 01 D7 62 06 01 74  ...#[>..b...b..t
10E0: 6C 34 31 52 5F 80 F8 FF  FF 7F F8 FF FF 7F 73 30  l41R_.........s0
10F0: 31 31 45 5F 80 F8 FF FF  7F F8 FF FF 7F 73 30 31  11E_.........s01
1100: 34 01 80 5B 78 80 D6 62  06 01 D6 62 06 01 79 65  4..[x..b...b..ye
1110: 73 30 2B D6 62 06 01 81  80 1C 21 80 D0 63 80 D9  s0+.b.....!..c..
1120: 62 06 01 D9 62 06 01 73  74 61 72 01 80 4A D7 62  b...b..star..J.b
1130: 06 01 D6 62 06 01 1C 7A  80 23 52 5F 80 F8 FF FF  ...b...z.#R_....
1140: 7F F8 FF FF 7F 73 30 31  34 45 5F 80 F8 FF FF 7F  .....s014E_.....
1150: F8 FF FF 7F 73 30 31 35  01 80 5B 60 80 D6 62 06  ....s015..[`..b.
1160: 01 D6 62 06 01 74 6C 6B  30 2B D6 62 06 01 82 80  ..b..tlk0+.b....
1170: 23 2B D6 62 06 01 83 80  23 5B 60 80 D6 62 06 01  #+.b....#[`..b..
1180: D6 62 06 01 74 6C 6B 31  52 5F 80 F8 FF FF 7F F8  .b..tlk1R_......
1190: FF FF 7F 73 30 31 35 45  5F 80 F8 FF FF 7F F8 FF  ...s015E_.......
11A0: FF 7F 73 30 31 36 01 80  5B 73 80 D8 62 06 01 D8  ..s016..[s..b...
11B0: 62 06 01 75 64 65 30 2B  D8 62 06 01 84 80 23 01  b..ude0+.b....#.
11C0: 4B 13 5B 3E 80 D7 62 06  01 D7 62 06 01 74 6C 35  K.[>..b...b..tl5
11D0: 30 2B D7 62 06 01 85 80  23 52 5F 80 F8 FF FF 7F  0+.b....#R_.....
11E0: F8 FF FF 7F 73 30 31 31  45 5F 80 F8 FF FF 7F F8  ....s011E_......
11F0: FF FF 7F 73 30 31 32 01  80 5B 73 80 D8 62 06 01  ...s012..[s..b..
1200: D8 62 06 01 74 6B 62 30  2B D8 62 06 01 86 80 1C  .b..tkb0+.b.....
1210: 21 80 D0 63 80 D9 62 06  01 D9 62 06 01 73 74 61  !..c..b...b..sta
1220: 72 01 80 1C 21 80 52 5F  80 F8 FF FF 7F F8 FF FF  r...!.R_........
1230: 7F 73 30 31 32 45 5F 80  F8 FF FF 7F F8 FF FF 7F  .s012E_.........
1240: 73 30 31 33 01 80 5B 73  80 D8 62 06 01 D8 62 06  s013..[s..b...b.
1250: 01 74 6B 62 31 5B 11 80  D7 62 06 01 D7 62 06 01  .tkb1[...b...b..
1260: 79 65 73 30 2B D7 62 06  01 87 80 1C 4A 80 23 52  yes0+.b.....J.#R
1270: 5F 80 F8 FF FF 7F F8 FF  FF 7F 73 30 31 33 45 5F  _.........s013E_
1280: 80 F8 FF FF 7F F8 FF FF  7F 73 30 31 34 01 80 5B  .........s014..[
1290: 78 80 D6 62 06 01 D6 62  06 01 79 65 73 30 2B D6  x..b...b..yes0+.
12A0: 62 06 01 88 80 1C 21 80  4A D7 62 06 01 D6 62 06  b.....!.J.b...b.
12B0: 01 1C 7A 80 23 52 5F 80  F8 FF FF 7F F8 FF FF 7F  ..z.#R_.........
12C0: 73 30 31 34 45 5F 80 F8  FF FF 7F F8 FF FF 7F 73  s014E_.........s
12D0: 30 31 35 01 80 5B 60 80  D6 62 06 01 D6 62 06 01  015..[`..b...b..
12E0: 74 6C 6B 30 2B D6 62 06  01 89 80 23 2B D6 62 06  tlk0+.b....#+.b.
12F0: 01 8A 80 23 2B D6 62 06  01 8B 80 23 5B 60 80 D6  ...#+.b....#[`..
1300: 62 06 01 D6 62 06 01 74  6C 6B 31 52 5F 80 F8 FF  b...b..tlk1R_...
1310: FF 7F F8 FF FF 7F 73 30  31 35 45 5F 80 F8 FF FF  ......s015E_....
1320: 7F F8 FF FF 7F 73 30 31  36 01 80 5B 73 80 D8 62  .....s016..[s..b
1330: 06 01 D8 62 06 01 75 64  65 30 2B D8 62 06 01 8C  ...b..ude0+.b...
1340: 80 23 03 01 10 45 80 43  00 43 01 D0 63 80 D9 62  .#...E.C.C..c..b
1350: 06 01 D9 62 06 01 6B 69  6C 6C 01 80 4A D7 62 06  ...b..kill..J.b.
1360: 01 F0 FF FF 7F 4A F0 FF  FF 7F D7 62 06 01 4A D9  .....J.....b..J.
1370: 62 06 01 D7 62 06 01 7B  F0 FF FF 7F 7B D9 62 06  b...b..{....{.b.
1380: 01 1C 10 80 52 5F 80 F8  FF FF 7F F8 FF FF 7F 73  ....R_.........s
1390: 30 31 36 45 5F 80 F8 FF  FF 7F F8 FF FF 7F 73 30  016E_.........s0
13A0: 31 37 01 80 5B 3E 80 D7  62 06 01 D7 62 06 01 74  17..[>..b...b..t
13B0: 6C 35 30 2B D7 62 06 01  8D 80 23 02 03 00 07 80  l50+.b....#.....
13C0: 01 CE 13 2B D7 62 06 01  8E 80 23 01 D6 13 2B D7  ...+.b....#...+.
13D0: 62 06 01 8F 80 23 52 5F  80 F8 FF FF 7F F8 FF FF  b....#R_........
13E0: 7F 73 30 31 37 02 87 7F  4F 80 80 01 14 45 5F 80  .s017...O....E_.
13F0: F8 FF FF 7F F8 FF FF 7F  73 30 38 35 01 80 01 2E  ........s085....
1400: 14 02 87 7F 3D 80 80 1D  14 45 5F 80 F8 FF FF 7F  ....=....E_.....
1410: F8 FF FF 7F 73 30 38 35  01 80 01 2E 14 45 5F 80  ....s085.....E_.
1420: F8 FF FF 7F F8 FF FF 7F  73 30 38 34 01 80 D0 15  ........s084....
1430: 80 D9 62 06 01 D9 62 06  01 6D 61 78 30 01 80 1C  ..b...b..max0...
1440: 35 80 81 00 D7 62 06 01  7C 00 D7 62 06 01 5B 11  5....b..|..b..[.
1450: 80 D7 62 06 01 D7 62 06  01 68 61 6E 30 52 5F 80  ..b...b..han0R_.
1460: F8 FF FF 7F F8 FF FF 7F  73 30 38 34 52 5F 80 F8  ........s084R_..
1470: FF FF 7F F8 FF FF 7F 73  30 38 35 45 5F 80 F8 FF  .......s085E_...
1480: FF 7F F8 FF FF 7F 73 30  38 33 01 80 1C 2A 80 52  ......s083...*.R
1490: 5F 80 F8 FF FF 7F F8 FF  FF 7F 73 30 38 33 45 5F  _.........s083E_
14A0: 80 F8 FF FF 7F F8 FF FF  7F 73 30 31 38 01 80 D0  .........s018...
14B0: 90 80 F0 FF FF 7F F0 FF  FF 7F 74 67 74 30 01 80  ..........tgt0..
14C0: 1C 1D 80 45 91 80 F0 FF  FF 7F F0 FF FF 7F 77 68  ...E..........wh
14D0: 6F 31 01 80 55 91 80 F0  FF FF 7F F0 FF FF 7F 77  o1..U..........w
14E0: 68 6F 31 52 5F 80 F8 FF  FF 7F F8 FF FF 7F 73 30  ho1R_.........s0
14F0: 31 38 D0 63 80 D9 62 06  01 D9 62 06 01 73 74 61  18.c..b...b..sta
1500: 72 01 80 45 5F 80 F8 FF  FF 7F F8 FF FF 7F 73 30  r..E_.........s0
1510: 31 39 01 80 1C 14 80 45  91 80 F0 FF FF 7F F0 FF  19.....E........
1520: FF 7F 77 68 69 31 01 80  7C 01 D7 62 06 01 5B 11  ..whi1..|..b..[.
1530: 80 D7 62 06 01 D7 62 06  01 68 61 6E 31 79 00 D7  ..b...b..han1y..
1540: 62 06 01 D6 62 06 01 2B  D7 62 06 01 92 80 1C 35  b...b..+.b.....5
1550: 80 81 01 D7 62 06 01 23  52 5F 80 F8 FF FF 7F F8  ....b..#R_......
1560: FF FF 7F 73 30 31 39 45  5F 80 F8 FF FF 7F F8 FF  ...s019E_.......
1570: FF 7F 73 30 32 30 01 80  5B 64 80 D6 62 06 01 D6  ..s020..[d..b...
1580: 62 06 01 74 6C 63 30 2B  D6 62 06 01 93 80 23 2B  b..tlc0+.b....#+
1590: D6 62 06 01 94 80 23 5B  64 80 D6 62 06 01 D6 62  .b....#[d..b...b
15A0: 06 01 74 6C 63 31 79 00  D7 62 06 01 F0 FF FF 7F  ..tlc1y..b......
15B0: 2B D7 62 06 01 95 80 23  27 05 F0 FF FF 7F 3C 1C  +.b....#'.....<.
15C0: 02 80 52 5F 80 F8 FF FF  7F F8 FF FF 7F 73 30 32  ..R_.........s02
15D0: 30 45 5F 80 F8 FF FF 7F  F8 FF FF 7F 73 30 32 31  0E_.........s021
15E0: 01 80 5B 11 80 D7 62 06  01 D7 62 06 01 79 65 73  ..[...b...b..yes
15F0: 30 2B D7 62 06 01 96 80  1C 21 80 D0 63 80 D9 62  0+.b.....!..c..b
1600: 06 01 D9 62 06 01 6B 69  6C 6C 01 80 6B 69 64 6C  ...b..kill..kidl
1610: 30 F0 FF FF 7F 4E 01 D9  62 06 01 BA D6 62 06 01  0....N..b....b..
1620: 97 80 98 80 0A 80 99 80  4A D6 62 06 01 D7 62 06  ........J.b...b.
1630: 01 1C 21 80 23 52 5F 80  F8 FF FF 7F F8 FF FF 7F  ..!.#R_.........
1640: 73 30 32 31 45 5F 80 F8  FF FF 7F F8 FF FF 7F 73  s021E_.........s
1650: 30 32 32 01 80 4A D7 62  06 01 D6 62 06 01 1C 10  022..J.b...b....
1660: 80 5B 3E 80 D7 62 06 01  D7 62 06 01 74 6C 35 30  .[>..b...b..tl50
1670: 02 03 00 07 80 01 83 16  2B D7 62 06 01 9A 80 23  ........+.b....#
1680: 01 8B 16 2B D7 62 06 01  9B 80 23 79 00 D7 62 06  ...+.b....#y..b.
1690: 01 D8 62 06 01 2B D7 62  06 01 9C 80 23 52 5F 80  ..b..+.b....#R_.
16A0: F8 FF FF 7F F8 FF FF 7F  73 30 32 32 45 5F 80 F8  ........s022E_..
16B0: FF FF 7F F8 FF FF 7F 73  30 32 33 01 80 5B 73 80  .......s023..[s.
16C0: D8 62 06 01 D8 62 06 01  75 64 65 31 2B D8 62 06  .b...b..ude1+.b.
16D0: 01 9D 80 23 52 5F 80 F8  FF FF 7F F8 FF FF 7F 73  ...#R_.........s
16E0: 30 32 33 45 5F 80 F8 FF  FF 7F F8 FF FF 7F 73 30  023E_.........s0
16F0: 32 34 01 80 79 00 D8 62  06 01 D6 62 06 01 79 00  24..y..b...b..y.
1700: D7 62 06 01 D6 62 06 01  5B 64 80 D6 62 06 01 D6  .b...b..[d..b...
1710: 62 06 01 74 6C 63 30 2B  D6 62 06 01 9E 80 23 5B  b..tlc0+.b....#[
1720: 64 80 D6 62 06 01 D6 62  06 01 74 6C 63 31 5B 65  d..b...b..tlc1[e
1730: 80 D8 62 06 01 D8 62 06  01 79 65 73 30 1C 10 80  ..b...b..yes0...
1740: 52 5F 80 F8 FF FF 7F F8  FF FF 7F 73 30 32 34 45  R_.........s024E
1750: 5F 80 F8 FF FF 7F F8 FF  FF 7F 73 30 32 35 01 80  _.........s025..
1760: 1C 02 80 52 5F 80 F8 FF  FF 7F F8 FF FF 7F 73 30  ...R_.........s0
1770: 32 35 45 5F 80 F8 FF FF  7F F8 FF FF 7F 73 30 32  25E_.........s02
1780: 36 01 80 1C 14 80 27 05  D8 62 06 01 02 7B D8 62  6.....'..b...{.b
1790: 06 01 5B 11 80 D7 62 06  01 D7 62 06 01 79 65 73  ..[...b...b..yes
17A0: 30 1C 4A 80 02 01 00 07  80 00 C3 17 D0 12 80 D7  0.J.............
17B0: 62 06 01 D7 62 06 01 6B  69 65 30 01 80 1C 1D 80  b...b..kie0.....
17C0: 01 D2 17 27 05 D7 62 06  01 04 7B D7 62 06 01 1C  ...'..b...{.b...
17D0: 1D 80 52 5F 80 F8 FF FF  7F F8 FF FF 7F 73 30 32  ..R_.........s02
17E0: 36 45 5F 80 F8 FF FF 7F  F8 FF FF 7F 73 30 32 37  6E_.........s027
17F0: 01 80 4A D6 62 06 01 F0  FF FF 7F 1C 10 80 4A F0  ..J.b.........J.
1800: FF FF 7F D6 62 06 01 5B  60 80 D6 62 06 01 D6 62  ....b..[`..b...b
1810: 06 01 74 6C 6B 30 2B D6  62 06 01 9F 80 23 02 03  ..tlk0+.b....#..
1820: 00 07 80 01 31 18 2B D6  62 06 01 A0 80 23 01 39  ....1.+.b....#.9
1830: 18 2B D6 62 06 01 A1 80  23 5B 60 80 D6 62 06 01  .+.b....#[`..b..
1840: D6 62 06 01 74 6C 6B 31  52 5F 80 F8 FF FF 7F F8  .b..tlk1R_......
1850: FF FF 7F 73 30 32 37 45  5F 80 F8 FF FF 7F F8 FF  ...s027E_.......
1860: FF 7F 73 30 32 38 01 80  2B D6 62 06 01 A2 80 1C  ..s028..+.b.....
1870: 02 80 52 5F 80 F8 FF FF  7F F8 FF FF 7F 73 30 32  ..R_.........s02
1880: 38 45 5F 80 F8 FF FF 7F  F8 FF FF 7F 73 30 32 39  8E_.........s029
1890: 01 80 27 05 D6 62 06 01  09 7B D6 62 06 01 1C 1D  ..'..b...{.b....
18A0: 80 5D 01 80 02 80 45 00  80 F8 FF FF 7F F8 FF FF  .]....E.........
18B0: 7F 66 64 6F 31 01 80 55  00 80 F8 FF FF 7F F8 FF  .fdo1..U........
18C0: FF 7F 66 64 6F 31 52 5F  80 F8 FF FF 7F F8 FF FF  ..fdo1R_........
18D0: 7F 73 30 32 39 35 4E 80  78 1C 07 80 5C 00 01 80  .s0295N.x...\...
18E0: 5C 01 01 80 9A 46 00 45  00 80 F8 FF FF 7F F8 FF  \....F.E........
18F0: FF 7F 66 64 69 32 01 80  21 00                    ..fdi2..!.      
```

#### Opcodes

```
  0: 0x08F2 [0x42] SET_CLI_EVENT_CANCEL_DATA()
  1: 0x08F3 [0x03] ExtData[1]->WorkLocal[1] = Work_Zone[8]
  2: 0x08F8 [0x03] Work_Zone[1] = 1*
  3: 0x08FD [0x43] SEND_EVENT_UPDATE: Send pending tag to server (packet 0x005B)
  4: 0x08FF [0x43] SEND_EVENT_UPDATE: Check pending flag (skip if not pending)
  5: 0x0901 [0x03] ExtData[1]->WorkLocal[3] = Work_Zone[8]
  6: 0x0906 [0x03] ExtData[1]->WorkLocal[4] = Work_Zone[9]
  7: 0x090B [0x5D] SET_MUSIC_VOLUME(volume=0*, fade_time=120*)
  8: 0x0910 [0x45] LOAD_SCHEDULED_TASK: Load scheduler "fdo1" with entities [EventEntity, EventEntity], work=[200*, 0*]
  9: 0x0921 [0x55] WAIT_LOAD_SCHEDULER: Wait for scheduler "fdo1" with entities [EventEntity, EventEntity], work=200*
 10: 0x0930 [0x46] CAMERA_CONTROL: Disable user control
 11: 0x0932 [0x38] SET_CLIENT_EVENT_MODE(mode=27*)
 12: 0x0935 [0x34] LOAD_UNLOAD_ZONE(zone_id=541*)
 13: 0x0938 [0x77] SET_EVENT_TIME_WEATHER(hour=255*, weather=1*)
 14: 0x093D [0x1C] WAIT(1* ticks)
 15: 0x0940 [0x2F] Lion (ID: 17195735/0x010662D7)->Render.Flags0 &= ~0x80000 // Bit 19
 16: 0x0946 [0x2F] Iroha (ID: 17195734/0x010662D6)->Render.Flags0 &= ~0x80000 // Bit 19
 17: 0x094C [0x2F] Zeid (ID: 17195736/0x010662D8)->Render.Flags0 &= ~0x80000 // Bit 19
 18: 0x0952 [0x2F] Unnamed NPC (ID: 17195737/0x010662D9)->Render.Flags0 &= ~0x80000 // Bit 19
 19: 0x0958 [0x4E] SET_ENTITY_HIDE_FLAG: Show Lion (ID: 17195735/0x010662D7)
 20: 0x095E [0x4E] SET_ENTITY_HIDE_FLAG: Show Iroha (ID: 17195734/0x010662D6)
 21: 0x0964 [0x4E] SET_ENTITY_HIDE_FLAG: Show Zeid (ID: 17195736/0x010662D8)
 22: 0x096A [0x4E] SET_ENTITY_HIDE_FLAG: Show Unnamed NPC (ID: 17195737/0x010662D9)
 23: 0x0970 [0x92] Lion (ID: 17195735/0x010662D7)->Render.Flags3 ^= 0x01
 24: 0x0976 [0x92] Iroha (ID: 17195734/0x010662D6)->Render.Flags3 ^= 0x01
 25: 0x097C [0x92] Zeid (ID: 17195736/0x010662D8)->Render.Flags3 ^= 0x01
 26: 0x0982 [0x94] Lion (ID: 17195735/0x010662D7)->Render.Flags3 ^= 0x01
 27: 0x0988 [0x94] Iroha (ID: 17195734/0x010662D6)->Render.Flags3 ^= 0x01
 28: 0x098E [0x94] Zeid (ID: 17195736/0x010662D8)->Render.Flags3 ^= 0x01
 29: 0x0994 [0x94] LocalPlayer->Render.Flags3 ^= 0x01
 30: 0x099A [0x94] Unnamed NPC (ID: 17195737/0x010662D9)->Render.Flags3 ^= 0x01
 31: 0x09A0 [0x02] IF !(LocalPlayer->Race == 5*) GOTO 0x09B2
 32: 0x09A8 [0x27] REQ_SET(priority=0x05, entity_id=LocalPlayer, tag_num=0x35)
 33: 0x09AF [0x01] GOTO 0x09EF
 34: 0x09B2 [0x02] IF !(LocalPlayer->Race == 6*) GOTO 0x09C4
 35: 0x09BA [0x27] REQ_SET(priority=0x05, entity_id=LocalPlayer, tag_num=0x35)
 36: 0x09C1 [0x01] GOTO 0x09EF
 37: 0x09C4 [0x02] IF !(LocalPlayer->Race == 7*) GOTO 0x09D6
 38: 0x09CC [0x27] REQ_SET(priority=0x05, entity_id=LocalPlayer, tag_num=0x36)
 39: 0x09D3 [0x01] GOTO 0x09EF
 40: 0x09D6 [0x02] IF !(LocalPlayer->Race == 8*) GOTO 0x09E8
 41: 0x09DE [0x27] REQ_SET(priority=0x05, entity_id=LocalPlayer, tag_num=0x37)
 42: 0x09E5 [0x01] GOTO 0x09EF
 43: 0x09E8 [0x27] REQ_SET(priority=0x05, entity_id=LocalPlayer, tag_num=0x38)

SUBROUTINE_09EF:
 44: 0x09EF [0x59] UPDATE_ENTITY_DATA: Unnamed NPC (ID: 17195737/0x010662D9)->Render.Flags0 |= 0x200000
 45: 0x09F6 [0xBA] SET_ENTITY_POSITION(entity_id=Lion (ID: 17195735/0x010662D7), pos_x=-399.936*, pos_z=354.066*, pos_y=-19.099*, direction=268.1°*)
 46: 0x0A03 [0xBA] SET_ENTITY_POSITION(entity_id=LocalPlayer, pos_x=-397.200*, pos_z=347.940*, pos_y=-19.099*, direction=270.0°*)
 47: 0x0A10 [0xBA] SET_ENTITY_POSITION(entity_id=Zeid (ID: 17195736/0x010662D8), pos_x=-401.424*, pos_z=355.342*, pos_y=-19.099*, direction=170.6°*)
 48: 0x0A1D [0xBA] SET_ENTITY_POSITION(entity_id=Iroha (ID: 17195734/0x010662D6), pos_x=-399.696*, pos_z=356.554*, pos_y=-19.099*, direction=170.6°*)
 49: 0x0A2A [0x02] IF !(LocalPlayer->Race == 3*) GOTO 0x0A42
 50: 0x0A32 [0xBA] SET_ENTITY_POSITION(entity_id=Unnamed NPC (ID: 17195737/0x010662D9), pos_x=-397.800*, pos_z=354.350*, pos_y=-20.299*, direction=306.8°*)
 51: 0x0A3F [0x01] GOTO 0x0AAF
 52: 0x0A42 [0x02] IF !(LocalPlayer->Race == 4*) GOTO 0x0A5A
 53: 0x0A4A [0xBA] SET_ENTITY_POSITION(entity_id=Unnamed NPC (ID: 17195737/0x010662D9), pos_x=-397.800*, pos_z=354.350*, pos_y=-20.299*, direction=306.8°*)
 54: 0x0A57 [0x01] GOTO 0x0AAF
 55: 0x0A5A [0x02] IF !(LocalPlayer->Race == 5*) GOTO 0x0A72
 56: 0x0A62 [0xBA] SET_ENTITY_POSITION(entity_id=Unnamed NPC (ID: 17195737/0x010662D9), pos_x=-397.800*, pos_z=354.350*, pos_y=-19.399*, direction=306.8°*)
 57: 0x0A6F [0x01] GOTO 0x0AAF
 58: 0x0A72 [0x02] IF !(LocalPlayer->Race == 6*) GOTO 0x0A8A
 59: 0x0A7A [0xBA] SET_ENTITY_POSITION(entity_id=Unnamed NPC (ID: 17195737/0x010662D9), pos_x=-397.800*, pos_z=354.350*, pos_y=-19.399*, direction=306.8°*)
 60: 0x0A87 [0x01] GOTO 0x0AAF
 61: 0x0A8A [0x02] IF !(LocalPlayer->Race == 8*) GOTO 0x0AA2
 62: 0x0A92 [0xBA] SET_ENTITY_POSITION(entity_id=Unnamed NPC (ID: 17195737/0x010662D9), pos_x=-397.800*, pos_z=354.350*, pos_y=-20.299*, direction=306.8°*)
 63: 0x0A9F [0x01] GOTO 0x0AAF
 64: 0x0AA2 [0xBA] SET_ENTITY_POSITION(entity_id=Unnamed NPC (ID: 17195737/0x010662D9), pos_x=-397.800*, pos_z=354.350*, pos_y=-20.099*, direction=306.8°*)

SUBROUTINE_0AAF:
 65: 0x0AAF [0x80] LOAD_WAIT(entity=LocalPlayer)
 66: 0x0AB4 [0x80] LOAD_WAIT(entity=Lion (ID: 17195735/0x010662D7))
 67: 0x0AB9 [0x80] LOAD_WAIT(entity=Iroha (ID: 17195734/0x010662D6))
 68: 0x0ABE [0x80] LOAD_WAIT(entity=Zeid (ID: 17195736/0x010662D8))
 69: 0x0AC3 [0x80] LOAD_WAIT(entity=Unnamed NPC (ID: 17195737/0x010662D9))
 70: 0x0AC8 [0x5C] MUSIC_CONTROL: Set Idle (Day) music to song 0*
 71: 0x0ACC [0x5C] MUSIC_CONTROL: Set Idle (Night) music to song 0*
 72: 0x0AD0 [0x9A] WAIT_MUSIC_SERVER()
 73: 0x0AD1 [0x4A] Iroha (ID: 17195734/0x010662D6) looks at Lion (ID: 17195735/0x010662D7)
 74: 0x0ADA [0x4A] Zeid (ID: 17195736/0x010662D8) looks at Lion (ID: 17195735/0x010662D7)
 75: 0x0AE3 [0x4A] Lion (ID: 17195735/0x010662D7) looks at Iroha (ID: 17195734/0x010662D6)
 76: 0x0AEC [0x4A] Unnamed NPC (ID: 17195737/0x010662D9) looks at Iroha (ID: 17195734/0x010662D6)
 77: 0x0AF5 [0x1C] WAIT(30* ticks)
 78: 0x0AF8 [0x02] IF !(ExtData[1]->WorkLocal[1] == 1*) GOTO 0x0B18
 79: 0x0B00 [0x27] REQ_SET(priority=0x05, entity_id=Lion (ID: 17195735/0x010662D7), tag_num=0x05)
 80: 0x0B07 [0xD0] LOAD_SCHEDULED_TASK_ALT5: Load scheduler "li01" with entities [Lion (ID: 17195735/0x010662D7), Lion (ID: 17195735/0x010662D7)], work=[107*, 0*]
 81: 0x0B18 [0x5C] MUSIC_CONTROL: Set Idle (Day) music to song 79*
 82: 0x0B1C [0x5C] MUSIC_CONTROL: Set Idle (Night) music to song 79*
 83: 0x0B20 [0x9A] WAIT_MUSIC_SERVER()
 84: 0x0B21 [0x27] REQ_SET(priority=0x05, entity_id=LocalPlayer, tag_num=0x39)
 85: 0x0B28 [0x45] LOAD_SCHEDULED_TASK: Load scheduler "s000" with entities [EventEntity, EventEntity], work=[762*, 0*]
 86: 0x0B39 [0x1C] WAIT(15* ticks)
 87: 0x0B3C [0x45] LOAD_SCHEDULED_TASK: Load scheduler "fdi1" with entities [EventEntity, EventEntity], work=[200*, 0*]
 88: 0x0B4D [0x1C] WAIT(120* ticks)
 89: 0x0B50 [0x52] END_LOAD_SCHEDULER: End scheduler "s000" with entities [EventEntity, EventEntity], work=762*
 90: 0x0B5F [0x45] LOAD_SCHEDULED_TASK: Load scheduler "s001" with entities [EventEntity, EventEntity], work=[762*, 0*]
 91: 0x0B70 [0x79] Iroha (ID: 17195734/0x010662D6) looks at LocalPlayer (Basic look)
 92: 0x0B7A [0x1C] WAIT(30* ticks)
 93: 0x0B7D [0x5B] LOAD_EXT_SCHEDULER: Load scheduler "tlk0" with entities [Iroha (ID: 17195734/0x010662D6), Iroha (ID: 17195734/0x010662D6)], work=3861*
 94: 0x0B8C [0x02] IF !(ExtData[1]->WorkLocal[1] == 1*) GOTO 0x0B9F
 95: 0x0B94 [0x2B] Iroha (ID: 17195734/0x010662D6) [12418*]:
    → "Master! Look--Lady Lion!"
 96: 0x0B9B [0x23] WAIT_FOR_DIALOG_INTERACTION
 97: 0x0B9C [0x01] GOTO 0x0BA7
 98: 0x0B9F [0x2B] Iroha (ID: 17195734/0x010662D6) [12419*]:
    → "Master!"
 99: 0x0BA6 [0x23] WAIT_FOR_DIALOG_INTERACTION

SUBROUTINE_0BA7:
100: 0x0BA7 [0x5B] LOAD_EXT_SCHEDULER: Load scheduler "tlk1" with entities [Iroha (ID: 17195734/0x010662D6), Iroha (ID: 17195734/0x010662D6)], work=3861*
101: 0x0BB6 [0x52] END_LOAD_SCHEDULER: End scheduler "s001" with entities [EventEntity, EventEntity], work=762*
102: 0x0BC5 [0x02] IF !(LocalPlayer->Race == 5*) GOTO 0x0BE1
103: 0x0BCD [0x45] LOAD_SCHEDULED_TASK: Load scheduler "s003" with entities [EventEntity, EventEntity], work=[762*, 0*]
104: 0x0BDE [0x01] GOTO 0x0C0E
105: 0x0BE1 [0x02] IF !(LocalPlayer->Race == 6*) GOTO 0x0BFD
106: 0x0BE9 [0x45] LOAD_SCHEDULED_TASK: Load scheduler "s003" with entities [EventEntity, EventEntity], work=[762*, 0*]
107: 0x0BFA [0x01] GOTO 0x0C0E
108: 0x0BFD [0x45] LOAD_SCHEDULED_TASK: Load scheduler "s002" with entities [EventEntity, EventEntity], work=[762*, 0*]

SUBROUTINE_0C0E:
109: 0x0C0E [0xD0] LOAD_SCHEDULED_TASK_ALT5: Load scheduler "sta1" with entities [Unnamed NPC (ID: 17195737/0x010662D9), Unnamed NPC (ID: 17195737/0x010662D9)], work=[103*, 0*]
110: 0x0C1F [0x1C] WAIT(60* ticks)
111: 0x0C22 [0x4A] Lion (ID: 17195735/0x010662D7) looks at LocalPlayer
112: 0x0C2B [0x7B] Lion (ID: 17195735/0x010662D7) stops talking
113: 0x0C30 [0x7B] Zeid (ID: 17195736/0x010662D8) stops talking
114: 0x0C35 [0x1C] WAIT(60* ticks)
115: 0x0C38 [0x81] SET_ENTITY_BLINKING(blink_flag=0x00, entity=Lion (ID: 17195735/0x010662D7))
116: 0x0C3E [0x5B] LOAD_EXT_SCHEDULER: Load scheduler "hiz0" with entities [Lion (ID: 17195735/0x010662D7), Lion (ID: 17195735/0x010662D7)], work=99*
117: 0x0C4D [0x52] END_LOAD_SCHEDULER: End scheduler "s002" with entities [EventEntity, EventEntity], work=762*
118: 0x0C5C [0x52] END_LOAD_SCHEDULER: End scheduler "s003" with entities [EventEntity, EventEntity], work=762*
119: 0x0C6B [0x45] LOAD_SCHEDULED_TASK: Load scheduler "s004" with entities [EventEntity, EventEntity], work=[762*, 0*]
120: 0x0C7C [0x79] Iroha (ID: 17195734/0x010662D6) looks at Lion (ID: 17195735/0x010662D7) (Basic look)
121: 0x0C86 [0x1C] WAIT(120* ticks)
122: 0x0C89 [0x5B] LOAD_EXT_SCHEDULER: Load scheduler "bik0" with entities [Iroha (ID: 17195734/0x010662D6), Iroha (ID: 17195734/0x010662D6)], work=3863*
123: 0x0C98 [0x5B] LOAD_EXT_SCHEDULER: Load scheduler "hiz0" with entities [Zeid (ID: 17195736/0x010662D8), Zeid (ID: 17195736/0x010662D8)], work=243*
124: 0x0CA7 [0x52] END_LOAD_SCHEDULER: End scheduler "s004" with entities [EventEntity, EventEntity], work=762*
125: 0x0CB6 [0x45] LOAD_SCHEDULED_TASK: Load scheduler "s005" with entities [EventEntity, EventEntity], work=[762*, 0*]
126: 0x0CC7 [0x2B] Zeid (ID: 17195736/0x010662D8) [12420*]:
    → "Lion? Lion!?"
127: 0x0CCE [0x1C] WAIT(200* ticks)
128: 0x0CD1 [0x45] LOAD_SCHEDULED_TASK: Load scheduler "fdo1" with entities [EventEntity, EventEntity], work=[200*, 0*]
129: 0x0CE2 [0x55] WAIT_LOAD_SCHEDULER: Wait for scheduler "fdo1" with entities [EventEntity, EventEntity], work=200*
130: 0x0CF1 [0x52] END_LOAD_SCHEDULER: End scheduler "s005" with entities [EventEntity, EventEntity], work=762*
131: 0x0D00 [0xD0] LOAD_SCHEDULED_TASK_ALT5: Load scheduler "kil2" with entities [Unnamed NPC (ID: 17195737/0x010662D9), Unnamed NPC (ID: 17195737/0x010662D9)], work=[103*, 0*]
132: 0x0D11 [0x6B] STOP_AND_IDLE: Zeid (ID: 17195736/0x010662D8) stops current action and resets to idle (animation="idl0")
133: 0x0D1A [0x6B] STOP_AND_IDLE: Iroha (ID: 17195734/0x010662D6) stops current action and resets to idle (animation="idl0")
134: 0x0D23 [0x27] REQ_SET(priority=0x05, entity_id=Unnamed NPC (ID: 17195737/0x010662D9), tag_num=0x02)
135: 0x0D2A [0xBA] SET_ENTITY_POSITION(entity_id=Unnamed NPC (ID: 17195737/0x010662D9), pos_x=-397.929*, pos_z=354.396*, pos_y=-19.099*, direction=306.8°*)
136: 0x0D37 [0x80] LOAD_WAIT(entity=Unnamed NPC (ID: 17195737/0x010662D9))
137: 0x0D3C [0x4A] LocalPlayer looks at Lion (ID: 17195735/0x010662D7)
138: 0x0D45 [0x4A] Unnamed NPC (ID: 17195737/0x010662D9) looks at Lion (ID: 17195735/0x010662D7)
139: 0x0D4E [0x79] Zeid (ID: 17195736/0x010662D8) looks at Lion (ID: 17195735/0x010662D7) (Basic look)
140: 0x0D58 [0x1C] WAIT(30* ticks)
141: 0x0D5B [0x5B] LOAD_EXT_SCHEDULER: Load scheduler "kakl" with entities [Lion (ID: 17195735/0x010662D7), Lion (ID: 17195735/0x010662D7)], work=99*
142: 0x0D6A [0xD0] LOAD_SCHEDULED_TASK_ALT5: Load scheduler "star" with entities [Unnamed NPC (ID: 17195737/0x010662D9), Unnamed NPC (ID: 17195737/0x010662D9)], work=[103*, 0*]
143: 0x0D7B [0x27] REQ_SET(priority=0x05, entity_id=LocalPlayer, tag_num=0x3A)
144: 0x0D82 [0x1C] WAIT(30* ticks)
145: 0x0D85 [0x45] LOAD_SCHEDULED_TASK: Load scheduler "s006" with entities [EventEntity, EventEntity], work=[762*, 0*]
146: 0x0D96 [0x1C] WAIT(15* ticks)
147: 0x0D99 [0x45] LOAD_SCHEDULED_TASK: Load scheduler "fdi1" with entities [EventEntity, EventEntity], work=[200*, 0*]
148: 0x0DAA [0x2B] Lion (ID: 17195735/0x010662D7) [12421*]:
    → "I...saw it again..."
149: 0x0DB1 [0x1C] WAIT(120* ticks)
150: 0x0DB4 [0x5F] MULTI_HANDLER_COMPLEX(mode=0x05 - Load ext scheduler with flag (OpCode 0x5B mode 0, flag 1), ref=99*, entity1=Lion (ID: 17195735/0x010662D7), entity2=Lion (ID: 17195735/0x010662D7), string="kak1", extra=160*)
151: 0x0DC6 [0x2B] Lion (ID: 17195735/0x010662D7) [12422*]:
    → "<Player>, that special orb you have is a relic from the future."
152: 0x0DCD [0x23] WAIT_FOR_DIALOG_INTERACTION
153: 0x0DCE [0x2B] Lion (ID: 17195735/0x010662D7) [12423*]:
    → "Maybe that explains the visions I've been having."
154: 0x0DD5 [0x23] WAIT_FOR_DIALOG_INTERACTION
155: 0x0DD6 [0x5F] MULTI_HANDLER_COMPLEX(mode=0x07 - Wait scheduler task (OpCode 0x53))
156: 0x0DE4 [0x52] END_LOAD_SCHEDULER: End scheduler "s006" with entities [EventEntity, EventEntity], work=762*
157: 0x0DF3 [0x45] LOAD_SCHEDULED_TASK: Load scheduler "s081" with entities [EventEntity, EventEntity], work=[762*, 0*]
158: 0x0E04 [0x27] REQ_SET(priority=0x05, entity_id=Lion (ID: 17195735/0x010662D7), tag_num=0x03)
159: 0x0E0B [0x7B] Lion (ID: 17195735/0x010662D7) stops talking
160: 0x0E10 [0x2B] Lion (ID: 17195735/0x010662D7) [12424*]:
    → "If what it portends is true, then there is nothing we can do to stop the darkness from approaching."
161: 0x0E17 [0x1C] WAIT(30* ticks)
162: 0x0E1A [0x4B] UPDATE_ENTITY_YAW(entity=LocalPlayer, yaw=8.8°*)
163: 0x0E21 [0x4B] UPDATE_ENTITY_YAW(entity=Unnamed NPC (ID: 17195737/0x010662D9), yaw=8.8°*)
164: 0x0E28 [0x1C] WAIT(30* ticks)
165: 0x0E2B [0x52] END_LOAD_SCHEDULER: End scheduler "s081" with entities [EventEntity, EventEntity], work=762*
166: 0x0E3A [0x45] LOAD_SCHEDULED_TASK: Load scheduler "s007" with entities [EventEntity, EventEntity], work=[762*, 0*]
167: 0x0E4B [0x23] WAIT_FOR_DIALOG_INTERACTION
168: 0x0E4C [0x2B] Lion (ID: 17195735/0x010662D7) [12425*]:
    → "But <Player>, I saw nothing about whether or not you were there to try to stop it."
169: 0x0E53 [0x23] WAIT_FOR_DIALOG_INTERACTION
170: 0x0E54 [0x2A] GET_REQ_LEVEL(level=5, entity_id=Lion (ID: 17195735/0x010662D7))
171: 0x0E5A [0x52] END_LOAD_SCHEDULER: End scheduler "s007" with entities [EventEntity, EventEntity], work=762*
172: 0x0E69 [0x45] LOAD_SCHEDULED_TASK: Load scheduler "s008" with entities [EventEntity, EventEntity], work=[762*, 0*]
173: 0x0E7A [0x2B] Lion (ID: 17195735/0x010662D7) [12426*]:
    → "What if there is no one to stand up for Vana'diel? Will it perish with but a whimper?"
174: 0x0E81 [0x23] WAIT_FOR_DIALOG_INTERACTION
175: 0x0E82 [0x52] END_LOAD_SCHEDULER: End scheduler "s008" with entities [EventEntity, EventEntity], work=762*
176: 0x0E91 [0x45] LOAD_SCHEDULED_TASK: Load scheduler "s009" with entities [EventEntity, EventEntity], work=[762*, 0*]
177: 0x0EA2 [0x5B] LOAD_EXT_SCHEDULER: Load scheduler "tlc0" with entities [Iroha (ID: 17195734/0x010662D6), Iroha (ID: 17195734/0x010662D6)], work=3863*
178: 0x0EB1 [0x2B] Iroha (ID: 17195734/0x010662D6) [12427*]:
    → "Lion, perhaps it is because the orb is not yet fully illuminated."
179: 0x0EB8 [0x23] WAIT_FOR_DIALOG_INTERACTION
180: 0x0EB9 [0x5B] LOAD_EXT_SCHEDULER: Load scheduler "tlc1" with entities [Iroha (ID: 17195734/0x010662D6), Iroha (ID: 17195734/0x010662D6)], work=3863*
181: 0x0EC8 [0x4A] Lion (ID: 17195735/0x010662D7) looks at Iroha (ID: 17195734/0x010662D6)
182: 0x0ED1 [0x1C] WAIT(30* ticks)
183: 0x0ED4 [0x5B] LOAD_EXT_SCHEDULER: Load scheduler "yes0" with entities [Lion (ID: 17195735/0x010662D7), Lion (ID: 17195735/0x010662D7)], work=99*
184: 0x0EE3 [0x1C] WAIT(140* ticks)
185: 0x0EE6 [0x5B] LOAD_EXT_SCHEDULER: Load scheduler "tl40" with entities [Lion (ID: 17195735/0x010662D7), Lion (ID: 17195735/0x010662D7)], work=538*
186: 0x0EF5 [0x2B] Lion (ID: 17195735/0x010662D7) [12428*]:
    → "I agree. Yet we learned about the coming darkness before the light could fully arrive...likely ushering it in before we were ready."
187: 0x0EFC [0x23] WAIT_FOR_DIALOG_INTERACTION
188: 0x0EFD [0x5B] LOAD_EXT_SCHEDULER: Load scheduler "tl41" with entities [Lion (ID: 17195735/0x010662D7), Lion (ID: 17195735/0x010662D7)], work=538*
189: 0x0F0C [0x52] END_LOAD_SCHEDULER: End scheduler "s009" with entities [EventEntity, EventEntity], work=762*
190: 0x0F1B [0x45] LOAD_SCHEDULED_TASK: Load scheduler "s010" with entities [EventEntity, EventEntity], work=[762*, 0*]
191: 0x0F2C [0x5B] LOAD_EXT_SCHEDULER: Load scheduler "tkb0" with entities [Zeid (ID: 17195736/0x010662D8), Zeid (ID: 17195736/0x010662D8)], work=244*
192: 0x0F3B [0x2B] Zeid (ID: 17195736/0x010662D8) [12429*]:
    → "I know not what the two of you are on about, so I will ask one simple question: what can we do?"
193: 0x0F42 [0x23] WAIT_FOR_DIALOG_INTERACTION
194: 0x0F43 [0x5B] LOAD_EXT_SCHEDULER: Load scheduler "tkb1" with entities [Zeid (ID: 17195736/0x010662D8), Zeid (ID: 17195736/0x010662D8)], work=244*
195: 0x0F52 [0x52] END_LOAD_SCHEDULER: End scheduler "s010" with entities [EventEntity, EventEntity], work=762*
196: 0x0F61 [0x45] LOAD_SCHEDULED_TASK: Load scheduler "s011" with entities [EventEntity, EventEntity], work=[762*, 0*]
197: 0x0F72 [0xD0] LOAD_SCHEDULED_TASK_ALT5: Load scheduler "kill" with entities [Unnamed NPC (ID: 17195737/0x010662D9), Unnamed NPC (ID: 17195737/0x010662D9)], work=[103*, 0*]
198: 0x0F83 [0x4A] Lion (ID: 17195735/0x010662D7) looks at LocalPlayer
199: 0x0F8C [0x1C] WAIT(30* ticks)
200: 0x0F8F [0x02] IF !(63* == ExtData[1]->WorkLocal[4]) GOTO 0x10A5
201: 0x0F97 [0x5B] LOAD_EXT_SCHEDULER: Load scheduler "tl40" with entities [Lion (ID: 17195735/0x010662D7), Lion (ID: 17195735/0x010662D7)], work=538*
202: 0x0FA6 [0x2B] Lion (ID: 17195735/0x010662D7) [12445*]:
    → "<Player>, your journeys have taken you to the far corners of our realm."
203: 0x0FAD [0x23] WAIT_FOR_DIALOG_INTERACTION
204: 0x0FAE [0x2B] Lion (ID: 17195735/0x010662D7) [12446*]:
    → "The reckoning is at hand, quicker than any of us could have prepared for."
205: 0x0FB5 [0x23] WAIT_FOR_DIALOG_INTERACTION
206: 0x0FB6 [0x5B] LOAD_EXT_SCHEDULER: Load scheduler "tl41" with entities [Lion (ID: 17195735/0x010662D7), Lion (ID: 17195735/0x010662D7)], work=538*
207: 0x0FC5 [0x52] END_LOAD_SCHEDULER: End scheduler "s011" with entities [EventEntity, EventEntity], work=762*
208: 0x0FD4 [0x45] LOAD_SCHEDULED_TASK: Load scheduler "s014" with entities [EventEntity, EventEntity], work=[762*, 0*]
209: 0x0FE5 [0x5B] LOAD_EXT_SCHEDULER: Load scheduler "yes0" with entities [Iroha (ID: 17195734/0x010662D6), Iroha (ID: 17195734/0x010662D6)], work=3862*
210: 0x0FF4 [0x2B] Iroha (ID: 17195734/0x010662D6) [12447*]:
    → "Then it all falls into place."
211: 0x0FFB [0x23] WAIT_FOR_DIALOG_INTERACTION
212: 0x0FFC [0x1C] WAIT(60* ticks)
213: 0x0FFF [0xD0] LOAD_SCHEDULED_TASK_ALT5: Load scheduler "star" with entities [Unnamed NPC (ID: 17195737/0x010662D9), Unnamed NPC (ID: 17195737/0x010662D9)], work=[103*, 0*]
214: 0x1010 [0x4A] Lion (ID: 17195735/0x010662D7) looks at Iroha (ID: 17195734/0x010662D6)
215: 0x1019 [0x1C] WAIT(70* ticks)
216: 0x101C [0x23] WAIT_FOR_DIALOG_INTERACTION
217: 0x101D [0x52] END_LOAD_SCHEDULER: End scheduler "s014" with entities [EventEntity, EventEntity], work=762*
218: 0x102C [0x45] LOAD_SCHEDULED_TASK: Load scheduler "s015" with entities [EventEntity, EventEntity], work=[762*, 0*]
219: 0x103D [0x5B] LOAD_EXT_SCHEDULER: Load scheduler "tlk0" with entities [Iroha (ID: 17195734/0x010662D6), Iroha (ID: 17195734/0x010662D6)], work=3861*
220: 0x104C [0x2B] Iroha (ID: 17195734/0x010662D6) [12448*]:
    → "In the future from which I hail, the master faced many threats and came to be known as one of Vana'diel's most storied heroes."
221: 0x1053 [0x23] WAIT_FOR_DIALOG_INTERACTION
222: 0x1054 [0x2B] Iroha (ID: 17195734/0x010662D6) [12449*]:
    → "And [his/her] legend has already been forged."
223: 0x105B [0x23] WAIT_FOR_DIALOG_INTERACTION
224: 0x105C [0x5B] LOAD_EXT_SCHEDULER: Load scheduler "tlk1" with entities [Iroha (ID: 17195734/0x010662D6), Iroha (ID: 17195734/0x010662D6)], work=3861*
225: 0x106B [0x52] END_LOAD_SCHEDULER: End scheduler "s015" with entities [EventEntity, EventEntity], work=762*
226: 0x107A [0x45] LOAD_SCHEDULED_TASK: Load scheduler "s016" with entities [EventEntity, EventEntity], work=[762*, 0*]
227: 0x108B [0x5B] LOAD_EXT_SCHEDULER: Load scheduler "ude0" with entities [Zeid (ID: 17195736/0x010662D8), Zeid (ID: 17195736/0x010662D8)], work=244*
228: 0x109A [0x2B] Zeid (ID: 17195736/0x010662D8) [12450*]:
    → "Then we may be out of time..."
229: 0x10A1 [0x23] WAIT_FOR_DIALOG_INTERACTION
230: 0x10A2 [0x01] GOTO 0x134B
231: 0x10A5 [0x02] IF !(ExtData[1]->WorkLocal[3] == 1*) GOTO 0x11C2
232: 0x10AD [0x5B] LOAD_EXT_SCHEDULER: Load scheduler "tl40" with entities [Lion (ID: 17195735/0x010662D7), Lion (ID: 17195735/0x010662D7)], work=538*
233: 0x10BC [0x2B] Lion (ID: 17195735/0x010662D7) [12438*]:
    → "<Player>, there are many paths that lie before you."
234: 0x10C3 [0x23] WAIT_FOR_DIALOG_INTERACTION
235: 0x10C4 [0x2B] Lion (ID: 17195735/0x010662D7) [12439*]:
    → "They opened up the moment you banished the Shadow Lord from our realm."
236: 0x10CB [0x23] WAIT_FOR_DIALOG_INTERACTION
237: 0x10CC [0x2B] Lion (ID: 17195735/0x010662D7) [12440*]:
    → "My dream showed me many nations, many worlds...and you were there in each one, bringing succor to those who cried out."
238: 0x10D3 [0x23] WAIT_FOR_DIALOG_INTERACTION
239: 0x10D4 [0x5B] LOAD_EXT_SCHEDULER: Load scheduler "tl41" with entities [Lion (ID: 17195735/0x010662D7), Lion (ID: 17195735/0x010662D7)], work=538*
240: 0x10E3 [0x52] END_LOAD_SCHEDULER: End scheduler "s011" with entities [EventEntity, EventEntity], work=762*
241: 0x10F2 [0x45] LOAD_SCHEDULED_TASK: Load scheduler "s014" with entities [EventEntity, EventEntity], work=[762*, 0*]
242: 0x1103 [0x5B] LOAD_EXT_SCHEDULER: Load scheduler "yes0" with entities [Iroha (ID: 17195734/0x010662D6), Iroha (ID: 17195734/0x010662D6)], work=3862*
243: 0x1112 [0x2B] Iroha (ID: 17195734/0x010662D6) [12441*]:
    → "Then it all falls into place."
244: 0x1119 [0x1C] WAIT(60* ticks)
245: 0x111C [0xD0] LOAD_SCHEDULED_TASK_ALT5: Load scheduler "star" with entities [Unnamed NPC (ID: 17195737/0x010662D9), Unnamed NPC (ID: 17195737/0x010662D9)], work=[103*, 0*]
246: 0x112D [0x4A] Lion (ID: 17195735/0x010662D7) looks at Iroha (ID: 17195734/0x010662D6)
247: 0x1136 [0x1C] WAIT(70* ticks)
248: 0x1139 [0x23] WAIT_FOR_DIALOG_INTERACTION
249: 0x113A [0x52] END_LOAD_SCHEDULER: End scheduler "s014" with entities [EventEntity, EventEntity], work=762*
250: 0x1149 [0x45] LOAD_SCHEDULED_TASK: Load scheduler "s015" with entities [EventEntity, EventEntity], work=[762*, 0*]
251: 0x115A [0x5B] LOAD_EXT_SCHEDULER: Load scheduler "tlk0" with entities [Iroha (ID: 17195734/0x010662D6), Iroha (ID: 17195734/0x010662D6)], work=3861*
252: 0x1169 [0x2B] Iroha (ID: 17195734/0x010662D6) [12442*]:
    → "In the future from which I hail, the master faced many threats--not just that one--and came to be known as one of Vana'diel's most storied heroes."
253: 0x1170 [0x23] WAIT_FOR_DIALOG_INTERACTION
254: 0x1171 [0x2B] Iroha (ID: 17195734/0x010662D6) [12443*]:
    → "Master, you must bring history back to its natural state."
255: 0x1178 [0x23] WAIT_FOR_DIALOG_INTERACTION
256: 0x1179 [0x5B] LOAD_EXT_SCHEDULER: Load scheduler "tlk1" with entities [Iroha (ID: 17195734/0x010662D6), Iroha (ID: 17195734/0x010662D6)], work=3861*
257: 0x1188 [0x52] END_LOAD_SCHEDULER: End scheduler "s015" with entities [EventEntity, EventEntity], work=762*
258: 0x1197 [0x45] LOAD_SCHEDULED_TASK: Load scheduler "s016" with entities [EventEntity, EventEntity], work=[762*, 0*]
259: 0x11A8 [0x5B] LOAD_EXT_SCHEDULER: Load scheduler "ude0" with entities [Zeid (ID: 17195736/0x010662D8), Zeid (ID: 17195736/0x010662D8)], work=244*
260: 0x11B7 [0x2B] Zeid (ID: 17195736/0x010662D8) [12444*]:
    → "...And time is not exactly on our side..."
261: 0x11BE [0x23] WAIT_FOR_DIALOG_INTERACTION
262: 0x11BF [0x01] GOTO 0x134B
263: 0x11C2 [0x5B] LOAD_EXT_SCHEDULER: Load scheduler "tl50" with entities [Lion (ID: 17195735/0x010662D7), Lion (ID: 17195735/0x010662D7)], work=538*
264: 0x11D1 [0x2B] Lion (ID: 17195735/0x010662D7) [12430*]:
    → "<Player>, another image that floated before my eyes was one of you vanquishing the Shadow Lord."
265: 0x11D8 [0x23] WAIT_FOR_DIALOG_INTERACTION
266: 0x11D9 [0x52] END_LOAD_SCHEDULER: End scheduler "s011" with entities [EventEntity, EventEntity], work=762*
267: 0x11E8 [0x45] LOAD_SCHEDULED_TASK: Load scheduler "s012" with entities [EventEntity, EventEntity], work=[762*, 0*]
268: 0x11F9 [0x5B] LOAD_EXT_SCHEDULER: Load scheduler "tkb0" with entities [Zeid (ID: 17195736/0x010662D8), Zeid (ID: 17195736/0x010662D8)], work=244*
269: 0x1208 [0x2B] Zeid (ID: 17195736/0x010662D8) [12431*]:
    → "The Shadow Lord!?"
270: 0x120F [0x1C] WAIT(60* ticks)
271: 0x1212 [0xD0] LOAD_SCHEDULED_TASK_ALT5: Load scheduler "star" with entities [Unnamed NPC (ID: 17195737/0x010662D9), Unnamed NPC (ID: 17195737/0x010662D9)], work=[103*, 0*]
272: 0x1223 [0x1C] WAIT(60* ticks)
273: 0x1226 [0x52] END_LOAD_SCHEDULER: End scheduler "s012" with entities [EventEntity, EventEntity], work=762*
274: 0x1235 [0x45] LOAD_SCHEDULED_TASK: Load scheduler "s013" with entities [EventEntity, EventEntity], work=[762*, 0*]
275: 0x1246 [0x5B] LOAD_EXT_SCHEDULER: Load scheduler "tkb1" with entities [Zeid (ID: 17195736/0x010662D8), Zeid (ID: 17195736/0x010662D8)], work=244*
276: 0x1255 [0x5B] LOAD_EXT_SCHEDULER: Load scheduler "yes0" with entities [Lion (ID: 17195735/0x010662D7), Lion (ID: 17195735/0x010662D7)], work=99*
277: 0x1264 [0x2B] Lion (ID: 17195735/0x010662D7) [12432*]:
    → "And the crystal spoke to you when you did."
278: 0x126B [0x1C] WAIT(140* ticks)
279: 0x126E [0x23] WAIT_FOR_DIALOG_INTERACTION
280: 0x126F [0x52] END_LOAD_SCHEDULER: End scheduler "s013" with entities [EventEntity, EventEntity], work=762*
281: 0x127E [0x45] LOAD_SCHEDULED_TASK: Load scheduler "s014" with entities [EventEntity, EventEntity], work=[762*, 0*]
282: 0x128F [0x5B] LOAD_EXT_SCHEDULER: Load scheduler "yes0" with entities [Iroha (ID: 17195734/0x010662D6), Iroha (ID: 17195734/0x010662D6)], work=3862*
283: 0x129E [0x2B] Iroha (ID: 17195734/0x010662D6) [12433*]:
    → "Then it all falls into place."
284: 0x12A5 [0x1C] WAIT(60* ticks)
285: 0x12A8 [0x4A] Lion (ID: 17195735/0x010662D7) looks at Iroha (ID: 17195734/0x010662D6)
286: 0x12B1 [0x1C] WAIT(70* ticks)
287: 0x12B4 [0x23] WAIT_FOR_DIALOG_INTERACTION
288: 0x12B5 [0x52] END_LOAD_SCHEDULER: End scheduler "s014" with entities [EventEntity, EventEntity], work=762*
289: 0x12C4 [0x45] LOAD_SCHEDULED_TASK: Load scheduler "s015" with entities [EventEntity, EventEntity], work=[762*, 0*]
290: 0x12D5 [0x5B] LOAD_EXT_SCHEDULER: Load scheduler "tlk0" with entities [Iroha (ID: 17195734/0x010662D6), Iroha (ID: 17195734/0x010662D6)], work=3861*
291: 0x12E4 [0x2B] Iroha (ID: 17195734/0x010662D6) [12434*]:
    → "You must stand steadfast against the lord of the beastmen in order to set history upon its proper course."
292: 0x12EB [0x23] WAIT_FOR_DIALOG_INTERACTION
293: 0x12EC [0x2B] Iroha (ID: 17195734/0x010662D6) [12435*]:
    → "In the future from which I hail, the master faced many threats--not just this one--and came to be known as one of Vana'diel's most storied heroes."
294: 0x12F3 [0x23] WAIT_FOR_DIALOG_INTERACTION
295: 0x12F4 [0x2B] Iroha (ID: 17195734/0x010662D6) [12436*]:
    → "Master, you must take your first steps along that path."
296: 0x12FB [0x23] WAIT_FOR_DIALOG_INTERACTION
297: 0x12FC [0x5B] LOAD_EXT_SCHEDULER: Load scheduler "tlk1" with entities [Iroha (ID: 17195734/0x010662D6), Iroha (ID: 17195734/0x010662D6)], work=3861*
298: 0x130B [0x52] END_LOAD_SCHEDULER: End scheduler "s015" with entities [EventEntity, EventEntity], work=762*
299: 0x131A [0x45] LOAD_SCHEDULED_TASK: Load scheduler "s016" with entities [EventEntity, EventEntity], work=[762*, 0*]
300: 0x132B [0x5B] LOAD_EXT_SCHEDULER: Load scheduler "ude0" with entities [Zeid (ID: 17195736/0x010662D8), Zeid (ID: 17195736/0x010662D8)], work=244*
301: 0x133A [0x2B] Zeid (ID: 17195736/0x010662D8) [12437*]:
    → "...Stop the Shadow Lord."
302: 0x1341 [0x23] WAIT_FOR_DIALOG_INTERACTION
303: 0x1342 [0x03] Work_Zone[1] = 2*
304: 0x1347 [0x43] SEND_EVENT_UPDATE: Send pending tag to server (packet 0x005B)
305: 0x1349 [0x43] SEND_EVENT_UPDATE: Check pending flag (skip if not pending)

SUBROUTINE_134B:
306: 0x134B [0xD0] LOAD_SCHEDULED_TASK_ALT5: Load scheduler "kill" with entities [Unnamed NPC (ID: 17195737/0x010662D9), Unnamed NPC (ID: 17195737/0x010662D9)], work=[103*, 0*]
307: 0x135C [0x4A] Lion (ID: 17195735/0x010662D7) looks at LocalPlayer
308: 0x1365 [0x4A] LocalPlayer looks at Lion (ID: 17195735/0x010662D7)
309: 0x136E [0x4A] Unnamed NPC (ID: 17195737/0x010662D9) looks at Lion (ID: 17195735/0x010662D7)
310: 0x1377 [0x7B] LocalPlayer stops talking
311: 0x137C [0x7B] Unnamed NPC (ID: 17195737/0x010662D9) stops talking
312: 0x1381 [0x1C] WAIT(30* ticks)
313: 0x1384 [0x52] END_LOAD_SCHEDULER: End scheduler "s016" with entities [EventEntity, EventEntity], work=762*
314: 0x1393 [0x45] LOAD_SCHEDULED_TASK: Load scheduler "s017" with entities [EventEntity, EventEntity], work=[762*, 0*]
315: 0x13A4 [0x5B] LOAD_EXT_SCHEDULER: Load scheduler "tl50" with entities [Lion (ID: 17195735/0x010662D7), Lion (ID: 17195735/0x010662D7)], work=538*
316: 0x13B3 [0x2B] Lion (ID: 17195735/0x010662D7) [12451*]:
    → "And now you know everything that I do."
317: 0x13BA [0x23] WAIT_FOR_DIALOG_INTERACTION
318: 0x13BB [0x02] IF !(ExtData[1]->WorkLocal[3] == 1*) GOTO 0x13CE
319: 0x13C3 [0x2B] Lion (ID: 17195735/0x010662D7) [12452*]:
    → "I'll be with you every step of your journey to conquer the Shadow Lord."
320: 0x13CA [0x23] WAIT_FOR_DIALOG_INTERACTION
321: 0x13CB [0x01] GOTO 0x13D6
322: 0x13CE [0x2B] Lion (ID: 17195735/0x010662D7) [12453*]:
    → "I'll do everything in my power to help you."
323: 0x13D5 [0x23] WAIT_FOR_DIALOG_INTERACTION

SUBROUTINE_13D6:
324: 0x13D6 [0x52] END_LOAD_SCHEDULER: End scheduler "s017" with entities [EventEntity, EventEntity], work=762*
325: 0x13E5 [0x02] IF !(LocalPlayer->Race == 5*) GOTO 0x1401
326: 0x13ED [0x45] LOAD_SCHEDULED_TASK: Load scheduler "s085" with entities [EventEntity, EventEntity], work=[762*, 0*]
327: 0x13FE [0x01] GOTO 0x142E
328: 0x1401 [0x02] IF !(LocalPlayer->Race == 6*) GOTO 0x141D
329: 0x1409 [0x45] LOAD_SCHEDULED_TASK: Load scheduler "s085" with entities [EventEntity, EventEntity], work=[762*, 0*]
330: 0x141A [0x01] GOTO 0x142E
331: 0x141D [0x45] LOAD_SCHEDULED_TASK: Load scheduler "s084" with entities [EventEntity, EventEntity], work=[762*, 0*]

SUBROUTINE_142E:
332: 0x142E [0xD0] LOAD_SCHEDULED_TASK_ALT5: Load scheduler "max0" with entities [Unnamed NPC (ID: 17195737/0x010662D9), Unnamed NPC (ID: 17195737/0x010662D9)], work=[150*, 0*]
333: 0x143F [0x1C] WAIT(80* ticks)
334: 0x1442 [0x81] SET_ENTITY_BLINKING(blink_flag=0x00, entity=Lion (ID: 17195735/0x010662D7))
335: 0x1448 [0x7C] Lion (ID: 17195735/0x010662D7)->Render.Flags2 |= 0x00
336: 0x144E [0x5B] LOAD_EXT_SCHEDULER: Load scheduler "han0" with entities [Lion (ID: 17195735/0x010662D7), Lion (ID: 17195735/0x010662D7)], work=99*
337: 0x145D [0x52] END_LOAD_SCHEDULER: End scheduler "s084" with entities [EventEntity, EventEntity], work=762*
338: 0x146C [0x52] END_LOAD_SCHEDULER: End scheduler "s085" with entities [EventEntity, EventEntity], work=762*
