# 17195646 - Gerwitz

## Common Data

| Field            | Value                       |
|------------------|-----------------------------|
| Zone             | La Theine Plateau (ID: 102) |
| Block Size       | 132 bytes                   |
| Total Events     | 3                           |
| References Count | 9                           |

## List of Events

| Event ID                 | Entrypoint   |   Size |   Instructions |
|--------------------------|--------------|--------|----------------|
| [65535](#event-65535)    | 0x0000       |      1 |              1 |
| [122](#event-122)        | 0x0001       |     37 |              6 |
| [65535.1](#event-655351) | 0x0026       |     27 |              6 |

## DAT References (imed_data)

|   Index | Hex Value   |   Dec Value |
|---------|-------------|-------------|
|       0 | 0x0000      |           0 |
|       1 | 0x0001      |           1 |
|       2 | 0xE897      |       59543 |
|       3 | 0xFFFB1C35  |  4294646837 |
|       4 | 0x9C32      |       39986 |
|       5 | 0x050E      |        1294 |
|       6 | 0x0048      |          72 |
|       7 | 0x0078      |         120 |
|       8 | 0x003C      |          60 |

## Events

### Event 65535

#### Metadata

| Field        | Value   |
|--------------|---------|
| Entrypoint   | 0x0000  |
| Data Size    | 1 bytes |
| Instructions | 1       |

```
      00 01 02 03 04 05 06 07  08 09 0A 0B 0C 0D 0E 0F
      -- -- -- -- -- -- -- --  -- -- -- -- -- -- -- --
0000: 00                                                .               
```

#### Opcodes

```
  0: 0x0000 [0x00] END_REQSTACK()
```

### Event 122

#### Metadata

| Field        | Value    |
|--------------|----------|
| Entrypoint   | 0x0001   |
| Data Size    | 37 bytes |
| Instructions | 6        |

```
      00 01 02 03 04 05 06 07  08 09 0A 0B 0C 0D 0E 0F
      -- -- -- -- -- -- -- --  -- -- -- -- -- -- -- --
0000:    92 01 F8 FF FF 7F 22  00 6C F8 FF FF 7F 00 80   ......".l......
0010: 01 80 37 02 80 03 80 04  80 05 80 79 00 F8 FF FF  ..7........y....
0020: 7F F0 FF FF 7F 00                                 ......          
```

#### Opcodes

```
  0: 0x0001 [0x92] EventEntity->Render.Flags3 ^= 0x01
  1: 0x0007 [0x22] ENTITY_HIDE_FLAG(enabled=0x00)
  2: 0x0009 [0x6C] FADE_ENTITY_COLOR(entity_id=EventEntity, end_alpha=0*, fade_time=1*)
  3: 0x0012 [0x37] UPDATE_EVENT_POSITION_AND_DIR: x=59.543*, z=-320.459*, y=39.986*, direction=113.7°*
  4: 0x001B [0x79] EventEntity looks at LocalPlayer (Basic look)
  5: 0x0025 [0x00] END_REQSTACK()
```

### Event 65535.1

#### Metadata

| Field        | Value    |
|--------------|----------|
| Entrypoint   | 0x0026   |
| Data Size    | 27 bytes |
| Instructions | 6        |

```
      00 01 02 03 04 05 06 07  08 09 0A 0B 0C 0D 0E 0F
      -- -- -- -- -- -- -- --  -- -- -- -- -- -- -- --
0020:                   6C F8  FF FF 7F 06 80 07 80 1C        l.........
0030: 08 80 1E F0 FF FF 7F 1C  08 80 92 00 F8 FF FF 7F  ................
0040: 00                                                .               
```

#### Opcodes

```
  0: 0x0026 [0x6C] FADE_ENTITY_COLOR(entity_id=EventEntity, end_alpha=72*, fade_time=120*)
  1: 0x002F [0x1C] WAIT(60* ticks)
  2: 0x0032 [0x1E] EventEntity looks at LocalPlayer and starts talking
  3: 0x0037 [0x1C] WAIT(60* ticks)
  4: 0x003A [0x92] EventEntity->Render.Flags3 = Flags3  // No change (flag=0)
  5: 0x0040 [0x00] END_REQSTACK()
```
