# 0x7FFFFFF0 - Zone Events

## Common Data

| Field            | Value                       |
|------------------|-----------------------------|
| Zone             | La Theine Plateau (ID: 102) |
| Block Size       | 15164 bytes                 |
| Total Events     | 81                          |
| References Count | 365                         |

## List of Events

| Event ID                   | Entrypoint   |   Size |   Instructions |
|----------------------------|--------------|--------|----------------|
| [65535](#event-65535)      | 0x0000       |      1 |              1 |
| [106](#event-106)          | 0x0001       |      1 |              1 |
| [65535.1](#event-655351)   | 0x0002       |      6 |              2 |
| [65534](#event-65534)      | 0x0008       |      1 |              1 |
| [65535.2](#event-655352)   | 0x0009       |     10 |              2 |
| [65535.3](#event-655353)   | 0x0013       |     10 |              2 |
| [65535.4](#event-655354)   | 0x001D       |     10 |              2 |
| [65535.5](#event-655355)   | 0x0027       |     16 |              3 |
| [65535.6](#event-655356)   | 0x0037       |     41 |              5 |
| [0](#event-0)              | 0x0060       |   1600 |            222 |
| [1](#event-1)              | 0x06A0       |   2840 |            368 |
| [122](#event-122)          | 0x11B8       |    874 |            121 |
| [65535.7](#event-655357)   | 0x1522       |      6 |              2 |
| [65535.8](#event-655358)   | 0x1528       |      6 |              2 |
| [65535.9](#event-655359)   | 0x152E       |      6 |              2 |
| [65535.10](#event-6553510) | 0x1534       |      6 |              2 |
| [65535.11](#event-6553511) | 0x153A       |     10 |              2 |
| [65535.12](#event-6553512) | 0x1544       |    105 |              9 |
| [65535.13](#event-6553513) | 0x15AD       |     27 |              3 |
| [65535.14](#event-6553514) | 0x15C8       |     27 |              3 |
| [65535.15](#event-6553515) | 0x15E3       |     13 |              3 |
| [65535.16](#event-6553516) | 0x15F0       |     10 |              2 |
| [65535.17](#event-6553517) | 0x15FA       |     10 |              2 |
| [65535.18](#event-6553518) | 0x1604       |     14 |              4 |
| [65535.19](#event-6553519) | 0x1612       |      4 |              2 |
| [65535.20](#event-6553520) | 0x1616       |     10 |              2 |
| [65535.21](#event-6553521) | 0x1620       |     10 |              2 |
| [201](#event-201)          | 0x162A       |   1519 |            188 |
| [202](#event-202)          | 0x1C19       |    177 |             34 |
| [204](#event-204)          | 0x1CCA       |    132 |             23 |
| [221](#event-221)          | 0x1D4E       |    182 |             34 |
| [222](#event-222)          | 0x1E04       |    182 |             34 |
| [205](#event-205)          | 0x1EBA       |    802 |            102 |
| [207](#event-207)          | 0x21DC       |    663 |             80 |
| [206](#event-206)          | 0x2473       |    214 |             28 |
| [208](#event-208)          | 0x2549       |    603 |             72 |
| [209](#event-209)          | 0x27A4       |      1 |              1 |
| [65535.22](#event-6553522) | 0x27A5       |     15 |              3 |
| [65535.23](#event-6553523) | 0x27B4       |     19 |              5 |
| [65535.24](#event-6553524) | 0x27C7       |     14 |              4 |
| [212](#event-212)          | 0x27D5       |    120 |             28 |
| [65535.25](#event-6553525) | 0x284D       |      6 |              2 |
| [65535.26](#event-6553526) | 0x2853       |      6 |              2 |
| [65535.27](#event-6553527) | 0x2859       |     37 |              5 |
| [65535.28](#event-6553528) | 0x287E       |    185 |             37 |
| [65535.29](#event-6553529) | 0x2937       |     24 |              4 |
| [65535.30](#event-6553530) | 0x294F       |     24 |              4 |
| [65535.31](#event-6553531) | 0x2967       |     37 |              5 |
| [65535.32](#event-6553532) | 0x298C       |     37 |              5 |
| [65535.33](#event-6553533) | 0x29B1       |     42 |              6 |
| [210](#event-210)          | 0x29DB       |    135 |             31 |
| [65535.34](#event-6553534) | 0x2A62       |     22 |              6 |
| [65535.35](#event-6553535) | 0x2A78       |     14 |              4 |
| [65535.36](#event-6553536) | 0x2A86       |      5 |              2 |
| [65535.37](#event-6553537) | 0x2A8B       |      5 |              2 |
| [65535.38](#event-6553538) | 0x2A90       |      5 |              2 |
| [65535.39](#event-6553539) | 0x2A95       |      5 |              2 |
| [65535.40](#event-6553540) | 0x2A9A       |     22 |              6 |
| [65535.41](#event-6553541) | 0x2AB0       |    345 |             33 |
| [65535.42](#event-6553542) | 0x2C09       |    217 |             25 |
| [65535.43](#event-6553543) | 0x2CE2       |    345 |             33 |
| [65535.44](#event-6553544) | 0x2E3B       |     14 |              4 |
| [65535.45](#event-6553545) | 0x2E49       |     14 |              4 |
| [65535.46](#event-6553546) | 0x2E57       |     14 |              4 |
| [65535.47](#event-6553547) | 0x2E65       |    345 |             33 |
| [65535.48](#event-6553548) | 0x2FBE       |    345 |             33 |
| [65535.49](#event-6553549) | 0x3117       |     47 |              7 |
| [65535.50](#event-6553550) | 0x3146       |     50 |              7 |
| [65535.51](#event-6553551) | 0x3178       |     50 |              7 |
| [65535.52](#event-6553552) | 0x31AA       |     24 |              4 |
| [65535.53](#event-6553553) | 0x31C2       |     24 |              4 |
| [65535.54](#event-6553554) | 0x31DA       |     24 |              4 |
| [65535.55](#event-6553555) | 0x31F2       |     24 |              4 |
| [65535.56](#event-6553556) | 0x320A       |     14 |              4 |
| [65535.57](#event-6553557) | 0x3218       |     14 |              4 |
| [229](#event-229)          | 0x3226       |    118 |             16 |
| [65535.58](#event-6553558) | 0x329C       |    353 |             41 |
| [65535.59](#event-6553559) | 0x33FD       |      7 |              3 |
| [65535.60](#event-6553560) | 0x3404       |      7 |              3 |
| [65535.61](#event-6553561) | 0x340B       |     15 |              5 |
| [65535.62](#event-6553562) | 0x341A       |     24 |              6 |

## DAT References (imed_data)

|   Index | Hex Value   |   Dec Value |
|---------|-------------|-------------|
|       0 | 0xFFFD48A7  |  4294789287 |
|       1 | 0x3D723     |      251683 |
|       2 | 0x22C1      |        8897 |
|       3 | 0x0A26      |        2598 |
|       4 | 0xFFFD43D2  |  4294788050 |
|       5 | 0x3CFCF     |      249807 |
|       6 | 0x222E      |        8750 |
|       7 | 0x0C01      |        3073 |
|       8 | 0xFFFD4A6C  |  4294789740 |
|       9 | 0x3CAC4     |      248516 |
|      10 | 0x21B7      |        8631 |
|      11 | 0x0B45      |        2885 |
|      12 | 0xFFF76E64  |  4294405732 |
|      13 | 0x9CA40     |      641600 |
|      14 | 0x0000      |           0 |
|      15 | 0x01DD      |         477 |
|      16 | 0x0094      |         148 |
|      17 | 0x00F0      |         240 |
|      18 | 0x00C8      |         200 |
|      19 | 0x003C      |          60 |
|      20 | 0x0067      |         103 |
|      21 | 0x0013      |          19 |
|      22 | 0xFFFBFA30  |  4294703664 |
|      23 | 0x1F55F     |      128351 |
|      24 | 0x5980      |       22912 |
|      25 | 0x01B5      |         437 |
|      26 | 0x0037      |          55 |
|      27 | 0x0001      |           1 |
|      28 | 0x1DE1      |        7649 |
|      29 | 0x1DE2      |        7650 |
|      30 | 0x1DE3      |        7651 |
|      31 | 0x1DE4      |        7652 |
|      32 | 0x000A      |          10 |
|      33 | 0x1DE5      |        7653 |
|      34 | 0x001E      |          30 |
|      35 | 0x1DE6      |        7654 |
|      36 | 0x0046      |          70 |
|      37 | 0x1DE7      |        7655 |
|      38 | 0x007B      |         123 |
|      39 | 0x1DE8      |        7656 |
|      40 | 0x1DE9      |        7657 |
|      41 | 0x1DEA      |        7658 |
|      42 | 0x0028      |          40 |
|      43 | 0x1DEB      |        7659 |
|      44 | 0x1DEC      |        7660 |
|      45 | 0x1DED      |        7661 |
|      46 | 0x1DEE      |        7662 |
|      47 | 0x1DEF      |        7663 |
|      48 | 0x1DF0      |        7664 |
|      49 | 0x1DF1      |        7665 |
|      50 | 0x1DF2      |        7666 |
|      51 | 0x1DF3      |        7667 |
|      52 | 0x1DF4      |        7668 |
|      53 | 0x1DF5      |        7669 |
|      54 | 0x0014      |          20 |
|      55 | 0x1DF6      |        7670 |
|      56 | 0x1DF7      |        7671 |
|      57 | 0x1DF8      |        7672 |
|      58 | 0x1DF9      |        7673 |
|      59 | 0x1DFA      |        7674 |
|      60 | 0x0032      |          50 |
|      61 | 0x1DFB      |        7675 |
|      62 | 0x1DFC      |        7676 |
|      63 | 0x1DFD      |        7677 |
|      64 | 0x1DFE      |        7678 |
|      65 | 0x1DFF      |        7679 |
|      66 | 0xFFFBF82B  |  4294703147 |
|      67 | 0x1F22E     |      127534 |
|      68 | 0x59AC      |       22956 |
|      69 | 0x0D1A      |        3354 |
|      70 | 0x00A1      |         161 |
|      71 | 0x1E00      |        7680 |
|      72 | 0x1E01      |        7681 |
|      73 | 0x1E02      |        7682 |
|      74 | 0x1E03      |        7683 |
|      75 | 0x1E04      |        7684 |
|      76 | 0x1E06      |        7686 |
|      77 | 0x1E07      |        7687 |
|      78 | 0x0050      |          80 |
|      79 | 0x00B4      |         180 |
|      80 | 0x0064      |         100 |
|      81 | 0x007A      |         122 |
|      82 | 0x1E08      |        7688 |
|      83 | 0x1E09      |        7689 |
|      84 | 0x1E0A      |        7690 |
|      85 | 0x1E0B      |        7691 |
|      86 | 0x000D      |          13 |
|      87 | 0xFFFBFD96  |  4294704534 |
|      88 | 0x1DF5B     |      122715 |
|      89 | 0x5C6F      |       23663 |
|      90 | 0x0078      |         120 |
|      91 | 0x1E0C      |        7692 |
|      92 | 0x005A      |          90 |
|      93 | 0x00FF      |         255 |
|      94 | 0xFFFBBE0E  |  4294688270 |
|      95 | 0x18D60     |      101728 |
|      96 | 0x5DC0      |       24000 |
|      97 | 0x0670      |        1648 |
|      98 | 0x1E0E      |        7694 |
|      99 | 0xFFFBB218  |  4294685208 |
|     100 | 0x183B8     |       99256 |
|     101 | 0x5D8A      |       23946 |
|     102 | 0x1E0D      |        7693 |
|     103 | 0x1E0F      |        7695 |
|     104 | 0x1E10      |        7696 |
|     105 | 0x1E11      |        7697 |
|     106 | 0x1E12      |        7698 |
|     107 | 0x1E13      |        7699 |
|     108 | 0x1E14      |        7700 |
|     109 | 0x1E15      |        7701 |
|     110 | 0x1E16      |        7702 |
|     111 | 0x1E17      |        7703 |
|     112 | 0x1E18      |        7704 |
|     113 | 0x1E19      |        7705 |
|     114 | 0x00A0      |         160 |
|     115 | 0x1E1A      |        7706 |
|     116 | 0x1E1B      |        7707 |
|     117 | 0x1E1C      |        7708 |
|     118 | 0x1E1D      |        7709 |
|     119 | 0x1E1E      |        7710 |
|     120 | 0x1E1F      |        7711 |
|     121 | 0x1E20      |        7712 |
|     122 | 0x1E21      |        7713 |
|     123 | 0x1E22      |        7714 |
|     124 | 0x1E23      |        7715 |
|     125 | 0x1E24      |        7716 |
|     126 | 0x1E25      |        7717 |
|     127 | 0x1E26      |        7718 |
|     128 | 0x1E27      |        7719 |
|     129 | 0x1E28      |        7720 |
|     130 | 0x1E2A      |        7722 |
|     131 | 0x1E2B      |        7723 |
|     132 | 0x1E2C      |        7724 |
|     133 | 0x1E2D      |        7725 |
|     134 | 0x1E2E      |        7726 |
|     135 | 0x1E2F      |        7727 |
|     136 | 0x1E30      |        7728 |
|     137 | 0x1E31      |        7729 |
|     138 | 0x1E32      |        7730 |
|     139 | 0x1E33      |        7731 |
|     140 | 0x002B      |          43 |
|     141 | 0x1E34      |        7732 |
|     142 | 0x1E35      |        7733 |
|     143 | 0x0003      |           3 |
|     144 | 0x1E36      |        7734 |
|     145 | 0xFFFBFB72  |  4294703986 |
|     146 | 0x1F77E     |      128894 |
|     147 | 0x5979      |       22905 |
|     148 | 0x0B86      |        2950 |
|     149 | 0x1E37      |        7735 |
|     150 | 0x1E38      |        7736 |
|     151 | 0x1E39      |        7737 |
|     152 | 0x00D2      |         210 |
|     153 | 0x1E3A      |        7738 |
|     154 | 0x028E      |         654 |
|     155 | 0xEE8D      |       61069 |
|     156 | 0xFFFB317B  |  4294652283 |
|     157 | 0x9C3F      |       39999 |
|     158 | 0x046B      |        1131 |
|     159 | 0x00CC      |         204 |
|     160 | 0xECF5      |       60661 |
|     161 | 0xFFFB2732  |  4294649650 |
|     162 | 0x1D2A      |        7466 |
|     163 | 0x1D2B      |        7467 |
|     164 | 0x1D2C      |        7468 |
|     165 | 0x1D2D      |        7469 |
|     166 | 0x1D2E      |        7470 |
|     167 | 0x1D2F      |        7471 |
|     168 | 0x1D30      |        7472 |
|     169 | 0x1D31      |        7473 |
|     170 | 0x1D32      |        7474 |
|     171 | 0x1D33      |        7475 |
|     172 | 0x1D34      |        7476 |
|     173 | 0x0178      |         376 |
|     174 | 0x1D35      |        7477 |
|     175 | 0x1D36      |        7478 |
|     176 | 0x1D37      |        7479 |
|     177 | 0x1D38      |        7480 |
|     178 | 0x1D39      |        7481 |
|     179 | 0x1D3A      |        7482 |
|     180 | 0x1D3B      |        7483 |
|     181 | 0x1D3C      |        7484 |
|     182 | 0x1D3D      |        7485 |
|     183 | 0x1D3E      |        7486 |
|     184 | 0x1D3F      |        7487 |
|     185 | 0x1D40      |        7488 |
|     186 | 0x1D41      |        7489 |
|     187 | 0x00C9      |         201 |
|     188 | 0xFFFEDF52  |  4294893394 |
|     189 | 0xFFF93C35  |  4294523957 |
|     190 | 0xD574      |       54644 |
|     191 | 0x0FEA      |        4074 |
|     192 | 0x0029      |          41 |
|     193 | 0xFFFF9A9C  |  4294941340 |
|     194 | 0x3FAD1     |      260817 |
|     195 | 0xFFFFCD39  |  4294954297 |
|     196 | 0x0CE0      |        3296 |
|     197 | 0xFFFF9518  |  4294939928 |
|     198 | 0x441EE     |      279022 |
|     199 | 0xFFFFCD38  |  4294954296 |
|     200 | 0x0A46      |        2630 |
|     201 | 0xFFFF9A4C  |  4294941260 |
|     202 | 0x407DB     |      264155 |
|     203 | 0xFFFD4B01  |  4294789889 |
|     204 | 0x3E645     |      255557 |
|     205 | 0x226B      |        8811 |
|     206 | 0x0AE0      |        2784 |
|     207 | 0x1E57      |        7767 |
|     208 | 0x1E58      |        7768 |
|     209 | 0x40000000  |  1073741824 |
|     210 | 0x51F59     |      335705 |
|     211 | 0xFFFF1533  |  4294907187 |
|     212 | 0x4AA0      |       19104 |
|     213 | 0x0FE8      |        4072 |
|     214 | 0x52992     |      338322 |
|     215 | 0xFFFF1565  |  4294907237 |
|     216 | 0x0027      |          39 |
|     217 | 0x002D      |          45 |
|     218 | 0x1E5B      |        7771 |
|     219 | 0x0002      |           2 |
|     220 | 0x1E5C      |        7772 |
|     221 | 0x1E5D      |        7773 |
|     222 | 0x1E5E      |        7774 |
|     223 | 0x006E      |         110 |
|     224 | 0x1E5F      |        7775 |
|     225 | 0x1E60      |        7776 |
|     226 | 0x1E61      |        7777 |
|     227 | 0x1E62      |        7778 |
|     228 | 0x1E63      |        7779 |
|     229 | 0x1E64      |        7780 |
|     230 | 0x1E65      |        7781 |
|     231 | 0x1E66      |        7782 |
|     232 | 0x1E67      |        7783 |
|     233 | 0x1E68      |        7784 |
|     234 | 0x1E69      |        7785 |
|     235 | 0x1E6A      |        7786 |
|     236 | 0x1E6B      |        7787 |
|     237 | 0x1E6C      |        7788 |
|     238 | 0x1E6D      |        7789 |
|     239 | 0x1E59      |        7769 |
|     240 | 0x1E5A      |        7770 |
|     241 | 0x1C3C      |        7228 |
|     242 | 0x1C3D      |        7229 |
|     243 | 0x004B      |          75 |
|     244 | 0x30EC      |       12524 |
|     245 | 0x30ED      |       12525 |
|     246 | 0x016B      |         363 |
|     247 | 0x0099      |         153 |
|     248 | 0xFFFD46B2  |  4294788786 |
|     249 | 0x3D278     |      250488 |
|     250 | 0x224C      |        8780 |
|     251 | 0x0B43      |        2883 |
|     252 | 0x0079      |         121 |
|     253 | 0xFFFD4427  |  4294788135 |
|     254 | 0x3DBA2     |      252834 |
|     255 | 0x22BF      |        8895 |
|     256 | 0x0005      |           5 |
|     257 | 0x0096      |         150 |
|     258 | 0x1EB0      |        7856 |
|     259 | 0x1EB1      |        7857 |
|     260 | 0x1EB2      |        7858 |
|     261 | 0x1EB3      |        7859 |
|     262 | 0x1EB4      |        7860 |
|     263 | 0x1EB5      |        7861 |
|     264 | 0x1EB6      |        7862 |
|     265 | 0x1EB7      |        7863 |
|     266 | 0x1EB8      |        7864 |
|     267 | 0x1EB9      |        7865 |
|     268 | 0x1EBA      |        7866 |
|     269 | 0x1EBB      |        7867 |
|     270 | 0x1EBC      |        7868 |
|     271 | 0x1EBD      |        7869 |
|     272 | 0x1EBE      |        7870 |
|     273 | 0x1EC9      |        7881 |
|     274 | 0x1ECA      |        7882 |
|     275 | 0x1ECB      |        7883 |
|     276 | 0x1ECC      |        7884 |
|     277 | 0x1ECD      |        7885 |
|     278 | 0x1ECE      |        7886 |
|     279 | 0x1ECF      |        7887 |
|     280 | 0xFFFD41A7  |  4294787495 |
|     281 | 0x3E614     |      255508 |
|     282 | 0x2269      |        8809 |
|     283 | 0x0A96      |        2710 |
|     284 | 0x1EBF      |        7871 |
|     285 | 0x1EC0      |        7872 |
|     286 | 0xFFFD4865  |  4294789221 |
|     287 | 0x3D657     |      251479 |
|     288 | 0x22AD      |        8877 |
|     289 | 0x0ACF      |        2767 |
|     290 | 0x1EC1      |        7873 |
|     291 | 0x1EC2      |        7874 |
|     292 | 0x1EC3      |        7875 |
|     293 | 0x1EC4      |        7876 |
|     294 | 0x1EC5      |        7877 |
|     295 | 0x1EC6      |        7878 |
|     296 | 0x1EC7      |        7879 |
|     297 | 0x1EC8      |        7880 |
|     298 | 0xFFF7E20F  |  4294435343 |
|     299 | 0x74A23     |      477731 |
|     300 | 0x0185      |         389 |
|     301 | 0x0206      |         518 |
|     302 | 0xFFF81463  |  4294448227 |
|     303 | 0x72839     |      469049 |
|     304 | 0x019C      |         412 |
|     305 | 0x1F8D      |        8077 |
|     306 | 0x1F8E      |        8078 |
|     307 | 0x1F8F      |        8079 |
|     308 | 0x1F90      |        8080 |
|     309 | 0x1F91      |        8081 |
|     310 | 0x0009      |           9 |
|     311 | 0x008C      |         140 |
|     312 | 0x000F      |          15 |
|     313 | 0x1EDC      |        7900 |
|     314 | 0x0090      |         144 |
|     315 | 0x1EE8      |        7912 |
|     316 | 0x0063      |          99 |
|     317 | 0x1EE9      |        7913 |
|     318 | 0xFFF9ED97  |  4294569367 |
|     319 | 0x5685C     |      354396 |
|     320 | 0xFFFFB565  |  4294948197 |
|     321 | 0xFFF9ECB3  |  4294569139 |
|     322 | 0x56271     |      352881 |
|     323 | 0x0057      |          87 |
|     324 | 0x005D      |          93 |
|     325 | 0x0060      |          96 |
|     326 | 0x008D      |         141 |
|     327 | 0x0F26      |        3878 |
|     328 | 0x0097      |         151 |
|     329 | 0x0004      |           4 |
|     330 | 0x00AB      |         171 |
|     331 | 0x00B5      |         181 |
|     332 | 0x0006      |           6 |
|     333 | 0x0007      |           7 |
|     334 | 0x00BF      |         191 |
|     335 | 0x0008      |           8 |
|     336 | 0x66D5D     |      421213 |
|     337 | 0xFFFDD65B  |  4294825563 |
|     338 | 0x3606F     |      221295 |
|     339 | 0x21CE1     |      138465 |
|     340 | 0x3FC23     |      261155 |
|     341 | 0x53528     |      341288 |
|     342 | 0x894E      |       35150 |
|     343 | 0x0095      |         149 |
|     344 | 0x65130     |      414000 |
|     345 | 0x7530      |       30000 |
|     346 | 0x5EBA      |       24250 |
|     347 | 0x63FB0     |      409520 |
|     348 | 0x77B0      |       30640 |
|     349 | 0x5E2E      |       24110 |
|     350 | 0x315F      |       12639 |
|     351 | 0x009F      |         159 |
|     352 | 0x00A9      |         169 |
|     353 | 0x00B3      |         179 |
|     354 | 0x00BD      |         189 |
|     355 | 0x00C7      |         199 |
|     356 | 0x0045      |          69 |
|     357 | 0x3AC86     |      240774 |
|     358 | 0xFFFAC67F  |  4294624895 |
|     359 | 0x5207      |       20999 |
|     360 | 0x3A5C9     |      239049 |
|     361 | 0xFFFAE661  |  4294633057 |
|     362 | 0x39F2C     |      237356 |
|     363 | 0xFFFB0032  |  4294639666 |
|     364 | 0x4DCB      |       19915 |

## String References

- **7228**: The telepoint has disappeared...
- **7229**: Investigate the missing telepoint? [Let's see here.../Not right now.]
- **7767**: The telepoint has been shattered into a thousand pieces...
- **7768**: Investigate further? [Yes./No.]
- **7769**: Have you made your preparations?
- **7770**: Preparations complete? [Yes./Not yet.]
- **7900**: There is treasure somewhere in the vicinity of this marker...
- **7912**: Your chocobo seems especially sharp today!
- **7913**: Your chocobo seems especially energetic today!
- **8077**: Your fate is currently entwined in the swirling mists of [Promyvion - Holla/Promyvion - Dem/Promyvion - Mea].
- **8078**: By sealing off a portion of your memory, your destiny within this realm of Promyvion can be altered.
- **8079**: This will allow you to return to the entrance of the crag, having forgotten all events regarding this place.
- **8080**: Seal off your memories? [Yes./No.]
- **8081**: Are you sure? [Absolutely./No.]
- **12524**: Teleport to where? [Al'Taieu./The Empyreal Paradox./Nowhere.]
- **12525**: Teleport to where? [Al'Taieu./Reisenjima./Nowhere.]
- **12639**: Entering [/Moglesse Oblige][/: Very Difficult/: Difficult/: Normal/: Easy/: Very Easy].

## Events

### Event 65535

#### Metadata

| Field        | Value   |
|--------------|---------|
| Entrypoint   | 0x0000  |
| Data Size    | 1 bytes |
| Instructions | 1       |

```
      00 01 02 03 04 05 06 07  08 09 0A 0B 0C 0D 0E 0F
      -- -- -- -- -- -- -- --  -- -- -- -- -- -- -- --
0000: 00                                                .               
```

#### Opcodes

```
  0: 0x0000 [0x00] END_REQSTACK()
```

### Event 106

#### Metadata

| Field        | Value   |
|--------------|---------|
| Entrypoint   | 0x0001  |
| Data Size    | 1 bytes |
| Instructions | 1       |

```
      00 01 02 03 04 05 06 07  08 09 0A 0B 0C 0D 0E 0F
      -- -- -- -- -- -- -- --  -- -- -- -- -- -- -- --
0000:    00                                              .              
```

#### Opcodes

```
  0: 0x0001 [0x00] END_REQSTACK()
```

### Event 65535.1

#### Metadata

| Field        | Value   |
|--------------|---------|
| Entrypoint   | 0x0002  |
| Data Size    | 6 bytes |
| Instructions | 2       |

```
      00 01 02 03 04 05 06 07  08 09 0A 0B 0C 0D 0E 0F
      -- -- -- -- -- -- -- --  -- -- -- -- -- -- -- --
0000:       1E 5F 62 06 01 00                             ._b...        
```

#### Opcodes

```
  0: 0x0002 [0x1E] EventEntity looks at Narvecaint (ID: 17195615/0x0106625F) and starts talking
  1: 0x0007 [0x00] END_REQSTACK()
```

### Event 65534

#### Metadata

| Field        | Value   |
|--------------|---------|
| Entrypoint   | 0x0008  |
| Data Size    | 1 bytes |
| Instructions | 1       |

```
      00 01 02 03 04 05 06 07  08 09 0A 0B 0C 0D 0E 0F
      -- -- -- -- -- -- -- --  -- -- -- -- -- -- -- --
0000:                          00                               .       
```

#### Opcodes

```
  0: 0x0008 [0x00] END_REQSTACK()
```

### Event 65535.2

#### Metadata

| Field        | Value    |
|--------------|----------|
| Entrypoint   | 0x0009   |
| Data Size    | 10 bytes |
| Instructions | 2        |

```
      00 01 02 03 04 05 06 07  08 09 0A 0B 0C 0D 0E 0F
      -- -- -- -- -- -- -- --  -- -- -- -- -- -- -- --
0000:                             37 00 80 01 80 02 80           7......
0010: 03 80 00                                          ...             
```

#### Opcodes

```
  0: 0x0009 [0x37] UPDATE_EVENT_POSITION_AND_DIR: x=-178.009*, z=251.683*, y=8.897*, direction=228.3°*
  1: 0x0012 [0x00] END_REQSTACK()
```

### Event 65535.3

#### Metadata

| Field        | Value    |
|--------------|----------|
| Entrypoint   | 0x0013   |
| Data Size    | 10 bytes |
| Instructions | 2        |

```
      00 01 02 03 04 05 06 07  08 09 0A 0B 0C 0D 0E 0F
      -- -- -- -- -- -- -- --  -- -- -- -- -- -- -- --
0010:          37 04 80 05 80  06 80 07 80 00              7.........   
```

#### Opcodes

```
  0: 0x0013 [0x37] UPDATE_EVENT_POSITION_AND_DIR: x=-179.246*, z=249.807*, y=8.750*, direction=270.1°*
  1: 0x001C [0x00] END_REQSTACK()
```

### Event 65535.4

#### Metadata

| Field        | Value    |
|--------------|----------|
| Entrypoint   | 0x001D   |
| Data Size    | 10 bytes |
| Instructions | 2        |

```
      00 01 02 03 04 05 06 07  08 09 0A 0B 0C 0D 0E 0F
      -- -- -- -- -- -- -- --  -- -- -- -- -- -- -- --
0010:                                         37 08 80               7..
0020: 09 80 0A 80 0B 80 00                              .......         
```

#### Opcodes

```
  0: 0x001D [0x37] UPDATE_EVENT_POSITION_AND_DIR: x=-177.556*, z=248.516*, y=8.631*, direction=253.6°*
  1: 0x0026 [0x00] END_REQSTACK()
```

### Event 65535.5

#### Metadata

| Field        | Value    |
|--------------|----------|
| Entrypoint   | 0x0027   |
| Data Size    | 16 bytes |
| Instructions | 3        |

```
      00 01 02 03 04 05 06 07  08 09 0A 0B 0C 0D 0E 0F
      -- -- -- -- -- -- -- --  -- -- -- -- -- -- -- --
0020:                      92  01 F0 FF FF 7F 37 0C 80         ......7..
0030: 0D 80 0E 80 0F 80 00                              .......         
```

#### Opcodes

```
  0: 0x0027 [0x92] LocalPlayer->Render.Flags3 ^= 0x01
  1: 0x002D [0x37] UPDATE_EVENT_POSITION_AND_DIR: x=-561.564*, z=641.600*, y=0.000*, direction=41.9°*
  2: 0x0036 [0x00] END_REQSTACK()
```

### Event 65535.6

#### Metadata

| Field        | Value    |
|--------------|----------|
| Entrypoint   | 0x0037   |
| Data Size    | 41 bytes |
| Instructions | 5        |

```
      00 01 02 03 04 05 06 07  08 09 0A 0B 0C 0D 0E 0F
      -- -- -- -- -- -- -- --  -- -- -- -- -- -- -- --
0030:                      BB  10 80 F0 FF FF 7F 94 62         ........b
0040: 06 01 6D 61 69 6E 0E 80  1C 11 80 45 12 80 F0 FF  ..main.....E....
0050: FF 7F F0 FF FF 7F 66 64  6F 31 0E 80 1C 13 80 00  ......fdo1......
```

#### Opcodes

```
  0: 0x0037 [0xBB] LOAD_EVENT_SCHEDULER_ALT: Load scheduler "main" with entities [LocalPlayer, Cavernous Maw (ID: 17195668/0x01066294)], work=[148*, 0*]
  1: 0x0048 [0x1C] WAIT(240* ticks)
  2: 0x004B [0x45] LOAD_SCHEDULED_TASK: Load scheduler "fdo1" with entities [LocalPlayer, LocalPlayer], work=[200*, 0*]
  3: 0x005C [0x1C] WAIT(60* ticks)
  4: 0x005F [0x00] END_REQSTACK()
```

### Event 0

#### Metadata

| Field        | Value      |
|--------------|------------|
| Entrypoint   | 0x0060     |
| Data Size    | 1600 bytes |
| Instructions | 222        |

```
      00 01 02 03 04 05 06 07  08 09 0A 0B 0C 0D 0E 0F
      -- -- -- -- -- -- -- --  -- -- -- -- -- -- -- --
0060: 20 01 46 01 42 45 12 80  F0 FF FF 7F F0 FF FF 7F   .F.BE..........
0070: 66 64 6F 31 0E 80 55 12  80 F0 FF FF 7F F0 FF FF  fdo1..U.........
0080: 7F 66 64 6F 31 5C 00 14  80 5C 01 14 80 38 15 80  .fdo1\...\...8..
0090: 37 16 80 17 80 18 80 19  80 4E 00 80 62 06 01 45  7........N..b..E
00A0: 1A 80 F0 FF FF 7F F0 FF  FF 7F 6A 30 30 30 0E 80  ..........j000..
00B0: 55 1A 80 F0 FF FF 7F F0  FF FF 7F 6A 30 30 30 27  U..........j000'
00C0: 03 5F 62 06 01 09 97 0E  80 1B 80 4A 80 62 06 01  ._b........J.b..
00D0: F0 FF FF 7F 45 12 80 F0  FF FF 7F F0 FF FF 7F 66  ....E..........f
00E0: 64 69 31 0E 80 55 12 80  F0 FF FF 7F F0 FF FF 7F  di1..U..........
00F0: 66 64 69 31 2B 5F 62 06  01 1C 80 23 2B 80 62 06  fdi1+_b....#+.b.
0100: 01 1D 80 1C 13 80 1E 80  62 06 01 27 03 5F 62 06  ........b..'._b.
0110: 01 0A 1C 13 80 45 1A 80  F0 FF FF 7F F0 FF FF 7F  .....E..........
0120: 6A 30 30 31 0E 80 55 1A  80 F0 FF FF 7F F0 FF FF  j001..U.........
0130: 7F 6A 30 30 31 23 45 1A  80 F0 FF FF 7F F0 FF FF  .j001#E.........
0140: 7F 6A 30 30 32 0E 80 29  03 80 62 06 01 02 79 00  .j002..)..b...y.
0150: 80 62 06 01 5F 62 06 01  4A F0 FF FF 7F 80 62 06  .b.._b..J.....b.
0160: 01 4A 5F 62 06 01 80 62  06 01 55 1A 80 F0 FF FF  .J_b...b..U.....
0170: 7F F0 FF FF 7F 6A 30 30  32 2B 80 62 06 01 1E 80  .....j002+.b....
0180: 1C 13 80 27 03 5F 62 06  01 0A 23 27 03 5F 62 06  ...'._b...#'._b.
0190: 01 14 2B 5F 62 06 01 1F  80 23 2A 03 5F 62 06 01  ..+_b....#*._b..
01A0: 27 03 80 62 06 01 13 1C  20 80 45 1A 80 F0 FF FF  '..b.... .E.....
01B0: 7F F0 FF FF 7F 6A 30 30  33 0E 80 55 1A 80 F0 FF  .....j003..U....
01C0: FF 7F F0 FF FF 7F 6A 30  30 33 4E 00 81 62 06 01  ......j003N..b..
01D0: 2B 80 62 06 01 21 80 23  27 03 81 62 06 01 02 1C  +.b..!.#'..b....
01E0: 22 80 45 1A 80 F0 FF FF  7F F0 FF FF 7F 6A 30 30  ".E..........j00
01F0: 34 0E 80 55 1A 80 F0 FF  FF 7F F0 FF FF 7F 6A 30  4..U..........j0
0200: 30 34 29 03 80 62 06 01  03 5D 0E 80 11 80 2B 5F  04)..b...]....+_
0210: 62 06 01 23 80 1C 24 80  4A F0 FF FF 7F 81 62 06  b..#..$.J.....b.
0220: 01 4A 5F 62 06 01 81 62  06 01 1C 13 80 4A F0 FF  .J_b...b.....J..
0230: FF 7F 81 62 06 01 4A 5F  62 06 01 81 62 06 01 1C  ...b..J_b...b...
0240: 13 80 4A F0 FF FF 7F 81  62 06 01 4A 5F 62 06 01  ..J.....b..J_b..
0250: 81 62 06 01 1C 13 80 4A  F0 FF FF 7F 81 62 06 01  .b.....J.....b..
0260: 4A 5F 62 06 01 81 62 06  01 45 1A 80 F0 FF FF 7F  J_b...b..E......
0270: F0 FF FF 7F 6A 30 31 36  0E 80 55 1A 80 F0 FF FF  ....j016..U.....
0280: 7F F0 FF FF 7F 6A 30 31  36 23 2B 80 62 06 01 25  .....j016#+.b..%
0290: 80 4A 5F 62 06 01 81 62  06 01 1C 22 80 4A F0 FF  .J_b...b...".J..
02A0: FF 7F 81 62 06 01 1C 22  80 4A 5F 62 06 01 81 62  ...b...".J_b...b
02B0: 06 01 1C 22 80 4A F0 FF  FF 7F 81 62 06 01 1C 22  ...".J.....b..."
02C0: 80 27 03 80 62 06 01 14  4A 5F 62 06 01 81 62 06  .'..b...J_b...b.
02D0: 01 1C 22 80 4A F0 FF FF  7F 81 62 06 01 1C 22 80  ..".J.....b...".
02E0: 27 03 80 62 06 01 14 5C  00 26 80 5C 01 26 80 23  '..b...\.&.\.&.#
02F0: 45 1A 80 F0 FF FF 7F F0  FF FF 7F 6A 30 30 36 0E  E..........j006.
0300: 80 2B 81 62 06 01 27 80  23 4A 5F 62 06 01 81 62  .+.b..'.#J_b...b
0310: 06 01 4A F0 FF FF 7F 81  62 06 01 55 1A 80 F0 FF  ..J.....b..U....
0320: FF 7F F0 FF FF 7F 6A 30  30 36 2B 81 62 06 01 28  ......j006+.b..(
0330: 80 23 45 1A 80 F0 FF FF  7F F0 FF FF 7F 6A 30 30  .#E..........j00
0340: 35 0E 80 55 1A 80 F0 FF  FF 7F F0 FF FF 7F 6A 30  5..U..........j0
0350: 30 35 2A 03 80 62 06 01  4A 80 62 06 01 81 62 06  05*..b..J.b...b.
0360: 01 6F 76 80 62 06 01 2B  80 62 06 01 29 80 1C 2A  .ov.b..+.b..)..*
0370: 80 4A 5F 62 06 01 80 62  06 01 6F 76 5F 62 06 01  .J_b...b..ov_b..
0380: 23 27 03 5F 62 06 01 14  2B 5F 62 06 01 2B 80 23  #'._b...+_b..+.#
0390: 2A 03 5F 62 06 01 4A 5F  62 06 01 81 62 06 01 4A  *._b..J_b...b..J
03A0: 81 62 06 01 5F 62 06 01  6F 76 81 62 06 01 2B 81  .b.._b..ov.b..+.
03B0: 62 06 01 2C 80 23 45 1A  80 F0 FF FF 7F F0 FF FF  b..,.#E.........
03C0: 7F 6A 30 30 37 0E 80 55  1A 80 F0 FF FF 7F F0 FF  .j007..U........
03D0: FF 7F 6A 30 30 37 1C 22  80 2B 80 62 06 01 2D 80  ..j007.".+.b..-.
03E0: 23 27 03 81 62 06 01 04  2B 81 62 06 01 2E 80 23  #'..b...+.b....#
03F0: 27 03 80 62 06 01 05 2B  80 62 06 01 2F 80 1C 22  '..b...+.b../.."
0400: 80 4A 5F 62 06 01 80 62  06 01 6F 76 5F 62 06 01  .J_b...b..ov_b..
0410: 23 2B 5F 62 06 01 30 80  23 2B 80 62 06 01 31 80  #+_b..0.#+.b..1.
0420: 23 45 1A 80 F0 FF FF 7F  F0 FF FF 7F 6A 30 31 35  #E..........j015
0430: 0E 80 55 1A 80 F0 FF FF  7F F0 FF FF 7F 6A 30 31  ..U..........j01
0440: 35 27 03 81 62 06 01 13  2B 81 62 06 01 32 80 1C  5'..b...+.b..2..
0450: 13 80 23 4A 81 62 06 01  80 62 06 01 6F 76 81 62  ..#J.b...b..ov.b
0460: 06 01 2B 81 62 06 01 33  80 23 4A 80 62 06 01 81  ..+.b..3.#J.b...
0470: 62 06 01 45 1A 80 F0 FF  FF 7F F0 FF FF 7F 6A 30  b..E..........j0
0480: 30 38 0E 80 55 1A 80 F0  FF FF 7F F0 FF FF 7F 6A  08..U..........j
0490: 30 30 38 2B 80 62 06 01  34 80 23 45 1A 80 F0 FF  008+.b..4.#E....
04A0: FF 7F F0 FF FF 7F 6A 30  30 39 0E 80 55 1A 80 F0  ......j009..U...
04B0: FF FF 7F F0 FF FF 7F 6A  30 30 39 27 02 81 62 06  .......j009'..b.
04C0: 01 04 27 03 5F 62 06 01  0B 2B 81 62 06 01 35 80  ..'._b...+.b..5.
04D0: 23 27 03 80 62 06 01 16  1C 36 80 45 1A 80 F0 FF  #'..b....6.E....
04E0: FF 7F F0 FF FF 7F 6A 30  31 30 0E 80 27 02 5F 62  ......j010..'._b
04F0: 06 01 15 55 1A 80 F0 FF  FF 7F F0 FF FF 7F 6A 30  ...U..........j0
0500: 31 30 2B 80 62 06 01 37  80 23 45 1A 80 F0 FF FF  10+.b..7.#E.....
0510: 7F F0 FF FF 7F 6A 30 31  31 0E 80 27 02 5F 62 06  .....j011..'._b.
0520: 01 16 55 1A 80 F0 FF FF  7F F0 FF FF 7F 6A 30 31  ..U..........j01
0530: 31 2B 80 62 06 01 38 80  23 2B 81 62 06 01 39 80  1+.b..8.#+.b..9.
0540: 23 27 03 81 62 06 01 11  2B 81 62 06 01 3A 80 23  #'..b...+.b..:.#
0550: 27 03 80 62 06 01 15 2B  80 62 06 01 3B 80 23 27  '..b...+.b..;.#'
0560: 03 5F 62 06 01 0C 1C 3C  80 79 00 81 62 06 01 5F  ._b....<.y..b.._
0570: 62 06 01 27 03 81 62 06  01 12 2B 81 62 06 01 3D  b..'..b...+.b..=
0580: 80 23 45 12 80 F0 FF FF  7F F0 FF FF 7F 66 64 6F  .#E..........fdo
0590: 31 0E 80 55 12 80 F0 FF  FF 7F F0 FF FF 7F 66 64  1..U..........fd
05A0: 6F 31 78 1C 22 80 2B 81  62 06 01 3E 80 23 29 01  o1x.".+.b..>.#).
05B0: 80 62 06 01 07 4A F0 FF  FF 7F 80 62 06 01 4E 01  .b...J.....b..N.
05C0: 81 62 06 01 4E 01 5F 62  06 01 97 0E 80 1B 80 45  .b..N._b.......E
05D0: 1A 80 F0 FF FF 7F F0 FF  FF 7F 6A 30 31 32 0E 80  ..........j012..
05E0: 45 12 80 F0 FF FF 7F F0  FF FF 7F 66 64 69 31 0E  E..........fdi1.
05F0: 80 55 12 80 F0 FF FF 7F  F0 FF FF 7F 66 64 69 31  .U..........fdi1
0600: 55 1A 80 F0 FF FF 7F F0  FF FF 7F 6A 30 31 32 2B  U..........j012+
0610: 80 62 06 01 3F 80 23 4A  80 62 06 01 F0 FF FF 7F  .b..?.#J.b......
0620: 1C 20 80 45 1A 80 F0 FF  FF 7F F0 FF FF 7F 6A 30  . .E..........j0
0630: 31 33 0E 80 55 1A 80 F0  FF FF 7F F0 FF FF 7F 6A  13..U..........j
0640: 30 31 33 6F 76 80 62 06  01 2B 80 62 06 01 40 80  013ov.b..+.b..@.
0650: 23 2B 80 62 06 01 41 80  23 27 03 80 62 06 01 08  #+.b..A.#'..b...
0660: 1C 13 80 45 12 80 F0 FF  FF 7F F0 FF FF 7F 66 64  ...E..........fd
0670: 6F 32 0E 80 55 12 80 F0  FF FF 7F F0 FF FF 7F 66  o2..U..........f
0680: 64 6F 32 5C 00 0E 80 5C  01 0E 80 46 00 45 12 80  do2\...\...F.E..
0690: F0 FF FF 7F F0 FF FF 7F  66 64 69 32 0E 80 21 00  ........fdi2..!.
```

#### Opcodes

```
  0: 0x0060 [0x20] SET_CLI_EVENT_UC_FLAG: Lock player control
  1: 0x0062 [0x46] CAMERA_CONTROL: Disable user control
  2: 0x0064 [0x42] SET_CLI_EVENT_CANCEL_DATA()
  3: 0x0065 [0x45] LOAD_SCHEDULED_TASK: Load scheduler "fdo1" with entities [LocalPlayer, LocalPlayer], work=[200*, 0*]
  4: 0x0076 [0x55] WAIT_LOAD_SCHEDULER: Wait for scheduler "fdo1" with entities [LocalPlayer, LocalPlayer], work=200*
  5: 0x0085 [0x5C] MUSIC_CONTROL: Set Idle (Day) music to song 103*
  6: 0x0089 [0x5C] MUSIC_CONTROL: Set Idle (Night) music to song 103*
  7: 0x008D [0x38] SET_CLIENT_EVENT_MODE(mode=19*)
  8: 0x0090 [0x37] UPDATE_EVENT_POSITION_AND_DIR: x=-263.632*, z=128.351*, y=22.912*, direction=38.4°*
  9: 0x0099 [0x4E] SET_ENTITY_HIDE_FLAG: Show Elmemague (ID: 17195648/0x01066280)
 10: 0x009F [0x45] LOAD_SCHEDULED_TASK: Load scheduler "j000" with entities [LocalPlayer, LocalPlayer], work=[55*, 0*]
 11: 0x00B0 [0x55] WAIT_LOAD_SCHEDULER: Wait for scheduler "j000" with entities [LocalPlayer, LocalPlayer], work=55*
 12: 0x00BF [0x27] REQ_SET(priority=0x03, entity_id=Narvecaint (ID: 17195615/0x0106625F), tag_num=0x09)
 13: 0x00C6 [0x97] SAVE_SET_WIND_VALUES(wind_base=0x800E, wind_width=0x801B)
 14: 0x00CB [0x4A] Elmemague (ID: 17195648/0x01066280) looks at LocalPlayer
 15: 0x00D4 [0x45] LOAD_SCHEDULED_TASK: Load scheduler "fdi1" with entities [LocalPlayer, LocalPlayer], work=[200*, 0*]
 16: 0x00E5 [0x55] WAIT_LOAD_SCHEDULER: Wait for scheduler "fdi1" with entities [LocalPlayer, LocalPlayer], work=200*
 17: 0x00F4 [0x2B] Narvecaint (ID: 17195615/0x0106625F) [7649*]:
    → "Ah, you must be the adventurer Sir Elmemague spoke of."
 18: 0x00FB [0x23] WAIT_FOR_DIALOG_INTERACTION
 19: 0x00FC [0x2B] Elmemague (ID: 17195648/0x01066280) [7650*]:
    → "You're finally here. Our opponent is a heinous criminal. Your cooperation in this matter is highly appreciated."
 20: 0x0103 [0x1C] WAIT(60* ticks)
 21: 0x0106 [0x1E] EventEntity looks at Elmemague (ID: 17195648/0x01066280) and starts talking
 22: 0x010B [0x27] REQ_SET(priority=0x03, entity_id=Narvecaint (ID: 17195615/0x0106625F), tag_num=0x0A)
 23: 0x0112 [0x1C] WAIT(60* ticks)
 24: 0x0115 [0x45] LOAD_SCHEDULED_TASK: Load scheduler "j001" with entities [LocalPlayer, LocalPlayer], work=[55*, 0*]
 25: 0x0126 [0x55] WAIT_LOAD_SCHEDULER: Wait for scheduler "j001" with entities [LocalPlayer, LocalPlayer], work=55*
 26: 0x0135 [0x23] WAIT_FOR_DIALOG_INTERACTION
 27: 0x0136 [0x45] LOAD_SCHEDULED_TASK: Load scheduler "j002" with entities [LocalPlayer, LocalPlayer], work=[55*, 0*]
 28: 0x0147 [0x29] REQ_SET_WAIT(priority=0x03, entity_id=Elmemague (ID: 17195648/0x01066280), tag_num=0x02)
 29: 0x014E [0x79] Elmemague (ID: 17195648/0x01066280) looks at Narvecaint (ID: 17195615/0x0106625F) (Basic look)
 30: 0x0158 [0x4A] LocalPlayer looks at Elmemague (ID: 17195648/0x01066280)
 31: 0x0161 [0x4A] Narvecaint (ID: 17195615/0x0106625F) looks at Elmemague (ID: 17195648/0x01066280)
 32: 0x016A [0x55] WAIT_LOAD_SCHEDULER: Wait for scheduler "j002" with entities [LocalPlayer, LocalPlayer], work=55*
 33: 0x0179 [0x2B] Elmemague (ID: 17195648/0x01066280) [7651*]:
    → "What word on our quarry?"
 34: 0x0180 [0x1C] WAIT(60* ticks)
 35: 0x0183 [0x27] REQ_SET(priority=0x03, entity_id=Narvecaint (ID: 17195615/0x0106625F), tag_num=0x0A)
 36: 0x018A [0x23] WAIT_FOR_DIALOG_INTERACTION
 37: 0x018B [0x27] REQ_SET(priority=0x03, entity_id=Narvecaint (ID: 17195615/0x0106625F), tag_num=0x14)
 38: 0x0192 [0x2B] Narvecaint (ID: 17195615/0x0106625F) [7652*]:
    → "Sir! He appears to be resting up within Ordelle's Caves. This is our chance to bring the knave to justice!"
 39: 0x0199 [0x23] WAIT_FOR_DIALOG_INTERACTION
 40: 0x019A [0x2A] GET_REQ_LEVEL(level=3, entity_id=Narvecaint (ID: 17195615/0x0106625F))
 41: 0x01A0 [0x27] REQ_SET(priority=0x03, entity_id=Elmemague (ID: 17195648/0x01066280), tag_num=0x13)
 42: 0x01A7 [0x1C] WAIT(10* ticks)
 43: 0x01AA [0x45] LOAD_SCHEDULED_TASK: Load scheduler "j003" with entities [LocalPlayer, LocalPlayer], work=[55*, 0*]
 44: 0x01BB [0x55] WAIT_LOAD_SCHEDULER: Wait for scheduler "j003" with entities [LocalPlayer, LocalPlayer], work=55*
 45: 0x01CA [0x4E] SET_ENTITY_HIDE_FLAG: Show Vijartal (ID: 17195649/0x01066281)
 46: 0x01D0 [0x2B] Elmemague (ID: 17195648/0x01066280) [7653*]:
    → "This is merely a trap. A ruse to draw us into a battlefield of his choosing. Who knows how many allies lie in ambush within?"
 47: 0x01D7 [0x23] WAIT_FOR_DIALOG_INTERACTION
 48: 0x01D8 [0x27] REQ_SET(priority=0x03, entity_id=Vijartal (ID: 17195649/0x01066281), tag_num=0x02)
 49: 0x01DF [0x1C] WAIT(30* ticks)
 50: 0x01E2 [0x45] LOAD_SCHEDULED_TASK: Load scheduler "j004" with entities [LocalPlayer, LocalPlayer], work=[55*, 0*]
 51: 0x01F3 [0x55] WAIT_LOAD_SCHEDULER: Wait for scheduler "j004" with entities [LocalPlayer, LocalPlayer], work=55*
 52: 0x0202 [0x29] REQ_SET_WAIT(priority=0x03, entity_id=Elmemague (ID: 17195648/0x01066280), tag_num=0x03)
 53: 0x0209 [0x5D] SET_MUSIC_VOLUME(volume=0*, fade_time=240*)
 54: 0x020E [0x2B] Narvecaint (ID: 17195615/0x0106625F) [7654*]:
    → "An ambush..."
 55: 0x0215 [0x1C] WAIT(70* ticks)
 56: 0x0218 [0x4A] LocalPlayer looks at Vijartal (ID: 17195649/0x01066281)
 57: 0x0221 [0x4A] Narvecaint (ID: 17195615/0x0106625F) looks at Vijartal (ID: 17195649/0x01066281)
 58: 0x022A [0x1C] WAIT(60* ticks)
 59: 0x022D [0x4A] LocalPlayer looks at Vijartal (ID: 17195649/0x01066281)
 60: 0x0236 [0x4A] Narvecaint (ID: 17195615/0x0106625F) looks at Vijartal (ID: 17195649/0x01066281)
 61: 0x023F [0x1C] WAIT(60* ticks)
 62: 0x0242 [0x4A] LocalPlayer looks at Vijartal (ID: 17195649/0x01066281)
 63: 0x024B [0x4A] Narvecaint (ID: 17195615/0x0106625F) looks at Vijartal (ID: 17195649/0x01066281)
 64: 0x0254 [0x1C] WAIT(60* ticks)
 65: 0x0257 [0x4A] LocalPlayer looks at Vijartal (ID: 17195649/0x01066281)
 66: 0x0260 [0x4A] Narvecaint (ID: 17195615/0x0106625F) looks at Vijartal (ID: 17195649/0x01066281)
 67: 0x0269 [0x45] LOAD_SCHEDULED_TASK: Load scheduler "j016" with entities [LocalPlayer, LocalPlayer], work=[55*, 0*]
 68: 0x027A [0x55] WAIT_LOAD_SCHEDULER: Wait for scheduler "j016" with entities [LocalPlayer, LocalPlayer], work=55*
 69: 0x0289 [0x23] WAIT_FOR_DIALOG_INTERACTION
 70: 0x028A [0x2B] Elmemague (ID: 17195648/0x01066280) [7655*]:
    → "Do not underestimate this villain. I know this breed; they are wily and treacherous. It is not unlikely that this thief of ours is a feared member of the underworld who has survived through countless battles and tight spots."
 71: 0x0291 [0x4A] Narvecaint (ID: 17195615/0x0106625F) looks at Vijartal (ID: 17195649/0x01066281)
 72: 0x029A [0x1C] WAIT(30* ticks)
 73: 0x029D [0x4A] LocalPlayer looks at Vijartal (ID: 17195649/0x01066281)
 74: 0x02A6 [0x1C] WAIT(30* ticks)
 75: 0x02A9 [0x4A] Narvecaint (ID: 17195615/0x0106625F) looks at Vijartal (ID: 17195649/0x01066281)
 76: 0x02B2 [0x1C] WAIT(30* ticks)
 77: 0x02B5 [0x4A] LocalPlayer looks at Vijartal (ID: 17195649/0x01066281)
 78: 0x02BE [0x1C] WAIT(30* ticks)
 79: 0x02C1 [0x27] REQ_SET(priority=0x03, entity_id=Elmemague (ID: 17195648/0x01066280), tag_num=0x14)
 80: 0x02C8 [0x4A] Narvecaint (ID: 17195615/0x0106625F) looks at Vijartal (ID: 17195649/0x01066281)
 81: 0x02D1 [0x1C] WAIT(30* ticks)
 82: 0x02D4 [0x4A] LocalPlayer looks at Vijartal (ID: 17195649/0x01066281)
 83: 0x02DD [0x1C] WAIT(30* ticks)
 84: 0x02E0 [0x27] REQ_SET(priority=0x03, entity_id=Elmemague (ID: 17195648/0x01066280), tag_num=0x14)
 85: 0x02E7 [0x5C] MUSIC_CONTROL: Set Idle (Day) music to song 123*
 86: 0x02EB [0x5C] MUSIC_CONTROL: Set Idle (Night) music to song 123*
 87: 0x02EF [0x23] WAIT_FOR_DIALOG_INTERACTION
 88: 0x02F0 [0x45] LOAD_SCHEDULED_TASK: Load scheduler "j006" with entities [LocalPlayer, LocalPlayer], work=[55*, 0*]
 89: 0x0301 [0x2B] Vijartal (ID: 17195649/0x01066281) [7656*]:
    → "What in Altana's name was that burst of light?"
 90: 0x0308 [0x23] WAIT_FOR_DIALOG_INTERACTION
 91: 0x0309 [0x4A] Narvecaint (ID: 17195615/0x0106625F) looks at Vijartal (ID: 17195649/0x01066281)
 92: 0x0312 [0x4A] LocalPlayer looks at Vijartal (ID: 17195649/0x01066281)
 93: 0x031B [0x55] WAIT_LOAD_SCHEDULER: Wait for scheduler "j006" with entities [LocalPlayer, LocalPlayer], work=55*
 94: 0x032A [0x2B] Vijartal (ID: 17195649/0x01066281) [7657*]:
    → "No matter. I must set out for San d'Oria without delay. Everything depends on this mission's success."
 95: 0x0331 [0x23] WAIT_FOR_DIALOG_INTERACTION
 96: 0x0332 [0x45] LOAD_SCHEDULED_TASK: Load scheduler "j005" with entities [LocalPlayer, LocalPlayer], work=[55*, 0*]
 97: 0x0343 [0x55] WAIT_LOAD_SCHEDULER: Wait for scheduler "j005" with entities [LocalPlayer, LocalPlayer], work=55*
 98: 0x0352 [0x2A] GET_REQ_LEVEL(level=3, entity_id=Elmemague (ID: 17195648/0x01066280))
 99: 0x0358 [0x4A] Elmemague (ID: 17195648/0x01066280) looks at Vijartal (ID: 17195649/0x01066281)
100: 0x0361 [0x6F] WAIT_FRAME_DELAY: Yield until WaitTime reaches zero
101: 0x0362 [0x76] CHECK_ENTITY_RENDER_FLAGS: Wait until Elmemague (ID: 17195648/0x01066280) Render.Flags0 and Render.Flags3 conditions are met
102: 0x0367 [0x2B] Elmemague (ID: 17195648/0x01066280) [7658*]:
    → "Who is this strange character?"
103: 0x036E [0x1C] WAIT(40* ticks)
104: 0x0371 [0x4A] Narvecaint (ID: 17195615/0x0106625F) looks at Elmemague (ID: 17195648/0x01066280)
105: 0x037A [0x6F] WAIT_FRAME_DELAY: Yield until WaitTime reaches zero
106: 0x037B [0x76] CHECK_ENTITY_RENDER_FLAGS: Wait until Narvecaint (ID: 17195615/0x0106625F) Render.Flags0 and Render.Flags3 conditions are met
107: 0x0380 [0x23] WAIT_FOR_DIALOG_INTERACTION
108: 0x0381 [0x27] REQ_SET(priority=0x03, entity_id=Narvecaint (ID: 17195615/0x0106625F), tag_num=0x14)
109: 0x0388 [0x2B] Narvecaint (ID: 17195615/0x0106625F) [7659*]:
    → "Sir! He is the suspected thief!"
110: 0x038F [0x23] WAIT_FOR_DIALOG_INTERACTION
111: 0x0390 [0x2A] GET_REQ_LEVEL(level=3, entity_id=Narvecaint (ID: 17195615/0x0106625F))
112: 0x0396 [0x4A] Narvecaint (ID: 17195615/0x0106625F) looks at Vijartal (ID: 17195649/0x01066281)
113: 0x039F [0x4A] Vijartal (ID: 17195649/0x01066281) looks at Narvecaint (ID: 17195615/0x0106625F)
114: 0x03A8 [0x6F] WAIT_FRAME_DELAY: Yield until WaitTime reaches zero
115: 0x03A9 [0x76] CHECK_ENTITY_RENDER_FLAGS: Wait until Vijartal (ID: 17195649/0x01066281) Render.Flags0 and Render.Flags3 conditions are met
116: 0x03AE [0x2B] Vijartal (ID: 17195649/0x01066281) [7660*]:
    → "Temple Knights! Have I wandered into a trap!?"
117: 0x03B5 [0x23] WAIT_FOR_DIALOG_INTERACTION
118: 0x03B6 [0x45] LOAD_SCHEDULED_TASK: Load scheduler "j007" with entities [LocalPlayer, LocalPlayer], work=[55*, 0*]
119: 0x03C7 [0x55] WAIT_LOAD_SCHEDULER: Wait for scheduler "j007" with entities [LocalPlayer, LocalPlayer], work=55*
120: 0x03D6 [0x1C] WAIT(30* ticks)
121: 0x03D9 [0x2B] Elmemague (ID: 17195648/0x01066280) [7661*]:
    → "A Royal Knight? But there's something different that I cannot quite...? You there, state your name!"
122: 0x03E0 [0x23] WAIT_FOR_DIALOG_INTERACTION
123: 0x03E1 [0x27] REQ_SET(priority=0x03, entity_id=Vijartal (ID: 17195649/0x01066281), tag_num=0x04)
124: 0x03E8 [0x2B] Vijartal (ID: 17195649/0x01066281) [7662*]:
    → "I have no name to give to the likes of you!"
125: 0x03EF [0x23] WAIT_FOR_DIALOG_INTERACTION
126: 0x03F0 [0x27] REQ_SET(priority=0x03, entity_id=Elmemague (ID: 17195648/0x01066280), tag_num=0x05)
127: 0x03F7 [0x2B] Elmemague (ID: 17195648/0x01066280) [7663*]:
    → "This man bears no resemblance to the sketch I was shown. What is going on here?"
128: 0x03FE [0x1C] WAIT(30* ticks)
129: 0x0401 [0x4A] Narvecaint (ID: 17195615/0x0106625F) looks at Elmemague (ID: 17195648/0x01066280)
130: 0x040A [0x6F] WAIT_FRAME_DELAY: Yield until WaitTime reaches zero
131: 0x040B [0x76] CHECK_ENTITY_RENDER_FLAGS: Wait until Narvecaint (ID: 17195615/0x0106625F) Render.Flags0 and Render.Flags3 conditions are met
132: 0x0410 [0x23] WAIT_FOR_DIALOG_INTERACTION
133: 0x0411 [0x2B] Narvecaint (ID: 17195615/0x0106625F) [7664*]:
    → "My apologies, sir! He was acting so suspiciously, I just assumed..."
134: 0x0418 [0x23] WAIT_FOR_DIALOG_INTERACTION
135: 0x0419 [0x2B] Elmemague (ID: 17195648/0x01066280) [7665*]:
    → "A wild goose chase. I should have known this was too easy."
136: 0x0420 [0x23] WAIT_FOR_DIALOG_INTERACTION
137: 0x0421 [0x45] LOAD_SCHEDULED_TASK: Load scheduler "j015" with entities [LocalPlayer, LocalPlayer], work=[55*, 0*]
138: 0x0432 [0x55] WAIT_LOAD_SCHEDULER: Wait for scheduler "j015" with entities [LocalPlayer, LocalPlayer], work=55*
139: 0x0441 [0x27] REQ_SET(priority=0x03, entity_id=Vijartal (ID: 17195649/0x01066281), tag_num=0x13)
140: 0x0448 [0x2B] Vijartal (ID: 17195649/0x01066281) [7666*]:
    → "The others must have gone on ahead. What a sorry state of affairs."
141: 0x044F [0x1C] WAIT(60* ticks)
142: 0x0452 [0x23] WAIT_FOR_DIALOG_INTERACTION
143: 0x0453 [0x4A] Vijartal (ID: 17195649/0x01066281) looks at Elmemague (ID: 17195648/0x01066280)
144: 0x045C [0x6F] WAIT_FRAME_DELAY: Yield until WaitTime reaches zero
145: 0x045D [0x76] CHECK_ENTITY_RENDER_FLAGS: Wait until Vijartal (ID: 17195649/0x01066281) Render.Flags0 and Render.Flags3 conditions are met
146: 0x0462 [0x2B] Vijartal (ID: 17195649/0x01066281) [7667*]:
    → "Ah, now I see! You are my guides, disguised as Temple Knights. You've come to lead me in from the storm, am I correct?"
147: 0x0469 [0x23] WAIT_FOR_DIALOG_INTERACTION
148: 0x046A [0x4A] Elmemague (ID: 17195648/0x01066280) looks at Vijartal (ID: 17195649/0x01066281)
149: 0x0473 [0x45] LOAD_SCHEDULED_TASK: Load scheduler "j008" with entities [LocalPlayer, LocalPlayer], work=[55*, 0*]
150: 0x0484 [0x55] WAIT_LOAD_SCHEDULER: Wait for scheduler "j008" with entities [LocalPlayer, LocalPlayer], work=55*
151: 0x0493 [0x2B] Elmemague (ID: 17195648/0x01066280) [7668*]:
    → "Storm? There was no storm. What were you doing out here, anyway?"
152: 0x049A [0x23] WAIT_FOR_DIALOG_INTERACTION
153: 0x049B [0x45] LOAD_SCHEDULED_TASK: Load scheduler "j009" with entities [LocalPlayer, LocalPlayer], work=[55*, 0*]
154: 0x04AC [0x55] WAIT_LOAD_SCHEDULER: Wait for scheduler "j009" with entities [LocalPlayer, LocalPlayer], work=55*
155: 0x04BB [0x27] REQ_SET(priority=0x02, entity_id=Vijartal (ID: 17195649/0x01066281), tag_num=0x04)
156: 0x04C2 [0x27] REQ_SET(priority=0x03, entity_id=Narvecaint (ID: 17195615/0x0106625F), tag_num=0x0B)
157: 0x04C9 [0x2B] Vijartal (ID: 17195649/0x01066281) [7669*]:
    → "I was on my way to deliver the Scepter Royaulais to the Chateau d'Oraguille. You should already know this. Now, enough of this meaningless chitchat. Take me to the capital immediately."
158: 0x04D0 [0x23] WAIT_FOR_DIALOG_INTERACTION
159: 0x04D1 [0x27] REQ_SET(priority=0x03, entity_id=Elmemague (ID: 17195648/0x01066280), tag_num=0x16)
160: 0x04D8 [0x1C] WAIT(20* ticks)
161: 0x04DB [0x45] LOAD_SCHEDULED_TASK: Load scheduler "j010" with entities [LocalPlayer, LocalPlayer], work=[55*, 0*]
162: 0x04EC [0x27] REQ_SET(priority=0x02, entity_id=Narvecaint (ID: 17195615/0x0106625F), tag_num=0x15)
163: 0x04F3 [0x55] WAIT_LOAD_SCHEDULER: Wait for scheduler "j010" with entities [LocalPlayer, LocalPlayer], work=55*
164: 0x0502 [0x2B] Elmemague (ID: 17195648/0x01066280) [7670*]:
    → "The Scepter Royaulais?"
165: 0x0509 [0x23] WAIT_FOR_DIALOG_INTERACTION
166: 0x050A [0x45] LOAD_SCHEDULED_TASK: Load scheduler "j011" with entities [LocalPlayer, LocalPlayer], work=[55*, 0*]
167: 0x051B [0x27] REQ_SET(priority=0x02, entity_id=Narvecaint (ID: 17195615/0x0106625F), tag_num=0x16)
168: 0x0522 [0x55] WAIT_LOAD_SCHEDULER: Wait for scheduler "j011" with entities [LocalPlayer, LocalPlayer], work=55*
169: 0x0531 [0x2B] Elmemague (ID: 17195648/0x01066280) [7671*]:
    → "You have it on your person? Quickly now, hand it over."
170: 0x0538 [0x23] WAIT_FOR_DIALOG_INTERACTION
171: 0x0539 [0x2B] Vijartal (ID: 17195649/0x01066281) [7672*]:
    → "I think not, my good sir. My mission is to deliver the Scepter Royaulais to the king's brother, Prince Fellenant, and him alone."
172: 0x0540 [0x23] WAIT_FOR_DIALOG_INTERACTION
173: 0x0541 [0x27] REQ_SET(priority=0x03, entity_id=Vijartal (ID: 17195649/0x01066281), tag_num=0x11)
174: 0x0548 [0x2B] Vijartal (ID: 17195649/0x01066281) [7673*]:
    → "Where is it!? The scepter is gone!"
175: 0x054F [0x23] WAIT_FOR_DIALOG_INTERACTION
176: 0x0550 [0x27] REQ_SET(priority=0x03, entity_id=Elmemague (ID: 17195648/0x01066280), tag_num=0x15)
177: 0x0557 [0x2B] Elmemague (ID: 17195648/0x01066280) [7674*]:
    → "Clap this man in irons. He'll be accompanying us back to the chateau."
178: 0x055E [0x23] WAIT_FOR_DIALOG_INTERACTION
179: 0x055F [0x27] REQ_SET(priority=0x03, entity_id=Narvecaint (ID: 17195615/0x0106625F), tag_num=0x0C)
180: 0x0566 [0x1C] WAIT(50* ticks)
181: 0x0569 [0x79] Vijartal (ID: 17195649/0x01066281) looks at Narvecaint (ID: 17195615/0x0106625F) (Basic look)
182: 0x0573 [0x27] REQ_SET(priority=0x03, entity_id=Vijartal (ID: 17195649/0x01066281), tag_num=0x12)
183: 0x057A [0x2B] Vijartal (ID: 17195649/0x01066281) [7675*]:
    → "What is the meaning of this!? I am the vassal of King Raigegue R D'Oraguille! You will show me the proper respect or your fate will be most unpleasant!"
184: 0x0581 [0x23] WAIT_FOR_DIALOG_INTERACTION
185: 0x0582 [0x45] LOAD_SCHEDULED_TASK: Load scheduler "fdo1" with entities [LocalPlayer, LocalPlayer], work=[200*, 0*]
186: 0x0593 [0x55] WAIT_LOAD_SCHEDULER: Wait for scheduler "fdo1" with entities [LocalPlayer, LocalPlayer], work=200*
187: 0x05A2 [0x78] ENABLE_GAME_TIMER_RESET_WEATHER()
188: 0x05A3 [0x1C] WAIT(30* ticks)
189: 0x05A6 [0x2B] Vijartal (ID: 17195649/0x01066281) [7676*]:
    → "Take your hands off me, I say!"
190: 0x05AD [0x23] WAIT_FOR_DIALOG_INTERACTION
191: 0x05AE [0x29] REQ_SET_WAIT(priority=0x01, entity_id=Elmemague (ID: 17195648/0x01066280), tag_num=0x07)
192: 0x05B5 [0x4A] LocalPlayer looks at Elmemague (ID: 17195648/0x01066280)
193: 0x05BE [0x4E] SET_ENTITY_HIDE_FLAG: Hide Vijartal (ID: 17195649/0x01066281)
194: 0x05C4 [0x4E] SET_ENTITY_HIDE_FLAG: Hide Narvecaint (ID: 17195615/0x0106625F)
195: 0x05CA [0x97] SAVE_SET_WIND_VALUES(wind_base=0x800E, wind_width=0x801B)
196: 0x05CF [0x45] LOAD_SCHEDULED_TASK: Load scheduler "j012" with entities [LocalPlayer, LocalPlayer], work=[55*, 0*]
197: 0x05E0 [0x45] LOAD_SCHEDULED_TASK: Load scheduler "fdi1" with entities [LocalPlayer, LocalPlayer], work=[200*, 0*]
198: 0x05F1 [0x55] WAIT_LOAD_SCHEDULER: Wait for scheduler "fdi1" with entities [LocalPlayer, LocalPlayer], work=200*
199: 0x0600 [0x55] WAIT_LOAD_SCHEDULER: Wait for scheduler "j012" with entities [LocalPlayer, LocalPlayer], work=55*
200: 0x060F [0x2B] Elmemague (ID: 17195648/0x01066280) [7677*]:
    → "That man... He has a role to play in all of this, I am certain."
201: 0x0616 [0x23] WAIT_FOR_DIALOG_INTERACTION
202: 0x0617 [0x4A] Elmemague (ID: 17195648/0x01066280) looks at LocalPlayer
203: 0x0620 [0x1C] WAIT(10* ticks)
204: 0x0623 [0x45] LOAD_SCHEDULED_TASK: Load scheduler "j013" with entities [LocalPlayer, LocalPlayer], work=[55*, 0*]
205: 0x0634 [0x55] WAIT_LOAD_SCHEDULER: Wait for scheduler "j013" with entities [LocalPlayer, LocalPlayer], work=55*
206: 0x0643 [0x6F] WAIT_FRAME_DELAY: Yield until WaitTime reaches zero
207: 0x0644 [0x76] CHECK_ENTITY_RENDER_FLAGS: Wait until Elmemague (ID: 17195648/0x01066280) Render.Flags0 and Render.Flags3 conditions are met
208: 0x0649 [0x2B] Elmemague (ID: 17195648/0x01066280) [7678*]:
    → "Adventurer, I regret dragging you all the way out here for nothing. Feel free to be on your way; we'll take it from here."
209: 0x0650 [0x23] WAIT_FOR_DIALOG_INTERACTION
210: 0x0651 [0x2B] Elmemague (ID: 17195648/0x01066280) [7679*]:
    → "Oh, and please mention to that guard that we won't be needing any further assistance after all."
211: 0x0658 [0x23] WAIT_FOR_DIALOG_INTERACTION
212: 0x0659 [0x27] REQ_SET(priority=0x03, entity_id=Elmemague (ID: 17195648/0x01066280), tag_num=0x08)
213: 0x0660 [0x1C] WAIT(60* ticks)
214: 0x0663 [0x45] LOAD_SCHEDULED_TASK: Load scheduler "fdo2" with entities [LocalPlayer, LocalPlayer], work=[200*, 0*]
215: 0x0674 [0x55] WAIT_LOAD_SCHEDULER: Wait for scheduler "fdo2" with entities [LocalPlayer, LocalPlayer], work=200*
216: 0x0683 [0x5C] MUSIC_CONTROL: Set Idle (Day) music to song 0*
217: 0x0687 [0x5C] MUSIC_CONTROL: Set Idle (Night) music to song 0*
218: 0x068B [0x46] CAMERA_CONTROL: Restore default settings
219: 0x068D [0x45] LOAD_SCHEDULED_TASK: Load scheduler "fdi2" with entities [LocalPlayer, LocalPlayer], work=[200*, 0*]
220: 0x069E [0x21] END_EVENT
221: 0x069F [0x00] END_REQSTACK()
```

### Event 1

#### Metadata

| Field        | Value      |
|--------------|------------|
| Entrypoint   | 0x06A0     |
| Data Size    | 2840 bytes |
| Instructions | 368        |

```
      00 01 02 03 04 05 06 07  08 09 0A 0B 0C 0D 0E 0F
      -- -- -- -- -- -- -- --  -- -- -- -- -- -- -- --
06A0: 20 01 46 01 42 45 12 80  F0 FF FF 7F F0 FF FF 7F   .F.BE..........
06B0: 66 64 6F 31 0E 80 55 12  80 F0 FF FF 7F F0 FF FF  fdo1..U.........
06C0: 7F 66 64 6F 31 38 15 80  37 42 80 43 80 44 80 45  .fdo18..7B.C.D.E
06D0: 80 4E 00 80 62 06 01 4E  00 82 62 06 01 1E 80 62  .N..b..N..b....b
06E0: 06 01 27 02 80 62 06 01  05 27 02 82 62 06 01 05  ..'..b...'..b...
06F0: 27 03 5F 62 06 01 0A 1C  2A 80 45 1A 80 F0 FF FF  '._b....*.E.....
0700: 7F F0 FF FF 7F 69 30 30  30 0E 80 55 1A 80 F0 FF  .....i000..U....
0710: FF 7F F0 FF FF 7F 69 30  30 30 5C 00 46 80 5C 01  ......i000\.F.\.
0720: 46 80 97 0E 80 1B 80 45  12 80 F0 FF FF 7F F0 FF  F......E........
0730: FF 7F 66 64 69 31 0E 80  55 12 80 F0 FF FF 7F F0  ..fdi1..U.......
0740: FF FF 7F 66 64 69 31 2B  80 62 06 01 47 80 23 45  ...fdi1+.b..G.#E
0750: 1A 80 F0 FF FF 7F F0 FF  FF 7F 69 30 30 31 0E 80  ..........i001..
0760: 55 1A 80 F0 FF FF 7F F0  FF FF 7F 69 30 30 31 27  U..........i001'
0770: 01 5F 62 06 01 14 2B 5F  62 06 01 48 80 23 2A 01  ._b...+_b..H.#*.
0780: 5F 62 06 01 45 1A 80 F0  FF FF 7F F0 FF FF 7F 69  _b..E..........i
0790: 30 33 37 0E 80 55 1A 80  F0 FF FF 7F F0 FF FF 7F  037..U..........
07A0: 69 30 33 37 2B 82 62 06  01 49 80 23 4A 80 62 06  i037+.b..I.#J.b.
07B0: 01 82 62 06 01 6F 76 80  62 06 01 2B 80 62 06 01  ..b..ov.b..+.b..
07C0: 4A 80 23 45 1A 80 F0 FF  FF 7F F0 FF FF 7F 69 30  J.#E..........i0
07D0: 30 32 0E 80 55 1A 80 F0  FF FF 7F F0 FF FF 7F 69  02..U..........i
07E0: 30 30 32 2B 82 62 06 01  4B 80 23 2B 81 62 06 01  002+.b..K.#+.b..
07F0: 4C 80 1C 2A 80 27 02 82  62 06 01 03 1E 81 62 06  L..*.'..b.....b.
0800: 01 1C 36 80 4E 00 81 62  06 01 45 1A 80 F0 FF FF  ..6.N..b..E.....
0810: 7F F0 FF FF 7F 69 30 30  33 0E 80 55 1A 80 F0 FF  .....i003..U....
0820: FF 7F F0 FF FF 7F 69 30  30 33 27 01 5F 62 06 01  ......i003'._b..
0830: 0B 27 02 80 62 06 01 06  1C 22 80 23 2B 80 62 06  .'..b....".#+.b.
0840: 01 4D 80 27 01 80 62 06  01 0A 27 02 5F 62 06 01  .M.'..b...'._b..
0850: 0F 1C 4E 80 5D 0E 80 4F  80 27 03 81 62 06 01 0A  ..N.]..O.'..b...
0860: 1C 50 80 1C 12 80 23 2A  03 81 62 06 01 5C 00 51  .P....#*..b..\.Q
0870: 80 5C 01 51 80 27 01 81  62 06 01 13 1C 20 80 45  .\.Q.'..b.... .E
0880: 1A 80 F0 FF FF 7F F0 FF  FF 7F 69 30 30 34 0E 80  ..........i004..
0890: 55 1A 80 F0 FF FF 7F F0  FF FF 7F 69 30 30 34 2A  U..........i004*
08A0: 01 80 62 06 01 2B 81 62  06 01 52 80 23 1C 22 80  ..b..+.b..R.#.".
08B0: 45 1A 80 F0 FF FF 7F F0  FF FF 7F 69 30 30 35 0E  E..........i005.
08C0: 80 55 1A 80 F0 FF FF 7F  F0 FF FF 7F 69 30 30 35  .U..........i005
08D0: 2B 82 62 06 01 53 80 23  45 1A 80 F0 FF FF 7F F0  +.b..S.#E.......
08E0: FF FF 7F 69 30 30 36 0E  80 55 1A 80 F0 FF FF 7F  ...i006..U......
08F0: F0 FF FF 7F 69 30 30 36  2B 81 62 06 01 54 80 4A  ....i006+.b..T.J
0900: 81 62 06 01 82 62 06 01  6F 76 81 62 06 01 23 27  .b...b..ov.b..#'
0910: 01 81 62 06 01 0C 1C 50  80 27 03 82 62 06 01 02  ..b....P.'..b...
0920: 79 00 F0 FF FF 7F 82 62  06 01 2B 82 62 06 01 55  y......b..+.b..U
0930: 80 23 32 56 80 31 00 57  80 58 80 59 80 5A 80 31  .#2V.1.W.X.Y.Z.1
0940: 01 45 1A 80 F0 FF FF 7F  F0 FF FF 7F 69 30 30 37  .E..........i007
0950: 0E 80 22 01 55 1A 80 F0  FF FF 7F F0 FF FF 7F 69  ..".U..........i
0960: 30 30 37 2B 81 62 06 01  5B 80 4A F0 FF FF 7F 81  007+.b..[.J.....
0970: 62 06 01 23 27 01 81 62  06 01 0D 1C 5C 80 45 12  b..#'..b....\.E.
0980: 80 F0 FF FF 7F F0 FF FF  7F 66 64 6F 31 0E 80 55  .........fdo1..U
0990: 12 80 F0 FF FF 7F F0 FF  FF 7F 66 64 6F 31 77 56  ..........fdo1wV
09A0: 80 5D 80 4E 00 F0 FF FF  7F 1C 3C 80 37 5E 80 5F  .].N......<.7^._
09B0: 80 60 80 61 80 27 03 80  62 06 01 0C 27 03 5F 62  .`.a.'..b...'._b
09C0: 06 01 11 4E 01 82 62 06  01 4E 00 83 62 06 01 1C  ...N..b..N..b...
09D0: 36 80 1E 83 62 06 01 29  03 81 62 06 01 06 45 1A  6...b..)..b...E.
09E0: 80 F0 FF FF 7F F0 FF FF  7F 69 30 30 38 0E 80 97  .........i008...
09F0: 0E 80 1B 80 45 12 80 F0  FF FF 7F F0 FF FF 7F 66  ....E..........f
0A00: 64 69 31 0E 80 55 12 80  F0 FF FF 7F F0 FF FF 7F  di1..U..........
0A10: 66 64 69 31 1C 22 80 27  03 83 62 06 01 03 2B 83  fdi1.".'..b...+.
0A20: 62 06 01 62 80 23 55 1A  80 F0 FF FF 7F F0 FF FF  b..b.#U.........
0A30: 7F 69 30 30 38 27 01 81  62 06 01 0E 32 56 80 1C  .i008'..b...2V..
0A40: 20 80 45 1A 80 F0 FF FF  7F F0 FF FF 7F 69 30 30   .E..........i00
0A50: 39 0E 80 1F 00 63 80 64  80 65 80 1F 01 6F 1E 83  9....c.d.e...o..
0A60: 62 06 01 55 1A 80 F0 FF  FF 7F F0 FF FF 7F 69 30  b..U..........i0
0A70: 30 39 2B 81 62 06 01 66  80 23 45 1A 80 F0 FF FF  09+.b..f.#E.....
0A80: 7F F0 FF FF 7F 69 30 31  30 0E 80 29 03 83 62 06  .....i010..)..b.
0A90: 01 06 55 1A 80 F0 FF FF  7F F0 FF FF 7F 69 30 31  ..U..........i01
0AA0: 30 27 03 83 62 06 01 08  2B 83 62 06 01 67 80 23  0'..b...+.b..g.#
0AB0: 2A 03 83 62 06 01 2B 83  62 06 01 68 80 23 45 1A  *..b..+.b..h.#E.
0AC0: 80 F0 FF FF 7F F0 FF FF  7F 69 30 31 39 0E 80 55  .........i019..U
0AD0: 1A 80 F0 FF FF 7F F0 FF  FF 7F 69 30 31 39 2B 81  ..........i019+.
0AE0: 62 06 01 69 80 23 2B 83  62 06 01 6A 80 23 27 03  b..i.#+.b..j.#'.
0AF0: 81 62 06 01 12 2B 81 62  06 01 6B 80 23 45 1A 80  .b...+.b..k.#E..
0B00: F0 FF FF 7F F0 FF FF 7F  69 30 31 32 0E 80 55 1A  ........i012..U.
0B10: 80 F0 FF FF 7F F0 FF FF  7F 69 30 31 32 2B 83 62  .........i012+.b
0B20: 06 01 6C 80 23 45 1A 80  F0 FF FF 7F F0 FF FF 7F  ..l.#E..........
0B30: 69 30 31 38 0E 80 2B 81  62 06 01 6D 80 23 55 1A  i018..+.b..m.#U.
0B40: 80 F0 FF FF 7F F0 FF FF  7F 69 30 31 38 45 1A 80  .........i018E..
0B50: F0 FF FF 7F F0 FF FF 7F  69 30 31 31 0E 80 2B 83  ........i011..+.
0B60: 62 06 01 6E 80 23 2B 81  62 06 01 6F 80 23 27 03  b..n.#+.b..o.#'.
0B70: 82 62 06 01 06 55 1A 80  F0 FF FF 7F F0 FF FF 7F  .b...U..........
0B80: 69 30 31 31 45 1A 80 F0  FF FF 7F F0 FF FF 7F 69  i011E..........i
0B90: 30 33 38 0E 80 55 1A 80  F0 FF FF 7F F0 FF FF 7F  038..U..........
0BA0: 69 30 33 38 2B 83 62 06  01 70 80 23 27 01 82 62  i038+.b..p.#'..b
0BB0: 06 01 04 27 03 81 62 06  01 14 1C 36 80 45 1A 80  ...'..b....6.E..
0BC0: F0 FF FF 7F F0 FF FF 7F  69 30 33 39 0E 80 55 1A  ........i039..U.
0BD0: 80 F0 FF FF 7F F0 FF FF  7F 69 30 33 39 2B 81 62  .........i039+.b
0BE0: 06 01 71 80 1C 72 80 23  2B 82 62 06 01 73 80 1C  ..q..r.#+.b..s..
0BF0: 2A 80 4E 00 82 62 06 01  27 03 82 62 06 01 07 1C  *.N..b..'..b....
0C00: 20 80 45 1A 80 F0 FF FF  7F F0 FF FF 7F 69 30 31   .E..........i01
0C10: 34 0E 80 1C 13 80 27 01  81 62 06 01 0B 27 02 83  4.....'..b...'..
0C20: 62 06 01 04 1E 82 62 06  01 1C 24 80 23 2B 83 62  b.....b...$.#+.b
0C30: 06 01 74 80 23 55 1A 80  F0 FF FF 7F F0 FF FF 7F  ..t.#U..........
0C40: 69 30 31 34 45 1A 80 F0  FF FF 7F F0 FF FF 7F 69  i014E..........i
0C50: 30 31 35 0E 80 55 1A 80  F0 FF FF 7F F0 FF FF 7F  015..U..........
0C60: 69 30 31 35 79 00 81 62  06 01 82 62 06 01 2B 82  i015y..b...b..+.
0C70: 62 06 01 75 80 23 45 1A  80 F0 FF FF 7F F0 FF FF  b..u.#E.........
0C80: 7F 69 30 32 30 0E 80 55  1A 80 F0 FF FF 7F F0 FF  .i020..U........
0C90: FF 7F 69 30 32 30 2B 83  62 06 01 76 80 23 45 1A  ..i020+.b..v.#E.
0CA0: 80 F0 FF FF 7F F0 FF FF  7F 69 30 31 36 0E 80 55  .........i016..U
0CB0: 1A 80 F0 FF FF 7F F0 FF  FF 7F 69 30 31 36 1C 22  ..........i016."
0CC0: 80 2B 81 62 06 01 77 80  23 5C 00 72 80 5C 01 72  .+.b..w.#\.r.\.r
0CD0: 80 9A 27 01 82 62 06 01  05 27 02 83 62 06 01 05  ..'..b...'..b...
0CE0: 27 03 81 62 06 01 04 1E  80 62 06 01 1C 36 80 45  '..b.....b...6.E
0CF0: 1A 80 F0 FF FF 7F F0 FF  FF 7F 69 30 31 37 0E 80  ..........i017..
0D00: 55 1A 80 F0 FF FF 7F F0  FF FF 7F 69 30 31 37 2B  U..........i017+
0D10: 83 62 06 01 78 80 23 45  1A 80 F0 FF FF 7F F0 FF  .b..x.#E........
0D20: FF 7F 69 30 32 31 0E 80  55 1A 80 F0 FF FF 7F F0  ..i021..U.......
0D30: FF FF 7F 69 30 32 31 4A  81 62 06 01 82 62 06 01  ...i021J.b...b..
0D40: 2B 81 62 06 01 79 80 23  45 1A 80 F0 FF FF 7F F0  +.b..y.#E.......
0D50: FF FF 7F 69 30 32 33 0E  80 55 1A 80 F0 FF FF 7F  ...i023..U......
0D60: F0 FF FF 7F 69 30 32 33  2B 82 62 06 01 7A 80 23  ....i023+.b..z.#
0D70: 45 1A 80 F0 FF FF 7F F0  FF FF 7F 69 30 32 32 0E  E..........i022.
0D80: 80 55 1A 80 F0 FF FF 7F  F0 FF FF 7F 69 30 32 32  .U..........i022
0D90: 1E 82 62 06 01 27 02 83  62 06 01 04 2B 83 62 06  ..b..'..b...+.b.
0DA0: 01 7B 80 23 2B 81 62 06  01 7C 80 23 2B 82 62 06  .{.#+.b..|.#+.b.
0DB0: 01 7D 80 23 45 1A 80 F0  FF FF 7F F0 FF FF 7F 69  .}.#E..........i
0DC0: 30 32 34 0E 80 55 1A 80  F0 FF FF 7F F0 FF FF 7F  024..U..........
0DD0: 69 30 32 34 2B 81 62 06  01 7E 80 23 45 1A 80 F0  i024+.b..~.#E...
0DE0: FF FF 7F F0 FF FF 7F 69  30 32 35 0E 80 27 01 82  .......i025..'..
0DF0: 62 06 01 03 2B 82 62 06  01 7F 80 23 2B 83 62 06  b...+.b....#+.b.
0E00: 01 80 80 23 2B 82 62 06  01 81 80 23 55 1A 80 F0  ...#+.b....#U...
0E10: FF FF 7F F0 FF FF 7F 69  30 32 35 45 1A 80 F0 FF  .......i025E....
0E20: FF 7F F0 FF FF 7F 69 30  32 36 0E 80 55 1A 80 F0  ......i026..U...
0E30: FF FF 7F F0 FF FF 7F 69  30 32 36 2B 82 62 06 01  .......i026+.b..
0E40: 82 80 23 45 1A 80 F0 FF  FF 7F F0 FF FF 7F 69 30  ..#E..........i0
0E50: 32 37 0E 80 55 1A 80 F0  FF FF 7F F0 FF FF 7F 69  27..U..........i
0E60: 30 32 37 2B 81 62 06 01  83 80 23 2B 81 62 06 01  027+.b....#+.b..
0E70: 84 80 23 45 1A 80 F0 FF  FF 7F F0 FF FF 7F 69 30  ..#E..........i0
0E80: 32 38 0E 80 55 1A 80 F0  FF FF 7F F0 FF FF 7F 69  28..U..........i
0E90: 30 32 38 4E 00 80 62 06  01 4E 00 5F 62 06 01 2B  028N..b..N._b..+
0EA0: 82 62 06 01 85 80 1C 20  80 27 02 83 62 06 01 03  .b..... .'..b...
0EB0: 1E 81 62 06 01 23 2B 81  62 06 01 86 80 23 45 1A  ..b..#+.b....#E.
0EC0: 80 F0 FF FF 7F F0 FF FF  7F 69 30 33 30 0E 80 55  .........i030..U
0ED0: 1A 80 F0 FF FF 7F F0 FF  FF 7F 69 30 33 30 2B 80  ..........i030+.
0EE0: 62 06 01 87 80 23 27 01  80 62 06 01 0E 27 02 5F  b....#'..b...'._
0EF0: 62 06 01 12 1C 3C 80 45  1A 80 F0 FF FF 7F F0 FF  b....<.E........
0F00: FF 7F 69 30 33 32 0E 80  55 1A 80 F0 FF FF 7F F0  ..i032..U.......
0F10: FF FF 7F 69 30 33 32 2B  81 62 06 01 88 80 1C 5A  ...i032+.b.....Z
0F20: 80 23 45 1A 80 F0 FF FF  7F F0 FF FF 7F 69 30 33  .#E..........i03
0F30: 31 0E 80 55 1A 80 F0 FF  FF 7F F0 FF FF 7F 69 30  1..U..........i0
0F40: 33 31 2B 81 62 06 01 89  80 23 45 1A 80 F0 FF FF  31+.b....#E.....
0F50: 7F F0 FF FF 7F 69 30 32  39 0E 80 55 1A 80 F0 FF  .....i029..U....
0F60: FF 7F F0 FF FF 7F 69 30  32 39 2B 82 62 06 01 8A  ......i029+.b...
0F70: 80 23 45 1A 80 F0 FF FF  7F F0 FF FF 7F 69 30 33  .#E..........i03
0F80: 33 0E 80 55 1A 80 F0 FF  FF 7F F0 FF FF 7F 69 30  3..U..........i0
0F90: 33 33 2B 81 62 06 01 8B  80 23 1C 22 80 27 03 81  33+.b....#.".'..
0FA0: 62 06 01 0F 1C 22 80 62  8C 80 81 62 06 01 81 62  b....".b...b...b
0FB0: 06 01 6D 61 69 6E 0E 80  6C 81 62 06 01 0E 80 5A  ..main..l.b....Z
0FC0: 80 92 01 81 62 06 01 4A  83 62 06 01 81 62 06 01  ....b..J.b...b..
0FD0: 27 02 80 62 06 01 11 27  03 5F 62 06 01 13 27 03  '..b...'._b...'.
0FE0: 81 62 06 01 10 1C 2A 80  45 1A 80 F0 FF FF 7F F0  .b....*.E.......
0FF0: FF FF 7F 69 30 34 32 0E  80 55 1A 80 F0 FF FF 7F  ...i042..U......
1000: F0 FF FF 7F 69 30 34 32  2B 5F 62 06 01 8D 80 23  ....i042+_b....#
1010: 2B 80 62 06 01 8E 80 23  7B 80 62 06 01 62 8F 80  +.b....#{.b..b..
1020: 81 62 06 01 81 62 06 01  6D 61 69 6E 0E 80 1C 13  .b...b..main....
1030: 80 29 02 80 62 06 01 12  4A 5F 62 06 01 80 62 06  .)..b...J_b...b.
1040: 01 27 02 80 62 06 01 17  1C 22 80 45 1A 80 F0 FF  .'..b....".E....
1050: FF 7F F0 FF FF 7F 69 30  34 33 0E 80 55 1A 80 F0  ......i043..U...
1060: FF FF 7F F0 FF FF 7F 69  30 34 33 1C 13 80 2B 80  .......i043...+.
1070: 62 06 01 90 80 23 1C 13  80 45 12 80 F0 FF FF 7F  b....#...E......
1080: F0 FF FF 7F 66 64 6F 31  0E 80 55 12 80 F0 FF FF  ....fdo1..U.....
1090: 7F F0 FF FF 7F 66 64 6F  31 55 1A 80 F0 FF FF 7F  .....fdo1U......
10A0: F0 FF FF 7F 69 30 30 37  1C 3C 80 23 78 37 91 80  ....i007.<.#x7..
10B0: 92 80 93 80 94 80 29 01  80 62 06 01 0F 29 02 82  ......)..b...)..
10C0: 62 06 01 08 4A 80 62 06  01 82 62 06 01 4A 82 62  b...J.b...b..J.b
10D0: 06 01 80 62 06 01 4A F0  FF FF 7F 80 62 06 01 6F  ...b..J.....b..o
10E0: 76 80 62 06 01 45 1A 80  F0 FF FF 7F F0 FF FF 7F  v.b..E..........
10F0: 69 30 33 35 0E 80 55 1A  80 F0 FF FF 7F F0 FF FF  i035..U.........
1100: 7F 69 30 33 35 45 12 80  F0 FF FF 7F F0 FF FF 7F  .i035E..........
1110: 66 64 69 31 0E 80 55 12  80 F0 FF FF 7F F0 FF FF  fdi1..U.........
1120: 7F 66 64 69 31 2B 80 62  06 01 95 80 23 2B 82 62  .fdi1+.b....#+.b
1130: 06 01 96 80 23 2B 80 62  06 01 97 80 23 27 01 80  ....#+.b....#'..
1140: 62 06 01 10 1C 98 80 4A  F0 FF FF 7F 82 62 06 01  b......J.....b..
1150: 45 1A 80 F0 FF FF 7F F0  FF FF 7F 69 30 33 36 0E  E..........i036.
1160: 80 1C 2A 80 2B 82 62 06  01 99 80 23 55 1A 80 F0  ..*.+.b....#U...
1170: FF FF 7F F0 FF FF 7F 69  30 33 36 45 12 80 F0 FF  .......i036E....
1180: FF 7F F0 FF FF 7F 66 64  6F 32 0E 80 55 12 80 F0  ......fdo2..U...
1190: FF FF 7F F0 FF FF 7F 66  64 6F 32 5C 00 0E 80 5C  .......fdo2\...\
11A0: 01 0E 80 46 00 45 12 80  F0 FF FF 7F F0 FF FF 7F  ...F.E..........
11B0: 66 64 69 32 0E 80 21 00                           fdi2..!.        
```

#### Opcodes

```
  0: 0x06A0 [0x20] SET_CLI_EVENT_UC_FLAG: Lock player control
  1: 0x06A2 [0x46] CAMERA_CONTROL: Disable user control
  2: 0x06A4 [0x42] SET_CLI_EVENT_CANCEL_DATA()
  3: 0x06A5 [0x45] LOAD_SCHEDULED_TASK: Load scheduler "fdo1" with entities [LocalPlayer, LocalPlayer], work=[200*, 0*]
  4: 0x06B6 [0x55] WAIT_LOAD_SCHEDULER: Wait for scheduler "fdo1" with entities [LocalPlayer, LocalPlayer], work=200*
  5: 0x06C5 [0x38] SET_CLIENT_EVENT_MODE(mode=19*)
  6: 0x06C8 [0x37] UPDATE_EVENT_POSITION_AND_DIR: x=-264.149*, z=127.534*, y=22.956*, direction=294.8°*
  7: 0x06D1 [0x4E] SET_ENTITY_HIDE_FLAG: Show Elmemague (ID: 17195648/0x01066280)
  8: 0x06D7 [0x4E] SET_ENTITY_HIDE_FLAG: Show Roido (ID: 17195650/0x01066282)
  9: 0x06DD [0x1E] EventEntity looks at Elmemague (ID: 17195648/0x01066280) and starts talking
 10: 0x06E2 [0x27] REQ_SET(priority=0x02, entity_id=Elmemague (ID: 17195648/0x01066280), tag_num=0x05)
 11: 0x06E9 [0x27] REQ_SET(priority=0x02, entity_id=Roido (ID: 17195650/0x01066282), tag_num=0x05)
 12: 0x06F0 [0x27] REQ_SET(priority=0x03, entity_id=Narvecaint (ID: 17195615/0x0106625F), tag_num=0x0A)
 13: 0x06F7 [0x1C] WAIT(40* ticks)
 14: 0x06FA [0x45] LOAD_SCHEDULED_TASK: Load scheduler "i000" with entities [LocalPlayer, LocalPlayer], work=[55*, 0*]
 15: 0x070B [0x55] WAIT_LOAD_SCHEDULER: Wait for scheduler "i000" with entities [LocalPlayer, LocalPlayer], work=55*
 16: 0x071A [0x5C] MUSIC_CONTROL: Set Idle (Day) music to song 161*
 17: 0x071E [0x5C] MUSIC_CONTROL: Set Idle (Night) music to song 161*
 18: 0x0722 [0x97] SAVE_SET_WIND_VALUES(wind_base=0x800E, wind_width=0x801B)
 19: 0x0727 [0x45] LOAD_SCHEDULED_TASK: Load scheduler "fdi1" with entities [LocalPlayer, LocalPlayer], work=[200*, 0*]
 20: 0x0738 [0x55] WAIT_LOAD_SCHEDULER: Wait for scheduler "fdi1" with entities [LocalPlayer, LocalPlayer], work=200*
 21: 0x0747 [0x2B] Elmemague (ID: 17195648/0x01066280) [7680*]:
    → "You have found the villain who stole the Scepter Royaulais? There is no mistake this time?"
 22: 0x074E [0x23] WAIT_FOR_DIALOG_INTERACTION
 23: 0x074F [0x45] LOAD_SCHEDULED_TASK: Load scheduler "i001" with entities [LocalPlayer, LocalPlayer], work=[55*, 0*]
 24: 0x0760 [0x55] WAIT_LOAD_SCHEDULER: Wait for scheduler "i001" with entities [LocalPlayer, LocalPlayer], work=55*
 25: 0x076F [0x27] REQ_SET(priority=0x01, entity_id=Narvecaint (ID: 17195615/0x0106625F), tag_num=0x14)
 26: 0x0776 [0x2B] Narvecaint (ID: 17195615/0x0106625F) [7681*]:
    → "Sir! He exactly matches the man in the sketches we have!"
 27: 0x077D [0x23] WAIT_FOR_DIALOG_INTERACTION
 28: 0x077E [0x2A] GET_REQ_LEVEL(level=1, entity_id=Narvecaint (ID: 17195615/0x0106625F))
 29: 0x0784 [0x45] LOAD_SCHEDULED_TASK: Load scheduler "i037" with entities [LocalPlayer, LocalPlayer], work=[55*, 0*]
 30: 0x0795 [0x55] WAIT_LOAD_SCHEDULER: Wait for scheduler "i037" with entities [LocalPlayer, LocalPlayer], work=55*
 31: 0x07A4 [0x2B] Roido (ID: 17195650/0x01066282) [7682*]:
    → "Millechairale is no thief! Please, let me go and persuade him to give up the scepter!"
 32: 0x07AB [0x23] WAIT_FOR_DIALOG_INTERACTION
 33: 0x07AC [0x4A] Elmemague (ID: 17195648/0x01066280) looks at Roido (ID: 17195650/0x01066282)
 34: 0x07B5 [0x6F] WAIT_FRAME_DELAY: Yield until WaitTime reaches zero
 35: 0x07B6 [0x76] CHECK_ENTITY_RENDER_FLAGS: Wait until Elmemague (ID: 17195648/0x01066280) Render.Flags0 and Render.Flags3 conditions are met
 36: 0x07BB [0x2B] Elmemague (ID: 17195648/0x01066280) [7683*]:
    → "Stand down, citizen. You know the penalty for interfering with a Temple Knight investigation."
 37: 0x07C2 [0x23] WAIT_FOR_DIALOG_INTERACTION
 38: 0x07C3 [0x45] LOAD_SCHEDULED_TASK: Load scheduler "i002" with entities [LocalPlayer, LocalPlayer], work=[55*, 0*]
 39: 0x07D4 [0x55] WAIT_LOAD_SCHEDULER: Wait for scheduler "i002" with entities [LocalPlayer, LocalPlayer], work=55*
 40: 0x07E3 [0x2B] Roido (ID: 17195650/0x01066282) [7684*]:
    → "I beg you! Listen to me!"
 41: 0x07EA [0x23] WAIT_FOR_DIALOG_INTERACTION
 42: 0x07EB [0x2B] Vijartal (ID: 17195649/0x01066281) [7686*]:
    → "Sir! The thief has emerged from another cave exit!"
 43: 0x07F2 [0x1C] WAIT(40* ticks)
 44: 0x07F5 [0x27] REQ_SET(priority=0x02, entity_id=Roido (ID: 17195650/0x01066282), tag_num=0x03)
 45: 0x07FC [0x1E] EventEntity looks at Vijartal (ID: 17195649/0x01066281) and starts talking
 46: 0x0801 [0x1C] WAIT(20* ticks)
 47: 0x0804 [0x4E] SET_ENTITY_HIDE_FLAG: Show Vijartal (ID: 17195649/0x01066281)
 48: 0x080A [0x45] LOAD_SCHEDULED_TASK: Load scheduler "i003" with entities [LocalPlayer, LocalPlayer], work=[55*, 0*]
 49: 0x081B [0x55] WAIT_LOAD_SCHEDULER: Wait for scheduler "i003" with entities [LocalPlayer, LocalPlayer], work=55*
 50: 0x082A [0x27] REQ_SET(priority=0x01, entity_id=Narvecaint (ID: 17195615/0x0106625F), tag_num=0x0B)
 51: 0x0831 [0x27] REQ_SET(priority=0x02, entity_id=Elmemague (ID: 17195648/0x01066280), tag_num=0x06)
 52: 0x0838 [0x1C] WAIT(30* ticks)
 53: 0x083B [0x23] WAIT_FOR_DIALOG_INTERACTION
 54: 0x083C [0x2B] Elmemague (ID: 17195648/0x01066280) [7687*]:
    → "Dash it all! After him! There's no escape this time!"
 55: 0x0843 [0x27] REQ_SET(priority=0x01, entity_id=Elmemague (ID: 17195648/0x01066280), tag_num=0x0A)
 56: 0x084A [0x27] REQ_SET(priority=0x02, entity_id=Narvecaint (ID: 17195615/0x0106625F), tag_num=0x0F)
 57: 0x0851 [0x1C] WAIT(80* ticks)
 58: 0x0854 [0x5D] SET_MUSIC_VOLUME(volume=0*, fade_time=180*)
 59: 0x0859 [0x27] REQ_SET(priority=0x03, entity_id=Vijartal (ID: 17195649/0x01066281), tag_num=0x0A)
 60: 0x0860 [0x1C] WAIT(100* ticks)
 61: 0x0863 [0x1C] WAIT(200* ticks)
 62: 0x0866 [0x23] WAIT_FOR_DIALOG_INTERACTION
 63: 0x0867 [0x2A] GET_REQ_LEVEL(level=3, entity_id=Vijartal (ID: 17195649/0x01066281))
 64: 0x086D [0x5C] MUSIC_CONTROL: Set Idle (Day) music to song 122*
 65: 0x0871 [0x5C] MUSIC_CONTROL: Set Idle (Night) music to song 122*
 66: 0x0875 [0x27] REQ_SET(priority=0x01, entity_id=Vijartal (ID: 17195649/0x01066281), tag_num=0x13)
 67: 0x087C [0x1C] WAIT(10* ticks)
 68: 0x087F [0x45] LOAD_SCHEDULED_TASK: Load scheduler "i004" with entities [LocalPlayer, LocalPlayer], work=[55*, 0*]
 69: 0x0890 [0x55] WAIT_LOAD_SCHEDULER: Wait for scheduler "i004" with entities [LocalPlayer, LocalPlayer], work=55*
 70: 0x089F [0x2A] GET_REQ_LEVEL(level=1, entity_id=Elmemague (ID: 17195648/0x01066280))
 71: 0x08A5 [0x2B] Vijartal (ID: 17195649/0x01066281) [7688*]:
    → "Simple-minded buffoons."
 72: 0x08AC [0x23] WAIT_FOR_DIALOG_INTERACTION
 73: 0x08AD [0x1C] WAIT(30* ticks)
 74: 0x08B0 [0x45] LOAD_SCHEDULED_TASK: Load scheduler "i005" with entities [LocalPlayer, LocalPlayer], work=[55*, 0*]
 75: 0x08C1 [0x55] WAIT_LOAD_SCHEDULER: Wait for scheduler "i005" with entities [LocalPlayer, LocalPlayer], work=55*
 76: 0x08D0 [0x2B] Roido (ID: 17195650/0x01066282) [7689*]:
    → "Vijartal..."
 77: 0x08D7 [0x23] WAIT_FOR_DIALOG_INTERACTION
 78: 0x08D8 [0x45] LOAD_SCHEDULED_TASK: Load scheduler "i006" with entities [LocalPlayer, LocalPlayer], work=[55*, 0*]
 79: 0x08E9 [0x55] WAIT_LOAD_SCHEDULER: Wait for scheduler "i006" with entities [LocalPlayer, LocalPlayer], work=55*
 80: 0x08F8 [0x2B] Vijartal (ID: 17195649/0x01066281) [7690*]:
    → "I...you misunderstand! I am not here for any Bastoker... Come, we must rescue Millechairale while those fools are distracted!"
 81: 0x08FF [0x4A] Vijartal (ID: 17195649/0x01066281) looks at Roido (ID: 17195650/0x01066282)
 82: 0x0908 [0x6F] WAIT_FRAME_DELAY: Yield until WaitTime reaches zero
 83: 0x0909 [0x76] CHECK_ENTITY_RENDER_FLAGS: Wait until Vijartal (ID: 17195649/0x01066281) Render.Flags0 and Render.Flags3 conditions are met
 84: 0x090E [0x23] WAIT_FOR_DIALOG_INTERACTION
 85: 0x090F [0x27] REQ_SET(priority=0x01, entity_id=Vijartal (ID: 17195649/0x01066281), tag_num=0x0C)
 86: 0x0916 [0x1C] WAIT(100* ticks)
 87: 0x0919 [0x27] REQ_SET(priority=0x03, entity_id=Roido (ID: 17195650/0x01066282), tag_num=0x02)
 88: 0x0920 [0x79] LocalPlayer looks at Roido (ID: 17195650/0x01066282) (Basic look)
 89: 0x092A [0x2B] Roido (ID: 17195650/0x01066282) [7691*]:
    → "We should split up to widen our search. Vijartal, <Player>, please take that tunnel over there."
 90: 0x0931 [0x23] WAIT_FOR_DIALOG_INTERACTION
 91: 0x0932 [0x32] ExtData[1]->MainSpeed = 13* * 0.1
 92: 0x0935 [0x31] UPDATE_ENTITY_POSITION: Set EventEntity goal position to X=-262.762*, Z=122.715*, Y=23.663*, Time=120*
 93: 0x093F [0x31] UPDATE_ENTITY_POSITION: Move EventEntity towards goal position
 94: 0x0941 [0x45] LOAD_SCHEDULED_TASK: Load scheduler "i007" with entities [LocalPlayer, LocalPlayer], work=[55*, 0*]
 95: 0x0952 [0x22] ENTITY_HIDE_FLAG(enabled=0x01)
 96: 0x0954 [0x55] WAIT_LOAD_SCHEDULER: Wait for scheduler "i007" with entities [LocalPlayer, LocalPlayer], work=55*
 97: 0x0963 [0x2B] Vijartal (ID: 17195649/0x01066281) [7692*]:
    → "Come to think of it, this is where..."
 98: 0x096A [0x4A] LocalPlayer looks at Vijartal (ID: 17195649/0x01066281)
 99: 0x0973 [0x23] WAIT_FOR_DIALOG_INTERACTION
100: 0x0974 [0x27] REQ_SET(priority=0x01, entity_id=Vijartal (ID: 17195649/0x01066281), tag_num=0x0D)
101: 0x097B [0x1C] WAIT(90* ticks)
102: 0x097E [0x45] LOAD_SCHEDULED_TASK: Load scheduler "fdo1" with entities [LocalPlayer, LocalPlayer], work=[200*, 0*]
103: 0x098F [0x55] WAIT_LOAD_SCHEDULER: Wait for scheduler "fdo1" with entities [LocalPlayer, LocalPlayer], work=200*
104: 0x099E [0x77] SET_EVENT_TIME_WEATHER(hour=13*, weather=255*)
105: 0x09A3 [0x4E] SET_ENTITY_HIDE_FLAG: Show LocalPlayer
106: 0x09A9 [0x1C] WAIT(50* ticks)
107: 0x09AC [0x37] UPDATE_EVENT_POSITION_AND_DIR: x=-279.026*, z=101.728*, y=24.000*, direction=144.8°*
108: 0x09B5 [0x27] REQ_SET(priority=0x03, entity_id=Elmemague (ID: 17195648/0x01066280), tag_num=0x0C)
109: 0x09BC [0x27] REQ_SET(priority=0x03, entity_id=Narvecaint (ID: 17195615/0x0106625F), tag_num=0x11)
110: 0x09C3 [0x4E] SET_ENTITY_HIDE_FLAG: Hide Roido (ID: 17195650/0x01066282)
111: 0x09C9 [0x4E] SET_ENTITY_HIDE_FLAG: Show Millechairale (ID: 17195651/0x01066283)
112: 0x09CF [0x1C] WAIT(20* ticks)
113: 0x09D2 [0x1E] EventEntity looks at Millechairale (ID: 17195651/0x01066283) and starts talking
114: 0x09D7 [0x29] REQ_SET_WAIT(priority=0x03, entity_id=Vijartal (ID: 17195649/0x01066281), tag_num=0x06)
115: 0x09DE [0x45] LOAD_SCHEDULED_TASK: Load scheduler "i008" with entities [LocalPlayer, LocalPlayer], work=[55*, 0*]
116: 0x09EF [0x97] SAVE_SET_WIND_VALUES(wind_base=0x800E, wind_width=0x801B)
117: 0x09F4 [0x45] LOAD_SCHEDULED_TASK: Load scheduler "fdi1" with entities [LocalPlayer, LocalPlayer], work=[200*, 0*]
118: 0x0A05 [0x55] WAIT_LOAD_SCHEDULER: Wait for scheduler "fdi1" with entities [LocalPlayer, LocalPlayer], work=200*
119: 0x0A14 [0x1C] WAIT(30* ticks)
120: 0x0A17 [0x27] REQ_SET(priority=0x03, entity_id=Millechairale (ID: 17195651/0x01066283), tag_num=0x03)
121: 0x0A1E [0x2B] Millechairale (ID: 17195651/0x01066283) [7694*]:
    → "You...!"
122: 0x0A25 [0x23] WAIT_FOR_DIALOG_INTERACTION
123: 0x0A26 [0x55] WAIT_LOAD_SCHEDULER: Wait for scheduler "i008" with entities [LocalPlayer, LocalPlayer], work=55*
124: 0x0A35 [0x27] REQ_SET(priority=0x01, entity_id=Vijartal (ID: 17195649/0x01066281), tag_num=0x0E)
125: 0x0A3C [0x32] ExtData[1]->MainSpeed = 13* * 0.1
126: 0x0A3F [0x1C] WAIT(10* ticks)
127: 0x0A42 [0x45] LOAD_SCHEDULED_TASK: Load scheduler "i009" with entities [LocalPlayer, LocalPlayer], work=[55*, 0*]
128: 0x0A53 [0x1F] MOVE_ENTITY: EventEntity moves to X=-282.088*, Z=99.256*, Y=23.946*
129: 0x0A5B [0x1F] MOVE_ENTITY: Update entity position (mode=1)
130: 0x0A5D [0x6F] WAIT_FRAME_DELAY: Yield until WaitTime reaches zero
131: 0x0A5E [0x1E] EventEntity looks at Millechairale (ID: 17195651/0x01066283) and starts talking
132: 0x0A63 [0x55] WAIT_LOAD_SCHEDULER: Wait for scheduler "i009" with entities [LocalPlayer, LocalPlayer], work=55*
133: 0x0A72 [0x2B] Vijartal (ID: 17195649/0x01066281) [7693*]:
    → "We've finally found you. You are Millechairale, I presume? Your sister and brother-in-law have been looking for you."
134: 0x0A79 [0x23] WAIT_FOR_DIALOG_INTERACTION
135: 0x0A7A [0x45] LOAD_SCHEDULED_TASK: Load scheduler "i010" with entities [LocalPlayer, LocalPlayer], work=[55*, 0*]
136: 0x0A8B [0x29] REQ_SET_WAIT(priority=0x03, entity_id=Millechairale (ID: 17195651/0x01066283), tag_num=0x06)
137: 0x0A92 [0x55] WAIT_LOAD_SCHEDULER: Wait for scheduler "i010" with entities [LocalPlayer, LocalPlayer], work=55*
138: 0x0AA1 [0x27] REQ_SET(priority=0x03, entity_id=Millechairale (ID: 17195651/0x01066283), tag_num=0x08)
139: 0x0AA8 [0x2B] Millechairale (ID: 17195651/0x01066283) [7695*]:
    → "I was instructed to give you this."
140: 0x0AAF [0x23] WAIT_FOR_DIALOG_INTERACTION
141: 0x0AB0 [0x2A] GET_REQ_LEVEL(level=3, entity_id=Millechairale (ID: 17195651/0x01066283))
142: 0x0AB6 [0x2B] Millechairale (ID: 17195651/0x01066283) [7696*]:
    → "The Scepter Royaulais..."
143: 0x0ABD [0x23] WAIT_FOR_DIALOG_INTERACTION
144: 0x0ABE [0x45] LOAD_SCHEDULED_TASK: Load scheduler "i019" with entities [LocalPlayer, LocalPlayer], work=[55*, 0*]
145: 0x0ACF [0x55] WAIT_LOAD_SCHEDULER: Wait for scheduler "i019" with entities [LocalPlayer, LocalPlayer], work=55*
146: 0x0ADE [0x2B] Vijartal (ID: 17195649/0x01066281) [7697*]:
    → "I do not...?"
147: 0x0AE5 [0x23] WAIT_FOR_DIALOG_INTERACTION
148: 0x0AE6 [0x2B] Millechairale (ID: 17195651/0x01066283) [7698*]:
    → "Please, just take it! I have been requested to give this to the first knight I meet on this day, at this time, in this place."
149: 0x0AED [0x23] WAIT_FOR_DIALOG_INTERACTION
150: 0x0AEE [0x27] REQ_SET(priority=0x03, entity_id=Vijartal (ID: 17195649/0x01066281), tag_num=0x12)
151: 0x0AF5 [0x2B] Vijartal (ID: 17195649/0x01066281) [7699*]:
    → "One moment, young man. Why me? Who asked you to do such a thing?"
152: 0x0AFC [0x23] WAIT_FOR_DIALOG_INTERACTION
153: 0x0AFD [0x45] LOAD_SCHEDULED_TASK: Load scheduler "i012" with entities [LocalPlayer, LocalPlayer], work=[55*, 0*]
154: 0x0B0E [0x55] WAIT_LOAD_SCHEDULER: Wait for scheduler "i012" with entities [LocalPlayer, LocalPlayer], work=55*
155: 0x0B1D [0x2B] Millechairale (ID: 17195651/0x01066283) [7700*]:
    → "Vijartal Caphieux."
156: 0x0B24 [0x23] WAIT_FOR_DIALOG_INTERACTION
157: 0x0B25 [0x45] LOAD_SCHEDULED_TASK: Load scheduler "i018" with entities [LocalPlayer, LocalPlayer], work=[55*, 0*]
158: 0x0B36 [0x2B] Vijartal (ID: 17195649/0x01066281) [7701*]:
    → "Vijartal...?"
159: 0x0B3D [0x23] WAIT_FOR_DIALOG_INTERACTION
160: 0x0B3E [0x55] WAIT_LOAD_SCHEDULER: Wait for scheduler "i018" with entities [LocalPlayer, LocalPlayer], work=55*
161: 0x0B4D [0x45] LOAD_SCHEDULED_TASK: Load scheduler "i011" with entities [LocalPlayer, LocalPlayer], work=[55*, 0*]
162: 0x0B5E [0x2B] Millechairale (ID: 17195651/0x01066283) [7702*]:
    → "A secret legacy has been passed down by word of mouth in my family for generations. It is an oath made to a distant ancestor. A duty that I must fulfill."
163: 0x0B65 [0x23] WAIT_FOR_DIALOG_INTERACTION
164: 0x0B66 [0x2B] Vijartal (ID: 17195649/0x01066281) [7703*]:
    → "An ancestor? You mean that you..."
165: 0x0B6D [0x23] WAIT_FOR_DIALOG_INTERACTION
166: 0x0B6E [0x27] REQ_SET(priority=0x03, entity_id=Roido (ID: 17195650/0x01066282), tag_num=0x06)
167: 0x0B75 [0x55] WAIT_LOAD_SCHEDULER: Wait for scheduler "i011" with entities [LocalPlayer, LocalPlayer], work=55*
168: 0x0B84 [0x45] LOAD_SCHEDULED_TASK: Load scheduler "i038" with entities [LocalPlayer, LocalPlayer], work=[55*, 0*]
169: 0x0B95 [0x55] WAIT_LOAD_SCHEDULER: Wait for scheduler "i038" with entities [LocalPlayer, LocalPlayer], work=55*
170: 0x0BA4 [0x2B] Millechairale (ID: 17195651/0x01066283) [7704*]:
    → "Yes. My sister and I bear the Caphieux name. Our family is that of the famous hero, Vijartal Caphieux."
171: 0x0BAB [0x23] WAIT_FOR_DIALOG_INTERACTION
172: 0x0BAC [0x27] REQ_SET(priority=0x01, entity_id=Roido (ID: 17195650/0x01066282), tag_num=0x04)
173: 0x0BB3 [0x27] REQ_SET(priority=0x03, entity_id=Vijartal (ID: 17195649/0x01066281), tag_num=0x14)
174: 0x0BBA [0x1C] WAIT(20* ticks)
175: 0x0BBD [0x45] LOAD_SCHEDULED_TASK: Load scheduler "i039" with entities [LocalPlayer, LocalPlayer], work=[55*, 0*]
176: 0x0BCE [0x55] WAIT_LOAD_SCHEDULER: Wait for scheduler "i039" with entities [LocalPlayer, LocalPlayer], work=55*
177: 0x0BDD [0x2B] Vijartal (ID: 17195649/0x01066281) [7705*]:
    → "Which would mean that I made this request myself? I would need the Pierre Errante of the Scepter Royaulais to return to my own time..."
178: 0x0BE4 [0x1C] WAIT(160* ticks)
179: 0x0BE7 [0x23] WAIT_FOR_DIALOG_INTERACTION
180: 0x0BE8 [0x2B] Roido (ID: 17195650/0x01066282) [7706*]:
    → "Millechairale!"
181: 0x0BEF [0x1C] WAIT(40* ticks)
182: 0x0BF2 [0x4E] SET_ENTITY_HIDE_FLAG: Show Roido (ID: 17195650/0x01066282)
183: 0x0BF8 [0x27] REQ_SET(priority=0x03, entity_id=Roido (ID: 17195650/0x01066282), tag_num=0x07)
184: 0x0BFF [0x1C] WAIT(10* ticks)
185: 0x0C02 [0x45] LOAD_SCHEDULED_TASK: Load scheduler "i014" with entities [LocalPlayer, LocalPlayer], work=[55*, 0*]
186: 0x0C13 [0x1C] WAIT(60* ticks)
187: 0x0C16 [0x27] REQ_SET(priority=0x01, entity_id=Vijartal (ID: 17195649/0x01066281), tag_num=0x0B)
188: 0x0C1D [0x27] REQ_SET(priority=0x02, entity_id=Millechairale (ID: 17195651/0x01066283), tag_num=0x04)
189: 0x0C24 [0x1E] EventEntity looks at Roido (ID: 17195650/0x01066282) and starts talking
190: 0x0C29 [0x1C] WAIT(70* ticks)
191: 0x0C2C [0x23] WAIT_FOR_DIALOG_INTERACTION
192: 0x0C2D [0x2B] Millechairale (ID: 17195651/0x01066283) [7707*]:
    → "Roido..."
193: 0x0C34 [0x23] WAIT_FOR_DIALOG_INTERACTION
194: 0x0C35 [0x55] WAIT_LOAD_SCHEDULER: Wait for scheduler "i014" with entities [LocalPlayer, LocalPlayer], work=55*
195: 0x0C44 [0x45] LOAD_SCHEDULED_TASK: Load scheduler "i015" with entities [LocalPlayer, LocalPlayer], work=[55*, 0*]
196: 0x0C55 [0x55] WAIT_LOAD_SCHEDULER: Wait for scheduler "i015" with entities [LocalPlayer, LocalPlayer], work=55*
197: 0x0C64 [0x79] Vijartal (ID: 17195649/0x01066281) looks at Roido (ID: 17195650/0x01066282) (Basic look)
198: 0x0C6E [0x2B] Roido (ID: 17195650/0x01066282) [7708*]:
    → "You had us worried... You shouldn't have put yourself in such danger just to fulfill that oath of yours."
199: 0x0C75 [0x23] WAIT_FOR_DIALOG_INTERACTION
200: 0x0C76 [0x45] LOAD_SCHEDULED_TASK: Load scheduler "i020" with entities [LocalPlayer, LocalPlayer], work=[55*, 0*]
201: 0x0C87 [0x55] WAIT_LOAD_SCHEDULER: Wait for scheduler "i020" with entities [LocalPlayer, LocalPlayer], work=55*
202: 0x0C96 [0x2B] Millechairale (ID: 17195651/0x01066283) [7709*]:
    → "I am sorry for the trouble I've caused. But it was the will of Vijartal Caphieux. I wanted to answer the request of my most respected ancestor, no matter what it took."
203: 0x0C9D [0x23] WAIT_FOR_DIALOG_INTERACTION
204: 0x0C9E [0x45] LOAD_SCHEDULED_TASK: Load scheduler "i016" with entities [LocalPlayer, LocalPlayer], work=[55*, 0*]
205: 0x0CAF [0x55] WAIT_LOAD_SCHEDULER: Wait for scheduler "i016" with entities [LocalPlayer, LocalPlayer], work=55*
206: 0x0CBE [0x1C] WAIT(30* ticks)
207: 0x0CC1 [0x2B] Vijartal (ID: 17195649/0x01066281) [7710*]:
    → "..."
208: 0x0CC8 [0x23] WAIT_FOR_DIALOG_INTERACTION
209: 0x0CC9 [0x5C] MUSIC_CONTROL: Set Idle (Day) music to song 160*
210: 0x0CCD [0x5C] MUSIC_CONTROL: Set Idle (Night) music to song 160*
211: 0x0CD1 [0x9A] WAIT_MUSIC_SERVER()
212: 0x0CD2 [0x27] REQ_SET(priority=0x01, entity_id=Roido (ID: 17195650/0x01066282), tag_num=0x05)
213: 0x0CD9 [0x27] REQ_SET(priority=0x02, entity_id=Millechairale (ID: 17195651/0x01066283), tag_num=0x05)
214: 0x0CE0 [0x27] REQ_SET(priority=0x03, entity_id=Vijartal (ID: 17195649/0x01066281), tag_num=0x04)
215: 0x0CE7 [0x1E] EventEntity looks at Elmemague (ID: 17195648/0x01066280) and starts talking
216: 0x0CEC [0x1C] WAIT(20* ticks)
217: 0x0CEF [0x45] LOAD_SCHEDULED_TASK: Load scheduler "i017" with entities [LocalPlayer, LocalPlayer], work=[55*, 0*]
218: 0x0D00 [0x55] WAIT_LOAD_SCHEDULER: Wait for scheduler "i017" with entities [LocalPlayer, LocalPlayer], work=55*
219: 0x0D0F [0x2B] Millechairale (ID: 17195651/0x01066283) [7711*]:
    → "They have found me!"
220: 0x0D16 [0x23] WAIT_FOR_DIALOG_INTERACTION
221: 0x0D17 [0x45] LOAD_SCHEDULED_TASK: Load scheduler "i021" with entities [LocalPlayer, LocalPlayer], work=[55*, 0*]
222: 0x0D28 [0x55] WAIT_LOAD_SCHEDULER: Wait for scheduler "i021" with entities [LocalPlayer, LocalPlayer], work=55*
223: 0x0D37 [0x4A] Vijartal (ID: 17195649/0x01066281) looks at Roido (ID: 17195650/0x01066282)
224: 0x0D40 [0x2B] Vijartal (ID: 17195649/0x01066281) [7712*]:
    → "Quickly! You must flee before they arrive!"
225: 0x0D47 [0x23] WAIT_FOR_DIALOG_INTERACTION
226: 0x0D48 [0x45] LOAD_SCHEDULED_TASK: Load scheduler "i023" with entities [LocalPlayer, LocalPlayer], work=[55*, 0*]
227: 0x0D59 [0x55] WAIT_LOAD_SCHEDULER: Wait for scheduler "i023" with entities [LocalPlayer, LocalPlayer], work=55*
228: 0x0D68 [0x2B] Roido (ID: 17195650/0x01066282) [7713*]:
    → "Vijartal, <Player>. Take Millechairale and get out of here. You should be able to escape from another tunnel deeper in the caves."
229: 0x0D6F [0x23] WAIT_FOR_DIALOG_INTERACTION
230: 0x0D70 [0x45] LOAD_SCHEDULED_TASK: Load scheduler "i022" with entities [LocalPlayer, LocalPlayer], work=[55*, 0*]
231: 0x0D81 [0x55] WAIT_LOAD_SCHEDULER: Wait for scheduler "i022" with entities [LocalPlayer, LocalPlayer], work=55*
232: 0x0D90 [0x1E] EventEntity looks at Roido (ID: 17195650/0x01066282) and starts talking
233: 0x0D95 [0x27] REQ_SET(priority=0x02, entity_id=Millechairale (ID: 17195651/0x01066283), tag_num=0x04)
234: 0x0D9C [0x2B] Millechairale (ID: 17195651/0x01066283) [7714*]:
    → "Roido!"
235: 0x0DA3 [0x23] WAIT_FOR_DIALOG_INTERACTION
236: 0x0DA4 [0x2B] Vijartal (ID: 17195649/0x01066281) [7715*]:
    → "Are you insane!? If you stay here, things will not go lightly for you!"
237: 0x0DAB [0x23] WAIT_FOR_DIALOG_INTERACTION
238: 0x0DAC [0x2B] Roido (ID: 17195650/0x01066282) [7716*]:
    → "Please, hurry! There's no time to debate the issue!"
239: 0x0DB3 [0x23] WAIT_FOR_DIALOG_INTERACTION
240: 0x0DB4 [0x45] LOAD_SCHEDULED_TASK: Load scheduler "i024" with entities [LocalPlayer, LocalPlayer], work=[55*, 0*]
241: 0x0DC5 [0x55] WAIT_LOAD_SCHEDULER: Wait for scheduler "i024" with entities [LocalPlayer, LocalPlayer], work=55*
242: 0x0DD4 [0x2B] Vijartal (ID: 17195649/0x01066281) [7717*]:
    → "Why do you do this...?"
243: 0x0DDB [0x23] WAIT_FOR_DIALOG_INTERACTION
244: 0x0DDC [0x45] LOAD_SCHEDULED_TASK: Load scheduler "i025" with entities [LocalPlayer, LocalPlayer], work=[55*, 0*]
245: 0x0DED [0x27] REQ_SET(priority=0x01, entity_id=Roido (ID: 17195650/0x01066282), tag_num=0x03)
246: 0x0DF4 [0x2B] Roido (ID: 17195650/0x01066282) [7718*]:
    → "Even if I am not of the same race or bloodline, I need no reason to protect my family!"
247: 0x0DFB [0x23] WAIT_FOR_DIALOG_INTERACTION
248: 0x0DFC [0x2B] Millechairale (ID: 17195651/0x01066283) [7719*]:
    → "Roido..."
249: 0x0E03 [0x23] WAIT_FOR_DIALOG_INTERACTION
250: 0x0E04 [0x2B] Roido (ID: 17195650/0x01066282) [7720*]:
    → "Bastok, San d'Oria--none of that is important! Don't you understand? Surely you have someone who you would die to protect, no matter the consequences?"
251: 0x0E0B [0x23] WAIT_FOR_DIALOG_INTERACTION
252: 0x0E0C [0x55] WAIT_LOAD_SCHEDULER: Wait for scheduler "i025" with entities [LocalPlayer, LocalPlayer], work=55*
253: 0x0E1B [0x45] LOAD_SCHEDULED_TASK: Load scheduler "i026" with entities [LocalPlayer, LocalPlayer], work=[55*, 0*]
254: 0x0E2C [0x55] WAIT_LOAD_SCHEDULER: Wait for scheduler "i026" with entities [LocalPlayer, LocalPlayer], work=55*
255: 0x0E3B [0x2B] Roido (ID: 17195650/0x01066282) [7722*]:
    → "For me, those people are Phillone and Millechairale. Now please, just go!"
256: 0x0E42 [0x23] WAIT_FOR_DIALOG_INTERACTION
257: 0x0E43 [0x45] LOAD_SCHEDULED_TASK: Load scheduler "i027" with entities [LocalPlayer, LocalPlayer], work=[55*, 0*]
258: 0x0E54 [0x55] WAIT_LOAD_SCHEDULER: Wait for scheduler "i027" with entities [LocalPlayer, LocalPlayer], work=55*
259: 0x0E63 [0x2B] Vijartal (ID: 17195649/0x01066281) [7723*]:
    → "Wait... There is one way to save all of us..."
260: 0x0E6A [0x23] WAIT_FOR_DIALOG_INTERACTION
261: 0x0E6B [0x2B] Vijartal (ID: 17195649/0x01066281) [7724*]:
    → "I see what she means now. The most important thing is understanding..."
262: 0x0E72 [0x23] WAIT_FOR_DIALOG_INTERACTION
263: 0x0E73 [0x45] LOAD_SCHEDULED_TASK: Load scheduler "i028" with entities [LocalPlayer, LocalPlayer], work=[55*, 0*]
264: 0x0E84 [0x55] WAIT_LOAD_SCHEDULER: Wait for scheduler "i028" with entities [LocalPlayer, LocalPlayer], work=55*
265: 0x0E93 [0x4E] SET_ENTITY_HIDE_FLAG: Show Elmemague (ID: 17195648/0x01066280)
266: 0x0E99 [0x4E] SET_ENTITY_HIDE_FLAG: Show Narvecaint (ID: 17195615/0x0106625F)
267: 0x0E9F [0x2B] Roido (ID: 17195650/0x01066282) [7725*]:
    → "Vijartal?"
268: 0x0EA6 [0x1C] WAIT(10* ticks)
269: 0x0EA9 [0x27] REQ_SET(priority=0x02, entity_id=Millechairale (ID: 17195651/0x01066283), tag_num=0x03)
270: 0x0EB0 [0x1E] EventEntity looks at Vijartal (ID: 17195649/0x01066281) and starts talking
271: 0x0EB5 [0x23] WAIT_FOR_DIALOG_INTERACTION
272: 0x0EB6 [0x2B] Vijartal (ID: 17195649/0x01066281) [7726*]:
    → "Do not resist the Temple Knights when they come. Leave everything to me."
273: 0x0EBD [0x23] WAIT_FOR_DIALOG_INTERACTION
274: 0x0EBE [0x45] LOAD_SCHEDULED_TASK: Load scheduler "i030" with entities [LocalPlayer, LocalPlayer], work=[55*, 0*]
275: 0x0ECF [0x55] WAIT_LOAD_SCHEDULER: Wait for scheduler "i030" with entities [LocalPlayer, LocalPlayer], work=55*
276: 0x0EDE [0x2B] Elmemague (ID: 17195648/0x01066280) [7727*]:
    → "You have nowhere left to run! Hand over the Scepter Royaulais!"
277: 0x0EE5 [0x23] WAIT_FOR_DIALOG_INTERACTION
278: 0x0EE6 [0x27] REQ_SET(priority=0x01, entity_id=Elmemague (ID: 17195648/0x01066280), tag_num=0x0E)
279: 0x0EED [0x27] REQ_SET(priority=0x02, entity_id=Narvecaint (ID: 17195615/0x0106625F), tag_num=0x12)
280: 0x0EF4 [0x1C] WAIT(50* ticks)
281: 0x0EF7 [0x45] LOAD_SCHEDULED_TASK: Load scheduler "i032" with entities [LocalPlayer, LocalPlayer], work=[55*, 0*]
282: 0x0F08 [0x55] WAIT_LOAD_SCHEDULER: Wait for scheduler "i032" with entities [LocalPlayer, LocalPlayer], work=55*
283: 0x0F17 [0x2B] Vijartal (ID: 17195649/0x01066281) [7728*]:
    → "Roido, you have made me realize that Bastokers are not to be so easily dismissed. There is something to Prince Fellenant's reasoning after all. I see now why I cannot allow him to be assassinated."
284: 0x0F1E [0x1C] WAIT(120* ticks)
285: 0x0F21 [0x23] WAIT_FOR_DIALOG_INTERACTION
286: 0x0F22 [0x45] LOAD_SCHEDULED_TASK: Load scheduler "i031" with entities [LocalPlayer, LocalPlayer], work=[55*, 0*]
287: 0x0F33 [0x55] WAIT_LOAD_SCHEDULER: Wait for scheduler "i031" with entities [LocalPlayer, LocalPlayer], work=55*
288: 0x0F42 [0x2B] Vijartal (ID: 17195649/0x01066281) [7729*]:
    → "It is just like the last time... These caves are responding in some way to the Pierre Errante. Did you know that this place was once known as the "Shrine of Endless Travels"?"
289: 0x0F49 [0x23] WAIT_FOR_DIALOG_INTERACTION
290: 0x0F4A [0x45] LOAD_SCHEDULED_TASK: Load scheduler "i029" with entities [LocalPlayer, LocalPlayer], work=[55*, 0*]
291: 0x0F5B [0x55] WAIT_LOAD_SCHEDULER: Wait for scheduler "i029" with entities [LocalPlayer, LocalPlayer], work=55*
292: 0x0F6A [0x2B] Roido (ID: 17195650/0x01066282) [7730*]:
    → "Vijartal...?"
293: 0x0F71 [0x23] WAIT_FOR_DIALOG_INTERACTION
294: 0x0F72 [0x45] LOAD_SCHEDULED_TASK: Load scheduler "i033" with entities [LocalPlayer, LocalPlayer], work=[55*, 0*]
295: 0x0F83 [0x55] WAIT_LOAD_SCHEDULER: Wait for scheduler "i033" with entities [LocalPlayer, LocalPlayer], work=55*
296: 0x0F92 [0x2B] Vijartal (ID: 17195649/0x01066281) [7731*]:
    → "There is nothing to fear. Please let Phillone know that I need no thanks; I already have my reward. I am the Obsidian Bolt, such deeds are my reason for living...!"
297: 0x0F99 [0x23] WAIT_FOR_DIALOG_INTERACTION
298: 0x0F9A [0x1C] WAIT(30* ticks)
299: 0x0F9D [0x27] REQ_SET(priority=0x03, entity_id=Vijartal (ID: 17195649/0x01066281), tag_num=0x0F)
300: 0x0FA4 [0x1C] WAIT(30* ticks)
301: 0x0FA7 [0x62] LOAD_EVENT_SCHEDULER: Load scheduler "main" with entities [Vijartal (ID: 17195649/0x01066281), Vijartal (ID: 17195649/0x01066281)], work=[43*, 0*]
302: 0x0FB8 [0x6C] FADE_ENTITY_COLOR(entity_id=Vijartal (ID: 17195649/0x01066281), end_alpha=0*, fade_time=120*)
303: 0x0FC1 [0x92] Vijartal (ID: 17195649/0x01066281)->Render.Flags3 ^= 0x01
304: 0x0FC7 [0x4A] Millechairale (ID: 17195651/0x01066283) looks at Vijartal (ID: 17195649/0x01066281)
305: 0x0FD0 [0x27] REQ_SET(priority=0x02, entity_id=Elmemague (ID: 17195648/0x01066280), tag_num=0x11)
306: 0x0FD7 [0x27] REQ_SET(priority=0x03, entity_id=Narvecaint (ID: 17195615/0x0106625F), tag_num=0x13)
307: 0x0FDE [0x27] REQ_SET(priority=0x03, entity_id=Vijartal (ID: 17195649/0x01066281), tag_num=0x10)
308: 0x0FE5 [0x1C] WAIT(40* ticks)
309: 0x0FE8 [0x45] LOAD_SCHEDULED_TASK: Load scheduler "i042" with entities [LocalPlayer, LocalPlayer], work=[55*, 0*]
310: 0x0FF9 [0x55] WAIT_LOAD_SCHEDULER: Wait for scheduler "i042" with entities [LocalPlayer, LocalPlayer], work=55*
311: 0x1008 [0x2B] Narvecaint (ID: 17195615/0x0106625F) [7732*]:
    → "We have you now, thief! Surrender quietly!"
312: 0x100F [0x23] WAIT_FOR_DIALOG_INTERACTION
313: 0x1010 [0x2B] Elmemague (ID: 17195648/0x01066280) [7733*]:
    → "He's vanished! Where is the knight that accompanied you? Sorcery...!?"
314: 0x1017 [0x23] WAIT_FOR_DIALOG_INTERACTION
315: 0x1018 [0x7B] Elmemague (ID: 17195648/0x01066280) stops talking
316: 0x101D [0x62] LOAD_EVENT_SCHEDULER: Load scheduler "main" with entities [Vijartal (ID: 17195649/0x01066281), Vijartal (ID: 17195649/0x01066281)], work=[3*, 0*]
317: 0x102E [0x1C] WAIT(60* ticks)
318: 0x1031 [0x29] REQ_SET_WAIT(priority=0x02, entity_id=Elmemague (ID: 17195648/0x01066280), tag_num=0x12)
319: 0x1038 [0x4A] Narvecaint (ID: 17195615/0x0106625F) looks at Elmemague (ID: 17195648/0x01066280)
320: 0x1041 [0x27] REQ_SET(priority=0x02, entity_id=Elmemague (ID: 17195648/0x01066280), tag_num=0x17)
321: 0x1048 [0x1C] WAIT(30* ticks)
322: 0x104B [0x45] LOAD_SCHEDULED_TASK: Load scheduler "i043" with entities [LocalPlayer, LocalPlayer], work=[55*, 0*]
323: 0x105C [0x55] WAIT_LOAD_SCHEDULER: Wait for scheduler "i043" with entities [LocalPlayer, LocalPlayer], work=55*
324: 0x106B [0x1C] WAIT(60* ticks)
325: 0x106E [0x2B] Elmemague (ID: 17195648/0x01066280) [7734*]:
    → "Wait...this is the Scepter Royaulais!"
326: 0x1075 [0x23] WAIT_FOR_DIALOG_INTERACTION
327: 0x1076 [0x1C] WAIT(60* ticks)
328: 0x1079 [0x45] LOAD_SCHEDULED_TASK: Load scheduler "fdo1" with entities [LocalPlayer, LocalPlayer], work=[200*, 0*]
329: 0x108A [0x55] WAIT_LOAD_SCHEDULER: Wait for scheduler "fdo1" with entities [LocalPlayer, LocalPlayer], work=200*
330: 0x1099 [0x55] WAIT_LOAD_SCHEDULER: Wait for scheduler "i007" with entities [LocalPlayer, LocalPlayer], work=55*
331: 0x10A8 [0x1C] WAIT(50* ticks)
332: 0x10AB [0x23] WAIT_FOR_DIALOG_INTERACTION
333: 0x10AC [0x78] ENABLE_GAME_TIMER_RESET_WEATHER()
334: 0x10AD [0x37] UPDATE_EVENT_POSITION_AND_DIR: x=-263.310*, z=128.894*, y=22.905*, direction=259.3°*
