# Event 22

## Metadata

| Field           | Value    |
|-----------------|----------|
| Event Index     | 31/33    |
| Offset          | 0x03D3   |
| Data Size       | 54 bytes |
| Calculated Size | 54 bytes |
| Instructions    | 10       |

```
      00 01 02 03 04 05 06 07  08 09 0A 0B 0C 0D 0E 0F
      -- -- -- -- -- -- -- --  -- -- -- -- -- -- -- --
03D0:          4A F0 FF FF 7F  F8 FF FF 7F 1E F0 FF FF     J............
03E0: 7F 66 04 80 F8 FF FF 7F  F8 FF FF 7F 74 6C 6B 30  .f..........tlk0
03F0: 1D 2B 80 23 1D 2C 80 23  66 04 80 F8 FF FF 7F F8  .+.#.,.#f.......
0400: FF FF 7F 74 65 6E 30 21  00                       ...ten0!.       
```

## Opcodes

```
  0: 0x03D3 [0x4A] LocalPlayer looks at EventEntity
  1: 0x03DC [0x1E] EventEntity looks at LocalPlayer and starts talking
  2: 0x03E1 [0x66] LOAD_EXT_SCHEDULER_MAIN: Load scheduler "tlk0" with entities [EventEntity, EventEntity], work=0*
  3: 0x03F0 [0x1D] PRINT_EVENT_MESSAGE(message_id=8090*)
    → "We've seen no change in the girl's condition. She remains unconscious.\u0007Were you able to meet with Arciela?\u007F1\u0000\u0007"
  4: 0x03F3 [0x23] WAIT_FOR_DIALOG_INTERACTION
  5: 0x03F4 [0x1D] PRINT_EVENT_MESSAGE(message_id=8091*)
    → "What? Why do you keep asking me where she is!?\u0007I told you, if you want to meet her again, try looking where you've met her before!\u007F1\u0000\u0007"
  6: 0x03F7 [0x23] WAIT_FOR_DIALOG_INTERACTION
  7: 0x03F8 [0x66] LOAD_EXT_SCHEDULER_MAIN: Load scheduler "ten0" with entities [EventEntity, EventEntity], work=0*
  8: 0x0407 [0x21] END_EVENT
  9: 0x0408 [0x00] END_REQSTACK()
```
