# Event 2566

## Metadata

| Field           | Value    |
|-----------------|----------|
| Event Index     | 25/33    |
| Offset          | 0x035E   |
| Data Size       | 47 bytes |
| Calculated Size | 47 bytes |
| Instructions    | 11       |

```
      00 01 02 03 04 05 06 07  08 09 0A 0B 0C 0D 0E 0F
      -- -- -- -- -- -- -- --  -- -- -- -- -- -- -- --
0350:                                            1E F0                ..
0360: FF FF 7F 6F 70 66 04 80  F8 FF FF 7F F8 FF FF 7F  ...opf..........
0370: 74 6C 6B 30 1D 18 80 23  1D 19 80 23 66 04 80 F8  tlk0...#...#f...
0380: FF FF 7F F8 FF FF 7F 74  65 6E 30 21 00           .......ten0!.   
```

## Opcodes

```
  0: 0x035E [0x1E] EventEntity looks at LocalPlayer and starts talking
  1: 0x0363 [0x6F] WAIT_FRAME_DELAY: Yield until WaitTime reaches zero
  2: 0x0364 [0x70] WAIT_ENTITY_RENDER_FLAG: Wait while EventEntity->Render.Flags3 bit 2 is set (cancel turn if not)
  3: 0x0365 [0x66] LOAD_EXT_SCHEDULER_MAIN: Load scheduler "tlk0" with entities [EventEntity, EventEntity], work=0*
  4: 0x0374 [0x1D] PRINT_EVENT_MESSAGE(message_id=7544*)
    → "We've still got a lot to learn if we're going to colonize the land, but with pioneers like you around...it'll take twice as long.\u007F1\u0000\u0007"
  5: 0x0377 [0x23] WAIT_FOR_DIALOG_INTERACTION
  6: 0x0378 [0x1D] PRINT_EVENT_MESSAGE(message_id=7545*)
    → "Keep on fighting and discovering more about the land, and one day I might just recognize your potential. Not that I'll get my hopes up.\u007F1\u0000\u0007"
  7: 0x037B [0x23] WAIT_FOR_DIALOG_INTERACTION
  8: 0x037C [0x66] LOAD_EXT_SCHEDULER_MAIN: Load scheduler "ten0" with entities [EventEntity, EventEntity], work=0*
  9: 0x038B [0x21] END_EVENT
 10: 0x038C [0x00] END_REQSTACK()
```
