# Event 420

## Metadata

| Field           | Value    |
|-----------------|----------|
| Event Index     | 6/28     |
| Offset          | 0x0770   |
| Data Size       | 51 bytes |
| Calculated Size | 51 bytes |
| Instructions    | 11       |

```
      00 01 02 03 04 05 06 07  08 09 0A 0B 0C 0D 0E 0F
      -- -- -- -- -- -- -- --  -- -- -- -- -- -- -- --
0770: 4A F8 FF FF 7F F0 FF FF  7F 6F 70 66 04 80 F8 FF  J........opf....
0780: FF 7F F8 FF FF 7F 74 6C  6B 31 1D 68 80 23 1D 69  ......tlk1.h.#.i
0790: 80 23 66 04 80 F8 FF FF  7F F8 FF FF 7F 74 6C 6B  .#f..........tlk
07A0: 32 21 00                                          2!.             
```

## Opcodes

```
  0: 0x0770 [0x4A] EventEntity looks at LocalPlayer
  1: 0x0779 [0x6F] WAIT_FRAME_DELAY: Yield until WaitTime reaches zero
  2: 0x077A [0x70] WAIT_ENTITY_RENDER_FLAG: Wait while EventEntity->Render.Flags3 bit 2 is set (cancel turn if not)
  3: 0x077B [0x66] LOAD_EXT_SCHEDULER_MAIN(work_offset=51*, entity1=EventEntity, entity2=EventEntity, action="tlk1")
  4: 0x078A [0x1D] PRINT_EVENT_MESSAGE(message_id=9174*)
    → "How's that shield coming? Finished yet?\u007F1\u0000\u0007"
  5: 0x078D [0x23] WAIT_FOR_DIALOG_INTERACTION
  6: 0x078E [0x1D] PRINT_EVENT_MESSAGE(message_id=9175*)
    → "Good. Now let me have a look.\u007F1\u0000\u0007"
  7: 0x0791 [0x23] WAIT_FOR_DIALOG_INTERACTION
  8: 0x0792 [0x66] LOAD_EXT_SCHEDULER_MAIN(work_offset=51*, entity1=EventEntity, entity2=EventEntity, action="tlk2")
  9: 0x07A1 [0x21] END_EVENT
 10: 0x07A2 [0x00] END_REQSTACK()
```
