# Event 424

## Metadata

| Field           | Value    |
|-----------------|----------|
| Event Index     | 10/28    |
| Offset          | 0x0971   |
| Data Size       | 51 bytes |
| Calculated Size | 51 bytes |
| Instructions    | 11       |

```
      00 01 02 03 04 05 06 07  08 09 0A 0B 0C 0D 0E 0F
      -- -- -- -- -- -- -- --  -- -- -- -- -- -- -- --
0970:    4A F8 FF FF 7F F0 FF  FF 7F 6F 70 66 36 80 F8   J........opf6..
0980: FF FF 7F F8 FF FF 7F 74  6C 6B 30 1D 79 80 23 1D  .......tlk0.y.#.
0990: 70 80 23 66 36 80 F8 FF  FF 7F F8 FF FF 7F 74 6C  p.#f6.........tl
09A0: 6B 31 21 00                                       k1!.            
```

## Opcodes

```
  0: 0x0971 [0x4A] EventEntity looks at LocalPlayer
  1: 0x097A [0x6F] WAIT_FRAME_DELAY: Yield until WaitTime reaches zero
  2: 0x097B [0x70] WAIT_ENTITY_RENDER_FLAG: Wait while EventEntity->Render.Flags3 bit 2 is set (cancel turn if not)
  3: 0x097C [0x66] LOAD_EXT_SCHEDULER_MAIN(work_offset=59*, entity1=EventEntity, entity2=EventEntity, action="tlk0")
  4: 0x098B [0x1D] PRINT_EVENT_MESSAGE(message_id=9222*)
    → "Sorry to keep you waiting. The prrreparations are finally complete.\u007F1\u0000\u0007"
  5: 0x098E [0x23] WAIT_FOR_DIALOG_INTERACTION
  6: 0x098F [0x1D] PRINT_EVENT_MESSAGE(message_id=9199*)
    → "I'm going to get it rrready for the upgrade, so can I borrow the \u0001\u0005#\u0002\u0000\u0000\u0000 for a moment?\u007F1\u0000\u0007"
  7: 0x0992 [0x23] WAIT_FOR_DIALOG_INTERACTION
  8: 0x0993 [0x66] LOAD_EXT_SCHEDULER_MAIN(work_offset=59*, entity1=EventEntity, entity2=EventEntity, action="tlk1")
  9: 0x09A2 [0x21] END_EVENT
 10: 0x09A3 [0x00] END_REQSTACK()
```
