# Event 429

## Metadata

| Field           | Value    |
|-----------------|----------|
| Event Index     | 12/28    |
| Offset          | 0x0BA6   |
| Data Size       | 51 bytes |
| Calculated Size | 51 bytes |
| Instructions    | 11       |

```
      00 01 02 03 04 05 06 07  08 09 0A 0B 0C 0D 0E 0F
      -- -- -- -- -- -- -- --  -- -- -- -- -- -- -- --
0BA0:                   4A F8  FF FF 7F F0 FF FF 7F 6F        J........o
0BB0: 70 66 01 80 F8 FF FF 7F  F8 FF FF 7F 74 6C 6B 30  pf..........tlk0
0BC0: 1D 8E 80 23 1D 8F 80 23  66 01 80 F8 FF FF 7F F8  ...#...#f.......
0BD0: FF FF 7F 74 6C 6B 31 21  00                       ...tlk1!.       
```

## Opcodes

```
  0: 0x0BA6 [0x4A] EventEntity looks at LocalPlayer
  1: 0x0BAF [0x6F] WAIT_FRAME_DELAY: Yield until WaitTime reaches zero
  2: 0x0BB0 [0x70] WAIT_ENTITY_RENDER_FLAG: Wait while EventEntity->Render.Flags3 bit 2 is set (cancel turn if not)
  3: 0x0BB1 [0x66] LOAD_EXT_SCHEDULER_MAIN(work_offset=50*, entity1=EventEntity, entity2=EventEntity, action="tlk0")
  4: 0x0BC0 [0x1D] PRINT_EVENT_MESSAGE(message_id=9259*)
    → "Ahh, I see you've made it to the final stage at last.\u007F1\u0000\u0007"
  5: 0x0BC3 [0x23] WAIT_FOR_DIALOG_INTERACTION
  6: 0x0BC4 [0x1D] PRINT_EVENT_MESSAGE(message_id=9260*)
    → "Now then, let's get starrrted, shall we? Let me see your \u0001\u0005#\u0002\u0000\u0000\u0000.\u007F1\u0000\u0007"
  7: 0x0BC7 [0x23] WAIT_FOR_DIALOG_INTERACTION
  8: 0x0BC8 [0x66] LOAD_EXT_SCHEDULER_MAIN(work_offset=50*, entity1=EventEntity, entity2=EventEntity, action="tlk1")
  9: 0x0BD7 [0x21] END_EVENT
 10: 0x0BD8 [0x00] END_REQSTACK()
```
