# Event 437

## Metadata

| Field           | Value    |
|-----------------|----------|
| Event Index     | 20/28    |
| Offset          | 0x1026   |
| Data Size       | 51 bytes |
| Calculated Size | 51 bytes |
| Instructions    | 11       |

```
      00 01 02 03 04 05 06 07  08 09 0A 0B 0C 0D 0E 0F
      -- -- -- -- -- -- -- --  -- -- -- -- -- -- -- --
1020:                   4A F8  FF FF 7F F0 FF FF 7F 6F        J........o
1030: 70 66 36 80 F8 FF FF 7F  F8 FF FF 7F 74 6C 6B 30  pf6.........tlk0
1040: 1D BF 80 23 1D C0 80 23  66 36 80 F8 FF FF 7F F8  ...#...#f6......
1050: FF FF 7F 74 6C 6B 31 21  00                       ...tlk1!.       
```

## Opcodes

```
  0: 0x1026 [0x4A] EventEntity looks at LocalPlayer
  1: 0x102F [0x6F] WAIT_FRAME_DELAY: Yield until WaitTime reaches zero
  2: 0x1030 [0x70] WAIT_ENTITY_RENDER_FLAG: Wait while EventEntity->Render.Flags3 bit 2 is set (cancel turn if not)
  3: 0x1031 [0x66] LOAD_EXT_SCHEDULER_MAIN(work_offset=59*, entity1=EventEntity, entity2=EventEntity, action="tlk0")
  4: 0x1040 [0x1D] PRINT_EVENT_MESSAGE(message_id=9382*)
    → "Well, looks like I'll be having to share that with the guildmaster!\u007F1\u0000\u0007"
  5: 0x1043 [0x23] WAIT_FOR_DIALOG_INTERACTION
  6: 0x1044 [0x1D] PRINT_EVENT_MESSAGE(message_id=9383*)
    → "Yes... Go and show that shield to your guildmaster.\u007F1\u0000\u0007"
  7: 0x1047 [0x23] WAIT_FOR_DIALOG_INTERACTION
  8: 0x1048 [0x66] LOAD_EXT_SCHEDULER_MAIN(work_offset=59*, entity1=EventEntity, entity2=EventEntity, action="tlk1")
  9: 0x1057 [0x21] END_EVENT
 10: 0x1058 [0x00] END_REQSTACK()
```
