# Event 65535

## Metadata

| Field           | Value    |
|-----------------|----------|
| Event Index     | 8/10     |
| Offset          | 0x02C2   |
| Data Size       | 48 bytes |
| Calculated Size | 48 bytes |
| Instructions    | 12       |

```
      00 01 02 03 04 05 06 07  08 09 0A 0B 0C 0D 0E 0F
      -- -- -- -- -- -- -- --  -- -- -- -- -- -- -- --
02C0:       4A 51 B3 05 01 50  B3 05 01 6F 76 51 B3 05    JQ...P...ovQ..
02D0: 01 1C 30 80 4B 52 B3 05  01 23 80 6F 76 52 B3 05  ..0.KR...#.ovR..
02E0: 01 1C 02 80 4B 50 B3 05  01 23 80 6F 76 50 B3 05  ....KP...#.ovP..
02F0: 01 00                                             ..              
```

## Opcodes

```
  0: 0x02C2 [0x4A] Camlin (ID: 17150801/0x0105B351) looks at Bryher (ID: 17150800/0x0105B350)
  1: 0x02CB [0x6F] WAIT_FRAME_DELAY: Yield until WaitTime reaches zero
  2: 0x02CC [0x76] CHECK_ENTITY_RENDER_FLAGS: Wait until Camlin (ID: 17150801/0x0105B351) Render.Flags0 and Render.Flags3 conditions are met
  3: 0x02D1 [0x1C] WAIT(20* ticks)
  4: 0x02D4 [0x4B] UPDATE_ENTITY_YAW(entity=Darach (ID: 17150802/0x0105B352), yaw=10.44°*)
  5: 0x02DB [0x6F] WAIT_FRAME_DELAY: Yield until WaitTime reaches zero
  6: 0x02DC [0x76] CHECK_ENTITY_RENDER_FLAGS: Wait until Darach (ID: 17150802/0x0105B352) Render.Flags0 and Render.Flags3 conditions are met
  7: 0x02E1 [0x1C] WAIT(19* ticks)
  8: 0x02E4 [0x4B] UPDATE_ENTITY_YAW(entity=Bryher (ID: 17150800/0x0105B350), yaw=10.44°*)
  9: 0x02EB [0x6F] WAIT_FRAME_DELAY: Yield until WaitTime reaches zero
 10: 0x02EC [0x76] CHECK_ENTITY_RENDER_FLAGS: Wait until Bryher (ID: 17150800/0x0105B350) Render.Flags0 and Render.Flags3 conditions are met
 11: 0x02F1 [0x00] END_REQSTACK()
```
