# Event 65535

## Metadata

| Field           | Value    |
|-----------------|----------|
| Event Index     | 5/10     |
| Offset          | 0x012E   |
| Data Size       | 53 bytes |
| Calculated Size | 53 bytes |
| Instructions    | 7        |

```
      00 01 02 03 04 05 06 07  08 09 0A 0B 0C 0D 0E 0F
      -- -- -- -- -- -- -- --  -- -- -- -- -- -- -- --
0120:                                            5B 12                [.
0130: 80 4F B3 05 01 4F B3 05  01 73 61 69 30 5B 13 80  .O...O...sai0[..
0140: 4E B3 05 01 4E B3 05 01  73 61 69 30 53 4E B3 05  N...N...sai0SN..
0150: 01 4E B3 05 01 73 61 69  30 5C 00 14 80 5C 01 14  .N...sai0\...\..
0160: 80 9A 00                                          ...             
```

## Opcodes

```
  0: 0x012E [0x5B] LOAD_EXT_SCHEDULER: Load scheduler "sai0" with entities [Abenzio (ID: 17150799/0x0105B34F), Abenzio (ID: 17150799/0x0105B34F)], work=2158*
  1: 0x013D [0x5B] LOAD_EXT_SCHEDULER: Load scheduler "sai0" with entities [Babban Ny Mheillea (ID: 17150798/0x0105B34E), Babban Ny Mheillea (ID: 17150798/0x0105B34E)], work=2161*
  2: 0x014C [0x53] WAIT_SCHEDULER_TASK: Wait for scheduler "sai0" with entities [Babban Ny Mheillea (ID: 17150798/0x0105B34E), Babban Ny Mheillea (ID: 17150798/0x0105B34E)]
  3: 0x0159 [0x5C] MUSIC_CONTROL: Set Idle (Day) music to song 120*
  4: 0x015D [0x5C] MUSIC_CONTROL: Set Idle (Night) music to song 120*
  5: 0x0161 [0x9A] WAIT_MUSIC_SERVER()
  6: 0x0162 [0x00] END_REQSTACK()
```
