# Event 65535

## Metadata

| Field           | Value    |
|-----------------|----------|
| Event Index     | 10/10    |
| Offset          | 0x035F   |
| Data Size       | 79 bytes |
| Calculated Size | 79 bytes |
| Instructions    | 7        |

```
      00 01 02 03 04 05 06 07  08 09 0A 0B 0C 0D 0E 0F
      -- -- -- -- -- -- -- --  -- -- -- -- -- -- -- --
0350:                                               BA                 .
0360: 4F B3 05 01 44 80 45 80  46 80 47 80 BA 50 B3 05  O...D.E.F.G..P..
0370: 01 48 80 49 80 41 80 4A  80 BA 4E B3 05 01 4B 80  .H.I.A.J..N...K.
0380: 4C 80 4D 80 01 80 BA 51  B3 05 01 4E 80 4F 80 50  L.M....Q...N.O.P
0390: 80 51 80 BA 52 B3 05 01  52 80 53 80 54 80 4A 80  .Q..R...R.S.T.J.
03A0: BA 53 B3 05 01 55 80 56  80 57 80 4A 80 00        .S...U.V.W.J..  
```

## Opcodes

```
  0: 0x035F [0xBA] SET_ENTITY_POSITION(entity_id=Abenzio (ID: 17150799/0x0105B34F), pos_x=116.258*, pos_z=-392.004*, pos_y=24.842*, direction=91.1°*)
  1: 0x036C [0xBA] SET_ENTITY_POSITION(entity_id=Bryher (ID: 17150800/0x0105B350), pos_x=122.361*, pos_z=-399.259*, pos_y=24.648*, direction=33.7°*)
  2: 0x0379 [0xBA] SET_ENTITY_POSITION(entity_id=Babban Ny Mheillea (ID: 17150798/0x0105B34E), pos_x=114.963*, pos_z=-395.555*, pos_y=24.753*, direction=0.0°*)
  3: 0x0386 [0xBA] SET_ENTITY_POSITION(entity_id=Camlin (ID: 17150801/0x0105B351), pos_x=131.494*, pos_z=-413.421*, pos_y=24.234*, direction=136.8°*)
  4: 0x0393 [0xBA] SET_ENTITY_POSITION(entity_id=Darach (ID: 17150802/0x0105B352), pos_x=118.217*, pos_z=-402.408*, pos_y=24.620*, direction=33.7°*)
  5: 0x03A0 [0xBA] SET_ENTITY_POSITION(entity_id=Unnamed NPC (ID: 17150803/0x0105B353), pos_x=115.533*, pos_z=-395.277*, pos_y=24.737*, direction=33.7°*)
  6: 0x03AD [0x00] END_REQSTACK()
```
