# Event 65535

## Metadata

| Field           | Value    |
|-----------------|----------|
| Event Index     | 52/57    |
| Offset          | 0x05CC   |
| Data Size       | 58 bytes |
| Calculated Size | 58 bytes |
| Instructions    | 11       |

```
      00 01 02 03 04 05 06 07  08 09 0A 0B 0C 0D 0E 0F
      -- -- -- -- -- -- -- --  -- -- -- -- -- -- -- --
05C0:                                      32 16 80 79              2..y
05D0: 00 3E 60 0F 01 28 60 0F  01 1F 00 5C 80 5D 80 0A  .>`..(`....\.]..
05E0: 80 1F 01 6F 1C 24 80 4A  3E 60 0F 01 28 60 0F 01  ...o.$.J>`..(`..
05F0: 6F 76 3E 60 0F 01 66 5E  80 3E 60 0F 01 3E 60 0F  ov>`..f^.>`..>`.
0600: 01 74 6C 6B 30 00                                 .tlk0.          
```

## Opcodes

```
  0: 0x05CC [0x32] ExtData[1]->MainSpeed = 13* * 0.1
  1: 0x05CF [0x79] Leffquen (ID: 17784894/0x010F603E) looks at Ramicharaux (ID: 17784872/0x010F6028) (Basic look)
  2: 0x05D9 [0x1F] MOVE_ENTITY: EventEntity moves to X=-52.055*, Z=2.177*, Y=0.000*
  3: 0x05E1 [0x1F] MOVE_ENTITY: Update entity position (mode=1)
  4: 0x05E3 [0x6F] WAIT_FRAME_DELAY: Yield until WaitTime reaches zero
  5: 0x05E4 [0x1C] WAIT(15* ticks)
  6: 0x05E7 [0x4A] Leffquen (ID: 17784894/0x010F603E) looks at Ramicharaux (ID: 17784872/0x010F6028)
  7: 0x05F0 [0x6F] WAIT_FRAME_DELAY: Yield until WaitTime reaches zero
  8: 0x05F1 [0x76] CHECK_ENTITY_RENDER_FLAGS: Wait until Leffquen (ID: 17784894/0x010F603E) Render.Flags0 and Render.Flags3 conditions are met
  9: 0x05F6 [0x66] LOAD_EXT_SCHEDULER_MAIN(work_offset=19*, entity1=Leffquen (ID: 17784894/0x010F603E), entity2=Leffquen (ID: 17784894/0x010F603E), action="tlk0")
 10: 0x0605 [0x00] END_REQSTACK()
```
