# Event 65535

## Metadata

| Field           | Value    |
|-----------------|----------|
| Event Index     | 56/57    |
| Offset          | 0x0667   |
| Data Size       | 58 bytes |
| Calculated Size | 58 bytes |
| Instructions    | 12       |

```
      00 01 02 03 04 05 06 07  08 09 0A 0B 0C 0D 0E 0F
      -- -- -- -- -- -- -- --  -- -- -- -- -- -- -- --
0660:                      5B  00 80 F8 FF FF 7F F8 FF         [........
0670: FF 7F 74 68 6B 31 1C 65  80 5B 00 80 F8 FF FF 7F  ..thk1.e.[......
0680: F8 FF FF 7F 74 68 6B 32  1C 05 80 39 0A 80 6F 70  ....thk2...9..op
0690: 1C 2F 80 32 36 80 1F 00  62 80 60 80 0A 80 1F 01  ./.26...b.`.....
06A0: 00                                                .               
```

## Opcodes

```
  0: 0x0667 [0x5B] LOAD_EXT_SCHEDULER(work_offset=75*, entity1=EventEntity, entity2=EventEntity, action="thk1")
  1: 0x0676 [0x1C] WAIT(180* ticks)
  2: 0x0679 [0x5B] LOAD_EXT_SCHEDULER(work_offset=75*, entity1=EventEntity, entity2=EventEntity, action="thk2")
  3: 0x0688 [0x1C] WAIT(60* ticks)
  4: 0x068B [0x39] SET_ENTITY_DIRECTION(direction=0.0°*)
  5: 0x068E [0x6F] WAIT_FRAME_DELAY: Yield until WaitTime reaches zero
  6: 0x068F [0x70] WAIT_ENTITY_RENDER_FLAG: Wait while EventEntity->Render.Flags3 bit 2 is set (cancel turn if not)
  7: 0x0690 [0x1C] WAIT(10* ticks)
  8: 0x0693 [0x32] ExtData[1]->MainSpeed = 40* * 0.1
  9: 0x0696 [0x1F] MOVE_ENTITY: EventEntity moves to X=-62.000*, Z=-4.000*, Y=0.000*
 10: 0x069E [0x1F] MOVE_ENTITY: Update entity position (mode=1)
 11: 0x06A0 [0x00] END_REQSTACK()
```
