# Event 311

## Metadata

| Field           | Value    |
|-----------------|----------|
| Event Index     | 6/19     |
| Offset          | 0x0063   |
| Data Size       | 59 bytes |
| Calculated Size | 59 bytes |
| Instructions    | 11       |

```
      00 01 02 03 04 05 06 07  08 09 0A 0B 0C 0D 0E 0F
      -- -- -- -- -- -- -- --  -- -- -- -- -- -- -- --
0060:          42 1E F0 FF FF  7F 6F 70 5B 08 80 F8 FF     B.....op[....
0070: FF 7F F8 FF FF 7F 70 61  73 30 1D 0F 80 23 53 F8  ......pas0...#S.
0080: FF FF 7F F8 FF FF 7F 70  61 73 30 45 10 80 F0 FF  .......pas0E....
0090: FF 7F F0 FF FF 7F 71 73  74 63 11 80 21 00        ......qstc..!.  
```

## Opcodes

```
  0: 0x0063 [0x42] SET_CLI_EVENT_CANCEL_DATA()
  1: 0x0064 [0x1E] EventEntity looks at LocalPlayer and starts talking
  2: 0x0069 [0x6F] WAIT_FRAME_DELAY: Yield until WaitTime reaches zero
  3: 0x006A [0x70] WAIT_ENTITY_RENDER_FLAG: Wait while EventEntity->Render.Flags3 bit 2 is set (cancel turn if not)
  4: 0x006B [0x5B] LOAD_EXT_SCHEDULER: Load scheduler "pas0" with entities [EventEntity, EventEntity], work=80*
  5: 0x007A [0x1D] PRINT_EVENT_MESSAGE(message_id=7703*)
    → "See, what did I tell you? You look marvelous, darling.\u0007And you should put these on, too. Wear them, they're yours!\u007F1\u0000\u0007"
  6: 0x007D [0x23] WAIT_FOR_DIALOG_INTERACTION
  7: 0x007E [0x53] WAIT_SCHEDULER_TASK: Wait for scheduler "pas0" with entities [EventEntity, EventEntity]
  8: 0x008B [0x45] LOAD_SCHEDULED_TASK: Load scheduler "qstc" with entities [LocalPlayer, LocalPlayer], work=[201*, 0*]
  9: 0x009C [0x21] END_EVENT
 10: 0x009D [0x00] END_REQSTACK()
```
