# Event 65535

## Metadata

| Field           | Value    |
|-----------------|----------|
| Event Index     | 5/18     |
| Offset          | 0x002F   |
| Data Size       | 53 bytes |
| Calculated Size | 53 bytes |
| Instructions    | 11       |

```
      00 01 02 03 04 05 06 07  08 09 0A 0B 0C 0D 0E 0F
      -- -- -- -- -- -- -- --  -- -- -- -- -- -- -- --
0020:                                               32                 2
0030: 00 80 1F 00 06 80 07 80  08 80 1F 01 6F 1E 9E F3  ............o...
0040: 05 01 6F 76 F8 FF FF 7F  5B 05 80 F8 FF FF 7F F8  ..ov....[.......
0050: FF FF 7F 6B 6F 75 30 1C  00 80 4A 9E F3 05 01 86  ...kou0...J.....
0060: F3 05 01 00                                       ....            
```

## Opcodes

```
  0: 0x002F [0x32] ExtData[1]->MainSpeed = 40* * 0.1
  1: 0x0032 [0x1F] MOVE_ENTITY: EventEntity moves to X=-37.983*, Z=131.537*, Y=-16.000*
  2: 0x003A [0x1F] MOVE_ENTITY: Update entity position (mode=1)
  3: 0x003C [0x6F] WAIT_FRAME_DELAY: Yield until WaitTime reaches zero
  4: 0x003D [0x1E] EventEntity looks at Star Sibyl (ID: 17167262/0x0105F39E) and starts talking
  5: 0x0042 [0x6F] WAIT_FRAME_DELAY: Yield until WaitTime reaches zero
  6: 0x0043 [0x76] CHECK_ENTITY_RENDER_FLAGS: Wait until EventEntity Render.Flags0 and Render.Flags3 conditions are met
  7: 0x0048 [0x5B] LOAD_EXT_SCHEDULER(work_offset=85*, entity1=EventEntity, entity2=EventEntity, action="kou0")
  8: 0x0057 [0x1C] WAIT(40* ticks)
  9: 0x005A [0x4A] Star Sibyl (ID: 17167262/0x0105F39E) looks at mith1 (ID: 17167238/0x0105F386)
 10: 0x0063 [0x00] END_REQSTACK()
```
