# 17220239

## Common Data

| Field            | Value                         |
|------------------|-------------------------------|
| Zone             | Konschtat Highlands (ID: 108) |
| Block Size       | 1096 bytes                    |
| Total Events     | 3                             |
| References Count | 37                            |

## List of Events

| Event ID              | Entrypoint   |   Size |   Instructions |
|-----------------------|--------------|--------|----------------|
| [65535](#event-65535) | 0x0000       |      1 |              1 |
| [6](#event-6)         | 0x0001       |    487 |             55 |
| [7](#event-7)         | 0x01E8       |    429 |             49 |

## DAT References (imed_data)

|   Index | Hex Value   |   Dec Value |
|---------|-------------|-------------|
|       0 | 0x00C8      |         200 |
|       1 | 0x0000      |           0 |
|       2 | 0x001B      |          27 |
|       3 | 0x354ED     |      218349 |
|       4 | 0x1FEE1     |      130785 |
|       5 | 0x4C93      |       19603 |
|       6 | 0x0C06      |        3078 |
|       7 | 0x3616E     |      221550 |
|       8 | 0x21917     |      137495 |
|       9 | 0x4AA0      |       19104 |
|      10 | 0x0B1C      |        2844 |
|      11 | 0x02FE      |         766 |
|      12 | 0x000F      |          15 |
|      13 | 0x003C      |          60 |
|      14 | 0x2F45      |       12101 |
|      15 | 0x0F16      |        3862 |
|      16 | 0x2F46      |       12102 |
|      17 | 0x0082      |         130 |
|      18 | 0x001E      |          30 |
|      19 | 0x004B      |          75 |
|      20 | 0x00C9      |         201 |
|      21 | 0x0080      |         128 |
|      22 | 0x0001      |           1 |
|      23 | 0x35B60     |      220000 |
|      24 | 0x222E0     |      140000 |
|      25 | 0x3EE8      |       16104 |
|      26 | 0x35B7E     |      220030 |
|      27 | 0x218DD     |      137437 |
|      28 | 0x4A9F      |       19103 |
|      29 | 0x0A46      |        2630 |
|      30 | 0x0096      |         150 |
|      31 | 0x35B31     |      219953 |
|      32 | 0x21521     |      136481 |
|      33 | 0x0C0A      |        3082 |
|      34 | 0x0078      |         120 |
|      35 | 0x2F47      |       12103 |
|      36 | 0x00B4      |         180 |

## String References

- **12103**: Meet...Altana...

## Events

### Event 65535

#### Metadata

| Field        | Value   |
|--------------|---------|
| Entrypoint   | 0x0000  |
| Data Size    | 1 bytes |
| Instructions | 1       |

```
      00 01 02 03 04 05 06 07  08 09 0A 0B 0C 0D 0E 0F
      -- -- -- -- -- -- -- --  -- -- -- -- -- -- -- --
0000: 00                                                .               
```

#### Opcodes

```
  0: 0x0000 [0x00] END_REQSTACK()
```

### Event 6

#### Metadata

| Field        | Value     |
|--------------|-----------|
| Entrypoint   | 0x0001    |
| Data Size    | 487 bytes |
| Instructions | 55        |

```
      00 01 02 03 04 05 06 07  08 09 0A 0B 0C 0D 0E 0F
      -- -- -- -- -- -- -- --  -- -- -- -- -- -- -- --
0000:    42 03 00 00 02 10 45  00 80 F8 FF FF 7F F8 FF   B.....E........
0010: FF 7F 66 64 6F 31 01 80  55 00 80 F8 FF FF 7F F8  ..fdo1..U.......
0020: FF FF 7F 66 64 6F 31 46  01 38 02 80 2F 00 7A C2  ...fdo1F.8../.z.
0030: 06 01 4E 00 7A C2 06 01  92 01 7A C2 06 01 94 01  ..N.z.....z.....
0040: 7A C2 06 01 94 01 F0 FF  FF 7F BA 7A C2 06 01 03  z..........z....
0050: 80 04 80 05 80 06 80 BA  F0 FF FF 7F 07 80 08 80  ................
0060: 09 80 0A 80 80 7A C2 06  01 80 F0 FF FF 7F 27 05  .....z........'.
0070: 7A C2 06 01 12 45 0B 80  F8 FF FF 7F F8 FF FF 7F  z....E..........
0080: 73 30 30 34 01 80 1C 0C  80 45 00 80 F8 FF FF 7F  s004.....E......
0090: F8 FF FF 7F 66 64 69 31  01 80 1C 0D 80 4A F0 FF  ....fdi1.....J..
00A0: FF 7F 7A C2 06 01 2B 7A  C2 06 01 0E 80 23 2A 05  ..z...+z.....#*.
00B0: 7A C2 06 01 52 0B 80 F8  FF FF 7F F8 FF FF 7F 73  z...R..........s
00C0: 30 30 34 45 0B 80 F8 FF  FF 7F F8 FF FF 7F 73 30  004E..........s0
00D0: 30 35 01 80 5B 0F 80 7A  C2 06 01 7A C2 06 01 79  05..[..z...z...y
00E0: 65 73 30 2B 7A C2 06 01  10 80 1C 11 80 23 52 0B  es0+z........#R.
00F0: 80 F8 FF FF 7F F8 FF FF  7F 73 30 30 35 45 0B 80  .........s005E..
0100: F8 FF FF 7F F8 FF FF 7F  73 30 30 36 01 80 27 05  ........s006..'.
0110: 7A C2 06 01 13 1C 12 80  29 05 F0 FF FF 7F 1E 1C  z.......).......
0120: 12 80 9F 13 80 F0 FF FF  7F F0 FF FF 7F 6D 61 69  .............mai
0130: 6E 01 80 1C 12 80 9F 13  80 7A C2 06 01 7A C2 06  n........z...z..
0140: 01 6D 61 69 6E 01 80 1C  0D 80 92 01 F0 FF FF 7F  .main...........
0150: 1C 0D 80 45 14 80 F8 FF  FF 7F F8 FF FF 7F 77 68  ...E..........wh
0160: 6F 31 01 80 55 14 80 F8  FF FF 7F F8 FF FF 7F 77  o1..U..........w
0170: 68 6F 31 45 00 80 F8 FF  FF 7F F8 FF FF 7F 66 64  ho1E..........fd
0180: 6F 31 01 80 55 00 80 F8  FF FF 7F F8 FF FF 7F 66  o1..U..........f
0190: 64 6F 31 52 0B 80 F8 FF  FF 7F F8 FF FF 7F 73 30  do1R..........s0
01A0: 30 36 6C F0 FF FF 7F 15  80 16 80 45 14 80 F8 FF  06l........E....
01B0: FF 7F F8 FF FF 7F 77 68  69 30 01 80 55 14 80 F8  ......whi0..U...
01C0: FF FF 7F F8 FF FF 7F 77  68 69 30 46 00 02 00 00  .......whi0F....
01D0: 16 80 00 E6 01 45 00 80  F8 FF FF 7F F8 FF FF 7F  .....E..........
01E0: 66 64 69 32 01 80 21 00                           fdi2..!.        
```

#### Opcodes

```
  0: 0x0001 [0x42] SET_CLI_EVENT_CANCEL_DATA()
  1: 0x0002 [0x03] ExtData[1]->WorkLocal[0] = Work_Zone[2]
  2: 0x0007 [0x45] LOAD_SCHEDULED_TASK: Load scheduler "fdo1" with entities [EventEntity, EventEntity], work=[200*, 0*]
  3: 0x0018 [0x55] WAIT_LOAD_SCHEDULER: Wait for scheduler "fdo1" with entities [EventEntity, EventEntity], work=200*
  4: 0x0027 [0x46] CAMERA_CONTROL: Disable user control
  5: 0x0029 [0x38] SET_CLIENT_EVENT_MODE(mode=27*)
  6: 0x002C [0x2F] Iroha (ID: 17220218/0x0106C27A)->Render.Flags0 &= ~0x80000 // Bit 19
  7: 0x0032 [0x4E] SET_ENTITY_HIDE_FLAG: Show Iroha (ID: 17220218/0x0106C27A)
  8: 0x0038 [0x92] Iroha (ID: 17220218/0x0106C27A)->Render.Flags3 ^= 0x01
  9: 0x003E [0x94] Iroha (ID: 17220218/0x0106C27A)->Render.Flags3 ^= 0x01
 10: 0x0044 [0x94] LocalPlayer->Render.Flags3 ^= 0x01
 11: 0x004A [0xBA] SET_ENTITY_POSITION(entity_id=Iroha (ID: 17220218/0x0106C27A), pos_x=218.349*, pos_z=130.785*, pos_y=19.603*, direction=270.5°*)
 12: 0x0057 [0xBA] SET_ENTITY_POSITION(entity_id=LocalPlayer, pos_x=221.550*, pos_z=137.495*, pos_y=19.104*, direction=250.0°*)
 13: 0x0064 [0x80] LOAD_WAIT(entity=Iroha (ID: 17220218/0x0106C27A))
 14: 0x0069 [0x80] LOAD_WAIT(entity=LocalPlayer)
 15: 0x006E [0x27] REQ_SET(priority=0x05, entity_id=Iroha (ID: 17220218/0x0106C27A), tag_num=0x12)
 16: 0x0075 [0x45] LOAD_SCHEDULED_TASK: Load scheduler "s004" with entities [EventEntity, EventEntity], work=[766*, 0*]
 17: 0x0086 [0x1C] WAIT(15* ticks)
 18: 0x0089 [0x45] LOAD_SCHEDULED_TASK: Load scheduler "fdi1" with entities [EventEntity, EventEntity], work=[200*, 0*]
 19: 0x009A [0x1C] WAIT(60* ticks)
 20: 0x009D [0x4A] LocalPlayer looks at Iroha (ID: 17220218/0x0106C27A)
 21: 0x00A6 [0x2B] Iroha (ID: 17220218/0x0106C27A) [12101*]:
    → "Ah, Master. Excellent timing."
 22: 0x00AD [0x23] WAIT_FOR_DIALOG_INTERACTION
 23: 0x00AE [0x2A] GET_REQ_LEVEL(level=5, entity_id=Iroha (ID: 17220218/0x0106C27A))
 24: 0x00B4 [0x52] END_LOAD_SCHEDULER: End scheduler "s004" with entities [EventEntity, EventEntity], work=766*
 25: 0x00C3 [0x45] LOAD_SCHEDULED_TASK: Load scheduler "s005" with entities [EventEntity, EventEntity], work=[766*, 0*]
 26: 0x00D4 [0x5B] LOAD_EXT_SCHEDULER: Load scheduler "yes0" with entities [Iroha (ID: 17220218/0x0106C27A), Iroha (ID: 17220218/0x0106C27A)], work=3862*
 27: 0x00E3 [0x2B] Iroha (ID: 17220218/0x0106C27A) [12102*]:
    → "Come! To the world of the gods!"
 28: 0x00EA [0x1C] WAIT(130* ticks)
 29: 0x00ED [0x23] WAIT_FOR_DIALOG_INTERACTION
 30: 0x00EE [0x52] END_LOAD_SCHEDULER: End scheduler "s005" with entities [EventEntity, EventEntity], work=766*
 31: 0x00FD [0x45] LOAD_SCHEDULED_TASK: Load scheduler "s006" with entities [EventEntity, EventEntity], work=[766*, 0*]
 32: 0x010E [0x27] REQ_SET(priority=0x05, entity_id=Iroha (ID: 17220218/0x0106C27A), tag_num=0x13)
 33: 0x0115 [0x1C] WAIT(30* ticks)
 34: 0x0118 [0x29] REQ_SET_WAIT(priority=0x05, entity_id=LocalPlayer, tag_num=0x1E)
 35: 0x011F [0x1C] WAIT(30* ticks)
 36: 0x0122 [0x9F] LOAD_SCHEDULED_TASK_ALT: Load scheduler "main" with entities [LocalPlayer, LocalPlayer], work=[75*, 0*]
 37: 0x0133 [0x1C] WAIT(30* ticks)
 38: 0x0136 [0x9F] LOAD_SCHEDULED_TASK_ALT: Load scheduler "main" with entities [Iroha (ID: 17220218/0x0106C27A), Iroha (ID: 17220218/0x0106C27A)], work=[75*, 0*]
 39: 0x0147 [0x1C] WAIT(60* ticks)
 40: 0x014A [0x92] LocalPlayer->Render.Flags3 ^= 0x01
 41: 0x0150 [0x1C] WAIT(60* ticks)
 42: 0x0153 [0x45] LOAD_SCHEDULED_TASK: Load scheduler "who1" with entities [EventEntity, EventEntity], work=[201*, 0*]
 43: 0x0164 [0x55] WAIT_LOAD_SCHEDULER: Wait for scheduler "who1" with entities [EventEntity, EventEntity], work=201*
 44: 0x0173 [0x45] LOAD_SCHEDULED_TASK: Load scheduler "fdo1" with entities [EventEntity, EventEntity], work=[200*, 0*]
 45: 0x0184 [0x55] WAIT_LOAD_SCHEDULER: Wait for scheduler "fdo1" with entities [EventEntity, EventEntity], work=200*
 46: 0x0193 [0x52] END_LOAD_SCHEDULER: End scheduler "s006" with entities [EventEntity, EventEntity], work=766*
 47: 0x01A2 [0x6C] FADE_ENTITY_COLOR(entity_id=LocalPlayer, end_alpha=128*, fade_time=1*)
 48: 0x01AB [0x45] LOAD_SCHEDULED_TASK: Load scheduler "whi0" with entities [EventEntity, EventEntity], work=[201*, 0*]
 49: 0x01BC [0x55] WAIT_LOAD_SCHEDULER: Wait for scheduler "whi0" with entities [EventEntity, EventEntity], work=201*
 50: 0x01CB [0x46] CAMERA_CONTROL: Restore default settings
 51: 0x01CD [0x02] IF !(ExtData[1]->WorkLocal[0] == 1*) GOTO 0x01E6
 52: 0x01D5 [0x45] LOAD_SCHEDULED_TASK: Load scheduler "fdi2" with entities [EventEntity, EventEntity], work=[200*, 0*]
 53: 0x01E6 [0x21] END_EVENT
 54: 0x01E7 [0x00] END_REQSTACK()
```

### Event 7

#### Metadata

| Field        | Value     |
|--------------|-----------|
| Entrypoint   | 0x01E8    |
| Data Size    | 429 bytes |
| Instructions | 49        |

```
      00 01 02 03 04 05 06 07  08 09 0A 0B 0C 0D 0E 0F
      -- -- -- -- -- -- -- --  -- -- -- -- -- -- -- --
01E0:                          42 45 00 80 F0 FF FF 7F          BE......
01F0: F0 FF FF 7F 66 64 6F 31  01 80 55 00 80 F0 FF FF  ....fdo1..U.....
0200: 7F F0 FF FF 7F 66 64 6F  31 46 01 38 02 80 4E 00  .....fdo1F.8..N.
0210: F0 FF FF 7F 22 00 94 01  F0 FF FF 7F 33 01 37 17  ....".......3.7.
0220: 80 18 80 19 80 01 80 BA  F0 FF FF 7F 1A 80 1B 80  ................
0230: 1C 80 1D 80 80 F0 FF FF  7F 80 F8 FF FF 7F 1C 12  ................
0240: 80 2C F0 FF FF 7F F0 FF  FF 7F 63 6F 72 70 1C 12  .,........corp..
0250: 80 45 0B 80 F8 FF FF 7F  F8 FF FF 7F 73 30 33 38  .E..........s038
0260: 01 80 1C 0C 80 45 00 80  F0 FF FF 7F F0 FF FF 7F  .....E..........
0270: 66 64 69 31 01 80 1C 1E  80 45 00 80 F0 FF FF 7F  fdi1.....E......
0280: F0 FF FF 7F 6F 76 6C 31  01 80 52 0B 80 F8 FF FF  ....ovl1..R.....
0290: 7F F8 FF FF 7F 73 30 33  38 45 0B 80 F8 FF FF 7F  .....s038E......
02A0: F8 FF FF 7F 73 30 33 39  01 80 1C 12 80 6B 69 64  ....s039.....kid
02B0: 6C 30 F0 FF FF 7F BA F0  FF FF 7F 1F 80 20 80 1C  l0........... ..
02C0: 80 21 80 27 05 F0 FF FF  7F 0C 1C 22 80 2A 05 F0  .!.'.......".*..
02D0: FF FF 7F 52 0B 80 F8 FF  FF 7F F8 FF FF 7F 73 30  ...R..........s0
02E0: 33 39 45 0B 80 F8 FF FF  7F F8 FF FF 7F 73 30 34  39E..........s04
02F0: 30 01 80 27 05 F0 FF FF  7F 0D 1C 1E 80 52 0B 80  0..'.........R..
0300: F8 FF FF 7F F8 FF FF 7F  73 30 34 30 45 0B 80 F8  ........s040E...
0310: FF FF 7F F8 FF FF 7F 73  31 32 31 01 80 79 00 F0  .......s121..y..
0320: FF FF 7F F8 FF FF 7F 1D  23 80 23 1C 22 80 52 0B  ........#.#.".R.
0330: 80 F8 FF FF 7F F8 FF FF  7F 73 31 32 31 45 0B 80  .........s121E..
0340: F8 FF FF 7F F8 FF FF 7F  73 31 32 32 01 80 1C 24  ........s122...$
0350: 80 45 00 80 F0 FF FF 7F  F0 FF FF 7F 66 64 6F 31  .E..........fdo1
0360: 01 80 55 00 80 F0 FF FF  7F F0 FF FF 7F 66 64 6F  ..U..........fdo
0370: 31 52 0B 80 F8 FF FF 7F  F8 FF FF 7F 73 31 32 32  1R..........s122
0380: 46 00 45 00 80 F0 FF FF  7F F0 FF FF 7F 66 64 69  F.E..........fdi
0390: 32 01 80 21 00                                    2..!.           
```

#### Opcodes

```
  0: 0x01E8 [0x42] SET_CLI_EVENT_CANCEL_DATA()
  1: 0x01E9 [0x45] LOAD_SCHEDULED_TASK: Load scheduler "fdo1" with entities [LocalPlayer, LocalPlayer], work=[200*, 0*]
  2: 0x01FA [0x55] WAIT_LOAD_SCHEDULER: Wait for scheduler "fdo1" with entities [LocalPlayer, LocalPlayer], work=200*
  3: 0x0209 [0x46] CAMERA_CONTROL: Disable user control
  4: 0x020B [0x38] SET_CLIENT_EVENT_MODE(mode=27*)
  5: 0x020E [0x4E] SET_ENTITY_HIDE_FLAG: Show LocalPlayer
  6: 0x0214 [0x22] ENTITY_HIDE_FLAG(enabled=0x00)
  7: 0x0216 [0x94] LocalPlayer->Render.Flags3 ^= 0x01
  8: 0x021C [0x33] EventEntity->Render.Flags0 |= 0x200000 // Bit 21 (flag=0x01)
  9: 0x021E [0x37] UPDATE_EVENT_POSITION_AND_DIR: x=220.000*, z=140.000*, y=16.104*, direction=0.0°*
 10: 0x0227 [0xBA] SET_ENTITY_POSITION(entity_id=LocalPlayer, pos_x=220.030*, pos_z=137.437*, pos_y=19.103*, direction=231.1°*)
 11: 0x0234 [0x80] LOAD_WAIT(entity=LocalPlayer)
 12: 0x0239 [0x80] LOAD_WAIT(entity=EventEntity)
 13: 0x023E [0x1C] WAIT(30* ticks)
 14: 0x0241 [0x2C] CREATE_SCHEDULER_TASK: Create scheduler "corp" with entities [LocalPlayer, LocalPlayer]
 15: 0x024E [0x1C] WAIT(30* ticks)
 16: 0x0251 [0x45] LOAD_SCHEDULED_TASK: Load scheduler "s038" with entities [EventEntity, EventEntity], work=[766*, 0*]
 17: 0x0262 [0x1C] WAIT(15* ticks)
 18: 0x0265 [0x45] LOAD_SCHEDULED_TASK: Load scheduler "fdi1" with entities [LocalPlayer, LocalPlayer], work=[200*, 0*]
 19: 0x0276 [0x1C] WAIT(150* ticks)
 20: 0x0279 [0x45] LOAD_SCHEDULED_TASK: Load scheduler "ovl1" with entities [LocalPlayer, LocalPlayer], work=[200*, 0*]
 21: 0x028A [0x52] END_LOAD_SCHEDULER: End scheduler "s038" with entities [EventEntity, EventEntity], work=766*
 22: 0x0299 [0x45] LOAD_SCHEDULED_TASK: Load scheduler "s039" with entities [EventEntity, EventEntity], work=[766*, 0*]
 23: 0x02AA [0x1C] WAIT(30* ticks)
 24: 0x02AD [0x6B] STOP_AND_IDLE: LocalPlayer stops current action and resets to idle (animation="idl0")
 25: 0x02B6 [0xBA] SET_ENTITY_POSITION(entity_id=LocalPlayer, pos_x=219.953*, pos_z=136.481*, pos_y=19.103*, direction=270.9°*)
 26: 0x02C3 [0x27] REQ_SET(priority=0x05, entity_id=LocalPlayer, tag_num=0x0C)
 27: 0x02CA [0x1C] WAIT(120* ticks)
 28: 0x02CD [0x2A] GET_REQ_LEVEL(level=5, entity_id=LocalPlayer)
 29: 0x02D3 [0x52] END_LOAD_SCHEDULER: End scheduler "s039" with entities [EventEntity, EventEntity], work=766*
 30: 0x02E2 [0x45] LOAD_SCHEDULED_TASK: Load scheduler "s040" with entities [EventEntity, EventEntity], work=[766*, 0*]
 31: 0x02F3 [0x27] REQ_SET(priority=0x05, entity_id=LocalPlayer, tag_num=0x0D)
 32: 0x02FA [0x1C] WAIT(150* ticks)
 33: 0x02FD [0x52] END_LOAD_SCHEDULER: End scheduler "s040" with entities [EventEntity, EventEntity], work=766*
 34: 0x030C [0x45] LOAD_SCHEDULED_TASK: Load scheduler "s121" with entities [EventEntity, EventEntity], work=[766*, 0*]
 35: 0x031D [0x79] LocalPlayer looks at EventEntity (Basic look)
 36: 0x0327 [0x1D] PRINT_EVENT_MESSAGE(message_id=12103*)
    → "Meet...Altana..."
 37: 0x032A [0x23] WAIT_FOR_DIALOG_INTERACTION
 38: 0x032B [0x1C] WAIT(120* ticks)
 39: 0x032E [0x52] END_LOAD_SCHEDULER: End scheduler "s121" with entities [EventEntity, EventEntity], work=766*
 40: 0x033D [0x45] LOAD_SCHEDULED_TASK: Load scheduler "s122" with entities [EventEntity, EventEntity], work=[766*, 0*]
 41: 0x034E [0x1C] WAIT(180* ticks)
 42: 0x0351 [0x45] LOAD_SCHEDULED_TASK: Load scheduler "fdo1" with entities [LocalPlayer, LocalPlayer], work=[200*, 0*]
 43: 0x0362 [0x55] WAIT_LOAD_SCHEDULER: Wait for scheduler "fdo1" with entities [LocalPlayer, LocalPlayer], work=200*
 44: 0x0371 [0x52] END_LOAD_SCHEDULER: End scheduler "s122" with entities [EventEntity, EventEntity], work=766*
 45: 0x0380 [0x46] CAMERA_CONTROL: Restore default settings
 46: 0x0382 [0x45] LOAD_SCHEDULED_TASK: Load scheduler "fdi2" with entities [LocalPlayer, LocalPlayer], work=[200*, 0*]
 47: 0x0393 [0x21] END_EVENT
 48: 0x0394 [0x00] END_REQSTACK()
```
