# 17220204

## Common Data

| Field            | Value                         |
|------------------|-------------------------------|
| Zone             | Konschtat Highlands (ID: 108) |
| Block Size       | 3480 bytes                    |
| Total Events     | 3                             |
| References Count | 98                            |

## List of Events

| Event ID              | Entrypoint   |   Size |   Instructions |
|-----------------------|--------------|--------|----------------|
| [65535](#event-65535) | 0x0000       |      1 |              1 |
| [0](#event-0)         | 0x0001       |   1407 |            190 |
| [1](#event-1)         | 0x0580       |   1649 |            194 |

## DAT References (imed_data)

|   Index | Hex Value   |   Dec Value |
|---------|-------------|-------------|
|       0 | 0x0013      |          19 |
|       1 | 0x1670F     |       91919 |
|       2 | 0xFFF7243B  |  4294386747 |
|       3 | 0xFFFEF34F  |  4294898511 |
|       4 | 0x0FB0      |        4016 |
|       5 | 0x17163     |       94563 |
|       6 | 0xFFF6E51F  |  4294370591 |
|       7 | 0xFFFEE541  |  4294894913 |
|       8 | 0x0F39      |        3897 |
|       9 | 0x173A7     |       95143 |
|      10 | 0xFFF6F220  |  4294373920 |
|      11 | 0xFFFEE4CC  |  4294894796 |
|      12 | 0x0396      |         918 |
|      13 | 0x15C5E     |       89182 |
|      14 | 0xFFF71BDA  |  4294384602 |
|      15 | 0xFFFE6B2F  |  4294863663 |
|      16 | 0x0634      |        1588 |
|      17 | 0x001E      |          30 |
|      18 | 0x01E8      |         488 |
|      19 | 0x0000      |           0 |
|      20 | 0x0078      |         120 |
|      21 | 0x2AF8      |       11000 |
|      22 | 0x002D      |          45 |
|      23 | 0x2AF9      |       11001 |
|      24 | 0x003C      |          60 |
|      25 | 0x04F7      |        1271 |
|      26 | 0x2AFA      |       11002 |
|      27 | 0x169CE     |       92622 |
|      28 | 0xFFF70FDD  |  4294381533 |
|      29 | 0xFFFEF120  |  4294897952 |
|      30 | 0x0B96      |        2966 |
|      31 | 0x007B      |         123 |
|      32 | 0x0005      |           5 |
|      33 | 0x2AFB      |       11003 |
|      34 | 0x2AFC      |       11004 |
|      35 | 0x2AFD      |       11005 |
|      36 | 0x16610     |       91664 |
|      37 | 0xFFF71B3E  |  4294384446 |
|      38 | 0xFFFEF2BF  |  4294898367 |
|      39 | 0x2AFE      |       11006 |
|      40 | 0x2AFF      |       11007 |
|      41 | 0x2B00      |       11008 |
|      42 | 0x0033      |          51 |
|      43 | 0x2B01      |       11009 |
|      44 | 0x2B02      |       11010 |
|      45 | 0x2B03      |       11011 |
|      46 | 0x2B04      |       11012 |
|      47 | 0x005A      |          90 |
|      48 | 0x2B05      |       11013 |
|      49 | 0x00D5      |         213 |
|      50 | 0x2B06      |       11014 |
|      51 | 0x00FF      |         255 |
|      52 | 0x0001      |           1 |
|      53 | 0x2B07      |       11015 |
|      54 | 0x2B08      |       11016 |
|      55 | 0x2B09      |       11017 |
|      56 | 0x012C      |         300 |
|      57 | 0x2B0A      |       11018 |
|      58 | 0x0014      |          20 |
|      59 | 0x2B0B      |       11019 |
|      60 | 0x2B0C      |       11020 |
|      61 | 0x0007      |           7 |
|      62 | 0x2B0D      |       11021 |
|      63 | 0x00C8      |         200 |
|      64 | 0x166D4     |       91860 |
|      65 | 0xFFF725E5  |  4294387173 |
|      66 | 0xFFFEF369  |  4294898537 |
|      67 | 0x0805      |        2053 |
|      68 | 0x153AE     |       86958 |
|      69 | 0xFFF72638  |  4294387256 |
|      70 | 0xFFFEF6C6  |  4294899398 |
|      71 | 0x0FE9      |        4073 |
|      72 | 0x1645F     |       91231 |
|      73 | 0xFFF725AA  |  4294387114 |
|      74 | 0xFFFEF3E9  |  4294898665 |
|      75 | 0x0050      |          80 |
|      76 | 0x2B0E      |       11022 |
|      77 | 0x0004      |           4 |
|      78 | 0x2B0F      |       11023 |
|      79 | 0x2B10      |       11024 |
|      80 | 0x2B11      |       11025 |
|      81 | 0x000F      |          15 |
|      82 | 0x2B12      |       11026 |
|      83 | 0x2B13      |       11027 |
|      84 | 0x2B14      |       11028 |
|      85 | 0x000A      |          10 |
|      86 | 0x2B15      |       11029 |
|      87 | 0x2B16      |       11030 |
|      88 | 0x2B17      |       11031 |
|      89 | 0x0002      |           2 |
|      90 | 0x0003      |           3 |
|      91 | 0x0006      |           6 |
|      92 | 0x0008      |           8 |
|      93 | 0x2B18      |       11032 |
|      94 | 0x2B19      |       11033 |
|      95 | 0x0024      |          36 |
|      96 | 0x00C9      |         201 |
|      97 | 0x00D7      |         215 |

## Events

### Event 65535

#### Metadata

| Field        | Value   |
|--------------|---------|
| Entrypoint   | 0x0000  |
| Data Size    | 1 bytes |
| Instructions | 1       |

```
      00 01 02 03 04 05 06 07  08 09 0A 0B 0C 0D 0E 0F
      -- -- -- -- -- -- -- --  -- -- -- -- -- -- -- --
0000: 00                                                .               
```

#### Opcodes

```
  0: 0x0000 [0x00] END_REQSTACK()
```

### Event 0

#### Metadata

| Field        | Value      |
|--------------|------------|
| Entrypoint   | 0x0001     |
| Data Size    | 1407 bytes |
| Instructions | 190        |

```
      00 01 02 03 04 05 06 07  08 09 0A 0B 0C 0D 0E 0F
      -- -- -- -- -- -- -- --  -- -- -- -- -- -- -- --
0000:    42 1A C3 09 46 01 38  00 80 27 10 6D C2 06 01   B...F.8..'.m...
0010: 04 27 10 6E C2 06 01 04  4E 00 70 C2 06 01 4E 00  .'.n....N.p...N.
0020: 6F C2 06 01 92 01 6D C2  06 01 94 01 F0 FF FF 7F  o.....m.........
0030: 94 01 6D C2 06 01 94 01  3A C2 06 01 94 01 70 C2  ..m.....:.....p.
0040: 06 01 94 01 6F C2 06 01  94 01 6E C2 06 01 BA F0  ....o.....n.....
0050: FF FF 7F 01 80 02 80 03  80 04 80 BA 6D C2 06 01  ............m...
0060: 05 80 06 80 07 80 08 80  59 05 70 C2 06 01 01 BA  ........Y.p.....
0070: 70 C2 06 01 09 80 0A 80  0B 80 0C 80 59 05 6F C2  p...........Y.o.
0080: 06 01 01 BA 6F C2 06 01  0D 80 0E 80 0F 80 10 80  ....o...........
0090: 59 05 6E C2 06 01 01 BA  6E C2 06 01 0D 80 0E 80  Y.n.....n.......
00A0: 0F 80 10 80 29 10 6E C2  06 01 09 80 F0 FF FF 7F  ....).n.........
00B0: 80 6D C2 06 01 80 3A C2  06 01 80 6E C2 06 01 1C  .m....:....n....
00C0: 11 80 29 10 6D C2 06 01  0C 45 12 80 F0 FF FF 7F  ..).m....E......
00D0: F0 FF FF 7F 36 34 30 30  13 80 1A A2 09 1C 14 80  ....6400........
00E0: 52 12 80 F0 FF FF 7F F0  FF FF 7F 36 34 30 30 45  R..........6400E
00F0: 12 80 F0 FF FF 7F F0 FF  FF 7F 36 34 30 31 13 80  ..........6401..
0100: 1C 11 80 79 00 F0 FF FF  7F 3A C2 06 01 1C 14 80  ...y.....:......
0110: 52 12 80 F0 FF FF 7F F0  FF FF 7F 36 34 30 31 45  R..........6401E
0120: 12 80 F0 FF FF 7F F0 FF  FF 7F 36 34 30 32 13 80  ..........6402..
0130: 1C 11 80 29 10 6D C2 06  01 0A 2B 6D C2 06 01 15  ...).m....+m....
0140: 80 1C 11 80 4A F0 FF FF  7F 6D C2 06 01 6F 76 F0  ....J....m...ov.
0150: FF FF 7F 23 52 12 80 F0  FF FF 7F F0 FF FF 7F 36  ...#R..........6
0160: 34 30 32 45 12 80 F0 FF  FF 7F F0 FF FF 7F 36 34  402E..........64
0170: 30 33 13 80 79 00 6D C2  06 01 70 C2 06 01 1C 16  03..y.m...p.....
0180: 80 2B 6D C2 06 01 17 80  23 66 00 80 6D C2 06 01  .+m.....#f..m...
0190: 6D C2 06 01 73 69 74 31  1C 18 80 52 12 80 F0 FF  m...sit1...R....
01A0: FF 7F F0 FF FF 7F 36 34  30 33 45 12 80 F0 FF FF  ......6403E.....
01B0: 7F F0 FF FF 7F 36 34 30  34 13 80 1C 18 80 4A 6D  .....6404.....Jm
01C0: C2 06 01 F0 FF FF 7F 03  02 10 19 80 2B 6D C2 06  ............+m..
01D0: 01 1A 80 23 1A C3 09 1C  11 80 BA 6D C2 06 01 1B  ...#.......m....
01E0: 80 1C 80 1D 80 1E 80 5C  00 1F 80 5C 01 1F 80 9A  .......\...\....
01F0: 27 10 6D C2 06 01 0E 1C  20 80 52 12 80 F0 FF FF  '.m..... .R.....
0200: 7F F0 FF FF 7F 36 34 30  34 45 12 80 F0 FF FF 7F  .....6404E......
0210: F0 FF FF 7F 36 34 30 35  13 80 1A A2 09 2B 6D C2  ....6405.....+m.
0220: 06 01 21 80 23 2B 6D C2  06 01 22 80 23 52 12 80  ..!.#+m...".#R..
0230: F0 FF FF 7F F0 FF FF 7F  36 34 30 35 45 12 80 F0  ........6405E...
0240: FF FF 7F F0 FF FF 7F 36  34 30 36 13 80 66 00 80  .......6406..f..
0250: 6D C2 06 01 6D C2 06 01  74 6C 6B 30 29 10 6D C2  m...m...tlk0).m.
0260: 06 01 0B 2B 6D C2 06 01  23 80 23 59 05 70 C2 06  ...+m...#.#Y.p..
0270: 01 00 BA 70 C2 06 01 24  80 25 80 26 80 0C 80 66  ...p...$.%.&...f
0280: 00 80 6D C2 06 01 6D C2  06 01 74 6C 6B 31 1C 11  ..m...m...tlk1..
0290: 80 2B 6D C2 06 01 27 80  23 52 12 80 F0 FF FF 7F  .+m...'.#R......
02A0: F0 FF FF 7F 36 34 30 36  45 12 80 F0 FF FF 7F F0  ....6406E.......
02B0: FF FF 7F 36 34 30 37 13  80 5D 13 80 14 80 2B 6D  ...6407..]....+m
02C0: C2 06 01 28 80 23 79 00  6D C2 06 01 70 C2 06 01  ...(.#y.m...p...
02D0: 1C 11 80 2B 6D C2 06 01  29 80 23 5C 00 2A 80 5C  ...+m...).#\.*.\
02E0: 01 2A 80 9A 52 12 80 F0  FF FF 7F F0 FF FF 7F 36  .*..R..........6
02F0: 34 30 37 45 12 80 F0 FF  FF 7F F0 FF FF 7F 36 34  407E..........64
0300: 30 38 13 80 2B 6D C2 06  01 2B 80 23 2B 6D C2 06  08..+m...+.#+m..
0310: 01 2C 80 23 7B 6D C2 06  01 52 12 80 F0 FF FF 7F  .,.#{m...R......
0320: F0 FF FF 7F 36 34 30 38  45 12 80 F0 FF FF 7F F0  ....6408E.......
0330: FF FF 7F 36 34 30 39 13  80 2B 6D C2 06 01 2D 80  ...6409..+m...-.
0340: 23 79 00 6D C2 06 01 70  C2 06 01 1C 11 80 2B 6D  #y.m...p......+m
0350: C2 06 01 2E 80 23 1C 2F  80 52 12 80 F0 FF FF 7F  .....#./.R......
0360: F0 FF FF 7F 36 34 30 39  45 12 80 F0 FF FF 7F F0  ....6409E.......
0370: FF FF 7F 36 34 31 30 13  80 4A 6D C2 06 01 3A C2  ...6410..Jm...:.
0380: 06 01 2B 6D C2 06 01 30  80 1C 11 80 79 00 F0 FF  ..+m...0....y...
0390: FF 7F 3A C2 06 01 1C 18  80 23 C5 31 80 6F C2 06  ..:......#.1.o..
03A0: 01 6F C2 06 01 73 30 30  30 13 80 2B 6D C2 06 01  .o...s000..+m...
03B0: 32 80 23 52 12 80 F0 FF  FF 7F F0 FF FF 7F 36 34  2.#R..........64
03C0: 31 30 45 12 80 F0 FF FF  7F F0 FF FF 7F 36 34 31  10E..........641
03D0: 31 13 80 77 33 80 34 80  AB 09 1C 18 80 2B 6D C2  1..w3.4......+m.
03E0: 06 01 35 80 23 52 12 80  F0 FF FF 7F F0 FF FF 7F  ..5.#R..........
03F0: 36 34 31 31 45 12 80 F0  FF FF 7F F0 FF FF 7F 36  6411E..........6
0400: 34 31 32 13 80 1C 18 80  2B 6D C2 06 01 36 80 23  412.....+m...6.#
0410: 52 12 80 F0 FF FF 7F F0  FF FF 7F 36 34 31 32 45  R..........6412E
0420: 12 80 F0 FF FF 7F F0 FF  FF 7F 36 34 31 33 13 80  ..........6413..
0430: AB 0A 78 1C 18 80 4E 01  6E C2 06 01 C5 31 80 6F  ..x...N.n....1.o
0440: C2 06 01 6F C2 06 01 6B  69 6C 30 13 80 2B 6D C2  ...o...kil0..+m.
0450: 06 01 37 80 23 52 12 80  F0 FF FF 7F F0 FF FF 7F  ..7.#R..........
0460: 36 34 31 33 45 12 80 F0  FF FF 7F F0 FF FF 7F 36  6413E..........6
0470: 34 31 34 13 80 5D 13 80  38 80 4A 6D C2 06 01 F0  414..]..8.Jm....
0480: FF FF 7F 2B 6D C2 06 01  39 80 1C 3A 80 79 00 F0  ...+m...9..:.y..
0490: FF FF 7F 6D C2 06 01 6F  76 6D C2 06 01 23 4E 01  ...m...ovm...#N.
04A0: 6E C2 06 01 C5 31 80 6E  C2 06 01 6E C2 06 01 6B  n....1.n...n...k
04B0: 69 6C 31 13 80 C5 31 80  6F C2 06 01 6F C2 06 01  il1...1.o...o...
04C0: 6B 69 6C 30 13 80 66 00  80 6D C2 06 01 6D C2 06  kil0..f..m...m..
04D0: 01 74 6C 6B 30 2B 6D C2  06 01 3B 80 23 1C 18 80  .tlk0+m...;.#...
04E0: 23 52 12 80 F0 FF FF 7F  F0 FF FF 7F 36 34 31 34  #R..........6414
04F0: 45 12 80 F0 FF FF 7F F0  FF FF 7F 36 34 31 35 13  E..........6415.
0500: 80 66 00 80 6D C2 06 01  6D C2 06 01 74 6C 6B 31  .f..m...m...tlk1
0510: 2B 6D C2 06 01 3C 80 23  53 6D C2 06 01 6D C2 06  +m...<.#Sm...m..
0520: 01 74 6C 6B 31 6E 6D C2  06 01 3D 80 99 6D C2 06  .tlk1nm...=..m..
0530: 01 1C 11 80 2B 6D C2 06  01 3E 80 23 1A C3 09 1C  ....+m...>.#....
0540: 11 80 52 12 80 F0 FF FF  7F F0 FF FF 7F 36 34 31  ..R..........641
0550: 35 45 12 80 F0 FF FF 7F  F0 FF FF 7F 30 62 6C 66  5E..........0blf
0560: 13 80 5C 00 13 80 5C 01  13 80 9A 46 00 45 3F 80  ..\...\....F.E?.
0570: F0 FF FF 7F F0 FF FF 7F  66 64 69 32 13 80 21 00  ........fdi2..!.
```

#### Opcodes

```
  0: 0x0001 [0x42] SET_CLI_EVENT_CANCEL_DATA()
  1: 0x0002 [0x1A] CALL_SUBROUTINE(address=0x09C3)
  2: 0x0005 [0x46] CAMERA_CONTROL: Disable user control
  3: 0x0007 [0x38] SET_CLIENT_EVENT_MODE(mode=19*)
  4: 0x000A [0x27] REQ_SET(priority=0x10, entity_id=Norrah (ID: 17220205/0x0106C26D), tag_num=0x04)
  5: 0x0011 [0x27] REQ_SET(priority=0x10, entity_id=Unnamed NPC (ID: 17220206/0x0106C26E), tag_num=0x04)
  6: 0x0018 [0x4E] SET_ENTITY_HIDE_FLAG: Show Unnamed NPC (ID: 17220208/0x0106C270)
  7: 0x001E [0x4E] SET_ENTITY_HIDE_FLAG: Show ??? (ID: 17220207/0x0106C26F)
  8: 0x0024 [0x92] Norrah (ID: 17220205/0x0106C26D)->Render.Flags3 ^= 0x01
  9: 0x002A [0x94] LocalPlayer->Render.Flags3 ^= 0x01
 10: 0x0030 [0x94] Norrah (ID: 17220205/0x0106C26D)->Render.Flags3 ^= 0x01
 11: 0x0036 [0x94] Cavernous Maw (ID: 17220154/0x0106C23A)->Render.Flags3 ^= 0x01
 12: 0x003C [0x94] Unnamed NPC (ID: 17220208/0x0106C270)->Render.Flags3 ^= 0x01
 13: 0x0042 [0x94] ??? (ID: 17220207/0x0106C26F)->Render.Flags3 ^= 0x01
 14: 0x0048 [0x94] Unnamed NPC (ID: 17220206/0x0106C26E)->Render.Flags3 ^= 0x01
 15: 0x004E [0xBA] SET_ENTITY_POSITION(entity_id=LocalPlayer, pos_x=91.919*, pos_z=-580.549*, pos_y=-68.785*, direction=353.0°*)
 16: 0x005B [0xBA] SET_ENTITY_POSITION(entity_id=Norrah (ID: 17220205/0x0106C26D), pos_x=94.563*, pos_z=-596.705*, pos_y=-72.383*, direction=342.5°*)
 17: 0x0068 [0x59] UPDATE_ENTITY_DATA: Unnamed NPC (ID: 17220208/0x0106C270)->Render.Flags0 |= 0x200000
 18: 0x006F [0xBA] SET_ENTITY_POSITION(entity_id=Unnamed NPC (ID: 17220208/0x0106C270), pos_x=95.143*, pos_z=-593.376*, pos_y=-72.500*, direction=80.7°*)
 19: 0x007C [0x59] UPDATE_ENTITY_DATA: ??? (ID: 17220207/0x0106C26F)->Render.Flags0 |= 0x200000
 20: 0x0083 [0xBA] SET_ENTITY_POSITION(entity_id=??? (ID: 17220207/0x0106C26F), pos_x=89.182*, pos_z=-582.694*, pos_y=-103.633*, direction=139.6°*)
 21: 0x0090 [0x59] UPDATE_ENTITY_DATA: Unnamed NPC (ID: 17220206/0x0106C26E)->Render.Flags0 |= 0x200000
 22: 0x0097 [0xBA] SET_ENTITY_POSITION(entity_id=Unnamed NPC (ID: 17220206/0x0106C26E), pos_x=89.182*, pos_z=-582.694*, pos_y=-103.633*, direction=139.6°*)
 23: 0x00A4 [0x29] REQ_SET_WAIT(priority=0x10, entity_id=Unnamed NPC (ID: 17220206/0x0106C26E), tag_num=0x09)
 24: 0x00AB [0x80] LOAD_WAIT(entity=LocalPlayer)
 25: 0x00B0 [0x80] LOAD_WAIT(entity=Norrah (ID: 17220205/0x0106C26D))
 26: 0x00B5 [0x80] LOAD_WAIT(entity=Cavernous Maw (ID: 17220154/0x0106C23A))
 27: 0x00BA [0x80] LOAD_WAIT(entity=Unnamed NPC (ID: 17220206/0x0106C26E))
 28: 0x00BF [0x1C] WAIT(30* ticks)
 29: 0x00C2 [0x29] REQ_SET_WAIT(priority=0x10, entity_id=Norrah (ID: 17220205/0x0106C26D), tag_num=0x0C)
 30: 0x00C9 [0x45] LOAD_SCHEDULED_TASK: Load scheduler "6400" with entities [LocalPlayer, LocalPlayer], work=[488*, 0*]
 31: 0x00DA [0x1A] CALL_SUBROUTINE(address=0x09A2)
 32: 0x00DD [0x1C] WAIT(120* ticks)
 33: 0x00E0 [0x52] END_LOAD_SCHEDULER: End scheduler "6400" with entities [LocalPlayer, LocalPlayer], work=488*
 34: 0x00EF [0x45] LOAD_SCHEDULED_TASK: Load scheduler "6401" with entities [LocalPlayer, LocalPlayer], work=[488*, 0*]
 35: 0x0100 [0x1C] WAIT(30* ticks)
 36: 0x0103 [0x79] LocalPlayer looks at Cavernous Maw (ID: 17220154/0x0106C23A) (Basic look)
 37: 0x010D [0x1C] WAIT(120* ticks)
 38: 0x0110 [0x52] END_LOAD_SCHEDULER: End scheduler "6401" with entities [LocalPlayer, LocalPlayer], work=488*
 39: 0x011F [0x45] LOAD_SCHEDULED_TASK: Load scheduler "6402" with entities [LocalPlayer, LocalPlayer], work=[488*, 0*]
 40: 0x0130 [0x1C] WAIT(30* ticks)
 41: 0x0133 [0x29] REQ_SET_WAIT(priority=0x10, entity_id=Norrah (ID: 17220205/0x0106C26D), tag_num=0x0A)
 42: 0x013A [0x2B] Norrah (ID: 17220205/0x0106C26D) [11000*]:
    → "I'd keep a wide berth of that cavernous maw if I were you."
 43: 0x0141 [0x1C] WAIT(30* ticks)
 44: 0x0144 [0x4A] LocalPlayer looks at Norrah (ID: 17220205/0x0106C26D)
 45: 0x014D [0x6F] WAIT_FRAME_DELAY: Yield until WaitTime reaches zero
 46: 0x014E [0x76] CHECK_ENTITY_RENDER_FLAGS: Wait until LocalPlayer Render.Flags0 and Render.Flags3 conditions are met
 47: 0x0153 [0x23] WAIT_FOR_DIALOG_INTERACTION
 48: 0x0154 [0x52] END_LOAD_SCHEDULER: End scheduler "6402" with entities [LocalPlayer, LocalPlayer], work=488*
 49: 0x0163 [0x45] LOAD_SCHEDULED_TASK: Load scheduler "6403" with entities [LocalPlayer, LocalPlayer], work=[488*, 0*]
 50: 0x0174 [0x79] Norrah (ID: 17220205/0x0106C26D) looks at Unnamed NPC (ID: 17220208/0x0106C270) (Basic look)
 51: 0x017E [0x1C] WAIT(45* ticks)
 52: 0x0181 [0x2B] Norrah (ID: 17220205/0x0106C26D) [11001*]:
    → "Hm? That thing you're holding..."
 53: 0x0188 [0x23] WAIT_FOR_DIALOG_INTERACTION
 54: 0x0189 [0x66] LOAD_EXT_SCHEDULER_MAIN: Load scheduler "sit1" with entities [Norrah (ID: 17220205/0x0106C26D), Norrah (ID: 17220205/0x0106C26D)], work=19*
 55: 0x0198 [0x1C] WAIT(60* ticks)
 56: 0x019B [0x52] END_LOAD_SCHEDULER: End scheduler "6403" with entities [LocalPlayer, LocalPlayer], work=488*
 57: 0x01AA [0x45] LOAD_SCHEDULED_TASK: Load scheduler "6404" with entities [LocalPlayer, LocalPlayer], work=[488*, 0*]
 58: 0x01BB [0x1C] WAIT(60* ticks)
 59: 0x01BE [0x4A] Norrah (ID: 17220205/0x0106C26D) looks at LocalPlayer
 60: 0x01C7 [0x03] Work_Zone[2] = 1271*
 61: 0x01CC [0x2B] Norrah (ID: 17220205/0x0106C26D) [11002*]:
    → "Is that...$6?"
 62: 0x01D3 [0x23] WAIT_FOR_DIALOG_INTERACTION
 63: 0x01D4 [0x1A] CALL_SUBROUTINE(address=0x09C3)
 64: 0x01D7 [0x1C] WAIT(30* ticks)
 65: 0x01DA [0xBA] SET_ENTITY_POSITION(entity_id=Norrah (ID: 17220205/0x0106C26D), pos_x=92.622*, pos_z=-585.763*, pos_y=-69.344*, direction=260.7°*)
 66: 0x01E7 [0x5C] MUSIC_CONTROL: Set Idle (Day) music to song 123*
 67: 0x01EB [0x5C] MUSIC_CONTROL: Set Idle (Night) music to song 123*
 68: 0x01EF [0x9A] WAIT_MUSIC_SERVER()
 69: 0x01F0 [0x27] REQ_SET(priority=0x10, entity_id=Norrah (ID: 17220205/0x0106C26D), tag_num=0x0E)
 70: 0x01F7 [0x1C] WAIT(5* ticks)
 71: 0x01FA [0x52] END_LOAD_SCHEDULER: End scheduler "6404" with entities [LocalPlayer, LocalPlayer], work=488*
 72: 0x0209 [0x45] LOAD_SCHEDULED_TASK: Load scheduler "6405" with entities [LocalPlayer, LocalPlayer], work=[488*, 0*]
 73: 0x021A [0x1A] CALL_SUBROUTINE(address=0x09A2)
 74: 0x021D [0x2B] Norrah (ID: 17220205/0x0106C26D) [11003*]:
    → "Well, then that must make you <Player>."
 75: 0x0224 [0x23] WAIT_FOR_DIALOG_INTERACTION
 76: 0x0225 [0x2B] Norrah (ID: 17220205/0x0106C26D) [11004*]:
    → "Joachim's told me much about you. It's a true pleasure to finally meet face-to-face."
 77: 0x022C [0x23] WAIT_FOR_DIALOG_INTERACTION
 78: 0x022D [0x52] END_LOAD_SCHEDULER: End scheduler "6405" with entities [LocalPlayer, LocalPlayer], work=488*
 79: 0x023C [0x45] LOAD_SCHEDULED_TASK: Load scheduler "6406" with entities [LocalPlayer, LocalPlayer], work=[488*, 0*]
 80: 0x024D [0x66] LOAD_EXT_SCHEDULER_MAIN: Load scheduler "tlk0" with entities [Norrah (ID: 17220205/0x0106C26D), Norrah (ID: 17220205/0x0106C26D)], work=19*
 81: 0x025C [0x29] REQ_SET_WAIT(priority=0x10, entity_id=Norrah (ID: 17220205/0x0106C26D), tag_num=0x0B)
 82: 0x0263 [0x2B] Norrah (ID: 17220205/0x0106C26D) [11005*]:
    → "My name's Norrah. Like Joachim, I'm a native of Abyssea."
 83: 0x026A [0x23] WAIT_FOR_DIALOG_INTERACTION
 84: 0x026B [0x59] UPDATE_ENTITY_DATA: Unnamed NPC (ID: 17220208/0x0106C270)->Render.Flags0 &= ~0x200000
 85: 0x0272 [0xBA] SET_ENTITY_POSITION(entity_id=Unnamed NPC (ID: 17220208/0x0106C270), pos_x=91.664*, pos_z=-582.850*, pos_y=-68.929*, direction=80.7°*)
 86: 0x027F [0x66] LOAD_EXT_SCHEDULER_MAIN: Load scheduler "tlk1" with entities [Norrah (ID: 17220205/0x0106C26D), Norrah (ID: 17220205/0x0106C26D)], work=19*
 87: 0x028E [0x1C] WAIT(30* ticks)
 88: 0x0291 [0x2B] Norrah (ID: 17220205/0x0106C26D) [11006*]:
    → "We're eternally grateful to you, <Player>, for coming to the aid of a world not your own."
 89: 0x0298 [0x23] WAIT_FOR_DIALOG_INTERACTION
 90: 0x0299 [0x52] END_LOAD_SCHEDULER: End scheduler "6406" with entities [LocalPlayer, LocalPlayer], work=488*
 91: 0x02A8 [0x45] LOAD_SCHEDULED_TASK: Load scheduler "6407" with entities [LocalPlayer, LocalPlayer], work=[488*, 0*]
 92: 0x02B9 [0x5D] SET_MUSIC_VOLUME(volume=0*, fade_time=120*)
 93: 0x02BE [0x2B] Norrah (ID: 17220205/0x0106C26D) [11007*]:
    → "What little help we have to offer, my comrades and I intend to give all to you."
 94: 0x02C5 [0x23] WAIT_FOR_DIALOG_INTERACTION
 95: 0x02C6 [0x79] Norrah (ID: 17220205/0x0106C26D) looks at Unnamed NPC (ID: 17220208/0x0106C270) (Basic look)
 96: 0x02D0 [0x1C] WAIT(30* ticks)
 97: 0x02D3 [0x2B] Norrah (ID: 17220205/0x0106C26D) [11008*]:
    → "Never before has our world seen such dark times. The Abyssean hordes appeared without warning, seemingly out of nowhere."
 98: 0x02DA [0x23] WAIT_FOR_DIALOG_INTERACTION
 99: 0x02DB [0x5C] MUSIC_CONTROL: Set Idle (Day) music to song 51*
100: 0x02DF [0x5C] MUSIC_CONTROL: Set Idle (Night) music to song 51*
101: 0x02E3 [0x9A] WAIT_MUSIC_SERVER()
102: 0x02E4 [0x52] END_LOAD_SCHEDULER: End scheduler "6407" with entities [LocalPlayer, LocalPlayer], work=488*
103: 0x02F3 [0x45] LOAD_SCHEDULED_TASK: Load scheduler "6408" with entities [LocalPlayer, LocalPlayer], work=[488*, 0*]
104: 0x0304 [0x2B] Norrah (ID: 17220205/0x0106C26D) [11009*]:
    → "It all happened so suddenly... Our nations' defenses were pitiful things against the enemy's unquenchable lust for blood."
105: 0x030B [0x23] WAIT_FOR_DIALOG_INTERACTION
106: 0x030C [0x2B] Norrah (ID: 17220205/0x0106C26D) [11010*]:
    → "The result being a world ruled by death and destruction."
107: 0x0313 [0x23] WAIT_FOR_DIALOG_INTERACTION
108: 0x0314 [0x7B] Norrah (ID: 17220205/0x0106C26D) stops talking
109: 0x0319 [0x52] END_LOAD_SCHEDULER: End scheduler "6408" with entities [LocalPlayer, LocalPlayer], work=488*
110: 0x0328 [0x45] LOAD_SCHEDULED_TASK: Load scheduler "6409" with entities [LocalPlayer, LocalPlayer], work=[488*, 0*]
111: 0x0339 [0x2B] Norrah (ID: 17220205/0x0106C26D) [11011*]:
    → "It's hard to believe that Abyssea once rivaled your world--Vana'diel, was it?--in beauty."
112: 0x0340 [0x23] WAIT_FOR_DIALOG_INTERACTION
113: 0x0341 [0x79] Norrah (ID: 17220205/0x0106C26D) looks at Unnamed NPC (ID: 17220208/0x0106C270) (Basic look)
114: 0x034B [0x1C] WAIT(30* ticks)
115: 0x034E [0x2B] Norrah (ID: 17220205/0x0106C26D) [11012*]:
    → "But everything changed after that fateful day..."
116: 0x0355 [0x23] WAIT_FOR_DIALOG_INTERACTION
117: 0x0356 [0x1C] WAIT(90* ticks)
118: 0x0359 [0x52] END_LOAD_SCHEDULER: End scheduler "6409" with entities [LocalPlayer, LocalPlayer], work=488*
119: 0x0368 [0x45] LOAD_SCHEDULED_TASK: Load scheduler "6410" with entities [LocalPlayer, LocalPlayer], work=[488*, 0*]
120: 0x0379 [0x4A] Norrah (ID: 17220205/0x0106C26D) looks at Cavernous Maw (ID: 17220154/0x0106C23A)
121: 0x0382 [0x2B] Norrah (ID: 17220205/0x0106C26D) [11013*]:
    → "The cavernous maw you see before you leads to the Konschtat Highlands of Abyssea. Don't let the name lull you into complacency, though, or you'll surely meet a premature end."
122: 0x0389 [0x1C] WAIT(30* ticks)
123: 0x038C [0x79] LocalPlayer looks at Cavernous Maw (ID: 17220154/0x0106C23A) (Basic look)
124: 0x0396 [0x1C] WAIT(60* ticks)
125: 0x0399 [0x23] WAIT_FOR_DIALOG_INTERACTION
126: 0x039A [0xC5] LOAD_SCHEDULED_TASK_ALT3: Load scheduler 0x80133030 for entities [??? (ID: 17220207/0x0106C26F), ??? (ID: 17220207/0x0106C26F)], work=213*, param=12403
127: 0x03AB [0x2B] Norrah (ID: 17220205/0x0106C26D) [11014*]:
    → "The Konschtat that lies beyond is a far cry from the idyllic highlands that you know. It is swarming with fell creatures, among which is one that has attained particular notoriety."
128: 0x03B2 [0x23] WAIT_FOR_DIALOG_INTERACTION
129: 0x03B3 [0x52] END_LOAD_SCHEDULER: End scheduler "6410" with entities [LocalPlayer, LocalPlayer], work=488*
130: 0x03C2 [0x45] LOAD_SCHEDULED_TASK: Load scheduler "6411" with entities [LocalPlayer, LocalPlayer], work=[488*, 0*]
131: 0x03D3 [0x77] SET_EVENT_TIME_WEATHER(hour=255*, weather=1*)
132: 0x03D8 [0xAB] EventEntity->UnknownFlag = 1 // Enable unknown flag
133: 0x03DA [0x1C] WAIT(60* ticks)
134: 0x03DD [0x2B] Norrah (ID: 17220205/0x0106C26D) [11015*]:
    → "A giant, mutated subspecies of peiste is the best way to describe it. Its venom is reported to be of such potency, a dashing of it would burn a gaping hole through your garb."
135: 0x03E4 [0x23] WAIT_FOR_DIALOG_INTERACTION
136: 0x03E5 [0x52] END_LOAD_SCHEDULER: End scheduler "6411" with entities [LocalPlayer, LocalPlayer], work=488*
137: 0x03F4 [0x45] LOAD_SCHEDULED_TASK: Load scheduler "6412" with entities [LocalPlayer, LocalPlayer], work=[488*, 0*]
138: 0x0405 [0x1C] WAIT(60* ticks)
139: 0x0408 [0x2B] Norrah (ID: 17220205/0x0106C26D) [11016*]:
    → "This beast has wreaked immeasurable havoc upon my people. Putting an end to its reign of terror would restore much needed morale to the resistance effort."
140: 0x040F [0x23] WAIT_FOR_DIALOG_INTERACTION
141: 0x0410 [0x52] END_LOAD_SCHEDULER: End scheduler "6412" with entities [LocalPlayer, LocalPlayer], work=488*
142: 0x041F [0x45] LOAD_SCHEDULED_TASK: Load scheduler "6413" with entities [LocalPlayer, LocalPlayer], work=[488*, 0*]
143: 0x0430 [0xAB] EventEntity->UnknownFlag = 0 // Disable unknown flag
144: 0x0432 [0x78] ENABLE_GAME_TIMER_RESET_WEATHER()
145: 0x0433 [0x1C] WAIT(60* ticks)
146: 0x0436 [0x4E] SET_ENTITY_HIDE_FLAG: Hide Unnamed NPC (ID: 17220206/0x0106C26E)
147: 0x043C [0xC5] LOAD_SCHEDULED_TASK_ALT3: Load scheduler 0x8013306C for entities [??? (ID: 17220207/0x0106C26F), ??? (ID: 17220207/0x0106C26F)], work=213*, param=26987
148: 0x044D [0x2B] Norrah (ID: 17220205/0x0106C26D) [11017*]:
    → "I realize that this is but one monster--a drop in the ocean. Yet all journeys, no matter how long, must have a beginning. And this journey is one we cannot complete without the company of brave souls such as you, <Player>."
149: 0x0454 [0x23] WAIT_FOR_DIALOG_INTERACTION
150: 0x0455 [0x52] END_LOAD_SCHEDULER: End scheduler "6413" with entities [LocalPlayer, LocalPlayer], work=488*
151: 0x0464 [0x45] LOAD_SCHEDULED_TASK: Load scheduler "6414" with entities [LocalPlayer, LocalPlayer], work=[488*, 0*]
152: 0x0475 [0x5D] SET_MUSIC_VOLUME(volume=0*, fade_time=300*)
153: 0x047A [0x4A] Norrah (ID: 17220205/0x0106C26D) looks at LocalPlayer
154: 0x0483 [0x2B] Norrah (ID: 17220205/0x0106C26D) [11018*]:
    → "There is one piece of knowledge that might give you heart: There're others out there who share your gift. If you were to join together in common cause, there is no limit to what can be achieved."
155: 0x048A [0x1C] WAIT(20* ticks)
156: 0x048D [0x79] LocalPlayer looks at Norrah (ID: 17220205/0x0106C26D) (Basic look)
157: 0x0497 [0x6F] WAIT_FRAME_DELAY: Yield until WaitTime reaches zero
158: 0x0498 [0x76] CHECK_ENTITY_RENDER_FLAGS: Wait until Norrah (ID: 17220205/0x0106C26D) Render.Flags0 and Render.Flags3 conditions are met
159: 0x049D [0x23] WAIT_FOR_DIALOG_INTERACTION
160: 0x049E [0x4E] SET_ENTITY_HIDE_FLAG: Hide Unnamed NPC (ID: 17220206/0x0106C26E)
161: 0x04A4 [0xC5] LOAD_SCHEDULED_TASK_ALT3: Load scheduler 0x8013316C for entities [Unnamed NPC (ID: 17220206/0x0106C26E), Unnamed NPC (ID: 17220206/0x0106C26E)], work=213*, param=26987
162: 0x04B5 [0xC5] LOAD_SCHEDULED_TASK_ALT3: Load scheduler 0x8013306C for entities [??? (ID: 17220207/0x0106C26F), ??? (ID: 17220207/0x0106C26F)], work=213*, param=26987
163: 0x04C6 [0x66] LOAD_EXT_SCHEDULER_MAIN: Load scheduler "tlk0" with entities [Norrah (ID: 17220205/0x0106C26D), Norrah (ID: 17220205/0x0106C26D)], work=19*
164: 0x04D5 [0x2B] Norrah (ID: 17220205/0x0106C26D) [11019*]:
    → "Before you go, <Player>, remember always that knowing the enemy is half the battle. Take whatever time you need to acclimatize to Abyssea."
165: 0x04DC [0x23] WAIT_FOR_DIALOG_INTERACTION
166: 0x04DD [0x1C] WAIT(60* ticks)
167: 0x04E0 [0x23] WAIT_FOR_DIALOG_INTERACTION
168: 0x04E1 [0x52] END_LOAD_SCHEDULER: End scheduler "6414" with entities [LocalPlayer, LocalPlayer], work=488*
169: 0x04F0 [0x45] LOAD_SCHEDULED_TASK: Load scheduler "6415" with entities [LocalPlayer, LocalPlayer], work=[488*, 0*]
170: 0x0501 [0x66] LOAD_EXT_SCHEDULER_MAIN: Load scheduler "tlk1" with entities [Norrah (ID: 17220205/0x0106C26D), Norrah (ID: 17220205/0x0106C26D)], work=19*
171: 0x0510 [0x2B] Norrah (ID: 17220205/0x0106C26D) [11020*]:
    → "The last thing we need is to lose a newfound ally to a mishap that might have been averted."
172: 0x0517 [0x23] WAIT_FOR_DIALOG_INTERACTION
173: 0x0518 [0x53] WAIT_SCHEDULER_TASK: Wait for scheduler "tlk1" with entities [Norrah (ID: 17220205/0x0106C26D), Norrah (ID: 17220205/0x0106C26D)]
174: 0x0525 [0x6E] Norrah (ID: 17220205/0x0106C26D) uses emote 7*
175: 0x052C [0x99] Wait for Norrah (ID: 17220205/0x0106C26D) animation to complete
176: 0x0531 [0x1C] WAIT(30* ticks)
177: 0x0534 [0x2B] Norrah (ID: 17220205/0x0106C26D) [11021*]:
    → "Go carefully now, <Player>."
178: 0x053B [0x23] WAIT_FOR_DIALOG_INTERACTION
179: 0x053C [0x1A] CALL_SUBROUTINE(address=0x09C3)
180: 0x053F [0x1C] WAIT(30* ticks)
181: 0x0542 [0x52] END_LOAD_SCHEDULER: End scheduler "6415" with entities [LocalPlayer, LocalPlayer], work=488*
182: 0x0551 [0x45] LOAD_SCHEDULED_TASK: Load scheduler "0blf" with entities [LocalPlayer, LocalPlayer], work=[488*, 0*]
183: 0x0562 [0x5C] MUSIC_CONTROL: Set Idle (Day) music to song 0*
184: 0x0566 [0x5C] MUSIC_CONTROL: Set Idle (Night) music to song 0*
185: 0x056A [0x9A] WAIT_MUSIC_SERVER()
186: 0x056B [0x46] CAMERA_CONTROL: Restore default settings
187: 0x056D [0x45] LOAD_SCHEDULED_TASK: Load scheduler "fdi2" with entities [LocalPlayer, LocalPlayer], work=[200*, 0*]
188: 0x057E [0x21] END_EVENT
189: 0x057F [0x00] END_REQSTACK()
```

### Event 1

#### Metadata

| Field        | Value      |
|--------------|------------|
| Entrypoint   | 0x0580     |
| Data Size    | 1649 bytes |
| Instructions | 139        |

```
      00 01 02 03 04 05 06 07  08 09 0A 0B 0C 0D 0E 0F
      -- -- -- -- -- -- -- --  -- -- -- -- -- -- -- --
0580: 42 1A C3 09 46 01 38 00  80 4E 00 F0 FF FF 7F 27  B...F.8..N.....'
0590: 10 6D C2 06 01 04 4E 00  70 C2 06 01 4E 00 6F C2  .m....N.p...N.o.
05A0: 06 01 92 01 6D C2 06 01  94 01 F0 FF FF 7F 94 01  ....m...........
05B0: 6D C2 06 01 94 01 3A C2  06 01 94 01 70 C2 06 01  m.....:.....p...
05C0: BA F0 FF FF 7F 40 80 41  80 42 80 43 80 BA 6D C2  .....@.A.B.C..m.
05D0: 06 01 44 80 45 80 46 80  47 80 BA 70 C2 06 01 48  ..D.E.F.G..p...H
05E0: 80 49 80 4A 80 43 80 80  F0 FF FF 7F 80 6D C2 06  .I.J.C.......m..
05F0: 01 80 3A C2 06 01 1C 11  80 79 00 F0 FF FF 7F 70  ..:......y.....p
0600: C2 06 01 29 10 F0 FF FF  7F 0C 6C F0 FF FF 7F 13  ...)......l.....
0610: 80 34 80 92 01 F0 FF FF  7F CD 4B 80 F0 FF FF 7F  .4........K.....
0620: F0 FF FF 7F 6D 61 69 6E  13 80 45 12 80 F0 FF FF  ....main..E.....
0630: 7F F0 FF FF 7F 36 34 32  30 13 80 1A A2 09 1C 14  .....6420.......
0640: 80 92 00 F0 FF FF 7F 1C  18 80 79 00 F0 FF FF 7F  ..........y.....
0650: 6D C2 06 01 27 10 F0 FF  FF 7F 0D 1C 11 80 27 10  m...'.........'.
0660: 6D C2 06 01 0F 2B 6D C2  06 01 4C 80 23 2A 10 6D  m....+m...L.#*.m
0670: C2 06 01 5C 00 14 80 5C  01 14 80 9A 52 12 80 F0  ...\...\....R...
0680: FF FF 7F F0 FF FF 7F 36  34 32 30 45 12 80 F0 FF  .......6420E....
0690: FF 7F F0 FF FF 7F 36 34  32 31 13 80 6E 6D C2 06  ......6421..nm..
06A0: 01 4D 80 99 6D C2 06 01  2B 6D C2 06 01 4E 80 23  .M..m...+m...N.#
06B0: 2B 6D C2 06 01 4F 80 23  52 12 80 F0 FF FF 7F F0  +m...O.#R.......
06C0: FF FF 7F 36 34 32 31 45  12 80 F0 FF FF 7F F0 FF  ...6421E........
06D0: FF 7F 36 34 32 32 13 80  66 00 80 6D C2 06 01 6D  ..6422..f..m...m
06E0: C2 06 01 74 68 6B 31 1C  11 80 2B 6D C2 06 01 50  ...thk1...+m...P
06F0: 80 23 1C 2F 80 23 66 00  80 6D C2 06 01 6D C2 06  .#./.#f..m...m..
0700: 01 74 68 6B 32 1C 51 80  2B 6D C2 06 01 52 80 23  .thk2.Q.+m...R.#
0710: 52 12 80 F0 FF FF 7F F0  FF FF 7F 36 34 32 32 45  R..........6422E
0720: 12 80 F0 FF FF 7F F0 FF  FF 7F 36 34 32 33 13 80  ..........6423..
0730: 2B 6D C2 06 01 53 80 23  53 6D C2 06 01 6D C2 06  +m...S.#Sm...m..
0740: 01 74 68 6B 32 2B 6D C2  06 01 54 80 1C 55 80 27  .thk2+m...T..U.'
0750: 10 6D C2 06 01 10 23 2A  10 6D C2 06 01 52 12 80  .m....#*.m...R..
0760: F0 FF FF 7F F0 FF FF 7F  36 34 32 33 45 12 80 F0  ........6423E...
0770: FF FF 7F F0 FF FF 7F 36  34 32 34 13 80 03 01 10  .......6424.....
0780: 34 80 43 00 43 01 2B 6D  C2 06 01 56 80 23 5D 13  4.C.C.+m...V.#].
0790: 80 38 80 66 00 80 6D C2  06 01 6D C2 06 01 74 68  .8.f..m...m...th
07A0: 6B 31 2B 6D C2 06 01 57  80 23 2B 6D C2 06 01 58  k1+m...W.#+m...X
07B0: 80 23 79 00 6D C2 06 01  F0 FF FF 7F 66 00 80 6D  .#y.m.......f..m
07C0: C2 06 01 6D C2 06 01 74  68 6B 32 53 6D C2 06 01  ...m...thk2Sm...
07D0: 6D C2 06 01 74 68 6B 32  52 12 80 F0 FF FF 7F F0  m...thk2R.......
07E0: FF FF 7F 36 34 32 34 29  10 F0 FF FF 7F 0A 02 02  ...6424)........
07F0: 10 34 80 80 0A 08 45 12  80 F0 FF FF 7F F0 FF FF  .4....E.........
0800: 7F 36 34 6D 6D 13 80 01  CE 08 02 02 10 59 80 80  .64mm........Y..
0810: 26 08 45 12 80 F0 FF FF  7F F0 FF FF 7F 36 34 6D  &.E..........64m
0820: 6D 13 80 01 CE 08 02 02  10 5A 80 80 42 08 45 12  m........Z..B.E.
0830: 80 F0 FF FF 7F F0 FF FF  7F 36 34 6C 6C 13 80 01  .........64ll...
0840: CE 08 02 02 10 4D 80 80  5E 08 45 12 80 F0 FF FF  .....M..^.E.....
0850: 7F F0 FF FF 7F 36 34 6C  6C 13 80 01 CE 08 02 02  .....64ll.......
0860: 10 20 80 80 7A 08 45 12  80 F0 FF FF 7F F0 FF FF  . ..z.E.........
0870: 7F 36 34 73 73 13 80 01  CE 08 02 02 10 5B 80 80  .64ss........[..
0880: 96 08 45 12 80 F0 FF FF  7F F0 FF FF 7F 36 34 73  ..E..........64s
0890: 73 13 80 01 CE 08 02 02  10 3D 80 80 B2 08 45 12  s........=....E.
08A0: 80 F0 FF FF 7F F0 FF FF  7F 36 34 6D 6D 13 80 01  .........64mm...
08B0: CE 08 02 02 10 5C 80 80  CE 08 45 12 80 F0 FF FF  .....\....E.....
08C0: 7F F0 FF FF 7F 36 34 6C  6C 13 80 01 CE 08 2B 6D  .....64ll.....+m
08D0: C2 06 01 5D 80 23 2B 6D  C2 06 01 5E 80 23 6E F0  ...].#+m...^.#n.
08E0: FF FF 7F 5F 80 99 F0 FF  FF 7F 1C 18 80 1A C3 09  ..._............
08F0: 1C 11 80 52 12 80 F0 FF  FF 7F F0 FF FF 7F 36 34  ...R..........64
0900: 6D 6D 52 12 80 F0 FF FF  7F F0 FF FF 7F 36 34 6C  mmR..........64l
0910: 6C 52 12 80 F0 FF FF 7F  F0 FF FF 7F 36 34 73 73  lR..........64ss
0920: 45 12 80 F0 FF FF 7F F0  FF FF 7F 30 62 6C 66 13  E..........0blf.
0930: 80 5C 00 13 80 5C 01 13  80 9A 46 00 45 60 80 F8  .\...\....F.E`..
0940: FF FF 7F F8 FF FF 7F 71  73 74 63 13 80 45 3F 80  .......qstc..E?.
0950: F0 FF FF 7F F0 FF FF 7F  66 64 69 32 13 80 21 00  ........fdi2..!.
0960: 45 3F 80 F0 FF FF 7F F0  FF FF 7F 66 64 69 30 13  E?.........fdi0.
0970: 80 55 3F 80 F0 FF FF 7F  F0 FF FF 7F 66 64 69 30  .U?.........fdi0
0980: 1B 45 3F 80 F0 FF FF 7F  F0 FF FF 7F 66 64 6F 30  .E?.........fdo0
0990: 13 80 55 3F 80 F0 FF FF  7F F0 FF FF 7F 66 64 6F  ..U?.........fdo
09A0: 30 1B 45 3F 80 F0 FF FF  7F F0 FF FF 7F 66 64 69  0.E?.........fdi
09B0: 31 13 80 55 3F 80 F0 FF  FF 7F F0 FF FF 7F 66 64  1..U?.........fd
09C0: 69 31 1B 45 3F 80 F0 FF  FF 7F F0 FF FF 7F 66 64  i1.E?.........fd
09D0: 6F 31 13 80 55 3F 80 F0  FF FF 7F F0 FF FF 7F 66  o1..U?.........f
09E0: 64 6F 31 1B 45 60 80 F0  FF FF 7F F0 FF FF 7F 77  do1.E`.........w
09F0: 68 69 31 13 80 55 60 80  F0 FF FF 7F F0 FF FF 7F  hi1..U`.........
0A00: 77 68 69 31 1B 45 60 80  F0 FF FF 7F F0 FF FF 7F  whi1.E`.........
0A10: 77 68 6F 31 13 80 55 60  80 F0 FF FF 7F F0 FF FF  who1..U`........
0A20: 7F 77 68 6F 31 1B 45 60  80 F0 FF FF 7F F0 FF FF  .who1.E`........
0A30: 7F 77 68 6F 32 13 80 55  60 80 F0 FF FF 7F F0 FF  .who2..U`.......
0A40: FF 7F 77 68 6F 32 1B 45  60 80 F0 FF FF 7F F0 FF  ..who2.E`.......
0A50: FF 7F 77 68 6F 33 13 80  55 60 80 F0 FF FF 7F F0  ..who3..U`......
0A60: FF FF 7F 77 68 6F 33 1B  62 34 80 F0 FF FF 7F F0  ...who3.b4......
0A70: FF FF 7F 6D 61 69 6E 13  80 1C 16 80 45 3F 80 F0  ...main.....E?..
0A80: FF FF 7F F0 FF FF 7F 66  64 6F 31 13 80 55 3F 80  .......fdo1..U?.
0A90: F0 FF FF 7F F0 FF FF 7F  66 64 6F 31 1B 45 3F 80  ........fdo1.E?.
0AA0: F0 FF FF 7F F0 FF FF 7F  66 64 69 31 13 80 62 59  ........fdi1..bY
0AB0: 80 F0 FF FF 7F F0 FF FF  7F 6D 61 69 6E 13 80 1C  .........main...
0AC0: 11 80 55 3F 80 F0 FF FF  7F F0 FF FF 7F 66 64 69  ..U?.........fdi
0AD0: 31 1B 45 3F 80 F0 FF FF  7F F0 FF FF 7F 62 6C 6F  1.E?.........blo
0AE0: 6E 13 80 45 60 80 F0 FF  FF 7F F0 FF FF 7F 62 6C  n..E`.........bl
0AF0: 6F 6E 13 80 1B 45 60 80  F0 FF FF 7F F0 FF FF 7F  on...E`.........
0B00: 77 68 69 30 13 80 55 60  80 F0 FF FF 7F F0 FF FF  whi0..U`........
0B10: 7F 77 68 69 30 1B 45 60  80 F0 FF FF 7F F0 FF FF  .whi0.E`........
0B20: 7F 77 68 6F 30 13 80 55  60 80 F0 FF FF 7F F0 FF  .who0..U`.......
0B30: FF 7F 77 68 6F 30 1B 45  61 80 F0 FF FF 7F F0 FF  ..who0.Ea.......
0B40: FF 7F 65 66 6F 6E 13 80  55 61 80 F0 FF FF 7F F0  ..efon..Ua......
0B50: FF FF 7F 65 66 6F 6E 1B  45 3F 80 F0 FF FF 7F F0  ...efon.E?......
0B60: FF FF 7F 66 64 69 73 13  80 1B 45 3F 80 F0 FF FF  ...fdis...E?....
0B70: 7F F0 FF FF 7F 66 64 6F  73 13 80 55 3F 80 F0 FF  .....fdos..U?...
0B80: FF 7F F0 FF FF 7F 66 64  6F 73 1B 45 3F 80 F0 FF  ......fdos.E?...
0B90: FF 7F F0 FF FF 7F 66 64  69 66 13 80 1B 45 3F 80  ......fdif...E?.
0BA0: F0 FF FF 7F F0 FF FF 7F  66 64 6F 66 13 80 55 3F  ........fdof..U?
0BB0: 80 F0 FF FF 7F F0 FF FF  7F 66 64 6F 66 1B 45 3F  .........fdof.E?
0BC0: 80 F0 FF FF 7F F0 FF FF  7F 66 64 69 70 13 80 1B  .........fdip...
0BD0: 45 3F 80 F0 FF FF 7F F0  FF FF 7F 66 64 6F 70 13  E?.........fdop.
0BE0: 80 55 3F 80 F0 FF FF 7F  F0 FF FF 7F 66 64 6F 70  .U?.........fdop
0BF0: 1B                                                .               
```

#### Opcodes

```
  0: 0x0580 [0x42] SET_CLI_EVENT_CANCEL_DATA()
  1: 0x0581 [0x1A] CALL_SUBROUTINE(address=0x09C3)
  2: 0x0584 [0x46] CAMERA_CONTROL: Disable user control
  3: 0x0586 [0x38] SET_CLIENT_EVENT_MODE(mode=19*)
  4: 0x0589 [0x4E] SET_ENTITY_HIDE_FLAG: Show LocalPlayer
  5: 0x058F [0x27] REQ_SET(priority=0x10, entity_id=Norrah (ID: 17220205/0x0106C26D), tag_num=0x04)
  6: 0x0596 [0x4E] SET_ENTITY_HIDE_FLAG: Show Unnamed NPC (ID: 17220208/0x0106C270)
  7: 0x059C [0x4E] SET_ENTITY_HIDE_FLAG: Show ??? (ID: 17220207/0x0106C26F)
  8: 0x05A2 [0x92] Norrah (ID: 17220205/0x0106C26D)->Render.Flags3 ^= 0x01
  9: 0x05A8 [0x94] LocalPlayer->Render.Flags3 ^= 0x01
 10: 0x05AE [0x94] Norrah (ID: 17220205/0x0106C26D)->Render.Flags3 ^= 0x01
 11: 0x05B4 [0x94] Cavernous Maw (ID: 17220154/0x0106C23A)->Render.Flags3 ^= 0x01
 12: 0x05BA [0x94] Unnamed NPC (ID: 17220208/0x0106C270)->Render.Flags3 ^= 0x01
 13: 0x05C0 [0xBA] SET_ENTITY_POSITION(entity_id=LocalPlayer, pos_x=91.860*, pos_z=-580.123*, pos_y=-68.759*, direction=180.4°*)
 14: 0x05CD [0xBA] SET_ENTITY_POSITION(entity_id=Norrah (ID: 17220205/0x0106C26D), pos_x=86.958*, pos_z=-580.040*, pos_y=-67.898*, direction=358.0°*)
 15: 0x05DA [0xBA] SET_ENTITY_POSITION(entity_id=Unnamed NPC (ID: 17220208/0x0106C270), pos_x=91.231*, pos_z=-580.182*, pos_y=-68.631*, direction=180.4°*)
 16: 0x05E7 [0x80] LOAD_WAIT(entity=LocalPlayer)
 17: 0x05EC [0x80] LOAD_WAIT(entity=Norrah (ID: 17220205/0x0106C26D))
 18: 0x05F1 [0x80] LOAD_WAIT(entity=Cavernous Maw (ID: 17220154/0x0106C23A))
 19: 0x05F6 [0x1C] WAIT(30* ticks)
 20: 0x05F9 [0x79] LocalPlayer looks at Unnamed NPC (ID: 17220208/0x0106C270) (Basic look)
 21: 0x0603 [0x29] REQ_SET_WAIT(priority=0x10, entity_id=LocalPlayer, tag_num=0x0C)
 22: 0x060A [0x6C] FADE_ENTITY_COLOR(entity_id=LocalPlayer, end_alpha=0*, fade_time=1*)
 23: 0x0613 [0x92] LocalPlayer->Render.Flags3 ^= 0x01
 24: 0x0619 [0xCD] LOAD_SCHEDULED_TASK_ALT4: Load scheduler "main" with entities [LocalPlayer, LocalPlayer], work=[80*, 0*]
 25: 0x062A [0x45] LOAD_SCHEDULED_TASK: Load scheduler "6420" with entities [LocalPlayer, LocalPlayer], work=[488*, 0*]
 26: 0x063B [0x1A] CALL_SUBROUTINE(address=0x09A2)
 27: 0x063E [0x1C] WAIT(120* ticks)
 28: 0x0641 [0x92] LocalPlayer->Render.Flags3 = Flags3  // No change (flag=0)
 29: 0x0647 [0x1C] WAIT(60* ticks)
 30: 0x064A [0x79] LocalPlayer looks at Norrah (ID: 17220205/0x0106C26D) (Basic look)
 31: 0x0654 [0x27] REQ_SET(priority=0x10, entity_id=LocalPlayer, tag_num=0x0D)
 32: 0x065B [0x1C] WAIT(30* ticks)
 33: 0x065E [0x27] REQ_SET(priority=0x10, entity_id=Norrah (ID: 17220205/0x0106C26D), tag_num=0x0F)
 34: 0x0665 [0x2B] Norrah (ID: 17220205/0x0106C26D) [11022*]:
    → "Welcome back, <Player>."
 35: 0x066C [0x23] WAIT_FOR_DIALOG_INTERACTION
 36: 0x066D [0x2A] GET_REQ_LEVEL(level=16, entity_id=Norrah (ID: 17220205/0x0106C26D))
 37: 0x0673 [0x5C] MUSIC_CONTROL: Set Idle (Day) music to song 120*
 38: 0x0677 [0x5C] MUSIC_CONTROL: Set Idle (Night) music to song 120*
 39: 0x067B [0x9A] WAIT_MUSIC_SERVER()
 40: 0x067C [0x52] END_LOAD_SCHEDULER: End scheduler "6420" with entities [LocalPlayer, LocalPlayer], work=488*
 41: 0x068B [0x45] LOAD_SCHEDULED_TASK: Load scheduler "6421" with entities [LocalPlayer, LocalPlayer], work=[488*, 0*]
 42: 0x069C [0x6E] Norrah (ID: 17220205/0x0106C26D) uses emote 4*
 43: 0x06A3 [0x99] Wait for Norrah (ID: 17220205/0x0106C26D) animation to complete
 44: 0x06A8 [0x2B] Norrah (ID: 17220205/0x0106C26D) [11023*]:
    → "Although I'm hardly the one to say those words to you."
 45: 0x06AF [0x23] WAIT_FOR_DIALOG_INTERACTION
 46: 0x06B0 [0x2B] Norrah (ID: 17220205/0x0106C26D) [11024*]:
    → "Small talk aside, word of your courageous display has already reached me. A terrible menace is no more, and we have you to thank for it."
 47: 0x06B7 [0x23] WAIT_FOR_DIALOG_INTERACTION
 48: 0x06B8 [0x52] END_LOAD_SCHEDULER: End scheduler "6421" with entities [LocalPlayer, LocalPlayer], work=488*
 49: 0x06C7 [0x45] LOAD_SCHEDULED_TASK: Load scheduler "6422" with entities [LocalPlayer, LocalPlayer], work=[488*, 0*]
 50: 0x06D8 [0x66] LOAD_EXT_SCHEDULER_MAIN: Load scheduler "thk1" with entities [Norrah (ID: 17220205/0x0106C26D), Norrah (ID: 17220205/0x0106C26D)], work=19*
 51: 0x06E7 [0x1C] WAIT(30* ticks)
 52: 0x06EA [0x2B] Norrah (ID: 17220205/0x0106C26D) [11025*]:
    → "Truth be told, there are often times when I am given to despair."
 53: 0x06F1 [0x23] WAIT_FOR_DIALOG_INTERACTION
 54: 0x06F2 [0x1C] WAIT(90* ticks)
 55: 0x06F5 [0x23] WAIT_FOR_DIALOG_INTERACTION
 56: 0x06F6 [0x66] LOAD_EXT_SCHEDULER_MAIN: Load scheduler "thk2" with entities [Norrah (ID: 17220205/0x0106C26D), Norrah (ID: 17220205/0x0106C26D)], work=19*
 57: 0x0705 [0x1C] WAIT(15* ticks)
 58: 0x0708 [0x2B] Norrah (ID: 17220205/0x0106C26D) [11026*]:
    → "It's as though a voice in my head taunts me, saying that nothing will ever change, no matter how hard I try."
 59: 0x070F [0x23] WAIT_FOR_DIALOG_INTERACTION
 60: 0x0710 [0x52] END_LOAD_SCHEDULER: End scheduler "6422" with entities [LocalPlayer, LocalPlayer], work=488*
 61: 0x071F [0x45] LOAD_SCHEDULED_TASK: Load scheduler "6423" with entities [LocalPlayer, LocalPlayer], work=[488*, 0*]
 62: 0x0730 [0x2B] Norrah (ID: 17220205/0x0106C26D) [11027*]:
    → "But your heroic feats have done much to silence that voice of doubt, and for that, I thank you."
 63: 0x0737 [0x23] WAIT_FOR_DIALOG_INTERACTION
 64: 0x0738 [0x53] WAIT_SCHEDULER_TASK: Wait for scheduler "thk2" with entities [Norrah (ID: 17220205/0x0106C26D), Norrah (ID: 17220205/0x0106C26D)]
 65: 0x0745 [0x2B] Norrah (ID: 17220205/0x0106C26D) [11028*]:
    → "Please accept this as a token of my appreciation."
 66: 0x074C [0x1C] WAIT(10* ticks)
 67: 0x074F [0x27] REQ_SET(priority=0x10, entity_id=Norrah (ID: 17220205/0x0106C26D), tag_num=0x10)
 68: 0x0756 [0x23] WAIT_FOR_DIALOG_INTERACTION
 69: 0x0757 [0x2A] GET_REQ_LEVEL(level=16, entity_id=Norrah (ID: 17220205/0x0106C26D))
 70: 0x075D [0x52] END_LOAD_SCHEDULER: End scheduler "6423" with entities [LocalPlayer, LocalPlayer], work=488*
 71: 0x076C [0x45] LOAD_SCHEDULED_TASK: Load scheduler "6424" with entities [LocalPlayer, LocalPlayer], work=[488*, 0*]
 72: 0x077D [0x03] Work_Zone[1] = 1*
 73: 0x0782 [0x43] SEND_EVENT_UPDATE: Send pending tag to server (packet 0x005B)
 74: 0x0784 [0x43] SEND_EVENT_UPDATE: Check pending flag (skip if not pending)
 75: 0x0786 [0x2B] Norrah (ID: 17220205/0x0106C26D) [11029*]:
    → "It's $6. I'm made to understand it works especially well for your people."
 76: 0x078D [0x23] WAIT_FOR_DIALOG_INTERACTION
 77: 0x078E [0x5D] SET_MUSIC_VOLUME(volume=0*, fade_time=300*)
 78: 0x0793 [0x66] LOAD_EXT_SCHEDULER_MAIN: Load scheduler "thk1" with entities [Norrah (ID: 17220205/0x0106C26D), Norrah (ID: 17220205/0x0106C26D)], work=19*
 79: 0x07A2 [0x2B] Norrah (ID: 17220205/0x0106C26D) [11030*]:
    → "Why has this terrible fate befallen Abyssea? I'm of the belief that everything--no matter how dreadful--happens for a reason."
 80: 0x07A9 [0x23] WAIT_FOR_DIALOG_INTERACTION
 81: 0x07AA [0x2B] Norrah (ID: 17220205/0x0106C26D) [11031*]:
    → "Be that as it may, I don't intend to lay down arms and bare my throat to fate's cruel fangs. I mean to fight so long as I draw breath."
 82: 0x07B1 [0x23] WAIT_FOR_DIALOG_INTERACTION
 83: 0x07B2 [0x79] Norrah (ID: 17220205/0x0106C26D) looks at LocalPlayer (Basic look)
 84: 0x07BC [0x66] LOAD_EXT_SCHEDULER_MAIN: Load scheduler "thk2" with entities [Norrah (ID: 17220205/0x0106C26D), Norrah (ID: 17220205/0x0106C26D)], work=19*
 85: 0x07CB [0x53] WAIT_SCHEDULER_TASK: Wait for scheduler "thk2" with entities [Norrah (ID: 17220205/0x0106C26D), Norrah (ID: 17220205/0x0106C26D)]
 86: 0x07D8 [0x52] END_LOAD_SCHEDULER: End scheduler "6424" with entities [LocalPlayer, LocalPlayer], work=488*
 87: 0x07E7 [0x29] REQ_SET_WAIT(priority=0x10, entity_id=LocalPlayer, tag_num=0x0A)
 88: 0x07EE [0x02] IF !(Work_Zone[2] == 1*) GOTO 0x080A
 89: 0x07F6 [0x45] LOAD_SCHEDULED_TASK: Load scheduler "64mm" with entities [LocalPlayer, LocalPlayer], work=[488*, 0*]
 90: 0x0807 [0x01] GOTO 0x08CE
 91: 0x080A [0x02] IF !(Work_Zone[2] == 2*) GOTO 0x0826
 92: 0x0812 [0x45] LOAD_SCHEDULED_TASK: Load scheduler "64mm" with entities [LocalPlayer, LocalPlayer], work=[488*, 0*]
 93: 0x0823 [0x01] GOTO 0x08CE
 94: 0x0826 [0x02] IF !(Work_Zone[2] == 3*) GOTO 0x0842
 95: 0x082E [0x45] LOAD_SCHEDULED_TASK: Load scheduler "64ll" with entities [LocalPlayer, LocalPlayer], work=[488*, 0*]
 96: 0x083F [0x01] GOTO 0x08CE
 97: 0x0842 [0x02] IF !(Work_Zone[2] == 4*) GOTO 0x085E
 98: 0x084A [0x45] LOAD_SCHEDULED_TASK: Load scheduler "64ll" with entities [LocalPlayer, LocalPlayer], work=[488*, 0*]
 99: 0x085B [0x01] GOTO 0x08CE
100: 0x085E [0x02] IF !(Work_Zone[2] == 5*) GOTO 0x087A
101: 0x0866 [0x45] LOAD_SCHEDULED_TASK: Load scheduler "64ss" with entities [LocalPlayer, LocalPlayer], work=[488*, 0*]
102: 0x0877 [0x01] GOTO 0x08CE
103: 0x087A [0x02] IF !(Work_Zone[2] == 6*) GOTO 0x0896
104: 0x0882 [0x45] LOAD_SCHEDULED_TASK: Load scheduler "64ss" with entities [LocalPlayer, LocalPlayer], work=[488*, 0*]
105: 0x0893 [0x01] GOTO 0x08CE
106: 0x0896 [0x02] IF !(Work_Zone[2] == 7*) GOTO 0x08B2
107: 0x089E [0x45] LOAD_SCHEDULED_TASK: Load scheduler "64mm" with entities [LocalPlayer, LocalPlayer], work=[488*, 0*]
108: 0x08AF [0x01] GOTO 0x08CE
109: 0x08B2 [0x02] IF !(Work_Zone[2] == 8*) GOTO 0x08CE
110: 0x08BA [0x45] LOAD_SCHEDULED_TASK: Load scheduler "64ll" with entities [LocalPlayer, LocalPlayer], work=[488*, 0*]
111: 0x08CB [0x01] GOTO 0x08CE

SUBROUTINE_08CE:
112: 0x08CE [0x2B] Norrah (ID: 17220205/0x0106C26D) [11032*]:
    → "<Player>. On behalf of the people of Abyssea, I beg you..."
113: 0x08D5 [0x23] WAIT_FOR_DIALOG_INTERACTION
114: 0x08D6 [0x2B] Norrah (ID: 17220205/0x0106C26D) [11033*]:
    → "Please continue to stand with us in our darkest hour."
115: 0x08DD [0x23] WAIT_FOR_DIALOG_INTERACTION
116: 0x08DE [0x6E] LocalPlayer uses emote 36*
117: 0x08E5 [0x99] Wait for LocalPlayer animation to complete
118: 0x08EA [0x1C] WAIT(60* ticks)
119: 0x08ED [0x1A] CALL_SUBROUTINE(address=0x09C3)
120: 0x08F0 [0x1C] WAIT(30* ticks)
121: 0x08F3 [0x52] END_LOAD_SCHEDULER: End scheduler "64mm" with entities [LocalPlayer, LocalPlayer], work=488*
122: 0x0902 [0x52] END_LOAD_SCHEDULER: End scheduler "64ll" with entities [LocalPlayer, LocalPlayer], work=488*
123: 0x0911 [0x52] END_LOAD_SCHEDULER: End scheduler "64ss" with entities [LocalPlayer, LocalPlayer], work=488*
124: 0x0920 [0x45] LOAD_SCHEDULED_TASK: Load scheduler "0blf" with entities [LocalPlayer, LocalPlayer], work=[488*, 0*]
125: 0x0931 [0x5C] MUSIC_CONTROL: Set Idle (Day) music to song 0*
126: 0x0935 [0x5C] MUSIC_CONTROL: Set Idle (Night) music to song 0*
127: 0x0939 [0x9A] WAIT_MUSIC_SERVER()
128: 0x093A [0x46] CAMERA_CONTROL: Restore default settings
129: 0x093C [0x45] LOAD_SCHEDULED_TASK: Load scheduler "qstc" with entities [EventEntity, EventEntity], work=[201*, 0*]
130: 0x094D [0x45] LOAD_SCHEDULED_TASK: Load scheduler "fdi2" with entities [LocalPlayer, LocalPlayer], work=[200*, 0*]
131: 0x095E [0x21] END_EVENT
132: 0x095F [0x00] END_REQSTACK()

SUBROUTINE_09A2:
133: 0x09A2 [0x45] LOAD_SCHEDULED_TASK: Load scheduler "fdi1" with entities [LocalPlayer, LocalPlayer], work=[200*, 0*]
134: 0x09B3 [0x55] WAIT_LOAD_SCHEDULER: Wait for scheduler "fdi1" with entities [LocalPlayer, LocalPlayer], work=200*
135: 0x09C2 [0x1B] RETURN

SUBROUTINE_09C3:
136: 0x09C3 [0x45] LOAD_SCHEDULED_TASK: Load scheduler "fdo1" with entities [LocalPlayer, LocalPlayer], work=[200*, 0*]
137: 0x09D4 [0x55] WAIT_LOAD_SCHEDULER: Wait for scheduler "fdo1" with entities [LocalPlayer, LocalPlayer], work=200*
138: 0x09E3 [0x1B] RETURN
```

#### Data or dead code:

```
# Dead code (unreachable instructions):
     0x0960 [0x45] LOAD_SCHEDULED_TASK: Load scheduler "fdi0" with entities [LocalPlayer, LocalPlayer], work=[200*, 0*]
     0x0971 [0x55] WAIT_LOAD_SCHEDULER: Wait for scheduler "fdi0" with entities [LocalPlayer, LocalPlayer], work=200*
     0x0980 [0x1B] RETURN
     0x0981 [0x45] LOAD_SCHEDULED_TASK: Load scheduler "fdo0" with entities [LocalPlayer, LocalPlayer], work=[200*, 0*]
     0x0992 [0x55] WAIT_LOAD_SCHEDULER: Wait for scheduler "fdo0" with entities [LocalPlayer, LocalPlayer], work=200*
     0x09A1 [0x1B] RETURN
# Dead code (unreachable instructions):
     0x09E4 [0x45] LOAD_SCHEDULED_TASK: Load scheduler "whi1" with entities [LocalPlayer, LocalPlayer], work=[201*, 0*]
     0x09F5 [0x55] WAIT_LOAD_SCHEDULER: Wait for scheduler "whi1" with entities [LocalPlayer, LocalPlayer], work=201*
     0x0A04 [0x1B] RETURN
     0x0A05 [0x45] LOAD_SCHEDULED_TASK: Load scheduler "who1" with entities [LocalPlayer, LocalPlayer], work=[201*, 0*]
     0x0A16 [0x55] WAIT_LOAD_SCHEDULER: Wait for scheduler "who1" with entities [LocalPlayer, LocalPlayer], work=201*
     0x0A25 [0x1B] RETURN
     0x0A26 [0x45] LOAD_SCHEDULED_TASK: Load scheduler "who2" with entities [LocalPlayer, LocalPlayer], work=[201*, 0*]
     0x0A37 [0x55] WAIT_LOAD_SCHEDULER: Wait for scheduler "who2" with entities [LocalPlayer, LocalPlayer], work=201*
     0x0A46 [0x1B] RETURN
     0x0A47 [0x45] LOAD_SCHEDULED_TASK: Load scheduler "who3" with entities [LocalPlayer, LocalPlayer], work=[201*, 0*]
     0x0A58 [0x55] WAIT_LOAD_SCHEDULER: Wait for scheduler "who3" with entities [LocalPlayer, LocalPlayer], work=201*
     0x0A67 [0x1B] RETURN
     0x0A68 [0x62] LOAD_EVENT_SCHEDULER: Load scheduler "main" with entities [LocalPlayer, LocalPlayer], work=[1*, 0*]
     0x0A79 [0x1C] WAIT(45* ticks)
     0x0A7C [0x45] LOAD_SCHEDULED_TASK: Load scheduler "fdo1" with entities [LocalPlayer, LocalPlayer], work=[200*, 0*]
     0x0A8D [0x55] WAIT_LOAD_SCHEDULER: Wait for scheduler "fdo1" with entities [LocalPlayer, LocalPlayer], work=200*
     0x0A9C [0x1B] RETURN
     0x0A9D [0x45] LOAD_SCHEDULED_TASK: Load scheduler "fdi1" with entities [LocalPlayer, LocalPlayer], work=[200*, 0*]
     0x0AAE [0x62] LOAD_EVENT_SCHEDULER: Load scheduler "main" with entities [LocalPlayer, LocalPlayer], work=[2*, 0*]
     0x0ABF [0x1C] WAIT(30* ticks)
     0x0AC2 [0x55] WAIT_LOAD_SCHEDULER: Wait for scheduler "fdi1" with entities [LocalPlayer, LocalPlayer], work=200*
     0x0AD1 [0x1B] RETURN
     0x0AD2 [0x45] LOAD_SCHEDULED_TASK: Load scheduler "blon" with entities [LocalPlayer, LocalPlayer], work=[200*, 0*]
     0x0AE3 [0x45] LOAD_SCHEDULED_TASK: Load scheduler "blon" with entities [LocalPlayer, LocalPlayer], work=[201*, 0*]
     0x0AF4 [0x1B] RETURN
     0x0AF5 [0x45] LOAD_SCHEDULED_TASK: Load scheduler "whi0" with entities [LocalPlayer, LocalPlayer], work=[201*, 0*]
     0x0B06 [0x55] WAIT_LOAD_SCHEDULER: Wait for scheduler "whi0" with entities [LocalPlayer, LocalPlayer], work=201*
     0x0B15 [0x1B] RETURN
     0x0B16 [0x45] LOAD_SCHEDULED_TASK: Load scheduler "who0" with entities [LocalPlayer, LocalPlayer], work=[201*, 0*]
     0x0B27 [0x55] WAIT_LOAD_SCHEDULER: Wait for scheduler "who0" with entities [LocalPlayer, LocalPlayer], work=201*
     0x0B36 [0x1B] RETURN
     0x0B37 [0x45] LOAD_SCHEDULED_TASK: Load scheduler "efon" with entities [LocalPlayer, LocalPlayer], work=[215*, 0*]
     0x0B48 [0x55] WAIT_LOAD_SCHEDULER: Wait for scheduler "efon" with entities [LocalPlayer, LocalPlayer], work=215*
     0x0B57 [0x1B] RETURN
     0x0B58 [0x45] LOAD_SCHEDULED_TASK: Load scheduler "fdis" with entities [LocalPlayer, LocalPlayer], work=[200*, 0*]
     0x0B69 [0x1B] RETURN
     0x0B6A [0x45] LOAD_SCHEDULED_TASK: Load scheduler "fdos" with entities [LocalPlayer, LocalPlayer], work=[200*, 0*]
     0x0B7B [0x55] WAIT_LOAD_SCHEDULER: Wait for scheduler "fdos" with entities [LocalPlayer, LocalPlayer], work=200*
     0x0B8A [0x1B] RETURN
     0x0B8B [0x45] LOAD_SCHEDULED_TASK: Load scheduler "fdif" with entities [LocalPlayer, LocalPlayer], work=[200*, 0*]
     0x0B9C [0x1B] RETURN
     0x0B9D [0x45] LOAD_SCHEDULED_TASK: Load scheduler "fdof" with entities [LocalPlayer, LocalPlayer], work=[200*, 0*]
     0x0BAE [0x55] WAIT_LOAD_SCHEDULER: Wait for scheduler "fdof" with entities [LocalPlayer, LocalPlayer], work=200*
     0x0BBD [0x1B] RETURN
     0x0BBE [0x45] LOAD_SCHEDULED_TASK: Load scheduler "fdip" with entities [LocalPlayer, LocalPlayer], work=[200*, 0*]
     0x0BCF [0x1B] RETURN
     0x0BD0 [0x45] LOAD_SCHEDULED_TASK: Load scheduler "fdop" with entities [LocalPlayer, LocalPlayer], work=[200*, 0*]
     0x0BE1 [0x55] WAIT_LOAD_SCHEDULER: Wait for scheduler "fdop" with entities [LocalPlayer, LocalPlayer], work=200*
     0x0BF0 [0x1B] RETURN
```
