# 0x7FFFFFF0 - Zone Events

## Common Data

| Field            | Value                         |
|------------------|-------------------------------|
| Zone             | Konschtat Highlands (ID: 108) |
| Block Size       | 4836 bytes                    |
| Total Events     | 42                            |
| References Count | 109                           |

## List of Events

| Event ID                   | Entrypoint   |   Size |   Instructions |
|----------------------------|--------------|--------|----------------|
| [65535](#event-65535)      | 0x0000       |      1 |              1 |
| [65534](#event-65534)      | 0x0001       |      1 |              1 |
| [65535.1](#event-655351)   | 0x0002       |     16 |              3 |
| [65535.2](#event-655352)   | 0x0012       |     41 |              5 |
| [913](#event-913)          | 0x003B       |    177 |             34 |
| [915](#event-915)          | 0x00EC       |    132 |             23 |
| [925](#event-925)          | 0x0170       |    182 |             34 |
| [926](#event-926)          | 0x0226       |    182 |             34 |
| [912](#event-912)          | 0x02DC       |   1531 |            188 |
| [918](#event-918)          | 0x08D7       |    120 |             28 |
| [65535.3](#event-655353)   | 0x094F       |      6 |              2 |
| [65535.4](#event-655354)   | 0x0955       |      6 |              2 |
| [65535.5](#event-655355)   | 0x095B       |     37 |              5 |
| [65535.6](#event-655356)   | 0x0980       |    185 |             37 |
| [65535.7](#event-655357)   | 0x0A39       |     24 |              4 |
| [65535.8](#event-655358)   | 0x0A51       |     24 |              4 |
| [65535.9](#event-655359)   | 0x0A69       |     37 |              5 |
| [65535.10](#event-6553510) | 0x0A8E       |     37 |              5 |
| [65535.11](#event-6553511) | 0x0AB3       |     42 |              6 |
| [65535.12](#event-6553512) | 0x0ADD       |     22 |              6 |
| [65535.13](#event-6553513) | 0x0AF3       |     14 |              4 |
| [65535.14](#event-6553514) | 0x0B01       |      5 |              2 |
| [65535.15](#event-6553515) | 0x0B06       |      5 |              2 |
| [65535.16](#event-6553516) | 0x0B0B       |      5 |              2 |
| [65535.17](#event-6553517) | 0x0B10       |      5 |              2 |
| [65535.18](#event-6553518) | 0x0B15       |     22 |              6 |
| [65535.19](#event-6553519) | 0x0B2B       |    345 |             33 |
| [65535.20](#event-6553520) | 0x0C84       |    217 |             25 |
| [65535.21](#event-6553521) | 0x0D5D       |    345 |             33 |
| [65535.22](#event-6553522) | 0x0EB6       |     14 |              4 |
| [65535.23](#event-6553523) | 0x0EC4       |     14 |              4 |
| [65535.24](#event-6553524) | 0x0ED2       |     14 |              4 |
| [65535.25](#event-6553525) | 0x0EE0       |     47 |              7 |
| [65535.26](#event-6553526) | 0x0F0F       |     50 |              7 |
| [65535.27](#event-6553527) | 0x0F41       |     50 |              7 |
| [65535.28](#event-6553528) | 0x0F73       |     24 |              4 |
| [65535.29](#event-6553529) | 0x0F8B       |     24 |              4 |
| [65535.30](#event-6553530) | 0x0FA3       |     24 |              4 |
| [65535.31](#event-6553531) | 0x0FBB       |     24 |              4 |
| [65535.32](#event-6553532) | 0x0FD3       |     14 |              4 |
| [65535.33](#event-6553533) | 0x0FE1       |     14 |              4 |
| [916](#event-916)          | 0x0FEF       |    135 |             31 |

## DAT References (imed_data)

|   Index | Hex Value   |   Dec Value |
|---------|-------------|-------------|
|       0 | 0x166B1     |       91825 |
|       1 | 0xFFF72668  |  4294387304 |
|       2 | 0xFFFEF371  |  4294898545 |
|       3 | 0x1000      |        4096 |
|       4 | 0x0094      |         148 |
|       5 | 0x0000      |           0 |
|       6 | 0x00F0      |         240 |
|       7 | 0x00C8      |         200 |
|       8 | 0x003C      |          60 |
|       9 | 0x1D47      |        7495 |
|      10 | 0x1D48      |        7496 |
|      11 | 0x0001      |           1 |
|      12 | 0x40000000  |  1073741824 |
|      13 | 0x1D49      |        7497 |
|      14 | 0x1D4A      |        7498 |
|      15 | 0x00B4      |         180 |
|      16 | 0x00C9      |         201 |
|      17 | 0x001E      |          30 |
|      18 | 0x1C3C      |        7228 |
|      19 | 0x1C3D      |        7229 |
|      20 | 0x004B      |          75 |
|      21 | 0x2F48      |       12104 |
|      22 | 0x0002      |           2 |
|      23 | 0x2F49      |       12105 |
|      24 | 0x0013      |          19 |
|      25 | 0x2112E     |      135470 |
|      26 | 0x35CB7     |      220343 |
|      27 | 0x4AA0      |       19104 |
|      28 | 0x0FA1      |        4001 |
|      29 | 0x00A1      |         161 |
|      30 | 0x0003      |           3 |
|      31 | 0x000D      |          13 |
|      32 | 0x21BFA     |      138234 |
|      33 | 0x35B01     |      219905 |
|      34 | 0x0027      |          39 |
|      35 | 0x002D      |          45 |
|      36 | 0x1D4B      |        7499 |
|      37 | 0x1D4C      |        7500 |
|      38 | 0x1D4D      |        7501 |
|      39 | 0x1D4E      |        7502 |
|      40 | 0x006E      |         110 |
|      41 | 0x1D4F      |        7503 |
|      42 | 0x005A      |          90 |
|      43 | 0x0064      |         100 |
|      44 | 0x1D50      |        7504 |
|      45 | 0x1D51      |        7505 |
|      46 | 0x1D52      |        7506 |
|      47 | 0x1D53      |        7507 |
|      48 | 0x1D54      |        7508 |
|      49 | 0x1D55      |        7509 |
|      50 | 0x1D56      |        7510 |
|      51 | 0x1D57      |        7511 |
|      52 | 0x1D58      |        7512 |
|      53 | 0x1D59      |        7513 |
|      54 | 0x1D5A      |        7514 |
|      55 | 0x1D5B      |        7515 |
|      56 | 0x1D5C      |        7516 |
|      57 | 0x1D5D      |        7517 |
|      58 | 0x1DB3      |        7603 |
|      59 | 0x1DB4      |        7604 |
|      60 | 0x1DB5      |        7605 |
|      61 | 0x1DB6      |        7606 |
|      62 | 0x1DB7      |        7607 |
|      63 | 0x0005      |           5 |
|      64 | 0x000A      |          10 |
|      65 | 0x0009      |           9 |
|      66 | 0x0046      |          70 |
|      67 | 0x008C      |         140 |
|      68 | 0x00D2      |         210 |
|      69 | 0x0028      |          40 |
|      70 | 0xFFF9ED97  |  4294569367 |
|      71 | 0x5685C     |      354396 |
|      72 | 0xFFFFB565  |  4294948197 |
|      73 | 0xFFF9ECB3  |  4294569139 |
|      74 | 0x56271     |      352881 |
|      75 | 0x0057      |          87 |
|      76 | 0x005D      |          93 |
|      77 | 0x0060      |          96 |
|      78 | 0x008D      |         141 |
|      79 | 0x0F26      |        3878 |
|      80 | 0x0097      |         151 |
|      81 | 0x0004      |           4 |
|      82 | 0x00AB      |         171 |
|      83 | 0x00B5      |         181 |
|      84 | 0x0006      |           6 |
|      85 | 0x0007      |           7 |
|      86 | 0x00BF      |         191 |
|      87 | 0x0008      |           8 |
|      88 | 0x66D5D     |      421213 |
|      89 | 0xFFFDD65B  |  4294825563 |
|      90 | 0x3606F     |      221295 |
|      91 | 0x21CE1     |      138465 |
|      92 | 0x3FC23     |      261155 |
|      93 | 0x53528     |      341288 |
|      94 | 0x894E      |       35150 |
|      95 | 0x0078      |         120 |
|      96 | 0x0095      |         149 |
|      97 | 0x343F0     |      214000 |
|      98 | 0x4BCE4     |      310500 |
|      99 | 0x5EC4      |       24260 |
|     100 | 0x33270     |      209520 |
|     101 | 0x4BF64     |      311140 |
|     102 | 0x5E24      |       24100 |
|     103 | 0x000F      |          15 |
|     104 | 0x1D8A      |        7562 |
|     105 | 0x0090      |         144 |
|     106 | 0x1D96      |        7574 |
|     107 | 0x0063      |          99 |
|     108 | 0x1D97      |        7575 |

## String References

- **7228**: The telepoint has disappeared...
- **7229**: Investigate the missing telepoint? [Let's see here.../Not right now.]
- **7495**: The telepoint has been shattered into a thousand pieces...
- **7496**: Investigate further? [Yes./No.]
- **7497**: Have you made your preparations?
- **7498**: Preparations complete? [Yes./Not yet.]
- **7562**: There is treasure somewhere in the vicinity of this marker...
- **7574**: Your chocobo seems especially sharp today!
- **7575**: Your chocobo seems especially energetic today!
- **7603**: Your fate is currently entwined in the swirling mists of [Promyvion - Holla/Promyvion - Dem/Promyvion - Mea].
- **7604**: By sealing off a portion of your memory, your destiny within this realm of Promyvion can be altered.
- **7605**: This will allow you to return to the entrance of the crag, having forgotten all events regarding this place.
- **7606**: Seal off your memories? [Yes./No.]
- **7607**: Are you sure? [Absolutely./No.]
- **12104**: Teleport to where? [Al'Taieu./The Empyreal Paradox./Nowhere.]
- **12105**: Teleport to where? [Al'Taieu./Reisenjima./Nowhere.]

## Events

### Event 65535

#### Metadata

| Field        | Value   |
|--------------|---------|
| Entrypoint   | 0x0000  |
| Data Size    | 1 bytes |
| Instructions | 1       |

```
      00 01 02 03 04 05 06 07  08 09 0A 0B 0C 0D 0E 0F
      -- -- -- -- -- -- -- --  -- -- -- -- -- -- -- --
0000: 00                                                .               
```

#### Opcodes

```
  0: 0x0000 [0x00] END_REQSTACK()
```

### Event 65534

#### Metadata

| Field        | Value   |
|--------------|---------|
| Entrypoint   | 0x0001  |
| Data Size    | 1 bytes |
| Instructions | 1       |

```
      00 01 02 03 04 05 06 07  08 09 0A 0B 0C 0D 0E 0F
      -- -- -- -- -- -- -- --  -- -- -- -- -- -- -- --
0000:    00                                              .              
```

#### Opcodes

```
  0: 0x0001 [0x00] END_REQSTACK()
```

### Event 65535.1

#### Metadata

| Field        | Value    |
|--------------|----------|
| Entrypoint   | 0x0002   |
| Data Size    | 16 bytes |
| Instructions | 3        |

```
      00 01 02 03 04 05 06 07  08 09 0A 0B 0C 0D 0E 0F
      -- -- -- -- -- -- -- --  -- -- -- -- -- -- -- --
0000:       92 01 F0 FF FF 7F  37 00 80 01 80 02 80 03    ......7.......
0010: 80 00                                             ..              
```

#### Opcodes

```
  0: 0x0002 [0x92] LocalPlayer->Render.Flags3 ^= 0x01
  1: 0x0008 [0x37] UPDATE_EVENT_POSITION_AND_DIR: x=91.825*, z=-579.992*, y=-68.751*, direction=360.0°*
  2: 0x0011 [0x00] END_REQSTACK()
```

### Event 65535.2

#### Metadata

| Field        | Value    |
|--------------|----------|
| Entrypoint   | 0x0012   |
| Data Size    | 41 bytes |
| Instructions | 5        |

```
      00 01 02 03 04 05 06 07  08 09 0A 0B 0C 0D 0E 0F
      -- -- -- -- -- -- -- --  -- -- -- -- -- -- -- --
0010:       BB 04 80 F0 FF FF  7F 3A C2 06 01 6D 61 69    .......:...mai
0020: 6E 05 80 1C 06 80 45 07  80 F0 FF FF 7F F0 FF FF  n.....E.........
0030: 7F 66 64 6F 31 05 80 1C  08 80 00                 .fdo1......     
```

#### Opcodes

```
  0: 0x0012 [0xBB] LOAD_EVENT_SCHEDULER_ALT: Load scheduler "main" with entities [LocalPlayer, Cavernous Maw (ID: 17220154/0x0106C23A)], work=[148*, 0*]
  1: 0x0023 [0x1C] WAIT(240* ticks)
  2: 0x0026 [0x45] LOAD_SCHEDULED_TASK: Load scheduler "fdo1" with entities [LocalPlayer, LocalPlayer], work=[200*, 0*]
  3: 0x0037 [0x1C] WAIT(60* ticks)
  4: 0x003A [0x00] END_REQSTACK()
```

### Event 913

#### Metadata

| Field        | Value     |
|--------------|-----------|
| Entrypoint   | 0x003B    |
| Data Size    | 177 bytes |
| Instructions | 32        |

```
      00 01 02 03 04 05 06 07  08 09 0A 0B 0C 0D 0E 0F
      -- -- -- -- -- -- -- --  -- -- -- -- -- -- -- --
0030:                                   48 09 80 23 24             H..#$
0040: 0A 80 0B 80 05 80 25 02  00 10 0B 80 00 59 00 03  ......%......Y..
0050: 01 10 0C 80 21 00 01 59  00 02 04 10 05 80 00 64  ....!..Y.......d
0060: 00 01 82 00 48 0D 80 23  24 0E 80 0B 80 05 80 25  ....H..#$......%
0070: 02 00 10 0B 80 00 82 00  03 01 10 0C 80 21 00 01  .............!..
0080: 82 00 42 43 00 43 01 2C  2C C2 06 01 F8 FF FF 7F  ..BC.C.,,.......
0090: 70 6B 30 31 1C 0F 80 45  10 80 F8 FF FF 7F F8 FF  pk01...E........
00A0: FF 7F 77 68 6F 31 05 80  55 10 80 F8 FF FF 7F F8  ..who1..U.......
00B0: FF FF 7F 77 68 6F 31 2C  2C C2 06 01 F8 FF FF 7F  ...who1,,.......
00C0: 6B 69 6C 6C 45 07 80 F8  FF FF 7F F8 FF FF 7F 66  killE..........f
00D0: 64 6F 30 05 80 1C 11 80  30 45 10 80 F8 FF FF 7F  do0.....0E......
00E0: F8 FF FF 7F 77 68 69 31  05 80 21 00              ....whi1..!.    
```

#### Opcodes

```
  0: 0x003B [0x48] [System] [7495*]:
    → "The telepoint has been shattered into a thousand pieces..."
  1: 0x003E [0x23] WAIT_FOR_DIALOG_INTERACTION
  2: 0x003F [0x24] CREATE_DIALOG(message_id=7496*, default_option=1*, option_flags=0*)
    → "Investigate further? [Yes./No.]"
  3: 0x0046 [0x25] WAIT_DIALOG_SELECT()
  4: 0x0047 [0x02] IF !(Work_Zone[0] == 1*) GOTO 0x0059
  5: 0x004F [0x03] Work_Zone[1] = 1073741824*
  6: 0x0054 [0x21] END_EVENT
  7: 0x0055 [0x00] END_REQSTACK()

SUBROUTINE_0059:
  8: 0x0059 [0x02] IF !(Work_Zone[4] == 0*) GOTO 0x0064
  9: 0x0061 [0x01] GOTO 0x0082
 10: 0x0064 [0x48] [System] [7497*]:
    → "Have you made your preparations?"
 11: 0x0067 [0x23] WAIT_FOR_DIALOG_INTERACTION
 12: 0x0068 [0x24] CREATE_DIALOG(message_id=7498*, default_option=1*, option_flags=0*)
    → "Preparations complete? [Yes./Not yet.]"
 13: 0x006F [0x25] WAIT_DIALOG_SELECT()
 14: 0x0070 [0x02] IF !(Work_Zone[0] == 1*) GOTO 0x0082
 15: 0x0078 [0x03] Work_Zone[1] = 1073741824*
 16: 0x007D [0x21] END_EVENT
 17: 0x007E [0x00] END_REQSTACK()

SUBROUTINE_0082:
 18: 0x0082 [0x42] SET_CLI_EVENT_CANCEL_DATA()
 19: 0x0083 [0x43] SEND_EVENT_UPDATE: Send pending tag to server (packet 0x005B)
 20: 0x0085 [0x43] SEND_EVENT_UPDATE: Check pending flag (skip if not pending)
 21: 0x0087 [0x2C] CREATE_SCHEDULER_TASK: Create scheduler "pk01" with entities [Shattered Telepoint (ID: 17220140/0x0106C22C), EventEntity]
 22: 0x0094 [0x1C] WAIT(180* ticks)
 23: 0x0097 [0x45] LOAD_SCHEDULED_TASK: Load scheduler "who1" with entities [EventEntity, EventEntity], work=[201*, 0*]
 24: 0x00A8 [0x55] WAIT_LOAD_SCHEDULER: Wait for scheduler "who1" with entities [EventEntity, EventEntity], work=201*
 25: 0x00B7 [0x2C] CREATE_SCHEDULER_TASK: Create scheduler "kill" with entities [Shattered Telepoint (ID: 17220140/0x0106C22C), EventEntity]
 26: 0x00C4 [0x45] LOAD_SCHEDULED_TASK: Load scheduler "fdo0" with entities [EventEntity, EventEntity], work=[200*, 0*]
 27: 0x00D5 [0x1C] WAIT(30* ticks)
 28: 0x00D8 [0x30] SET_UCOFF_CONTINUE_ZERO()
 29: 0x00D9 [0x45] LOAD_SCHEDULED_TASK: Load scheduler "whi1" with entities [EventEntity, EventEntity], work=[201*, 0*]
 30: 0x00EA [0x21] END_EVENT
 31: 0x00EB [0x00] END_REQSTACK()
```

#### Data or dead code:

```
# Dead code (unreachable instructions):
     0x0056 [0x01] GOTO 0x0059
# Dead code (unreachable instructions):
     0x007F [0x01] GOTO 0x0082
```

### Event 915

#### Metadata

| Field        | Value     |
|--------------|-----------|
| Entrypoint   | 0x00EC    |
| Data Size    | 132 bytes |
| Instructions | 22        |

```
      00 01 02 03 04 05 06 07  08 09 0A 0B 0C 0D 0E 0F
      -- -- -- -- -- -- -- --  -- -- -- -- -- -- -- --
00E0:                                      48 12 80 23              H..#
00F0: 24 13 80 0B 80 05 80 25  02 00 10 0B 80 00 0A 01  $......%........
0100: 03 01 10 0C 80 21 00 01  0A 01 42 43 00 43 01 03  .....!....BC.C..
0110: 01 10 0B 80 9F 14 80 F0  FF FF 7F F0 FF FF 7F 6D  ...............m
0120: 61 69 6E 05 80 1C 0F 80  45 10 80 F8 FF FF 7F F8  ain.....E.......
0130: FF FF 7F 77 68 6F 31 05  80 55 10 80 F8 FF FF 7F  ...who1..U......
0140: F8 FF FF 7F 77 68 6F 31  45 07 80 F8 FF FF 7F F8  ....who1E.......
0150: FF FF 7F 66 64 6F 30 05  80 1C 11 80 30 45 10 80  ...fdo0.....0E..
0160: F8 FF FF 7F F8 FF FF 7F  77 68 69 31 05 80 21 00  ........whi1..!.
```

#### Opcodes

```
  0: 0x00EC [0x48] [System] [7228*]:
    → "The telepoint has disappeared..."
  1: 0x00EF [0x23] WAIT_FOR_DIALOG_INTERACTION
  2: 0x00F0 [0x24] CREATE_DIALOG(message_id=7229*, default_option=1*, option_flags=0*)
    → "Investigate the missing telepoint? [Let's see here.../Not right now.]"
  3: 0x00F7 [0x25] WAIT_DIALOG_SELECT()
  4: 0x00F8 [0x02] IF !(Work_Zone[0] == 1*) GOTO 0x010A
  5: 0x0100 [0x03] Work_Zone[1] = 1073741824*
  6: 0x0105 [0x21] END_EVENT
  7: 0x0106 [0x00] END_REQSTACK()

SUBROUTINE_010A:
  8: 0x010A [0x42] SET_CLI_EVENT_CANCEL_DATA()
  9: 0x010B [0x43] SEND_EVENT_UPDATE: Send pending tag to server (packet 0x005B)
 10: 0x010D [0x43] SEND_EVENT_UPDATE: Check pending flag (skip if not pending)
 11: 0x010F [0x03] Work_Zone[1] = 1*
 12: 0x0114 [0x9F] LOAD_SCHEDULED_TASK_ALT: Load scheduler "main" with entities [LocalPlayer, LocalPlayer], work=[75*, 0*]
 13: 0x0125 [0x1C] WAIT(180* ticks)
 14: 0x0128 [0x45] LOAD_SCHEDULED_TASK: Load scheduler "who1" with entities [EventEntity, EventEntity], work=[201*, 0*]
 15: 0x0139 [0x55] WAIT_LOAD_SCHEDULER: Wait for scheduler "who1" with entities [EventEntity, EventEntity], work=201*
 16: 0x0148 [0x45] LOAD_SCHEDULED_TASK: Load scheduler "fdo0" with entities [EventEntity, EventEntity], work=[200*, 0*]
 17: 0x0159 [0x1C] WAIT(30* ticks)
 18: 0x015C [0x30] SET_UCOFF_CONTINUE_ZERO()
 19: 0x015D [0x45] LOAD_SCHEDULED_TASK: Load scheduler "whi1" with entities [EventEntity, EventEntity], work=[201*, 0*]
 20: 0x016E [0x21] END_EVENT
 21: 0x016F [0x00] END_REQSTACK()
```

#### Data or dead code:

```
# Dead code (unreachable instructions):
     0x0107 [0x01] GOTO 0x010A
```

### Event 925

#### Metadata

| Field        | Value     |
|--------------|-----------|
| Entrypoint   | 0x0170    |
| Data Size    | 182 bytes |
| Instructions | 33        |

```
      00 01 02 03 04 05 06 07  08 09 0A 0B 0C 0D 0E 0F
      -- -- -- -- -- -- -- --  -- -- -- -- -- -- -- --
0170: 03 00 00 05 80 02 02 10  05 80 00 82 01 03 00 00  ................
0180: 0B 80 48 12 80 23 24 15  80 16 80 00 00 25 02 00  ..H..#$......%..
0190: 10 05 80 00 A3 01 42 43  00 43 01 03 01 10 0B 80  ......BC.C......
01A0: 01 CA 01 02 00 10 0B 80  00 B8 01 42 43 00 43 01  ...........BC.C.
01B0: 03 01 10 16 80 01 CA 01  02 00 10 16 80 00 CA 01  ................
01C0: 03 01 10 0C 80 21 00 01  CA 01 9F 14 80 F0 FF FF  .....!..........
01D0: 7F F0 FF FF 7F 6D 61 69  6E 05 80 1C 0F 80 45 10  .....main.....E.
01E0: 80 F8 FF FF 7F F8 FF FF  7F 77 68 6F 31 05 80 55  .........who1..U
01F0: 10 80 F8 FF FF 7F F8 FF  FF 7F 77 68 6F 31 45 07  ..........who1E.
0200: 80 F8 FF FF 7F F8 FF FF  7F 66 64 6F 30 05 80 1C  .........fdo0...
0210: 11 80 30 45 10 80 F8 FF  FF 7F F8 FF FF 7F 77 68  ..0E..........wh
0220: 69 31 05 80 21 00                                 i1..!.          
```

#### Opcodes

```
  0: 0x0170 [0x03] ExtData[1]->WorkLocal[0] = 0*
  1: 0x0175 [0x02] IF !(Work_Zone[2] == 0*) GOTO 0x0182
  2: 0x017D [0x03] ExtData[1]->WorkLocal[0] = 1*
  3: 0x0182 [0x48] [System] [7228*]:
    → "The telepoint has disappeared..."
  4: 0x0185 [0x23] WAIT_FOR_DIALOG_INTERACTION
  5: 0x0186 [0x24] CREATE_DIALOG(message_id=12104*, default_option=2*, option_flags=ExtData[1]->WorkLocal[0])
    → "Teleport to where? [Al'Taieu./The Empyreal Paradox./Nowhere.]"
  6: 0x018D [0x25] WAIT_DIALOG_SELECT()
  7: 0x018E [0x02] IF !(Work_Zone[0] == 0*) GOTO 0x01A3
  8: 0x0196 [0x42] SET_CLI_EVENT_CANCEL_DATA()
  9: 0x0197 [0x43] SEND_EVENT_UPDATE: Send pending tag to server (packet 0x005B)
 10: 0x0199 [0x43] SEND_EVENT_UPDATE: Check pending flag (skip if not pending)
 11: 0x019B [0x03] Work_Zone[1] = 1*
 12: 0x01A0 [0x01] GOTO 0x01CA
 13: 0x01A3 [0x02] IF !(Work_Zone[0] == 1*) GOTO 0x01B8
 14: 0x01AB [0x42] SET_CLI_EVENT_CANCEL_DATA()
 15: 0x01AC [0x43] SEND_EVENT_UPDATE: Send pending tag to server (packet 0x005B)
 16: 0x01AE [0x43] SEND_EVENT_UPDATE: Check pending flag (skip if not pending)
 17: 0x01B0 [0x03] Work_Zone[1] = 2*
 18: 0x01B5 [0x01] GOTO 0x01CA
 19: 0x01B8 [0x02] IF !(Work_Zone[0] == 2*) GOTO 0x01CA
 20: 0x01C0 [0x03] Work_Zone[1] = 1073741824*
 21: 0x01C5 [0x21] END_EVENT
 22: 0x01C6 [0x00] END_REQSTACK()

SUBROUTINE_01CA:
 23: 0x01CA [0x9F] LOAD_SCHEDULED_TASK_ALT: Load scheduler "main" with entities [LocalPlayer, LocalPlayer], work=[75*, 0*]
 24: 0x01DB [0x1C] WAIT(180* ticks)
 25: 0x01DE [0x45] LOAD_SCHEDULED_TASK: Load scheduler "who1" with entities [EventEntity, EventEntity], work=[201*, 0*]
 26: 0x01EF [0x55] WAIT_LOAD_SCHEDULER: Wait for scheduler "who1" with entities [EventEntity, EventEntity], work=201*
 27: 0x01FE [0x45] LOAD_SCHEDULED_TASK: Load scheduler "fdo0" with entities [EventEntity, EventEntity], work=[200*, 0*]
 28: 0x020F [0x1C] WAIT(30* ticks)
 29: 0x0212 [0x30] SET_UCOFF_CONTINUE_ZERO()
 30: 0x0213 [0x45] LOAD_SCHEDULED_TASK: Load scheduler "whi1" with entities [EventEntity, EventEntity], work=[201*, 0*]
 31: 0x0224 [0x21] END_EVENT
 32: 0x0225 [0x00] END_REQSTACK()
```

#### Data or dead code:

```
# Dead code (unreachable instructions):
     0x01C7 [0x01] GOTO 0x01CA
```

### Event 926

#### Metadata

| Field        | Value     |
|--------------|-----------|
| Entrypoint   | 0x0226    |
| Data Size    | 182 bytes |
| Instructions | 33        |

```
      00 01 02 03 04 05 06 07  08 09 0A 0B 0C 0D 0E 0F
      -- -- -- -- -- -- -- --  -- -- -- -- -- -- -- --
0220:                   03 00  00 05 80 02 02 10 05 80        ..........
0230: 00 38 02 03 00 00 0B 80  48 12 80 23 24 17 80 16  .8......H..#$...
0240: 80 00 00 25 02 00 10 05  80 00 59 02 42 43 00 43  ...%......Y.BC.C
0250: 01 03 01 10 0B 80 01 80  02 02 00 10 0B 80 00 6E  ...............n
0260: 02 42 43 00 43 01 03 01  10 16 80 01 80 02 02 00  .BC.C...........
0270: 10 16 80 00 80 02 03 01  10 0C 80 21 00 01 80 02  ...........!....
0280: 9F 14 80 F0 FF FF 7F F0  FF FF 7F 6D 61 69 6E 05  ...........main.
0290: 80 1C 0F 80 45 10 80 F8  FF FF 7F F8 FF FF 7F 77  ....E..........w
02A0: 68 6F 31 05 80 55 10 80  F8 FF FF 7F F8 FF FF 7F  ho1..U..........
02B0: 77 68 6F 31 45 07 80 F8  FF FF 7F F8 FF FF 7F 66  who1E..........f
02C0: 64 6F 30 05 80 1C 11 80  30 45 10 80 F8 FF FF 7F  do0.....0E......
02D0: F8 FF FF 7F 77 68 69 31  05 80 21 00              ....whi1..!.    
```

#### Opcodes

```
  0: 0x0226 [0x03] ExtData[1]->WorkLocal[0] = 0*
  1: 0x022B [0x02] IF !(Work_Zone[2] == 0*) GOTO 0x0238
  2: 0x0233 [0x03] ExtData[1]->WorkLocal[0] = 1*
  3: 0x0238 [0x48] [System] [7228*]:
    → "The telepoint has disappeared..."
  4: 0x023B [0x23] WAIT_FOR_DIALOG_INTERACTION
  5: 0x023C [0x24] CREATE_DIALOG(message_id=12105*, default_option=2*, option_flags=ExtData[1]->WorkLocal[0])
    → "Teleport to where? [Al'Taieu./Reisenjima./Nowhere.]"
  6: 0x0243 [0x25] WAIT_DIALOG_SELECT()
  7: 0x0244 [0x02] IF !(Work_Zone[0] == 0*) GOTO 0x0259
  8: 0x024C [0x42] SET_CLI_EVENT_CANCEL_DATA()
  9: 0x024D [0x43] SEND_EVENT_UPDATE: Send pending tag to server (packet 0x005B)
 10: 0x024F [0x43] SEND_EVENT_UPDATE: Check pending flag (skip if not pending)
 11: 0x0251 [0x03] Work_Zone[1] = 1*
 12: 0x0256 [0x01] GOTO 0x0280
 13: 0x0259 [0x02] IF !(Work_Zone[0] == 1*) GOTO 0x026E
 14: 0x0261 [0x42] SET_CLI_EVENT_CANCEL_DATA()
 15: 0x0262 [0x43] SEND_EVENT_UPDATE: Send pending tag to server (packet 0x005B)
 16: 0x0264 [0x43] SEND_EVENT_UPDATE: Check pending flag (skip if not pending)
 17: 0x0266 [0x03] Work_Zone[1] = 2*
 18: 0x026B [0x01] GOTO 0x0280
 19: 0x026E [0x02] IF !(Work_Zone[0] == 2*) GOTO 0x0280
 20: 0x0276 [0x03] Work_Zone[1] = 1073741824*
 21: 0x027B [0x21] END_EVENT
 22: 0x027C [0x00] END_REQSTACK()

SUBROUTINE_0280:
 23: 0x0280 [0x9F] LOAD_SCHEDULED_TASK_ALT: Load scheduler "main" with entities [LocalPlayer, LocalPlayer], work=[75*, 0*]
 24: 0x0291 [0x1C] WAIT(180* ticks)
 25: 0x0294 [0x45] LOAD_SCHEDULED_TASK: Load scheduler "who1" with entities [EventEntity, EventEntity], work=[201*, 0*]
 26: 0x02A5 [0x55] WAIT_LOAD_SCHEDULER: Wait for scheduler "who1" with entities [EventEntity, EventEntity], work=201*
 27: 0x02B4 [0x45] LOAD_SCHEDULED_TASK: Load scheduler "fdo0" with entities [EventEntity, EventEntity], work=[200*, 0*]
 28: 0x02C5 [0x1C] WAIT(30* ticks)
 29: 0x02C8 [0x30] SET_UCOFF_CONTINUE_ZERO()
 30: 0x02C9 [0x45] LOAD_SCHEDULED_TASK: Load scheduler "whi1" with entities [EventEntity, EventEntity], work=[201*, 0*]
 31: 0x02DA [0x21] END_EVENT
 32: 0x02DB [0x00] END_REQSTACK()
```

#### Data or dead code:

```
# Dead code (unreachable instructions):
     0x027D [0x01] GOTO 0x0280
```

### Event 912

#### Metadata

| Field        | Value      |
|--------------|------------|
| Entrypoint   | 0x02DC     |
| Data Size    | 1531 bytes |
| Instructions | 187        |

```
      00 01 02 03 04 05 06 07  08 09 0A 0B 0C 0D 0E 0F
      -- -- -- -- -- -- -- --  -- -- -- -- -- -- -- --
02D0:                                      02 02 10 0B              ....
02E0: 80 00 07 03 48 09 80 23  24 0A 80 0B 80 05 80 25  ....H..#$......%
02F0: 02 00 10 0B 80 00 02 03  03 01 10 0C 80 21 00 01  .............!..
0300: 02 03 42 43 00 43 01 42  45 07 80 F8 FF FF 7F F8  ..BC.C.BE.......
0310: FF FF 7F 66 64 6F 31 05  80 55 07 80 F8 FF FF 7F  ...fdo1..U......
0320: F8 FF FF 7F 66 64 6F 31  38 18 80 37 19 80 1A 80  ....fdo18..7....
0330: 1B 80 1C 80 5C 00 1D 80  5C 01 1D 80 46 01 45 1E  ....\...\...F.E.
0340: 80 F8 FF FF 7F F8 FF FF  7F 73 30 30 30 05 80 45  .........s000..E
0350: 07 80 F8 FF FF 7F F8 FF  FF 7F 66 64 69 31 05 80  ..........fdi1..
0360: 32 1F 80 27 0A 44 C2 06  01 02 27 0A 46 C2 06 01  2..'.D....'.F...
0370: 02 27 0A 45 C2 06 01 02  27 0A 41 C2 06 01 02 27  .'.E....'.A....'
0380: 0A 40 C2 06 01 02 1F 00  20 80 21 80 1B 80 1F 01  .@...... .!.....
0390: 6F 1C 0B 80 6E F0 FF FF  7F 22 80 99 F0 FF FF 7F  o...n...."......
03A0: 1C 11 80 80 44 C2 06 01  80 46 C2 06 01 80 45 C2  ....D....F....E.
03B0: 06 01 52 1E 80 F8 FF FF  7F F8 FF FF 7F 73 30 30  ..R..........s00
03C0: 30 45 1E 80 F8 FF FF 7F  F8 FF FF 7F 73 30 30 31  0E..........s001
03D0: 05 80 27 0A 44 C2 06 01  03 1C 23 80 27 0A 46 C2  ..'.D.....#.'.F.
03E0: 06 01 03 1C 08 80 29 0A  45 C2 06 01 03 1C 11 80  ......).E.......
03F0: 45 07 80 F8 FF FF 7F F8  FF FF 7F 66 64 6F 30 05  E..........fdo0.
0400: 80 55 07 80 F8 FF FF 7F  F8 FF FF 7F 66 64 6F 30  .U..........fdo0
0410: 4E 01 44 C2 06 01 4E 01  46 C2 06 01 45 1E 80 F8  N.D...N.F...E...
0420: FF FF 7F F8 FF FF 7F 73  30 30 32 05 80 45 07 80  .......s002..E..
0430: F8 FF FF 7F F8 FF FF 7F  66 64 69 30 05 80 2B 41  ........fdi0..+A
0440: C2 06 01 24 80 23 55 1E  80 F8 FF FF 7F F8 FF FF  ...$.#U.........
0450: 7F 73 30 30 32 45 07 80  F8 FF FF 7F F8 FF FF 7F  .s002E..........
0460: 66 64 6F 30 05 80 55 07  80 F8 FF FF 7F F8 FF FF  fdo0..U.........
0470: 7F 66 64 6F 30 29 0A 3F  C2 06 01 02 45 1E 80 F8  .fdo0).?....E...
0480: FF FF 7F F8 FF FF 7F 73  30 30 33 05 80 1C 16 80  .......s003.....
0490: 4A F0 FF FF 7F 41 C2 06  01 45 07 80 F8 FF FF 7F  J....A...E......
04A0: F8 FF FF 7F 66 64 69 30  05 80 02 03 10 05 80 00  ....fdi0........
04B0: BD 04 2B 41 C2 06 01 25  80 23 01 C5 04 2B 41 C2  ..+A...%.#...+A.
04C0: 06 01 26 80 23 45 1E 80  F8 FF FF 7F F8 FF FF 7F  ..&.#E..........
04D0: 73 30 30 34 05 80 79 00  3F C2 06 01 F0 FF FF 7F  s004..y.?.......
04E0: 27 0A 3F C2 06 01 03 1C  08 80 2B 3F C2 06 01 27  '.?.......+?...'
04F0: 80 23 2A 0A 3F C2 06 01  5B 28 80 3F C2 06 01 3F  .#*.?...[(.?...?
0500: C2 06 01 74 6C 6B 30 2B  3F C2 06 01 29 80 23 5B  ...tlk0+?...).#[
0510: 28 80 3F C2 06 01 3F C2  06 01 74 6C 6B 31 55 1E  (.?...?...tlk1U.
0520: 80 F8 FF FF 7F F8 FF FF  7F 73 30 30 34 45 07 80  .........s004E..
0530: F8 FF FF 7F F8 FF FF 7F  66 64 6F 30 05 80 55 07  ........fdo0..U.
0540: 80 F8 FF FF 7F F8 FF FF  7F 66 64 6F 30 45 1E 80  .........fdo0E..
0550: F8 FF FF 7F F8 FF FF 7F  73 30 30 35 05 80 27 0A  ........s005..'.
0560: 43 C2 06 01 02 29 0A 42  C2 06 01 04 2A 0A 43 C2  C....).B....*.C.
0570: 06 01 27 0A 43 C2 06 01  03 27 0A 42 C2 06 01 05  ..'.C....'.B....
0580: 45 07 80 F8 FF FF 7F F8  FF FF 7F 66 64 69 31 05  E..........fdi1.
0590: 80 1C 2A 80 45 07 80 F8  FF FF 7F F8 FF FF 7F 66  ..*.E..........f
05A0: 64 6F 32 05 80 55 07 80  F8 FF FF 7F F8 FF FF 7F  do2..U..........
05B0: 66 64 6F 32 52 1E 80 F8  FF FF 7F F8 FF FF 7F 73  fdo2R..........s
05C0: 30 30 35 45 1E 80 F8 FF  FF 7F F8 FF FF 7F 73 30  005E..........s0
05D0: 30 36 05 80 27 0A 42 C2  06 01 02 27 0A 47 C2 06  06..'.B....'.G..
05E0: 01 02 79 00 3F C2 06 01  42 C2 06 01 79 00 42 C2  ..y.?...B...y.B.
05F0: 06 01 3F C2 06 01 79 00  41 C2 06 01 42 C2 06 01  ..?...y.A...B...
0600: 79 00 40 C2 06 01 42 C2  06 01 27 0A 40 C2 06 01  y.@...B...'.@...
0610: 03 27 0A 41 C2 06 01 03  1C 11 80 52 1E 80 F8 FF  .'.A.......R....
0620: FF 7F F8 FF FF 7F 73 30  30 36 80 42 C2 06 01 27  ......s006.B...'
0630: 0A 42 C2 06 01 03 45 1E  80 F8 FF FF 7F F8 FF FF  .B....E.........
0640: 7F 73 30 30 36 05 80 45  07 80 F8 FF FF 7F F8 FF  .s006..E........
0650: FF 7F 66 64 69 32 05 80  1C 2B 80 2B 42 C2 06 01  ..fdi2...+.+B...
0660: 2C 80 23 2A 0A 42 C2 06  01 27 0A 3F C2 06 01 04  ,.#*.B...'.?....
0670: 2B 3F C2 06 01 2D 80 23  2A 0A 3F C2 06 01 5B 28  +?...-.#*.?...[(
0680: 80 3F C2 06 01 3F C2 06  01 6B 6E 67 30 2B 3F C2  .?...?...kng0+?.
0690: 06 01 2E 80 23 5B 28 80  3F C2 06 01 3F C2 06 01  ....#[(.?...?...
06A0: 6B 6E 67 31 55 1E 80 F8  FF FF 7F F8 FF FF 7F 73  kng1U..........s
06B0: 30 30 36 45 1E 80 F8 FF  FF 7F F8 FF FF 7F 73 30  006E..........s0
06C0: 30 37 05 80 2B 3F C2 06  01 2F 80 23 5B 28 80 3F  07..+?.../.#[(.?
06D0: C2 06 01 3F C2 06 01 74  6C 6B 30 2B 3F C2 06 01  ...?...tlk0+?...
06E0: 30 80 23 5B 28 80 3F C2  06 01 3F C2 06 01 74 6C  0.#[(.?...?...tl
06F0: 6B 31 2B 3F C2 06 01 31  80 23 5B 28 80 3F C2 06  k1+?...1.#[(.?..
0700: 01 3F C2 06 01 6B 61 6B  30 2B 3F C2 06 01 32 80  .?...kak0+?...2.
0710: 23 55 1E 80 F8 FF FF 7F  F8 FF FF 7F 73 30 30 37  #U..........s007
0720: 45 1E 80 F8 FF FF 7F F8  FF FF 7F 73 30 30 38 05  E..........s008.
0730: 80 7B 42 C2 06 01 2B 42  C2 06 01 33 80 23 5B 28  .{B...+B...3.#[(
0740: 80 3F C2 06 01 3F C2 06  01 6B 61 6B 31 2B 3F C2  .?...?...kak1+?.
0750: 06 01 34 80 23 52 1E 80  F8 FF FF 7F F8 FF FF 7F  ..4.#R..........
0760: 73 30 30 38 45 1E 80 F8  FF FF 7F F8 FF FF 7F 73  s008E..........s
0770: 30 34 36 05 80 2B 42 C2  06 01 35 80 23 79 00 42  046..+B...5.#y.B
0780: C2 06 01 3F C2 06 01 2B  42 C2 06 01 36 80 23 52  ...?...+B...6.#R
0790: 1E 80 F8 FF FF 7F F8 FF  FF 7F 73 30 34 36 55 1E  ..........s046U.
07A0: 80 F8 FF FF 7F F8 FF FF  7F 73 30 30 38 45 1E 80  .........s008E..
07B0: F8 FF FF 7F F8 FF FF 7F  73 30 30 37 05 80 5B 28  ........s007..[(
07C0: 80 3F C2 06 01 3F C2 06  01 74 65 66 30 2B 3F C2  .?...?...tef0+?.
07D0: 06 01 37 80 23 2B 3F C2  06 01 38 80 23 2C 2C C2  ..7.#+?...8.#,,.
07E0: 06 01 F8 FF FF 7F 70 6B  30 30 1C 2A 80 27 0A 41  ......pk00.*.'.A
07F0: C2 06 01 04 52 1E 80 F8  FF FF 7F F8 FF FF 7F 73  ....R..........s
0800: 30 30 37 45 1E 80 F8 FF  FF 7F F8 FF FF 7F 73 30  007E..........s0
0810: 30 39 05 80 4A 3F C2 06  01 F0 FF FF 7F 4A 42 C2  09..J?.......JB.
0820: 06 01 F0 FF FF 7F 79 00  41 C2 06 01 F0 FF FF 7F  ......y.A.......
0830: 1C 08 80 2B 41 C2 06 01  39 80 23 52 1E 80 F8 FF  ...+A...9.#R....
0840: FF 7F F8 FF FF 7F 73 30  30 39 45 1E 80 F8 FF FF  ......s009E.....
0850: 7F F8 FF FF 7F 73 30 31  30 05 80 1C 08 80 4B F0  .....s010.....K.
0860: FF FF 7F 05 80 1C 06 80  5D 05 80 2A 80 45 10 80  ........]..*.E..
0870: F8 FF FF 7F F8 FF FF 7F  77 68 6F 31 05 80 55 10  ........who1..U.
0880: 80 F8 FF FF 7F F8 FF FF  7F 77 68 6F 31 2C 2C C2  .........who1,,.
0890: 06 01 F8 FF FF 7F 6B 69  6C 6C 5C 00 05 80 5C 01  ......kill\...\.
08A0: 05 80 02 02 10 0B 80 00  C2 08 30 45 07 80 F8 FF  ..........0E....
08B0: FF 7F F8 FF FF 7F 66 64  6F 30 05 80 1C 11 80 01  ......fdo0......
08C0: C4 08 46 00 45 10 80 F8  FF FF 7F F8 FF FF 7F 77  ..F.E..........w
08D0: 68 69 31 05 80 21 00                              hi1..!.         
```

#### Opcodes

```
  0: 0x02DC [0x02] IF !(Work_Zone[2] == 1*) GOTO 0x0307
  1: 0x02E4 [0x48] [System] [7495*]:
    → "The telepoint has been shattered into a thousand pieces..."
  2: 0x02E7 [0x23] WAIT_FOR_DIALOG_INTERACTION
  3: 0x02E8 [0x24] CREATE_DIALOG(message_id=7496*, default_option=1*, option_flags=0*)
    → "Investigate further? [Yes./No.]"
  4: 0x02EF [0x25] WAIT_DIALOG_SELECT()
  5: 0x02F0 [0x02] IF !(Work_Zone[0] == 1*) GOTO 0x0302
  6: 0x02F8 [0x03] Work_Zone[1] = 1073741824*
  7: 0x02FD [0x21] END_EVENT
  8: 0x02FE [0x00] END_REQSTACK()

SUBROUTINE_0302:
  9: 0x0302 [0x42] SET_CLI_EVENT_CANCEL_DATA()
 10: 0x0303 [0x43] SEND_EVENT_UPDATE: Send pending tag to server (packet 0x005B)
 11: 0x0305 [0x43] SEND_EVENT_UPDATE: Check pending flag (skip if not pending)
 12: 0x0307 [0x42] SET_CLI_EVENT_CANCEL_DATA()
 13: 0x0308 [0x45] LOAD_SCHEDULED_TASK: Load scheduler "fdo1" with entities [EventEntity, EventEntity], work=[200*, 0*]
 14: 0x0319 [0x55] WAIT_LOAD_SCHEDULER: Wait for scheduler "fdo1" with entities [EventEntity, EventEntity], work=200*
 15: 0x0328 [0x38] SET_CLIENT_EVENT_MODE(mode=19*)
 16: 0x032B [0x37] UPDATE_EVENT_POSITION_AND_DIR: x=135.470*, z=220.343*, y=19.104*, direction=351.6°*
 17: 0x0334 [0x5C] MUSIC_CONTROL: Set Idle (Day) music to song 161*
 18: 0x0338 [0x5C] MUSIC_CONTROL: Set Idle (Night) music to song 161*
 19: 0x033C [0x46] CAMERA_CONTROL: Disable user control
 20: 0x033E [0x45] LOAD_SCHEDULED_TASK: Load scheduler "s000" with entities [EventEntity, EventEntity], work=[3*, 0*]
 21: 0x034F [0x45] LOAD_SCHEDULED_TASK: Load scheduler "fdi1" with entities [EventEntity, EventEntity], work=[200*, 0*]
 22: 0x0360 [0x32] ExtData[1]->MainSpeed = 13* * 0.1
 23: 0x0363 [0x27] REQ_SET(priority=0x0A, entity_id=Unnamed NPC (ID: 17220164/0x0106C244), tag_num=0x02)
 24: 0x036A [0x27] REQ_SET(priority=0x0A, entity_id=Unnamed NPC (ID: 17220166/0x0106C246), tag_num=0x02)
 25: 0x0371 [0x27] REQ_SET(priority=0x0A, entity_id=Unnamed NPC (ID: 17220165/0x0106C245), tag_num=0x02)
 26: 0x0378 [0x27] REQ_SET(priority=0x0A, entity_id=Ayame (ID: 17220161/0x0106C241), tag_num=0x02)
 27: 0x037F [0x27] REQ_SET(priority=0x0A, entity_id=Naji (ID: 17220160/0x0106C240), tag_num=0x02)
 28: 0x0386 [0x1F] MOVE_ENTITY: EventEntity moves to X=138.234*, Z=219.905*, Y=19.104*
 29: 0x038E [0x1F] MOVE_ENTITY: Update entity position (mode=1)
 30: 0x0390 [0x6F] WAIT_FRAME_DELAY: Yield until WaitTime reaches zero
 31: 0x0391 [0x1C] WAIT(1* ticks)
 32: 0x0394 [0x6E] LocalPlayer uses emote 39*
 33: 0x039B [0x99] Wait for LocalPlayer animation to complete
 34: 0x03A0 [0x1C] WAIT(30* ticks)
 35: 0x03A3 [0x80] LOAD_WAIT(entity=Unnamed NPC (ID: 17220164/0x0106C244))
 36: 0x03A8 [0x80] LOAD_WAIT(entity=Unnamed NPC (ID: 17220166/0x0106C246))
 37: 0x03AD [0x80] LOAD_WAIT(entity=Unnamed NPC (ID: 17220165/0x0106C245))
 38: 0x03B2 [0x52] END_LOAD_SCHEDULER: End scheduler "s000" with entities [EventEntity, EventEntity], work=3*
 39: 0x03C1 [0x45] LOAD_SCHEDULED_TASK: Load scheduler "s001" with entities [EventEntity, EventEntity], work=[3*, 0*]
 40: 0x03D2 [0x27] REQ_SET(priority=0x0A, entity_id=Unnamed NPC (ID: 17220164/0x0106C244), tag_num=0x03)
 41: 0x03D9 [0x1C] WAIT(45* ticks)
 42: 0x03DC [0x27] REQ_SET(priority=0x0A, entity_id=Unnamed NPC (ID: 17220166/0x0106C246), tag_num=0x03)
 43: 0x03E3 [0x1C] WAIT(60* ticks)
 44: 0x03E6 [0x29] REQ_SET_WAIT(priority=0x0A, entity_id=Unnamed NPC (ID: 17220165/0x0106C245), tag_num=0x03)
 45: 0x03ED [0x1C] WAIT(30* ticks)
 46: 0x03F0 [0x45] LOAD_SCHEDULED_TASK: Load scheduler "fdo0" with entities [EventEntity, EventEntity], work=[200*, 0*]
 47: 0x0401 [0x55] WAIT_LOAD_SCHEDULER: Wait for scheduler "fdo0" with entities [EventEntity, EventEntity], work=200*
 48: 0x0410 [0x4E] SET_ENTITY_HIDE_FLAG: Hide Unnamed NPC (ID: 17220164/0x0106C244)
 49: 0x0416 [0x4E] SET_ENTITY_HIDE_FLAG: Hide Unnamed NPC (ID: 17220166/0x0106C246)
 50: 0x041C [0x45] LOAD_SCHEDULED_TASK: Load scheduler "s002" with entities [EventEntity, EventEntity], work=[3*, 0*]
 51: 0x042D [0x45] LOAD_SCHEDULED_TASK: Load scheduler "fdi0" with entities [EventEntity, EventEntity], work=[200*, 0*]
 52: 0x043E [0x2B] Ayame (ID: 17220161/0x0106C241) [7499*]:
    → "Hm...? Someone seems to have arrived here before us."
 53: 0x0445 [0x23] WAIT_FOR_DIALOG_INTERACTION
 54: 0x0446 [0x55] WAIT_LOAD_SCHEDULER: Wait for scheduler "s002" with entities [EventEntity, EventEntity], work=3*
 55: 0x0455 [0x45] LOAD_SCHEDULED_TASK: Load scheduler "fdo0" with entities [EventEntity, EventEntity], work=[200*, 0*]
 56: 0x0466 [0x55] WAIT_LOAD_SCHEDULER: Wait for scheduler "fdo0" with entities [EventEntity, EventEntity], work=200*
 57: 0x0475 [0x29] REQ_SET_WAIT(priority=0x0A, entity_id=Cid (ID: 17220159/0x0106C23F), tag_num=0x02)
 58: 0x047C [0x45] LOAD_SCHEDULED_TASK: Load scheduler "s003" with entities [EventEntity, EventEntity], work=[3*, 0*]
 59: 0x048D [0x1C] WAIT(2* ticks)
 60: 0x0490 [0x4A] LocalPlayer looks at Ayame (ID: 17220161/0x0106C241)
 61: 0x0499 [0x45] LOAD_SCHEDULED_TASK: Load scheduler "fdi0" with entities [EventEntity, EventEntity], work=[200*, 0*]
 62: 0x04AA [0x02] IF !(Work_Zone[3] == 0*) GOTO 0x04BD
 63: 0x04B2 [0x2B] Ayame (ID: 17220161/0x0106C241) [7500*]:
    → "<Player>, state your reason for coming here."
 64: 0x04B9 [0x23] WAIT_FOR_DIALOG_INTERACTION
 65: 0x04BA [0x01] GOTO 0x04C5
 66: 0x04BD [0x2B] Ayame (ID: 17220161/0x0106C241) [7501*]:
    → "You! What are you doing here?"
 67: 0x04C4 [0x23] WAIT_FOR_DIALOG_INTERACTION

SUBROUTINE_04C5:
 68: 0x04C5 [0x45] LOAD_SCHEDULED_TASK: Load scheduler "s004" with entities [EventEntity, EventEntity], work=[3*, 0*]
 69: 0x04D6 [0x79] Cid (ID: 17220159/0x0106C23F) looks at LocalPlayer (Basic look)
 70: 0x04E0 [0x27] REQ_SET(priority=0x0A, entity_id=Cid (ID: 17220159/0x0106C23F), tag_num=0x03)
 71: 0x04E7 [0x1C] WAIT(60* ticks)
 72: 0x04EA [0x2B] Cid (ID: 17220159/0x0106C23F) [7502*]:
    → "Calm down, Ayame. [He's/She's] an adventurer. It's [his/her] job to go adventuring."
 73: 0x04F1 [0x23] WAIT_FOR_DIALOG_INTERACTION
 74: 0x04F2 [0x2A] GET_REQ_LEVEL(level=10, entity_id=Cid (ID: 17220159/0x0106C23F))
 75: 0x04F8 [0x5B] LOAD_EXT_SCHEDULER: Load scheduler "tlk0" with entities [Cid (ID: 17220159/0x0106C23F), Cid (ID: 17220159/0x0106C23F)], work=110*
 76: 0x0507 [0x2B] Cid (ID: 17220159/0x0106C23F) [7503*]:
    → "We're here to investigate something. It could get pretty dangerous, so I suggest taking a few steps back if you know what's good for you."
 77: 0x050E [0x23] WAIT_FOR_DIALOG_INTERACTION
 78: 0x050F [0x5B] LOAD_EXT_SCHEDULER: Load scheduler "tlk1" with entities [Cid (ID: 17220159/0x0106C23F), Cid (ID: 17220159/0x0106C23F)], work=110*
 79: 0x051E [0x55] WAIT_LOAD_SCHEDULER: Wait for scheduler "s004" with entities [EventEntity, EventEntity], work=3*
 80: 0x052D [0x45] LOAD_SCHEDULED_TASK: Load scheduler "fdo0" with entities [EventEntity, EventEntity], work=[200*, 0*]
 81: 0x053E [0x55] WAIT_LOAD_SCHEDULER: Wait for scheduler "fdo0" with entities [EventEntity, EventEntity], work=200*
 82: 0x054D [0x45] LOAD_SCHEDULED_TASK: Load scheduler "s005" with entities [EventEntity, EventEntity], work=[3*, 0*]
 83: 0x055E [0x27] REQ_SET(priority=0x0A, entity_id=Chapi Galepilai (ID: 17220163/0x0106C243), tag_num=0x02)
 84: 0x0565 [0x29] REQ_SET_WAIT(priority=0x0A, entity_id=Wolfgang (ID: 17220162/0x0106C242), tag_num=0x04)
 85: 0x056C [0x2A] GET_REQ_LEVEL(level=10, entity_id=Chapi Galepilai (ID: 17220163/0x0106C243))
 86: 0x0572 [0x27] REQ_SET(priority=0x0A, entity_id=Chapi Galepilai (ID: 17220163/0x0106C243), tag_num=0x03)
 87: 0x0579 [0x27] REQ_SET(priority=0x0A, entity_id=Wolfgang (ID: 17220162/0x0106C242), tag_num=0x05)
 88: 0x0580 [0x45] LOAD_SCHEDULED_TASK: Load scheduler "fdi1" with entities [EventEntity, EventEntity], work=[200*, 0*]
 89: 0x0591 [0x1C] WAIT(90* ticks)
 90: 0x0594 [0x45] LOAD_SCHEDULED_TASK: Load scheduler "fdo2" with entities [EventEntity, EventEntity], work=[200*, 0*]
 91: 0x05A5 [0x55] WAIT_LOAD_SCHEDULER: Wait for scheduler "fdo2" with entities [EventEntity, EventEntity], work=200*
 92: 0x05B4 [0x52] END_LOAD_SCHEDULER: End scheduler "s005" with entities [EventEntity, EventEntity], work=3*
 93: 0x05C3 [0x45] LOAD_SCHEDULED_TASK: Load scheduler "s006" with entities [EventEntity, EventEntity], work=[3*, 0*]
 94: 0x05D4 [0x27] REQ_SET(priority=0x0A, entity_id=Wolfgang (ID: 17220162/0x0106C242), tag_num=0x02)
 95: 0x05DB [0x27] REQ_SET(priority=0x0A, entity_id=Unnamed NPC (ID: 17220167/0x0106C247), tag_num=0x02)
 96: 0x05E2 [0x79] Cid (ID: 17220159/0x0106C23F) looks at Wolfgang (ID: 17220162/0x0106C242) (Basic look)
 97: 0x05EC [0x79] Wolfgang (ID: 17220162/0x0106C242) looks at Cid (ID: 17220159/0x0106C23F) (Basic look)
 98: 0x05F6 [0x79] Ayame (ID: 17220161/0x0106C241) looks at Wolfgang (ID: 17220162/0x0106C242) (Basic look)
 99: 0x0600 [0x79] Naji (ID: 17220160/0x0106C240) looks at Wolfgang (ID: 17220162/0x0106C242) (Basic look)
100: 0x060A [0x27] REQ_SET(priority=0x0A, entity_id=Naji (ID: 17220160/0x0106C240), tag_num=0x03)
101: 0x0611 [0x27] REQ_SET(priority=0x0A, entity_id=Ayame (ID: 17220161/0x0106C241), tag_num=0x03)
102: 0x0618 [0x1C] WAIT(30* ticks)
103: 0x061B [0x52] END_LOAD_SCHEDULER: End scheduler "s006" with entities [EventEntity, EventEntity], work=3*
104: 0x062A [0x80] LOAD_WAIT(entity=Wolfgang (ID: 17220162/0x0106C242))
105: 0x062F [0x27] REQ_SET(priority=0x0A, entity_id=Wolfgang (ID: 17220162/0x0106C242), tag_num=0x03)
106: 0x0636 [0x45] LOAD_SCHEDULED_TASK: Load scheduler "s006" with entities [EventEntity, EventEntity], work=[3*, 0*]
107: 0x0647 [0x45] LOAD_SCHEDULED_TASK: Load scheduler "fdi2" with entities [EventEntity, EventEntity], work=[200*, 0*]
108: 0x0658 [0x1C] WAIT(100* ticks)
109: 0x065B [0x2B] Wolfgang (ID: 17220162/0x0106C242) [7504*]:
    → "Why, Cid. What business do you have here today?"
110: 0x0662 [0x23] WAIT_FOR_DIALOG_INTERACTION
111: 0x0663 [0x2A] GET_REQ_LEVEL(level=10, entity_id=Wolfgang (ID: 17220162/0x0106C242))
112: 0x0669 [0x27] REQ_SET(priority=0x0A, entity_id=Cid (ID: 17220159/0x0106C23F), tag_num=0x04)
113: 0x0670 [0x2B] Cid (ID: 17220159/0x0106C23F) [7505*]:
    → "Well, if it isn't little Wolfgang. How have you been?"
114: 0x0677 [0x23] WAIT_FOR_DIALOG_INTERACTION
115: 0x0678 [0x2A] GET_REQ_LEVEL(level=10, entity_id=Cid (ID: 17220159/0x0106C23F))
116: 0x067E [0x5B] LOAD_EXT_SCHEDULER: Load scheduler "kng0" with entities [Cid (ID: 17220159/0x0106C23F), Cid (ID: 17220159/0x0106C23F)], work=110*
117: 0x068D [0x2B] Cid (ID: 17220159/0x0106C23F) [7506*]:
    → "We're here to check out the Crystal Line. Recently I've been receiving some very strange readings from this area."
118: 0x0694 [0x23] WAIT_FOR_DIALOG_INTERACTION
119: 0x0695 [0x5B] LOAD_EXT_SCHEDULER: Load scheduler "kng1" with entities [Cid (ID: 17220159/0x0106C23F), Cid (ID: 17220159/0x0106C23F)], work=110*
120: 0x06A4 [0x55] WAIT_LOAD_SCHEDULER: Wait for scheduler "s006" with entities [EventEntity, EventEntity], work=3*
121: 0x06B3 [0x45] LOAD_SCHEDULED_TASK: Load scheduler "s007" with entities [EventEntity, EventEntity], work=[3*, 0*]
122: 0x06C4 [0x2B] Cid (ID: 17220159/0x0106C23F) [7507*]:
    → "According to the data retrieved by a Republican party that visited here last month, the once stable energy flow has begun to fluctuate."
123: 0x06CB [0x23] WAIT_FOR_DIALOG_INTERACTION
124: 0x06CC [0x5B] LOAD_EXT_SCHEDULER: Load scheduler "tlk0" with entities [Cid (ID: 17220159/0x0106C23F), Cid (ID: 17220159/0x0106C23F)], work=110*
125: 0x06DB [0x2B] Cid (ID: 17220159/0x0106C23F) [7508*]:
    → "I've never seen such high readings..."
126: 0x06E2 [0x23] WAIT_FOR_DIALOG_INTERACTION
127: 0x06E3 [0x5B] LOAD_EXT_SCHEDULER: Load scheduler "tlk1" with entities [Cid (ID: 17220159/0x0106C23F), Cid (ID: 17220159/0x0106C23F)], work=110*
128: 0x06F2 [0x2B] Cid (ID: 17220159/0x0106C23F) [7509*]:
    → "The flow of energy is so overwhelming that the Telepoint you see over there was shattered to pieces! And now there are reports that a giant beast appeared over the sea, just to the north of Delkfutt's Tower."
129: 0x06F9 [0x23] WAIT_FOR_DIALOG_INTERACTION
130: 0x06FA [0x5B] LOAD_EXT_SCHEDULER: Load scheduler "kak0" with entities [Cid (ID: 17220159/0x0106C23F), Cid (ID: 17220159/0x0106C23F)], work=110*
131: 0x0709 [0x2B] Cid (ID: 17220159/0x0106C23F) [7510*]:
    → "I have a bad feeling that these two events are connected, and that they're warning us of something worse to come."
132: 0x0710 [0x23] WAIT_FOR_DIALOG_INTERACTION
133: 0x0711 [0x55] WAIT_LOAD_SCHEDULER: Wait for scheduler "s007" with entities [EventEntity, EventEntity], work=3*
134: 0x0720 [0x45] LOAD_SCHEDULED_TASK: Load scheduler "s008" with entities [EventEntity, EventEntity], work=[3*, 0*]
135: 0x0731 [0x7B] Wolfgang (ID: 17220162/0x0106C242) stops talking
136: 0x0736 [0x2B] Wolfgang (ID: 17220162/0x0106C242) [7511*]:
    → "... I understand that research inclines you to pursue these matters. However, I ask that you leave the investigation to the Duchy."
137: 0x073D [0x23] WAIT_FOR_DIALOG_INTERACTION
138: 0x073E [0x5B] LOAD_EXT_SCHEDULER: Load scheduler "kak1" with entities [Cid (ID: 17220159/0x0106C23F), Cid (ID: 17220159/0x0106C23F)], work=110*
139: 0x074D [0x2B] Cid (ID: 17220159/0x0106C23F) [7512*]:
    → "Eh? So the Duchy knows the cause of all these strange phenomena?"
140: 0x0754 [0x23] WAIT_FOR_DIALOG_INTERACTION
141: 0x0755 [0x52] END_LOAD_SCHEDULER: End scheduler "s008" with entities [EventEntity, EventEntity], work=3*
142: 0x0764 [0x45] LOAD_SCHEDULED_TASK: Load scheduler "s046" with entities [EventEntity, EventEntity], work=[3*, 0*]
143: 0x0775 [0x2B] Wolfgang (ID: 17220162/0x0106C242) [7513*]:
    → "Not exactly. We have numerous parties investigating the situation. However, many of those sent into the field have...vanished."
144: 0x077C [0x23] WAIT_FOR_DIALOG_INTERACTION
145: 0x077D [0x79] Wolfgang (ID: 17220162/0x0106C242) looks at Cid (ID: 17220159/0x0106C23F) (Basic look)
146: 0x0787 [0x2B] Wolfgang (ID: 17220162/0x0106C242) [7514*]:
    → "We cannot allow any more accidents. The damage to Vana'diel would be great if we were to lose such an important engineer as you, Cid."
147: 0x078E [0x23] WAIT_FOR_DIALOG_INTERACTION
148: 0x078F [0x52] END_LOAD_SCHEDULER: End scheduler "s046" with entities [EventEntity, EventEntity], work=3*
149: 0x079E [0x55] WAIT_LOAD_SCHEDULER: Wait for scheduler "s008" with entities [EventEntity, EventEntity], work=3*
150: 0x07AD [0x45] LOAD_SCHEDULED_TASK: Load scheduler "s007" with entities [EventEntity, EventEntity], work=[3*, 0*]
151: 0x07BE [0x5B] LOAD_EXT_SCHEDULER: Load scheduler "tef0" with entities [Cid (ID: 17220159/0x0106C23F), Cid (ID: 17220159/0x0106C23F)], work=110*
152: 0x07CD [0x2B] Cid (ID: 17220159/0x0106C23F) [7515*]:
    → "Hah! Let me guess... The scientists back in Jeuno told you to get rid of all those who got in their way."
153: 0x07D4 [0x23] WAIT_FOR_DIALOG_INTERACTION
154: 0x07D5 [0x2B] Cid (ID: 17220159/0x0106C23F) [7516*]:
    → "Who do they think they are!? Come to think of it, I have good reason to believe that it's those lunatics that are causing all this trouble!"
155: 0x07DC [0x23] WAIT_FOR_DIALOG_INTERACTION
156: 0x07DD [0x2C] CREATE_SCHEDULER_TASK: Create scheduler "pk00" with entities [Shattered Telepoint (ID: 17220140/0x0106C22C), EventEntity]
157: 0x07EA [0x1C] WAIT(90* ticks)
158: 0x07ED [0x27] REQ_SET(priority=0x0A, entity_id=Ayame (ID: 17220161/0x0106C241), tag_num=0x04)
159: 0x07F4 [0x52] END_LOAD_SCHEDULER: End scheduler "s007" with entities [EventEntity, EventEntity], work=3*
160: 0x0803 [0x45] LOAD_SCHEDULED_TASK: Load scheduler "s009" with entities [EventEntity, EventEntity], work=[3*, 0*]
161: 0x0814 [0x4A] Cid (ID: 17220159/0x0106C23F) looks at LocalPlayer
162: 0x081D [0x4A] Wolfgang (ID: 17220162/0x0106C242) looks at LocalPlayer
163: 0x0826 [0x79] Ayame (ID: 17220161/0x0106C241) looks at LocalPlayer (Basic look)
164: 0x0830 [0x1C] WAIT(60* ticks)
165: 0x0833 [0x2B] Ayame (ID: 17220161/0x0106C241) [7517*]:
    → "Wh-what is going on!?"
166: 0x083A [0x23] WAIT_FOR_DIALOG_INTERACTION
167: 0x083B [0x52] END_LOAD_SCHEDULER: End scheduler "s009" with entities [EventEntity, EventEntity], work=3*
168: 0x084A [0x45] LOAD_SCHEDULED_TASK: Load scheduler "s010" with entities [EventEntity, EventEntity], work=[3*, 0*]
169: 0x085B [0x1C] WAIT(60* ticks)
170: 0x085E [0x4B] UPDATE_ENTITY_YAW(entity=LocalPlayer, yaw=0.0°*)
171: 0x0865 [0x1C] WAIT(240* ticks)
172: 0x0868 [0x5D] SET_MUSIC_VOLUME(volume=0*, fade_time=90*)
173: 0x086D [0x45] LOAD_SCHEDULED_TASK: Load scheduler "who1" with entities [EventEntity, EventEntity], work=[201*, 0*]
174: 0x087E [0x55] WAIT_LOAD_SCHEDULER: Wait for scheduler "who1" with entities [EventEntity, EventEntity], work=201*
175: 0x088D [0x2C] CREATE_SCHEDULER_TASK: Create scheduler "kill" with entities [Shattered Telepoint (ID: 17220140/0x0106C22C), EventEntity]
176: 0x089A [0x5C] MUSIC_CONTROL: Set Idle (Day) music to song 0*
177: 0x089E [0x5C] MUSIC_CONTROL: Set Idle (Night) music to song 0*
178: 0x08A2 [0x02] IF !(Work_Zone[2] == 1*) GOTO 0x08C2
179: 0x08AA [0x30] SET_UCOFF_CONTINUE_ZERO()
180: 0x08AB [0x45] LOAD_SCHEDULED_TASK: Load scheduler "fdo0" with entities [EventEntity, EventEntity], work=[200*, 0*]
181: 0x08BC [0x1C] WAIT(30* ticks)
182: 0x08BF [0x01] GOTO 0x08C4
183: 0x08C2 [0x46] CAMERA_CONTROL: Restore default settings

SUBROUTINE_08C4:
184: 0x08C4 [0x45] LOAD_SCHEDULED_TASK: Load scheduler "whi1" with entities [EventEntity, EventEntity], work=[201*, 0*]
185: 0x08D5 [0x21] END_EVENT
186: 0x08D6 [0x00] END_REQSTACK()
```

#### Data or dead code:

```
# Dead code (unreachable instructions):
     0x02FF [0x01] GOTO 0x0302
```

### Event 918

#### Metadata

| Field        | Value     |
|--------------|-----------|
| Entrypoint   | 0x08D7    |
| Data Size    | 120 bytes |
| Instructions | 26        |

```
      00 01 02 03 04 05 06 07  08 09 0A 0B 0C 0D 0E 0F
      -- -- -- -- -- -- -- --  -- -- -- -- -- -- -- --
08D0:                      48  3A 80 23 48 3B 80 23 48         H:.#H;.#H
08E0: 3C 80 23 24 3D 80 0B 80  05 80 25 02 00 10 0B 80  <.#$=.....%.....
08F0: 00 FD 08 03 01 10 0C 80  21 00 01 FD 08 24 3E 80  ........!....$>.
0900: 0B 80 05 80 25 02 00 10  0B 80 00 17 09 03 01 10  ....%...........
0910: 0C 80 21 00 01 17 09 42  43 00 43 01 45 10 80 F0  ..!....BC.C.E...
0920: FF FF 7F F0 FF FF 7F 77  68 6F 31 05 80 55 10 80  .......who1..U..
0930: F0 FF FF 7F F0 FF FF 7F  77 68 6F 31 45 10 80 F0  ........who1E...
0940: FF FF 7F F0 FF FF 7F 77  68 69 31 05 80 21 00     .......whi1..!. 
```

#### Opcodes

```
  0: 0x08D7 [0x48] [System] [7603*]:
    → "Your fate is currently entwined in the swirling mists of [Promyvion - Holla/Promyvion - Dem/Promyvion - Mea]."
  1: 0x08DA [0x23] WAIT_FOR_DIALOG_INTERACTION
  2: 0x08DB [0x48] [System] [7604*]:
    → "By sealing off a portion of your memory, your destiny within this realm of Promyvion can be altered."
  3: 0x08DE [0x23] WAIT_FOR_DIALOG_INTERACTION
  4: 0x08DF [0x48] [System] [7605*]:
    → "This will allow you to return to the entrance of the crag, having forgotten all events regarding this place."
  5: 0x08E2 [0x23] WAIT_FOR_DIALOG_INTERACTION
  6: 0x08E3 [0x24] CREATE_DIALOG(message_id=7606*, default_option=1*, option_flags=0*)
    → "Seal off your memories? [Yes./No.]"
  7: 0x08EA [0x25] WAIT_DIALOG_SELECT()
  8: 0x08EB [0x02] IF !(Work_Zone[0] == 1*) GOTO 0x08FD
  9: 0x08F3 [0x03] Work_Zone[1] = 1073741824*
 10: 0x08F8 [0x21] END_EVENT
 11: 0x08F9 [0x00] END_REQSTACK()

SUBROUTINE_08FD:
 12: 0x08FD [0x24] CREATE_DIALOG(message_id=7607*, default_option=1*, option_flags=0*)
    → "Are you sure? [Absolutely./No.]"
 13: 0x0904 [0x25] WAIT_DIALOG_SELECT()
 14: 0x0905 [0x02] IF !(Work_Zone[0] == 1*) GOTO 0x0917
 15: 0x090D [0x03] Work_Zone[1] = 1073741824*
 16: 0x0912 [0x21] END_EVENT
 17: 0x0913 [0x00] END_REQSTACK()

SUBROUTINE_0917:
 18: 0x0917 [0x42] SET_CLI_EVENT_CANCEL_DATA()
 19: 0x0918 [0x43] SEND_EVENT_UPDATE: Send pending tag to server (packet 0x005B)
 20: 0x091A [0x43] SEND_EVENT_UPDATE: Check pending flag (skip if not pending)
 21: 0x091C [0x45] LOAD_SCHEDULED_TASK: Load scheduler "who1" with entities [LocalPlayer, LocalPlayer], work=[201*, 0*]
 22: 0x092D [0x55] WAIT_LOAD_SCHEDULER: Wait for scheduler "who1" with entities [LocalPlayer, LocalPlayer], work=201*
 23: 0x093C [0x45] LOAD_SCHEDULED_TASK: Load scheduler "whi1" with entities [LocalPlayer, LocalPlayer], work=[201*, 0*]
 24: 0x094D [0x21] END_EVENT
 25: 0x094E [0x00] END_REQSTACK()
```

#### Data or dead code:

```
# Dead code (unreachable instructions):
     0x08FA [0x01] GOTO 0x08FD
# Dead code (unreachable instructions):
     0x0914 [0x01] GOTO 0x0917
```

### Event 65535.3

#### Metadata

| Field        | Value   |
|--------------|---------|
| Entrypoint   | 0x094F  |
| Data Size    | 6 bytes |
| Instructions | 2       |

```
      00 01 02 03 04 05 06 07  08 09 0A 0B 0C 0D 0E 0F
      -- -- -- -- -- -- -- --  -- -- -- -- -- -- -- --
0940:                                               03                 .
0950: 02 10 07 7F 00                                    .....           
```

#### Opcodes

```
  0: 0x094F [0x03] Work_Zone[2] = Entity->Race
  1: 0x0954 [0x00] END_REQSTACK()
```

### Event 65535.4

#### Metadata

| Field        | Value   |
|--------------|---------|
| Entrypoint   | 0x0955  |
| Data Size    | 6 bytes |
| Instructions | 2       |

```
      00 01 02 03 04 05 06 07  08 09 0A 0B 0C 0D 0E 0F
      -- -- -- -- -- -- -- --  -- -- -- -- -- -- -- --
0950:                03 02 10  0B 7F 00                      ......     
```

#### Opcodes

```
  0: 0x0955 [0x03] Work_Zone[2] = (Entity->Render.Flags01 >> 25) & 1
  1: 0x095A [0x00] END_REQSTACK()
```

### Event 65535.5

#### Metadata

| Field        | Value    |
|--------------|----------|
| Entrypoint   | 0x095B   |
| Data Size    | 37 bytes |
| Instructions | 5        |

```
      00 01 02 03 04 05 06 07  08 09 0A 0B 0C 0D 0E 0F
      -- -- -- -- -- -- -- --  -- -- -- -- -- -- -- --
0950:                                   03 01 00 07 7F             .....
0960: 1A A5 09 66 02 00 F8 FF  FF 7F F8 FF FF 7F 73 68  ...f..........sh
0970: 61 30 53 F8 FF FF 7F F8  FF FF 7F 73 68 61 30 00  a0S........sha0.
```

#### Opcodes

```
  0: 0x095B [0x03] ExtData[1]->WorkLocal[1] = Entity->Race
  1: 0x0960 [0x1A] CALL_SUBROUTINE(address=0x09A5)
  2: 0x0963 [0x66] LOAD_EXT_SCHEDULER_MAIN: Load scheduler "sha0" with entities [EventEntity, EventEntity], work=ExtData[1]->WorkLocal[2]
  3: 0x0972 [0x53] WAIT_SCHEDULER_TASK: Wait for scheduler "sha0" with entities [EventEntity, EventEntity]
  4: 0x097F [0x00] END_REQSTACK()
```

### Event 65535.6

#### Metadata

| Field        | Value     |
|--------------|-----------|
| Entrypoint   | 0x0980    |
| Data Size    | 185 bytes |
| Instructions | 13        |

```
      00 01 02 03 04 05 06 07  08 09 0A 0B 0C 0D 0E 0F
      -- -- -- -- -- -- -- --  -- -- -- -- -- -- -- --
0980: 03 01 00 07 7F 1A A5 09  66 02 00 F8 FF FF 7F F8  ........f.......
0990: FF FF 7F 73 68 61 31 53  F8 FF FF 7F F8 FF FF 7F  ...sha1S........
09A0: 73 68 61 31 00 03 02 00  01 00 02 02 00 3F 80 05  sha1.........?..
09B0: BA 09 08 02 00 0B 80 01  BF 09 08 02 00 16 80 14  ................
09C0: 02 00 40 80 07 02 00 41  80 1B 03 02 00 01 00 02  ..@....A........
09D0: 02 00 3F 80 05 DF 09 08  02 00 0B 80 01 E4 09 08  ..?.............
09E0: 02 00 16 80 14 02 00 40  80 07 02 00 42 80 1B 03  .......@....B...
09F0: 02 00 01 00 02 02 00 3F  80 05 04 0A 08 02 00 0B  .......?........
0A00: 80 01 09 0A 08 02 00 16  80 14 02 00 40 80 07 02  ............@...
0A10: 00 43 80 1B 03 02 00 01  00 02 02 00 3F 80 05 29  .C..........?..)
0A20: 0A 08 02 00 0B 80 01 2E  0A 08 02 00 16 80 14 02  ................
0A30: 00 40 80 07 02 00 44 80  1B                       .@....D..       
```

#### Opcodes

```
  0: 0x0980 [0x03] ExtData[1]->WorkLocal[1] = Entity->Race
  1: 0x0985 [0x1A] CALL_SUBROUTINE(address=0x09A5)
  2: 0x0988 [0x66] LOAD_EXT_SCHEDULER_MAIN: Load scheduler "sha1" with entities [EventEntity, EventEntity], work=ExtData[1]->WorkLocal[2]
  3: 0x0997 [0x53] WAIT_SCHEDULER_TASK: Wait for scheduler "sha1" with entities [EventEntity, EventEntity]
  4: 0x09A4 [0x00] END_REQSTACK()

SUBROUTINE_09A5:
  5: 0x09A5 [0x03] ExtData[1]->WorkLocal[2] = ExtData[1]->WorkLocal[1]
  6: 0x09AA [0x02] IF !(ExtData[1]->WorkLocal[2] > 5*) GOTO 0x09BA
  7: 0x09B2 [0x08] ExtData[1]->WorkLocal[2] -= 1*
  8: 0x09B7 [0x01] GOTO 0x09BF
  9: 0x09BA [0x08] ExtData[1]->WorkLocal[2] -= 2*

SUBROUTINE_09BF:
 10: 0x09BF [0x14] ExtData[1]->WorkLocal[2] *= 10*
 11: 0x09C4 [0x07] ExtData[1]->WorkLocal[2] += 9*
 12: 0x09C9 [0x1B] RETURN
```

#### Data or dead code:

```
# Dead code (unreachable instructions):
     0x09CA [0x03] ExtData[1]->WorkLocal[2] = ExtData[1]->WorkLocal[1]
     0x09CF [0x02] IF !(ExtData[1]->WorkLocal[2] > 5*) GOTO 0x09DF
     0x09D7 [0x08] ExtData[1]->WorkLocal[2] -= 1*
     0x09DC [0x01] GOTO 0x09E4
     0x09DF [0x08] ExtData[1]->WorkLocal[2] -= 2*
     0x09E4 [0x14] ExtData[1]->WorkLocal[2] *= 10*
     0x09E9 [0x07] ExtData[1]->WorkLocal[2] += 70*
     0x09EE [0x1B] RETURN
     0x09EF [0x03] ExtData[1]->WorkLocal[2] = ExtData[1]->WorkLocal[1]
     0x09F4 [0x02] IF !(ExtData[1]->WorkLocal[2] > 5*) GOTO 0x0A04
     0x09FC [0x08] ExtData[1]->WorkLocal[2] -= 1*
     0x0A01 [0x01] GOTO 0x0A09
     0x0A04 [0x08] ExtData[1]->WorkLocal[2] -= 2*
     0x0A09 [0x14] ExtData[1]->WorkLocal[2] *= 10*
     0x0A0E [0x07] ExtData[1]->WorkLocal[2] += 140*
     0x0A13 [0x1B] RETURN
     0x0A14 [0x03] ExtData[1]->WorkLocal[2] = ExtData[1]->WorkLocal[1]
     0x0A19 [0x02] IF !(ExtData[1]->WorkLocal[2] > 5*) GOTO 0x0A29
     0x0A21 [0x08] ExtData[1]->WorkLocal[2] -= 1*
     0x0A26 [0x01] GOTO 0x0A2E
     0x0A29 [0x08] ExtData[1]->WorkLocal[2] -= 2*
     0x0A2E [0x14] ExtData[1]->WorkLocal[2] *= 10*
     0x0A33 [0x07] ExtData[1]->WorkLocal[2] += 210*
     0x0A38 [0x1B] RETURN
```

### Event 65535.7

#### Metadata

| Field        | Value    |
|--------------|----------|
| Entrypoint   | 0x0A39   |
| Data Size    | 24 bytes |
| Instructions | 4        |

```
      00 01 02 03 04 05 06 07  08 09 0A 0B 0C 0D 0E 0F
      -- -- -- -- -- -- -- --  -- -- -- -- -- -- -- --
0A30:                             03 01 00 07 7F 1A A5           .......
0A40: 09 66 02 00 F8 FF FF 7F  F8 FF FF 7F 74 6C 6B 30  .f..........tlk0
0A50: 00                                                .               
```

#### Opcodes

```
  0: 0x0A39 [0x03] ExtData[1]->WorkLocal[1] = Entity->Race
  1: 0x0A3E [0x1A] CALL_SUBROUTINE(address=0x09A5)
  2: 0x0A41 [0x66] LOAD_EXT_SCHEDULER_MAIN: Load scheduler "tlk0" with entities [EventEntity, EventEntity], work=ExtData[1]->WorkLocal[2]
  3: 0x0A50 [0x00] END_REQSTACK()
```

### Event 65535.8

#### Metadata

| Field        | Value    |
|--------------|----------|
| Entrypoint   | 0x0A51   |
| Data Size    | 24 bytes |
| Instructions | 4        |

```
      00 01 02 03 04 05 06 07  08 09 0A 0B 0C 0D 0E 0F
      -- -- -- -- -- -- -- --  -- -- -- -- -- -- -- --
0A50:    03 01 00 07 7F 1A A5  09 66 02 00 F8 FF FF 7F   ........f......
0A60: F8 FF FF 7F 74 6C 6B 31  00                       ....tlk1.       
```

#### Opcodes

```
  0: 0x0A51 [0x03] ExtData[1]->WorkLocal[1] = Entity->Race
  1: 0x0A56 [0x1A] CALL_SUBROUTINE(address=0x09A5)
  2: 0x0A59 [0x66] LOAD_EXT_SCHEDULER_MAIN: Load scheduler "tlk1" with entities [EventEntity, EventEntity], work=ExtData[1]->WorkLocal[2]
  3: 0x0A68 [0x00] END_REQSTACK()
```

### Event 65535.9

#### Metadata

| Field        | Value    |
|--------------|----------|
| Entrypoint   | 0x0A69   |
| Data Size    | 37 bytes |
| Instructions | 5        |

```
      00 01 02 03 04 05 06 07  08 09 0A 0B 0C 0D 0E 0F
      -- -- -- -- -- -- -- --  -- -- -- -- -- -- -- --
0A60:                             03 01 00 07 7F 1A A5           .......
0A70: 09 66 02 00 F8 FF FF 7F  F8 FF FF 7F 73 69 74 30  .f..........sit0
0A80: 53 F8 FF FF 7F F8 FF FF  7F 73 69 74 30 00        S........sit0.  
```

#### Opcodes

```
  0: 0x0A69 [0x03] ExtData[1]->WorkLocal[1] = Entity->Race
  1: 0x0A6E [0x1A] CALL_SUBROUTINE(address=0x09A5)
  2: 0x0A71 [0x66] LOAD_EXT_SCHEDULER_MAIN: Load scheduler "sit0" with entities [EventEntity, EventEntity], work=ExtData[1]->WorkLocal[2]
  3: 0x0A80 [0x53] WAIT_SCHEDULER_TASK: Wait for scheduler "sit0" with entities [EventEntity, EventEntity]
  4: 0x0A8D [0x00] END_REQSTACK()
```

### Event 65535.10

#### Metadata

| Field        | Value    |
|--------------|----------|
| Entrypoint   | 0x0A8E   |
| Data Size    | 37 bytes |
| Instructions | 5        |

```
      00 01 02 03 04 05 06 07  08 09 0A 0B 0C 0D 0E 0F
      -- -- -- -- -- -- -- --  -- -- -- -- -- -- -- --
0A80:                                            03 01                ..
0A90: 00 07 7F 1A A5 09 66 02  00 F8 FF FF 7F F8 FF FF  ......f.........
0AA0: 7F 73 69 74 31 53 F8 FF  FF 7F F8 FF FF 7F 73 69  .sit1S........si
0AB0: 74 31 00                                          t1.             
```

#### Opcodes

```
  0: 0x0A8E [0x03] ExtData[1]->WorkLocal[1] = Entity->Race
  1: 0x0A93 [0x1A] CALL_SUBROUTINE(address=0x09A5)
  2: 0x0A96 [0x66] LOAD_EXT_SCHEDULER_MAIN: Load scheduler "sit1" with entities [EventEntity, EventEntity], work=ExtData[1]->WorkLocal[2]
  3: 0x0AA5 [0x53] WAIT_SCHEDULER_TASK: Wait for scheduler "sit1" with entities [EventEntity, EventEntity]
  4: 0x0AB2 [0x00] END_REQSTACK()
```

### Event 65535.11

#### Metadata

| Field        | Value    |
|--------------|----------|
| Entrypoint   | 0x0AB3   |
| Data Size    | 42 bytes |
| Instructions | 6        |

```
      00 01 02 03 04 05 06 07  08 09 0A 0B 0C 0D 0E 0F
      -- -- -- -- -- -- -- --  -- -- -- -- -- -- -- --
0AB0:          03 01 00 07 7F  1A A5 09 66 02 00 F8 FF     ........f....
0AC0: FF 7F F8 FF FF 7F 74 6C  6B 30 1C 08 80 66 02 00  ......tlk0...f..
0AD0: F8 FF FF 7F F8 FF FF 7F  74 6C 6B 31 00           ........tlk1.   
```

#### Opcodes

```
  0: 0x0AB3 [0x03] ExtData[1]->WorkLocal[1] = Entity->Race
  1: 0x0AB8 [0x1A] CALL_SUBROUTINE(address=0x09A5)
  2: 0x0ABB [0x66] LOAD_EXT_SCHEDULER_MAIN: Load scheduler "tlk0" with entities [EventEntity, EventEntity], work=ExtData[1]->WorkLocal[2]
  3: 0x0ACA [0x1C] WAIT(60* ticks)
  4: 0x0ACD [0x66] LOAD_EXT_SCHEDULER_MAIN: Load scheduler "tlk1" with entities [EventEntity, EventEntity], work=ExtData[1]->WorkLocal[2]
  5: 0x0ADC [0x00] END_REQSTACK()
```

### Event 65535.12

#### Metadata

| Field        | Value    |
|--------------|----------|
| Entrypoint   | 0x0ADD   |
| Data Size    | 22 bytes |
| Instructions | 6        |

```
      00 01 02 03 04 05 06 07  08 09 0A 0B 0C 0D 0E 0F
      -- -- -- -- -- -- -- --  -- -- -- -- -- -- -- --
0AD0:                                         32 45 80               2E.
0AE0: 1F 00 46 80 47 80 48 80  1F 01 1E 7B C2 06 01 1C  ..F.G.H....{....
0AF0: 11 80 00                                          ...             
```

#### Opcodes

```
  0: 0x0ADD [0x32] ExtData[1]->MainSpeed = 40* * 0.1
  1: 0x0AE0 [0x1F] MOVE_ENTITY: EventEntity moves to X=-397.929*, Z=354.396*, Y=-19.099*
  2: 0x0AE8 [0x1F] MOVE_ENTITY: Update entity position (mode=1)
  3: 0x0AEA [0x1E] EventEntity looks at Lion (ID: 17220219/0x0106C27B) and starts talking
  4: 0x0AEF [0x1C] WAIT(30* ticks)
  5: 0x0AF2 [0x00] END_REQSTACK()
```

### Event 65535.13

#### Metadata

| Field        | Value    |
|--------------|----------|
| Entrypoint   | 0x0AF3   |
| Data Size    | 14 bytes |
| Instructions | 4        |

```
      00 01 02 03 04 05 06 07  08 09 0A 0B 0C 0D 0E 0F
      -- -- -- -- -- -- -- --  -- -- -- -- -- -- -- --
0AF0:          32 45 80 1F 00  49 80 4A 80 48 80 1F 01     2E...I.J.H...
0B00: 00                                                .               
```

#### Opcodes

```
  0: 0x0AF3 [0x32] ExtData[1]->MainSpeed = 40* * 0.1
  1: 0x0AF6 [0x1F] MOVE_ENTITY: EventEntity moves to X=-398.157*, Z=352.881*, Y=-19.099*
  2: 0x0AFE [0x1F] MOVE_ENTITY: Update entity position (mode=1)
  3: 0x0B00 [0x00] END_REQSTACK()
```

### Event 65535.14

#### Metadata

| Field        | Value   |
|--------------|---------|
| Entrypoint   | 0x0B01  |
| Data Size    | 5 bytes |
| Instructions | 2       |

```
      00 01 02 03 04 05 06 07  08 09 0A 0B 0C 0D 0E 0F
      -- -- -- -- -- -- -- --  -- -- -- -- -- -- -- --
0B00:    B6 0F 4B 80 00                                  ..K..          
```

#### Opcodes

```
  0: 0x0B01 [0xB6] ENTITY_APPEARANCE_HANDLER(case=Model size, value=87*)
  1: 0x0B05 [0x00] END_REQSTACK()
```

### Event 65535.15

#### Metadata

| Field        | Value   |
|--------------|---------|
| Entrypoint   | 0x0B06  |
| Data Size    | 5 bytes |
| Instructions | 2       |

```
      00 01 02 03 04 05 06 07  08 09 0A 0B 0C 0D 0E 0F
      -- -- -- -- -- -- -- --  -- -- -- -- -- -- -- --
0B00:                   B6 0F  4C 80 00                       ..L..     
```

#### Opcodes

```
  0: 0x0B06 [0xB6] ENTITY_APPEARANCE_HANDLER(case=Model size, value=93*)
  1: 0x0B0A [0x00] END_REQSTACK()
```

### Event 65535.16

#### Metadata

| Field        | Value   |
|--------------|---------|
| Entrypoint   | 0x0B0B  |
| Data Size    | 5 bytes |
| Instructions | 2       |

```
      00 01 02 03 04 05 06 07  08 09 0A 0B 0C 0D 0E 0F
      -- -- -- -- -- -- -- --  -- -- -- -- -- -- -- --
0B00:                                   B6 0F 4D 80 00             ..M..
```

#### Opcodes

```
  0: 0x0B0B [0xB6] ENTITY_APPEARANCE_HANDLER(case=Model size, value=96*)
  1: 0x0B0F [0x00] END_REQSTACK()
```

### Event 65535.17

#### Metadata

| Field        | Value   |
|--------------|---------|
| Entrypoint   | 0x0B10  |
| Data Size    | 5 bytes |
| Instructions | 2       |

```
      00 01 02 03 04 05 06 07  08 09 0A 0B 0C 0D 0E 0F
      -- -- -- -- -- -- -- --  -- -- -- -- -- -- -- --
0B10: B6 0F 2B 80 00                                    ..+..           
```

#### Opcodes

```
  0: 0x0B10 [0xB6] ENTITY_APPEARANCE_HANDLER(case=Model size, value=100*)
  1: 0x0B14 [0x00] END_REQSTACK()
```

### Event 65535.18

#### Metadata

| Field        | Value    |
|--------------|----------|
| Entrypoint   | 0x0B15   |
| Data Size    | 22 bytes |
| Instructions | 6        |

```
      00 01 02 03 04 05 06 07  08 09 0A 0B 0C 0D 0E 0F
      -- -- -- -- -- -- -- --  -- -- -- -- -- -- -- --
0B10:                32 45 80  1F 00 46 80 47 80 48 80       2E...F.G.H.
0B20: 1F 01 1E 7A C2 06 01 1C  11 80 00                 ...z.......     
```

#### Opcodes

```
  0: 0x0B15 [0x32] ExtData[1]->MainSpeed = 40* * 0.1
  1: 0x0B18 [0x1F] MOVE_ENTITY: EventEntity moves to X=-397.929*, Z=354.396*, Y=-19.099*
  2: 0x0B20 [0x1F] MOVE_ENTITY: Update entity position (mode=1)
  3: 0x0B22 [0x1E] EventEntity looks at Iroha (ID: 17220218/0x0106C27A) and starts talking
  4: 0x0B27 [0x1C] WAIT(30* ticks)
  5: 0x0B2A [0x00] END_REQSTACK()
```

### Event 65535.19

#### Metadata

| Field        | Value     |
|--------------|-----------|
| Entrypoint   | 0x0B2B    |
| Data Size    | 345 bytes |
| Instructions | 33        |

```
      00 01 02 03 04 05 06 07  08 09 0A 0B 0C 0D 0E 0F
      -- -- -- -- -- -- -- --  -- -- -- -- -- -- -- --
0B20:                                   02 87 7F 0B 80             .....
0B30: 80 56 0B 5F 04 4E 80 F0  FF FF 7F F0 FF FF 7F 6B  .V._.N.........k
0B40: 69 7A 6C 5F 03 4F 80 7D  C2 06 01 7D C2 06 01 68  izl_.O.}...}...h
0B50: 6D 6C 6C 01 83 0C 02 87  7F 16 80 80 81 0B 5F 04  mll..........._.
0B60: 50 80 F0 FF FF 7F F0 FF  FF 7F 6B 69 7A 6C 5F 03  P.........kizl_.
0B70: 4F 80 7D C2 06 01 7D C2  06 01 68 66 6C 6C 01 83  O.}...}...hfll..
0B80: 0C 02 87 7F 1E 80 80 AC  0B 5F 04 1D 80 F0 FF FF  ........._......
0B90: 7F F0 FF FF 7F 6B 69 7A  6C 5F 03 4F 80 7D C2 06  .....kizl_.O.}..
0BA0: 01 7D C2 06 01 65 6D 6C  6C 01 83 0C 02 87 7F 51  .}...emll......Q
0BB0: 80 80 D7 0B 5F 04 52 80  F0 FF FF 7F F0 FF FF 7F  ...._.R.........
0BC0: 6B 69 7A 6C 5F 03 4F 80  7D C2 06 01 7D C2 06 01  kizl_.O.}...}...
0BD0: 65 66 6C 6C 01 83 0C 02  87 7F 3F 80 80 02 0C 5F  efll......?...._
0BE0: 04 53 80 F0 FF FF 7F F0  FF FF 7F 6B 69 7A 6C 5F  .S.........kizl_
0BF0: 03 4F 80 7D C2 06 01 7D  C2 06 01 74 6D 6C 6C 01  .O.}...}...tmll.
0C00: 83 0C 02 87 7F 54 80 80  2D 0C 5F 04 53 80 F0 FF  .....T..-._.S...
0C10: FF 7F F0 FF FF 7F 6B 69  7A 6C 5F 03 4F 80 7D C2  ......kizl_.O.}.
0C20: 06 01 7D C2 06 01 74 6D  6C 6C 01 83 0C 02 87 7F  ..}...tmll......
0C30: 55 80 80 58 0C 5F 04 56  80 F0 FF FF 7F F0 FF FF  U..X._.V........
0C40: 7F 6B 69 7A 6C 5F 03 4F  80 7D C2 06 01 7D C2 06  .kizl_.O.}...}..
0C50: 01 6D 6D 6C 6C 01 83 0C  02 87 7F 57 80 80 83 0C  .mmll......W....
0C60: 5F 04 10 80 F0 FF FF 7F  F0 FF FF 7F 6B 69 7A 6C  _...........kizl
0C70: 5F 03 4F 80 7D C2 06 01  7D C2 06 01 67 6D 6C 6C  _.O.}...}...gmll
0C80: 01 83 0C 00                                       ....            
```

#### Opcodes

```
  0: 0x0B2B [0x02] IF !(LocalPlayer->Race == 1*) GOTO 0x0B56
  1: 0x0B33 [0x5F] MULTI_HANDLER_COMPLEX(mode=0x04 - Load ext scheduler (OpCode 0x5B mode 1), ref=141*, entity1=LocalPlayer, entity2=LocalPlayer, string="kizl")
  2: 0x0B43 [0x5F] MULTI_HANDLER_COMPLEX(mode=0x03 - Load ext scheduler (OpCode 0x5B mode 0), ref=3878*, entity1=Unnamed NPC (ID: 17220221/0x0106C27D), entity2=Unnamed NPC (ID: 17220221/0x0106C27D), string="hmll")
  3: 0x0B53 [0x01] GOTO 0x0C83
  4: 0x0B56 [0x02] IF !(LocalPlayer->Race == 2*) GOTO 0x0B81
  5: 0x0B5E [0x5F] MULTI_HANDLER_COMPLEX(mode=0x04 - Load ext scheduler (OpCode 0x5B mode 1), ref=151*, entity1=LocalPlayer, entity2=LocalPlayer, string="kizl")
  6: 0x0B6E [0x5F] MULTI_HANDLER_COMPLEX(mode=0x03 - Load ext scheduler (OpCode 0x5B mode 0), ref=3878*, entity1=Unnamed NPC (ID: 17220221/0x0106C27D), entity2=Unnamed NPC (ID: 17220221/0x0106C27D), string="hfll")
  7: 0x0B7E [0x01] GOTO 0x0C83
  8: 0x0B81 [0x02] IF !(LocalPlayer->Race == 3*) GOTO 0x0BAC
  9: 0x0B89 [0x5F] MULTI_HANDLER_COMPLEX(mode=0x04 - Load ext scheduler (OpCode 0x5B mode 1), ref=161*, entity1=LocalPlayer, entity2=LocalPlayer, string="kizl")
 10: 0x0B99 [0x5F] MULTI_HANDLER_COMPLEX(mode=0x03 - Load ext scheduler (OpCode 0x5B mode 0), ref=3878*, entity1=Unnamed NPC (ID: 17220221/0x0106C27D), entity2=Unnamed NPC (ID: 17220221/0x0106C27D), string="emll")
 11: 0x0BA9 [0x01] GOTO 0x0C83
 12: 0x0BAC [0x02] IF !(LocalPlayer->Race == 4*) GOTO 0x0BD7
 13: 0x0BB4 [0x5F] MULTI_HANDLER_COMPLEX(mode=0x04 - Load ext scheduler (OpCode 0x5B mode 1), ref=171*, entity1=LocalPlayer, entity2=LocalPlayer, string="kizl")
 14: 0x0BC4 [0x5F] MULTI_HANDLER_COMPLEX(mode=0x03 - Load ext scheduler (OpCode 0x5B mode 0), ref=3878*, entity1=Unnamed NPC (ID: 17220221/0x0106C27D), entity2=Unnamed NPC (ID: 17220221/0x0106C27D), string="efll")
 15: 0x0BD4 [0x01] GOTO 0x0C83
 16: 0x0BD7 [0x02] IF !(LocalPlayer->Race == 5*) GOTO 0x0C02
 17: 0x0BDF [0x5F] MULTI_HANDLER_COMPLEX(mode=0x04 - Load ext scheduler (OpCode 0x5B mode 1), ref=181*, entity1=LocalPlayer, entity2=LocalPlayer, string="kizl")
 18: 0x0BEF [0x5F] MULTI_HANDLER_COMPLEX(mode=0x03 - Load ext scheduler (OpCode 0x5B mode 0), ref=3878*, entity1=Unnamed NPC (ID: 17220221/0x0106C27D), entity2=Unnamed NPC (ID: 17220221/0x0106C27D), string="tmll")
 19: 0x0BFF [0x01] GOTO 0x0C83
 20: 0x0C02 [0x02] IF !(LocalPlayer->Race == 6*) GOTO 0x0C2D
 21: 0x0C0A [0x5F] MULTI_HANDLER_COMPLEX(mode=0x04 - Load ext scheduler (OpCode 0x5B mode 1), ref=181*, entity1=LocalPlayer, entity2=LocalPlayer, string="kizl")
 22: 0x0C1A [0x5F] MULTI_HANDLER_COMPLEX(mode=0x03 - Load ext scheduler (OpCode 0x5B mode 0), ref=3878*, entity1=Unnamed NPC (ID: 17220221/0x0106C27D), entity2=Unnamed NPC (ID: 17220221/0x0106C27D), string="tmll")
 23: 0x0C2A [0x01] GOTO 0x0C83
 24: 0x0C2D [0x02] IF !(LocalPlayer->Race == 7*) GOTO 0x0C58
 25: 0x0C35 [0x5F] MULTI_HANDLER_COMPLEX(mode=0x04 - Load ext scheduler (OpCode 0x5B mode 1), ref=191*, entity1=LocalPlayer, entity2=LocalPlayer, string="kizl")
 26: 0x0C45 [0x5F] MULTI_HANDLER_COMPLEX(mode=0x03 - Load ext scheduler (OpCode 0x5B mode 0), ref=3878*, entity1=Unnamed NPC (ID: 17220221/0x0106C27D), entity2=Unnamed NPC (ID: 17220221/0x0106C27D), string="mmll")
 27: 0x0C55 [0x01] GOTO 0x0C83
 28: 0x0C58 [0x02] IF !(LocalPlayer->Race == 8*) GOTO 0x0C83
 29: 0x0C60 [0x5F] MULTI_HANDLER_COMPLEX(mode=0x04 - Load ext scheduler (OpCode 0x5B mode 1), ref=201*, entity1=LocalPlayer, entity2=LocalPlayer, string="kizl")
 30: 0x0C70 [0x5F] MULTI_HANDLER_COMPLEX(mode=0x03 - Load ext scheduler (OpCode 0x5B mode 0), ref=3878*, entity1=Unnamed NPC (ID: 17220221/0x0106C27D), entity2=Unnamed NPC (ID: 17220221/0x0106C27D), string="gmll")
 31: 0x0C80 [0x01] GOTO 0x0C83

SUBROUTINE_0C83:
 32: 0x0C83 [0x00] END_REQSTACK()
```

### Event 65535.20

#### Metadata

| Field        | Value     |
|--------------|-----------|
| Entrypoint   | 0x0C84    |
| Data Size    | 217 bytes |
| Instructions | 25        |

```
      00 01 02 03 04 05 06 07  08 09 0A 0B 0C 0D 0E 0F
      -- -- -- -- -- -- -- --  -- -- -- -- -- -- -- --
0C80:             02 87 7F 0B  80 80 9F 0C 5F 04 4E 80      ........_.N.
0C90: F0 FF FF 7F F0 FF FF 7F  6B 69 7A 30 01 5C 0D 02  ........kiz0.\..
0CA0: 87 7F 16 80 80 BA 0C 5F  04 50 80 F0 FF FF 7F F0  ......._.P......
0CB0: FF FF 7F 6B 69 7A 30 01  5C 0D 02 87 7F 1E 80 80  ...kiz0.\.......
0CC0: D5 0C 5F 04 1D 80 F0 FF  FF 7F F0 FF FF 7F 6B 69  .._...........ki
0CD0: 7A 30 01 5C 0D 02 87 7F  51 80 80 F0 0C 5F 04 52  z0.\....Q...._.R
0CE0: 80 F0 FF FF 7F F0 FF FF  7F 6B 69 7A 30 01 5C 0D  .........kiz0.\.
0CF0: 02 87 7F 3F 80 80 0B 0D  5F 04 53 80 F0 FF FF 7F  ...?...._.S.....
0D00: F0 FF FF 7F 6B 69 7A 30  01 5C 0D 02 87 7F 54 80  ....kiz0.\....T.
0D10: 80 26 0D 5F 04 53 80 F0  FF FF 7F F0 FF FF 7F 6B  .&._.S.........k
0D20: 69 7A 30 01 5C 0D 02 87  7F 55 80 80 41 0D 5F 04  iz0.\....U..A._.
0D30: 56 80 F0 FF FF 7F F0 FF  FF 7F 6B 69 7A 30 01 5C  V.........kiz0.\
0D40: 0D 02 87 7F 57 80 80 5C  0D 5F 04 10 80 F0 FF FF  ....W..\._......
0D50: 7F F0 FF FF 7F 6B 69 7A  30 01 5C 0D 00           .....kiz0.\..   
```

#### Opcodes

```
  0: 0x0C84 [0x02] IF !(LocalPlayer->Race == 1*) GOTO 0x0C9F
  1: 0x0C8C [0x5F] MULTI_HANDLER_COMPLEX(mode=0x04 - Load ext scheduler (OpCode 0x5B mode 1), ref=141*, entity1=LocalPlayer, entity2=LocalPlayer, string="kiz0")
  2: 0x0C9C [0x01] GOTO 0x0D5C
  3: 0x0C9F [0x02] IF !(LocalPlayer->Race == 2*) GOTO 0x0CBA
  4: 0x0CA7 [0x5F] MULTI_HANDLER_COMPLEX(mode=0x04 - Load ext scheduler (OpCode 0x5B mode 1), ref=151*, entity1=LocalPlayer, entity2=LocalPlayer, string="kiz0")
  5: 0x0CB7 [0x01] GOTO 0x0D5C
  6: 0x0CBA [0x02] IF !(LocalPlayer->Race == 3*) GOTO 0x0CD5
  7: 0x0CC2 [0x5F] MULTI_HANDLER_COMPLEX(mode=0x04 - Load ext scheduler (OpCode 0x5B mode 1), ref=161*, entity1=LocalPlayer, entity2=LocalPlayer, string="kiz0")
  8: 0x0CD2 [0x01] GOTO 0x0D5C
  9: 0x0CD5 [0x02] IF !(LocalPlayer->Race == 4*) GOTO 0x0CF0
 10: 0x0CDD [0x5F] MULTI_HANDLER_COMPLEX(mode=0x04 - Load ext scheduler (OpCode 0x5B mode 1), ref=171*, entity1=LocalPlayer, entity2=LocalPlayer, string="kiz0")
 11: 0x0CED [0x01] GOTO 0x0D5C
 12: 0x0CF0 [0x02] IF !(LocalPlayer->Race == 5*) GOTO 0x0D0B
 13: 0x0CF8 [0x5F] MULTI_HANDLER_COMPLEX(mode=0x04 - Load ext scheduler (OpCode 0x5B mode 1), ref=181*, entity1=LocalPlayer, entity2=LocalPlayer, string="kiz0")
 14: 0x0D08 [0x01] GOTO 0x0D5C
 15: 0x0D0B [0x02] IF !(LocalPlayer->Race == 6*) GOTO 0x0D26
 16: 0x0D13 [0x5F] MULTI_HANDLER_COMPLEX(mode=0x04 - Load ext scheduler (OpCode 0x5B mode 1), ref=181*, entity1=LocalPlayer, entity2=LocalPlayer, string="kiz0")
 17: 0x0D23 [0x01] GOTO 0x0D5C
 18: 0x0D26 [0x02] IF !(LocalPlayer->Race == 7*) GOTO 0x0D41
 19: 0x0D2E [0x5F] MULTI_HANDLER_COMPLEX(mode=0x04 - Load ext scheduler (OpCode 0x5B mode 1), ref=191*, entity1=LocalPlayer, entity2=LocalPlayer, string="kiz0")
 20: 0x0D3E [0x01] GOTO 0x0D5C
 21: 0x0D41 [0x02] IF !(LocalPlayer->Race == 8*) GOTO 0x0D5C
 22: 0x0D49 [0x5F] MULTI_HANDLER_COMPLEX(mode=0x04 - Load ext scheduler (OpCode 0x5B mode 1), ref=201*, entity1=LocalPlayer, entity2=LocalPlayer, string="kiz0")
 23: 0x0D59 [0x01] GOTO 0x0D5C

SUBROUTINE_0D5C:
 24: 0x0D5C [0x00] END_REQSTACK()
```

### Event 65535.21

#### Metadata

| Field        | Value     |
|--------------|-----------|
| Entrypoint   | 0x0D5D    |
| Data Size    | 345 bytes |
| Instructions | 33        |

```
      00 01 02 03 04 05 06 07  08 09 0A 0B 0C 0D 0E 0F
      -- -- -- -- -- -- -- --  -- -- -- -- -- -- -- --
0D50:                                         02 87 7F               ...
0D60: 0B 80 80 88 0D 5F 04 4E  80 F0 FF FF 7F F0 FF FF  ....._.N........
0D70: 7F 6B 69 7A 32 5F 03 4F  80 7D C2 06 01 7D C2 06  .kiz2_.O.}...}..
0D80: 01 68 6D 6D 32 01 B5 0E  02 87 7F 16 80 80 B3 0D  .hmm2...........
0D90: 5F 04 50 80 F0 FF FF 7F  F0 FF FF 7F 6B 69 7A 32  _.P.........kiz2
0DA0: 5F 03 4F 80 7D C2 06 01  7D C2 06 01 68 66 6D 32  _.O.}...}...hfm2
0DB0: 01 B5 0E 02 87 7F 1E 80  80 DE 0D 5F 04 1D 80 F0  ..........._....
0DC0: FF FF 7F F0 FF FF 7F 6B  69 7A 32 5F 03 4F 80 7D  .......kiz2_.O.}
0DD0: C2 06 01 7D C2 06 01 65  6D 6D 32 01 B5 0E 02 87  ...}...emm2.....
0DE0: 7F 51 80 80 09 0E 5F 04  52 80 F0 FF FF 7F F0 FF  .Q...._.R.......
0DF0: FF 7F 6B 69 7A 32 5F 03  4F 80 7D C2 06 01 7D C2  ..kiz2_.O.}...}.
0E00: 06 01 65 66 6D 32 01 B5  0E 02 87 7F 3F 80 80 34  ..efm2......?..4
0E10: 0E 5F 04 53 80 F0 FF FF  7F F0 FF FF 7F 6B 69 7A  ._.S.........kiz
0E20: 32 5F 03 4F 80 7D C2 06  01 7D C2 06 01 74 6D 61  2_.O.}...}...tma
0E30: 32 01 B5 0E 02 87 7F 54  80 80 5F 0E 5F 04 53 80  2......T.._._.S.
0E40: F0 FF FF 7F F0 FF FF 7F  6B 69 7A 32 5F 03 4F 80  ........kiz2_.O.
0E50: 7D C2 06 01 7D C2 06 01  74 6D 61 32 01 B5 0E 02  }...}...tma2....
0E60: 87 7F 55 80 80 8A 0E 5F  04 56 80 F0 FF FF 7F F0  ..U...._.V......
0E70: FF FF 7F 6B 69 7A 32 5F  03 4F 80 7D C2 06 01 7D  ...kiz2_.O.}...}
0E80: C2 06 01 6D 6D 61 32 01  B5 0E 02 87 7F 57 80 80  ...mma2......W..
0E90: B5 0E 5F 04 10 80 F0 FF  FF 7F F0 FF FF 7F 6B 69  .._...........ki
0EA0: 7A 32 5F 03 4F 80 7D C2  06 01 7D C2 06 01 67 6D  z2_.O.}...}...gm
0EB0: 61 32 01 B5 0E 00                                 a2....          
```

#### Opcodes

```
  0: 0x0D5D [0x02] IF !(LocalPlayer->Race == 1*) GOTO 0x0D88
  1: 0x0D65 [0x5F] MULTI_HANDLER_COMPLEX(mode=0x04 - Load ext scheduler (OpCode 0x5B mode 1), ref=141*, entity1=LocalPlayer, entity2=LocalPlayer, string="kiz2")
  2: 0x0D75 [0x5F] MULTI_HANDLER_COMPLEX(mode=0x03 - Load ext scheduler (OpCode 0x5B mode 0), ref=3878*, entity1=Unnamed NPC (ID: 17220221/0x0106C27D), entity2=Unnamed NPC (ID: 17220221/0x0106C27D), string="hmm2")
  3: 0x0D85 [0x01] GOTO 0x0EB5
  4: 0x0D88 [0x02] IF !(LocalPlayer->Race == 2*) GOTO 0x0DB3
  5: 0x0D90 [0x5F] MULTI_HANDLER_COMPLEX(mode=0x04 - Load ext scheduler (OpCode 0x5B mode 1), ref=151*, entity1=LocalPlayer, entity2=LocalPlayer, string="kiz2")
  6: 0x0DA0 [0x5F] MULTI_HANDLER_COMPLEX(mode=0x03 - Load ext scheduler (OpCode 0x5B mode 0), ref=3878*, entity1=Unnamed NPC (ID: 17220221/0x0106C27D), entity2=Unnamed NPC (ID: 17220221/0x0106C27D), string="hfm2")
  7: 0x0DB0 [0x01] GOTO 0x0EB5
  8: 0x0DB3 [0x02] IF !(LocalPlayer->Race == 3*) GOTO 0x0DDE
  9: 0x0DBB [0x5F] MULTI_HANDLER_COMPLEX(mode=0x04 - Load ext scheduler (OpCode 0x5B mode 1), ref=161*, entity1=LocalPlayer, entity2=LocalPlayer, string="kiz2")
 10: 0x0DCB [0x5F] MULTI_HANDLER_COMPLEX(mode=0x03 - Load ext scheduler (OpCode 0x5B mode 0), ref=3878*, entity1=Unnamed NPC (ID: 17220221/0x0106C27D), entity2=Unnamed NPC (ID: 17220221/0x0106C27D), string="emm2")
 11: 0x0DDB [0x01] GOTO 0x0EB5
 12: 0x0DDE [0x02] IF !(LocalPlayer->Race == 4*) GOTO 0x0E09
 13: 0x0DE6 [0x5F] MULTI_HANDLER_COMPLEX(mode=0x04 - Load ext scheduler (OpCode 0x5B mode 1), ref=171*, entity1=LocalPlayer, entity2=LocalPlayer, string="kiz2")
 14: 0x0DF6 [0x5F] MULTI_HANDLER_COMPLEX(mode=0x03 - Load ext scheduler (OpCode 0x5B mode 0), ref=3878*, entity1=Unnamed NPC (ID: 17220221/0x0106C27D), entity2=Unnamed NPC (ID: 17220221/0x0106C27D), string="efm2")
 15: 0x0E06 [0x01] GOTO 0x0EB5
 16: 0x0E09 [0x02] IF !(LocalPlayer->Race == 5*) GOTO 0x0E34
 17: 0x0E11 [0x5F] MULTI_HANDLER_COMPLEX(mode=0x04 - Load ext scheduler (OpCode 0x5B mode 1), ref=181*, entity1=LocalPlayer, entity2=LocalPlayer, string="kiz2")
 18: 0x0E21 [0x5F] MULTI_HANDLER_COMPLEX(mode=0x03 - Load ext scheduler (OpCode 0x5B mode 0), ref=3878*, entity1=Unnamed NPC (ID: 17220221/0x0106C27D), entity2=Unnamed NPC (ID: 17220221/0x0106C27D), string="tma2")
 19: 0x0E31 [0x01] GOTO 0x0EB5
 20: 0x0E34 [0x02] IF !(LocalPlayer->Race == 6*) GOTO 0x0E5F
 21: 0x0E3C [0x5F] MULTI_HANDLER_COMPLEX(mode=0x04 - Load ext scheduler (OpCode 0x5B mode 1), ref=181*, entity1=LocalPlayer, entity2=LocalPlayer, string="kiz2")
 22: 0x0E4C [0x5F] MULTI_HANDLER_COMPLEX(mode=0x03 - Load ext scheduler (OpCode 0x5B mode 0), ref=3878*, entity1=Unnamed NPC (ID: 17220221/0x0106C27D), entity2=Unnamed NPC (ID: 17220221/0x0106C27D), string="tma2")
 23: 0x0E5C [0x01] GOTO 0x0EB5
 24: 0x0E5F [0x02] IF !(LocalPlayer->Race == 7*) GOTO 0x0E8A
 25: 0x0E67 [0x5F] MULTI_HANDLER_COMPLEX(mode=0x04 - Load ext scheduler (OpCode 0x5B mode 1), ref=191*, entity1=LocalPlayer, entity2=LocalPlayer, string="kiz2")
 26: 0x0E77 [0x5F] MULTI_HANDLER_COMPLEX(mode=0x03 - Load ext scheduler (OpCode 0x5B mode 0), ref=3878*, entity1=Unnamed NPC (ID: 17220221/0x0106C27D), entity2=Unnamed NPC (ID: 17220221/0x0106C27D), string="mma2")
 27: 0x0E87 [0x01] GOTO 0x0EB5
 28: 0x0E8A [0x02] IF !(LocalPlayer->Race == 8*) GOTO 0x0EB5
 29: 0x0E92 [0x5F] MULTI_HANDLER_COMPLEX(mode=0x04 - Load ext scheduler (OpCode 0x5B mode 1), ref=201*, entity1=LocalPlayer, entity2=LocalPlayer, string="kiz2")
 30: 0x0EA2 [0x5F] MULTI_HANDLER_COMPLEX(mode=0x03 - Load ext scheduler (OpCode 0x5B mode 0), ref=3878*, entity1=Unnamed NPC (ID: 17220221/0x0106C27D), entity2=Unnamed NPC (ID: 17220221/0x0106C27D), string="gma2")
 31: 0x0EB2 [0x01] GOTO 0x0EB5

SUBROUTINE_0EB5:
 32: 0x0EB5 [0x00] END_REQSTACK()
```

### Event 65535.22

#### Metadata

| Field        | Value    |
|--------------|----------|
| Entrypoint   | 0x0EB6   |
| Data Size    | 14 bytes |
| Instructions | 4        |

```
      00 01 02 03 04 05 06 07  08 09 0A 0B 0C 0D 0E 0F
      -- -- -- -- -- -- -- --  -- -- -- -- -- -- -- --
0EB0:                   32 1F  80 1F 00 58 80 59 80 1B        2....X.Y..
0EC0: 80 1F 01 00                                       ....            
```

#### Opcodes

```
  0: 0x0EB6 [0x32] ExtData[1]->MainSpeed = 13* * 0.1
  1: 0x0EB9 [0x1F] MOVE_ENTITY: EventEntity moves to X=421.213*, Z=-141.733*, Y=19.104*
  2: 0x0EC1 [0x1F] MOVE_ENTITY: Update entity position (mode=1)
  3: 0x0EC3 [0x00] END_REQSTACK()
```

### Event 65535.23

#### Metadata

| Field        | Value    |
|--------------|----------|
| Entrypoint   | 0x0EC4   |
| Data Size    | 14 bytes |
| Instructions | 4        |

```
      00 01 02 03 04 05 06 07  08 09 0A 0B 0C 0D 0E 0F
      -- -- -- -- -- -- -- --  -- -- -- -- -- -- -- --
0EC0:             32 1F 80 1F  00 5A 80 5B 80 1B 80 1F      2....Z.[....
0ED0: 01 00                                             ..              
```

#### Opcodes

```
  0: 0x0EC4 [0x32] ExtData[1]->MainSpeed = 13* * 0.1
  1: 0x0EC7 [0x1F] MOVE_ENTITY: EventEntity moves to X=221.295*, Z=138.465*, Y=19.104*
  2: 0x0ECF [0x1F] MOVE_ENTITY: Update entity position (mode=1)
  3: 0x0ED1 [0x00] END_REQSTACK()
```

### Event 65535.24

#### Metadata

| Field        | Value    |
|--------------|----------|
| Entrypoint   | 0x0ED2   |
| Data Size    | 14 bytes |
| Instructions | 4        |

```
      00 01 02 03 04 05 06 07  08 09 0A 0B 0C 0D 0E 0F
      -- -- -- -- -- -- -- --  -- -- -- -- -- -- -- --
0ED0:       32 1F 80 1F 00 5C  80 5D 80 5E 80 1F 01 00    2....\.].^....
```

#### Opcodes

```
  0: 0x0ED2 [0x32] ExtData[1]->MainSpeed = 13* * 0.1
  1: 0x0ED5 [0x1F] MOVE_ENTITY: EventEntity moves to X=261.155*, Z=341.288*, Y=35.150*
  2: 0x0EDD [0x1F] MOVE_ENTITY: Update entity position (mode=1)
  3: 0x0EDF [0x00] END_REQSTACK()
```

### Event 65535.25

#### Metadata

| Field        | Value    |
|--------------|----------|
| Entrypoint   | 0x0EE0   |
| Data Size    | 47 bytes |
| Instructions | 7        |

```
      00 01 02 03 04 05 06 07  08 09 0A 0B 0C 0D 0E 0F
      -- -- -- -- -- -- -- --  -- -- -- -- -- -- -- --
0EE0: 03 01 00 07 7F 1A EF 09  07 02 00 41 80 66 02 00  ...........A.f..
0EF0: F8 FF FF 7F F8 FF FF 7F  74 6C 6B 30 1C 5F 80 66  ........tlk0._.f
0F00: 02 00 F8 FF FF 7F F8 FF  FF 7F 74 6C 6B 31 00     ..........tlk1. 
```

#### Opcodes

```
  0: 0x0EE0 [0x03] ExtData[1]->WorkLocal[1] = Entity->Race
  1: 0x0EE5 [0x1A] CALL_SUBROUTINE(address=0x09EF)
  2: 0x0EE8 [0x07] ExtData[1]->WorkLocal[2] += 9*
  3: 0x0EED [0x66] LOAD_EXT_SCHEDULER_MAIN: Load scheduler "tlk0" with entities [EventEntity, EventEntity], work=ExtData[1]->WorkLocal[2]
  4: 0x0EFC [0x1C] WAIT(120* ticks)
  5: 0x0EFF [0x66] LOAD_EXT_SCHEDULER_MAIN: Load scheduler "tlk1" with entities [EventEntity, EventEntity], work=ExtData[1]->WorkLocal[2]
  6: 0x0F0E [0x00] END_REQSTACK()
```

### Event 65535.26

#### Metadata

| Field        | Value    |
|--------------|----------|
| Entrypoint   | 0x0F0F   |
| Data Size    | 50 bytes |
| Instructions | 7        |

```
      00 01 02 03 04 05 06 07  08 09 0A 0B 0C 0D 0E 0F
      -- -- -- -- -- -- -- --  -- -- -- -- -- -- -- --
0F00:                                               02                 .
0F10: 07 7F 0B 80 00 29 0F 66  60 80 F8 FF FF 7F F8 FF  .....).f`.......
0F20: FF 7F 74 68 6B 30 01 40  0F 03 01 00 07 7F 1A A5  ..thk0.@........
0F30: 09 66 02 00 F8 FF FF 7F  F8 FF FF 7F 74 68 6B 31  .f..........thk1
0F40: 00                                                .               
```

#### Opcodes

```
  0: 0x0F0F [0x02] IF !(Entity->Race == 1*) GOTO 0x0F29
  1: 0x0F17 [0x66] LOAD_EXT_SCHEDULER_MAIN: Load scheduler "thk0" with entities [EventEntity, EventEntity], work=149*
  2: 0x0F26 [0x01] GOTO 0x0F40
  3: 0x0F29 [0x03] ExtData[1]->WorkLocal[1] = Entity->Race
  4: 0x0F2E [0x1A] CALL_SUBROUTINE(address=0x09A5)
  5: 0x0F31 [0x66] LOAD_EXT_SCHEDULER_MAIN: Load scheduler "thk1" with entities [EventEntity, EventEntity], work=ExtData[1]->WorkLocal[2]

SUBROUTINE_0F40:
  6: 0x0F40 [0x00] END_REQSTACK()
```

### Event 65535.27

#### Metadata

| Field        | Value    |
|--------------|----------|
| Entrypoint   | 0x0F41   |
| Data Size    | 50 bytes |
| Instructions | 7        |

```
      00 01 02 03 04 05 06 07  08 09 0A 0B 0C 0D 0E 0F
      -- -- -- -- -- -- -- --  -- -- -- -- -- -- -- --
0F40:    02 07 7F 0B 80 00 5B  0F 66 60 80 F8 FF FF 7F   ......[.f`.....
0F50: F8 FF FF 7F 74 68 6B 31  01 72 0F 03 01 00 07 7F  ....thk1.r......
0F60: 1A A5 09 66 02 00 F8 FF  FF 7F F8 FF FF 7F 74 68  ...f..........th
0F70: 6B 32 00                                          k2.             
```

#### Opcodes

```
  0: 0x0F41 [0x02] IF !(Entity->Race == 1*) GOTO 0x0F5B
  1: 0x0F49 [0x66] LOAD_EXT_SCHEDULER_MAIN: Load scheduler "thk1" with entities [EventEntity, EventEntity], work=149*
  2: 0x0F58 [0x01] GOTO 0x0F72
  3: 0x0F5B [0x03] ExtData[1]->WorkLocal[1] = Entity->Race
  4: 0x0F60 [0x1A] CALL_SUBROUTINE(address=0x09A5)
  5: 0x0F63 [0x66] LOAD_EXT_SCHEDULER_MAIN: Load scheduler "thk2" with entities [EventEntity, EventEntity], work=ExtData[1]->WorkLocal[2]

SUBROUTINE_0F72:
  6: 0x0F72 [0x00] END_REQSTACK()
```

### Event 65535.28

#### Metadata

| Field        | Value    |
|--------------|----------|
| Entrypoint   | 0x0F73   |
| Data Size    | 24 bytes |
| Instructions | 4        |

```
      00 01 02 03 04 05 06 07  08 09 0A 0B 0C 0D 0E 0F
      -- -- -- -- -- -- -- --  -- -- -- -- -- -- -- --
0F70:          03 01 00 07 7F  1A A5 09 66 02 00 F8 FF     ........f....
0F80: FF 7F F8 FF FF 7F 73 68  61 30 00                 ......sha0.     
```

#### Opcodes

```
  0: 0x0F73 [0x03] ExtData[1]->WorkLocal[1] = Entity->Race
  1: 0x0F78 [0x1A] CALL_SUBROUTINE(address=0x09A5)
  2: 0x0F7B [0x66] LOAD_EXT_SCHEDULER_MAIN: Load scheduler "sha0" with entities [EventEntity, EventEntity], work=ExtData[1]->WorkLocal[2]
  3: 0x0F8A [0x00] END_REQSTACK()
```

### Event 65535.29

#### Metadata

| Field        | Value    |
|--------------|----------|
| Entrypoint   | 0x0F8B   |
| Data Size    | 24 bytes |
| Instructions | 4        |

```
      00 01 02 03 04 05 06 07  08 09 0A 0B 0C 0D 0E 0F
      -- -- -- -- -- -- -- --  -- -- -- -- -- -- -- --
0F80:                                   03 01 00 07 7F             .....
0F90: 1A A5 09 66 02 00 F8 FF  FF 7F F8 FF FF 7F 73 68  ...f..........sh
0FA0: 61 31 00                                          a1.             
```

#### Opcodes

```
  0: 0x0F8B [0x03] ExtData[1]->WorkLocal[1] = Entity->Race
  1: 0x0F90 [0x1A] CALL_SUBROUTINE(address=0x09A5)
  2: 0x0F93 [0x66] LOAD_EXT_SCHEDULER_MAIN: Load scheduler "sha1" with entities [EventEntity, EventEntity], work=ExtData[1]->WorkLocal[2]
  3: 0x0FA2 [0x00] END_REQSTACK()
```

### Event 65535.30

#### Metadata

| Field        | Value    |
|--------------|----------|
| Entrypoint   | 0x0FA3   |
| Data Size    | 24 bytes |
| Instructions | 4        |

```
      00 01 02 03 04 05 06 07  08 09 0A 0B 0C 0D 0E 0F
      -- -- -- -- -- -- -- --  -- -- -- -- -- -- -- --
0FA0:          03 01 00 07 7F  1A A5 09 66 02 00 F8 FF     ........f....
0FB0: FF 7F F8 FF FF 7F 73 69  72 30 00                 ......sir0.     
```

#### Opcodes

```
  0: 0x0FA3 [0x03] ExtData[1]->WorkLocal[1] = Entity->Race
  1: 0x0FA8 [0x1A] CALL_SUBROUTINE(address=0x09A5)
  2: 0x0FAB [0x66] LOAD_EXT_SCHEDULER_MAIN: Load scheduler "sir0" with entities [EventEntity, EventEntity], work=ExtData[1]->WorkLocal[2]
  3: 0x0FBA [0x00] END_REQSTACK()
```

### Event 65535.31

#### Metadata

| Field        | Value    |
|--------------|----------|
| Entrypoint   | 0x0FBB   |
| Data Size    | 24 bytes |
| Instructions | 4        |

```
      00 01 02 03 04 05 06 07  08 09 0A 0B 0C 0D 0E 0F
      -- -- -- -- -- -- -- --  -- -- -- -- -- -- -- --
0FB0:                                   03 01 00 07 7F             .....
0FC0: 1A A5 09 66 02 00 F8 FF  FF 7F F8 FF FF 7F 73 69  ...f..........si
0FD0: 72 31 00                                          r1.             
```

#### Opcodes

```
  0: 0x0FBB [0x03] ExtData[1]->WorkLocal[1] = Entity->Race
  1: 0x0FC0 [0x1A] CALL_SUBROUTINE(address=0x09A5)
  2: 0x0FC3 [0x66] LOAD_EXT_SCHEDULER_MAIN: Load scheduler "sir1" with entities [EventEntity, EventEntity], work=ExtData[1]->WorkLocal[2]
  3: 0x0FD2 [0x00] END_REQSTACK()
```

### Event 65535.32

#### Metadata

| Field        | Value    |
|--------------|----------|
| Entrypoint   | 0x0FD3   |
| Data Size    | 14 bytes |
| Instructions | 4        |

```
      00 01 02 03 04 05 06 07  08 09 0A 0B 0C 0D 0E 0F
      -- -- -- -- -- -- -- --  -- -- -- -- -- -- -- --
0FD0:          32 1F 80 1F 00  61 80 62 80 63 80 1F 01     2....a.b.c...
0FE0: 00                                                .               
```

#### Opcodes

```
  0: 0x0FD3 [0x32] ExtData[1]->MainSpeed = 13* * 0.1
  1: 0x0FD6 [0x1F] MOVE_ENTITY: EventEntity moves to X=214.000*, Z=310.500*, Y=24.260*
  2: 0x0FDE [0x1F] MOVE_ENTITY: Update entity position (mode=1)
  3: 0x0FE0 [0x00] END_REQSTACK()
```

### Event 65535.33

#### Metadata

| Field        | Value    |
|--------------|----------|
| Entrypoint   | 0x0FE1   |
| Data Size    | 14 bytes |
| Instructions | 4        |

```
      00 01 02 03 04 05 06 07  08 09 0A 0B 0C 0D 0E 0F
      -- -- -- -- -- -- -- --  -- -- -- -- -- -- -- --
0FE0:    32 1F 80 1F 00 64 80  65 80 66 80 1F 01 00      2....d.e.f.... 
```

#### Opcodes

```
  0: 0x0FE1 [0x32] ExtData[1]->MainSpeed = 13* * 0.1
  1: 0x0FE4 [0x1F] MOVE_ENTITY: EventEntity moves to X=209.520*, Z=311.140*, Y=24.100*
  2: 0x0FEC [0x1F] MOVE_ENTITY: Update entity position (mode=1)
  3: 0x0FEE [0x00] END_REQSTACK()
```

### Event 916

#### Metadata

| Field        | Value     |
|--------------|-----------|
| Entrypoint   | 0x0FEF    |
| Data Size    | 135 bytes |
| Instructions | 9         |

```
      00 01 02 03 04 05 06 07  08 09 0A 0B 0C 0D 0E 0F
      -- -- -- -- -- -- -- --  -- -- -- -- -- -- -- --
0FE0:                                               42                 B
0FF0: 5D 05 80 08 80 02 05 10  05 80 00 06 10 A8 00 04  ]...............
1000: 10 0B 80 1C 67 80 89 04  10 8B 04 10 05 10 02 10  ....g...........
1010: 03 10 3F 3F 3F 00 00 00  00 00 00 00 00 00 00 00  ..???...........
1020: 00 00 45 10 80 F8 FF FF  7F F8 FF FF 7F 63 68 63  ..E..........chc
1030: 6F 05 80 48 68 80 23 02  06 10 0B 80 00 54 10 45  o..Hh.#......T.E
1040: 69 80 F8 FF FF 7F F8 FF  FF 7F 6E 61 6B 31 05 80  i.........nak1..
1050: 48 6A 80 23 02 07 10 6B  80 00 71 10 45 69 80 F8  Hj.#...k..q.Ei..
1060: FF FF 7F F8 FF FF 7F 6E  61 6B 32 05 80 48 6C 80  .......nak2..Hl.
1070: 23 1C 0B 80 21 00                                 #...!.          
```

#### Opcodes

```
  0: 0x0FEF [0x42] SET_CLI_EVENT_CANCEL_DATA()
  1: 0x0FF0 [0x5D] SET_MUSIC_VOLUME(volume=0*, fade_time=60*)
  2: 0x0FF5 [0x02] IF !(Work_Zone[5] == 0*) GOTO 0x1006
  3: 0x0FFD [0xA8] MAP_MARKER_CONTROL: Reset/unlock markers (no map display), zone=Work_Zone[4], marker=1*
  4: 0x1003 [0x1C] WAIT(15* ticks)
  5: 0x1006 [0x89] OPEN_MAP(map_id=0x00001004)
  6: 0x1009 [0x8B] SET_EVENT_MARK: Add/update map marker on map Work_Zone[4] at (Work_Zone[2], Work_Zone[3]), index=Work_Zone[5], name=(no name)
  7: 0x1012 [0x3F] 0x3F3F = ExtData[1]->WorkLocal[0] % ExtData[1]->WorkLocal[0]
  8: 0x1019 [0x00] END_REQSTACK()
```

#### Data or dead code:

```
# Dead code (unreachable instructions):
     0x101A [0x00] END_REQSTACK()
     0x101B [0x00] END_REQSTACK()
     0x101C [0x00] END_REQSTACK()
     0x101D [0x00] END_REQSTACK()
     0x101E [0x00] END_REQSTACK()
     0x101F [0x00] END_REQSTACK()
     0x1020 [0x00] END_REQSTACK()
     0x1021 [0x00] END_REQSTACK()
     0x1022 [0x45] LOAD_SCHEDULED_TASK: Load scheduler "chco" with entities [EventEntity, EventEntity], work=[201*, 0*]
     0x1033 [0x48] [System] [7562*]:
    → "There is treasure somewhere in the vicinity of this marker..."
     0x1036 [0x23] WAIT_FOR_DIALOG_INTERACTION
     0x1037 [0x02] IF !(Work_Zone[6] == 1*) GOTO 0x1054
     0x103F [0x45] LOAD_SCHEDULED_TASK: Load scheduler "nak1" with entities [EventEntity, EventEntity], work=[144*, 0*]
     0x1050 [0x48] [System] [7574*]:
    → "Your chocobo seems especially sharp today!"
     0x1053 [0x23] WAIT_FOR_DIALOG_INTERACTION
     0x1054 [0x02] IF !(Work_Zone[7] == 99*) GOTO 0x1071
     0x105C [0x45] LOAD_SCHEDULED_TASK: Load scheduler "nak2" with entities [EventEntity, EventEntity], work=[144*, 0*]
     0x106D [0x48] [System] [7575*]:
    → "Your chocobo seems especially energetic today!"
     0x1070 [0x23] WAIT_FOR_DIALOG_INTERACTION
     0x1071 [0x1C] WAIT(1* ticks)
     0x1074 [0x21] END_EVENT
     0x1075 [0x00] END_REQSTACK()
```
