# Event 285

## Metadata

| Field           | Value    |
|-----------------|----------|
| Event Index     | 14/14    |
| Offset          | 0x00F9   |
| Data Size       | 39 bytes |
| Calculated Size | 39 bytes |
| Instructions    | 14       |

```
      00 01 02 03 04 05 06 07  08 09 0A 0B 0C 0D 0E 0F
      -- -- -- -- -- -- -- --  -- -- -- -- -- -- -- --
00F0:                             20 01 1E F0 FF FF 7F            ......
0100: 6F 70 1D 14 80 23 6E EA  01 03 01 01 80 99 EA 01  op...#n.........
0110: 03 01 1D 15 80 23 99 EA  01 03 01 1C 08 80 21 00  .....#........!.
```

## Opcodes

```
  0: 0x00F9 [0x20] SET_CLI_EVENT_UC_FLAG: Lock player control
  1: 0x00FB [0x1E] EventEntity looks at LocalPlayer and starts talking
  2: 0x0100 [0x6F] WAIT_FRAME_DELAY: Yield until WaitTime reaches zero
  3: 0x0101 [0x70] WAIT_ENTITY_RENDER_FLAG: Wait while EventEntity->Render.Flags3 bit 2 is set (cancel turn if not)
  4: 0x0102 [0x1D] PRINT_EVENT_MESSAGE(message_id=7705*)
    → "Ugh, you again. I have no patience for the mercenary mentality.\u007F1\u0000\u0007"
  5: 0x0105 [0x23] WAIT_FOR_DIALOG_INTERACTION
  6: 0x0106 [0x6E] Gadalar (ID: 16974314/0x010301EA) uses emote 0*
  7: 0x010D [0x99] Wait for Gadalar (ID: 16974314/0x010301EA) animation to complete
  8: 0x0112 [0x1D] PRINT_EVENT_MESSAGE(message_id=7706*)
    → "But you do show some skill in battle.\u0007I'll give you that much, \u0008...\u007F1\u0000\u0007"
  9: 0x0115 [0x23] WAIT_FOR_DIALOG_INTERACTION
 10: 0x0116 [0x99] Wait for Gadalar (ID: 16974314/0x010301EA) animation to complete
 11: 0x011B [0x1C] WAIT(30* ticks)
 12: 0x011E [0x21] END_EVENT
 13: 0x011F [0x00] END_REQSTACK()
```
