# Event 65535

## Metadata

| Field           | Value    |
|-----------------|----------|
| Event Index     | 4/16     |
| Offset          | 0x001F   |
| Data Size       | 32 bytes |
| Calculated Size | 32 bytes |
| Instructions    | 12       |

```
      00 01 02 03 04 05 06 07  08 09 0A 0B 0C 0D 0E 0F
      -- -- -- -- -- -- -- --  -- -- -- -- -- -- -- --
0010:                                               1C                 .
0020: 06 80 39 07 80 1C 08 80  1E 21 81 0B 01 6F 70 1C  ..9......!...op.
0030: 08 80 1E 21 81 0B 01 6F  70 5E 69 64 6C 30 00     ...!...op^idl0. 
```

## Opcodes

```
  0: 0x001F [0x1C] WAIT(30* ticks)
  1: 0x0022 [0x39] SET_ENTITY_DIRECTION(direction=11.2°*)
  2: 0x0025 [0x1C] WAIT(60* ticks)
  3: 0x0028 [0x1E] EventEntity looks at Zeid (ID: 17531169/0x010B8121) and starts talking
  4: 0x002D [0x6F] WAIT_FRAME_DELAY: Yield until WaitTime reaches zero
  5: 0x002E [0x70] WAIT_ENTITY_RENDER_FLAG: Wait while EventEntity->Render.Flags3 bit 2 is set (cancel turn if not)
  6: 0x002F [0x1C] WAIT(60* ticks)
  7: 0x0032 [0x1E] EventEntity looks at Zeid (ID: 17531169/0x010B8121) and starts talking
  8: 0x0037 [0x6F] WAIT_FRAME_DELAY: Yield until WaitTime reaches zero
  9: 0x0038 [0x70] WAIT_ENTITY_RENDER_FLAG: Wait while EventEntity->Render.Flags3 bit 2 is set (cancel turn if not)
 10: 0x0039 [0x5E] EventEntity goes idle (kills current action) (animation: "idl0")
 11: 0x003E [0x00] END_REQSTACK()
```
